:020000040800F2
:1000000000500020495F0008616200086562000836
:10001000696200086D62000871620008C162000830
:10002000C1620008C1620008C1620008C162000824
:10003000C1620008C1620008C16200085D67000873
:10004000C1620008C1620008C1620008255E0008A4
:10005000C1620008C1620008C1620008C1620008F4
:10006000C1620008C1620008C1620008C1620008E4
:10007000C1620008C1620008C1620008C1620008D4
:10008000C1620008C162000839630008C16200084B
:10009000DD7E0008C1620008C1620008C16200087C
:1000A000056A0008296A00084D6A0008856A000888
:1000B000D96A0008496B0008B96B0008C1620008E2
:1000C000C1620008C1620008C1620008C162000884
:1000D000C16200083D6D0008916D0008E56D0008E3
:1000E000C16200086D5E0008C162000810B5054CD1
:1000F000237833B9044B13B10448AFF300800123D4
:10010000237010BD481400200000000014F6000801
:1001100008B5064B1BB106480649AFF300800648F8
:10012000036813B1054B03B1984708BD00000000F8
:1001300014F600084C1400204814002000000000B1
:10014000012902D11C30C0B27047062984BF01F1D9
:10015000FF31C9B211F0010F14BF1E201F207047DC
:10016000444B2DE9F047B1FBF3F603FB16113C239A
:10017000B1FBF3F203FB1212054602704FF461600B
:10018000B1FBF0F200FB1211B1FBF3F36B704FF413
:10019000FA63AA70B6B2EB80EC884FF4C873B4FB74
:1001A000F3F803FB18481FFA88F8B8F1000F16D0CF
:1001B0006423B4FBF3F203FB12439BB2002B53D036
:1001C00014F0030140F26D130CBF4FF4B7721A46DE
:1001D00096420EDB002908BF4FF4B77304E0B6F572
:1001E000B77F06DB4FF4B773F61A0134B6B2EC8072
:1001F000D2E700236B716423B4FBF3F703FB1747CB
:10020000BFB2B8F1000F06D03FB114F0030F14BF16
:100210000020012002E0012000E0384695F805901A
:10022000C0B24946FFF78CFF864209F1010A15D397
:10023000B8F1000F06D03FB114F0030F14BF002037
:10024000012002E0012000E03846C0B24946FFF735
:1002500077FF301A86B285F805A0D2E701362E71F5
:1002600085F805A0BDE8F087B6F5B67FC1DD40F2A0
:100270006D13B9E780510100F8B5427887783C23C7
:1002800003FB072702780579467903FB0727013D21
:10029000013EEDB2F6B2044605714671013E731C93
:1002A000E38834D04FF4C872B3FBF2F102FB113291
:1002B00092B262B16422B3FBF2F002FB103080B262
:1002C00030B113F0030F14BF0020012000E0012023
:1002D000C0B2F1B2FFF734FF284485B2DEE74FF435
:1002E000C872B3FBF2F102FB113292B2AAB16422DE
:1002F000B3FBF2F102FB113292B28AB113F0030F99
:1003000040F26D1208BF4FF4B7721544ADB2013B15
:100310009BB2B3F5FA6FE2D205E04FF4B772F4E79F
:1003200040F26D12F1E7024800FB0570F8BD00BF16
:100330008051010002F08CBB38B50D46044602F036
:10034000A2FB290A49006039204601F0FE0102F0B3
:1003500031FC204602F007FCE9B2204602F02AFCFC
:10036000204602F000FC204602F08DFB2046A12131
:1003700002F020FC204602F0F6FB0021204602F0AD
:1003800040FC0546204602F0D1FB204602F096FBD9
:10039000284638BD70B50D461646044602F073FB7C
:1003A000290A49006039204601F0FE0102F002FCF2
:1003B000204602F0D8FBE9B2204602F0FBFB2046C3
:1003C00002F0D1FB3146204602F0F4FB204602F059
:1003D000CAFB204602F072FBBDE870400A2005F01F
:1003E000BBBB0000D30770B548BF013200245208E0
:1003F00002312346E5B2954225D211F8025CA5F1FF
:100400004106F6B2052E02D8104B9B5D05E0303D4B
:10041000EDB2092D03D80E4B5B5D1B01DBB211F869
:10042000015CA5F14106F6B2052E01D8074D04E0A6
:10043000303DEDB2092D02D8054E755D2B430355B5
:1004400002310134D6E7002070BD00BFB20A0108B6
:10045000A80A01082DE9F04F824687B008461446E5
:10046000994608F01FF8C9EB0406CDE900013046B3
:1004700008F006F802460B4600204D4906F0C4FD80
:1004800002460B46DDE9000108F0E6FA30B94FF00C
:10049000020896FBF8F80546013E07E050460021A9
:1004A000224607B0BDE8F04F09F05CBD454536DA9D
:1004B000304607F0E5FF02460B4600203C4906F0B7
:1004C000A3FDCDE90201701E07F0DAFF02460B46DC
:1004D0000020374906F098FDDDE90223CDE904014B
:1004E000DDE9000108F05CF908F0CAFADDE904234F
:1004F0000A2790FBF7FB0BFB17004FEA001BDDE917
:10050000000108F04DF908F0BBFA90FBF7F303FB8C
:10051000170083440AF805B0023E0135C6E709EB2F
:1005200048094FF0020BC4EB090994FBFBFB09F1EE
:100530000109D84538DA484607F0A2FF02460B46C3
:1005400000201B4906F060FD064609F101000F4638
:1005500007F096FF02460B460020154906F054FDB1
:1005600032463B4604460D46DDE9000107F0EEFF4A
:1005700008F086FA0A2690FBF6F707FB16002B46D2
:1005800007012246DDE9000107F0E0FF08F078FAF4
:1005900090FBF6F303FB160007440AF8087009F114
:1005A000020908F10108C4E707B0BDE8F08F00BFF9
:1005B00000002440064A5178937843EA0123A3F5CA
:1005C0002043113B112B9ABF024AD05C0520704793
:1005D00064140020E50C010810B5074C60181146A2
:1005E00002F04BF9054B1B781C4414F8073C1B1A0E
:1005F0005842584110BD00BF64140020E51400208B
:10060000044B18795B7943EA0020431E5842584155
:10061000704700BF64140020044B9B79552B044B9A
:100620000CBF012200221A70704700BF6414002022
:10063000E714002010B5084CE379552B01D10120B7
:1006400010BD064801F0D9F9E3798342F7D0D0F123
:10065000010038BF002010BD64140020EB140020FE
:1006600013B50D4B1C7A552C01D1012012E00B481B
:10067000694601F065F900231A461DF803108C4203
:10068000F3D019B90132D2B2052AEED00133052BCD
:10069000F3D1002002B010BD64140020EB14002040
:1006A00070B505461E46FFF797FF044698B12846E9
:1006B000FFF7A6FF044658B12846FFF7ADFF2846CE
:1006C000FFF7B8FF044648B946B10C480C4911E0A1
:1006D0000A480C490EE009480B490BE02846FFF791
:1006E000BFFF044640B99DF810300BB9012403E068
:1006F0000248064904F0CEFD204670BD34160020A5
:100700000A0B0108B80A0108E60A0108410B0108B2
:10071000194B13B51B7863B30023009304211722F0
:100720000123FFF7BDFFD8B1144C154804F10C01AB
:1007300001F0CAF9A17AE37A124843EA012101F0F3
:100740006DF910B1104B01221A70237A0F48552B06
:1007500002D102F041FE03E00721012202F0E4FF92
:100760000B4B06481A78002102B0BDE8104009F092
:10077000F9BB02B010BD00BF0800002064140020C7
:10078000F9140020EA140020E41400207E15002053
:10079000E5140020174B07B51B7843B300230093E3
:1007A00004210A220123FFF77BFFB8B11248134945
:1007B00001F08BF830B11249124804F06BFD124879
:1007C000032108E011490F4804F064FD104B0A2290
:1007D0000D481A700421012202F0A6FF0D4B0E48AD
:1007E0001A78002103B05DF804EB09F0BBBB03B03D
:1007F0005DF804FB08000020EB1400206C140020BE
:10080000790B0108341600207E150020A90B010881
:100810007F150020E51400206414002013B5002388
:10082000009304210F22FFF73BFF10B31D4C1E481D
:1008300004F10A0100F0BDFD002830D01A4804F18F
:100840000A0100F0F1FD50B31849194804F022FDE7
:100850001848E17901F0A4F8A0B11749144804F050
:1008600019FD16480521012202F05EFF0E4800F036
:10087000ADFE134B0B481A78002102B0BDE81040C2
:1008800009F070BB0A480F4904F004FD0E4B0A2220
:100890001A700A480621012202F046FFE9E70448DF
:1008A0000A49F1E764140020EE1400203C0C010812
:1008B00034160020EB140020D90B01087E1500200F
:1008C000E51400200B0C01087F150020690C0108BD
:1008D0000D4B07B51B789BB1002300930421052223
:1008E0000123FFF7DDFE10B1084802F08BFE084B34
:1008F00008481A78002103B05DF804EB09F032BB18
:1009000003B05DF804FB00BF080000207E15002046
:10091000E51400206414002010B50446FFF74AFED9
:10092000032817D8DFE800F002070C112046BDE8C5
:100930001040FFF7EDBE2046BDE81040FFF72ABF8C
:100940002046BDE81040FFF769BF2046BDE81040D3
:10095000FFF7BEBF10BD00002DE9F047404C002757
:1009600082462770002635463E4804F047FB0028A3
:1009700033DD94F800903B4809F10103237004F043
:10098000E9FADFF8F48008F80900052005F0E4F83A
:1009900023781022434413F8011C334804F007FD68
:1009A0003148324904F05BFC94F90030002B434697
:1009B00002DA2B4A00211170F6B922781A4412F893
:1009C000012C0D2A01D117E00126052DCCD1264896
:1009D000274904F05FFC0127C4E757B125492248A5
:1009E00004F058FC5046FFF797FF00232370BDE842
:1009F000F0872770BDE8F087042DE5D8DFE805F023
:100A0000030C151E27002278134413F8015CB5F17E
:100A10000A035D425D4121E02278134413F8013C52
:100A20000D2B0CBF0225002518E02278134413F883
:100A3000013C0A2B0CBF032500250FE0227813444C
:100A400013F8013C0D2B0CBF0425002506E022788D
:100A5000134413F8013C0A2BB9D00025012683E783
:100A6000E514002084150020341600206E140108BF
:100A7000960C0108BA0C01086414002008B5012086
:100A8000002104F073FE0120014605F007F8002064
:100A9000014604F06BFE0420002104F067FE0520EF
:100AA000002104F063FE0420002104F0F7FF05207C
:100AB000012104F0F3FFBDE808400020014604F0E6
:100AC000EDBF0000014804F0F7BA00BF8415002014
:100AD00008B561B10021052004F0E0FF962005F083
:100AE0003BF8BDE808400520012104F0D7BF08BD50
:100AF00008B50021012004F0D1FF0C4804F0DFFA12
:100B00000220002104F032FE0320002104F02EFE1A
:100B10000220002104F0C2FF0320002104F0BEFFE8
:100B2000BDE808400520002104F0B8BF841500206E
:100B300010B50B78452B12D14B78522B0FD18B78F7
:100B4000CC78303B03EB8303303C04EB4304E4B24A
:100B500021460A22034804F033FC204610BD0A2037
:100B600010BD00BF341600200B784F2B07D14878FA
:100B70004B2804D113704B7801205370704700202C
:100B8000704730B50020C4B20D5D01302C2D01D06E
:100B90001D55F8E7601C5525C0B21D55904204D282
:100BA0000C5C1C540130C0B2F8E730BDF8B54C788D
:100BB000432C08D18C78532C05D1CC78B4F1510555
:100BC0006C426C4100E000240026F5B24F5D013616
:100BD0003A2FFAD10135EDB200279542FEB207F166
:100BE000010706D811F805C0013501F806C0EDB2BD
:100BF000F3E73CB92046C2B2B2420BD20A5C1A54A7
:100C00000130F8E7069A022412681470721ED2B2FC
:100C1000FFF7B7FF0120F8BD37B5154809B91549E9
:100C200000E0154904F01BFB642004F095FF00244C
:100C30000F4804F0E3F90028E5B208DD062C14D0D3
:100C40000B4804F087F90DF804000134F0E755B1C2
:100C50009DF802304F2B08D19DF80300B0F14B03F3
:100C60005842584102E0284600E0002003B030BD61
:100C700084150020F70C0108FB0C010810B5044690
:100C80000120014604F00AFF07484FF4165104F012
:100C900013FA20460121FFF71BFF20460121BDE882
:100CA0001040FFF7B9BF00BF841500202DE9F041C7
:100CB0009EB005AD0C4607460021904628466422AA
:100CC000039309F04FF921462C4804F0C8FA642038
:100CD00004F042FF0024294804F090F90028E6B20D
:100CE00007DD642C45D0254804F034F9285501343B
:100CF000F1E726B92249234804F0CCFA39E09DF8FF
:100D000014300D2B35D19DF815300A2B31D11EAB87
:100D1000334413F8653C0A2B2BD1023E1EAB3344FF
:100D200013F8643C0D2B24D10021CCB2A31CDBB200
:100D3000B34201F1010107DA1EAA134413F8643C1F
:100D4000144404F8643CF0E738462946FFF7F0FE07
:100D50000A280CD103AB0093384629462246434665
:100D6000FFF724FF00280CBF0320022002E001202F
:100D700000E003201EB0BDE8F08100BF8415002014
:100D8000010D0108341600202DE9F041B2B00646ED
:100D90000D4690460021642268461F4609F0E2F89D
:100DA00019A80021642209F0DDF80024E3B2E85C10
:100DB000013420B132AA134403F8640CF6E701466B
:100DC000CAB25D1818F80240EDB232AA01312A44C5
:100DD00014B102F8644CF3E70D2302F8643C6B1C79
:100DE00032A8DBB203440A2219A92D4803F8642C67
:100DF00004F01CFE2B48AA1C036819A99B68D2B2F8
:100E00009847642004F0A8FE264804F0F7F800286C
:100E1000E5B208DD642C3FD0224804F09BF80DF8C1
:100E200004000134F0E7002D36D09DF800300D2B82
:100E300032D19DF801300A2B2ED132AB2B4413F85E
:100E4000C93C0A2B28D1023D32AB2B4413F8C83CD5
:100E50000D2B21D100218B1CDBB2AB4201F1010231
:100E600009DA32A8034413F8C83CC9B2014401F8B6
:100E7000C83C1146EFE730466946FFF759FE0A289D
:100E800008D1304669463A46FFF76EFE80F0010011
:100E9000C0B202E0012000E0032032B0BDE8F081E2
:100EA0003416002084150020F7B51E460446174668
:100EB0000D4600218DF80710FFF7AEFE03F020FB72
:100EC000204631462FB12A460DF10703FFF7EEFE0B
:100ED00003E0089A2B46FFF757FF03282AD8DFE8DC
:100EE00000F011040207002311E01648164901E042
:100EF0001448164904F0CEF920460121FFF78CFE74
:100F000000201CE012490F4804F0C4F912E09DF8DB
:100F100007205E1CDBB29A420A4809D9E95C10221C
:100F200004F045FA07480B4904F099F93346EEE717
:100F300004F09AF920460121FFF76EFE012003B06C
:100F4000F0BD00BF34160020150D0108260D010864
:100F50002F0D01086E1401082DE9F0438BB004AF8A
:100F6000804600210922384602AE002408F0FAFF2C
:100F700000944046314601222C4BFFF795FF054671
:100F800010B92B482B494BE02346F25C07AC092AE9
:100F900001D8303204E0A2F10A01052998BF3732A6
:100FA000E2540133082BF0D14FF0000922488DF8AC
:100FB000249000F053FC0246C0B120491C4804F0C4
:100FC00069F91D48394600F0AFFB50B14B46E15C72
:100FD000FA5C914217D10133082BF8D11448184913
:100FE0001EE01849124804F055F907E00094404605
:100FF0003146154BFFF758FF054698B121460E487C
:1010000000F0EAFB0AE01149094804F043F90097AF
:101010004046314600220C4BFFF746FF054601E0F3
:1010200004F038F928460BB0BDE8F0833B0D010809
:1010300034160020460D0108E9140020660D010851
:10104000EE0D0108840D0108A80D0108B10D01087D
:101050002DE9F04F89B002AF07F10C0683468946AF
:1010600090461C46304600210A2208F07BFF002CE7
:1010700048D1C7F804D05846CDF800803146012247
:101080004B46FFF711FF824608B1214602E03C487B
:101090003C496BE0CCB218F804300131002BF9D197
:1010A000E11D01F4FC71ADEB010D02A9D8B2A04223
:1010B00003D2F05CC8540133F8E70B46581AC0B2AB
:1010C000A0420DD213F8010B092801D8303004E0FA
:1010D000A0F10A05052DF1D8373003F8010CEDE732
:1010E0000025EBB2A3423FD24B5D013508EB050072
:1010F00010F8010C9842F4D02148234904F0CAF8B2
:101100007B689D466C460023DAB219F80210013361
:101110000A29F9D1931D03F4FC73ADEB030DA2F181
:10112000020E02AB0020C1B2551EA94200F101001F
:1011300003DA19F801505D54F5E700223D215A55B4
:10114000584603F80E10CDF800803146FFF7ACFE8C
:10115000054628B90A480D4904F09CF8AA4601E062
:101160004FF0010AA54605E00548094904F092F848
:101170007B689D4650461C37BD46BDE8F08F00BFDA
:1011800034160020180E01083E0E0108950E0108C5
:10119000B70E01087FB50F2204460D4668460021B0
:1011A00008F0E0FE5848594904F074F80A2603F0A4
:1011B000A7F92046002D5DD1FFF7CEFE54498DF8EA
:1011C0000000544A2B462046FFF742FF52498DF853
:1011D0000100524A01232046FFF73AFF50498DF89B
:1011E0000200504A2B462046FFF732FF4E498DF849
:1011F00003004E4A2B462046FFF72AFF4C498DF844
:1012000004004C4A01232046FFF722FF4A498DF88B
:1012100005004A4A2B462046FFF71AFF48498DF839
:101220000600464A2B462046FFF712FF45498DF837
:101230000700404A01232046FFF70AFF42498DF884
:101240000800424A2B462046FFF702FF40498DF82E
:101250000900404A2B462046FFF7FAFE2F4A8DF838
:101260000A003D4920460123FFF7F2FE0C228DF8CB
:101270000B0007E02F4A2E490123FFF7E9FE012268
:101280008DF8000000231DF80310A9B933491E484A
:1012900004F000F82046FFF7F1FC2046FFF728FC99
:1012A00003F02EF92046FFF7E9FC4FF4FA6004F052
:1012B00053FC03F025F905E00133D9B29142E2D3A2
:1012C00004B070BD264803F099FE002803DD2448D1
:1012D00003F040FEF6E7013E16F0FF067FF467AF2D
:1012E0001E2231461F4801F035FB1F49064803F016
:1012F000D1FF40F6B83004F02FFC03F001F904B040
:10130000BDE8704003F030B934160020CD0E01085E
:10131000EC0E0108F80E0108010F0108FE0E01088D
:101320000B0F0108170F0108200F01082C0F0108EF
:10133000350F01083F0F0108420F01084C0F01084B
:101340004F0F0108590F0108630F01086C0F0108C6
:101350006F0F0108790F01087C0F0108860F010843
:101360008415002034150020A30F010810B50021BA
:101370000446152004F0FAF91520012104F08EFB33
:101380002046BDE81040FEF7D5BF08B5052004F0A3
:10139000E3FBBDE808401520012104F07FBB08B540
:1013A0001520002104F07AFBBDE80840052004F078
:1013B000D3BB7FB504460E46FFF7F1FF0D25731929
:1013C0002946204613F80D2C0135FEF7E3FF162DB4
:1013D000F5D13046092101F050FA0646294620464B
:1013E0003246FEF7D7FF0D2529462046FEF7A4FF1B
:1013F00001AB2B440135162D03F80D0CF4D101A8D7
:10140000092101F03AFAB042204603D0FFF7BDFFB0
:10141000002007E00B215522FEF7BCFF2046FFF716
:10142000B4FF012004B070BD7FB504460E46FFF73F
:10143000B6FF172573192946204613F8172C0135D6
:10144000FEF7A8FF202DF5D13046092101F015FA4D
:101450000646294620463246FEF79CFF17252946B8
:101460002046FEF769FF01AB2B440135202D03F820
:10147000170CF4D101A8092101F0FFF9B042204670
:1014800003D0FFF782FF002007E00C215522FEF772
:1014900081FF2046FFF779FF012004B070BDF0B551
:1014A00085B001AD06460F4628460021092208F006
:1014B00059FD0D2421463046FEF73EFF2B1901341D
:1014C000162C03F80D0CF5D121463046FEF734FFFB
:1014D00009210446284601F0D0F9844206D10023B0
:1014E000EA5CFA540133092BFAD101E0002000E054
:1014F000012005B0F0BDF0B585B001AD06460F4640
:1015000028460021092208F02DFD172421463046E7
:10151000FEF712FF2B190134202C03F8170CF5D11C
:1015200021463046FEF708FF09210446284601F00F
:10153000A4F9844206D10023EA5CFA540133092B52
:10154000FAD101E0002000E0012005B0F0BD37B580
:101550000C461E210546FEF7EFFE1F218DF8040004
:101560002846FEF7E9FE02218DF8050001A801F0EA
:1015700084F9207003B030BD10B50446FFF70FFFAB
:10158000002220460B21FEF705FF2046FFF7FDFE57
:1015900020460B21FEF7D0FED0F1010038BF00201D
:1015A00010BD10B50446FFF7FAFE002220460C21BC
:1015B000FEF7F0FE2046FFF7E8FE20460C21FEF77E
:1015C000BBFED0F1010038BF002010BD10B50446AD
:1015D000FFF7E5FE552220462121FEF7DBFE2046DF
:1015E000FFF7D3FE20462121FEF7A6FEB0F15503FA
:1015F0005842584110BD38B50446102004F038FA5E
:1016000008B1002038BD41F2883004F0A5FA10205E
:1016100004F02EFA05460028F3D12046FFF7BFFE5E
:101620002A4620462121FEF7B5FE2046FFF7ADFEF3
:1016300020462121FEF780FED0F1010038BF0020B6
:1016400038BD08B52121FEF777FEB0F155035842A9
:10165000584108BD38B504460D46FFF720FF20B1BC
:1016600020462946FFF747FF40BB20462946FFF7A3
:1016700016FF48B11449154803F00CFE20462946D0
:10168000BDE83840FFF7D0BE20462946FFF733FFBC
:1016900048B10F490D4803F0FDFD20462946BDE83D
:1016A0003840FFF786BE0B49084803F0F3FD20469B
:1016B000FFF762FF2046FFF774FF03E00348064987
:1016C00003F0E8FD012038BDCF0F010834160020DB
:1016D000061001083D1001085110010810B504461C
:1016E000FFF75DFE204635215522FEF753FE2046CA
:1016F000BDE81040FFF749BE08B53521FEF71CFED6
:10170000B0F155035842584108BD10B50446FFF7E3
:1017100046FE204635210022FEF73CFE2046BDE86D
:101720001040FFF732BE000073B505460E46362462
:1017300021462846FEF700FE00AB234401343E2C30
:1017400003F8360CF4D10821684601F096F83F21E1
:1017500004462846FEF7F0FD84420CD100231DF814
:101760000320F2540133082BF9D10448044903F053
:1017700091FD012000E0002002B070BD3416002071
:101780008110010810B540210446FEF7D5FD55280B
:101790000CD02046FFF703FE204640215522FEF7DD
:1017A000F9FD2046BDE81040FFF7EFBD10BD10B5B4
:1017B00040210446FEF7C0FD60B12046FFF7EFFD73
:1017C000204640210022FEF7E5FD2046BDE81040FE
:1017D000FFF7DBBD10BD0000F7B50F460446FFF76D
:1017E000DEFD3846082101F048F8362506467B190B
:1017F0002946204613F8362C0135FEF7CBFD3E2D49
:10180000F5D120463F213246FEF7C4FD3625294654
:101810002046FEF791FD00AB2B4401353E2D03F829
:10182000360CF4D16846082101F027F8864207D02B
:101830002046FFF7BCFF2046FFF7A7FD002007E08A
:101840000449054803F026FD2046FFF79BFF0120D1
:1018500003B0F0BD961001083416002008B54021F1
:10186000FEF76AFDB0F155035842584108BDFEF736
:1018700063BDFEF761BD70B504460E461546FFF721
:101880008EFD204632462221FEF784FD20462A4660
:101890002321FEF77FFD2046BDE87040FFF775BDB0
:1018A00070B504460E461546FFF779FD20463246D0
:1018B0002421FEF76FFD20462A462521FEF76AFD0A
:1018C0002046BDE87040FFF760BDF8B504460E46FF
:1018D000FFF765FD262573192946204613F8262CA7
:1018E0000135FEF757FD2B2DF5D10521304600F0CF
:1018F000C4FF0746294620463A46FEF74BFD2625FB
:1019000020462946FEF718FD731913F8263C83423A
:1019100014D101352B2DF3D120462946FEF70CFDBD
:10192000B842204608D12C215522FEF733FD20462F
:10193000FFF72BFD0120F8BDFFF727FD0020F8BDC4
:1019400070B506460D46262421463046FEF7F4FCC7
:101950002B1901342B2C03F8260CF5D170BD38B5AA
:101960000446FFF71CFD2625002220462946FEF7E7
:1019700011FD20462946FEF7DFFC024620B1204635
:10198000FFF703FD002038BD01352B2DECD120469B
:101990002C21FEF7FFFC2046FFF7F7FC012038BDA5
:1019A00037B502AD04468DF80710FFF7F8FC15F8BF
:1019B000012D20462D21FEF7EDFC0121284600F0E7
:1019C0005CFF2E2102462046FEF7E4FC20462D2136
:1019D000FEF7B2FC9DF807308342204608D12F2144
:1019E0005522FEF7D7FC2046FFF7CFFC012002E08E
:1019F000FFF7CBFC002003B030BD2D21FEF79CBCCF
:101A000010B50446FFF7CBFC20462D210022FEF73F
:101A1000C1FC2046FFF7B9FC012010BD4A1F4AF661
:101A2000BB039A4270B504460D4628D83221FEF712
:101A300083FC332106462046FEF77EFC40EA062062
:101A4000A84204D10F49104803F024FC15E02046B9
:101A5000FFF7A5FC20463221C5F30722FEF79AFCCA
:101A600020463321EAB2FEF795FC20463421552268
:101A7000FEF790FC2046FFF788FC012070BD002097
:101A800070BD00BFAB1001083416002038B53221FC
:101A90000546FEF751FC332104462846FEF74CFC70
:101AA00040EA042038BD08B53421FEF745FCB0F10A
:101AB00055035842584108BD08B5032002F092F979
:101AC000BDE8084002F050BD70B55E480D4609788B
:101AD00001F03DFC697806465A4801F038FC06EBF7
:101AE0008606594C06EB860600EB8600E080A97856
:101AF000544801F02CFC6071E978524801F027FC51
:101B0000207129794F4801F022FC6979A0704D4875
:101B100001F01DFCA97960704A4801F018FC4B499E
:101B200020704B4803F09BFBE1880A22484803F0F1
:101B300026FC4849464803F092FB61790A22444852
:101B400003F03EFC4449424803F089FB21790A2214
:101B50003F4803F035FC41493D4803F080FBA17844
:101B60000A223B4803F02CFC3D49394803F077FB3F
:101B700061780A22364803F023FC3A49344803F0DE
:101B80006EFB0A222178324803F01AFC02F048FC6E
:101B9000642003F0E1FF2046FEF76EFB0146324869
:101BA00002F03EF8642003F0D7FF02F03FFC2E481D
:101BB00002F039F801462046FEF7D2FAE1886423A4
:101BC000B1FBF3F1C9B21F4801F0B8FB2870E288FD
:101BD0004FF47A73B2FBF3F103FB11211948C9B238
:101BE00001F0ACFB68706179164801F0A7FBA870A2
:101BF0002179144801F0A2FBA178E870114801F0A6
:101C00009DFB617828710F4801F098FB217868717D
:101C10000C4801F093FB0024A871295D10220C48A8
:101C200003F0C5FB01340A48104903F018FB072CE8
:101C3000F3D1074803F018FBBDE8704004480C4995
:101C400003F028BB7D150020F0140020CA10010805
:101C500034160020D1100108D9100108DF10010846
:101C6000E6100108F0100108FA1400206E140108B3
:101C7000FA10010870B51C480D4601F0D4FF1B4C4A
:101C800001462046FEF76CFAE188194E6423B1FB49
:101C9000F3F1C9B2304601F051FB2870E2884FF4ED
:101CA0007A73B2FBF3F103FB11213046C9B201F0A4
:101CB00045FB68706179304601F040FBA8702179DE
:101CC000304601F03BFBA178E870304601F036FB6E
:101CD00061782871304601F031FB21786871304617
:101CE00001F02CFBA87170BDFA140020F014002044
:101CF0007D15002070B536488AB0FEF7BDFA04465F
:101D000002F08EFB0A2003F027FF2146314801F044
:101D100087FF304801F087FF04462F48FFF7C3FED6
:101D20002E4E00283BD02C48FFF7B0FE4AF6B103F8
:101D3000A0F10F059D4294BF0546B42533785BB1F1
:101D4000B5F5966F03D92C4401A8254907E004F5A1
:101D50009664244824492CE024492C4401A803F02B
:101D600053FC01A907A803F070FC0A22294604A825
:101D700003F086FC04A907A803F0BCFC1C4903F08F
:101D8000C6FC0146174803F07BFA04A803F0FAFBEF
:101D900007A803F0F7FB01A803F0F4FB0BE033788E
:101DA00023B104F596640F48124902E00D48124928
:101DB000B43403F06FFA11492246064801F035FFAA
:101DC0000A2003F0C9FE02F031FB0AB070BD00BF6B
:101DD000F0140020FA140020EA140020F814002067
:101DE0001D11010834160020431101086A11010871
:101DF0003C11010880110108B6110108B93A000828
:101E000030B5154885B0FEF737FA144C054602F098
:101E100007FB0A2003F0A0FE2946204601F000FF40
:101E2000204601F000FF0E49054601A803F0ECFB37
:101E300001A90C4803F024FA01A803F0A3FB0A4906
:101E400005F56162204601F0F0FE0A2003F084FEF1
:101E500002F0ECFA05B030BDF0140020FA140020B6
:101E6000DC11010834160020B93A0008014811219C
:101E700001F0CDBEFA1400202DE9F84300240F46EE
:101E80009046994625464C4513DA5FFA88F60121BB
:101E9000304603F003FE0A2003F05EFEF8B203F0C2
:101EA000E7FD002100EB4505304603F0F7FD013466
:101EB000E9E72846BDE8F88370B5D4B21D46EDB217
:101EC0000E462046002103F051FC2846002103F075
:101ED0004DFC2046012103F0E1FD2846012103F0DD
:101EE000DDFD2046002103F0D9FD2846002103F046
:101EF000D5FD2846012103F0D1FD2046012103F044
:101F0000CDFD2846002103F0C9FDF3B20122204691
:101F1000294603F0EFFD2846012103F0BFFD2046CE
:101F2000022103F023FC204603F0A2FD28460021F5
:101F300003F0B4FD2046BDE8704003F099BD38B50C
:101F4000CDB22846022103F011FC64240A2003F0DC
:101F500003FE284603F08CFD08B1013CF6D138BDE4
:101F60002DE9F843CCB2154680460E46EFB2204626
:101F7000022103F0FBFB3846002103F0F7FB2A4661
:101F8000082331464046FFF777FF00214FEA00293A
:101F9000204603F0EBFB2046012103F07FFD2046A5
:101FA000002103F07BFD3846012103F077FD384620
:101FB000002103F073FD2046022103F0D7FB4046C9
:101FC00031462A460823FFF757FF49EA0000BDE8DB
:101FD000F88338B51446CDB2E4B22846002103F0A8
:101FE000C5FB2046002103F0C1FB2846012103F078
:101FF00055FD2046012103F051FD20460021BDE89A
:10200000384003F04BBD38B590E80C00044603217E
:10201000FFF752FF20462168FFF791FF94E8060082
:102020002046FFF79DFF94E8060005462046FFF78F
:10203000D0FF284606F076FE38BD000008B5FFF751
:10204000E2FF07F089F806F06DFE034906F0BEFED8
:10205000024906F0B1FD08BD0AD7233C000020422A
:10206000F8B590E80C0004460521FFF725FF20464F
:102070002168FFF764FF94E806002046FFF770FF31
:1020800094E8060005462046FFF7A3FF284606F021
:1020900049FE1E49064606F099FE4FF0814106F0C2
:1020A0008BFD1B490546304606F090FE314606F092
:1020B0008DFE0146284606F081FD07462046FFF7C3
:1020C000BDFF06F0EFF90022124B06F08BF8044634
:1020D0000D463046104906F079FE104906F06EFDB7
:1020E00006F0E0F902460B462046294606F02EFA95
:1020F000044638460D4606F0D5F902460B46204602
:10210000294606F071F806F003FDF8BD54E3253DBD
:10211000A2E73BB600003940ACC5A7380AD7233C3C
:10212000024B1D211C2283E806007047FC1400208E
:1021300007B53248FFF785FA002837D1304B3149CF
:1021400018702E48FFF735F928B12C482D49FFF7B4
:102150006BF9002848D12C48FFF752FC20B12A48DF
:10216000FFF7FDFB002844D101238DF800302648FD
:10217000002369468DF801308DF802308DF8033068
:102180008DF80430FFF7A1FB18B12048204903F077
:1021900081F820480021052200F0DCFB06E0102039
:1021A00003F066FC40B11C48FEF7D6FB1348FFF76E
:1021B00048FA0028F3D011E041F2883003F0CCFC5B
:1021C000102003F055FC0028EDD1144801F004F96B
:1021D000102003F04DFC0028FAD0E4E7084B012260
:1021E0001A7003B05DF804FB0D49084803F052F87B
:1021F000B1E70C49054803F04DF8B5E7EE140020AF
:102200000800002008150020EB14002034160020E0
:102210003012010834150020E61400207E1500203D
:102220004D12010861120108104B70B51A78104C5C
:102230001E462568CAB90F4801F0FCFA226805F568
:102240001C5310339A4201D2337853B10A490B48D8
:10225000236803F01FF8BDE870400848084903F000
:1022600019B80848FEF778FBE8E770BDE4140020D1
:102270009C1800207E1500209012010834160020C2
:10228000AE120108E614002008B51049104803F00A
:1022900001F84FF47A7003F05FFC0E4800F084FB05
:1022A0001420002103F0FAFB0120002103F0F6FBCB
:1022B0000121132003F0F2FB012002F063F9012059
:1022C00002F07AF9BDE8084002F062B9C1120108D3
:1022D000341600203415002008B50448044902F0E3
:1022E000D9FFBDE80840FFF7CFBF00BF341600207C
:1022F000D312010808B5102003F0BAFBF0B964202E
:1023000003F02AFC102003F0B3FBB8B941F2883087
:1023100003F022FC082003F0ABFB78B9642003F043
:102320001BFC082003F0A4FB40B90548FFF7EDF9BA
:10233000BDE808400348044902F0ACBF08BD00BF37
:10234000E914002034160020D91201089B4B30B547
:102350001A6887B022F0E06242F000721A60984872
:102360004FF4165103F010FB96484FF41651FEF748
:10237000A9FB95484FF4165102F09EFE02F043F877
:1023800092498F4802F086FF914800F0BDFA8D48CF
:10239000FEF774FB1420002103F0E8F9002114205B
:1023A00003F07CFB8B48FEF7E1FF01218548FEF737
:1023B00033FC4FF47A7003F0CFFB8748FEF7CCFA7A
:1023C00086497F4802F066FF85482221FFF751FACF
:1023D0000128044605D182482321FFF74AFA054621
:1023E000A8B100227E480121FFF745FA7D496846E1
:1023F00003F00AF9694603A803F027F9012103A8AD
:1024000003F097F9784903F082F900210FE077494A
:10241000684603F0F9F8694603A803F016F9214667
:1024200003A803F086F9704903F071F9294603F017
:1024300080F90146624802F023FF03A803F0A2F8E6
:10244000684603F09FF866482421FFF710FA072832
:10245000044616D162482521FFF709FA054680B9DE
:102460006349684603F0D0F8694603A803F0EDF825
:10247000214603A803F05DF95B4903F048F92946BA
:1024800014E0002256480721FFF70AFA5949684626
:1024900003F0BAF8694603A803F0D7F8072103A8A8
:1024A00003F047F9504903F032F9002103F041F9F4
:1024B0000146434802F0E4FE03A803F063F86846CF
:1024C00003F060F8FFF716FF4B48FFF715F988B9DE
:1024D0003C480121FEF75EFE3A480121FEF7F8FA7A
:1024E00001213848FEF798FB3B48FEF735FA424891
:1024F000FFF7F4F84148FFF77EF8FFF719FE40496F
:102500003E48FFF7A7F80146B0B90A22304800F06C
:1025100021FA3C492A4802F0BDFE3B4801F006F88A
:102520004FF47A7003F018FB2B48FEF715FA40F6CB
:10253000B83003F011FBE2E73449214802F0AAFE6B
:10254000234801210A2200F005FA214800F044FA4C
:10255000B0F52F6F0DD8642003F0FEFA1C4800F090
:102560003BFAB0F52F6F04D82948FFF749FCFFF775
:102570008BFE2849124802F08DFEFFF755FE1448E5
:1025800000F02AFA40F6E3439842234C02D9002394
:10259000237009E001250E48257000F01DFA40F671
:1025A000B833984298BF25701948FFF7A3FB1B4921
:1025B000034802F06FFE07B030BD00BF04000140C9
:1025C00034160020E81400209C1500201D1301087B
:1025D00034150020ED140020E6140020111A010823
:1025E000EC1400209113010894100108AC130108A9
:1025F000E1130108C6130108E9140020EE140020BD
:1026000008150020331301087E1500206613010809
:10261000F91400207F130108F81400208813010822
:102620000A4B1A680A4B9B6800BF00BF074909683C
:102630008A42F5D1C3F58C33482103F5A073B3FB6F
:10264000F1F34FF47A7000FB023070479C180020C1
:1026500010E000E010B5044680E80600D0B200218A
:1026600003F084F82078002103F080F8002320791B
:10267000E360012103F012FA20780121BDE8104047
:1026800003F00CBA38B5C36804460D4623B10021E7
:10269000C160007803F06AF820782946BDE8384028
:1026A00003F0FCB910B500210446FFF7EBFF6420EE
:1026B00003F060FA2079002103F0F0F9BDE8104042
:1026C000642003F057BA10B500210446007903F0E6
:1026D000E5F9642003F04EFA20460021FFF7D2FF0F
:1026E000642003F047FA2079012103F0D7F9642030
:1026F00003F040FA20460121FFF7C4FFBDE8104077
:10270000642003F037BAF8B504460E460825F709E9
:102710002079002103F0C2F920463946FFF7B2FFC5
:102720000121207903F0BAF9642003F023FA20464E
:102730003946FFF7A7FF7600013DF6B2E7D12946FB
:10274000207903F0ABF92078022103F00FF802237F
:10275000E3602079012103F0A1F9FFF761FF05464D
:10276000207803F085F930B1FFF75AFF401B642849
:10277000F6D90020F8BD0120F8BD38B50D46044655
:10278000FFF790FF6900204601F0FE01FFF7BBFF55
:1027900038BD08B5FFF797FF002008BD08B5FFF763
:1027A000B2FF08BD70B50D466D0004461646FFF732
:1027B00079FF691CA6602046C9B2FFF7A4FF70BD6F
:1027C00070B586680446002E55D00078022102F0CC
:1027D000CDFF0223E360082500262079002103F0C5
:1027E0005DF90121207903F059F9642003F0C2F961
:1027F000207803F03DF9013D00EB460000F0FF06B4
:10280000EBD1A3686068013B002BA360C0B22946EE
:1028100017DD03F043F9642003F0ACF929462046A4
:10282000FFF730FF642003F0A5F92079012103F0C0
:1028300035F9642003F09EF92079294603F02EF93A
:1028400019E003F02BF9642003F094F901212046EC
:10285000FFF718FF642003F08DF90121207903F0C0
:102860001DF9642003F086F92079294603F016F952
:102870002046FFF728FF304670BD002330B50546DF
:1028800018468B420FDAEA5C5040082210F0010F24
:102890004FEA60041ABF84F0E000C0B2E0B2013A2F
:1028A000F4D10133EDE730BD08B5134B13491A6875
:1028B000096801328A421A601DD3114900221A6048
:1028C0000B78DB43DBB20B700E49097841B101296B
:1028D00011D1182003B1114603F0E0F8192005E0EA
:1028E000192003B9012103F0D9F818200021BDE80F
:1028F000084003F0D3B808BD28150020301500208B
:10290000241500202C15002008B51320002102F00A
:102910002DFF1820002102F029FF1920002102F0CC
:1029200025FF1020022102F021FF0820022102F0E1
:102930001DFF0321072002F019FF0A2003F00CF904
:102940001820002103F0AAF8BDE808401920002152
:1029500003F0A4B80F4B10B50F4C19700F4B204665
:102960001A600121022202F01BFC20460C4902F0F1
:10297000F8FB012120460A4602F016FC2046012100
:10298000084A02F020FC20460021BDE8104002F079
:10299000DFBB00BF2C1500202416002030150020BE
:1029A000A0860100A948000808B5064802F0BAFB55
:1029B0001820002103F072F8BDE80840192000211A
:1029C00003F06CB824160020014802F0B3BB00BF2E
:1029D000241600200000000030B58BB001AD284661
:1029E0000021242207F0BEFA0024072003F032F869
:1029F00005F046FD12A3D3E9002305F0A7FD002250
:102A0000114B05F0A3FD06F063F828514FF47A70DE
:102A1000043403F0AFF8242CE7D109226B4608AC4C
:102A200053F8040F5968884284BF58601960A34264
:102A3000F6D1013A12F0FF02F0D105980BB030BD8B
:102A4000F163CC5D4BC8E93F00001840AFF3008054
:102A500008B51620002102F089FE1720002102F09F
:102A600085FE1620012103F019F8BDE80840172063
:102A7000012103F013B81720002102F077BE1720C0
:102A8000042102F073BE08B5FFF7F5FF17200121FE
:102A900003F004F80121162003F000F8052003F0EC
:102AA00069F80021172002F0F9FF062003F062F810
:102AB000BDE808401620002102F0F0BF08B5FFF77E
:102AC000DAFF1620002102F0E9FF1720002102F0B2
:102AD000E5FF0121162002F0E1FF062003F04AF88D
:102AE0001720012102F0DAFFBDE80840062003F0BC
:102AF00041B810B500210446162002F0CFFF204651
:102B0000FFF7B9FF0021172002F0C8FF022003F0F1
:102B100031F80121162002F0C1FF052003F02AF848
:102B2000BDE810401620002102F0B8BF10B500210A
:102B30000446162002F0B2FF2046FFF79CFF012159
:102B4000172002F0ABFF022003F014F80121162039
:102B500002F0A4FF052003F00DF8BDE81040162098
:102B6000002102F09BBF70B50646FFF788FF0121E8
:102B7000172002F093FF012002F0FCFF1620012134
:102B800002F08CFF012002F0F5FFFB25172002F078
:102B90006FFF044640B1013D15F0FF05F6D1304608
:102BA000FFF78CFF012070BD1620214602F076FF52
:102BB000204670BD38B50C46FFF75DFF162000219A
:102BC00002F06CFF082524F07F0303F0FF011720BB
:102BD00003B1012102F062FF0121162002F05EFF25
:102BE000022002F0C7FF1620002102F057FF013D2E
:102BF0000220640002F0BEFF15F0FF05E4B2E2D14E
:102C000038BDF8B505460F46FFF739FF0826002402
:102C10000021162002F042FF022002F0ABFF162036
:102C2000012102F03BFF64001720E4B202F020FF14
:102C300008B10134E4B20120013E02F09BFF16F01E
:102C4000FF06E5D1284617B9FFF770FF01E0FFF74F
:102C500050FF2046F8BD70470120704701207047A3
:102C600010B5FF2301441A46884208D010F8014BE2
:102C70005440044A125D5A40034B1B5DF4E743EA9B
:102C8000022010BD090000200B01002070B5094D85
:102C9000094C0646227829780848FFF7DBFC28789B
:102CA000012102F0FBFE2078012102F0F7FE304600
:102CB00070BD00BF090100200A0100206C15002032
:102CC00010B5064C2046FFF758FD2046FFF761FD82
:102CD000D0F1010038BF002010BD00BF6C150020EE
:102CE00010B54A2104460548FFF7EAFF28B12368DA
:102CF00020461B6801219847012010BD7C1500204B
:102D000070B5094C154620461E46FFF736FD29468C
:102D10002046FFF743FD20463146FFF73FFD2046A2
:102D2000BDE87040FFF735BD6C150020F8B51348BD
:102D300014461E460F469DF81850FFF71EFD21460B
:102D40000E48FFF72BFD0D48FFF723FD0B4CA5B1F7
:102D50002A4620463946FFF725FD0022237A551CD6
:102D600033B10648D7B2FFF72BFD2A46F055F5E7F9
:102D70000248BDE8F840FFF70CBDF8BD6C15002017
:102D8000F0B51C4685B0012300930DF10F031546E5
:102D900007460E46FFF7CAFF9DF80F309DF8282022
:102DA00023EA040314402343384631462A468DF86B
:102DB0000F30FFF7A5FF05B0F0BD000013B50024EC
:102DC00071B1012213460B484A210094FFF7D8FF46
:102DD0004A210094074802224023FFF7D1FF8021B7
:102DE000009104484A2102228023FFF7C9FF02B064
:102DF00010BD00BF7C15002008B51E220F481F2102
:102E0000FFF728FC38210D48FFF7B7FC06210B48D7
:102E1000FFF7C4FC0948FFF7BCFC4FF4FA7002F05E
:102E20009BFE0748FFF75CFF10B10648064901E02A
:102E300004480649BDE8084002F02CBA14150020E9
:102E400038150020341600203814010851140108E8
:102E5000F0B5334C85B00D461646FFF7CDFF39214E
:102E600001222046FFF79EFC012002F075FE277A22
:102E70001FB12046FFF7A4FC07463821012228484D
:102E8000FFF790FC012002F067FE207A10B1244881
:102E9000FFF796FC40EA072005F0E2FA1EA3D3E90B
:102EA000002305F053FB05F013FE1E4930601E4859
:102EB00002F0D5F931680A221B4802F094FA022385
:102EC00000931A4803AB4A210322FFF72FFF9DF816
:102ED0000D209DF80C3002F00F0242EA03122D2162
:102EE000D2B24A431B0902FA03F34FF47A72B3FBDE
:102EF000F2F32B600E490C4802F0B1F929680A225E
:102F0000094802F07AFA0B49074802F0C3F905B004
:102F1000F0BD00BFAFF300800AD7A3703D0A773F32
:102F2000141500206A140108341600207C150020B6
:102F3000701401088714010808B50348FFF7A6FEBE
:102F4000024A034B1A6008BD7C15002008140108D2
:102F5000381500202DE9F0411E463D4B86B018681B
:102F60008846596801AC03C4174600210A2203A809
:102F700006F0F8FF9DF8303006AC04F8143D20460A
:102F80000621FFF76DFE030A8DF80B0031488DF81E
:102F90000A30036821469B6808229847642002F0A3
:102FA000DBFD00242B4802F029F8002804F101057C
:102FB00009DD284801F0CEFFE4B206AB1C4404F85A
:102FC0000C0C2C46EEE79DF80C509DF814405DB9B2
:102FD0000DF10D000721FFF743FE9DF8153043EA80
:102FE000042484420BD10EE003A80721FFF738FE2A
:102FF0009DF8133044EA032484420FD000254FF695
:10300000FF7415481CE09DF811309DF810009DF8E4
:10301000124043EA00209DF8133009E09DF810307B
:103020009DF80F009DF8114043EA00209DF81230F2
:1030300043EA042405F072FE084905F07BFFE50B26
:10304000C8F800003C60357006B0BDE8F08100BFF4
:10305000201401089C15002000FF7F470000C84293
:1030600070B5274C86B020680E46616801AB03C37B
:1030700006AC15460021092203A806F073FF04F8E8
:10308000145D20460621FFF7EBFD030A8DF80B00C7
:103090001C488DF80A30036821469B68082298472F
:1030A000642002F059FD0024164801F0A7FF002813
:1030B0000DDD144801F04EFF651CEDB206AB1C445B
:1030C000082D04F80C0C34BF2C460024ECE703A8B0
:1030D0000521FFF7C5FD9DF811209DF8123043EA48
:1030E0000223834205BF9DF80F209DF810304FF654
:1030F000FF7343EA02230A225343336006B070BDD4
:10310000281401089C150020F0B516462A4A87B0FD
:1031100010680F46516801AC1D4603C4092206AC75
:10312000002103A806F01EFF04F8145D20460621C6
:10313000FFF796FD030A8DF80B0020488DF80A3042
:10314000036821469B6808229847642002F004FD2A
:1031500000241A4801F052FF00280DDD174801F045
:10316000F9FE651CEDB206AB1C44092D04F80C0CED
:1031700034BF2C460024ECE703A80721FFF770FDBD
:103180009DF813209DF8143043EA022383420CD1AA
:103190009DF812309DF811009DF80F2043EA0020A1
:1031A0009DF8103043EA022302E04FF6FF73184601
:1031B0003860336007B0F0BD301401089C15002062
:1031C00073B50121514D142002F068FC642002F017
:1031D000C3FC2846FEF732FF4D4C012620606420D8
:1031E00002F0BAFC2846FEF73BFF4A4DA06064207F
:1031F00002F0B2FC04F1140304F1180104F110020E
:1032000000962846FFF7A6FE642002F0A5FC04F114
:10321000280128460222FFF723FF642002F09CFCCD
:10322000334604F11C0104F120022846FFF76CFF2D
:10323000642002F091FC04F1240204F10C01284600
:10324000FFF706FE344D642002F086FC14200021B6
:1032500002F024FC2846314902F001F8206805F00C
:1032600021F9022602460B460096284602F07CF918
:1032700028462B4901F0F3FFA06805F013F90096EA
:1032800002460B46284602F06FF92846254901F010
:10329000E6FF23696421B3FBF1F10A22284602F01C
:1032A000A2F82149284601F0DAFFA06A05F036FDB0
:1032B0001E4905F03FFE05F0F5F8009602460B4664
:1032C000284602F051F92846194901F0C8FFA069C3
:1032D00005F0E8F800960B460246284602F044F94D
:1032E0002846144901F0BBFFE1690A22284602F092
:1032F0007AF82846104901F0B2FF216A28460A22CE
:1033000002B0BDE8704002F06EB800BFFC140020AF
:10331000401500203C1500203416002092140108AE
:10332000B11401088C140108A01401080000C8425F
:10333000AB140108BC140108C91401080A22B1FB2E
:10334000F2F302FB131202EB0310C0B2704701F05C
:103350000F03090901EB810103EB4100C0B2704783
:1033600037B50C460C480DF10701FEF7F0F89DF853
:1033700007304FF47A705843084902F0B0FB9DF8CB
:103380000730054664205843054902F0A8FB28444D
:10339000206003B030BD00BFEE14002080841E000A
:1033A000400D030070B50E4615460024E3B2AB4253
:1033B000074809D2315D102201F0F9FF04480549A0
:1033C00001F04DFF0134F1E7BDE8704001F04CBF62
:1033D000341600206E14010830B595B04022054621
:1033E000002104A806F0BEFD002414A941F8504DA8
:1033F00028466946FFF7B4FF009802F0BBFBFE23A6
:103400008DF81030E0238DF8113011238DF8123033
:1034100024238DF8133001238DF815303C4B8DF8A3
:1034200014401B7803B155233A488DF81630FEF747
:10343000E4FA01AC8DF8170021463648FEF780FA11
:10344000002304AA1A44E15C0133052B1172F8D160
:1034500031482146FEF723F8002304AA1A44E15C10
:103460000133092B5173F8D10024012305A824212D
:103470008DF826308DF827408DF828408DF82940AA
:103480008DF82A408DF82B408DF82C408DF82D407A
:103490008DF82E408DF82F408DF830408DF831405A
:1034A0008DF832408DF833408DF834408DF835403A
:1034B0008DF836408DF83740FFF7DFF98DF838008A
:1034C000E30704AB234404F1010454BF0D220A2294
:1034D000062C83F82920F3D11049114801F0DAFEB7
:1034E00004A928462F22FFF75DFF0E48FFF75CFA7C
:1034F0000D4804A903682F229B6898474FF4FA707F
:1035000002F02AFB0748FFF75FFA15B030BD00BF95
:10351000E7140020EB140020EE140020D61401085C
:1035200034160020341500208415002030B587B0F3
:1035300014220446002101A806F014FD002506A966
:1035400041F8185D20466946FFF70AFF009802F02F
:1035500011FBFE238DF80430E0238DF80530132392
:103560008DF8063005238DF8073001238DF80930DA
:103570001E4B8DF808501B7803B155231C488DF85D
:103580000A30FEF73AFA01238DF80B00052102A854
:103590008DF80C30FFF771F900238DF80D00DA0774
:1035A00001AA1A4403F1010354BF0D210A21062B7D
:1035B0009172F4D10F49104801F06CFE01A9204628
:1035C0001022FFF7EFFE0D48FFF7EEF90C4801A9B6
:1035D000036810229B6898474FF4FA7002F0BCFA17
:1035E0000648FFF7F1F907B030BD00BFE71400202F
:1035F000EB140020F21401083416002034150020CA
:103600008415002030B58DB01E220546002104A887
:1036100006F0A8FC00240CA941F8244D2846ADF87A
:103620000840FFF79DFE039802F0A4FA344B009483
:10363000344802A90122FDF737FCFE238DF8103033
:10364000E0238DF8113014238DF8123012238DF8F9
:10365000133001238DF815302B4B8DF814401B7857
:1036600003B1552329488DF81630FEF7C6F901231A
:103670008DF81830264B00241B788DF817009DF824
:10368000081024488DF819308DF81A408DF81B4029
:10369000FFF75DFE9DF809108DF81C001D48FFF72F
:1036A00056FE12218DF81D0005A8FFF7E6F8234607
:1036B0008DF81E00DA0704AA1A4403F1010354BF6F
:1036C0000D210A21062BD173F4D11349134801F0BF
:1036D000E1FD04A928461522FFF764FE1048FFF714
:1036E00063F9104804A9036815229B6898474FF4B2
:1036F000FA7002F031FA0A48FFF766F90DB030BDF2
:1037000018150108E8140020E7140020EB1400202D
:103710007F1500207D150020221501083416002099
:103720003415002084150020F0B589B005460F46F9
:1037300016460021192201A806F014FC002408A94D
:1037400041F8204D28466946FFF70AFE009802F02E
:1037500011FAFE238DF80430E0238DF8053015238F
:103760008DF806300E238DF8073001238DF80930CF
:103770002A4B8DF808401B7803B1552328488DF853
:103780000A30FEF73AF900248DF80B00012302A855
:103790000E218DF80C308DF80D708DF80E408DF8DF
:1037A0000F408DF810408DF811408DF812408DF8C3
:1037B00013408DF814408DF81540FFF75EF88DF832
:1037C0001600E30701AB234404F1010454BF0D22AA
:1037D0000A22062CDA74F4D11249134801F05AFD7A
:1037E000284601A91922FFF7DDFD1048FFF7DCF894
:1037F0000024E3B2B3420BD20D4801A90368192299
:103800009B6898474FF4FA7002F0A6F90134F0E78C
:103810000648FFF7D9F809B0F0BD00BFE714002053
:10382000EB1400203C15010834160020341500204C
:1038300084150020F0B50024ABB0214606461422C2
:1038400005A8019406F08EFB802221460AA806F006
:1038500089FB2AA941F8A04D3046FFF781FD029867
:1038600002F088F9A448FFF7ABFCFE238DF828305E
:10387000D0238DF8293001253023A0488DF82B3036
:103880008DF82C408DF82A508DF82D50FFF7A4F8B4
:103890009B4C030A27688DF82F009A4938468DF80B
:1038A0002E3005F04FFC28B1FF238DF830308DF815
:1038B00031301AE03846002105F026FC18B107F136
:1038C0000047276000E00546022301A82168042282
:1038D000FCF7C0FD9DF804308DF830309DF80530C0
:1038E0008DF831300DB1F22300E0E223A5688DF8A8
:1038F000323028460023019305F02EFC013863285E
:1039000003D9FF238DF833300BE0022301A82946A9
:103910000422FCF79FFD9DF804308DF833309DF8AC
:1039200005308DF834300021E223142205A88DF8EB
:103930003530019106F016FBE268734B9A4207D9C5
:10394000FF238DF836308DF837308DF8383019E098
:103950006E4905A806F06EFD05A806F0EFFD05A965
:10396000024601A8FCF73EFD9DF804308DF8363084
:103970009DF805308DF837309DF806308DF83830D9
:103980009DF807308DF83930E0238DF83A30A36A7E
:103990000A200025B3FBF0F0019505F0BFF92B4696
:1039A0000146042201A8FCF755FD9DF80430606A29
:1039B0008DF83D309DF8053064288DF83E304FF08D
:1039C000E1038DF83B508DF83C508DF83F30019568
:1039D00003D9FF238DF840300DE005F09FF92B4609
:1039E0000146042201A8FCF735FD9DF804308DF84E
:1039F00040309DF80530E02220698DF842208DF896
:103A000045208DF848204FF6FE728DF841309042E7
:103A10004FF0FF038DF843308DF844308DF8463079
:103A20008DF8473002D98DF8493016E0344B1B7DB4
:103A3000012B08BFC0F5803005F070F9344905F05E
:103A400079FA02230146042201A8FCF703FD9DF840
:103A500004308DF849309DF805308DF84A30237DCB
:103A6000A569012B0CBFF223E2238DF84B302846C9
:103A70000023019305F070FB642803DDFF238DF81C
:103A80004C300BE0022301A829460422FCF7E2FC9B
:103A90009DF804308DF84C309DF805308DF84D3090
:103AA000206AE2238DF84E304FF6FE7300259842CF
:103AB000019503D9FF238DF84F300DE005F02EF965
:103AC0002B460146042201A8FCF7C4FC9DF80430F3
:103AD0008DF84F309DF805308DF85030E069E023C7
:103AE0008DF851304FF6FE7300259842019511D99B
:103AF000FF238DF852301BE03C15002034150020C8
:103B00004015002000001643400D03005415010825
:103B10000000C84205F002F92B460146042201A824
:103B2000FCF798FC9DF804308DF852309DF8053074
:103B300003AC8DF853301F48E02321468DF85430F4
:103B4000FEF798F800230AAA1A44E15C0133072B18
:103B500082F82D10F7D10BA83021FEF78EFE00233E
:103B60008DF85C00DA070AAA1A4403F1010354BF76
:103B70000D210A21062B82F83510F3D10E490F488A
:103B800001F088FB0AA930463B22FFF70BFC0C48EA
:103B9000FEF70AFF0B480AA903683B229B68984777
:103BA0004FF4FA7001F0D8FF0548FEF70DFF2BB077
:103BB000F0BD00BFF91400205A150108341600208A
:103BC0003415002084150020122938B50546144606
:103BD00008460BD0132910D0112916D100F07CF81B
:103BE0000CB120460FE047F6FF700CE000F074F8CF
:103BF000002CF6D149F63F4005E000F06DF8002CAE
:103C0000EFD14FF2234000F06BF9284638BD13B5D1
:103C10000022044601A8FFF7D7FF204602B010BDDE
:103C2000084600F043B900F02FB910B510460C4615
:103C300000F070F921460320BDE8104000F0A2B862
:103C4000054B1B681B685B0103F1844394331A68BE
:103C5000002AFCD0704700BF0C020020054B1B68F7
:103C60001B685B0103F184438C331A68002AFCD083
:103C7000704700BF0C02002008B5FFF7E1FF054BBD
:103C800000221B681B685B0103F18443C3F88C208E
:103C900008BD00BF0C02002008B5FFF7D1FF054B9F
:103CA00001221B681B685B0103F18443C3F8902069
:103CB00008BD00BF0C02002008B5FFF7C1FF054B8F
:103CC00000221B681B685B0103F18443C3F890204A
:103CD00008BD00BF0C02002010B5044600F093FBA5
:103CE00000F09EFB204A112C136A23F440731362E8
:103CF00013460BD005D8C4B1102C2AD1002313626F
:103D000027E0122C11D0132C1AD022E0174A0021E0
:103D10001160012142F8081C154A126812F0FF0FC9
:103D2000FAD01A6A42F4807212E0124A012111603C
:103D3000114A1268002AFBD01A6A42F4007207E0A6
:103D40000E4A126812F0FF0FFAD01A6A42F440725B
:103D50001A620B4B01221A60FFF78EFFFFF77EFFFE
:103D6000BDE81040FFF76CBF00100240080442425B
:103D700004044242800442428404424244004242DB
:103D80003C04424238B5144D04462B6803EB8003D3
:103D90005960FFF755FF032C09D1104A0123136026
:103DA000C2F800310E4B4FF400725A6038BD2B68D8
:103DB00001221B68944204EBC3034FEA830303F11F
:103DC00084431A6003D002D3022C00D038BD044BC8
:103DD00008221A6038BD00BF0C0200204480204237
:103DE00000E100E010B50446FFF72AFF032C0B4B5F
:103DF00005D10B4900220A60C1F8002108E01A68C9
:103E00000021126804EBC202920002F184421160A8
:103E10001B6803EB84040023636010BD0C020020C8
:103E200044802042F8B5104B1E6835682B686F68D7
:103E30001F4017F0010403D074680CB1A04701249F
:103E4000BA0704D5B36813B1984744F002047B075E
:103E500004D5F36813B1984744F004046B6823EA6F
:103E600004046C60F8BD00BF0C02002008B5044BD0
:103E70001B681B691BB19847024B01221A6008BDE1
:103E80000C020020C482204208B5FFF7F5FEFFF7C0
:103E9000E5FEFFF7D5FE044B1B681B689869DB69DC
:103EA0009BB243EA004008BD0C02002010B5044656
:103EB000FFF7E2FEFFF7D2FEFFF7C2FEFFF7ECFED0
:103EC000064B220C1B68A4B21B689A61DC61FFF7E9
:103ED000F3FEBDE81040FFF7B3BE00BF0C020020A8
:103EE00010B50446FFF7C8FEFFF7B8FEFFF7A8FEBF
:103EF000FFF7D2FE064B220C1B68A4B21B689A6027
:103F0000DC60FFF7D9FEBDE81040FFF799BE00BFA7
:103F10000C02002010B50446FFF7AEFEFFF79EFE30
:103F2000FFF78EFEFFF7B8FE064B220C1B68A4B20B
:103F30001B681A625C62FFF7BFFEBDE81040FFF726
:103F40007FBE00BF0C02002001498D460149084791
:103F500000500020595F000808B5124B124A19683A
:103F6000914201D0002301E0104B07E01048D41823
:103F70008442F9D2C858D0500433F7E70D4A93422F
:103F800003D2002243F8042BF8E705F03BFC0020A5
:103F90000146024601F0D9FB074B0BB105F022FCAC
:103FA000FEE700BF441E0108000000204814002066
:103FB00048140020E0180020E5B7000808B50D4BB4
:103FC0001A680AB90C4A1A601B680C4AD21A824253
:103FD00004DB09494242591A914206DA05F0FCFB1A
:103FE0000C2303604FF0FF3008BD024A18441060F4
:103FF000184608BD80150020E0180020A85A0128A6
:10400000FEE701F0A9BB00000B4B10B519680922AF
:104010000A230A4801F006F8094B022219680948E8
:10402000032300F0FFFFBDE81040074B0748196865
:104030001A221B2300F0F6BF300300208415002055
:10404000340300209C15002038030020B415002004
:1040500010B5044600F0BCF9034B20461978BDE8C2
:10406000104000F041B900BF28020020F8B5044616
:10407000056800F0B3FB22680023510101F184417F
:104080000B60802129600121A9622B61EB606379BB
:10409000696113B18B4203D02BE04FF400436B6492
:1040A0004FF6FF73D36200256E1CF7B220463946E7
:1040B00000F09EFBD0B1236848F6FF7103F1340293
:1040C00042F8251018336D1017F0010F53F8252012
:1040D00014BF6FF0FF016FF47F4101EA020214BFC9
:1040E00068214FF4D0410A4343F82520042E354679
:1040F000DAD1216801224B01490103F1844301F126
:104100008441C3F880220A60F8BD000038B5264B10
:10411000264C1A68022042F010021A6000F08CF956
:104120000025002000F066FA65602368182023F45B
:104130000023236000F06BFA102000F068FA00F012
:1041400043F8A560102000F055FA102000F07CFA2A
:104150000028FAD000F039F8154800F081FA18204C
:1041600000F048FA182000F06FFA0028FAD0022078
:1041700000F030FA00210F4800F0DEF90E4800F0A0
:10418000E5FA00F039F80D4B188800F00FF90C48EB
:1041900000F010F90B4800F00DFB00F02FF800F0D4
:1041A00057F8FFF72EFF38BD0020024000100240F4
:1041B0002C020020002000083F1901002A020020E4
:1041C000516000086D600008704708B50020014686
:1041D00000F094FA01204FF4806100F08FFA002182
:1041E000022000F08BFA2D2000F098FABDE808407C
:1041F0000320002100F082BA00F028B913B5124C58
:104200000322D4F8C00094F8CC1000F037F994F8E9
:10421000CC204FF4803101FA02F2D4F8C0000368D8
:104220001A6100230193019BB3F5007F02D2019B29
:104230000133F7E794F8CC10042200F01FF903488B
:1042400001F088FB02B010BD78150108341600207B
:1042500000F03CB900000000000000000000000079
:10426000012007E0022005E0032003E0042001E034
:104270000520FFE70D4A0121116072B60C4A0021AA
:104280001160074902B4084902B486B005498E4658
:10429000704700BFAFF30080AFF30080AFF3008042
:1042A00000000061F9FFFFFFDD6E000814ED00E083
:1042B00010E000E0AFF30080AFF30080AFF30080C8
:1042C000FEE710B50446007900F0E6F92079BDE874
:1042D000104000F0F9B903689A6822F4602242F4B1
:1042E0008012114399607047002370B51A461C462E
:1042F000072B4FEA430503DCEE1801FA06F63443B8
:104300001D4401FA05F501330A2B42EA0502EFD1FB
:104310000368DC601A6170BD0368DA6A22F0F87223
:10432000DA6259639A6842F480029A601A689207C6
:10433000FCD5D86C80B2704738B5124D2A68136826
:104340001C68A10706D5196821F00201196093685D
:1043500003B19847620708D52B681A681B69116872
:1043600021F00401116003B19847E30708D52B68D9
:104370001A68DB68116821F00101116003B19847E8
:1043800038BD00BF58020020036801225B0103F121
:10439000844303F58673191F1A6018680028FCD13E
:1043A00043F8042C0B68002BFCD170470146042015
:1043B00000F0A4B9044B10B504461868A047034B9D
:1043C0001868A04710BD00BF58020020540200200A
:1043D00010B50446FFF775FF20464FF46021FFF744
:1043E0007AFF2368012103F1404308335A015B013E
:1043F00002F1844203F18443116520461960BDE84F
:104400001040FFF7C1BF08B5142000F045F90420A3
:1044100000F042F9BDE80840042000F055B9000062
:10442000014B01221A60704720000E42014B00220E
:104430001A60704720000E42034B1A6822F00702F0
:1044400010431860704700BF0020024008B50748BD
:1044500001F0FCFB064801F0F9FB064801F0F6FB11
:10446000BDE80840044801F0F1BB00BF5C02002039
:10447000640200206C0200207402002070B501F07C
:104480000704A4000F25A5400368C80853F820605E
:10449000092A26EA050514BF1646082606FA04F47A
:1044A000082A44EA050443F8204006D1012000FA16
:1044B00001F1DA6822EA010106E0092A05D10120AA
:1044C00000FA01F1DA681143D96070BD08B5032024
:1044D00000F0E2F8BDE80840032000F0F5B8000065
:1044E000064B45F255521A604CF6CC425860996022
:1044F0001A604AF6AA221A60704700BF00300040D6
:10450000024B4AF6AA221A60704700BF00300040F2
:1045100000284FEA011105DA064B00F00F00C9B27E
:104520001954704700F16040C9B200F5614080F84D
:104530000013704714ED00E021F0604138B521F020
:104540007F01084B0843986000241D4660B20F218C
:104550000134FFF7DDFF2B2CF8D1F02385F8233051
:1045600038BD00BF00ED00E0044A054BD16801F4FE
:1045700040710B43D360BFF34F8FFEE700ED00E0C7
:104580000400FA05014B1860704700BFA0000E42FE
:10459000074B1A6842F001021A601A6842F00202E0
:1045A0001A60044B1A6942F004021A6130BF704766
:1045B0000070004000ED00E0024B1A6842EA800003
:1045C0001860704700700040014B13F810007047EE
:1045D00056180108064B5A6822F0030202435A603B
:1045E00080005A6802F00C028242FAD1704700BF84
:1045F00000100240030A0121C0B201FA00F003F1E9
:10460000804303F504331A68104318607047030AA7
:104610000121C0B201FA00F003F1804303F5043335
:104620001A6822EA000018607047030A0122C0B22B
:1046300002FA00F003F1804303F504331B681842CB
:104640000CBF002001207047030A0222C0B202FA08
:1046500000F003F1804303F504331B6818407047F2
:1046600038B54368044618201D68FFF7DEFF20B107
:1046700006488121064A00F03BFC064B21685A6837
:104680000D4322F4741215435D6038BDAC17010868
:104690003A1801080010024010B50446FFF794FFD5
:1046A000074B53F82020074B03EB4404637803EBDC
:1046B000C2039B0003F1844301221A6010BD00BFB6
:1046C0007C0200205618010810B50446FFF77CFF55
:1046D000084B53F82020084B03EB4404637803EBAA
:1046E000C2039B0003F1844301221A6000221A6076
:1046F00010BD00BF880200205618010810B5054BF8
:10470000054C5A6854F8200022EA0002114359600F
:1047100010BD00BF00100240B418010810B50446D7
:10472000FFF752FF074B53F82020074B03EB4404DD
:10473000637803EBC2039B0003F1844300221A60F9
:1047400010BD00BF9002002056180108024B07223E
:1047500058601A60704700BF10E000E008B5044BD5
:104760001A6801321A60034B1B6803B1984708BDF1
:104770009C180020CC15002011F0010F70B542EA02
:1047800003030CBF0825002503FA05F5006801F1B5
:10479000FF3400F11800C4F3400450F8241014BF93
:1047A0006FF0FF066FF47F463140294340F8241034
:1047B00070BD000010B504460448A0470448A04757
:1047C0000448A0470448A04710BD00BFE4020020F1
:1047D0000C0300209C020020C002002010B50446FB
:1047E0000079FFF759FF2079BDE81040FFF76CBF53
:1047F00038B54B1E032B0D46047905D90E4840F2FF
:1048000003110E4A00F074FB1E2C10D9212C0ED07F
:10481000202C0ED9222C01D0252C04D1022D8CBFA6
:104820000020012038BD6B1E5842584138BD012080
:1048300038BD002038BD00BFC81801081B19010889
:104840008B1C40F823200368012203F140430C3302
:1048500001EBC3039B0003F184431A60427903799F
:104860001ABBB3F11A0253425341072919D8DFE8A2
:1048700001F004090909090E0E13002B14BF1923B6
:104880002C233BE0002B0CBF2E231B2336E0002BF8
:104890000CBF2D231A2331E0002B0CBF2B23182330
:1048A0002CE01B4840F28F1122E01B3B0C2B1CD844
:1048B000DFE803F0212307090B0D1B0F1113151758
:1048C00019001E231AE0322318E0362316E037239E
:1048D00014E0182312E0192310E01A230EE02B2312
:1048E0000CE02C230AE02D2308E0094840F2BF1118
:1048F000084A00F0FDBA1C2300E01D2359090122DB
:1049000003F01F0302FA03F3034A42F82130704711
:10491000C8180108FF0E010800E100E0036800224A
:1049200003F140430C3301EBC3039B0003F18443C9
:1049300002311A6040F8212070470000F8B54E1E81
:10494000F3B2032B04460D46174604D92A48DA2150
:104950002A4A00F0CDFA6379022B04D12648DD21E2
:10496000274A00F0C5FA6379022B43D0032F41D8C0
:10497000DFE807F00212223520462946FFF7CEFF76
:10498000236803F140432033DB0003EB8606B600C7
:1049900006F18446002320E02368002203F140430F
:1049A0000C3305EBC3039B0003F184431A602046DC
:1049B00029466022082303E02046294610220023CE
:1049C000FFF7DAFE236803F140432033DB0003EBFB
:1049D0008606B60006F1844601233360F8BD2368DD
:1049E0004FF2F1229A6103229A605B0103F1844342
:1049F00001221A60F8BD00BFC81801083C1901085F
:104A00005819010810B5074B1C68E16822690A4073
:104A1000120606D55B6A23B19847236923F0800309
:104A2000236110BDE402002010B5074B1C68E1684B
:104A300022690A40D20706D59B6823B198472369AB
:104A400023F00103236110BDE4020020F8B50C4FF0
:104A50003D68EB682E691E4016F0400403D03C6AA6
:104A60000CB1A0474024B30604D5FB6913B19847A5
:104A700044F020042B6923EA04042C61F8BD00BF34
:104A8000E4020020F8B5134F3E68F36835691D4015
:104A900015F0100403D0BC690CB1A04710242907FD
:104AA00004D57B6913B1984744F008046A0704D51C
:104AB0003B6913B1984744F00404AB0704D5FB6885
:104AC00013B1984744F00204336923EA04043461C3
:104AD000F8BD00BFE4020020F8B51A4E3768FB6845
:104AE0003D691D4015F0400403D0346A0CB1A04765
:104AF0004024EB0604D5B36913B1984744F0100481
:104B0000280704D5736913B1984744F0080469076E
:104B100004D5336913B1984744F00404AA0704D5B7
:104B2000F36813B1984744F00204EB0704D5B36867
:104B300013B1984744F001043B6923EA04043C6143
:104B4000F8BD00BF0C030020F8B51A4E3768FB68AB
:104B50003D691D4015F0400403D0346A0CB1A047F4
:104B60004024EB0604D5B36913B1984744F0100410
:104B7000280704D5736913B1984744F008046907FE
:104B800004D5336913B1984744F00404AA0704D547
:104B9000F36813B1984744F00204EB0704D5B368F7
:104BA00013B1984744F001043B6923EA04043C61D3
:104BB000F8BD00BF9C020020F8B51A4E3768FB68AC
:104BC0003D691D4015F0400403D0346A0CB1A04784
:104BD0004024EB0604D5B36913B1984744F01004A0
:104BE000280704D5736913B1984744F0080469078E
:104BF00004D5336913B1984744F00404AA0704D5D7
:104C0000F36813B1984744F00204EB0704D5B36886
:104C100013B1984744F001043B6923EA04043C6162
:104C2000F8BD00BFC002002081880268034689B237
:104C3000505C99881A8989B292B2914217BF9A88BA
:104C40000022013292B2C0B29A807047C28838B551
:104C5000838892B29BB201329A4204460D461AD022
:104C6000C288038992B29BB29A4202D183889BB2D6
:104C70008BB14FF0FF30E288236892B29D54E288F6
:104C8000238992B29BB29A4217BFE3880023013373
:104C90009BB2E38038BD2046FFF7C6FFEBE770B557
:104CA0001E460546084611460422059CFFF7E6FB12
:104CB0009DF810100B223046FFF7E0FB2B6804F044
:104CC0000F01DA6804F0300422F4F0521204120CDE
:104CD00042EA4122DA601A6922F440521204120CAC
:104CE00042EA04241C6170BD70B5054616460C46A8
:104CF00041B900F0A1F8044620B90E48AE210E4A91
:104D000000F0F6F819235C43B6006423B4FBF6F414
:104D1000B4FBF3F21201110903FB114424013234F4
:104D2000B4FBF3F303F00F0329681A4392B28A60CD
:104D300070BD00BF71190108C719010838B5114DC0
:104D4000EB68980607D52B68990604D569680E4864
:104D5000C9B2FFF77BFFEB680A4C1A0611D523682E
:104D60001B060ED509488288C38892B29BB29A422C
:104D700003D0FFF759FF606038BDE36823F080037C
:104D8000E36038BD00380140DC150020D01500205C
:104D900038B5114DEB68980607D52B68990604D5F0
:104DA00069680E48C9B2FFF751FFEB680A4C1A0652
:104DB00011D523681B060ED509488288C38892B294
:104DC0009BB29A4203D0FFF72FFF606038BDE368C3
:104DD00023F08003E36038BD00440040E815002064
:104DE0000016002038B5114DEB68980607D52B68E2
:104DF000990604D569680E48C9B2FFF727FFEB682A
:104E00000A4C1A0611D523681B060ED5094882885C
:104E1000C38892B29BB29A4203D0FFF705FF60604D
:104E200038BDE36823F08003E36038BD00480040EC
:104E3000F41500200C16002008B590F89002FFF73A
:104E4000C3FB20B10128034818BF002008BD024859
:104E500008BD00BF00A24A040051250213B5044654
:104E60008DF8071020460DF10701012200F048FFE0
:104E70000028F7D002B010BD38B505464C1E14F816
:104E8000011F19B12846FFF7E9FFF8E738BD000018
:104E900008B5114B01211C6803222046FFF7EEFAEA
:104EA000002301211A469342206834BF02254FF4A3
:104EB0000035B2F5007F056103F1010303D0002A3C
:104EC00008BF012101E04FF0FF31B3F5007F04BFBF
:104ED00052180023E7E700BFA817010808B5034BE5
:104EE0000BB1AFF3008062B6FFF7D2FF0000000005
:104EF000F8B5144B06460D4617460BB3AFF30080CA
:104F000011490446FFF7B8FF20463946FFF7B4FFC2
:104F100020460E49FFF7B0FF20463146FFF7ACFFB1
:104F200020460B49FFF7A8FF2046294600F036FF30
:104F300020460A21FFF792FF20460D21FFF78EFF42
:104F4000FFF7CCFF00000000D3190108E9190108A0
:104F50006D14010803695B68D9889A8889B292B296
:104F6000D8888A1A998880B289B2884203D219896E
:104F700089B201310A4492B282B199881A6889B221
:104F8000505C99881A8989B292B2914217BF9A8867
:104F90000022013292B2C0B29A8070474FF0FF30C7
:104FA000704703695B689988DA8889B292B2914246
:104FB00005D09A881B6892B2985CC0B270474FF0D7
:104FC000FF30704703699A689088D18880B289B2AF
:104FD0008842F9D11A6813685B06FCD5704713B58F
:104FE00004698DF8071020460DF10701012200F039
:104FF00087FE0028F7D0012002B010BD03695B686E
:10500000D8889A8880B292B2D988801A9A8889B250
:1050100092B2914203D21B899BB20133184480B2F1
:105020007047000030B5002545604FF47A75856003
:10503000024D016105600275437530BD201A0108FB
:1050400003692DE9F74FDB68044699420F46924603
:105050002CD890F81480174D4FEA081808EB050675
:1050600090F8159070684FEA091909EB050B717BF0
:1050700010B10022FFF762FC206900F0F1FD337BE4
:105080009BF80C2020698DE8080459F8051058F8A1
:105090000530FFF704FE206900213A46FFF724FEA1
:1050A000206903B0BDE8F04F00F004BE03B0BDE8D6
:1050B000F08F00BF781501080022FFF7C1BF00691B
:1050C00000F002BE044B02791B789A4202D1034BD6
:1050D0001B681860704700BF281600202C1600209F
:1050E000002310B50446036072B6094B19311970DC
:1050F000084B18600848FFF75DFB62B6236823B9C8
:1051000006484321064AFFF7F3FE204610BD00BFC4
:10511000281600202C160020C5700008401A01082F
:10512000941A0108036800221B685B0103F18443A1
:105130001A607047036801221B685B0103F1844316
:105140001A607047036801391B6889B29962704719
:1051500003681B68DA6A92B2914228BF114659620D
:10516000704738B5054639B9036801221B68996252
:10517000DA62D86A80B238BD48244C434FF6FF71DA
:10518000B4FBF1F1013189B204EB5104B4FBF1F449
:10519000FFF7D8FF2B68A4B21B682046DC6238BD3D
:1051A0000068C9B2FFF7CABB0368C9B21B6801F146
:1051B0008041D86A013980B23433824228BF024626
:1051C00043F8212070470068C9B2FFF739BB0000DF
:1051D00008B501210848FFF783FF02210748FFF7C0
:1051E0007FFF03210648FFF77BFFBDE80840054825
:1051F0000421FFF775BF00BF181600201C16002001
:10520000201600202416002070B505460E46002406
:10521000315D29B12A682846126890470134F7E7C2
:10522000204670BDF8B505460C4616468F18BC42A0
:1052300006D02B6828461B6814F8011B9847F6E730
:105240003046F8BD10B502680B46946809689A6844
:10525000A04710BD08B503681B68984708BD08B58E
:1052600003685B68984708BD38B50D210546FFF710
:10527000F1FF0A2104462846FFF7ECFF204438BD21
:1052800038B50446FFF7DEFF05462046FFF7ECFF82
:10529000284438BD38B50446FFF7E1FF05462046EF
:1052A000FFF7E2FF284438BD2DE9F04F14461D46B4
:1052B00091B054EA050381469DF868B004D13021CD
:1052C000FFF7C8FF01202EE04FF000085FFA8BF6D1
:1052D00000272046294632463B4603F063FF08F18B
:1052E00001080DF1000AC2440AF8012C20462946A3
:1052F0003B46324603F056FF04460D4654EA05038A
:10530000E4D1002408F1FF381DF8081048460929A7
:1053100094BF30313731C9B2FFF79CFF0444B8F174
:10532000000FEFD1204611B0BDE8F08F2DE9F0411C
:10533000069F064614461D462FB90368D1B21B6866
:105340009847BDE8F081002C75F1000305DA2D21A6
:10535000FFF780FF644265EB4505FFB206973046D4
:1053600022462B46BDE8F041FFF79EBF07B5CB179D
:1053700000920A46FFF7DAFF03B05DF804FB38B588
:105380000446FFF7F3FF05462046FFF76DFF28446C
:1053900038BD70B5049921B90368D1B21B6898472C
:1053A00070BDC9B20491BDE87040FFF77DBF07B57D
:1053B00000230092CAB2FFF7ECFF03B05DF804FBD4
:1053C00038B50446FFF7F3FF05462046FFF74CFFCC
:1053D000284438BD07B5002300920A46FFF7D9FFDD
:1053E00003B05DF804FB38B50446FFF7F3FF05464C
:1053F0002046FFF739FF284438BD07B50023009247
:105400000A46FFF7C6FF03B05DF804FB000000008A
:105410002DE9F74F19460646144610461D46002250
:10542000002303F023FB9DF830704FF0010838B1E2
:105430002046294644A3D3E9002303F00DFB06E0F0
:105440002046294642A3D3E9002303F0FBFA00B922
:1054500080465FFA88F82046294600220023B8F1EA
:10546000000F0DD003F0E4FA18B130462D21FFF7FC
:10547000F1FE804638493046FFF7F1FE404460E0D7
:1054800003F0D6FA38B130462D21FFF7E3FE05F1DF
:10549000004380461D46314B4FF0000900225FFA61
:1054A00089F1B9420AD21046194600222C4B03F06A
:1054B00077F909F1010902460B46F0E72046294633
:1054C00002F092FE04460D4603F082FE82468B46B1
:1054D00003F00EF802460B462046294602F082FEF3
:1054E0000A2300930446524630465B460D46FFF7BA
:1054F0001DFF804427B130461A49FFF7B0FE8044B3
:10550000F7B1174B00222046294603F01FF80D463D
:10551000044603F0B5FA81460A2249463046FFF7B1
:1055200025FF8044484602F0ABFF02460B4620466A
:10553000294602F057FE013F04460D46FFB2DFE761
:10554000404603B0BDE8F08F800350726C92DF4399
:10555000800350726C92DFC3A61A01080000E03F7E
:10556000000024409410010837B59DF81810044637
:105570000091FFF74DFF05462046FFF775FE2844D2
:1055800003B030BD10B50446006804F06BF9204646
:1055900010BD10B50446006808B104F063F900239B
:1055A0002360A360636010BD38B504460D460068F3
:1055B000013104F045FD10B184E82100012038BD1F
:1055C000036810B5044613B143688B4207D22046E6
:1055D000FFF7EAFF20B1A3680BB92268137001201E
:1055E00010BD70B50E46114604461546FFF7E8FF9C
:1055F00018B92046FFF7CDFF04E0A56020683146CA
:1056000004F03EFF204670BD38B500230446036019
:10561000436083600D4639B1084604F08FFF294688
:1056200002462046FFF7DDFF204638BD884210B510
:105630000B46044607D0096819B19A68FFF7D1FFF5
:1056400001E0FFF7A6FF204610BD10B50023044679
:10565000036043608360FFF7E9FF204610BD38B563
:1056600005460C4641B1084604F068FF2146024653
:105670002846FFF7B6FF01E0FFF78BFF284638BD4D
:1056800010B500238AB00446036043608360084677
:1056900001A900F0D9FA204601A9FFF7E0FF204652
:1056A0000AB010BD70B5044685680E4609B90020E1
:1056B00070BD62B115442946FFF782FF0028F6D07D
:1056C0002068A3683146184404F0DAFEA560012082
:1056D00070BD1FB504460A220846694600F089FAE3
:1056E000684604F02BFF694602462046FFF7DAFFC2
:1056F00004B010BD0B4610B509689A680446FFF760
:10570000D1FF10B92046FFF744FF204610BD38B541
:1057100004460D4641B1084604F010FF29460246F2
:105720002046FFF7BFFF10B92046FFF732FF2046A3
:1057300038BD10B50446FFF7CCFF10B92046FFF77F
:1057400028FF204610BDFEF7E1BC08B5FCF7FEFDC2
:10575000FCF7C2FDFCE70000034B1A6822F0E06290
:1057600042F080621A60704704000140222870B540
:1057700042D8082918D8DFE801F01E2105080B0ED1
:1057800005111400002404221AE00024224617E028
:105790000024092214E00024082211E001240B2235
:1057A0000EE001240F220BE014484C21144ABDE8FE
:1057B0007040FFF79DBB0024032201E00024072274
:1057C000104B00011E18317B1858FEF757FE706809
:1057D00090B1717B24B10122BDE87040FFF7AEB8F3
:1057E0000368013903F140432033DB0003EB8103FD
:1057F0009B0003F184431C6070BD00BFB51A010813
:10580000FF0E01087815010800F0C4BE07B501219C
:105810000DF1070000F0CAFE01280CBF9DF807003B
:105820004FF0FF3003B05DF804FB07B501210DF127
:10583000070000F0D7FE10B19DF8070001E04FF01F
:10584000FF3003B05DF804FB10B50B78222B20D19C
:10585000104C00F001FF2378032B0DD8DFE803F094
:105860000702070700280CBF0223012303E00028DA
:105870000CBF03230123237000F0F6FEB0F5966FF2
:1058800007D12378022B04D100200A21FEF728FE3D
:10589000FEE710BD44160020204B73B51A78022A8B
:1058A0003AD103221A7000F075FE032834D900F0B3
:1058B00071FE0422011F01A800F0AEFE9DF8043025
:1058C000312B29D19DF80530452B25D19DF8063087
:1058D000412B21D19DF80730462B1DD1104C4FF0A4
:1058E000C2466FF0060544F001040E4B184685468B
:1058F0004FF001002146324604B402B401B401B4B1
:1059000001B401B401B401B4AE46704706484FF487
:10591000B171064AFFF7ECFA02B070BD44160020E0
:105920003179000800080020151B0108FF0E01084E
:10593000024B18460138FDD8FEF716BE7F4F120005
:10594000002242604FF47A728260014A026070471E
:10595000701B0108094B10B5187870B90124014675
:105960001C7000F0CBFD2046054900F0B9FDBDE8F4
:1059700010400220034900F0B3BD10BD30160020D6
:10598000997800084978000807B50191019BFFF755
:10599000E1FF03B05DF804FB70B50E461546002428
:1059A000AC4205D23019291B00F01CFE0444F7E775
:1059B000204670BD13B5044600F0ECFD30B1204622
:1059C0000DF107010122FFF7E7FFF5E702B010BD77
:1059D00008B5064B1B681B7B052B05D100F03CFE70
:1059E000003018BF012008BD002008BDF80A0020C3
:1059F00070B50E461546FFF7EBFF48B146B10024DF
:105A0000AC4205D23019291B00F094FD0444F7E79D
:105A1000002070BD07B502AB03F8011D1946012235
:105A2000FFF7E6FF002003B05DF804FB38B505463C
:105A300008460C4604F082FD214602462846FFF740
:105A4000D7FF002038BD00000148FFF779BF00BF35
:105A500034160020054B03EB001000F108038068AA
:105A600010B19979FEF758BC704700BF781501084E
:105A700022280ED8084B00011A18127B012101FAC6
:105A800002F21B581B689B681A420CBF00200120C1
:105A900070470020704700BF78150108222810D8F1
:105AA000084B00011A18127B1B58012000FA02F261
:105AB000D1F1010138BF0021090102FA01F11B688F
:105AC000196170477815010810B5044630B104F02B
:105AD00097FA90FBF4F303FB140010BD10BD88424D
