:020000040800F2
:1000000000500020B54300087146000875460008FE
:10001000794600087D46000881460008D146000860
:10002000D1460008D1460008D1460008D146000854
:10003000D1460008D1460008D1460008CD4A000844
:10004000D1460008D1460008D1460008C542000844
:10005000D1460008D1460008D1460008D146000824
:10006000D1460008D1460008D1460008D146000814
:10007000D1460008D1460008D1460008D146000804
:10008000D1460008D146000829470008D14600089B
:10009000D1460008D1460008D1460008D1460008E4
:1000A000F54C0008194D00083D4D0008754D00083D
:1000B000C94D0008394E0008A94E0008D146000875
:1000C000D1460008D1460008D1460008D1460008B4
:1000D000D14600081550000869500008BD500008BE
:1000E000D14600080D430008D146000810B5054C64
:1000F000237833B9044B13B10448AFF300800123D4
:10010000237010BD781300200000000084C6000892
:1001100008B5064B1BB106480649AFF300800648F8
:10012000036813B1054B03B1984708BD00000000F8
:1001300084C600087C130020781300200000000013
:10014000012902D11C30C0B27047062984BF01F1D9
:10015000FF31C9B211F0010F14BF1E201F207047DC
:10016000444B2DE9F047B1FBF3F603FB16113C239A
:10017000B1FBF3F203FB1212054602704FF461600B
:10018000B1FBF0F200FB1211B1FBF3F36B704FF413
:10019000FA63AA70B6B2EB80EC884FF4C873B4FB74
:1001A000F3F803FB18481FFA88F8B8F1000F16D0CF
:1001B0006423B4FBF3F203FB12439BB2002B53D036
:1001C00014F0030140F26D130CBF4FF4B7721A46DE
:1001D00096420EDB002908BF4FF4B77304E0B6F572
:1001E000B77F06DB4FF4B773F61A0134B6B2EC8072
:1001F000D2E700236B716423B4FBF3F703FB1747CB
:10020000BFB2B8F1000F06D03FB114F0030F14BF16
:100210000020012002E0012000E0384695F805901A
:10022000C0B24946FFF78CFF864209F1010A15D397
:10023000B8F1000F06D03FB114F0030F14BF002037
:10024000012002E0012000E03846C0B24946FFF735
:1002500077FF301A86B285F805A0D2E701362E71F5
:1002600085F805A0BDE8F087B6F5B67FC1DD40F2A0
:100270006D13B9E780510100F8B5427887783C23C7
:1002800003FB072702780579467903FB0727013D21
:10029000013EEDB2F6B2044605714671013E731C93
:1002A000E38834D04FF4C872B3FBF2F102FB113291
:1002B00092B262B16422B3FBF2F002FB103080B262
:1002C00030B113F0030F14BF0020012000E0012023
:1002D000C0B2F1B2FFF734FF284485B2DEE74FF435
:1002E000C872B3FBF2F102FB113292B2AAB16422DE
:1002F000B3FBF2F102FB113292B28AB113F0030F99
:1003000040F26D1208BF4FF4B7721544ADB2013B15
:100310009BB2B3F5FA6FE2D205E04FF4B772F4E79F
:1003200040F26D12F1E7024800FB0570F8BD00BF16
:100330008051010002F0ECBD38B50D46044602F0D4
:1003400002FE290A49006039204601F0FE0102F050
:1003500091FE204602F067FEE9B2204602F08AFED6
:10036000204602F060FE204602F0EDFD2046A1216D
:1003700002F080FE204602F056FE0021204602F0E8
:10038000A0FE0546204602F031FE204602F0F6FDB2
:10039000284638BD70B50D461646044602F0D3FD1A
:1003A000290A49006039204601F0FE0102F062FE90
:1003B000204602F038FEE9B2204602F05BFE2046FD
:1003C00002F031FE3146204602F054FE204602F093
:1003D0002AFE204602F0D2FDBDE870400A2005F05A
:1003E00075BB0000D30770B548BF01320024520826
:1003F00002312346E5B2954225D211F8025CA5F1FF
:100400004106F6B2052E02D8104B9B5D05E0303D4B
:10041000EDB2092D03D80E4B5B5D1B01DBB211F869
:10042000015CA5F14106F6B2052E01D8074D04E0A6
:10043000303DEDB2092D02D8054E755D2B430355B5
:1004400002310134D6E7002070BD00BF52DA000847
:1004500048DA00082DE9F04F824687B00846144676
:10046000994606F0A3FEC9EB0406CDE9000130462B
:1004700006F08AFE02460B4600204D4905F048FC76
:1004800002460B46DDE9000107F06AF930B94FF08A
:10049000020896FBF8F80546013E07E050460021A9
:1004A000224607B0BDE8F04F08F0D4BB454536DA28
:1004B000304606F069FE02460B4600203C4905F036
:1004C00027FCCDE90201701E06F05EFE02460B46D7
:1004D0000020374905F01CFCDDE90223CDE90401C9
:1004E000DDE9000106F0E0FF07F04EF9DDE9042345
:1004F0000A2790FBF7FB0BFB17004FEA001BDDE917
:10050000000106F0D1FF07F03FF990FBF7F303FB82
:10051000170083440AF805B0023E0135C6E709EB2F
:1005200048094FF0020BC4EB090994FBFBFB09F1EE
:100530000109D84538DA484606F026FE02460B4641
:1005400000201B4905F0E4FB064609F101000F46B7
:1005500006F01AFE02460B460020154905F0D8FBAE
:1005600032463B4604460D46DDE9000106F072FEC8
:1005700007F00AF90A2690FBF6F707FB16002B4650
:1005800007012246DDE9000106F064FE07F0FCF8F1
:1005900090FBF6F303FB160007440AF8087009F114
:1005A000020908F10108C4E707B0BDE8F08F00BFF9
:1005B0000000244010B5144B5C789B7843EA042477
:1005C00004F096F94AF213039C4213D008D84AF279
:1005D00011039C4213D04AF212039C4211D00DE049
:1005E0004AF214039C4207D04AF222039C4205D1EE
:1005F000042010BD022010BD032010BD10BD00203E
:1006000010BD012010BD00BF9413002038B5084C68
:100610006018114602F0C9FB054604F069F9054B64
:100620001B781C4414F8070C431B5842584138BD32
:10063000941300201514002010B5054B1C795B792C
:1006400043EA042404F054F9E31E5842584110BD13
:1006500094130020044B9B79552B044B0CBF0122B3
:1006600000221A70704700BF941300201714002056
:1006700010B5094C04F03CF9E379552B01D1012068
:1006800010BD064801F013FAE3798342F7D0D0F1A8
:10069000010038BF002010BD941300201D1400205D
:1006A00013B504F025F90D4B1C7A552C01D101200E
:1006B00012E00B48694601F071F900231A461DF853
:1006C00003108C42F3D019B90132D2B2052AEED010
:1006D0000133052BF3D1002002B010BD941300208C
:1006E0001D140020F8B5144605460F461E4604F0BA
:1006F000FFF8224628463946FFF788FF044698B19E
:100700002846FFF799FF044658B12846FFF7A2FF95
:100710002846FFF7ADFF044648B946B10C480D49DD
:1007200011E00B480C490EE009480C490BE0284643
:10073000FFF7B6FF044640B99DF818300BB9012405
:1007400003E00348064904F0B7FE2046F8BD00BFA9
:10075000C8140020AADA000858DA000886DA00086F
:10076000E1DA000830B589B0044604F0C1F8284B3E
:100770001B78002B4AD00023009320460421172227
:100780000123FFF7AFFF002837D0224C224804F1A5
:100790000C0101F00DFBE37AA57A204902A843EA97
:1007A000052504F087FF02A905A804F0A4FF294647
:1007B00005A805F079F80146194804F073FE05A86C
:1007C00004F036FF02A804F033FF1648294601F072
:1007D0008BFA18B1144B01221A7003E01048134928
:1007E00004F06AFE237A1248552B02D103F0B8F8C0
:1007F00003E00721012203F079FA0E4B05481A782D
:10080000002109B0BDE8304008F024BA09B030BD7D
:100810000C000020941300202614002019DB00088F
:10082000C81400201A1400201414002038DB00081B
:10083000BF1400201514002013B5044604F058F826
:100840001B4B1B78002B31D0002300932046042142
:100850000A220123FFF746FFF8B11648164901F0B6
:100860004FF850B11549164804F026FE15491448B2
:1008700004F022FE144803210CE01449104804F04F
:100880001BFE13490E4804F017FE124B0A220E48B5
:100890001A700421012203F029FA0F4B0F481A782D
:1008A000002102B0BDE8104008F0D4B902B010BD7C
:1008B0000C0000201D1400209C1300206FDB00089A
:1008C000C81400209FDB0008BF140020C7DB00080D
:1008D000F7DB0008C014002015140020941300203A
:1008E00013B5044604F004F80023009320460421C5
:1008F0000F22FFF7F7FE08B31B4C1C4804F10A0156
:1009000000F045FE68B3194804F10A0100F07FFECB
:1009100038B31749174804F0CFFD1448E17901F0C6
:100920008DF8A0B11449134804F0C6FD1348052101
:10093000012203F0DBF90D4800F04AFF104B0A4892
:100940001A78002102B0BDE8104008F083B90948C8
:100950000C4904F0B1FD09480621012203F0C6F953
:10096000ECE704480849F4E7941300201D14002024
:1009700081DC0008C81400201EDC0008BF14002021
:100980001514002050DC0008AEDC000813B5044646
:1009900003F0AEFF0C4B1B78A3B10023009320465D
:1009A000042105220123FFF79DFE10B1074803F043
:1009B00005F9074B07481A78002102B0BDE810403E
:1009C00008F048B902B010BD0C000020BF14002090
:1009D000151400209413002010B5044603F088FF7E
:1009E0002046FFF7E7FD032817D8DFE800F00207ED
:1009F0000C112046BDE81040FFF7B4BE2046BDE80C
:100A00001040FFF719BF2046BDE81040FFF768BF50
:100A10002046BDE81040FFF7B9BF10BD2DE9F047F3
:100A2000424C00278246277003F062FF00263546BD
:100A30003F4804F003FC002835DD03F059FF94F82B
:100A400000903B4809F10103237004F0A3FBDFF899
:100A5000F48008F80900052005F038F82378102202
:100A6000434413F8011C334804F0B3FD31483249C4
:100A700004F007FD94F90030002B434602DA2B4ABC
:100A800000211170F6B922781A4412F8012C0D2AAF
:100A900001D117E00126052DCAD12648274904F0C7
:100AA0000BFD0127C2E757B12549224804F004FD98
:100AB0005046FFF791FF00232370BDE8F0872770B1
:100AC000BDE8F087042DE5D8DFE805F0030C151E1E
:100AD00027002278134413F8015CB5F10A035D4244
:100AE0005D4121E02278134413F8013C0D2B0CBF2B
:100AF0000225002518E02278134413F8013C0A2B44
:100B00000CBF032500250FE02278134413F8013CA5
:100B10000D2B0CBF0425002506E02278134413F8A2
:100B2000013C0A2BB9D00025012681E715140020CD
:100B3000E0140020C814002046E70008DBDC0008B1
:100B4000FFDC00089413002008B50420002104F005
:100B500007FF0420012104F05BFF0020014604F0A0
:100B6000FFFE1820002104F0FBFE0120002104F00C
:100B7000F7FE1820002104F04BFF0120014604F08D
:100B800047FFBDE808400020014604F041BF0000D7
:100B9000014804F0B1BB00BFE014002010B50B7891
:100BA000452B12D14B78522B0FD18B78CC78303B20
:100BB00003EB8303303C04EB4304E4B221460A22F6
:100BC000034804F00FFD204610BD0A2010BD00BFF1
:100BD000C81400200B784F2B07D148784B2804D13C
:100BE00013704B780120537070470020704700004D
:100BF0002DE9F04190B00E4601A865491C4690468B
:100C000004F058FD624904A804F054FD604907A8A7
:100C100004F050FD20460021042208F01BF8E023D8
:100C2000A370E37035460027AB1B43453AD22978C1
:100C30000A220DA804F07AFD0DA901A804F0B0FD68
:100C40000DA804F0F5FC15F8013B2C2B28D0303B07
:100C5000DBB2092B98BF05F8013C15F8011C57B908
:100C60002D2902D14B484C4909E00DA80A2204F075
:100C70005DFD04A80DE02D2906D14648474904F042
:100C80001BFCF023E370CFE70DA80A2204F04EFD11
:100C900007A80DA904F084FD0DA804F0C9FCC3E762
:100CA0000127C1E73E490AA804F004FD0AA90DA8DE
:100CB00004F021FD01A90DA804F0CDFD0146354841
:100CC00004F0F0FB0DA804F0B3FC0AA804F0B0FC9B
:100CD00034490DA804F0EEFC0DA92E4804F0C4FB25
:100CE0000DA804F0A5FCA3782A48F02B01D12E49C9
:100CF00003E0E02B0CBF26492C4904F0C2FB04A9F9
:100D00000DA804F0F8FC2A490DA804F0B1FD014635
:100D1000204804F0C7FB0DA804F08AFC25490DA863
:100D200004F0C8FC0DA91B4804F09EFB0DA804F0BC
:100D30007FFCE3781748F02B01D11B4903E0E02B3F
:100D40000CBF1349194904F09CFB07A90DA804F036
:100D5000D2FC0DA8164904F08BFD01460D4804F0A5
:100D6000A1FB0DA804F064FC04A804F0EBFD2070C6
:100D700007A804F0E7FD607007A804F059FC04A878
:100D800004F056FC01A804F053FC10B0BDE8F0815B
:100D9000D1DF0008C81400202ADD000837DD000874
:100DA00045DD000850DD00088FE700085BDD000826
:100DB00068DD00086FDD0008F8B54C78432C08D1D9
:100DC0008C78532C05D1CC78B4F151056C426C4130
:100DD00000E000240026F5B24F5D01363A2FFAD12B
:100DE0000135EDB200279542FEB207F1010706D8A2
:100DF00011F805C0013501F806C0EDB2F3E73CB9C2
:100E00002046C2B2B2420BD20A5C1A540130F8E753
:100E1000069A022412681470721ED2B2FFF7E8FE1E
:100E20000120F8BD37B5154809B9154900E0154945
:100E300004F027FB642004F049FE00240F4804F06E
:100E4000FDF90028E5B208DD062C14D00B4804F0AB
:100E5000A1F90DF804000134F0E755B19DF8023016
:100E60004F2B08D19DF80300B0F14B035842584175
:100E700002E0284600E0002003B030BDE01400206E
:100E80007BDD00087FDD00082DE9F0419EB005AD57
:100E90000C4607460021904628466422039307F03B
:100EA000D9FE21462C4804F0ECFA642004F00EFE32
:100EB0000024294804F0C2F90028E6B207DD642CBA
:100EC00045D0254804F066F928550134F1E726B9E4
:100ED0002249234804F0F0FA39E09DF814300D2B34
:100EE00035D19DF815300A2B31D11EAB334413F8A0
:100EF000653C0A2B2BD1023E1EAB334413F8643CF5
:100F00000D2B24D10021CCB2A31CDBB2B34201F1E2
:100F1000010107DA1EAA134413F8643C144404F8D0
:100F2000643CF0E738462946FFF738FE0A280CD122
:100F300003AB00933846294622464346FFF73CFF61
:100F400000280CBF0320022002E0012000E0032063
:100F50001EB0BDE8F08100BFE014002085DD000870
:100F6000C81400202DE9F041B2B006460D46904667
:100F70000021642268461F4607F06CFE19A8002174
:100F8000642207F067FE0024E3B2E85C013420B17C
:100F900032AA134403F8640CF6E70146CAB25D189E
:100FA00018F80240EDB232AA01312A4414B102F815
:100FB000644CF3E70D2302F8643C6B1C32A8DBB2EF
:100FC00003442F480A2203F8642C036819A95B68BC
:100FD00098472C48AA1C036819A99B68D2B2984765
:100FE000642004F073FD274804F028F90028E5B2D6
:100FF00008DD642C3FD0234804F0CCF80DF8040041
:101000000134F0E7002D36D09DF800300D2B32D1A1
:101010009DF801300A2B2ED132AB2B4413F8C93C7A
:101020000A2B28D1023D32AB2B4413F8C83C0D2BC0
:1010300021D100218B1CDBB2AB4201F1010209DAA4
:1010400032A8034413F8C83CC9B2014401F8C83CB3
:101050001146EFE730466946FFF7A0FD0A2808D1A0
:10106000304669463A46FFF7B5FD80F00100C0B250
:1010700002E0012000E0032032B0BDE8F08100BFB3
:10108000C8140020E0140020F7B51E460446174699
:101090000D4600218DF80710FFF7C4FE03F028FC71
:1010A000204631462FB12A460DF10703FFF7ECFE2B
:1010B00003E0089A2B46FFF755FF03282AD8DFE8FC
:1010C00000F011040207002311E01648164901E060
:1010D0001448164904F0F0F920460121FFF7A2FE5A
:1010E00000201CE012490F4804F0E6F912E09DF8D8
:1010F00007205E1CDBB29A420A4809D9E95C10223B
:1011000004F067FA07480B4904F0BBF93346EEE7F1
:1011100004F0BCF920460121FFF784FE012003B052
:10112000F0BD00BFC814002099DD0008AADD00084A
:10113000B3DD000846E700082DE9F0438BB004AFAB
:10114000804600210922384602AE002407F082FDC5
:101150000094404631460122454BFFF795FF054676
:1011600020B94449444804F0A7F97DE02346F25CE5
:1011700007AC092A01D8303204E0A2F10A0105299E
:1011800098BF3732E2540133082BF0D14FF00009F9
:101190003A488DF8249000F073FD024600284AD0AA
:1011A0003749354804F088F93448394600F0D6FC10
:1011B00000283BD04B46E15CFA5C914248D10133B8
:1011C000082BF8D12F492C4804F076F92E492A48EB
:1011D00004F057F99DF81610274804F04DF99DF8D2
:1011E0001710254804F048F99DF81410224804F01F
:1011F00043F99DF81510204804F03EF99DF81210AF
:101200001D4804F039F99DF813101B4804F034F917
:101210009DF81010184804F02FF99DF81110164889
:1012200004F02AF9144804F031F91DE01749124876
:1012300004F042F907E0009440463146144BFFF7B2
:1012400023FF054680B121460C4800F0D7FC0AE098
:101250001049094804F030F9009740463146002211
:101260000B4BFFF711FF054628460BB0BDE8F08396
:10127000BFDD0008CADD0008C814002019140020D2
:10128000EADD000872DE00089CDE000808DE0008C7
:101290002CDE000835DE00082DE9F04F89B002AFE2
:1012A00007F10C068346894690461C4630460021CD
:1012B0000A2207F0CFFC002C48D1C7F804D05846CA
:1012C000CDF80080314601224B46FFF7DDFE824615
:1012D00008B1214602E03C483C496BE0CCB218F82A
:1012E00004300131002BF9D1E11D01F4FC71ADEBAB
:1012F000010D02A9D8B2A04203D2F05CC854013358
:10130000F8E70B46581AC0B2A0420DD213F8010BF1
:10131000092801D8303004E0A0F10A05052DF1D8E4
:10132000373003F8010CEDE70025EBB2A3423FD2C2
:101330004B5D013508EB050010F8010C9842F4D024
:101340002148234904F0B8F87B689D466C46002389
:10135000DAB219F8021001330A29F9D1931D03F406
:10136000FC73ADEB030DA2F1020E02AB0020C1B283
:10137000551EA94200F1010003DA19F801505D542D
:10138000F5E700223D215A55584603F80E10CDF8D6
:1013900000803146FFF778FE054628B90A480D4916
:1013A00004F08AF8AA4601E04FF0010AA54605E0DC
:1013B0000548094904F080F87B689D4650461C3773
:1013C000BD46BDE8F08F00BFC8140020AADE0008AB
:1013D000D0DE000827DF000849DF000830B585B0FF
:1013E00004460D46684600210F2207F033FC4448AE
:1013F000444904F061F803F07BFA2046002D65D1E2
:10140000FFF79AFE40498DF80000404A2B462046DF
:10141000FFF742FF3E498DF801003E4A0123204676
:10142000FFF73AFF3C498DF802003C4A2B46204624
:10143000FFF732FF3A498DF803003A4A2B4620461F
:10144000FFF72AFF38498DF80400384A2B4620461A
:10145000FFF722FF36498DF80500364A0123204662
:10146000FFF71AFF34498DF80600344A2B46204610
:10147000FFF712FF32498DF80700304A2B4620460D
:10148000FFF70AFF2F498DF808002A4A012320465A
:10149000FFF702FF2C498DF809002C4A2B46204605
:1014A000FFF7FAFE2A498DF80A002A4A2B46204601
:1014B000FFF7F2FE174A8DF80B002749204601235B
:1014C000FFF7EAFE0D228DF80C0007E0194A1849D3
:1014D0000123FFF7E1FE01228DF8000000231DF833
:1014E000031031B91D49064803F0E6FF03F000FA86
:1014F00081E70133D9B29142F1D305B030BD00BFCD
:10150000C81400205FDF00087EDF00088ADF0008C3
:1015100093DF000890DF00089DDF0008A9DF0008C6
:10152000B2DF0008BEDF0008C7DF0008D2DF000816
:10153000D5DF0008DFDF0008E2DF0008ECDF00088D
:10154000EFDF0008F9DF000803E000080CE0000806
:101550000FE0000819E000081CE0000826E0000881
:101560001520012104F054BA1520002104F050BACE
:1015700010B500210446152004F0F2F915200121D0
:1015800004F046FA2046BDE81040FEF7D3BE7FB512
:1015900005460E46FFF7E8FF0D243319214628467D
:1015A00013F80D2C0134FEF7F5FE162CF5D130465C
:1015B000092101F0FAFB0646214628463246FEF78D
:1015C000E9FE0D2421462846FEF7B6FE01AB234472
:1015D0000134162C03F80D0CF4D101A8092101F0F7
:1015E000E4FBB04203D0FFF7BBFF00200DE028462C
:1015F0000B21FEF7A1FE552804D028460B215522C9
:10160000FEF7C8FEFFF7ACFF012004B070BD7FB548
:1016100005460E46FFF7A8FF172433192146284632
:1016200013F8172C0134FEF7B5FE202CF5D1304607
:10163000092101F0BAFB0646214628463246FEF74C
:10164000A9FE172421462846FEF776FE01AB234467
:101650000134202C03F8170CF4D101A8092101F062
:10166000A4FBB04203D0FFF77BFF00200DE028462B
:101670000C21FEF761FE552804D028460C21552286
:10168000FEF788FEFFF76CFF012004B070BDF0B5D7
:1016900085B001AD06460F4628460021092207F015
:1016A000D9FA0D2421463046FEF746FE2B190134A7
:1016B000162C03F80D0CF5D121463046FEF73CFE02
:1016C00009210446284601F070FB844206D100231C
:1016D000EA5CFA540133092BFAD101E0002000E062
:1016E000012005B0F0BDF0B585B001AD06460F464E
:1016F00028460021092207F0ADFA1724214630467A
:10170000FEF71AFE2B190134202C03F8170CF5D123
:1017100021463046FEF710FE09210446284601F016
:1017200044FB844206D10023EA5CFA540133092BBE
:10173000FAD101E0002000E0012005B0F0BD37B58E
:101740000C461E210546FEF7F7FD1F218DF804000B
:101750002846FEF7F1FD02218DF8050001A801F0F1
:1017600024FB207003B030BD10B50B210446FEF7FA
:10177000E3FD88B1FFF7F8FE204600220B21FEF7BB
:1017800009FEFFF7EDFE20460B21FEF7D5FDD0F157
:10179000010038BF002010BD012010BD10B50C2184
:1017A0000446FEF7C9FD88B1FFF7DEFE20460022A1
:1017B0000C21FEF7EFFDFFF7D3FE20460C21FEF7CC
:1017C000BBFDD0F1010038BF002010BD012010BDCD
:1017D00010B521210446FEF7AFFD552811D0FFF7C3
:1017E000C3FE204655222121FEF7D4FDFFF7B8FEA7
:1017F00020462121FEF7A0FDB0F155035842584183
:1018000010BD012010BD38B50446102004F0EAF8E0
:1018100008B1002038BD03F06BF841F2883004F0C5
:1018200055F903F065F8102004F0DCF805460028AF
:10183000EFD120462121FEF77FFD40B1FFF794FE56
:10184000204621212A46FEF7A5FDFFF789FE204606
:101850002121FEF771FDD0F1010038BF002038BD15
:1018600008B52121FEF768FDB0F1550358425841F3
:1018700008BD000070B504460D46FFF708FF20B113
:1018800020462946FFF72FFF48BB20462946FFF791
:10189000FEFE48B11549164803F00EFE20462946C3
:1018A000BDE87040FFF7B3BE20462946FFF71BFF97
:1018B00006460F4846B10F4903F0FEFD2046294673
:1018C000BDE87040FFF763BE0B4903F0F5FD20460D
:1018D000FFF74AFF2046FFF761FF304670BD07491A
:1018E000034803F0E9FD012070BD00BF43E000089C
:1018F000C81400207AE00008B1E00008C5E0000844
:10190000F8B504460E462F2573192046294613F8CC
:101910002F7CFEF711FD874203D10135342DF3D121
:1019200036E0FFF721FE2F2573192946204613F8CC
:101930002F2C0135FEF72EFD342DF5D10521304633
:1019400001F033FA0746294620463A46FEF722FDC3
:101950002F2520462946FEF7EFFC731913F82F3C7C
:10196000834217D10135342DF3D120462946FEF7A5
:10197000E3FCB8420ED120463521FEF7DDFC5528A8
:1019800004D0204635215522FEF704FDFFF7E8FD7F
:101990000120F8BDFFF7E4FD0020F8BDF7B50546CE
:1019A0000E462F2421462846FEF7C6FC00AB2344F2
:1019B0000134342C03F82F0CF4D10521684601F0D2
:1019C000F4F9214607462846FEF7B6FC874207D1C0
:1019D00000231DF80320F2540133052BF9D101E057
:1019E000002000E0012003B0F0BD38B50546FFF748
:1019F000BBFD2F2428462146FEF79EFC68B12846F1
:101A000021460022FEF7C6FC28462146FEF794FC3C
:101A100018B1FFF7A5FD002038BD0134342CE9D101
:101A200028463521FEF788FC20B1284635210022C2
:101A3000FEF7B0FCFFF794FD012038BD37B50D4629
:101A40008DF8071036210446FEF776FC85422BD030
:101A500002ADFFF789FD15F8012D20463621FEF76E
:101A600099FC0121284601F0A0F9372102462046C1
:101A7000FEF790FC20463621FEF75EFC9DF807300D
:101A800083420DD120463821FEF756FC552804D05C
:101A9000204638215522FEF77DFCFFF761FD03E06B
:101AA000FFF75EFD002000E0012003B030BD3621CD
:101AB000FEF742BC37B536210546FEF73DFC02ABCA
:101AC00003F8010D1846012101F06FF93721044692
:101AD0002846FEF731FC231A5842584103B030BD66
:101AE00010B536210446FEF727FC88B1FFF73CFD10
:101AF000204636210022FEF74DFC20463621FEF717
:101B00001BFC18B1FFF72CFD002010BDFFF728FDCE
:101B1000012010BD08B54821FEF70EFCB0F15503B9
:101B20005842584108BD10B548210446FEF704FC50
:101B300088B1FFF719FD204600224821FEF72AFC54
:101B4000FFF70EFD20464821FEF7F6FBD0F101001D
:101B500038BF002010BD012010BD0000F7B50546BC
:101B60000E464F2421462846FEF7E6FB00AB2344F1
:101B70000134572C03F84F0CF4D10821684601F0CA
:101B800014F9214607462846FEF7D6FB87420CD1BA
:101B900000231DF80320F2540133082BF9D1044827
:101BA000044903F089FC012000E0002003B0F0BDEF
:101BB000C81400202BE1000810B558210446FEF798
:101BC000BBFB552808D0FFF7CFFC204658215522F3
:101BD000FEF7E0FBFFF7C4FC10BD10B5582104462A
:101BE000FEF7AAFB40B1FFF7BFFC204658210022B8
:101BF000FEF7D0FBFFF7B4FC10BD0000F7B50F46B1
:101C00000546FFF7B1FC3846082101F0CEF84F2415
:101C100006463B192146284613F84F2C0134FEF79F
:101C2000B9FB572CF5D1214628463246FEF7B2FBC8
:101C30004F2421462846FEF77FFB00AB23440134A6
:101C4000572C03F84F0CF4D16846082101F0ADF889
:101C5000864206D02846FFF7C0FFFFF781FC002030
:101C600007E00549054803F027FC2846FFF7A4FFD5
:101C7000012003B0F0BD00BF40E10008C8140020FF
:101C800008B55821FEF758FBB0F1550358425841AA
:101C900008BD70B504460E461546FFF765FC2046A4
:101CA00032462221FEF776FB204623212A46FEF704
:101CB00071FBFFF755FC70BDFEF73EBBFEF73CBB6A
:101CC00070B504460E461546FFF74EFC20463246D8
:101CD0002421FEF75FFB204625212A46FEF75AFB0A
:101CE000FFF73EFC70BD000070B5A1F11E024AF680
:101CF000A2039A4286B005460C4604D921482249DF
:101D000003F0DAFBB42459212846FEF715FB5A21CB
:101D100006462846FEF710FB40EA0620A0421AD1EC
:101D20001A49184803F0C8FB6846194903F0C2FC79
:101D3000694603A803F0DFFC214603A803F0B4FDC5
:101D40000146104803F0AEFB03A803F071FC68469F
:101D500003F06EFC13E0FFF707FC28465921C4F39B
:101D60000722FEF717FB28465A21E2B2FEF712FBC4
:101D700028465B215522FEF70DFBFFF7F1FB012002
:101D800006B070BDC814002055E1000895E10008B8
:101D9000CCE1000838B559210546FEF7CDFA5A21A5
:101DA00004462846FEF7C8FA40EA042038BD000081
:101DB00070B55E480D46097801F08BFD69780646DE
:101DC0005A4801F086FD06EB8606594C06EB86065E
:101DD00000EB8600E080A978544801F07AFD60713C
:101DE000E978524801F075FD207129794F4801F0DA
:101DF00070FD6979A0704D4801F06BFDA9796070A4
:101E00004A4801F066FD4B4920704B4803F039FB0E
:101E1000E1880A22484803F0C4FB4849464803F0D9
:101E200030FB61790A22444803F0DCFB4449424814
:101E300003F027FB21790A223F4803F0D3FB4149F5
:101E40003D4803F01EFBA1780A223B4803F0CAFB81
:101E50003D49394803F015FB61780A22364803F002
:101E6000C1FB3A49344803F00CFB0A22217832487E
:101E700003F0B8FB02F0CCFC642003F027FE204600
:101E8000FEF7FAF90146324802F074F9642003F0D3
:101E90001DFE02F0C3FC2E4802F06FF901462046F9
:101EA000FEF75EF9E1886423B1FBF3F1C9B21F4884
:101EB00001F006FD2870E2884FF47A73B2FBF3F16B
:101EC00003FB11211948C9B201F0FAFC687061796D
:101ED000164801F0F5FCA8702179144801F0F0FCD7
:101EE000A178E870114801F0EBFC617828710F4887
:101EF00001F0E6FC217868710C4801F0E1FC002457
:101F0000A871295D10220C4803F063FB01340A48D4
:101F1000104903F0B6FA072CF3D1074803F0B6FADC
:101F2000BDE8704004480C4903F0C6BABA1400205A
:101F30001E140020F1E10008C8140020F8E1000898
:101F400000E2000806E200080DE2000817E20008BF
:101F50002714002046E7000821E2000870B51C485D
:101F60000D4602F00AF91B4C01462046FEF7F8F830
:101F7000E188194E6423B1FBF3F1C9B2304601F098
:101F80009FFC2870E2884FF47A73B2FBF3F103FBF5
:101F900011213046C9B201F093FC68706179304676
:101FA00001F08EFCA8702179304601F089FCA178FF
:101FB000E870304601F084FC61782871304601F009
:101FC0007FFC21786871304601F07AFCA87170BD01
:101FD000271400201E140020BA14002001481121EB
:101FE00002F0BFB827140020064B1A6801321A60AD
:101FF0001A68B2F5615F04D300221A60024B012215
:102000001A707047281400205514002010B5084C91
:102010000849204603F0B7F920460121064A03F09B
:10202000E4F920460021BDE8104003F0A3B900BF49
:102030006415002040420F00E91F000810B5054C50
:10204000204603F089F920460021BDE8104003F046
:1020500091B900BF64150020014803F075B900BFB5
:10206000641500202DE9F84300240F469046994658
:1020700025464C4513DA5FFA88F60121304603F015
:10208000C7FC0A2003F022FDF8B203F0ABFC0021EC
:1020900000EB4505304603F0BBFC0134E9E7284678
:1020A000BDE8F88370B5D4B21D46EDB20E462046A9
:1020B000002103F055FC2846002103F051FC204686
:1020C000012103F0A5FC2846012103F0A1FC2046D4
:1020D000002103F09DFC2846002103F099FC2846CE
:1020E000012103F095FC2046012103F091FC2846D4
:1020F000002103F08DFCF3B201222046294603F0B3
:10210000B3FC2846012103F083FC2046022103F0A2
:1021100027FC204603F066FC2846002103F078FCEB
:102120002046BDE8704003F05DBC38B5CDB228460E
:10213000022103F015FC64240A2003F0C7FC2846A2
:1021400003F050FC08B1013CF6D138BD2DE9F8434D
:10215000CCB2154680460E46EFB22046022103F06F
:10216000FFFB3846002103F0FBFB2A4608233146DB
:102170004046FFF777FF00214FEA0029204603F091
:10218000EFFB2046012103F043FC2046002103F031
:102190003FFC3846012103F03BFC3846002103F0A8
:1021A00037FC2046022103F0DBFB404631462A463D
:1021B0000823FFF757FF49EA0000BDE8F88338B568
:1021C0001446CDB2E4B22846002103F0C9FB2046F4
:1021D000002103F0C5FB2846012103F019FC20462D
:1021E000012103F015FC20460021BDE8384003F032
:1021F0000FBC38B590E80C0004460321FFF752FFEE
:1022000020462168FFF791FF94E806002046FFF77B
:102210009DFF94E8060005462046FFF7D0FF2846BC
:1022200005F004FC38BD000008B5FFF7E2FF05F03B
:1022300017FE05F0FBFB034905F04CFC024905F0D5
:102240003FFB08BD0AD7233C00002042F8B590E8C8
:102250000C0004460521FFF725FF20462168FFF703
:1022600064FF94E806002046FFF770FF94E806003C
:1022700005462046FFF7A3FF284605F0D7FB1E4979
:10228000064605F027FC4FF0814105F019FB1B497C
:102290000546304605F01EFC314605F01BFC0146A4
:1022A000284605F00FFB07462046FFF7BDFF04F068
:1022B0007DFF0022124B04F019FE04460D46304605
:1022C000104905F007FC104905F0FCFA04F06EFF18
:1022D00002460B462046294604F0BCFF0446384619
:1022E0000D4604F063FF02460B462046294604F0E3
:1022F000FFFD05F091FAF8BD54E3253DA2E73BB69A
:1023000000003940ACC5A7380AD7233C024B1D2139
:102310001C2283E8060070472C14002038B5094CB5
:102320000948256801352560FFF734FD854207D34C
:10233000064803F009F800232360054B01221A70B8
:1023400038BD00BF441400201A140020601500207E
:102350000E01002007B53848FFF782FA002831D176
:10236000364B187002F0C4FA33483549FFF70FF9BD
:1023700028B131483249FFF74AF9002852D12E4896
:10238000FFF7AEFB20B12C48FFF72FFB00284ED102
:1023900001238DF800302848002369468DF801306C
:1023A0008DF802308DF803308DF80430FFF7A8FA6D
:1023B00018B12448244903F07FF82448002105225D
:1023C00000F064FD1F48224903F076F81A48FFF731
:1023D00047FA08BB02F08CFA102003F003FBA8B9FF
:1023E00002F086FA41F2883003F070FB02F080FAC6
:1023F000102003F0F7FA48B9164801F0B1FA10209E
:1024000003F0F0FA10B902F073FAF8E71248FEF799
:1024100005FB02F06DFAD9E7084B01221A7003B0F0
:102420005DF804FB0D49074803F046F8A7E70C499F
:10243000044803F041F8ABE71D1400200C00002015
:1024400038140020C8140020CEE2000878140020C0
:10245000EBE20008BF1400201614002010E300086F
:1024600023E30008F8B5154E0325346802F040FA5E
:10247000134B1A781F461AB9124801F0C3FC0BE03F
:10248000114A1178114A117000221A70F8BD3B7878
:1024900043B90F48FEF7C2FA326804F51C531033F3
:1024A0009A42F4D3013D15F0FF053468DED1BDE852
:1024B000F8400848084902F0FFBF00BFA8150020F7
:1024C00014140020BF14002080140020B814002031
:1024D00016140020C814002052E3000808B5052097
:1024E00003F080FA40BB642003F0F0FA052003F00B
:1024F00079FA08BB1149124802F0DEFF02F0F8F940
:1025000041F2883003F0E2FA02F0F2F9052003F01C
:1025100069FA88B9642003F0D9FA052003F062FA59
:1025200050B90848FFF7FFFA0548074902F0C4FF11
:10253000BDE8084002F0DCB908BD00BF83E3000835
:10254000C81400201914002096E3000810B50D4CA3
:1025500002222046012102F035FF20460A4902F0FE
:1025600012FF012120460A4602F030FF20460121D9
:10257000064A02F03AFF20460021BDE8104002F072
:10258000F9BE00BF6015002040420F001D23000867
:10259000074A30B5136815462C6819188C42044A4E
:1025A00004D81168994238BF1368F5E730BD00BF01
:1025B000A81500209D4B30B51A688DB022F0E0625E
:1025C00042F000721A6006204FF47A7102F080F92E
:1025D00097484FF4165102F08FFE96484FF416516B
:1025E000FEF7D6FA4FF41651934802F085FE02F03A
:1025F00002F902F07DF9914800F01EFC8D48FEF7CB
:10260000A3FA1420002103F0ABF90121142003F0F8
:10261000FFF98B48FEF7ACFF01218648FEF702FC6C
:102620004FF47A7003F052FA8648FEF7F7F902F099
:102630005FF985497E4802F03FFF84482221FFF779
:102640003DFB0228044605D180482321FFF736FBD5
:102650000546E0B100227D480221FFF71AFB7C49C4
:10266000684603F027F8694606A803F044F81022EC
:10267000022103A803F06BF803A906A803F0EBF806
:10268000744903F0F5F80021044609A816E07249E0
:10269000684603F00FF8694606A803F02CF82146B7
:1026A000102203A803F053F803A906A803F0D3F8F7
:1026B000684903F0DDF82946044609A8102203F012
:1026C00046F8204609A903F0C6F80146584802F02A
:1026D000E9FE09A802F0ACFF03A802F0A9FF06A8D2
:1026E00002F0A6FF684602F0A3FF58482421FFF736
:1026F000E3FA0228044616D154482521FFF7DCFAF4
:10270000054680B9554906A802F0D4FF06A909A8D4
:1027100002F0F1FF214609A803F0BCF84D4903F08F
:10272000A7F8294614E0002248480221FFF7C8FA1A
:102730004B4906A802F0BEFF06A909A802F0DBFF7C
:10274000022109A803F0A6F8424903F091F80021FC
:1027500003F0A0F80146364802F0A4FE09A802F0F2
:1027600067FF06A802F064FFFFF7B8FE3D48FFF7D9
:10277000D1F9044658B90620012103F049F92D4842
:102780002146FEF72BFE0620214603F041F936488C
:10279000FFF739F8FFF7DEFD34493348FFF76AF8F1
:1027A0000146C0B90A22254800F070FB3049204894
:1027B00002F082FE2F491E4802F07EFE2E4801F0F4
:1027C0008DF92048FEF72AF940F6B830FFF7E0FE11
:1027D00002F08EF8E0E72949154802F06DFE144832
:1027E000274902F04EFE0024204B1022195D1048AC
:1027F00002F0EFFE01340E48224902F042FE092C9D
:10280000F2D10B4802F042FE0A220C48012100F0EE
:102810003DFB02F06DF8FFF7F9FB1B49044802F09D
:102820004BFEFFF793FE0DB030BD00BF040001402A
:10283000C814002018140020F81400207814002078
:102840001C14002016140020D1DF00081B140020E7
:1028500082E400083EE10008CDE40008E3E400085B
:10286000F9E40008191400201D1400203814002079
:10287000DAE300080EE40008BF1400203DE400087D
:1028800056E4000846E7000860E4000810B5064C6E
:102890000649204602F00EFF20460549054ABDE8DC
:1028A000104003F02FBA00BF48140020D1DF000809
:1028B000315600080800002030B589B0324802F0D7
:1028C000BDFC00280ADD304802F064FCC1B22F488C
:1028D00002F06BFF022003F0F9F8EFE72B4CA3683E
:1028E000002B4ED0204603F021F8294902A802F01F
:1028F000E1FE02A905A802F0FEFE214605A802F0AD
:10290000AAFF0146204802F0CDFD05A802F090FE86
:1029100002A802F08DFE1F4905A802F0CBFE20465A
:1029200005A902F0F5FF054605A802F081FE65B194
:102930001949154802F0C0FD0023009317490122F0
:10294000174B1848FEF7A0FB17E0174905A802F03F
:10295000B1FE204605A902F0DBFF044605A802F0FF
:1029600067FE094834B1114902F0A6FD104801F094
:1029700049FA02E00F4902F09FFD04480E4902F0B7
:10298000C4FE09B030BD00BFC814002048140020A8
:1029900044E500084FE5000857E50008BB14002097
:1029A00073E50008181400207DE5000888E500089C
:1029B000BF140020A4E50008D1DF000810B501F025
:1029C00097FF134800F084FD124B1A78124B1B78C6
:1029D0009A4205D01149124802F06EFDFFF742FD00
:1029E000104B1A7872B1104900240D481C7002F087
:1029F00063FDFFF737FD0D48214602F0BBFC0B4895
:102A000002F0AAFCFFF758FFBDE8104000F078B8CC
:102A10008114002080140020B8140020CDE50008A7
:102A2000C81400200E010020EEE50008601500200B
:102A300013B5074C00212046FEF7D0FC002300937D
:102A4000204604490122044BFEF71EFB02B010BDD4
:102A500018140020BB14002073E500081FB521489E
:102A600001A9FEF707FF204CC0B92049204802F019
:102A700023FD204801F032F81F48FDF7CFFF40F654
:102A8000B83003F023F801F033FF23780133DBB2D1
:102A9000322B2370E3D901F05FFFE0E700232370BE
:102AA0001048FFF707F8C0B91449114802F004FDB7
:102AB000104801F013F81048FDF7B0FF40F6B830A9
:102AC00003F004F801F014FF23780133DBB2322B5A
:102AD0002370E5D901F040FFE2E70023237004B042
:102AE00010BD00BF1D140020541400200CE6000887
:102AF000C8140020BF140020161400205AE6000855
:102B00000F4B10B51A78CAB100241C70FFF7A4FA55
:102B100021460C480A2200F0B9F9FFF789FFFFF7B8
:102B20009DFFFFF78BFA074801210A2200F0AEF95A
:102B3000BDE810400448054902F0BEBC10BD00BF0E
:102B40005514002078140020C8140020B0E60008B6
:102B50000A4B1A680A4B9B6800BF00BF0749096807
:102B60008A42F5D1C3F58C33482103F5A073B3FB3A
:102B7000F1F34FF47A7000FB02307047A815002083
:102B800010E000E010B5044680E80600D0B2002155
:102B900002F0E6FE2078002102F0E2FE0023207918
:102BA000E360012102F034FF20780121BDE81040EC
:102BB00002F02EBF38B5C36804460D4623B100218C
:102BC000C160007802F0CCFE20782946BDE838408C
:102BD00002F01EBF10B500210446FFF7EBFF642092
:102BE00002F082FF2079002102F012FFBDE81040C0
:102BF000642002F079BF10B500210446007902F08C
:102C000007FF642002F070FF20460021FFF7D2FF8B
:102C1000642002F069FF2079012102F0F9FE6420AE
:102C200002F062FF20460121FFF7C4FFBDE810401B
:102C3000642002F059BFF8B504460E460825F7098E
:102C40002079002102F0E4FE20463946FFF7B2FF6A
:102C50000121207902F0DCFE642002F045FF2046CD
:102C60003946FFF7A7FF7600013DF6B2E7D12946C6
:102C7000207902F0CDFE2078022102F071FE0223BD
:102C8000E3602079012102F0C3FEFFF761FF0546F2
:102C9000207802F0A7FE30B1FFF75AFF401B6428EE
:102CA000F6D90020F8BD0120F8BD38B50D46044620
:102CB000FFF790FF6900204601F0FE01FFF7BBFF20
:102CC00038BD08B5FFF797FF002008BD08B5FFF72E
:102CD000B2FF08BD70B50D466D0004461646FFF7FD
:102CE00079FF691CA6602046C9B2FFF7A4FF70BD3A
:102CF00070B586680446002E55D00078022102F097
:102D00002FFE0223E360082500262079002102F02F
:102D10007FFE0121207902F07BFE642002F0E4FEB8
:102D2000207802F05FFE013D00EB460000F0FF0658
:102D3000EBD1A3686068013B002BA360C0B22946B9
:102D400017DD02F065FE642002F0CEFE2946204623
:102D5000FFF730FF642002F0C7FE2079012102F066
:102D600057FE642002F0C0FE2079294602F050FE92
:102D700019E002F04DFE642002F0B6FE012120466B
:102D8000FFF718FF642002F0AFFE0121207902F066
:102D90003FFE642002F0A8FE2079294602F038FEAA
:102DA0002046FFF728FF304670BD002330B50546AA
:102DB00018468B420FDAEA5C5040082210F0010FEF
:102DC0004FEA60041ABF84F0E000C0B2E0B2013AFA
:102DD000F4D10133EDE730BD08B5134B13491A6840
:102DE000096801328A421A601DD3114900221A6013
:102DF0000B78DB43DBB20B700E49097841B1012936
:102E000011D1072003B1114602F002FE062005E0B1
:102E1000062003B9012102F0FBFD07200021BDE8D7
:102E2000084002F0F5BD08BD6C14002074140020A9
:102E3000681400207014002008B51320002102F04F
:102E40008FFD0720002102F08BFD0620002102F0FB
:102E500087FD1020022102F083FD0520022102F0EF
:102E60007FFD0021082002F07BFD0A2002F02EFEEB
:102E70000720002102F0CCFD0620002102F0C8FD51
:102E8000BDE808400820012102F0C2BD0F4B10B57B
:102E90000F4C19700F4B20461A600121022202F0DC
:102EA00091FA20460C4902F06EFA012120460A46AA
:102EB00002F08CFA20460121084A02F096FA2046D8
:102EC0000021BDE8104002F055BA00BF7014002088
:102ED0006815002074140020A0860100D92D000878
:102EE00008B5064802F030FA0720002102F090FDF4
:102EF000BDE808400620002102F08ABD68150020C8
:102F0000014802F029BA00BF681500200020704770
:102F100008B51620002102F023FD1720002102F041
:102F20001FFD1620012102F073FDBDE808401720A7
:102F3000012102F06DBD1720002102F011BD172004
:102F4000042102F00DBD08B5FFF7F5FF17200121A0
:102F500002F05EFD0121162002F05AFD052002F06C
:102F6000C3FD0021172002F053FD062002F0BCFD36
:102F7000BDE808401620002102F04ABD08B5FFF761
:102F8000DAFF1620002102F043FD1720002102F095
:102F90003FFD0121162002F03BFD062002F0A4FDBA
:102FA0001720012102F034FDBDE80840062002F0A0
:102FB0009BBD10B500210446162002F029FD2046D5
:102FC000FFF7B9FF0021172002F022FD022002F0D6
:102FD0008BFD0121162002F01BFD052002F084FD6F
:102FE000BDE810401620002102F012BD10B50021EE
:102FF0000446162002F00CFD2046FFF79CFF01213D
:10300000172002F005FD022002F06EFD01211620BE
:1030100002F0FEFC052002F067FDBDE8104016201E
:10302000002102F0F5BC70B50646FFF788FF0121CC
:10303000172002F0EDFC012002F056FD16200121C0
:1030400002F0E6FC012002F04FFDFB25172002F004
:10305000C9FC044640B1013D15F0FF05F6D13046EC
:10306000FFF78CFF012070BD1620214602F0D0FC36
:10307000204670BD38B50C46FFF75DFF16200021D5
:1030800002F0C6FC082524F07F0303F0FF0117209F
:1030900003B1012102F0BCFC0121162002F0B8FCB2
:1030A000022002F021FD1620002102F0B1FC013DBA
:1030B0000220640002F018FD15F0FF05E4B2E2D131
:1030C00038BDF8B505460F46FFF739FF082600243E
:1030D0000021162002F09CFC022002F005FD1620C3
:1030E000012102F095FC64001720E4B202F07AFCA2
:1030F00008B10134E4B20120013E02F0F5FC16F003
:10310000FF06E5D1284617B9FFF770FF01E0FFF78A
:1031100050FF2046F8BD70470120704701207047DE
:1031200010B5FF2301441A46884208D010F8014B1D
:103130005440044A125D5A40034B1B5DF4E743EAD6
:10314000022010BD0D0000201001002070B5094DB7
:10315000094C0646227829780848FFF713FD28789D
:10316000012102F055FC2078012102F051FC30468B
:1031700070BD00BF0D0100200F010020A814002029
:1031800010B5064C2046FFF790FD2046FFF799FD4D
:10319000D0F1010038BF002010BD00BFA8140020EE
:1031A00010B54A2104460548FFF7EAFF28B1236815
:1031B00020461B6801219847012010BDB91400204A
:1031C00070B5094C154620461E46FFF76EFD294690
:1031D0002046FFF77BFD20463146FFF777FD20466E
:1031E000BDE87040FFF76DBDA8140020F8B5134886
:1031F00014461E460F469DF81850FFF756FD21460F
:103200000E48FFF763FD0D48FFF75BFD0B4CA5B1C2
:103210002A4620463946FFF75DFD0022237A551CD9
:1032200033B10648D7B2FFF763FD2A46F055F5E7FC
:103230000248BDE8F840FFF744BDF8BDA8140020DF
:10324000F0B51C4685B0012300930DF10F03154620
:1032500007460E46FFF7CAFF9DF80F309DF828205D
:1032600023EA040314402343384631462A468DF8A6
:103270000F30FFF7A5FF05B0F0BD000013B5002427
:1032800071B1012213460B484A210094FFF7D8FF81
:103290004A210094074802224023FFF7D1FF8021F2
:1032A000009104484A2102228023FFF7C9FF02B09F
:1032B00010BD00BFB914002008B501F019FB1E2293
:1032C0000F481F21FFF75EFC38210D48FFF7EDFC8A
:1032D00006210B48FFF7FAFC0948FFF7F2FC4FF410
:1032E000FA7002F0F3FB0748FFF75AFF10B10648E7
:1032F000064901E004480649BDE8084002F0DCB890
:10330000581400207C140020C814002010E7000886
:1033100029E7000800000000F0B5044685B00D461E
:10332000164601F0E5FA2046314CFFF7C5FF39217A
:1033300001222046FFF7CEFC012002F0C7FB277ACE
:103340001FB12046FFF7D4FC074638210122284848
:10335000FFF7C0FC012002F0B9FB207A10B124482D
:10336000FFF7C6FC40EA072003F0FEFE1EA3D3E9E8
:10337000002303F06FFF04F02FFA1E4930601E484F
:1033800002F07FF831680A221B4802F03EF902235E
:1033900000931A4803AB4A210322FFF727FF9DF849
:1033A0000D209DF80C3002F00F0242EA03122D218D
:1033B000D2B24A431B0902FA03F34FF47A72B3FB09
:1033C000F2F32B600E490C4802F05BF829680A22E0
:1033D000094802F024F90B49074802F06DF805B0DE
:1033E000F0BD00BFAFF300800AD7A3703D0A773F5E
:1033F0005814002042E70008C8140020B914002027
:1034000048E700085FE7000808B50348FFF79EFE9D
:10341000024A034B1A6008BDB9140020F0E6000808
:103420007C140020F0B5284C85B020680E466168F9
:1034300002AB03C304AC154600210722684605F021
:1034400009FC01F055FA04F8085D20460621FFF753
:1034500067FE030A8DF80F001C488DF80E300368D4
:1034600021469B6808229847642002F02FFB002524
:103470002C46164801F0E2FE002811DD062C04D986
:103480000135EDB2092D1BD80024104801F082FE51
:10349000671C04AB1C44FFB204F8100C3C46E8E780
:1034A00074B168460521FFF73BFE9DF805209DF8A5
:1034B000063043EA0223834202D19DF8043000E043
:1034C000FF23337005B0F0BD08E70008F8140020B2
:1034D00070B50D4C0646002584F8205001F008FA1E
:1034E000304604F120010222FFF79CFFC82002F0C1
:1034F000EDFA94F82000012800D010B9034B1870A1
:1035000070BD284670BD00BF8414002080140020C8
:103510007FB5304C0E462068616802AB03C304AC33
:10352000154600210722684605F094FB04F8085D63
:1035300020460621FFF7F4FD030A8DF80F00264808
:103540008DF80E30036821469B68082298474FF497
:10355000FA7002F0BBFA00241F4801F06FFE002849
:10356000E5B212DD072C0FD01B4801F013FE10222C
:10357000C1B21A480DF8041002F02BF81748184988
:1035800001F07FFF0134E7E70025144801F07EFFDA
:103590001248144901F090FFA5B168460521FFF7D4
:1035A000BFFD9DF805209DF8063043EA02238342C3
:1035B00008D19DF803009DF8043043EA002004F090
:1035C00035FA00E00848094904F038FB306004B0DF
:1035D00070BD00BF08E70008F8140020C8140020E0
:1035E00046E7000864E7000800FF7F47000020412D
:1035F0007FB52F4C0E462068616802AB03C304AC54
:10360000154600210722684605F024FB04F8085DF2
:1036100020460621FFF784FD030A8DF80F00254898
:103620008DF80E30036821469B68082298474FF4B6
:10363000FA7002F04BFA00241E4801F0FFFD00284A
:10364000E5B212DD072C0FD01A4801F0A3FD1022BD
:10365000C1B219480DF8041001F0BBFF1648174914
:1036600001F00FFF0134E7E70025134801F00EFFDA
:103670001148134901F020FF95B168460521FFF775
:103680004FFD9DF805209DF8063043EA0223834252
:1036900006D19DF803209DF8043043EA022301E09F
:1036A0004FF6FF7333600A2002F010FA04B070BDC9
:1036B00008E70008F8140020C814002046E70008B6
:1036C00091E7000830B587B0054601F011F9642094
:1036D00002F0FCF96848FEF7A7FD684C2060642002
:1036E00002F0F4F96448FEF7B1FDA060642002F036
:1036F000EDF904F1200102222846FFF793FE642031
:1037000002F0E4F904F1140104F11C025C48FFF733
:1037100003FE642002F0DAF904F10C0106222846C7
:10372000FFF7F6FE642002F0D1F90722284604F1E3
:103730001001FFF75DFF5349684601F0BBFF694682
:1037400003A801F0D8FF216803A802F0C1F84E4990
:1037500002F08EF801464D4801F0A4FE03A801F0E6
:1037600067FF684601F064FF4949684601F0A2FF1F
:10377000694603A801F0BFFFA16803A802F0A8F8FA
:10378000444902F075F80146404801F08BFE03A859
:1037900001F04EFF684601F04BFF3F49684601F0DB
:1037A00089FF694603A801F0A6FF616903A802F03A
:1037B00085F83A4902F05CF80146344801F072FE9F
:1037C00003A801F035FF684601F032FF344968462E
:1037D00001F070FF694603A801F08DFFE16903A8BD
:1037E00002F062F82F4902F043F80146274801F041
:1037F00059FE03A801F01CFF684601F019FF94F878
:10380000203022480BB9284903E0012B0CBF27497F
:10381000274901F051FE6846264901F04BFF6946F1
:1038200003A801F068FFE16803A802F051F82249FB
:1038300002F01EF80146154801F034FE03A801F01D
:10384000F7FE684601F0F4FE68461C4901F032FFBD
:10385000694603A801F04FFF216903A802F024F88C
:1038600001460A4801F01EFE03A801F0E1FE684689
:1038700001F0DEFE07B030BD2C14002084140020BF
:1038800081140020C2E70008D0E70008C814002017
:10389000D4E70008DFE70008E3E7000860E7000876
:1038A000FFE7000812E8000819E8000823E800080C
:1038B0002EE8000844E8000855E8000859E8000828
:1038C0000A22B1FBF2F302FB131202EB0310C0B2A7
:1038D000704701F00F03090901EB810103EB41007F
:1038E000C0B2704737B50C4601F002F80DF1070180
:1038F0000B48FDF724FF9DF807304FF47A705843CA
:10390000084902F0A6F89DF80730054664205843A0
:10391000054902F09EF82844206003B030BD00BF86
:103920001D14002080841E00400D030070B50E465B
:1039300015460024E3B2AB42074809D2315D10229C
:1039400001F047FE0448054901F09BFD0134F1E711
:10395000BDE8704001F09ABDC814002046E7000899
:1039600070B594B0402200210546002604A814AC8E
:1039700005F070F944F8506D00F0BAFF694628462A
:10398000FFF7B0FF009802F0AFF800F0B1FFFE23A0
:103990008DF81030E0238DF8113011238DF812309E
:1039A00024238DF8133003238DF81530444B8DF804
:1039B00014601B7803B1552342488DF81630FEF78A
:1039C00076F801AC8DF8170021463E48FDF7E6FF7A
:1039D000002304AA1A44E15C0133052B1172F8D1CB
:1039E00038482146FDF753FE002304AA1A44E15C3F
:1039F0000133092B5173F8D10024012322213248CD
:103A00008DF826308DF827408DF828408DF8294014
:103A10008DF82A408DF82B408DF82C408DF82D40E4
:103A20008DF82E408DF82F40FEF748F923218DF8B0
:103A300030002548FEF742F924218DF83100224854
:103A4000FEF73CF925218DF832001F48FEF736F9C4
:103A500024218DF8330005A88DF834408DF83540C9
:103A60008DF836408DF83740FFF79FF98DF8380014
:103A7000E30704AB234404F1010454BF0D220A22DE
:103A8000062C83F82920F3D11049114801F014FDC8
:103A900004A928462F22FFF749FF0E48FFF720FA16
:103AA0000D4804A903682F229B6898474FF4FA70C9
:103AB00002F00CF80748FFF723FA14B070BD00BFFE
:103AC000171400201D1400201B14002068E80008B3
:103AD000C814002078140020E014002070B586B0CF
:103AE000142200210546002601A806AC05F0B2F814
:103AF00044F8186D00F0FCFE69462846FFF7F2FE18
:103B0000009801F0F1FF00F0F3FEFE238DF8043081
:103B1000E0238DF8053013238DF8063005238DF84A
:103B2000073003238DF809301E4B8DF808601B7891
:103B300003B155231C488DF80A30FDF7B8FF012367
:103B40008DF80B00052102A88DF80C30FFF72DF938
:103B500000238DF80D00DA0701AA1A4403F10103CE
:103B600054BF0D210A21062B9172F4D10F49104840
:103B700001F0A2FC01A928461022FFF7D7FE0D484C
:103B8000FFF7AEF90C4801A9036810229B6898471B
:103B90004FF4FA7001F09AFF0648FFF7B1F906B04A
:103BA00070BD00BF171400201D14002084E8000819
:103BB000C814002078140020E014002070B58CB0E8
:103BC0001E220024002106460CAD04A805F042F890
:103BD00045F8244DADF8084000F08AFE29463046ED
:103BE000FFF780FE039801F07FFF00F081FE354B68
:103BF0000094354802A90122FDF746FAFE238DF80C
:103C00001030E0238DF8113014238DF81230122378
:103C10008DF8133003238DF815302C4B8DF814409C
:103C20001B7803B155232A488DF81630FDF73FFF66
:103C300001238DF81830274B00241B788DF81700CE
:103C40009DF8081024488DF819308DF81A408DF829
:103C50001B40FFF73EFE9DF809108DF81C001E4822
:103C6000FFF737FE12218DF81D0005A8FFF79DF81C
:103C700023468DF81E00DA0704AA1A4403F1010353
:103C800054BF0D210A21062BD173F4D113491448D6
:103C900001F012FC04A930461522FFF747FE114837
:103CA000FFF71EF9104804A9036815229B6898477E
:103CB0004FF4FA7001F00AFF0A48FFF721F90CB03F
:103CC00070BD00BF73E50008181400201714002011
:103CD0001D140020C0140020BA140020AAE8000817
:103CE000C814002078140020E01400202DE9F041D1
:103CF00088B005460026884617460021192201A8EB
:103D000008AC04F0A7FF44F8206D00F0F1FD69460F
:103D10002846FFF7E7FD009801F0E6FE00F0E8FD19
:103D2000FE238DF80430E0238DF8053015238DF83F
:103D300006300E238DF8073003238DF809302B4B06
:103D40008DF808601B7803B1552329488DF80A3097
:103D5000FDF7ADFE00248DF80B00012302A80E2113
:103D60008DF80C308DF80D808DF80E408DF80F40D9
:103D70008DF810408DF811408DF812408DF81340E9
:103D80008DF814408DF81540FFF70FF88DF81600E8
:103D9000E30701AB234404F1010454BF0D220A22BE
:103DA000062CDA74F4D11349134801F085FB284638
:103DB00001A91922FFF7BAFD1048FFF791F8002476
:103DC000E3B2BB420BD20E4801A9036819229B68DB
:103DD00098474FF4FA7001F079FE0134F0E7074894
:103DE000FFF78EF808B0BDE8F08100BF171400207F
:103DF0001D140020C4E80008C81400207814002016
:103E0000E01400202DE9F0410024AAB0214614223C
:103E10000646B34D05A8029404F01CFF21468022FB
:103E20000AA804F017FF00F063FD2B780BB16B7844
:103E30005BB9AC49AC4801F03FFB00230093AB48B1
:103E4000A7490122AA4BFDF71FF9AA48FFF73AFC40
:103E500000F04EFDFE238DF82830D0238DF8293058
:103E600029238DF82B3000238DF82C304FF00108DA
:103E70000323A1488DF82D308DF82A80FFF746F8EE
:103E80009E4C030A27688DF82F009D4938468DF80F
:103E90002E3003F0DBFF28B1FF238DF830308DF892
:103EA00031301BE03846002103F0B2FF20B107F1AA
:103EB00000472760474600E00746022302A8216822
:103EC0000422FCF7C7FA9DF808308DF830309DF8D1
:103ED00009308DF831300FB1F22300E0E223A768FA
:103EE0008DF8323038460023029303F0B9FF0138D1
:103EF000632803D9FF238DF833300BE0022302A897
:103F000039460422FCF7A6FA9DF808308DF83330C4
:103F10009DF809308DF834300021E223142205A8E1
:103F20008DF83530029104F095FE6269754B9A4226
:103F300007D9FF238DF836308DF837308DF83830BB
:103F400019E0714905A805F0EDF805A805F08CFA0F
:103F500005A9024602A8FCF745FA9DF808308DF83D
:103F600036309DF809308DF837309DF80A308DF8DD
:103F700038309DF80B30E7688DF839306349E0231D
:103F800038468DF83A3003F0A5FD03F08FFF4FF669
:103F9000FE73984203D9FF238DF83B300BE00123D9
:103FA00002A839460422FCF755FA9DF808308DF82E
:103FB0003B309DF809308DF83C302069E1238DF8C5
:103FC0003D304FF6FE73984203D9FF238DF83E3003
:103FD0000DE003F027FD00230146042202A8FCF7B0
:103FE00039FA9DF808308DF83E309DF80930E069C7
:103FF000002764288DF83F30029703D9FF238DF8FE
:1040000040300DE003F00EFD3B460146042202A8BD
:10401000FCF720FA9DF808308DF840309DF8093003
:104020008DF84130FF238DF843308DF844308DF802
:1040300046308DF8473094F8203003ACE022344805
:1040400021468DF849308DF842208DF845208DF8B5
:104050004820FDF783FF00230AAA1A44E15C0133DC
:10406000072B82F82210F7D12B780BA88DF851304E
:10407000AB7829218DF852306B788DF85330EB787E
:104080008DF85430FEF791FE00238DF85500DA07C5
:104090000AAA1A4403F1010354BF0D210A21062B79
:1040A00082F82E10F3D11B490F4801F005FA0AA936
:1040B00030463422FFF73AFC0F48FEF711FF16484E
:1040C0000AA9036834229B6898474FF4FA7001F0FC
:1040D000FDFC0948FEF714FF2AB0BDE8F08100BFDF
:1040E000BB140020DCE80008C814002018140020CD
:1040F00073E5000881140020781400208414002047
:1041000000001643400D0300F5E8000800002041C0
:1041100026140020FBE80008E0140020122938B51E
:104120000546144608460BD0132910D0112916D184
:1041300000F072F80CB120460FE047F6FF700CE07B
:1041400000F06AF8002CF6D149F63F4005E000F097
:1041500063F8002CEFD14FF2234000F011F928460C
:1041600038BD13B50022044601A8FFF7D7FF20464B
:1041700002B010BD084600F0E9B800F0D5B8000064
:10418000054B1B681B685B0103F1844394331A6879
:10419000002AFCD0704700BF10020020054B1B68AE
:1041A0001B685B0103F184438C331A68002AFCD03E
:1041B000704700BF1002002008B5FFF7E1FF054B74
:1041C00000221B681B685B0103F18443C3F88C2049
:1041D00008BD00BF1002002008B5FFF7D1FF054B56
:1041E00001221B681B685B0103F18443C3F8902024
:1041F00008BD00BF1002002008B5FFF7C1FF054B46
:1042000000221B681B685B0103F18443C3F8902004
:1042100008BD00BF1002002010B5044600F0EBFA04
:1042200000F0F6FA204A112C136A23F4407313624B
:1042300013460BD005D8C4B1102C2AD10023136229
:1042400027E0122C11D0132C1AD022E0174A00219B
:104250001160012142F8081C154A126812F0FF0F84
:10426000FAD01A6A42F4807212E0124A01211160F7
:10427000114A1268002AFBD01A6A42F4007207E061
:104280000E4A126812F0FF0FFAD01A6A42F4407216
:104290001A620B4B01221A60FFF78EFFFFF77EFFB9
:1042A000BDE81040FFF76CBF001002400804424216
:1042B0000404424280044242840442424400424296
:1042C0003C044242F8B5104B1E6835682B686F6895
:1042D0001F4017F0010403D074680CB1A0470124FB
:1042E000BA0704D5B36813B1984744F002047B07BA
:1042F00004D5F36813B1984744F004046B6823EACB
:1043000004046C60F8BD00BF1002002008B5044B27
:104310001B681B691BB19847024B01221A6008BD3C
:1043200010020020C482204208B5FFF745FFFFF7C6
:1043300035FFFFF725FF044B1B681B689869DB6995
:104340009BB243EA004008BD1002002010B50446AD
:10435000FFF732FFFFF722FFFFF712FFFFF73CFFE7
:10436000064B220C1B68A4B21B689A61DC61FFF744
:1043700043FFBDE81040FFF703BF00BF100200205D
:1043800010B50446FFF718FFFFF708FFFFF7F8FE28
:10439000FFF722FF064B220C1B68A4B21B689A6031
:1043A000DC60FFF729FFBDE81040FFF7E9BE00BF62
:1043B0001002002001498D460149084700500020A5
:1043C000C543000808B5124B124A1968914201D042
:1043D000002301E0104B07E01048D4188442F9D2C2
:1043E000C858D0500433F7E70D4A934203D2002255
:1043F00043F8042BF8E704F07DF80020014602465C
:1044000001F0A7FA074B0BB104F064F8FEE700BF18
:10441000C4EE00080000002078130020781300206C
:10442000B0150020D584000808B50D4B1A680AB9EC
:104430000C4A1A601B680C4AD21A824204DB0949F2
:104440004242591A914206DA04F03EF80C23036006
:104450004FF0FF3008BD024A18441060184608BDEE
:10446000C4140020B0150020482A0128FEE7704738
:104470000B4B10B5196809220A230A4800F0F2FE16
:10448000094B022219680948032300F0EBFEBDE83E
:104490001040074B074819681A221B2300F0E2BEA0
:1044A00034030020C814002038030020E01400204A
:1044B0003C030020F814002010B5044600F080F9F9
:1044C000034B20461978BDE8104000F015B900BF35
:1044D0002C020020F8B50446056800F037FB22687E
:1044E0000023510101F184410B60802129600121E9
:1044F000A9622B61EB606379696113B18B4203D0D0
:104500002BE04FF400436B644FF6FF73D36200253A
:104510006E1CF7B22046394600F022FBD0B123686A
:1045200048F6FF7103F1340242F8251018336D107C
:1045300017F0010F53F8252014BF6FF0FF016FF43F
:104540007F4101EA020214BF68214FF4D0410A43BF
:1045500043F82520042E3546DAD1216801224B018B
:10456000490103F1844301F18441C3F880220A60C8
:10457000F8BD000038B5274B274C1A68022042F0DE
:1045800010021A6000F050F90025002000F008FA2F
:1045900065602368182023F40023236000F00DFADF
:1045A000102000F00AFA00F043F8A560102000F097
:1045B000F7F9102000F00FFA0028FAD000F039F8CF
:1045C000164800F015FA182000F0EAF9182000F05B
:1045D00002FA0028FAD0022000F0D2F900214FF0B0
:1045E000006000F0A1F90E4800F068FA00F038F819
:1045F0000C4B188800F0D2F80B4800F0D3F80B48A9
:1046000000F090FA00F02EF800F02DF8FFF72FFFE1
:1046100038BD00BF002002400010024030020020E0
:104620003F1901002E020020B9440008D5440008BB
:10463000704708B50020014600F018FA01204FF439
:10464000806100F013FA0021022000F00FFA2D2003
:1046500000F01CFABDE808400320002100F006BA73
:1046600000F0ECB8704700F029B90000000000002D
:10467000012007E0022005E0032003E0042001E020
:104680000520FFE70D4A0121116072B60C4A002196
:104690001160074902B4084902B486B005498E4644
:1046A000704700BFAFF30080AFF30080AFF300802E
:1046B00000000061F9FFFFFF8151000814ED00E0E8
:1046C00010E000E0AFF30080AFF30080AFF30080B4
:1046D000FEE710B50446007900F096F92079BDE8B0
:1046E000104000F0A9B903689A6822F4602242F4ED
:1046F0008012114399607047002370B51A461C461A
:10470000072B4FEA430503DCEE1801FA06F63443A3
:104710001D4401FA05F501330A2B42EA0502EFD1E7
:104720000368DC601A6170BD38B5124D2A681368E1
:104730001C68A10706D5196821F002011960936869
:1047400003B19847620708D52B681A681B6911687E
:1047500021F00401116003B19847E30708D52B68E5
:104760001A68DB68116821F00101116003B19847F4
:1047700038BD00BF5C020020036801225B0103F129
:10478000844303F58673191F1A6018680028FCD14A
:1047900043F8042C0B68002BFCD170470146042021
:1047A00000F064B9044B10B504461868A047034BE9
:1047B0001868A04710BD00BF5C020020580200200E
:1047C00010B50446FFF785FF20464FF46021FFF740
:1047D0008AFF2368012103F1404308335A015B013A
:1047E00002F1844203F18443116520461960BDE85B
:1047F0001040FFF7C1BF08B5142000F005F90420F0
:1048000000F002F9BDE80840042000F015B90000EE
:10481000014B01221A60704720000E42014B00221A
:104820001A60704720000E42034B1A6822F00702FC
:1048300010431860704700BF0020024008B50748C9
:1048400001F0D3F9064801F0D0F9064801F0CDF99E
:10485000BDE80840044801F0C8B900BF600200206C
:1048600068020020700200207802002070B501F07C
:104870000704A4000F25A5400368C80853F820606A
:10488000092A26EA050514BF1646082606FA04F486
:10489000082A44EA050443F8204006D1012000FA22
:1048A00001F1DA6822EA010106E0092A05D10120B6
:1048B00000FA01F1DA681143D96070BD08B5032030
:1048C00000F0A2F8BDE80840032000F0B5B80000F1
:1048D000064B45F255521A604CF6CC42586099602E
:1048E0001A604AF6AA221A60704700BF00300040E2
:1048F000024B4AF6AA221A60704700BF00300040FF
:1049000000284FEA011105DA064B00F00F00C9B28A
:104910001954704700F16040C9B200F5614080F859
:104920000013704714ED00E021F0604138B521F02C
:104930007F01084B0843986000241D4660B20F2198
:104940000134FFF7DDFF2B2CF8D1F02385F823305D
:1049500038BD00BF00ED00E0044A054BD16801F40A
:1049600040710B43D360BFF34F8FFEE700ED00E0D3
:104970000400FA05014B13F8100070474CEB0008D7
:10498000064B5A6822F0030202435A6080005A68BC
:1049900002F00C028242FAD1704700BF00100240C0
:1049A000030A0121C0B201FA00F003F1804303F5CC
:1049B00004331A68104318607047030A0121C0B21B
:1049C00001FA00F003F1804303F504331A6822EA88
:1049D000000018607047030A0222C0B202FA00F019
:1049E00003F1804303F504331B681840704700004F
:1049F000044B05C85968126821F4741102430A4334
:104A00005A6070470010024010B50446FFF7B2FF2D
:104A1000074B53F82020074B03EB4404637803EB68
:104A2000C2039B0003F1844301221A6010BD00BF42
:104A3000800200204CEB000810B50446FFF79AFFF7
:104A4000084B53F82020084B03EB4404637803EB36
:104A5000C2039B0003F1844301221A6000221A6002
:104A600010BD00BF8C0200204CEB000810B5054BB8
:104A7000054C5A6854F8200022EA0002114359609C
:104A800010BD00BF00100240A8EB000810B504469E
:104A9000FFF770FF074B53F82020074B03EB44044C
:104AA000637803EBC2039B0003F1844300221A6086
:104AB00010BD00BF940200204CEB0008024B0722FF
:104AC00058601A60704700BF10E000E008B5044B62
:104AD0001A6801321A60034B1B6803B1984708BD7E
:104AE000A81500201015002011F0010F70B542EA42
:104AF00003030CBF0825002503FA05F5006801F142
:104B0000FF3400F11800C4F3400450F8241014BF1F
:104B10006FF0FF066FF47F463140294340F82410C0
:104B200070BD000010B504460448A0470448A047E3
:104B30000448A0470448A04710BD00BFE802002079
:104B400010030020A0020020C402002010B504467B
:104B50000079FFF759FF2079BDE81040FFF76CBFDF
:104B600003791E2B10D9212B0ED0202B0ED9222BEE
:104B700001D0252B04D102298CBF002001207047D1
:104B80004B1E584258417047012070470020704723
:104B90008B1C40F823200368012203F140430C33AF
:104BA00001EBC3039B0003F184431A60427903794C
:104BB000FAB9B3F11A0253425341072945D8DFE845
:104BC00001F004090909090E0E13002B0CBF2C2358
:104BD000192331E0002B0CBF2E231B232CE0002BCC
:104BE0000CBF2D231A2327E0002B0CBF2B231823E7
:104BF00022E01B3B0C2B28D8DFE803F0071D090B34
:104C00000D0F2711131517191B001C2314E01E2369
:104C100012E0322310E036230EE037230CE0182395
:104C20000AE0192308E01A2306E02B2304E02C23D2
:104C300002E02D2300E01D235909012203F01F0388
:104C400002FA03F3014A42F82130704700E100E024
:104C50000368002203F140430C3301EBC3039B00C4
:104C600003F1844302311A6040F82120704738B5BF
:104C700043790446022B0D463BD0032A39D8DFE89E
:104C800002F002111F2DFFF7E3FF2368013D03F13E
:104C900040432033DB0003EB85039B0003F1844397
:104CA000002225E00368002203F140430C3301EBAE
:104CB000C3039B0003F184431A606022082301E0D0
:104CC00010220023FFF710FF2368013D03F140434A
:104CD0002033DB0003EB85039B0006E003684FF203
:104CE000F1229A6103229A605B0103F1844301225D
:104CF0001A6038BD10B5074B1C68E16822690A408C
:104D0000120606D55B6A23B19847236923F0800316
:104D1000236110BDE802002010B5074B1C68E16854
:104D200022690A40D20706D59B6823B198472369B8
:104D300023F00103236110BDE8020020F8B50C4FF9
:104D40003D68EB682E691E4016F0400403D03C6AB3
:104D50000CB1A0474024B30604D5FB6913B19847B2
:104D600044F020042B6923EA04042C61F8BD00BF41
:104D7000E8020020F8B5134F3E68F36835691D401E
:104D800015F0100403D0BC690CB1A047102429070A
:104D900004D57B6913B1984744F008046A0704D529
:104DA0003B6913B1984744F00404AB0704D5FB6892
:104DB00013B1984744F00204336923EA04043461D0
:104DC000F8BD00BFE8020020F8B51A4E3768FB684E
:104DD0003D691D4015F0400403D0346A0CB1A04772
:104DE0004024EB0604D5B36913B1984744F010048E
:104DF000280704D5736913B1984744F0080469077C
:104E000004D5336913B1984744F00404AA0704D5C4
:104E1000F36813B1984744F00204EB0704D5B36874
:104E200013B1984744F001043B6923EA04043C6150
:104E3000F8BD00BF10030020F8B51A4E3768FB68B4
:104E40003D691D4015F0400403D0346A0CB1A04701
:104E50004024EB0604D5B36913B1984744F010041D
:104E6000280704D5736913B1984744F0080469070B
:104E700004D5336913B1984744F00404AA0704D554
:104E8000F36813B1984744F00204EB0704D5B36804
:104E900013B1984744F001043B6923EA04043C61E0
:104EA000F8BD00BFA0020020F8B51A4E3768FB68B5
:104EB0003D691D4015F0400403D0346A0CB1A04791
:104EC0004024EB0604D5B36913B1984744F01004AD
:104ED000280704D5736913B1984744F0080469079B
:104EE00004D5336913B1984744F00404AA0704D5E4
:104EF000F36813B1984744F00204EB0704D5B36894
:104F000013B1984744F001043B6923EA04043C616F
:104F1000F8BD00BFC402002081880268034689B240
:104F2000505C99881A8989B292B2914217BF9A88C7
:104F30000022013292B2C0B29A807047C28838B55E
:104F4000838892B29BB201329A4204460D461AD02F
:104F5000C288038992B29BB29A4202D183889BB2E3
:104F60008BB14FF0FF30E288236892B29D54E28803
:104F7000238992B29BB29A4217BFE3880023013380
:104F80009BB2E38038BD2046FFF7C6FFEBE770B564
:104F90001E460546084611460422059CFFF766FC9E
:104FA0009DF810100B223046FFF760FC2B6804F0D0
:104FB0000F01DA6804F0300422F4F0521204120CEB
:104FC00042EA4122DA601A6922F440521204120CB9
:104FD00042EA04241C6170BD38B50446154611B977
:104FE00000F096F8014619235943AD006423B1FB44
:104FF000F5F1B1FBF3F21201100903FB10110901E5
:105000003231B1FBF3F303F00F0321681A4392B27C
:105010008A6038BD38B5114DEB68980607D52B6806
:10502000990604D569680E48C9B2FFF787FFEB6897
:105030000A4C1A0611D523681B060ED5094882882A
:10504000C38892B29BB29A4203D0FFF765FF6060BB
:1050500038BDE36823F08003E36038BD00380140C9
:10506000201500201415002038B5114DEB68980666
:1050700007D52B68990604D569680E48C9B2FFF7B1
:105080005DFFEB680A4C1A0611D523681B060ED586
:1050900009488288C38892B29BB29A4203D0FFF734
:1050A0003BFF606038BDE36823F08003E36038BDF8
:1050B000004400402C1500204415002038B5114D47
:1050C000EB68980607D52B68990604D569680E48E1
:1050D000C9B2FFF733FFEB680A4C1A0611D52368F3
:1050E0001B060ED509488288C38892B29BB29A42A9
:1050F00003D0FFF711FF606038BDE36823F0800341
:10510000E36038BD004800403815002050150020ED
:1051100008B590F89002FFF72DFC20B10128034854
:1051200018BF002008BD024808BD00BF00A24A0405
:105130000051250208B5114B01211C6803222046AD
:10514000FFF794FB002301211A469342206834BFE5
:1051500002254FF40035B2F5007F056103F101032C
:1051600003D0002A08BF012101E04FF0FF31B3F561
:10517000007F04BF52180023E7E700BF48EB000898
:1051800008B5034B0BB1AFF3008062B6FFF7D2FF57
:105190000000000003695B68D9889A8889B292B2DE
:1051A000D8888A1A998880B289B2884203D219892C
:1051B00089B201310A4492B282B199881A6889B2DF
:1051C000505C99881A8989B292B2914217BF9A8825
:1051D0000022013292B2C0B29A8070474FF0FF3085
:1051E000704703695B689988DA8889B292B2914204
:1051F00005D09A881B6892B2985CC0B270474FF095
:10520000FF30704703699A689088D18880B289B26C
:105210008842F9D11A6813685B06FCD5704713B54C
:1052200004698DF8071020460DF10701012200F0F6
:105230001BFD0028F7D0012002B010BD03695B6898
:10524000D8889A8880B292B2D988801A9A8889B20E
:1052500092B2914203D21B899BB20133184480B2AF
:105260007047000030B5002545604FF47A758560C1
:10527000024D016105600275437530BDC8EB000841
:1052800003692DE9F74FDB68044699420F469246C1
:105290002CD890F81480174D4FEA081808EB050633
:1052A00090F8159070684FEA091909EB050B717BAE
:1052B00010B10022FFF7DBFC206900F0A1FC337B7A
:1052C0009BF80C2020698DE8080459F8051058F85F
:1052D0000530FFF75CFE206900213A46FFF77CFEAF
:1052E000206903B0BDE8F04F00F0B4BC03B0BDE8E6
:1052F000F08F00BF18E900080022FFF7C1BF0000CF
:10530000044B02791B789A4202D1034B1B68186048
:10531000704700BF6C15002070150020002310B5E9
:105320000446036072B6054B19311970044B1860BE
:105330000448FFF7F7FB62B6204610BD6C1500204D
:105340007015002001530008036800221B685B01F0
:1053500003F184431A607047036801221B685B01F4
:1053600003F184431A607047036801391B6889B2EE
:105370009962704703681B68DA6A92B2914228BF4B
:1053800011465962704738B5054639B9036801229C
:105390001B689962DA62D86A80B238BD48244C43EF
:1053A0004FF6FF71B4FBF1F1013189B204EB510406
:1053B000B4FBF1F4FFF7D8FF2B68A4B21B682046BA
:1053C000DC6238BD0068C9B2FFF751BC0368C9B2DE
:1053D0001B6801F18041D86A013980B234338242BE
:1053E00028BF024643F8212070470068C9B2FFF782
:1053F000CFBB000008B501210848FFF78FFF02214D
:105400000748FFF78BFF03210648FFF787FFBDE83A
:10541000084005480421FFF781BF00BF5C1500204C
:1054200060150020641500206815002070B5054641
:105430000E460024315D29B12A682846126890473B
:105440000134F7E7204670BDF8B505460C46164610
:105450008F18BC4206D02B6828461B6814F8011B25
:105460009847F6E73046F8BD10B502680B469468D9
:1054700009689A68A04710BD08B503681B6898477B
:1054800008BD08B503685B68984708BD38B50D21AD
:105490000546FFF7F1FF0A2104462846FFF7ECFF17
:1054A000204438BD38B50446FFF7DEFF05462046E8
:1054B000FFF7ECFF284438BD38B50446FFF7E1FF9D
:1054C00005462046FFF7E2FF284438BD2DE9F04F9E
:1054D00014461D4691B054EA050381469DF868B014
:1054E00004D13021FFF7C8FF01202EE04FF0000863
:1054F0005FFA8BF600272046294632463B4602F0EB
:10550000F5FC08F101080DF1000AC2440AF8012C6B
:10551000204629463B46324602F0E8FC04460D464A
:1055200054EA0503E4D1002408F1FF381DF80810FF
:105530004846092994BF30313731C9B2FFF79CFF83
:105540000444B8F1000FEFD1204611B0BDE8F08F50
:105550002DE9F041069F064614461D462FB9036803
:10556000D1B21B689847BDE8F081002C75F10003AB
:1055700005DA2D21FFF780FF644265EB4505FFB298
:105580000697304622462B46BDE8F041FFF79EBF06
:1055900007B5CB1700920A46FFF7DAFF03B05DF8B4
:1055A00004FB38B50446FFF7F3FF05462046FFF736
:1055B0006DFF284438BD70B5049921B90368D1B294
:1055C0001B68984770BDC9B20491BDE87040FFF7F1
:1055D0007DBF07B500230092CAB2FFF7ECFF03B00E
:1055E0005DF804FB38B50446FFF7F3FF0546204697
:1055F000FFF74CFF284438BD07B5002300920A4648
:10560000FFF7D9FF03B05DF804FB38B50446FFF798
:10561000F3FF05462046FFF739FF284438BD07B59C
:10562000002300920A46FFF7C6FF03B05DF804FBB3
:1056300010B50446006802F08DFF204610BD10B57D
:105640000446006808B102F085FF00232360A360D0
:10565000636010BD38B504460D460068013103F0A3
:1056600067FB10B184E82100012038BD036810B544
:10567000044613B143688B4207D22046FFF7EAFF86
:1056800020B1A3680BB922681370012010BD70B55A
:105690000E46114604461546FFF7E8FF18B92046A6
:1056A000FFF7CDFF04E0A5602068314603F07EFEE1
:1056B000204670BD38B50023044603604360836014
:1056C0000D4639B1084603F0CFFE29460246204672
:1056D000FFF7DDFF204638BD884210B50B46044673
:1056E00007D0096819B19A68FFF7D1FF01E0FFF709
:1056F000A6FF204610BD10B500230446036043609A
:105700008360FFF7E9FF204610BD38B505460C461B
:1057100041B1084603F0A8FE214602462846FFF79D
:10572000B6FF01E0FFF78BFF284638BD1FB5002309
:105730000446036043608360084601A900F053FA01
:10574000204601A9FFF7E1FF204604B010BD10B5C7
:1057500000238AB00446036043608360084601A9C1
:1057600000F016FA204601A9FFF7CFFF20460AB045
:1057700010BD70B5044685680E4609B9002070BD9D
:1057800062B115442946FFF771FF0028F6D0206862
:10579000A3683146184403F009FEA560012070BDDE
:1057A0000B469A680968FFF7E4BF07B500238DF838
:1057B0000410012201A98DF80530FFF7DAFF03B0CC
:1057C0005DF804FB1FB504460A220846694600F04E
:1057D000DFF9684603F048FE694602462046FFF7B7
:1057E000C8FF04B010BD1FB504460A22084669462A
:1057F00000F0F9F9684603F037FE69460246204694
:10580000FFF7B7FF04B010BD1FB504460A220846D3
:10581000694600F0BFF9684603F026FE6946024675
:105820002046FFF7A6FF04B010BD30B5044689B08E
:10583000084601F0BBFC03AB00930422022300F0F6
:105840005BF9054603F010FE294602462046FFF7A5
:1058500090FF09B030BD0B4610B509689A68044640
:10586000FFF787FF10B92046FFF7E9FE204610BD7D
:1058700038B504460D4641B1084603F0F5FD29460A
:1058800002462046FFF775FF10B92046FFF7D7FE06
:10589000204638BD10B50446FFF794FF10B92046E6
:1058A000FFF7CDFE204610BD10B50446FFF79BFF65
:1058B00010B92046FFF7C3FE204610BD10B50446C0
:1058C000FFF7A2FF10B92046FFF7B9FE204610BD32
:1058D00010B50446FFF7A9FF10B92046FFF7AFFE49
:1058E000204610BD03680A680BB15AB905E022B121
:1058F000896811B11078404270473BB1806830B17F
:10590000187870471846114603F032BC18467047A5
:1059100008B582688B689A4206D1FFF7E3FFD0F1A1
:10592000010038BF002008BD002008BD10B5046884
:105930003CB114F8010B20B105F0CCF804F8010CCF
:10594000F7E710BD006808B102F0B0BD7047FEF780
:1059500011BE08B5FCF72EFEFDF730F8FCE700009D
:10596000222870B53BD8082939D8DFE801F0051A9C
:10597000080B0E11081417000024032213E0002462
:10598000042210E0002422460DE0002409220AE04F
:105990000024082207E001240B2204E001240F2246
:1059A00001E0002407220E4B00011E18317B18581D
:1059B000FEF75CFF706890B1717B24B10122BDE8F5
:1059C0007040FFF754B90368013903F140432033B5
:1059D000DB0003EB81039B0003F184431C6070BD7B
:1059E00018E9000822280ED8084B00011A18127B6B
:1059F000012101FA02F21B581B689B681A420CBF76
:105A00000020012070470020704700BF18E90008FF
:105A1000222810D8084B00011A18127B1B580120AD
:105A200000FA02F2D1F1010138BF0021090102FAA6
:105A300001F11B681961704718E9000810B50446A8
:105A400030B103F055F990FBF4F303FB140010BDE3
:105A500010BD884210B5044604DA081AFFF7EEFFBD
:105A6000204410BD10BD00002DE9F04780460E46D1
:105A70000846002192469946FFF7CAFF0024BAF172
:105A8000000F02D0C4F1070100E0214649FA01F1FC
:105A9000404601F00101FFF7BBFF0B4A3301D71865
:105AA000D35801211D683B7BEA6801FA03F3534098
:105AB000EB603A7BEB68914001345940082CE96077
:105AC000DDD1BDE8F08700BF18E90008054B70B5CF
:105AD0001C6806461D4600F023F82B681B1BB342CA
