:020000040800F2
:100000000050002045370008013A0008053A000872
:10001000093A00080D3A0008113A0008613A000850
:10002000613A0008613A0008613A0008613A000844
:10003000613A0008613A0008613A0008053E00088C
:10004000613A0008613A0008613A00082136000868
:10005000613A0008613A0008613A0008613A000814
:10006000613A0008613A0008613A0008613A000804
:10007000613A0008613A0008613A0008613A0008F4
:10008000613A0008613A0008B93A0008613A00088C
:10009000613A0008613A0008613A0008613A0008D4
:1000A0002D4000085140000875400008AD40000890
:1000B0000141000871410008E1410008613A00086F
:1000C000613A0008613A0008613A0008613A0008A4
:1000D000613A00084D430008A1430008F5430008B9
:1000E000613A000869360008613A000810B5054C0D
:1000F000237833B9044B13B10448AFF300800123D4
:10010000237010BDB811002000000000A8D900081D
:1001100008B5064B1BB106480649AFF300800648F8
:10012000036813B1054B03B1984708BD00000000F8
:10013000A8D90008BC110020B81100200000000060
:10014000012902D11C30C0B27047062984BF01F1D9
:10015000FF31C9B211F0010F14BF1E201F207047DC
:10016000F8B5427887783C2303FB072702780579A6
:10017000467903FB0727013D013EEDB2F6B2044686
:1001800005714671013E731CE38834D04FF4C87288
:10019000B3FBF2F102FB113292B262B16422B3FB03
:1001A000F2F002FB103080B230B113F0030F14BF35
:1001B0000020012000E00120C0B2F1B2FFF7C0FF33
:1001C000284485B2DEE74FF4C872B3FBF2F102FBBC
:1001D000113292B2AAB16422B3FBF2F102FB1132E6
:1001E00092B28AB113F0030F40F26D1208BF4FF4C0
:1001F000B7721544ADB2013B9BB2B3F5FA6FE2D2D0
:1002000005E04FF4B772F4E740F26D12F1E70248EF
:1002100000FB0570F8BD00BF8051010013B50268F6
:1002200002AB03F8011D546A19460122A04702B02F
:1002300010BD07B503680DF107019B6A01229847BD
:1002400001280CBF9DF807004FF0FF3003B05DF8A8
:1002500004FB4FF0FF30704708B503691868036866
:100260009B69984708BD036810B5DB68044698474A
:1002700008B9207F10BD012010BD08B503681B6BB5
:100280009847003018BF012008BD0000064B1A68CF
:1002900001321D2A01D81A60704700221A60034BF0
:1002A00001221A70704700BF9812002080120020AF
:1002B000F0B585B00C460646194901A81746194DF8
:1002C00004F0F4FB01A8102104F0CCFB217901A873
:1002D00004F08AFC294601A804F06AFC617901A8AF
:1002E00004F082FC294601A804F062FCA17901A86F
:1002F00004F07AFC294601A804F05AFCE17901A82F
:1003000004F072FC336801991B6A3A4630469847FC
:10031000044601A804F088FB204605B0F0BD00BFEC
:1003200028EC000885EF000808B5032003F058F911
:10033000BDE808400148024904F082BAEC120020EE
:10034000FFEB000810B5044620680368DB68984797
:1003500010B904F03DFEF7E7206803681B69984771
:100360002C28F1D1012010BD2DE9F04F054687B0B2
:100370008A46104640211E461446129F04F072FB26
:100380008F4BD3F800B0002004F022FE28680368E9
:10039000DB689847002840F3E480286803681B69FD
:1003A0009847011EF2DD2046C9B204F010FC16B9D0
:1003B000109BA3B910E0314603A804F077FB204658
:1003C00003A904F054FC814603A804F02DFBB9F105
:1003D000000FEDD00120EFE0119B9BB910E01099C8
:1003E00003A804F063FB204603A904F040FC814607
:1003F00003A804F019FBB9F1000FEDD00220DBE0F7
:10040000A7B910E0119903A804F050FB204603A9F6
:1004100004F02DFC814603A804F006FBB9F1000F9F
:10042000EED00320C8E0139B0BBB10E0394603A8B5
:1004300004F03CFB204603A904F019FC814603A804
:1004400004F0F2FAB9F1000FEDD00420B4E05D49F8
:1004500003A804F02BFB204603A904F008FC814606
:1004600003A804F0E1FAB9F1000F11D139E01399B2
:1004700003A804F01BFB204603A904F0F8FB814607
:1004800003A804F0D1FAB9F1000FE0D0052093E001
:10049000684629682C2204F09FFA684604F01BFD88
:1004A0000128814615D129680A2203A804F094FA8C
:1004B00003A804F010FD804603A804F0B5FA204616
:1004C000414904F048FB05EB88035B6883F81D9005
:1004D00003E02046694604F066FB684604F0A4FA8F
:1004E00054E73A4903A804F0E1FA204603A904F0CE
:1004F000BEFB804603A804F097FAB8F1000F3FF462
:1005000045AF334903A804F0D1FAA26803A9083A19
:10051000204604F0E8FB804608F1020803A804F036
:1005200083FA42462C21204604F0CFFB4246034684
:10053000214603A804F0FAFB03A804F0CCFC804693
:1005400003A804F071FAB8F1000F3FF41FAF05EBF8
:1005500088035B68204683F81C901B4904F0FBFA73
:1005600014E7174B1B68CBEB03035345FFF40BAFAA
:10057000204604F086FCA368CBB12146684604F00F
:10058000D8FA1449144804F036F92021124804F02E
:100590002DF9694603A804F0CCFA03A90E4804F02B
:1005A00045F903A804F040FA684604F03DFA2046F5
:1005B000054904F0D0FA0020C0B207B0BDE8F08FC2
:1005C000D413002013EC000828EC000820EC0008ED
:1005D00026EC000829EC0008EC120020F0B589B0E8
:1005E0001C4607460E4605A80B49154604F05EFA60
:1005F00000940E9C314601940F9C05AA0294109C15
:100600002B4603943846FFF7AFFE044605A804F0D6
:100610000BFA204609B0F0BD28EC0008F0B50446FE
:1006200085B00E46006821491F46154604F0E3F8E0
:1006300020681F4904F0DFF80A223946206804F0D8
:1006400096F920682C2104F0D1F82068194904F0AB
:10065000D2F82068184904F0CEF83146206804F03A
:10066000CAF82068154904F0C6F80A22294620680D
:1006700004F066F91249206804F0BDF820680368A8
:100680009B699847002004F0A3FC0E4B2046009382
:100690000023019302930C490C4A0D4BFFF79EFF78
:1006A000431E5842584105B0F0BD00BF38EC000869
:1006B0003BEC000846EC0008AAEE00084BEC0008F2
:1006C00026EC00086AEC0008F82401004EEC000853
:1006D0005BEC000870B5044600200E46154604F099
:1006E00077FC0023C4F8A430C4F8A0302069314658
:1006F0002A46237DFFF792FF003018BF01202077A4
:1007000070BD7FB5089C0E460194099C1546009368
:1007100002944FF47A7132462B46FFF75FFF04B024
:1007200070BD08B500210F2004F03CFC40F2DC5005
:1007300004F04EFCBDE808400F20012104F032BC5B
:1007400070B504460D4600680C49164604F053F88F
:100750002946206804F04FF831460A22206804F048
:1007600006F92068064904F046F8206803689B698A
:100770009847BDE87040002004F02ABC38EC00081F
:1007800026EC000813B50446002004F021FC206983
:10079000227D0749FFF7D4FF0023237700930193BD
:1007A00020690449044AFFF7ACFF02B010BD00BF46
:1007B0007CEC000831F10008E8EB0008F0B50F46CA
:1007C00087B00025044626493A46FFF7B9FF009551
:1007D000019520462349244A2B46FFF792FF012822
:1007E0001AD12046FFF7AEFD2046FFF7ABFD21688A
:1007F0000A2203A804F0F0F803A804F06CFB0646F4
:1008000003A804F011F90095019520461749164AEE
:100810002B46FFF776FFFEB904EB87033A462046E6
:1008200013495E68FFF78CFF124B002500931249B5
:10083000124A134B01952046FFF763FF2B460746EC
:100840000095019520460949074AFFF75AFF7B1E8C
:100850005F425F4137772E46304607B0F0BD00BF9C
:1008600087EC000815EC0008E8EB000831F10008FF
:1008700094EC0008C2EC0008A0EC0008ADEC000805
:10088000B7EC00087FB50546002405EB84035E68DD
:1008900046B1737F33B1002373772846E1B2FFF787
:1008A0008DFFF0820134052CEFD128680368DB68E6
:1008B000984748B1002200920192029228460A21EC
:1008C0001346FFF78BFEF0E704B070BDD0F8802030
:1008D000D0F88430D01A48BF8030704738B504460D
:1008E000002004F075FB237F04F120058BB128461E
:1008F000FFF7ECFF68B90A4BA26919688A1AB2F5CA
:10090000FA7F03D91B6801226277A3612069FFF790
:10091000B9FF2846FFF7DAFFE38A184438BD00BF65
:10092000D413002038B504460D460068094903F089
:1009300062FF2946206803F05EFF2068064903F045
:100940005AFF206803689B699847BDE8384000203B
:1009500004F03EBB38EC000826EC00082DE9FF410E
:10096000134B05461F680E469846D8F80030002401
:10097000DB1BB34217D228460E49FFF7D3FF009482
:10098000019402942846C8210B4A0C4BFFF726FE1F
:100990000446012C4FF0640002D104F019FB02E080
:1009A00004F016FBE1E7204604B0BDE8F08100BF8B
:1009B000D413002028EC000831F10008E8EB00080F
:1009C0001F4B2DE9F3411F6805460E469846D8F89F
:1009D0000030DB1BB3422CD2002428461949FFF714
:1009E000A1FF0094019428461749184A2346FFF7AF
:1009F00088FE012804D04FF47A7004F0E9FAE6E7A3
:100A0000134B14498DE81800134A144B2846FFF77E
:100A100078FE009406460194284611490B4A234665
:100A2000FFF76FFE012E06D003D3032E01D802205C
:100A300002E0002000E0304602B0BDE8F08100BFD7
:100A4000D4130020CDEC0008D4EC0008E8EB00083B
:100A5000F3EC0008DDEC0008E3EC0008EBEC000828
:100A600031F100087FB542F210710546FFF776FFBD
:100A700058B3002428462149FFF754FF00940194FD
:100A80000294284642F210711D4A1E4BFFF7A6FD44
:100A900001281AD128461C49FFF744FF009401940D
:100AA0000294284642F21071154A164BFFF796FD44
:100AB00001280AD140F6B83004F08AFA284642F2FA
:100AC0001071FFF74BFF064608B9002612E02846D2
:100AD0000E49FFF727FF0094019428460849094A68
:100AE0002346FFF70EFE0128EFD1284642F210718F
:100AF000FFF766FF304604B070BD00BF00ED000890
:100B000031F10008E8EB000808ED000812ED0008DC
:100B1000F7B5154F154E002405461549FFF702FF9E
:100B2000324623463946009401942846FFF7E9FDF2
:100B300028461049FFF7F6FE324623463946009410
:100B400001942846FFF7DDFD28460B49FFF7EAFE32
:100B5000009401942846394632462346FFF7D1FDDA
:100B6000012003B0F0BD00BF31F10008E8EB000840
:100B700018ED000823ED000833ED00081FB5464BC3
:100B80000F201A68002122F0E06242F000721A6021
:100B900004F0B0F90520002104F0ACF90320002195
:100BA00004F0A8F90420002104F0A4F90520012193
:100BB00004F0F8F90320012104F0F4F904200121E4
:100BC00004F0F0F90F20012104F0ECF933484FF460
:100BD000E13103F02DFD4FF41651314803F028FDAB
:100BE0004FF47A7004F0F4F9FFF79BFD40F6B8304B
:100BF00004F0EEF92B49294803F02CFE2A48FFF7B0
:100C000031FF29482949FFF78DFE00230093019306
:100C1000029325484FF47A71254A264BFFF7DEFCF4
:100C2000012803D01D48244903F00AFE4FF4FA605E
:100C300004F0CEF91C48FFF76BFF4FF47A7004F014
:100C4000C7F91E4A002313701D4A1E4813701E4A1E
:100C5000012113701D4A1370022203F036FD1C4956
:100C6000184803F013FD01210A46164803F031FD30
:100C700014480121174A03F03BFD72B6164802F0F2
:100C8000CFFB164900F13C02134802F0CBFB62B6E1
:100C900005B05DF804FB00BF04000140EC12002029
:100CA0001C13002042ED0008B412002058ED00088B
:100CB00031F10008E8EB000863ED0008B0120020F5
:100CC0009412002084130020CD1200208C120020EA
:100CD00040420F008D020008CC12002029030008BA
:100CE00070B5174986B000240546FFF71BFE009437
:100CF000019428461349144A2346FFF702FD0128B0
:100D00001BD12846FFF71EFB2846FFF71BFB29686F
:100D10002C2203A803F060FE03A804F0DCF886B2DE
:100D200003A803F081FE0094019428460749064A6F
:100D30002346FFF7E6FC304600E0204606B070BDD3
:100D400072ED000877ED0008E8EB000831F10008CB
:100D500070B5164986B000240546FFF7E3FD009400
:100D6000019428461249134A2346FFF7CAFC01287A
:100D700018BF042017D12846FFF7E4FA29680A2291
:100D800003A803F029FE03A804F0A5F8064603A86B
:100D900003F04AFE0094019428460749054A234679
:100DA000FFF7AFFCF0B206B070BD00BF7FED0008EA
:100DB00086ED0008E8EB000831F1000830B5304955
:100DC00085B000240546FFF7ADFD00940194284648
:100DD0002C492D4A2346FFF794FC012801D001201D
:100DE0004BE028462949FFF79DFD274A234628491D
:100DF000009401942846FFF784FC28462549FFF714
:100E000091FD00940194029428462349234A1E4BE5
:100E1000FFF7E4FB012802D0214822492AE01C4ABE
:100E2000194B4FF47A710094019402942846FFF70D
:100E3000D5FB28461C49FFF775FD00940194284610
:100E40001A49114A2346FFF75CFC012802D01448D6
:100E500017490FE028461749FFF764FD00940194F5
:100E600028461549084A2346FFF74BFC0128B6D00F
:100E70000B48124903F0E4FC204605B030BD00BF2A
:100E80007FED000886ED0008E8EB00088FED000814
:100E900031F10008ABED0008084C0100B6ED000888
:100EA000EC120020C0ED0008E0ED0008EDED0008B8
:100EB000FEED000817EE000824EE000835EE0008ED
:100EC0001FB50A490446FFF72DFD00230093019347
:100ED000029320464EF66021054A064BFFF77EFB43
:100EE000431E5842584104B010BD00BF5EEE0008DA
:100EF00031F10008E8EB000870B5144986B0002411
:100F00000546FFF70FFD0094019428461049114A49
:100F10002346FFF7F6FB012818BF632014D1296888
:100F20002C2203A803F058FD03A803F0D4FF0646C3
:100F300003A803F079FD0094019428460649054A68
:100F40002346FFF7DEFB304606B070BD67EE0008B3
:100F50006CEE0008E8EB000831F10008F8B5044633
:100F60000D4600680E4916461F4603F044FC29460C
:100F7000206803F040FC3146206803F03CFC394611
:100F8000206803F033FC2068064903F034FC206835
:100F900003689B699847BDE8F840002004F018B842
:100FA00038EC000826EC00082DE9F04304468FB029
:100FB0000025904689461F46FFF782FF20469B4941
:100FC000FFF7B0FC9A499B4A2B46009501952046B5
:100FD000FFF797FB204698494A462223FFF7BEFFBA
:100FE0000095019520469249924A2B46FFF789FBCE
:100FF000B8F1000F0DD02046904942462223FFF75A
:10100000ADFF00950195204689498A4A2B46FFF796
:1010100078FB6FB120468A493A462223FFF79EFFAC
:1010200000230093019320468149824AFFF769FB20
:10103000804E0025204683494A462223FFF78EFF33
:1010400032462B467A49009501952046FFF759FB19
:1010500020467D49FFF766FC754A33464EF660210F
:101060000095019502952046FFF7B8FA204677498A
:10107000FFF758FC6E4A3346754900950195029575
:101080002046FFF7ABFA20467249FFF74BFC00956C
:1010900001950295204647F23051654A3346FFF7E5
:1010A0009DFA012801D00025BCE020466A49FFF7DF
:1010B00039FC00950195029520464EF660215C4A68
:1010C0003346FFF78BFA0128EDD120466349FFF73D
:1010D00029FC009501952046554932462B46FFF7DD
:1010E00010FB0128DFD120465D49FFF71BFC00956E
:1010F000019520464E4932462B46FFF702FB012858
:10110000D1D120465749FFF70DFC009501952046A7
:10111000474932462B46FFF7F4FA0128C3D152491A
:10112000206803F068FB5149206803F064FB4946DE
:10113000206803F060FB4E49206803F05CFB4146E9
:10114000206803F058FB4A49206803F054FB3946F5
:10115000206803F050FB4749206803F04CFB4649E8
:10116000206803F048FB206803689B69984728467D
:1011700003F02EFF00950195029520464EF6602162
:101180002B4A3346FFF72AFA01288CD120463B49E7
:10119000FFF7C8FB00950195029520464EF66021A9
:1011A000234A3346FFF71AFA01287FF47CAF204622
:1011B0003349FFF7B7FB334905A803F077FC0096E6
:1011C000019502950395204642F2107105AA184B2D
:1011D000FFF7CAF8012813D008A8274903F066FCD6
:1011E0000BA8284903F062FC05A808A90BAA03F084
:1011F000C3FD0BA803F018FC08A803F015FC0EE0D3
:1012000020462149FFF78EFB2B460095019520468D
:1012100007493246FFF775FA431E5D425D4105A856
:1012200003F002FC28460FB0BDE8F0838FED000804
:1012300031F10008E8EB000874EE000887EE0008C2
:101240009BEE0008AEEE0008C0EE0008CBEE0008F2
:10125000084C0100ABED0008D6EE0008DFEE0008F8
:10126000E9EE0008F5EE000838EC000801EF000890
:10127000AAEE000891F1000826EC000809EF00082A
:1012800010EF000828EC00081AEF00082DE9F041E3
:1012900004460E46006812491F469046069D03F01C
:1012A000AAFA3146206803F0A6FA41460A222068CD
:1012B00003F05DFB3946206803F098FA29460A22BC
:1012C000206803F05DFB2068064903F094FA20686B
:1012D00003689B699847BDE8F041002003F078BEA1
:1012E00038EC000826EC0008F0B587B0002504466D
:1012F00000920F4616461C491A462C23FFF7C6FFDC
:101300000095019520461949194A2B46FFF7F9F92E
:10131000012802D04FF0FF3422E0206839460368EC
:1013200032469B689847206803689B6998470095F8
:10133000019520460F490E4A2B46FFF7E2F9012896
:10134000E8D12046FEF7FEFF216803A80A2203F039
:1013500043FB03A803F0BFFD044603A803F064FBAE
:10136000204607B0F0BD00BF37EF000841EF00088E
:10137000E8EB000843EF000870B5044600200E4675
:10138000154603F025FE2069FFF77CFA20693146F7
:101390002A46237DFFF7A8FF70BD000070B5856861
:1013A00006460135284604F00DFF0446002330466A
:1013B00021462A4603F071FC21462A460348FFF7DE
:1013C000DBFF204604F006FF012070BDD81100208D
:1013D0002DE9F04186B00025044600912C232F49C9
:1013E0001646FFF753FF0095019520462C492D4ADC
:1013F0002B46FFF786F901284BD12046FEF7A2FFC6
:101400002046FEF79FFF21682C2203A803F0E4FA90
:1014100003A803F060FD074603A803F005FB04EBF7
:10142000860603A821680A22D6F8048003F0D4FABD
:1014300003A803F050FDA8F8160003A803F0F4FA7F
:10144000BD421ED020680368DB68984710B903F0DE
:10145000BFFDF7E7206803681B69984773685FFA68
:1014600080FED3F8A010D3F8A4004A1C02F07F023B
:10147000824204D0194481F820E0C3F8A02001354D
:10148000DEE700230093019320460749054AFFF752
:1014900038F9284606B0BDE8F08100BF52EF0008D9
:1014A00015EC0008E8EB000831F100082DE9F74FD2
:1014B000044600208946019203F08AFD2069FFF767
:1014C000E1F90025019B9D4245D2019B04F1200BCF
:1014D0005846C5EB0308FFF7F9F9404538BF804689
:1014E000B8F1000F24D04746CA465846FFF7EEF938
:1014F00010B9C1444544E5E7D4F8A430C3F18006EF
:10150000B742B8BF3E468642A8BF06460BEB030172
:1015100050463246009305F035F9009BBF1B03EBA4
:10152000060C0CF07F02C4F8A420B244E1D0DCE742
:101530002069FFF7A7F9E38A6BB1D4F8A420D4F8A7
:10154000A0302069D11A0029D8BF80310139227D0D
:10155000FFF73EFFB6E7284603B0BDE8F08F000076
:1015600013B5002421462246234600940F4803F079
:10157000FDF80F4B0F4A10481A604FF47A728260E0
:101580000E4A446002600122C0F8A440C0F8A040A6
:1015900003610275C48284610477447798600848C7
:1015A000112102B0BDE8104001F02EBF84120020CE
:1015B000B41200201C130020D8110020B0EB00084A
:1015C000CC1200202DE9F04FA1B0924904A803F0FD
:1015D0006DFA904907A803F069FA8F48FFF780FB7E
:1015E0008E4C8F4920608F4803F005F90A228D4800
:1015F000216803F0CEF98C4B1A789846FAB98948DD
:101600008A4903F0FDF88A4B1C681D462A684EF68D
:101610005F23121B9A4200F241827F48FFF798FB3A
:1016200000F0FB00012804D04FF47A7003F0D0FCE6
:10163000ECE788F800007F497A4803F001F97E4C16
:101640002378A1460BBB98F80030F3B17B4975486D
:1016500003F0D6F87A49734803F0CDF86E4878491C
:10166000784A794BFFF7A0FC05466E4845B97749A3
:1016700003F0E6F842F2107003F0AAFC257004E2D1
:10168000734903F0DDF801232370724F3B7863B98F
:101690006148FFF793FB044610B101233B7004E05F
:1016A00060486D4903F0CCF83C700AA8594903F032
:1016B000FDF93B78002B4BD0574D6849594803F052
:1016C000BFF8002428466649FFF72CF900940194DE
:1016D000029428466349644A644BFEF77FFF012861
:1016E00004D016A84B4903F0E1F916E019A82968BF
:1016F0000A2203F071F95E495C4A23460094019482
:101700002846FEF7FEFF19A803F0BBFB16A819A98F
:1017100003F07BF919A803F087F916A90AA803F0CA
:1017200012FA16A803F080F9524919A803F0BEF97D
:101730000AA919A803F069FA4F4903F073FA0146A0
:10174000384803F073F819A803F06EF900233B70D2
:10175000DFF848B19BF800405E46002C40F08181E4
:101760004649304803F04CF845492E4803F043F809
:10177000444B454842491A88FEF7ACFF0546DFF85E
:1017800020A12848CDB9314903F05AF842F210702F
:1017900003F01EFCDAF800308BF8005001330A2BFE
:1017A00040F26E811C48CAF8005088F8005089F851
:1017B0000050FFF785FB3D7064E1174D334903F09E
:1017C0003FF8012328463370CAF80040FFF794FB26
:1017D0002F490746134803F033F83A462D4919A814
:1017E00005F0F4FA19A90F4803F02AF828462A4907
:1017F000FFF798F80094019428461F491B4A234696
:10180000FEF77FFF01284DD013A8024903F04EF9DF
:101810005FE000BF28EC0008B41200209C120020FA
:101820005FEF0008EC1200209412002070EF000817
:10183000D41300201AF10008CD12002087EF000811
:10184000F9EB000836F1000830F1000896EF0008C7
:101850002CF10008B01200209CEF0008AEEF000849
:10186000BEEF0008084C0100C8EF0008E8EB0008D4
:1018700031F10008D1EF000826EC0008DAEF00088B
:10188000F0EB00080C000020D8110020B9EF000890
:10189000F0EF000807F000080FF000088C1200209D
:1018A0009012002016A829680A2203F095F8994999
:1018B000994A2346009401942846FEF722FF16A871
:1018C00003F0DFFA13A816A903F09FF816A803F097
:1018D000ABF813A904A803F036F913A803F0A4F891
:1018E0008E4916A803F0E2F804A916A803F08DF9B2
:1018F00001468B4802F09AFF8A4D16A803F094F82F
:101900008949874802F09CFF002428468749FFF751
:1019100009F800940194284685497F4A2346FEF73A
:10192000F0FE012804D013A8824903F0BFF816E0A6
:1019300016A829680A2203F04FF87649764A23460A
:10194000009401942846FEF7DCFE16A803F099FAED
:1019500013A816A903F059F816A803F065F813A9FF
:1019600007A803F0F0F813A803F05EF8724916A870
:1019700003F09CF807A916A803F047F90146684848
:1019800002F054FF16A803F04FF810A800F00AFC6C
:101990006A4A16A810A900F017FD394616A800F0EB
:1019A000F7FC16A800F0D4FB654A16A810A900F0B1
:1019B0000BFD04A916A800F003FD16A800F0C8FB53
:1019C000604A16A810A900F0FFFC07A916A800F0AD
:1019D000F7FC16A800F0BCFB5B4A16A810A900F0A3
:1019E000F3FC0AA916A800F0EBFC16A800F0B0FB67
:1019F00056494B4802F0FFFE16A810A900F0ECFB78
:101A000016A9474802F030FF16A800F0A1FB10AA63
:101A100013A84F4900F07DFB4E49414802F0EBFE10
:101A200013A93F4802F002FF13A916A803F081F89A
:101A300016A8FFF7B3FC16A802F0F6FF04A803F0FF
:101A400020FA07A803F01DFA0AA803F01AFA4FF4C7
:101A50007A7003F0BDFA13A802F0E6FF10A800F0B8
:101A600077FB3D4F3D483C68FEF7FDFB002800F04A
:101A70000C833B681C1B41F287339C421AD904E358
:101A8000CAF800300AA802F0CFFF07A802F0CCFF86
:101A900004A802F0C9FF21B0BDE8F08F304920480A
:101AA00002F0CEFE42F2107003F092FA002388F8A2
:101AB0000030EAE72948FEF711FF002800F07082A5
:101AC0000DA826490A2202F087FF0DA8194903F044
:101AD000BBF8002840F05E8210A81D490DAA00F056
:101AE00011FB10AA19A81A4900F01AFB1D4919A8E0
:101AF00003F0AAF8044619A802F096FF0848ACB310
:101B0000194902F09DFE10A800F022FB0DA802F07A
:101B10008BFFB7E731F10008E8EB000814F000088C
:101B2000EC120020B412002005F000081AF00008A2
:101B300021F0000828EC00082BF0000868EE0008EF
:101B400034F000081CF0000839F000083DF00008EF
:101B5000D012002050F00008D4130020D81100202B
:101B600096EF00086CF0000876F00008724902F069
:101B700042FE10AA19A8714900F0D2FA19A97048BA
:101B800002F054FE19A802F04FFF10A86D4900F0B2
:101B900053FB002875D06C4B6C4969481C6002F0FF
:101BA0002AFE684A19A810A900F00EFC19A9644879
:101BB00002F05AFE19A800F0CBFA10A9614A19A840
:101BC00000F002FC19A800F0FEFA044619A800F083
:101BD000BFFA2378E578303BC3EB431103EB810375
:101BE0006178A2783039303D01EB810105EBC30308
:101BF00001EB8101303A564803EB810102EB82028E
:101C000001EB4202C28023796279303B303A03EB28
:101C1000830302EB43034371A379E279303B303A0B
:101C200003EB830302EB43030371237A627A303BB5
:101C3000303A03EB830302EB43038370A37AE27A27
:101C4000303B303A03EB830302EB43034370237BC7
:101C5000627B303B303A03EB830302EB43030370B8
:101C6000FEF77EFA01463B4801F0D7FB72B63948D1
:101C700001F0D6FB384900F13C02364801F0D2FBB6
:101C800062B610A8354900F0D7FA002800F0CC80E1
:101C900033492B4802F0AFFD10A9304A19A800F0D3
:101CA00093FB19A800F08FFA2E4D0024286019A884
:101CB00000F04EFA2B681B5D312B07D124B1012CAB
:101CC00016D1042000210AE003200BE0302B0BD1B9
:101CD0001CB1012C0CD1042004E00320012103F0ED
:101CE00061F905E02146FAE715481F4902F0A8FD11
:101CF0000A20013403F06CF9102CDBD11B4D30218C
:101D00002846224604F01AFE032003F035F930B1CC
:101D1000032003F031F9012803D1302300E03123FF
:101D20002B70042003F028F910B3042003F024F9E9
:101D300001281FD130231CE08CF00008D0120020B5
:101D4000EC120020A5F00008D4110020AAF0000831
:101D500014000020CC12002029030008BFF0000866
:101D6000C7F0000810000020DDF00008A0120020DD
:101D700031236B7016A800F015FA4C4A19A816A961
:101D800000F022FB04A919A800F01AFB19A800F022
:101D9000DFF9474A19A816A900F016FB454919A80A
:101DA00000F003FB19A800F0D3F904A9424802F09F
:101DB0003DFD424B4048196802F042FD40493E4813
:101DC00002F019FD19A816A900F006FA19A93A4857
:101DD00002F04AFD19A800F0BBF916AA19A8394962
:101DE00000F097F93849344802F005FD19A9324846
:101DF00002F01CFD1B9D0135284604F0E3F9044662
:101E0000002319A821462A4602F047FF21462A4608
:101E10002E48FFF7B1FA204604F0DCF919A802F0C9
:101E200003FE16A800F094F910A8294900F004FA5E
:101E3000002800F0AC8010A9254A19A800F0C4FAC7
:101E400019A800F0B7F9044619A800F081F910A804
:101E5000204900F0F1F9002800F0998010A91D4AEE
:101E600019A800F0B1FA19A800F0A4F9054619A8BC
:101E700000F06EF9012D0ED1022C09D0FF2C03D0F9
:101E8000012C31D1032004E00320002103F08AF863
:101E90000420002126E03DBB022C21D0FF2C1BD0CA
:101EA000012C21D1032021461CE000BF34F00008A2
:101EB000BFF00008A0120020EC120020100000204B
:101EC000E4F00008D012002050F00008D8110020E3
:101ED000F8F00008FEF000080320012103F062F88A
:101EE0000420012103F05EF813A800F05BF96F4AAB
:101EF00019A813A900F068FA04A919A800F060FA5B
:101F000019A800F025F96A4A19A813A900F05CFA8B
:101F1000214619A800F03CFA19A800F019F9654A01
:101F200019A813A900F050FA294619A800F030FAB0
:101F300019A800F00DF96049604802F05CFC19A88E
:101F400013A900F049F919A95C4802F08DFC19A801
:101F500000F0FEF813AA16A8594900F0DAF859491A
:101F6000564802F048FC16A9544802F05FFC16A936
:101F700019A802F0DEFD19A8FFF710FA19A802F05F
:101F800053FD16A802F050FD13A800F0E1F810A8C8
:101F900000F0DEF80DA802F074FF0DA802F044FD79
:101FA000494B1A78002A3FF45DAD3278002A3FF49D
:101FB00059AD002413A81C7000F0F4F8214610223B
:101FC000424804F0BBFC394A19A813A900F0FCF9F7
:101FD00004A919A800F0F4F919A800F0B9F83C4ACE
:101FE00019A813A900F0F0F9384919A800F0DDF993
:101FF00019A800F0ADF83049304802F0FCFB19A8F0
:1020000013A900F0E9F819A92C4802F02DFC19A831
:1020100000F09EF813AA16A8294900F07AF8294979
:10202000264802F0E8FB254816A902F0FFFB2948E4
:10203000FEF719F948B116A919A802F07AFD19A8F6
:10204000FFF7ACF919A802F0EFFC234C23492368F1
:102050001A480133236002F0CEFB184821680A2297
:1020600002F097FC2368092B08D9327800232360FB
:1020700022B11B4A17481370FEF784FB16A802F022
:10208000D3FC13A800F064F8ECE41248FEF7EBF878
:1020900000287FF4F7AC3378002B3FF4F3AC104BFF
:1020A00018700C48FEF76EFBECE400BF34F000083B
:1020B000F8F00008FEF00008E4F00008EC12002040
:1020C000D012002050F0000880120020A012002042
:1020D000BFF00008D8110020D411002002F1000840
:1020E0008C120020014B0360704700BF40F10008D4
:1020F00010B5034B0446036002F0FAFE204610BD03
:1021000040F1000810B51146044600F0A5F820463D
:1021100010BD10B51146044600F0ACF8204610BDC5
:1021200010B51146044600F0C3F8204610BD00006B
:102130000348044B0449054A036003F01DB800BF7F
:10214000D012002040F10008E5200008080000201F
:1021500038B5064B04460360406820B1A56815B940
:1021600000F0D6FD6560204638BD00BF50F1000884
:1021700010B50446FFF7ECFF204602F0B9FE2046FA
:1021800010BD406838B50D4658B100F0D9FF04467F
:102190002146284602F02FFB0546204601F0E0F8D4
:1021A000284638BD024A02600022426082607047C1
:1021B00050F1000810B50446406801F0B4F808B1C9
:1021C0006368586910BD10B50446406801F0B2F864
:1021D00008B16368186910BDB0B5044600AF48681F
:1021E0000D4601F0B5F820B9124B60602360A06085
:1021F0001CE0686800F0A7FF83000A3323F00703A0
:10220000ADEB030D6B6801469A68684600238B426C
:1022100005DA156A40F8235012680133F7E701F038
:1022200045F8044B606023600023A3602046BD4650
:10223000B0BD00BF50F1000838B5044640680D46F7
:1022400001F086F830B16068294600F084FF003064
:1022500018BF012038BD000010B50446086800F022
:102260006BFF034B606023600023A360204610BD1A
:1022700050F1000830B5496885B0044611B902F044
:1022800015FC11E0084600F05BFF0546294601A851
:1022900002F00CFC284601F063F8204601A902F088
:1022A000B4FB01A802F0C0FB204605B030BD000021
:1022B00038B54D680446002D31D0284601F01FF88E
:1022C00000282CD1284601F021F810B120461749EA
:1022D00027E0284601F021F810B12046144920E0FB
:1022E000284601F020F810B12046124919E028468E
:1022F00001F020F810B120460F4912E0284601F005
:1023000020F810B120460D490BE0284601F020F8D6
:1023100010B120460A4904E020460A4901E00A4972
:10232000204602F0C3FB204638BD00BF60F1000824
:1023300068F100086DF1000874F100087BF10008F5
:1023400081F1000888F100086CF0000838B5456894
:1023500004464160DDB18068A0B100F0F9FF30B102
:10236000A068296A6268BDE8384001F027B8A06813
:1023700000F0E7FF58B1A06829466268BDE8384020
:1023800000F0ECBE2846BDE8384000F0C1BC38BDC6
:1023900010B50446084603F047F800F021FF014657
:1023A0002046BDE81040FFF7D1BF10B504460846EF
:1023B00000F04AFF01462046BDE81040FFF7C6BFC7
:1023C0000968FFF7F2BF000070B5054648680C4683
:1023D000164600F0BDFF28B900F05CFF014620461C
:1023E000FFF7B4FF6068314600F0B5FE18B96068C9
:1023F000314600F0E1FE6368024A68602A60AB6023
:10240000284670BD50F100080448054B054903609B
:10241000054A00234360836002F0AEBED412002060
:1024200050F10008512100080800002010B50022DA
:102430001346815CA1F13004092C01D8303B0AE03D
:10244000A1F14104052C01D8373B04E0A1F161045E
:10245000052C0AD8573B032A0B4402F1010218BF8E
:102460001B01042AE5D1184610BD002010BD2DE93E
:10247000F0470B688A688146551C9E189A5C88460E
:10248000222A1D4440F0CA804C682F460022F91AC7
:10249000A14280F0C3803978222909D05C2905D176
:1024A0000137F91AA14280F0B98001320137EEE715
:1024B000C2F10102B81BD8F8103010449847824688
:1024C000002800F0AB800446BD4280F08B802B7862
:1024D0005C2B03D0237001350134F5E77A1B002A09
:1024E00040F390806B78662B19D00CD82F2B17D027
:1024F00002D8222B14D085E05C2B11D0622B40F047
:10250000818008230CE0722B0ED003D86E2B79D17A
:102510000A2305E0742B09D0752B09D072E00C2337
:102520002370013402235BE00D23F9E70923F7E769
:10253000052A67DDA81CFFF779FFA0F55C43B3F51A
:10254000806F06465ED3A0F55843B3F5806F1CD26A
:10255000AB1DFB1A052B55DDAB795C2B52D1EB790A
:10256000752B4FD105F10800FFF760FFA0F55C4324
:10257000B3F5806F46D2C0F30900C6F3090640EAFE
:10258000862606F580360C2306E07F284FF00603EA
:102590000BD9B0F5006F0BD3B6F5803F0BD3B6F572
:1025A000881F2FD2F021042207E00021012204E03D
:1025B000C021022201E0E0210322501EC0B240B13E
:1025C00006F03F0C6CF07F0C04F800C0B60901382F
:1025D000F4E7012A14BF0E4306F07F062670144468
:1025E0001D4471E7002323701023C9F80C30D8F87C
:1025F0000030C9F810A0FB1A0133C8F808300120D8
:10260000BDE8F087D8F8143050469847D8F8003025
:10261000ED1AC8F808500020BDE8F087002DF5D16C
:10262000F9E710B590B102687AB1416883688B42CE
:1026300002D38B4206D010BDD45C202CF9D80133D4
:102640008360F3E7013B836010BD104610BD61B1AC
:1026500060B183680BB9816005E01A680AB113465E
:10266000FBE719604B60012070470846704738B59A
:10267000044638B1006828B1A568284404F0F2FD8A
:102680002844A06038BD70B5044600283ED00068DC
:1026900000283DD0636813B1A2689A4237D200295E
:1026A00035DBA268561C0E449E4201D8104470BD12
:1026B0002369002B2BD1B6F1804F06D3002EA8BF83
:1026C0006FF0004602DA184670BD7600236A23B127
:1026D000314698470546A0B904E0A36930469847BB
:1026E000054630B92068E36998476560256028464B
:1026F00070BDA2682168013204F044F8E3692068E3
:102700009847A06884E86000284470BD70BD002030
:1027100070BD00002DE9F8430746084611B90020B6
:10272000BDE8F88317B13A4600250DE00321FFF715
:10273000AAFF0028F3D0384904F036FD68E00D2BDD
:102740000DD80C2B06D30135904612F8013B002B17
:10275000F5D10CE0A3F10801022904D8F3E7222BFC
:10276000F1D05C2BEFD01F2B98BF0535ECE7C7EB02
:102770000808A84408F10301FFF785FF0646002872
:10278000CDD04FF02209013086F8009045B946447B
:102790003946424603F0F6FF86F80190B57037E0FF
:1027A000044617F8013B7BB31F2B06D9222B04D01C
:1027B0005C2B02D02370204624E05C23237017F8A2
:1027C000012C601C0C2A12D007D8092A13D00A2A1F
:1027D0000FD0082A12D162230EE0222A05D05C2AEB
:1027E00003D00D2A0AD1722306E062700AE0662344
:1027F00002E06E2300E07423637003E0074904F0F5
:10280000E5FA601D441CCCE7464422227270B37086
:102810000120BDE8F88300BF90F1000893F10008A3
:102820002DE9F8430D4600284CD000293FD084689C
:102830005AB9254B1E680EE0216A00293DD0284672
:1028400004F094FB002838D02468002CF4D131E047
:10285000206A18B92468002CFAD12BE085422CD0CC
:1028600000216B5CF21892F801C0425C0CF0030C82
:10287000B7187F78BCF1010F07F003070CBF03F115
:1028800020099946012F0CBF02F120089046C1454E
:1028900003D10131002BE4D10FE0BCF1010F08BFDF
:1028A0002033012F08BF20329342D3D105E00846E0
:1028B000BDE8F8832046BDE8F883236A002B14BFE7
:1028C00020460020BDE8F8831409002010B5034617
:1028D00028209847044618B10021282204F02EF839
:1028E000204610BD2DE9F0410E468AB0054600286D
:1028F00000F08081002900F07D81047B082C39D014
:1029000007DC022C2BD0042C15D0012C40F0728156
:102910001AE0202C00F08B8007DC102C40F06A813C
:102920000069FFF7F7FE044665E1402C00F0C38024
:10293000802C69D05EE108460521FFF7A4FE00283F
:1029400000F05881A04912E008460621FFF79BFEDF
:10295000002800F04F819D4904F026FC4BE1084619
:102960000521FFF790FE002800F04481984904F00B
:102970001BFC3DE1D0E90645002200232046294604
:1029800002F0B8FD0022002303F01CF803AF30B9B9
:1029900038468D4904F008FC4FF004081FE08D49CB
:1029A00022462B46384604F011FA8B4980466A4687
:1029B000384604F031FA012806D1DDE9000122464B
:1029C0002B4602F0FFFF30B93846844922462B4699
:1029D00004F0FCF98046B8F1190F00F20B81304683
:1029E00008F10101FFF74FFE002800F003810023EA
:1029F000434503D0FA5CC2540133F9E70022C254C4
:102A0000B2681344B360F3E00069002800F0F2807C
:102A100004F028FC441C21463046FFF734FE002811
:102A200000F0E8802969224603F0ACFEE0E084680B
:102A300008460121FFF727FE002800F0DB805B231A
:102A40000370B3680133B360F3680133F3603CB3E0
:102A500020463146FFF746FF002800F0CB80304685
:102A6000FFF705FE2368CBB173693046002B0CBF1E
:102A700001250225691CFFF706FE002800F0BA8038
:102A80002C23037073690BB9431C02E02022831CC2
:102A9000427000221A70B3681D44B5602468D6E7FE
:102AA00030460221FFF7EFFD002800F0A3805D23F0
:102AB0000370447099E04B698468002B0CBF0125BA
:102AC00002250846691CFFF7DEFD002800F0928011
:102AD0007B230370F3680133F36073690BB10A233E
:102AE0004370B3681D44B5607369002C56D083B140
:102AF0003046F168FFF7C7FD00287BD00023F2685D
:102B0000934203D20922C2540133F8E7B3681A444E
:102B1000B260206A3146FFF7FDFD00286AD03046DA
:102B2000FFF7A5FD73693046002B0CBF0125022578
:102B30002946FFF7A8FD00285CD03A23037073698B
:102B40000BB109234370B36820461D44B56031467C
:102B5000FFF7C8FE00284DD03046FFF788FD7569A5
:102B60002368003518BF0125002B18BF01353046FA
:102B7000691CFFF788FD00283CD0236813B12C2383
:102B800003700130736913B10A230370013000230D
:102B90000370B36824681D44B560A5E713B1F168FC
:102BA000013100E002213046FFF76DFD10B373697B
:102BB000BBB10346F268191A013A914210D20922B8
:102BC00003F8012BF6E700BF68F1000899F100084F
:102BD0009FF10008A4F10008ABF10008AFF1000874
:102BE00018467D23037000234370F368013BF360B4
:102BF000012400E0002420460AB0BDE8F08100BFB7
:102C000070B5064668B104F02DFB074B451C1B68E8
:102C100028469847044628B131462A4603F0B2FDBB
:102C200000E070BD204670BD1C000020F8B51446C1
:102C30000646F8B1F1B1EAB123B1D7680D4647F4C1
:102C4000007707E00846FFF7DBFF054690B1E7682D
:102C500027F40077E3689B0504D4206A10B1064B83
:102C60005B6898472562E76030462146BDE8F8403A
:102C7000FFF7EDBC0020F8BD1C000020F0B5234C90
:102C80008BB00D4624220021064601A803F056FE13
:102C900023684FF4807098474FF48072034606957E
:102CA0000AAD01900292274694E8070005E9070063
:102CB00023B3304601A9FFF715FEF8B101A8FFF7CD
:102CC000D6FCA568039925B101980131A847D0B970
:102CD00014E02368481C9847064678B1039A029B83
:102CE00001329A4228BF1A46019903F04BFD039B1B
:102CF000F554019863689847304604E0019808B19C
:102D00007B68984700200BB0F0BD00BF1C0000207E
:102D100070B50446E4B1E3682668DA0503D4A06818
:102D200008B1FFF7F5FFE3680A4D13F4807F03D184
:102D3000206908B16B689847E3689B0503D4206A53
:102D400008B16B68984720466B6898473446E1E7BE
:102D500070BD00BF1C0000202DE9F047074692B06F
:102D60000E46002900F06E810D68002D00F06C8188
:102D70008C68D1F8048004F10409C1450AD82819E7
:102D8000A349042204F09EFA20B90423FB60C6F88C
:102D900008907DE004F1050AC2450AD828199D492A
:102DA000052204F08FFA20B90120F860C6F808A0C7
:102DB0004DE1C1450CD828199749042204F082FA44
:102DC00030B902230120FB607861C6F808903EE12B
:102DD000444580F03B812B5D2919222B04D13846D4
:102DE0003146FFF744FB32E12D2B03D0A3F1300233
:102DF000092A51D800220192C4EB0804A2420DF125
:102E0000080813D08B5C392B07D8302B09D22D2B17
:102E100007D02E2B05D02B2B02E0452B01D0652BA4
:102E200004D108F8023001323F2AE7D112AB1A442C
:102E30004FF0000A404601A902F840AC05F0E0FC62
:102E4000DDF804900446C1450D4623D06EA3D3E9B6
:102E50000023C7E9064502F0D3FD10B16FF000432F
:102E600008E02046294600226C4B02F0BFFD18B155
:102E70004FF000437B6104E02046294602F0D4FD78
:102E800078610823FB60B368C8EB09084344B3606A
:102E90000120DCE05046DAE05B2B50D1F368B3F55B
:102EA0007A7F80F0D3800133F3602B5D5B2B40F0A1
:102EB000CD800134B4603046FFF7B3FBB36872686D
:102EC00093425BD23268D25C5D2A2BD0013B4FF03B
:102ED0000008B36044463069FFF7F8FC054648B384
:102EE00024B1C8F80000C0F8048000E00446B368CC
:102EF00030460133B360FFF794FB28463146FFF7B5
:102F00002BFFD0B13046FFF78CFBB3687268934259
:102F100013D23268D35C2C2B02D05D2B0DD102E092
:102F2000A846D8E70024F368013BF3602023FB6048
:102F3000BC607FE0002C00F0898020467FE07B2B86
:102F400040F08480F368B3F57A7F7FD20133F36079
:102F50002B5D7B2B7AD10134B4603046FFF761FBE7
:102F6000B3687268934209D23268D25C7D2A5AD023
:102F7000013B4FF00008B36045463AE0013BB360C7
:102F800064E0002D3CD0C8F80000C0F80480B368AD
:102F900030460133B360FFF744FB20463146FFF76C
:102FA00066FA00284AD03046FFF73BFB2369726877
:102FB000236200232361B36893423FD23268D25C1C
:102FC0003A2A3BD10133B3603046FFF72AFB204653
:102FD0003146FFF7C1FE002830D03046FFF721FB15
:102FE000B3687268934229D23268D35C2C2B17D114
:102FF000A0463069FFF76AFC04460028C1D11CE0F6
:103000000546C4E7AFF300800000C0FFFFFFDF41CB
:1030100068F1000899F100089FF100080000E0C184
:103020007D2B0BD100E00025F368013BF3604023CA
:10303000FB60BD60B368013329E73DB12846FFF767
:1030400067FE03E0084602E0284600E0002012B0D8
:10305000BDE8F087AFF300802DE9F04389B0044666
:103060000E46914601A800211C2203F067FC2F4B5D
:1030700000271F605F609846002C53D020460194C3
:1030800004F0F0F82A4B0130029093E8070008ABF7
:1030900003E90700FFF71AFC0546002831D0019824
:1030A00078B1039B53B9029B042B09D92149032210
:1030B00004F008F920B90323039301E0384600E047
:1030C00001A8FFF7AEFA01462846FFF745FEA8B172
:1030D000B9F1000F05D17EB1039B019A134433600F
:1030E0000AE001A8FFF79DFA039B029A934205D2DA
:1030F000019AD35C13B9EEE7284614E02846FFF79F
:1031000007FE039B029A934203D30AB1531E00E0C9
:1031100013460EB1E2183260C8F80040C8F8043017
:10312000002000E0204609B0BDE8F083E012002056
:103130001C000020BFF1000800210A46FFF78CBFE9
:103140000021FFF79BBD28B18368002013B1013037
:103150001B68FBE770470122FFF762BB10B5E8B1BF
:10316000BAB1C1B18A4218D00B684C681360546080
:1031700003B15A60536803B11A6083688B424FF001
:10318000000308BF82600B604B600846FFF7C0FD7C
:1031900003E0104610BD084610BD012010BD000020
:1031A00008B5044B1868FFF791FB08B10423C3600E
:1031B00008BD00BF1C00002070B505460E46FFF795
:1031C000EFFF04463146284622460023FFF72EFD36
:1031D000054620461DB9FFF79BFD284670BD70BD12
:1031E000174B70B5044618680D46FFF76FFB06468F
:1031F000F0B10823C360C0E906450FA3D3E900235B
:103200002046294602F0FCFB10B16FF0004308E0B5
:103210002046294600220B4B02F0E8FB18B14FF084
:103220000043736104E02046294602F0FDFB706113
:10323000304670BDAFF300800000C0FFFFFFDF41EC
:103240001C0000200000E0C138B50B4B0546186893
:10325000FFF73CFB044660B11023C3602846FFF72C
:10326000CFFC05462061204625B9FFF751FD2846D1
:1032700038BD38BD38BD00BF1C00002008B5044B68
:103280001868FFF723FB08B12023C36008BD00BF07
:103290001C00002008B5044B1868FFF717FB08B1A5
:1032A0004023C36008BD00BF1C0000202DE9F84387
:1032B000B1F10009804602DA0020BDE8F883002859
:1032C000FAD0FFF7DBFF06460028F5D000273D4681
:1032D0004D4511D258F82500FFF7B6FF044618B93E
:1032E0003046FFF715FDE7E70DB9B06001E0386043
:1032F000476001352746EBE73046BDE8F88320B14B
:10330000007BD0F1010038BF0020704720B1C068B9
:1033100010F0030018BF0120704718B1007B031F95
:1033200058425841704720B1007BB0F10803584221
:103330005841704720B1007BB0F11003584258410A
:10334000704720B1007BB0F12003584258417047CC
:1033500020B1007BB0F14003584258417047000053
:1033600008B5024B5B68984708BD00BF1C000020F1
:10337000F8B506460D461F461446DAB1E1B1D368EA
:103380009B0503D4106A08B1FFF7EAFF2846FFF750
:1033900037FCE368206223F40073E36029463A4671
:1033A0003046FFF73DFA224601463046FFF7D6FE8B
:1033B0000120F8BD1046F8BD0846F8BD0123FFF70F
:1033C000D7BF122938B50546144608460BD0132935
:1033D00010D0112916D100F07DF80CB120460FE075
:1033E00047F6FF700CE000F075F8002CF6D149F6B6
:1033F0003F4005E000F06EF8002CEFD14FF2234083
:1034000000F06CF9284638BD13B50022044601A827
:10341000FFF7D7FF204602B010BD084600F044B9C0
:1034200000F030B910B510460C4600F071F9214695
:103430000320BDE8104000F0A3B80000054B1B6856
:103440001B685B0103F1844394331A68002AFCD0A3
:10345000704700BF28000020054B1B681B685B01FC
:1034600003F184438C331A68002AFCD0704700BFF4
:103470002800002008B5FFF7E1FF054B00221B687C
:103480001B685B0103F18443C3F88C2008BD00BFB7
:103490002800002008B5FFF7D1FF054B01221B686B
:1034A0001B685B0103F18443C3F8902008BD00BF93
:1034B0002800002008B5FFF7C1FF054B00221B685C
:1034C0001B685B0103F18443C3F8902008BD00BF73
:1034D0002800002010B5044600F055FB00F060FB0A
:1034E000204A112C136A23F44073136213460BD045
:1034F00005D8C4B1102C2AD10023136227E0122C66
:1035000011D0132C1AD022E0174A0021116001219A
:1035100042F8081C154A126812F0FF0FFAD01A6A16
:1035200042F4807212E0124A01211160114A1268BD
:10353000002AFBD01A6A42F4007207E00E4A1268B1
:1035400012F0FF0FFAD01A6A42F440721A620B4B63
:1035500001221A60FFF78EFFFFF77EFFBDE81040E3
:10356000FFF76CBF001002400804424204044242CC
:103570008004424284044242440042423C044242AB
:1035800038B5144D04462B6803EB80035960FFF7F0
:1035900055FF032C09D1104A01231360C2F80031F2
:1035A0000E4B4FF400725A6038BD2B6801221B6825
:1035B000944204EBC3034FEA830303F184431A608C
:1035C00003D002D3022C00D038BD044B08221A606D
:1035D00038BD00BF280000204480204200E100E008
:1035E00010B50446FFF72AFF032C0B4B05D10B49FE
:1035F00000220A60C1F8002108E01A680021126860
:1036000004EBC202920002F1844211601B6803EBDA
:1036100084040023636010BD280000204480204201
:10362000F8B5104B1E6835682B686F681F4017F09F
:10363000010403D074680CB1A0470124BA0704D573
:10364000B36813B1984744F002047B0704D5F368CC
:1036500013B1984744F004046B6823EA04046C60D7
:10366000F8BD00BF2800002008B5044B1B681B698B
:103670001BB19847024B01221A6008BD28000020A8
:10368000C482204208B5FFF7F5FEFFF7E5FEFFF71D
:10369000D5FE044B1B681B689869DB699BB243EA43
:1036A000004008BD2800002010B50446FFF7E2FEE8
:1036B000FFF7D2FEFFF7C2FEFFF7ECFE064B220C2F
:1036C0001B68A4B21B689A61DC61FFF7F3FEBDE8DA
:1036D0001040FFF7B3BE00BF2800002010B504461D
:1036E000FFF7C8FEFFF7B8FEFFF7A8FEFFF7D2FE10
:1036F000064B220C1B68A4B21B689A60DC60FFF7C3
:10370000D9FEBDE81040FFF799BE00BF2800002099
:1037100010B50446FFF7AEFEFFF79EFEFFF78EFEE4
:10372000FFF7B8FE064B220C1B68A4B21B681A6296
:103730005C62FFF7BFFEBDE81040FFF77FBE00BF31
:103740002800002001498D4601490847005000200B
:103750005537000808B5124B124A1968914201D03A
:10376000002301E0104B07E01048D4188442F9D23E
:10377000C858D0500433F7E70D4A934203D20022D1
:1037800043F8042BF8E702F0EBFC00200146024668
:1037900001F0A8FB074B0BB102F0D2FCFEE700BF23
:1037A000BCF8000800000020B8110020B81100206B
:1037B000E01300204161000808B50D4B1A680AB9F2
:1037C0000C4A1A601B680C4AD21A824204DB09496F
:1037D0004242591A914206DA02F0ACFC0C23036013
:1037E0004FF0FF3008BD024A18441060184608BD6B
:1037F000E8120020E0130020A83B0128FEE77047F4
:103800000B4B10B5196809220A230A4800F0C6FEBE
:10381000094B022219680948032300F0BFFEBDE8E6
:103820001040074B074819681A221B2300F0B6BE48
:103830004C010020EC120020500100200413002055
:10384000540100201C13002010B5044600F080F93C
:10385000034B20461978BDE8104000F015B900BFB1
:1038600044000020F8B50446056800F00BFB226810
:103870000023510101F184410B6080212960012165
:10388000A9622B61EB606379696113B18B4203D04C
:103890002BE04FF400436B644FF6FF73D3620025B7
:1038A0006E1CF7B22046394600F0F6FAD0B1236814
:1038B00048F6FF7103F1340242F8251018336D10F9
:1038C00017F0010F53F8252014BF6FF0FF016FF4BC
:1038D0007F4101EA020214BF68214FF4D0410A433C
:1038E00043F82520042E3546DAD1216801224B0108
:1038F000490103F1844301F18441C3F880220A6045
:10390000F8BD000038B5274B274C1A68022042F05A
:1039100010021A6000F04AF90025002000F0DCF9DE
:1039200065602368182023F40023236000F0E1F988
:10393000102000F0DEF900F043F8A560102000F040
:10394000CBF9102000F0E3F90028FAD000F039F8A4
:10395000164800F0E9F9182000F0BEF9182000F030
:10396000D6F90028FAD0022000F0A6F900214FF085
:10397000006000F083F90E4800F03CFA00F038F8DF
:103980000C4B188800F0D2F80B4800F0D3F80B4825
:1039900000F064FA00F02EF800F02DF8FFF72FFF8A
:1039A00038BD00BF00200240001002404800002047
:1039B0003F1901004600002049380008653800081A
:1039C000704708B50020014600F0ECF901204FF4E3
:1039D000806100F0E7F90021022000F0E3F92D20DA
:1039E00000F0F0F9BDE808400320002100F0DAB94A
:1039F00000F0E6B8704700F023B9000000000000B6
:103A0000012007E0022005E0032003E0042001E09C
:103A10000520FFE70D4A0121116072B60C4A002112
:103A20001160074902B4084902B486B005498E46C0
:103A3000704700BFAFF30080AFF30080AFF30080AA
:103A400000000061F9FFFFFFB944000814ED00E039
:103A500010E000E0AFF30080AFF30080AFF3008030
:103A6000FEE710B50446007900F06AF92079BDE858
:103A7000104000F07DB903689A6822F4602242F495
:103A80008012114399607047002370B51A461C4696
:103A9000072B4FEA430503DCEE1801FA06F6344320
:103AA0001D4401FA05F501330A2B42EA0502EFD164
:103AB0000368DC601A6170BD38B5124D2A6813685E
:103AC0001C68A10706D5196821F0020119609368E6
:103AD00003B19847620708D52B681A681B691168FB
:103AE00021F00401116003B19847E30708D52B6862
:103AF0001A68DB68116821F00101116003B1984771
:103B000038BD00BF74000020036801225B0103F18F
:103B1000844303F58673191F1A6018680028FCD1C6
:103B200043F8042C0B68002BFCD17047014604209D
:103B300000F038B9044B10B504461868A047034B91
:103B40001868A04710BD00BF74000020700000205E
:103B500010B50446FFF785FF20464FF46021FFF7BC
:103B60008AFF2368012103F1404308335A015B01B6
:103B700002F1844203F18443116520461960BDE8D7
:103B80001040FFF7C1BF08B5142000F0D9F8042099
:103B900000F0D6F8BDE80840042000F0E9B80000C5
:103BA000014B01221A60704720000E42034B1A6835
:103BB00022F0070210431860704700BF0020024047
:103BC00008B5074801F04CFA064801F049FA0648E2
:103BD00001F046FABDE80840044801F041BA00BFD0
:103BE0007800002080000020880000209000002045
:103BF00070B501F00704A4000F25A5400368C808AC
:103C000053F82060092A26EA050514BF164608263F
:103C100006FA04F4082A44EA050443F8204006D1D1
:103C2000012000FA01F1DA6822EA010106E0092A1E
:103C300005D1012000FA01F1DA681143D96070BDA5
:103C400008B5032000F07CF8BDE80840032000F030
:103C50008FB8000000284FEA011105DA064B00F08A
:103C60000F00C9B21954704700F16040C9B200F5A5
:103C7000614080F80013704714ED00E021F06041CE
:103C800038B521F07F01084B0843986000241D4699
:103C900060B20F210134FFF7DDFF2B2CF8D1F023A8
:103CA00085F8233038BD00BF00ED00E0014B13F86C
:103CB00010007047F8F30008064B5A6822F0030220
:103CC00002435A6080005A6802F00C028242FAD124
:103CD000704700BF00100240030A0121C0B201FA80
:103CE00000F003F1804303F504331A6810431860B1
:103CF0007047030A0121C0B201FA00F003F18043CA
:103D000003F504331A6822EA000018607047030ABA
:103D10000222C0B202FA00F003F1804303F504333B
:103D20001B68184070470000044B05C859681268AA
:103D300021F4741102430A435A6070470010024094
:103D400010B50446FFF7B2FF074B53F82020074B8E
:103D500003EB4404637803EBC2039B0003F1844349
:103D600001221A6010BD00BF98000020F8F300087F
:103D700010B50446FFF79AFF084B53F82020084B74
:103D800003EB4404637803EBC2039B0003F1844319
:103D900001221A6000221A6010BD00BFA40000209A
:103DA000F8F3000810B5054B054C5A6854F820008C
:103DB00022EA00021143596010BD00BF001002400A
:103DC00054F4000810B50446FFF770FF074B53F892
:103DD0002020074B03EB4404637803EBC2039B00F2
:103DE00003F1844300221A6010BD00BFAC00002024
:103DF000F8F30008024B072258601A60704700BFB2
:103E000010E000E008B5044B1A6801321A60034B59
:103E10001B6803B1984708BDD41300203413002059
:103E200011F0010F70B542EA03030CBF082500250D
:103E300003FA05F5006801F1FF3400F11800C4F33E
:103E4000400450F8241014BF6FF0FF066FF47F4653
:103E50003140294340F8241070BD000010B50446DD
:103E60000448A0470448A0470448A0470448A04786
:103E700010BD00BF0001002028010020B800002074
:103E8000DC00002010B504460079FFF759FF2079C7
:103E9000BDE81040FFF76CBF03791E2B10D9212B12
:103EA0000ED0202B0ED9222B01D0252B04D1022994
:103EB0008CBF0020012070474B1E5842584170476C
:103EC00001207047002070478B1C40F823200368B6
:103ED000012203F140430C3301EBC3039B0003F1C8
:103EE00084431A6042790379FAB9B3F11A02534252
:103EF0005341072945D8DFE801F004090909090EF3
:103F00000E13002B0CBF2C23192331E0002B0CBF08
:103F10002E231B232CE0002B0CBF2D231A2327E07C
:103F2000002B0CBF2B23182322E01B3B0C2B28D883
:103F3000DFE803F0071D090B0D0F271113151719E3
:103F40001B001C2314E01E2312E0322310E0362352
:103F50000EE037230CE018230AE0192308E01A23A7
:103F600006E02B2304E02C2302E02D2300E01D2398
:103F70005909012203F01F0302FA03F3014A42F830
:103F80002130704700E100E00368002203F1404364
:103F90000C3301EBC3039B0003F1844302311A602D
:103FA00040F82120704738B543790446022B0D466E
:103FB0003BD0032A39D8DFE802F002111F2DFFF7AA
:103FC000E3FF2368013D03F140432033DB0003EBB3
:103FD00085039B0003F18443002225E0036800224F
:103FE00003F140430C3301EBC3039B0003F1844313
:103FF0001A606022082301E010220023FFF710FF5F
:104000002368013D03F140432033DB0003EB8503CC
:104010009B0006E003684FF2F1229A6103229A6046
:104020005B0103F1844301221A6038BD10B5074BD0
:104030001C68E16822690A40120606D55B6A23B152
:104040009847236923F08003236110BD00010020FD
:1040500010B5074B1C68E16822690A40D20706D5F3
:104060009B6823B19847236923F00103236110BDA6
:1040700000010020F8B50C4F3D68EB682E691E402A
:1040800016F0400403D03C6A0CB1A0474024B306AC
:1040900004D5FB6913B1984744F020042B6923EA47
:1040A00004042C61F8BD00BF00010020F8B5134FD7
:1040B0003E68F36835691D4015F0100403D0BC69F3
:1040C0000CB1A0471024290704D57B6913B1984788
:1040D00044F008046A0704D53B6913B1984744F0DB
:1040E0000404AB0704D5FB6813B1984744F00204FD
:1040F000336923EA04043461F8BD00BF00010020E5
:10410000F8B51A4E3768FB683D691D4015F040044C
:1041100003D0346A0CB1A0474024EB0604D5B36940
:1041200013B1984744F01004280704D5736913B1FC
:10413000984744F00804690704D5336913B19847D8
:1041400044F00404AA0704D5F36813B1984744F077
:104150000204EB0704D5B36813B1984744F0010497
:104160003B6923EA04043C61F8BD00BF280100203C
:10417000F8B51A4E3768FB683D691D4015F04004DC
:1041800003D0346A0CB1A0474024EB0604D5B369D0
:1041900013B1984744F01004280704D5736913B18C
:1041A000984744F00804690704D5336913B1984768
:1041B00044F00404AA0704D5F36813B1984744F007
:1041C0000204EB0704D5B36813B1984744F0010427
:1041D0003B6923EA04043C61F8BD00BFB80000203D
:1041E000F8B51A4E3768FB683D691D4015F040046C
:1041F00003D0346A0CB1A0474024EB0604D5B36960
:1042000013B1984744F01004280704D5736913B11B
:10421000984744F00804690704D5336913B19847F7
:1042200044F00404AA0704D5F36813B1984744F096
:104230000204EB0704D5B36813B1984744F00104B6
:104240003B6923EA04043C61F8BD00BFDC000020A8
:1042500081880268034689B2505C99881A8989B2BC
:1042600092B2914217BF9A880022013292B2C0B234
:104270009A807047C28838B5838892B29BB2013267
:104280009A4204460D461AD0C288038992B29BB264
:104290009A4202D183889BB28BB14FF0FF30E28803
:1042A000236892B29D54E288238992B29BB29A42CB
:1042B00017BFE388002301339BB2E38038BD20465B
:1042C000FFF7C6FFEBE770B51E46054608461146E8
:1042D0000422059CFFF78CFC9DF810100B22304641
:1042E000FFF786FC2B6804F00F01DA6804F0300455
:1042F00022F4F0521204120C42EA4122DA601A69E6
:1043000022F440521204120C42EA04241C6170BDD3
:1043100038B50446154611B900F096F80146192340
:104320005943AD006423B1FBF5F1B1FBF3F2120187
:10433000100903FB101109013231B1FBF3F303F053
:104340000F0321681A4392B28A6038BD38B5114D07
:10435000EB68980607D52B68990604D569680E485E
:10436000C9B2FFF787FFEB680A4C1A0611D523681C
:104370001B060ED509488288C38892B29BB29A4226
:1043800003D0FFF765FF606038BDE36823F080036A
:10439000E36038BD0038014044130020381300208A
:1043A00038B5114DEB68980607D52B68990604D5EA
:1043B00069680E48C9B2FFF75DFFEB680A4C1A0640
:1043C00011D523681B060ED509488288C38892B28E
:1043D0009BB29A4203D0FFF73BFF606038BDE368B1
:1043E00023F08003E36038BD0044004050130020F8
:1043F0006813002038B5114DEB68980607D52B6877
:10440000990604D569680E48C9B2FFF733FFEB6817
:104410000A4C1A0611D523681B060ED50948828856
:10442000C38892B29BB29A4203D0FFF711FF60603B
:1044300038BDE36823F08003E36038BD00480040E6
:104440005C1300207413002008B590F89002FFF769
:104450002DFC20B10128034818BF002008BD0248E8
:1044600008BD00BF00A24A040051250208B5114B47
:1044700001211C6803222046FFF7BAFB002301211B
:104480001A469342206834BF02254FF40035B2F536
:10449000007F056103F1010303D0002A08BF012159
:1044A00001E04FF0FF31B3F5007F04BF5218002345
:1044B000E7E700BFF4F3000808B5034B0BB1AFF317
:1044C000008062B6FFF7D2FF0000000003695B685E
:1044D000D9889A8889B292B2D8888A1A998880B283
:1044E00089B2884203D2198989B201310A4492B251
:1044F00082B199881A6889B2505C99881A8989B200
:1045000092B2914217BF9A880022013292B2C0B291
:104510009A8070474FF0FF30704703695B68998855
:10452000DA8889B292B2914205D09A881B6892B219
:10453000985CC0B270474FF0FF30704703699A68CB
:104540009088D18880B289B28842F9D11A681368FC
:104550005B06FCD5704713B504698DF8071020463B
:104560000DF10701012200F0B9FD0028F7D001206C
:1045700002B010BD03695B68D8889A8880B292B295
:10458000D988801A9A8889B292B2914203D21B8943
:104590009BB20133184480B27047000030B500254B
:1045A00045604FF47A758560024D016105600275C2
:1045B000437530BD70F4000803692DE9F74FDB68DF
:1045C000044699420F4692462CD890F81480174D15
:1045D0004FEA081808EB050690F8159070684FEA46
:1045E000091909EB050B717B10B10022FFF7DBFC09
:1045F000206900F03FFD337B9BF80C2020698DE89B
:10460000080459F8051058F80530FFF75CFE2069DA
:1046100000213A46FFF77CFE206903B0BDE8F04F69
:1046200000F052BD03B0BDE8F08F00BFC4F1000838
:104630000022FFF7C1BF0000044B02791B789A42A9
:1046400002D1034B1B681860704700BF9013002015
:1046500094130020002310B50446036072B6054B86
:1046600019311970044B18600448FFF7F7FB62B664
:10467000204610BD901300209413002039460008F6
:10468000036801391B6889B29962704738B50546DD
:1046900039B9036801221B689962DA62D86A80B26C
:1046A00038BD48244C434FF6FF71B4FBF1F10131A2
:1046B00089B204EB5104B4FBF1F4FFF7E1FF2B687E
:1046C000A4B21B682046DC6238BD0068C9B2FFF79F
:1046D0006ABC0368C9B21B6801F18041D86A01391C
:1046E00080B23433824228BF024643F8212070470B
:1046F0000068C9B2FFF7E8BB08B501210848FFF719
:10470000A9FF02210748FFF7A5FF03210648FFF78D
:10471000A1FFBDE8084005480421FFF79BBF00BF8B
:104720008013002084130020881300208C130020A5
:104730002DE9F041002407460E4625463B1919791C
:104740000A22304600F013F92E218046304600F050
:104750004DF801344044032C0544EFD13046F9793B
:104760000A2200F004F92844BDE8F08130B58371D5
:10477000034D9DF80C30056001714271C37130BD6D
:1047800098F40008044B054A1A6000221A715A7105
:104790009A71DA71704700BF9813002098F40008EE
:1047A00070B505460E460024315D29B12A682846B9
:1047B000126890470134F7E7204670BDF8B505460A
:1047C0000C4616468F18BC4206D02B6828461B683C
:1047D00014F8011B9847F6E73046F8BD10B502689B
:1047E0000B46946809689A68A04710BD08B503682D
:1047F0001B68984708BD08B503685B68984708BD03
:10480000FFF7F9BF10B50A6804461268084621464A
:10481000904710BD38B50D210546FFF7E7FF0A2187
:1048200004462846FFF7E2FF204438BD38B5044669
:10483000FFF7D4FF05462046FFF7ECFF284438BDBC
:1048400038B50446FFF7D7FF05462046FFF7E2FFDD
:10485000284438BD38B50446FFF7CDFF054620464D
:10486000FFF7D8FF284438BD38B50446FFF7CAFF24
:1048700005462046FFF7CEFF284438BD2DE9F04F0E
:1048800014461D4691B054EA050381469DF868B070
:1048900004D13021FFF7AAFF01202EE04FF00008DD
:1048A0005FFA8BF600272046294632463B4601F048
:1048B00033F908F101080DF1000AC2440AF8012C8D
:1048C000204629463B46324601F026F904460D466D
:1048D00054EA0503E4D1002408F1FF381DF808105C
:1048E0004846092994BF30313731C9B2FFF77EFFFE
:1048F0000444B8F1000FEFD1204611B0BDE8F08FAD
:104900002DE9F041069F064614461D462FB903685F
:10491000D1B21B689847BDE8F081002C75F1000307
:1049200005DA2D21FFF762FF644265EB4505FFB212
:104930000697304622462B46BDE8F041FFF79EBF62
:1049400007B5CB1700920A46FFF7DAFF03B05DF810
:1049500004FB70B5049921B90368D1B21B6898476C
:1049600070BDC9B20491BDE87040FFF787BF07B5BD
:1049700000230092CAB2FFF7ECFF03B05DF804FB1E
:1049800007B5002300920A46FFF7E3FF03B05DF886
:1049900004FB38B50446FFF7F3FF05462046FFF752
:1049A00039FF284438BD000038B50A4B04461A6860
:1049B0001D46C2602268204613699847002807DA1E
:1049C000E2682B689B1AA2689342F3D34FF0FF3042
:1049D00038BD00BFD413002070B50D460949044608
:1049E000164600F063F82846FFF7DEFF014600296F
:1049F000204605DBB14203D0C9B200F0E8F8F2E787
:104A000070BD00BF28EC000870470022026010B59E
:104A10000C68426004604C68826044608C6884600A
:104A20000A604A608A6010BD10B50446006801F053
:104A3000D1FB204610BD10B50446006808B101F056
:104A4000C9FB00232360A360636010BD38B5044632
:104A50000D460068013101F0BFFF10B184E821006C
:104A6000012038BD036810B5044613B143688B427A
:104A700007D22046FFF7EAFF20B1A3680BB92268EE
:104A80001370012010BD70B50E4611460446154640
:104A9000FFF7E8FF18B92046FFF7CDFF04E0A56057
:104AA0002068314602F080FB204670BD38B50023F7
:104AB00004460360436083600D4639B1084602F046
:104AC000D1FB294602462046FFF7DDFF204638BDD0
:104AD00038B5054600680C4678B1096859B10C4BE9
:104AE0004BB16A68A3689A4205D302F05DFBA368E4
:104AF000AB6000230AE001F06DFB23682B60636864
:104B00006B60A368AB60002323606360A36038BD63
:104B1000094A0008884210B50B46044607D00968C8
:104B200019B19A68FFF7AFFF01E0FFF784FF204655
:104B300010BD10B500230446036043608360FFF797
:104B4000E9FF204610BD884210B5044601D0FFF7AA
:104B5000BFFF204610BD38B505460C4641B108469A
:104B600002F080FB214602462846FFF78CFF01E059
:104B7000FFF761FF284638BD70B5044685680E46CC
:104B800009B9002070BD62B115442946FFF76AFFDC
:104B90000028F6D02068A3683146184402F004FBD0
:104BA000A560012070BD0B469A680968FFF7E4BF55
:104BB00038B505460C46084641B102F053FB214684
:104BC00002462846BDE83840FFF7D6BF38BD07B5D6
:104BD00000238DF80410012201A98DF80530FFF79C
:104BE000CBFF03B05DF804FB13B50A220446084668
:104BF00001A900F033FA01A802F034FB01A9024632
:104C00002046FFF7B9FF02B010BD0B4610B509688A
:104C10009A680446FFF7B0FF10B92046FFF70BFF74
:104C2000204610BD38B504460D4641B1084602F095
:104C300019FB294602462046FFF79EFF10B9204681
:104C4000FFF7F9FE204638BD826808B50B4612B959
:104C500019B9012008BD11B90368187802E000688D
:104C600002F084F9D0F1010038BF002008BD08B57A
:104C700082688B689A420CD3006868B1096851B1A8
:104C8000D31A184402F072F9D0F1010038BF0020A5
:104C900008BD002008BD084608BD38B50C469AB1CD
:104CA00091B181688B4202D30023237038BDC91AA9
:104CB000551E8D4228BF0D4601682A4619442046DC
:104CC00002F05AFB0023635538BD836810B59A4241
:104CD00006D20468A01802F0CFF808B1001B10BD7E
:104CE0004FF0FF3010BDF8B515468A680F46C2B1C7
:104CF0008368B3B19A4214D806689D4228BF03F175
:104D0000FF3530464FF0FF34731998420CD839689C
:104D100002F0B8FC40B1831BAB4298BF1C46013087
:104D2000F2E74FF0FF30F8BD2046F8BD9A422DE97A
:104D3000F04107460D4614461E4601D93446164634
:104D400038460C49FFF7B2FEAB689C420FD29E4238
:104D500028BF1E462B68002213F806809A55296842
:104D600038462144FFF7F7FE2B6803F806803846E3
:104D7000BDE8F08128EC00082DE9F74FD0F808A035
:104D800004460F461646BAF1000F77D0D1F808B0A6
:104D9000BBF1000F72D093680568CBEB0308B8F144
:104DA000000F0DD12846396802F06CFC054600283A
:104DB00064D03168B26801F0E5FCB3681D44F1E7E6
:104DC00002DB0B68D14622E0A9462846396802F08A
:104DD00059FC8246A0B1C5EB0A0B294648465A4603
:104DE000D94401F0CFFC48463168B26801F0CAFCF2
:104DF000B368BD689944A36855444344A360E4E79D
:104E00004846294603B0BDE8F04F02F0CDB9194637
:104E10002846019302F036FC019B18B100EB0B050C
:104E2000C144F4E7D14529D06368994504D92046A7
:104E30004946FFF70BFE08B3A268013A002A1DDBC2
:104E400020463946FFF74FFF051E17DBBA68216879
:104E5000A3682A44114401EB08009A1A01F008FDE6
:104E6000A368226843440021A360D1542068B2683B
:104E70002844316801F086FC6A1EDFE703B0BDE814
:104E8000F08F2DE9F0410668054616B3876807B331
:104E9000B0464446207808F1010801F089F900285D
:104EA000F7D1013F3744387801F082F948B901372A
:104EB0003A1BB442AA6008D93046214601F062FC90
:104EC00003E0A742F3D3013FEDE72A68AB68002176
:104ED000D154BDE8F081006808B101F01DB97047F8
:104EE000FEF710BD08B5FBF749FEFCF76BFBFCE7CE
:104EF00001F070B9222870B53BD8082939D8DFE80D
:104F000001F0051A080B0E110814170000240322E3
:104F100013E00024042210E0002422460DE00024C7
:104F200009220AE00024082207E001240B2204E001
:104F300001240F2201E0002407220E4B00011E185D
:104F4000317B1858FEF754FE706890B1717B24B124
:104F50000122BDE87040FFF726B80368013903F16C
:104F600040432033DB0003EB81039B0003F18443C8
:104F70001C6070BDC4F1000822280ED8084B000147
:104F80001A18127B012101FA02F21B581B689B6858
:104F90001A420CBF0020012070470020704700BF5C
:104FA000C4F10008222810D8084B00011A18127BFF
:104FB0001B58012000FA02F2D1F1010138BF002193
:104FC000090102FA01F11B6819617047C4F1000878
:104FD000054B70B51C6806461D4600F007F82B68A7
:104FE0001B1BB342F9D370BDD41300207047F0B53A
:104FF0008BB059B3931E222B2AD80A2A2AD1002813
:1050000028DA4042012501AB1E4670B1B0FBF2F731
:1050100002FB1704092C3846D8BF303403F10107CE
:10502000C8BF57341C703B46EFE7B342EED01DB10A
:105030002D204A1C087000E00A46B34204D913F838
:10504000010D02F8010BF8E700231370084603E096
:10505000002001E00025D6E70BB0F0BDFFF7C7BF89
:1050600010B504460079FEF76BFE2079BDE81040CC
:10507000FEF77EBE436800227F2110B59A80DA8059
:10508000198100F110011960836804469A80DA8062
:1050900040F2FF121A8100F190021A6090F890021B
:1050A000FEF74EFE94F891325AB2002A08DB012135
:1050B00003F01F0301FA03F30249521141F82230B1
:1050C00010BD00BF00E100E00368DA6842F02C0286
:1050D000DA60DA6842F40052DA607047F0B583684B
:1050E0000546046800209F88DE88BFB2B6B2B7428A
:1050F00004D0E36823F08003E36027E026683606E7
:10510000F7D59042F5D00E5C01306660EBE7DF88A2
:105110009E88BFB2B6B20137B74211F800C01DD0A9
:10512000DF881E89BFB2B6B2B74213D0DF881E68CF
:10513000BFB206F807C0DF881E89BFB2B6B2B74259
:1051400018D0DE880136B6B2DE8001309042AB68FE
:10515000DDD303E09E88B6B2002EE7D19A88DB88C3
:1051600092B29BB29A4200D1F0BDE36843F0800353
:10517000E360F0BD0026E7E703460846194600F065
:10518000CFBF00BF81F0004102E000BF83F00043C9
:1051900030B54FEA41044FEA430594EA050F08BFD2
:1051A00090EA020F1FBF54EA000C55EA020C7FEA96
:1051B000645C7FEA655C00F0E2804FEA5454D4EB13
:1051C0005555B8BF6D420CDD2C4480EA020281EADD
:1051D000030382EA000083EA010180EA020281EA15
:1051E0000303362D88BF30BD11F0004F4FEA013167
:1051F0004FF4801C4CEA113102D0404261EB410176
:1052000013F0004F4FEA03334CEA133302D05242FB
:1052100063EB430394EA050F00F0A780A4F10104B7
:10522000D5F1200E0DDB02FA0EFC22FA05F28018F1
:1052300041F1000103FA0EF2801843FA05F35941D7
:105240000EE0A5F120050EF1200E012A03FA0EFC56
:1052500028BF4CF0020C43FA05F3C01851EBE37180
:1052600001F0004507D54FF0000EDCF1000C7EEB9D
:1052700000006EEB0101B1F5801F1BD3B1F5001FDB
:105280000CD349085FEA30004FEA3C0C04F10104FA
:105290004FEA445212F5800F80F09A80BCF1004F23
:1052A00008BF5FEA500C50F1000041EB045141EAA5
:1052B000050130BD5FEA4C0C404141EB010111F4A6
:1052C000801FA4F10104E9D191F0000F04BF014651
:1052D0000020B1FA81F308BF2033A3F10B03B3F12F
:1052E00020020CDA0C3208DD02F1140CC2F10C02BF
:1052F00001FA0CF021FA02F10CE002F11402D8BF1D
:10530000C2F1200C01FA02F120FA0CFCDCBF41EAE8
:105310000C019040E41AA2BF01EB0451294330BDB7
:105320006FEA04041F3C1CDA0C340EDC04F1140494
:10533000C4F1200220FA04F001FA02F340EA03006B
:1053400021FA04F345EA030130BDC4F10C04C4F1B1
:10535000200220FA02F001FA04F340EA0300294691
:1053600030BD21FA04F0294630BD94F0000F83F4DB
:10537000801306BF81F480110134013D4EE77FEABE
:10538000645C18BF7FEA655C29D094EA050F08BF0A
:1053900090EA020F05D054EA000C04BF19461046EB
:1053A00030BD91EA030F1EBF0021002030BD5FEA2F
:1053B000545C05D14000494128BF41F0004130BD57
:1053C00014F580043CBF01F5801130BD01F00045AB
:1053D00045F0FE4141F470014FF0000030BD7FEA1E
:1053E000645C1ABF194610467FEA655C1CBF0B4619
:1053F000024650EA013406BF52EA033591EA030F30
:1054000041F4002130BD00BF90F0000F04BF002127
:10541000704730B54FF4806404F132044FF000055A
:105420004FF0000150E700BF90F0000F04BF0021D3
:10543000704730B54FF4806404F1320410F0004539
:1054400048BF40424FF000013EE700BF42004FEA34
:10545000E2014FEA31014FEA02701FBF12F07F43B1
:1054600093F07F4F81F06051704792F0000F14BFAE
:1054700093F07F4F704730B54FF4607401F00045F2
:1054800021F0004120E700BF50EA010208BF704749
:1054900030B54FF000050AE050EA010208BF70473E
:1054A00030B511F0004502D5404261EB41014FF4A7
:1054B000806404F132045FEA915C3FF4DCAE4FF0AB
:1054C00003025FEADC0C18BF03325FEADC0C18BF92
:1054D000033202EBDC02C2F1200300FA03FC20FAE3
:1054E00002F001FA03FE40EA0E0021FA02F1144430
:1054F000C1E600BF70B54FF0FF0C4CF4E06C1CEA45
:1055000011541DBF1CEA135594EA0C0F95EA0C0FB9
:1055100000F0DEF82C4481EA030621EA4C5123EA2C
:105520004C5350EA013518BF52EA033541F480115B
:1055300043F4801338D0A0FB02CE4FF00005E1FB0E
:1055400002E506F00042E0FB03E54FF00006E1FB58
:1055500003569CF0000F18BF4EF0010EA4F1FF049B
:10556000B6F5007F64F5407404D25FEA4E0E6D41DB
:1055700046EB060642EAC62141EA55514FEAC520EC
:1055800040EA5E504FEACE2EB4F1FD0C88BFBCF568
:10559000E06F1ED8BEF1004F08BF5FEA500E50F119
:1055A000000041EB045170BD06F0004646EA0101DF
:1055B00040EA020081EA0301B4EB5C04C2BFD4EB11
:1055C0000C0541EA045170BD41F480114FF0000E0A
:1055D000013C00F3AB8014F1360FDEBF002001F078
:1055E000004170BDC4F10004203C35DA0C341BDCF2
:1055F00004F11404C4F1200500FA05F320FA04F0C4
:1056000001FA05F240EA020001F0004221F00041F7
:1056100010EBD37021FA04F642EB06015EEA430E6A
:1056200008BF20EAD37070BDC4F10C04C4F120059A
:1056300000FA04F320FA05F001FA04F240EA02004D
:1056400001F0004110EBD37041F100015EEA430E1E
:1056500008BF20EAD37070BDC4F1200500FA05F23E
:105660004EEA020E20FA04F301FA05F243EA0203BD
:1056700021FA04F001F0004121FA04F220EA0200CC
:1056800000EBD3705EEA430E08BF20EAD37070BD12
:1056900094F0000F0FD101F00046400041EB0101F2
:1056A00011F4801F08BF013CF7D041EA060195F0D4
:1056B000000F18BF704703F00046520043EB03038E
:1056C00013F4801F08BF013DF7D043EA060370477B
:1056D00094EA0C0F0CEA135518BF95EA0C0F0CD086
:1056E00050EA410618BF52EA4306D1D181EA0301CC
:1056F00001F000414FF0000070BD50EA410606BFC6
:105700001046194652EA430619D094EA0C0F02D10A
:1057100050EA013613D195EA0C0F05D152EA03364F
:105720001CBF104619460AD181EA030101F000416D
:1057300041F0FE4141F470014FF0000070BD41F0B6
:10574000FE4141F4780170BD70B54FF0FF0C4CF490
:10575000E06C1CEA11541DBF1CEA135594EA0C0FAF
:1057600095EA0C0F00F0A7F8A4EB050481EA030EFC
:1057700052EA03354FEA013100F088804FEA0333E3
:105780004FF0805545EA131343EA12634FEA0222B1
:1057900045EA111545EA10654FEA00260EF0004172
:1057A0009D4208BF964244F1FD0404F5407402D2C4
:1057B0005B084FEA3202B61A65EB03055B084FEA55
:1057C00032024FF480104FF4002CB6EB020E75EB52
:1057D000030E22BFB61A754640EA0C005B084FEA7A
:1057E0003202B6EB020E75EB030E22BFB61A7546F7
:1057F00040EA5C005B084FEA3202B6EB020E75EB42
:10580000030E22BFB61A754640EA9C005B084FEAB9
:105810003202B6EB020E75EB030E22BFB61A7546C6
:1058200040EADC0055EA060E18D04FEA051545EAB5
:1058300016754FEA06164FEAC30343EA52734FEA5E
:10584000C2025FEA1C1CC0D111F4801F0BD141EAD7
:1058500000014FF000004FF0004CB6E711F4801F3C
:1058600004BF01430020B4F1FD0C88BFBCF5E06F1C
:105870003FF6AFAEB5EB030C04BFB6EB020C5FEA2C
:10588000500C50F1000041EB045170BD0EF0004E81
:105890004EEA113114EB5C04C2BFD4EB0C0541EAB3
:1058A000045170BD41F480114FF0000E013C90E6B0
:1058B00045EA060E8DE60CEA135594EA0C0F08BF74
:1058C00095EA0C0F3FF43BAF94EA0C0F0AD150EA73
:1058D00001347FF434AF95EA0C0F7FF425AF104606
:1058E00019462CE795EA0C0F06D152EA03353FF42E
:1058F000FDAE1046194622E750EA410618BF52EAAB
:1059000043067FF4C5AE50EA41047FF40DAF52EA7E
:1059100043057FF4EBAE12E74FF0FF3C06E000BF1B
:105920004FF0010C02E000BF4FF0010C4DF804CD28
:105930004FEA410C7FEA6C5C4FEA430C18BF7FEAE8
:105940006C5C1BD001B050EA410C0CBF52EA430C16
:1059500091EA030F02BF90EA020F0020704710F196
:10596000000F91EA030F58BF994208BF90422CBF25
:10597000D8176FEAE37040F0010070474FEA410C1E
:105980007FEA6C5C02D150EA013C07D14FEA430C3C
:105990007FEA6C5CD6D152EA033CD3D05DF8040BAD
:1059A000704700BF8446104662468C4619466346DF
:1059B00000E000BF01B5FFF7B7FF002848BF10F1B6
:1059C000000F01BD4DF808EDFFF7F4FF0CBF0120FB
:1059D00000205DF808FB00BF4DF808EDFFF7EAFF77
:1059E00034BF012000205DF808FB00BF4DF808ED32
:1059F000FFF7E0FF94BF012000205DF808FB00BF27
:105A00004DF808EDFFF7CEFF94BF012000205DF8B0
:105A100008FB00BF4DF808EDFFF7C4FF34BF0120BD
:105A200000205DF808FB00BF4FEA410212F50012AA
:105A300015D211D56FF47873B3EB625212D94FEAD5
:105A4000C12343F0004343EA505311F0004F23FABF
:105A500002F018BF404270474FF00000704750EA14
:105A6000013005D111F0004008BF6FF000407047D1
:105A70004FF00000704700BF4FEA4102B2F1E0432F
:105A800024BFB3F5001CDCF1FE5C0DD901F0004C25
:105A90004FEAC0024CEA5070B2F1004F40EB830075
:105AA00008BF20F00100704711F0804F21D113F1A1
:105AB0003872BCBF01F00040704741F480114FEADA
:105AC0005252C2F11802C2F1200C10FA0CF320FA63
:105AD00002F018BF40F001004FEAC1234FEAD32380
