:020000040800F2
:10000000005000201D410008E1410008E5410008C2
:10001000E9410008ED410008F141000841420008B3
:1000200041420008414200084142000841420008A4
:10003000414200084142000841420008BD46000814
:10004000414200084142000841420008F93D0008D1
:100050004142000841420008414200084142000874
:100060004142000841420008414200084142000864
:100070004142000841420008414200084142000854
:100080004142000841420008B942000841420008CC
:100090004142000841420008414200084142000834
:1000A000294900084D49000871490008A94900087C
:1000B000FD4900086D4A0008DD4A00084142000879
:1000C0004142000841420008414200084142000804
:1000D00041420008494C00089D4C0008F14C0008C2
:1000E00041420008413E00084142000810B5054C5D
:1000F000237833B9044B13B10448AFF300800123D4
:10010000237010BD78130020000000009CC0000880
:1001100008B5064B1BB106480649AFF300800648F8
:10012000036813B1054B03B1984708BD00000000F8
:100130009CC000087C130020781300200000000001
:1001400007B5324801F0F5FD002837D1304B314971
:1001500018702E4801F0A5FC28B12C482D4901F05B
:10016000DBFC002848D12C4801F0C4FF20B12A480C
:1001700001F06FFF002844D101238DF8003026489C
:10018000002369468DF801308DF802308DF8033078
:100190008DF8043001F013FF18B12048204904F015
:1001A000FBFF20480021052200F062FF06E010203E
:1001B00005F076F940B11C4800F072FE134801F0DA
:1001C000B8FD0028F3D011E041F2883005F0DCF9E9
:1001D000102005F065F90028EDD1144802F048FE22
:1001E000102005F05DF90028FAD0E4E7084B012261
:1001F0001A7003B05DF804FB0D49084804F0CCFF09
:10020000B1E70C49054804F0C7FFB5E737140020F3
:10021000080000209413002034140020A4140020AF
:1002200058D40008301400201F1400208614002029
:1002300075D4000889D40008F8B5114E0325346838
:10024000104B1A781F46CAB90F4803F051F83268AC
:1002500004F51C5310339A4201D23B7853B1013D4F
:1002600015F0FF053468EBD1BDE8F84007480849B0
:1002700004F092BF074800F013FEE8E7F8BD00BFA6
:10028000881500201D14002086140020A4140020CE
:10029000B8D400081F14002008B5102005F000F99C
:1002A00030BB642005F070F9102005F0F9F8F8B9BA
:1002B00040F6C41005F068F90E490F4804F06CFFD1
:1002C00040F6C41005F060F9142005F0E9F878B99B
:1002D000642005F059F9142005F0E2F840B9074808
:1002E00001F08DFDBDE808400348054904F054BF06
:1002F00008BD00BFD7D40008A41400203214002089
:10030000EBD4000808B51149114804F045FF114924
:100310000F4804F041FF0E4804F0DAFD0E4800F0EB
:10032000D1FE0820002105F0D1F80120002105F0C0
:10033000CDF80121132005F0C9F8012004F0D2F80E
:10034000012004F0E9F804F0D3F8FEE72FD5000807
:10035000A414002041D5000830140020A74B30B56C
:100360001A688DB022F0E06242F000721A60A44870
:1003700000F058FE1820012105F0A8F8A1484FF41C
:10038000165104F01FFEA0484FF4165100F010FF64
:100390004FF416519D4804F015FE03F0F4FF9A48FF
:1003A00000F0E2FE0820002105F000FA00210820FC
:1003B00005F08CF8964801F051FB0121924800F0BD
:1003C000A1FF4FF47A7005F0DFF8924800F068FD65
:1003D0000021132005F07AF80A2005F0D5F88E499F
:1003E000884804F0D9FE8D48222101F0D1FD012872
:1003F000044606D18948232101F0CAFD0428054698
:100400001CD004228548012101F0ABFD84496846D7
:1004100005F011F9694606A805F02EF91022012110
:1004200003A805F044F903A906A805F08BF97D4956
:1004300005F095F90421044609A816E07A496846B2
:1004400005F0F9F8694606A805F016F921461022CC
:1004500003A805F02CF903A906A805F073F9714962
:1004600005F07DF92946044609A8102205F01FF978
:10047000204609A905F066F90146624804F082FEAB
:1004800009A805F096F803A805F093F806A805F06A
:1004900090F8684605F08DF86048242101F076FD5B
:1004A0000728044616D15D48252101F06FFD054659
:1004B00080B95E4906A805F0BEF806A909A805F0AE
:1004C000DBF8214609A805F05CF9564905F047F923
:1004D000294614E000225148072101F05BFD5449F0
:1004E00006A805F0A8F806A909A805F0C5F807218F
:1004F00009A805F046F94B4905F031F9002105F04E
:1005000040F901463F4804F03DFE09A805F051F8C6
:1005100006A805F04EF8FFF7BFFE464801F066FC5E
:10052000014680B9384801F0ADF93748012100F0A3
:1005300045FE0121344800F0E5FE364800F0B0FCED
:100540003C4801F045FC3C4801F0CDFBFFF7F8FDCD
:100550003A49394801F0F6FB0146B0B90A22284869
:1005600000F086FD3649274804F016FE354802F0B3
:100570003BFD4FF47A7005F007F8264800F090FC38
:1005800040F6B83005F000F8E2E72F491D4804F0C6
:1005900003FE1B4801210A2200F06AFD184800F002
:1005A000A7FDB0F52F6F0DD8642004F0EDFF1448BF
:1005B00000F09EFDB0F52F6F04D8244802F0CCF86F
:1005C000FFF7A0FEFFF738FE0D4800F091FD40F662
:1005D000E34398421E4C01D9002309E00123084857
:1005E000237000F085FD40F6B833984201D802230D
:1005F0002370164801F0F6FF0DB030BD0400014035
:1006000030140020A414002031140020D414002041
:10061000361400201F14002045E500083514002082
:1006200094D50008D8DB0008AFD50008E4D5000851
:10063000C9D500083214002037140020941300207C
:1006400048D50008861400207BD5000841140020FE
:100650004014002008B5FFF755FE012902D11C30D7
:10066000C0B27047062984BF01F1FF31C9B211F051
:10067000010F14BF1E201F2070470000444B2DE9BE
:10068000F047B1FBF3F603FB16113C23B1FBF3F289
:1006900003FB1212054602704FF46160B1FBF0F2E9
:1006A00000FB1211B1FBF3F36B704FF4FA63AA7005
:1006B000B6B2EB80EC884FF4C873B4FBF3F803FBDD
:1006C00018481FFA88F8B8F1000F16D06423B4FB5D
:1006D000F3F203FB12439BB2002B53D014F003013F
:1006E00040F26D130CBF4FF4B7721A4696420EDB00
:1006F000002908BF4FF4B77304E0B6F5B77F06DBF7
:100700004FF4B773F61A0134B6B2EC80D2E7002387
:100710006B716423B4FBF3F703FB1747BFB2B8F167
:10072000000F06D03FB114F0030F14BF00200120CA
:1007300002E0012000E0384695F80590C0B2494635
:10074000FFF78BFF864209F1010A15D3B8F1000FBC
:1007500006D03FB114F0030F14BF0020012002E0C7
:10076000012000E03846C0B24946FFF776FF301A54
:1007700086B285F805A0D2E701362E7185F805A06E
:10078000BDE8F087B6F5B67FC1DD40F26D13B9E77D
:1007900080510100F8B5427887783C2303FB072796
:1007A00002780579467903FB0727013D013EEDB24A
:1007B000F6B2044605714671013E731CE38834D0DD
:1007C0004FF4C872B3FBF2F102FB113292B262B184
:1007D0006422B3FBF2F002FB103080B230B113F0B0
:1007E000030F14BF0020012000E00120C0B2F1B2CD
:1007F000FFF733FF284485B2DEE74FF4C872B3FB3E
:10080000F2F102FB113292B2AAB16422B3FBF2F10F
:1008100002FB113292B28AB113F0030F40F26D1253
:1008200008BF4FF4B7721544ADB2013B9BB2B3F5AC
:10083000FA6FE2D205E04FF4B772F4E740F26D12BE
:10084000F1E7024800FB0570F8BD00BF80510100D0
:1008500001F0ACBC38B50D46044601F0C2FC290AD3
:1008600049006039204601F0FE0101F051FD2046AB
:1008700001F027FDE9B2204601F04AFD204601F0D3
:1008800020FD204601F0ADFC2046A12101F040FDF5
:10089000204601F016FD0021204601F060FD0546CE
:1008A000204601F0F1FC204601F0B6FC284638BD98
:1008B00070B50D461646044601F093FC290A49001E
:1008C0006039204601F0FE0101F022FD204601F0D2
:1008D000F8FCE9B2204601F01BFD204601F0F1FCD6
:1008E0003146204601F014FD204601F0EAFC204686
:1008F00001F092FCBDE870400A2004F045BE000003
:10090000D30770B548BF0132002452080231234694
:10091000E5B2954225D211F8025CA5F14106F6B286
:10092000052E02D8104B9B5D05E0303DEDB2092D40
:1009300003D80E4B5B5D1B01DBB211F8015CA5F126
:100940004106F6B2052E01D8074D04E0303DEDB268
:10095000092D02D8054E755D2B4303550231013434
:10096000D6E7002070BD00BF08D60008FED50008FD
:100970002DE9F04F824687B008461446994606F0A6
:10098000D5FAC9EB0406CDE90001304606F0BCFA01
:1009900002460B4600204D4905F07AF802460B4608
:1009A000DDE9000106F09CFD30B94FF0020896FB2E
:1009B000F8F80546013E07E050460021224607B000
:1009C000BDE8F04F08F012B8454536DA304606F07B
:1009D0009BFA02460B4600203C4905F059F8CDE948
:1009E0000201701E06F090FA02460B4600203749BD
:1009F00005F04EF8DDE90223CDE90401DDE900014F
:100A000006F012FC06F080FDDDE904230A2790FBC6
:100A1000F7FB0BFB17004FEA001BDDE9000106F0B6
:100A200003FC06F071FD90FBF7F303FB1700834412
:100A30000AF805B0023E0135C6E709EB48094FF058
:100A4000020BC4EB090994FBFBFB09F10109D84532
:100A500038DA484606F058FA02460B4600201B4991
:100A600005F016F8064609F101000F4606F04CFAAB
:100A700002460B460020154905F00AF832463B466F
:100A800004460D46DDE9000106F0A4FA06F03CFD3F
:100A90000A2690FBF6F707FB16002B4607012246B5
:100AA000DDE9000106F096FA06F02EFD90FBF6F364
:100AB00003FB160007440AF8087009F1020908F15F
:100AC0000108C4E707B0BDE8F08F00BF0000244074
:100AD000124A517893784AF2130243EA012393426F
:100AE00013D008D84AF21102934213D04AF21202EC
:100AF000934211D00DE04AF21402934207D04AF219
:100B00002202934205D1062070470220704703203D
:100B10007047704700207047012070479D130020E8
:100B200010B5074C6018114603F021F8054B1B78EF
:100B30001C4414F8073C1B1A5842584110BD00BF12
:100B40009D1300201E140020044B18795B7943EAA2
:100B50000020431E58425841704700BF9D1300209B
:100B6000044B9B79552B044B0CBF012200221A70B9
:100B7000704700BF9D1300202014002010B5084CC2
:100B8000E379552B01D1012010BD064801F0AFFAE1
:100B9000E3798342F7D0D0F1010038BF002010BDC7
:100BA0009D1300203414002013B50D4B1C7A552CD6
:100BB00001D1012012E00B48694601F03BFA002305
:100BC0001A461DF803108C42F3D019B90132D2B283
:100BD000052AEED00133052BF3D1002002B010BD61
:100BE0009D1300203414002070B505461E46FFF703
:100BF00097FF044698B12846FFF7A6FF044658B170
:100C00002846FFF7ADFF2846FFF7B8FF044648B96E
:100C100046B10C480C4911E00A480C490EE009485D
:100C20000B490BE02846FFF7BFFF044640B99DF88B
:100C300010300BB9012403E00248064904F0ACFA75
:100C4000204670BDA414002060D600080ED600080F
:100C50003CD6000897D60008194B13B51B7863B330
:100C600000230093042117220123FFF7BDFFD8B111
:100C7000144C154804F10C0101F09EFBA17AE37AB3
:100C8000124843EA012101F043FA10B1104B01224E
:100C90001A70237A0F48552B02D102F0E9F803E0CD
:100CA0000721012202F09EFA0B4B06481A78002118
:100CB00002B0BDE8104007F099BE02B010BD00BF01
:100CC000080000209D130020411400203314002050
:100CD0001D140020861400201E140020174B07B599
:100CE0001B7843B30023009304210A220123FFF75A
:100CF0007BFFB8B11248134901F061F930B11249D4
:100D0000124804F049FA1248032108E011490F483B
:100D100004F042FA104B0A220D481A7004210122F5
:100D200002F060FA0D4B0E481A78002103B05DF80E
:100D300004EB07F05BBE03B05DF804FB0800002085
:100D400034140020A5130020CFD60008A4140020DE
:100D500086140020FFD60008871400201E140020EF
:100D60009D13002013B50023009304210F22FFF7E9
:100D70003BFF10B31D4C1E4804F10A0100F091FE28
:100D8000002830D01A4804F10A0100F0C5FE50B323
:100D90001849194804F000FA1848E17901F07AF985
:100DA000A0B11749144804F0F7F9164805210122AB
:100DB00002F018FA0E4800F081FF134B0B481A7826
:100DC000002102B0BDE8104007F010BE0A480F49EC
:100DD00004F0E2F90E4B0A221A700A480621012299
:100DE00002F000FAE9E704480A49F1E79D13002000
:100DF0003714002092D70008A414002034140020D7
:100E00002FD70008861400201E14002061D7000888
:100E100087140020BFD700080D4B07B51B789BB186
:100E200000230093042105220123FFF7DDFE10B10A
:100E3000084802F045F9084B08481A78002103B029
:100E40005DF804EB07F0D2BD03B05DF804FB00BF12
:100E500008000020861400201E1400209D1300208E
:100E600010B50446FFF734FE032817D8DFE800F07A
:100E700002070C112046BDE81040FFF7EDBE2046EA
:100E8000BDE81040FFF72ABF2046BDE81040FFF73D
:100E900069BF2046BDE81040FFF7BEBF10BD00008F
:100EA0002DE9F047404C0027824627700026354642
:100EB0003E4804F029F8002833DD94F800903B48C0
:100EC00009F10103237003F0CBFFDFF8F48008F889
:100ED0000900052004F058FB23781022434413F83E
:100EE000011C334804F0E5F93148324904F039F97E
:100EF00094F90030002B434602DA2B4A002111708E
:100F0000F6B922781A4412F8012C0D2A01D117E003
:100F10000126052DCCD12648274904F03DF90127AB
:100F2000C4E757B12549224804F036F95046FFF787
:100F300097FF00232370BDE8F0872770BDE8F08796
:100F4000042DE5D8DFE805F0030C151E27002278F4
:100F5000134413F8015CB5F10A035D425D4121E0E1
:100F60002278134413F8013C0D2B0CBF02250025F9
:100F700018E02278134413F8013C0A2B0CBF032518
:100F800000250FE02278134413F8013C0D2B0CBF11
:100F90000425002506E02278134413F8013C0A2BAF
:100FA000B9D00025012683E71E140020BC140020C0
:100FB000A414002086E00008ECD7000810D8000830
:100FC0009D13002008B5134B13491A6809680132B4
:100FD0008A421A601DD3114900221A600B78DB4344
:100FE000DBB20B700E49097841B1012911D11820EB
:100FF00003B1114604F06AFA192005E0192003B97B
:10100000012104F063FA18200021BDE8084004F033
:101010005DBA08BD241400202C14002021140020E7
:101020002814002008B51320002104F0BFFB18206D
:10103000002104F0BBFB1920002104F0B7FB1020B5
:10104000022104F0B3FB1420022104F0AFFB0321C2
:10105000072004F0ABFB0A2004F096FA18200021C8
:1010600004F034FABDE808401920002104F02EBA3B
:101070000F4B10B50F4C19700F4B20461A60012111
:10108000022204F007F820460C4903F0E4FF012196
:1010900020460A4604F002F820460121084A04F0DE
:1010A0000CF820460021BDE8104003F0CBBF00BF84
:1010B00028140020481500202C140020A0860100D0
:1010C000C50F000808B5064803F0A6FF1820002148
:1010D00004F0FCF9BDE808401920002104F0F6B93D
:1010E00048150020014803F09FBF00BF48150020AD
:1010F00030B58BB001AD28460021242207F076FCE4
:101100000024072004F0BEF905F0FEFE12A3D3E987
:10111000002305F05FFF0022114B05F05BFF06F096
:101120001BFA28514FF47A70043404F03BFA242C53
:10113000E7D109226B4608AC53F8040F596888427E
:1011400084BF58601960A342F6D1013A12F0FF0241
:10115000F0D105980BB030BDF163CC5D4BC8E93FD1
:1011600000001840AFF3008008B50120002104F012
:101170001DFB0120014604F0A9F90020014604F0FE
:1011800015FB0420002104F011FB0520002104F0D0
:101190000DFB0420002104F099F90520012104F041
:1011A00095F9BDE808400020014604F08FB9000021
:1011B000014803F007BF00BFBC14002008B561B1AF
:1011C0000021052004F082F9962004F0DDF9BDE845
:1011D00008400520012104F079B908BD08B50021B7
:1011E000012004F073F90C4803F0EFFE0220002107
:1011F00004F0DCFA0320002104F0D8FA02200021D8
:1012000004F064F90320002104F060F9BDE808400F
:101210000520002104F05AB9BC14002010B50B7849
:10122000452B12D14B78522B0FD18B78CC78303B99
:1012300003EB8303303C04EB4304E4B221460A226F
:10124000034804F03FF8204610BD0A2010BD00BF3F
:10125000A41400200B784F2B07D148784B2804D1D9
:1012600013704B780120537070470020704730B5E1
:101270000020C4B20D5D01302C2D01D01D55F8E7C2
:10128000601C5525C0B21D55904204D20C5C1C5404
:101290000130C0B2F8E730BDF8B54C78432C08D126
:1012A0008C78532C05D1CC78B4F151056C426C414B
:1012B00000E000240026F5B24F5D01363A2FFAD146
:1012C0000135EDB200279542FEB207F1010706D8BD
:1012D00011F805C0013501F806C0EDB2F3E73CB9DD
:1012E0002046C2B2B2420BD20A5C1A540130F8E76F
:1012F000069A022412681470721ED2B2FFF7B7FF6A
:101300000120F8BD37B5154809B9154900E0154960
:1013100003F027FF642004F037F900240F4803F09E
:10132000F3FD0028E5B208DD062C14D00B4803F0CD
:1013300097FD0DF804000134F0E755B19DF8023037
:101340004F2B08D19DF80300B0F14B035842584190
:1013500002E0284600E0002003B030BDBC140020AD
:101360003BD800083FD8000810B5044601200146CC
:1013700004F0ACF807484FF4165103F023FE204662
:101380000121FFF71BFF20460121BDE81040FFF7B8
:10139000B9BF00BFBC1400202DE9F0419EB005ADDF
:1013A0000C4607460021904628466422039307F026
:1013B0001DFB21462C4803F0D4FE642004F0E4F821
:1013C0000024294803F0A0FD0028E6B207DD642CC4
:1013D00045D0254803F044FD28550134F1E726B9EE
:1013E0002249234803F0D8FE39E09DF814300D2B34
:1013F00035D19DF815300A2B31D11EAB334413F88B
:10140000653C0A2B2BD1023E1EAB334413F8643CDF
:101410000D2B24D10021CCB2A31CDBB2B34201F1CD
:10142000010107DA1EAA134413F8643C144404F8BB
:10143000643CF0E738462946FFF7F0FE0A280CD155
:1014400003AB00933846294622464346FFF724FF64
:1014500000280CBF0320022002E0012000E003204E
:101460001EB0BDE8F08100BFBC14002045D80008C4
:10147000A41400202DE9F041B2B006460D46904676
:101480000021642268461F4607F0B0FA19A800211F
:10149000642207F0ABFA0024E3B2E85C013420B127
:1014A00032AA134403F8640CF6E70146CAB25D1889
:1014B00018F80240EDB232AA01312A4414B102F800
:1014C000644CF3E70D2302F8643C6B1C32A8DBB2DA
:1014D00003442F480A2203F8642C036819A95B68A7
:1014E00098472C48AA1C036819A99B68D2B2984750
:1014F000642004F049F8274803F006FD0028E5B20F
:1015000008DD642C3FD0234803F0AAFC0DF804004A
:101510000134F0E7002D36D09DF800300D2B32D18C
:101520009DF801300A2B2ED132AB2B4413F8C93C65
:101530000A2B28D1023D32AB2B4413F8C83C0D2BAB
:1015400021D100218B1CDBB2AB4201F1010209DA8F
:1015500032A8034413F8C83CC9B2014401F8C83C9E
:101560001146EFE730466946FFF758FE0A2808D1D2
:10157000304669463A46FFF76DFE80F00100C0B282
:1015800002E0012000E0032032B0BDE8F08100BF9E
:10159000A4140020BC140020F7B51E4604461746CC
:1015A0000D4600218DF80710FFF7ACFE02F058FF42
:1015B000204631462FB12A460DF10703FFF7ECFE16
:1015C00003E0089A2B46FFF755FF03282AD8DFE8E7
:1015D00000F011040207002311E01648164901E04B
:1015E0001448164903F0D8FD20460121FFF78AFE72
:1015F00000201CE012490F4803F0CEFD12E09DF8D8
:1016000007205E1CDBB29A420A4809D9E95C102225
:1016100003F04FFE07480B4903F0A3FD3346EEE706
:1016200003F0A4FD20460121FFF76CFE012003B06A
:10163000F0BD00BFA414002059D800086AD80008E3
:1016400073D8000886E000082DE9F0438BB004AFA2
:10165000804600210922384602AE002407F0C6F970
:1016600000944046314601222C4BFFF795FF05467A
:1016700010B92B482B494BE02346F25C07AC092AF2
:1016800001D8303204E0A2F10A01052998BF3732AF
:10169000E2540133082BF0D14FF0000922488DF8B5
:1016A000249000F055FC0246C0B120491C4803F0CC
:1016B00073FD1D48394600F0B1FB50B14B46E15C6B
:1016C000FA5C914217D10133082BF8D1144818491C
:1016D0001EE01849124803F05FFD07E00094404601
:1016E0003146154BFFF758FF054698B121460E4885
:1016F00000F0ECFB0AE01149094803F04DFD0097AA
:101700004046314600220C4BFFF746FF054601E0FC
:1017100003F042FD28460BB0BDE8F0837FD80008F7
:10172000A41400208AD8000832140020AAD8000887
:1017300032D90008C8D80008ECD80008F5D800084D
:101740002DE9F04F89B002AF07F10C0683468946B8
:1017500090461C46304600210A2207F047F9002C2B
:1017600048D1C7F804D05846CDF800803146012250
:101770004B46FFF711FF824608B1214602E03C4884
:101780003C496BE0CCB218F804300131002BF9D1A0
:10179000E11D01F4FC71ADEB010D02A9D8B2A0422C
:1017A00003D2F05CC8540133F8E70B46581AC0B2B4
:1017B000A0420DD213F8010B092801D8303004E003
:1017C000A0F10A05052DF1D8373003F8010CEDE73B
:1017D0000025EBB2A3423FD24B5D013508EB05007B
:1017E00010F8010C9842F4D02148234903F0D4FCAE
:1017F0007B689D466C460023DAB219F8021001336B
:101800000A29F9D1931D03F4FC73ADEB030DA2F18A
:10181000020E02AB0020C1B2551EA94200F1010028
:1018200003DA19F801505D54F5E700223D215A55BD
:10183000584603F80E10CDF800803146FFF7ACFE95
:10184000054628B90A480D4903F0A6FCAA4601E05E
:101850004FF0010AA54605E00548094903F09CFC44
:101860007B689D4650461C37BD46BDE8F08F00BFE3
:10187000A41400205CD9000882D90008D9D9000836
:10188000FBD900087FB50F2204460D4668460021AB
:1018900007F0ACF85848594903F07EFC0A2602F0DC
:1018A000DFFD2046002D5DD1FFF7CEFE54498DF8B7
:1018B0000000544A2B462046FFF742FF52498DF85C
:1018C0000100524A01232046FFF73AFF50498DF8A4
:1018D0000200504A2B462046FFF732FF4E498DF852
:1018E00003004E4A2B462046FFF72AFF4C498DF84D
:1018F00004004C4A01232046FFF722FF4A498DF895
:1019000005004A4A2B462046FFF71AFF48498DF842
:101910000600464A2B462046FFF712FF45498DF840
:101920000700404A01232046FFF70AFF42498DF88D
:101930000800424A2B462046FFF702FF40498DF837
:101940000900404A2B462046FFF7FAFE2F4A8DF841
:101950000A003D4920460123FFF7F2FE0C228DF8D4
:101960000B0007E02F4A2E490123FFF7E9FE012271
:101970008DF8000000231DF80310A9B933491E4853
:1019800003F00AFC2046FFF7EFFC2046FFF726FC99
:1019900002F066FD2046FFF7E7FC4FF4FA6003F023
:1019A000F3FD02F05DFD05E00133D9B29142E2D3CF
:1019B00004B070BD264803F0A7FA002803DD2448D0
:1019C00003F04EFAF6E7013E16F0FF067FF467AF2C
:1019D0001E2231461F48FFF74BFB1F49064803F004
:1019E000DBFB40F6B83003F0CFFD02F039FD04B068
:1019F000BDE8704002F068BDA414002011DA0008B0
:101A000030DA00083CDA000845DA000842DA00085B
:101A10004FDA00085BDA000864DA000870DA0008C0
:101A200079DA000883DA000886DA000890DA00081C
:101A300093DA00089DDA0008A7DA0008B0DA000897
:101A4000B3DA0008BDDA0008C0DA0008CADA000814
:101A5000BC14002030140020E7DA000810B5002183
:101A60000446152003F0A2FE1520012103F02EFDEF
:101A70002046BDE81040FEF7EBBE08B5052003F098
:101A800083FDBDE808401520012103F01FBD08B506
:101A90001520002103F01AFDBDE80840052003F0E1
:101AA00073BD7FB504460E46FFF7F1FF0D25731990
:101AB0002946204613F80D2C0135FEF7F9FE162DA8
:101AC000F5D13046092102F052F806462946204653
:101AD0003246FEF7EDFE0D2529462046FEF7BAFEFA
:101AE00001AB2B440135162D03F80D0CF4D101A8E0
:101AF000092102F03CF8B042204603D0FFF7BDFFB9
:101B0000002007E00B215522FEF7D2FE2046FFF70A
:101B1000B4FF012004B070BD7FB504460E46FFF748
:101B2000B6FF172573192946204613F8172C0135DF
:101B3000FEF7BEFE202DF5D13046092102F017F840
:101B40000646294620463246FEF7B2FE17252946AC
:101B50002046FEF77FFE01AB2B440135202D03F814
:101B6000170CF4D101A8092102F001F8B042204677
:101B700003D0FFF782FF002007E00C215522FEF77B
:101B800097FE2046FFF779FF012004B070BDF0B545
:101B900085B001AD06460F4628460021092206F011
:101BA00025FF0D2421463046FEF754FE2B19013443
:101BB000162C03F80D0CF5D121463046FEF74AFEEF
:101BC00009210446284601F0D2FF844206D10023B1
:101BD000EA5CFA540133092BFAD101E0002000E05D
:101BE000012005B0F0BDF0B585B001AD06460F4649
:101BF00028460021092206F0F9FE17242146304626
:101C0000FEF728FE2B190134202C03F8170CF5D110
:101C100021463046FEF71EFE09210446284601F003
:101C2000A6FF844206D10023EA5CFA540133092B53
:101C3000FAD101E0002000E0012005B0F0BD37B589
:101C40000C461E210546FEF705FE1F218DF80400F7
:101C50002846FEF7FFFD02218DF8050001A801F0DE
:101C600086FF207003B030BD10B50446FFF70FFFAC
:101C7000002220460B21FEF71BFE2046FFF7FDFE4B
:101C800020460B21FEF7E6FDD0F1010038BF002011
:101C900010BD10B50446FFF7FAFE002220460C21C5
:101CA000FEF706FE2046FFF7E8FE20460C21FEF771
:101CB000D1FDD0F1010038BF002010BD10B50446A1
:101CC000FFF7E5FE552220462121FEF7F1FD2046D3
:101CD000FFF7D3FE20462121FEF7BCFDB0F15503EE
:101CE0005842584110BD38B50446102003F0D8FBC7
:101CF00008B1002038BD41F2883003F045FC1020C7
:101D000003F0CEFB05460028F3D12046FFF7BFFEC7
:101D10002A4620462121FEF7CBFD2046FFF7ADFEE7
:101D200020462121FEF796FDD0F1010038BF0020AA
:101D300038BD08B52121FEF78DFDB0F1550358429D
:101D4000584108BD70B504460D46FFF720FF20B18D
:101D500020462946FFF747FF48BB20462946FFF7A4
:101D600016FF48B11549164803F016FA20462946D1
:101D7000BDE87040FFF7D0BE20462946FFF733FF8D
:101D800006460F4846B10F4903F006FA2046294699
:101D9000BDE87040FFF785BE0B4903F0FDF9204612
:101DA000FFF762FF2046FFF774FF304670BD07491A
:101DB000034803F0F1F9012070BD00BF13DB0008F8
:101DC000A41400204ADB000881DB000895DB000832
:101DD00010B50446FFF75BFE204635215522FEF77D
:101DE00067FD2046BDE81040FFF747BE08B5352126
:101DF000FEF730FDB0F155035842584108BD10B50B
:101E00000446FFF744FE204635210022FEF750FD30
:101E10002046BDE81040FFF730BE000073B5054610
:101E20000E46362421462846FEF714FD00AB234417
:101E300001343E2C03F8360CF4D10821684601F039
:101E400096FE3F2104462846FEF704FD84420CD14D
:101E500000231DF80320F2540133082BF9D1044864
:101E6000044903F099F9012000E0002002B070BDA0
:101E7000A4140020C5DB000810B540210446FEF77D
:101E8000E9FC55280CD02046FFF701FE20464021F2
:101E90005522FEF70DFD2046BDE81040FFF7EDBDD1
:101EA00010BD10B540210446FEF7D4FC60B12046B9
:101EB000FFF7EDFD204640210022FEF7F9FC204609
:101EC000BDE81040FFF7D9BD10BD0000F7B50F46C3
:101ED0000446FFF7DCFD3846082101F048FE3625B0
:101EE00006467B192946204613F8362C0135FEF7A5
:101EF000DFFC3E2DF5D120463F213246FEF7D8FCCF
:101F0000362529462046FEF7A5FC00AB2B440135BB
:101F10003E2D03F8360CF4D16846082101F027FE67
:101F2000864207D02046FFF7BCFF2046FFF7A5FDFD
:101F3000002007E00449054803F02EF92046FFF78A
:101F40009BFF012003B0F0BDDADB0008A4140020E1
:101F500008B54021FEF77EFCB0F1550358425841C8
:101F600008BD70B504460E461546FFF790FD2046A5
:101F700032462221FEF79CFC20462A462321FEF70A
:101F800097FC2046BDE87040FFF777BDFEF762BCC6
:101F9000FEF760BC70B504460E461546FFF777FDA8
:101FA000204632462421FEF783FC20462A4625217E
:101FB000FEF77EFC2046BDE87040FFF75EBDF8B539
:101FC00004460E46FFF763FD262573192946204671
:101FD00013F8262C0135FEF76BFC2B2DF5D10521CE
:101FE000304601F0C4FD0746294620463A46FEF732
:101FF0005FFC262520462946FEF72CFC731913F8B2
:10200000263C834214D101352B2DF3D1204629469D
:10201000FEF720FCB842204608D12C215522FEF7BD
:1020200047FC2046FFF729FD0120F8BDFFF725FDFD
:102030000020F8BD70B506460D46262421463046E0
:10204000FEF708FC2B1901342B2C03F8260CF5D1D4
:1020500070BD38B50446FFF71AFD2625002220463C
:102060002946FEF725FC20462946FEF7F3FB0246EB
:1020700020B12046FFF701FD002038BD01352B2D92
:10208000ECD120462C21FEF713FC2046FFF7F5FC8F
:10209000012038BD37B502AD04468DF80710FFF7B3
:1020A000F6FC15F8012D20462D21FEF701FC01213B
:1020B000284601F05CFD2E2102462046FEF7F8FB83
:1020C00020462D21FEF7C6FB9DF8073083422046AF
:1020D00008D12F215522FEF7EBFB2046FFF7CDFC60
:1020E000012002E0FFF7C9FC002003B030BD2D2124
:1020F000FEF7B0BB10B50446FFF7C9FC20462D2102
:102100000022FEF7D5FB2046FFF7B7FC10BD00000C
:102110004A1F4AF6BB039A4270B504460D4628D8BA
:102120003221FEF797FB332106462046FEF792FB4D
:1021300040EA0620A84204D10F49104803F02CF8C9
:1021400015E02046FFF7A3FC20463221C5F3072205
:10215000FEF7AEFB20463321EAB2FEF7A9FB20468C
:1021600034215522FEF7A4FB2046FFF786FC012010
:1021700070BD002070BD00BFEFDB0008A41400207C
:1021800038B532210546FEF765FB33210446284663
:10219000FEF760FB40EA042038BD08B53421FEF7A5
:1021A00059FBB0F155035842584108BD08B51620F7
:1021B000002103F0FBFA1720002103F0F7FA1620A4
:1021C000012103F083F9BDE808401720012103F045
:1021D0007DB91720002103F0E9BA1720042103F08C
:1021E000E5BA08B5FFF7F5FF1720012103F06EF9F6
:1021F0000121162003F06AF9052003F0D3F900212C
:10220000172003F063F9062003F0CCF9BDE808407D
:102210001620002103F05AB908B5FFF7DAFF16209F
:10222000002103F053F91720002103F04FF9012199
:10223000162003F04BF9062003F0B4F91720012112
:1022400003F044F9BDE80840062003F0ABB910B52F
:1022500000210446162003F039F92046FFF7B9FFA4
:102260000021172003F032F9022003F09BF901212D
:10227000162003F02BF9052003F094F9BDE8104077
:102280001620002103F022B910B5002104461620C3
:1022900003F01CF92046FFF79CFF0121172003F0F3
:1022A00015F9022003F07EF90121162003F00EF942
:1022B000052003F077F9BDE810401620002103F057
:1022C00005B970B50646FFF788FF0121172003F016
:1022D000FDF8012003F066F91620012103F0F6F85D
:1022E000012003F05FF9FB25172003F0D9F804461D
:1022F00040B1013D15F0FF05F6D13046FFF78CFFE8
:10230000012070BD1620214603F0E0F8204670BD84
:1023100038B50C46FFF75DFF1620002103F0D6F814
:10232000082524F07F0303F0FF01172003B10121EA
:1023300003F0CCF80121162003F0C8F8022003F0C6
:1023400031F91620002103F0C1F8013D022064009C
:1023500003F028F915F0FF05E4B2E2D138BDF8B575
:1023600005460F46FFF739FF0826002400211620F6
:1023700003F0ACF8022003F015F91620012103F058
:10238000A5F864001720E4B203F08AF808B101341C
:10239000E4B20120013E03F005F916F0FF06E5D195
:1023A000284617B9FFF770FF01E0FFF750FF2046FE
:1023B000F8BD032001F000BD70B55E480D460978F8
:1023C00000F011FD697806465A4800F00CFD06EB56
:1023D0008606594C06EB860600EB8600E080A9785D
:1023E000544800F000FD6071E978524800F0FBFCB1
:1023F000207129794F4800F0F6FC6979A0704D48AA
:1024000000F0F1FCA97960704A4800F0ECFC4B49FF
:1024100020704B4802F0A5FEE1880A22484802F0ED
:1024200030FF4849464802F09CFE61790A22444840
:1024300002F048FF4449424802F093FE21790A2203
:102440003F4802F03FFF41493D4802F08AFEA17833
:102450000A223B4802F036FF3D49394802F081FE2E
:1024600061780A22364802F02DFF3A49344802F0DA
:1024700078FE0A222178324802F024FF01F090FF12
:10248000642003F081F82046FEF784F901463248C3
:1024900001F0B0FB642003F077F801F087FF2E48CD
:1024A00001F0ABFB01462046FEF7E8F8E188642323
:1024B000B1FBF3F1C9B21F4800F08CFC2870E28830
:1024C0004FF47A73B2FBF3F103FB11211948C9B23F
:1024D00000F080FC68706179164800F07BFCA87001
:1024E0002179144800F076FCA178E870114800F0DA
:1024F00071FC617828710F4800F06CFC21786871DC
:102500000C4800F067FC0024A871295D10220C48DB
:1025100002F0CFFE01340A48104902F022FE072CD7
:10252000F3D1074802F022FEBDE8704004480C4990
:1025300002F032BE85140020381400200EDC0008A2
:10254000A414002015DC00081DDC000823DC0008B2
:102550002ADC000834DC00084214002086E0000871
:102560003EDC000870B51C480D4601F046FB1B4CD4
:1025700001462046FEF782F8E188194E6423B1FB3C
:10258000F3F1C9B2304600F025FC2870E2884FF420
:102590007A73B2FBF3F103FB11213046C9B200F0AC
:1025A00019FC68706179304600F014FCA87021793C
:1025B000304600F00FFCA178E870304600F00AFCCD
:1025C00061782871304600F005FC2178687130464A
:1025D00000F000FCA87170BD4214002038140020E7
:1025E0008514002070B54C4886B0FEF7D3F8044639
:1025F00001F0D6FE0A2002F0C7FF2146474801F04D
:10260000F9FA464801F0F9FA05464548FFF7C5FDD5
:10261000444E002859D04248FFF7B2FD4AF6B103B4
:10262000A0F10F029A42044619D93F49684603F0C7
:1026300002F8694603A803F01FF8B42103A803F0C9
:10264000AAF83A4903F08BF80146394802F09AFD9E
:1026500003A802F0AEFF684602F0ABFFB424337863
:10266000012B0BD1B4F5966F03D925446846314947
:1026700015E005F5966503A82F4938E0022B0BD12C
:10268000B4F5166F03D9254468462C4907E005F5D3
:10269000166503A82A492AE02A492544684602F01B
:1026A000CAFF694603A802F0E7FF214603A803F02A
:1026B00072F81E4903F053F801461D4802F062FD0E
:1026C00003A802F076FF684618E03378012B04D1A6
:1026D00005F5966503A81C4909E0022B04D105F510
:1026E000166503A8194902E01949B43503A802F098
:1026F000A2FF0F4803A902F045FD03A802F059FF0D
:1027000014492A46054801F07AFA0A2002F03CFFF3
:1027100001F04CFE06B070BD3814002042140020B9
:10272000331400204014002061DC000867DD00083D
:10273000A4140020D5DC00081EDD000869DD0008B7
:10274000BBDD00080FDE00085BDE0008D0DE0008FD
:102750004EDF0008B323000830B5154885B0FEF7FA
:1027600019F8144C054601F01BFE0A2002F00CFF7C
:102770002946204601F03EFA204601F03EFA0E4975
:10278000054601A802F057FF01A90C4802F0FAFC27
:1027900001A802F00EFF0A4905F56162204601F02A
:1027A0002EFA0A2002F0F0FE01F000FE05B030BD66
:1027B0003814002042140020C5DF0008A4140020B3
:1027C000B32300080148112101F00BBA4214002084
:1027D00070470120704701207047000010B5FF23AB
:1027E00001441A46884208D010F8014B5440044A6C
:1027F000125D5A40034B1B5DF4E743EA022010BD13
:10280000090000200B01002070B5094D094C064657
:1028100022782978084801F097F82878012102F0F9
:1028200055FE2078012102F051FE304670BD00BFF8
:10283000090100200A0100207414002010B5064C84
:10284000204601F014F9204601F01DF9D0F10100F5
:1028500038BF002010BD00BF7414002010B54A21FD
:1028600004460548FFF7EAFF28B1236820461B68A5
:1028700001219847012010BD8414002070B5094C37
:10288000154620461E4601F0F2F82946204601F082
:10289000FFF82046314601F0FBF82046BDE87040C5
:1028A00001F0F1B874140020F8B5134814461E4620
:1028B0000F469DF8185001F0DAF821460E4801F055
:1028C000E7F80D4801F0DFF80B4CA5B12A46204689
:1028D000394601F0E1F80022237A551C33B106484D
:1028E000D7B201F0E7F82A46F055F5E70248BDE80F
:1028F000F84001F0C8B8F8BD74140020F0B51C46CB
:1029000085B0012300930DF10F03154607460E46CF
:10291000FFF7CAFF9DF80F309DF8282023EA040333
:1029200014402343384631462A468DF80F30FFF7CE
:10293000A5FF05B0F0BD000013B5002471B1012260
:1029400013460B484A210094FFF7D8FF4A21009410
:10295000074802224023FFF7D1FF8021009104485D
:102960004A2102228023FFF7C9FF02B010BD00BF39
:102970008414002008B51E220F481F2100F0E4FF38
:1029800038210D4801F073F806210B4801F080F85A
:10299000094801F078F84FF4FA7002F0F5FD0748A5
:1029A000FFF75CFF10B10648064901E004480649FC
:1029B000BDE8084002F0F0BB94140020441400204D
:1029C000A414002050E0000869E0000800000000A6
:1029D000F0B5334C85B00D461646FFF7CBFF3921D5
:1029E0000122204601F058F8012002F0CDFD277A9F
:1029F0001FB1204601F05EF8074638210122284821
:102A000001F04AF8012002F0BFFD207A10B12448FD
:102A100001F050F840EA072004F066FA1EA3D3E95B
:102A2000002304F0D7FA04F097FD1E4930601E48D9
:102A300002F097FB31680A221B4802F056FC022381
:102A400000931A4803AB4A210322FFF72DFF9DF89C
:102A50000D209DF80C3002F00F0242EA03122D21E6
:102A6000D2B24A431B0902FA03F34FF47A72B3FB62
:102A7000F2F32B600E490C4802F073FB29680A221E
:102A8000094802F03CFC0B49074802F085FB05B001
:102A9000F0BD00BFAFF300800AD7A3703D0A773FB7
:102AA0009414002082E00008A41400208414002064
:102AB00088E000089FE0000808B50348FFF7A4FE7F
:102AC000024A034B1A6008BD8414002028E0000865
:102AD000441400202DE9F0411E463D4B86B0186895
:102AE0008846596801AC03C4174600210A2203A88E
:102AF00005F07CFF9DF8303006AC04F8143D20460C
:102B00000621FFF76BFE030A8DF80B0031488DF8A4
:102B10000A30036821469B6808229847642002F027
:102B200033FD00242B4802F0EFF9002804F10105E1
:102B300009DD284802F094F9E4B206AB1C4404F81D
:102B40000C0C2C46EEE79DF80C509DF814405DB936
:102B50000DF10D000721FFF741FE9DF8153043EA06
:102B6000042484420BD10EE003A80721FFF736FEB0
:102B70009DF8133044EA032484420FD000254FF619
:102B8000FF7415481CE09DF811309DF810009DF869
:102B9000124043EA00209DF8133009E09DF8103000
:102BA0009DF80F009DF8114043EA00209DF8123077
:102BB00043EA042404F0F6FD084904F0FFFEE50BA7
:102BC000C8F800003C60357006B0BDE8F08100BF79
:102BD00040E00008D414002000FF7F470000C842F6
:102BE000F0B516462A4A87B010680F46516801AC06
:102BF0001D4603C4092206AC002103A805F0F6FE19
:102C000004F8145D20460621FFF7E8FD030A8DF85D
:102C10000B0020488DF80A30036821469B68082283
:102C20009847642002F0B0FC00241A4802F06CF9C6
:102C300000280DDD174802F013F9651CEDB206AB54
:102C40001C44092D04F80C0C34BF2C460024ECE77E
:102C500003A80721FFF7C2FD9DF813209DF814304B
:102C600043EA022383420CD19DF812309DF81100F3
:102C70009DF80F2043EA00209DF8103043EA02231C
:102C800002E04FF6FF7318463860336007B0F0BDBE
:102C900048E00008D414002073B50121434D0820FA
:102CA00002F014FC642002F06FFC284600F0B8FD2E
:102CB0003F4C01262060642002F066FC284600F0AC
:102CC000C1FD3C4DA060642002F05EFC04F11801DF
:102CD00004F1100204F1140300962846FFF7FAFEEF
:102CE000642002F051FC334604F11C0104F120027F
:102CF0002846FFF775FF642002F046FC04F1240229
:102D000004F10C012846FFF763FE2B4D642002F00E
:102D10003BFC0820002102F0D9FB2846274902F09D
:102D200020FA206804F002F9022602460B460096BB
:102D3000284602F099FB2846214902F012FAA068C1
:102D400004F0F4F8009602460B46284602F08CFB8D
:102D500028461C4902F005FA23696421B3FBF1F10E
:102D60000A22284602F0C1FA2846174902F0F9F96A
:102D7000A06904F0DBF800960B460246284602F0F4
:102D800073FB2846114902F0ECF9E1690A22284652
:102D900002F0ABFA28460E4902F0E3F9216A284610
:102DA0000A2202B0BDE8704002F09FBA88140020E9
:102DB0004C14002048140020A4140020AAE00008AD
:102DC000BEE00008A4E00008B8E00008C9E0000880
:102DD000D6E000080A22B1FBF2F302FB131202EB69
:102DE0000310C0B2704701F00F03090901EB810124
:102DF00003EB4100C0B2704737B50C460C480DF1EB
:102E00000701FEF71CFF9DF807304FF47A70584316
:102E1000084902F07CFB9DF80730054664205843C2
:102E2000054902F074FB2844206003B030BD00BFA8
:102E30003714002080841E00400D030070B50E463C
:102E400015460024E3B2AB42074809D2315D102297
:102E500002F02FFA0448054902F083F90134F1E742
:102E6000BDE8704002F082B9A414002086E000089A
:102E700030B595B040220546002104A805F0B6FD06
:102E8000002414A941F8504D28466946FFF7B4FFC5
:102E9000009802F087FBFE238DF81030E0238DF8B8
:102EA000113011238DF8123024238DF813300123B3
:102EB0008DF81530444B8DF814401B7803B1552321
:102EC00042488DF81630FFF712F901AC8DF8170063
:102ED00021463E48FFF7AEF8002304AA1A44E15CFD
:102EE0000133052B1172F8D139482146FEF74FFE08
:102EF000002304AA1A44E15C0133092B5173F8D171
:102F000000240123222133488DF826308DF82740F4
:102F10008DF828408DF829408DF82A408DF82B40F7
:102F20008DF82C408DF82D408DF82E408DF82F40D7
:102F3000FFF72EF823218DF830002648FFF728F8F8
:102F400024218DF831002348FFF722F825218DF840
:102F500032002048FFF71CF824218DF8330005A823
:102F60008DF834408DF835408DF836408DF8374077
:102F700000F0FDFD8DF83800E30704AB234404F1B5
:102F8000010454BF0D220A22062C83F82920F3D114
:102F90001149124802F000F904A928462F22FFF730
:102FA0004DFF0F48FEF78EF80E4804A903682F2244
:102FB0009B6898474FF4FA7002F0E6FA0848FEF76B
:102FC00091F815B030BD00BF20140020341400204B
:102FD0003714002035140020E3E00008A41400207A
:102FE00030140020BC14002030B587B014220446F1
:102FF000002101A805F0FAFC002506A941F8185D9A
:1030000020466946FFF7F8FE009802F0CBFAFE234F
:103010008DF80430E0238DF8053013238DF8063049
:1030200005238DF8073001238DF809301E4B8DF8EC
:1030300008501B7803B155231C488DF80A30FFF760
:1030400056F801238DF80B00052102A88DF80C30ED
:1030500000F08DFD00238DF80D00DA0701AA1A4457
:1030600003F1010354BF0D210A21062B9172F4D103
:103070000F49104802F090F801A920461022FFF7EE
:10308000DDFE0D48FEF71EF80C4801A9036810226A
:103090009B6898474FF4FA7002F076FA0648FEF7FC
:1030A00021F807B030BD00BF2014002034140020E8
:1030B000FFE00008A414002030140020BC140020FD
:1030C00030B58DB01E220546002104A805F08EFC07
:1030D00000240CA941F8244D2846ADF80840FFF71C
:1030E0008BFE039802F05EFA344B0094344802A938
:1030F0000122FEF751FAFE238DF81030E0238DF8FF
:10310000113014238DF8123012238DF8133001235F
:103110008DF815302B4B8DF814401B7803B15523D7
:1031200029488DF81630FEF7E2FF01238DF818309C
:10313000264B00241B788DF817009DF808102448B2
:103140008DF819308DF81A408DF81B40FFF74BFEB3
:103150009DF809108DF81C001D48FFF744FE122150
:103160008DF81D0005A800F002FD23468DF81E0015
:10317000DA0704AA1A4403F1010354BF0D210A21FE
:10318000062BD173F4D11349134802F005F804A9B2
:1031900028461522FFF752FE1048FDF793FF10480E
:1031A00004A9036815229B6898474FF4FA7002F04F
:1031B000EBF90A48FDF796FF0DB030BD25E1000898
:1031C0003114002020140020341400208714002023
:1031D000851400202FE10008A414002030140020E2
:1031E000BC140020F0B589B005460F4616460021F4
:1031F000192201A805F0FAFB002408A941F8204D86
:1032000028466946FFF7F8FD009802F0CBF9FE2347
:103210008DF80430E0238DF8053015238DF8063045
:103220000E238DF8073001238DF809302A4B8DF8D5
:1032300008401B7803B1552328488DF80A30FEF763
:1032400056FF00248DF80B00012302A80E218DF8F3
:103250000C308DF80D708DF80E408DF80F408DF804
:1032600010408DF811408DF812408DF813408DF804
:1032700014408DF8154000F07AFC8DF81600E30735
:1032800001AB234404F1010454BF0D220A22062C91
:10329000DA74F4D11249134801F07EFF284601A9DF
:1032A0001922FFF7CBFD1048FDF70CFF0024E3B215
:1032B000B3420BD20D4801A9036819229B689847B5
:1032C0004FF4FA7002F060F90134F0E70648FDF7B8
:1032D00009FF09B0F0BD00BF201400203414002005
:1032E00049E10008A414002030140020BC14002080
:1032F000F0B50024ABB021460546142205A8019480
:1033000005F074FB802221460AA805F06FFB2AA96C
:1033100041F8A04D2846FFF76FFD029802F042F9F0
:10332000C348FFF7B9FCFE238DF82830D0238DF871
:10333000293001263023BF488DF82B308DF82C40E2
:103340008DF82A608DF82D60FDF7D2FEBA4C030A85
:1033500027688DF82F00B94938468DF82E3004F0D3
:1033600035FC28B1FF238DF830308DF831301AE06C
:103370003846002104F00CFC18B107F10047276023
:1033800000E00646022301A821680422FDF7F0FAB6
:103390009DF804308DF830309DF805308DF83130CF
:1033A0000EB1F22300E0E223A6688DF832303046F9
:1033B0000023019304F014FC0138632803D9FF2390
:1033C0008DF833300BE0022301A831460422FDF7CB
:1033D000CFFA9DF804308DF833309DF805308DF824
:1033E00034300021E223142205A88DF835300191F4
:1033F00005F0FCFAE268924B9A4207D9FF238DF858
:1034000036308DF837308DF8383019E08D4905A801
:1034100005F054FD05A805F0D5FD05A9024601A853
:10342000FDF76EFA9DF804308DF836309DF80530C2
:103430008DF837309DF806308DF838309DF807301C
:10344000606A8DF83930E023FF228DF83A3000268B
:10345000E12364288DF83B208DF83C208DF83D2039
:103460008DF83E208DF83F30019604D98DF840202C
:103470008DF841200FE004F095F93346014604220F
:1034800001A8FDF775FA9DF804308DF840309DF8DD
:1034900005308DF84130E02220698DF842208DF80A
:1034A00045208DF848204FF6FE72FF2390428DF89C
:1034B00043308DF844308DF846308DF8473002D9CE
:1034C0008DF8493016E05C4B1B7D012B08BFC0F521
:1034D000803004F067F95C4904F070FA0223014679
:1034E000042201A8FDF744FA9DF804308DF8493014
:1034F0009DF805308DF84A30237DA669012B0CBF5D
:10350000F223E2238DF84B3030460023019304F080
:1035100067FB642803DDFF238DF84C300BE00223AA
:1035200001A831460422FDF723FA9DF804308DF8F6
:103530004C309DF805308DF84D30206AE2238DF82F
:103540004E304FF6FE7300269842019603D9FF23B2
:103550008DF84F300DE004F025F933460146042282
:1035600001A8FDF705FA9DF804308DF84F309DF85D
:1035700005308DF85030E069E0238DF851304FF67A
:10358000FE7300269842019603D9FF238DF852302E
:103590000DE004F007F933460146042201A8FDF7C7
:1035A000E7F99DF804308DF852309DF8053003ACF2
:1035B0008DF853302548E02321468DF85430FEF72E
:1035C000D1FF00230AAA1A44E15C0133072B82F8D9
:1035D0002D10F7D10BA8302100F0C9FA00238DF887
:1035E0005C00DA070AAA1A4403F1010354BF0D2153
:1035F0000A21062B82F83510F3D11549154801F040
:10360000CBFD0AA928463B22FFF718FC0948FDF725
:1036100059FD11480AA903683B229B6898474FF45B
:10362000FA7001F0B1FF0348FDF75CFD2BB0F0BD6F
:1036300048140020301400204C14002000001643D1
:10364000400D030061E100080000C8424114002061
:1036500067E10008A4140020BC1400202DE9F84301
:1036600000240F469046994625464C4513DA5FFAEA
:1036700088F60121304601F029FF0A2001F084FF7D
:10368000F8B201F00DFF002100EB4505304601F0D6
:103690001DFF0134E9E72846BDE8F88370B5D4B2D0
:1036A0001D46EDB20E462046002102F07FF8284666
:1036B000002102F07BF82046012101F007FF284697
:1036C000012101F003FF2046002101F0FFFE284602
:1036D000002101F0FBFE2846012101F0F7FE204603
:1036E000012101F0F3FE2846002101F0EFFEF3B2C4
:1036F00001222046294601F015FF2846012101F04C
:10370000E5FE2046022102F051F8204601F0C8FEF5
:103710002846002101F0DAFE2046BDE8704001F0A5
:10372000BFBE38B5CDB22846022102F03FF864246E
:103730000A2001F029FF284601F0B2FE08B1013C41
:10374000F6D138BD2DE9F843CCB2154680460E4679
:10375000EFB22046022102F029F83846002102F09B
:1037600025F82A46082331464046FFF777FF002117
:103770004FEA0029204602F019F82046012101F005
:10378000A5FE2046002101F0A1FE3846012101F0EE
:103790009DFE3846002101F099FE2046022102F0EC
:1037A00005F8404631462A460823FFF757FF49EA05
:1037B0000000BDE8F88338B51446CDB2E4B228461F
:1037C000002101F0F3FF2046002101F0EFFF284621
:1037D000012101F07BFE2046012101F077FE204609
:1037E0000021BDE8384001F071BE38B590E80C000A
:1037F00004460321FFF752FF20462168FFF791FF9F
:1038000094E806002046FFF79DFF94E80600054671
:103810002046FFF7D0FF284603F0C8FF38BD000060
:1038200008B5FFF7E2FF04F0DBF903F0BFFF03493F
:1038300004F010F8024903F003FF08BD0AD7233C47
:1038400000002042F8B590E80C0004460521FFF77F
:1038500025FF20462168FFF764FF94E80600204614
:10386000FFF770FF94E8060005462046FFF7A3FF28
:10387000284603F09BFF1E49064603F0EBFF4FF07E
:10388000814103F0DDFE1B490546304603F0E2FFAF
:10389000314603F0DFFF0146284603F0D3FE07461A
:1038A0002046FFF7BDFF03F041FB0022124B03F05F
:1038B000DDF904460D463046104903F0CBFF1049B0
:1038C00003F0C0FE03F032FB02460B4620462946B9
:1038D00003F080FB044638460D4603F027FB024602
:1038E0000B462046294603F0C3F903F055FEF8BD08
:1038F00054E3253DA2E73BB600003940ACC5A738EC
:103900000AD7233C024B1D211C2283E80600704786
:10391000881400200A4B1A680A4B9B6800BF00BF3E
:10392000074909688A42F5D1C3F58C33482103F56C
:10393000A073B3FBF1F34FF47A7000FB02307047D1
:103940008815002010E000E010B5044680E806006D
:10395000D0B2002101F02AFF2078002101F026FFDB
:1039600000232079E360012101F0B0FD20780121DE
:10397000BDE8104001F0AABD38B5C36804460D4645
:1039800023B10021C160007801F010FF20782946A2
:10399000BDE8384001F09ABD10B500210446FFF79C
:1039A000EBFF642001F0FEFD2079002101F08EFD87
:1039B000BDE81040642001F0F5BD10B500210446BB
:1039C000007901F083FD642001F0ECFD2046002128
:1039D000FFF7D2FF642001F0E5FD2079012101F01D
:1039E00075FD642001F0DEFD20460121FFF7C4FFD4
:1039F000BDE81040642001F0D5BDF8B504460E4680
:103A00000825F7092079002101F060FD204639469C
:103A1000FFF7B2FF0121207901F058FD642001F089
:103A2000C1FD20463946FFF7A7FF7600013DF6B2FB
:103A3000E7D12946207901F049FD2078022101F0E3
:103A4000B5FE0223E3602079012101F03FFDFFF77D
:103A500061FF0546207801F023FD30B1FFF75AFFE2
:103A6000401B6428F6D90020F8BD0120F8BD38B508
:103A70000D460446FFF790FF6900204601F0FE0165
:103A8000FFF7BBFF38BD08B5FFF797FF002008BD63
:103A900008B5FFF7B2FF08BD70B50D466D000446CE
:103AA0001646FFF779FF691CA6602046C9B2FFF7EA
:103AB000A4FF70BD70B586680446002E55D000780E
:103AC000022101F073FE0223E3600825002620791D
:103AD000002101F0FBFC0121207901F0F7FC6420BA
:103AE00001F060FD207801F0DBFC013D00EB4600B9
:103AF00000F0FF06EBD1A3686068013B002BA360D8
:103B0000C0B2294617DD01F0E1FC642001F04AFD56
:103B100029462046FFF730FF642001F043FD20795D
:103B2000012101F0D3FC642001F03CFD20792946FD
:103B300001F0CCFC19E001F0C9FC642001F032FD79
:103B400001212046FFF718FF642001F02BFD012121
:103B5000207901F0BBFC642001F024FD2079294686
:103B600001F0B4FC2046FFF728FF304670BD00236B
:103B700030B5054618468B420FDAEA5C5040082201
:103B800010F0010F4FEA60041ABF84F0E000C0B2E9
:103B9000E0B2013AF4D10133EDE730BD122938B576
:103BA0000546144608460BD0132910D0112916D10A
:103BB00000F07CF80CB120460FE047F6FF700CE0F7
:103BC00000F074F8002CF6D149F63F4005E000F013
:103BD0006DF8002CEFD14FF2234000F06BF928462E
:103BE00038BD13B50022044601A8FFF7D7FF2046D1
:103BF00002B010BD084600F043B900F02FB910B56F
:103C000010460C4600F070F921460320BDE8104034
:103C100000F0A2B8054B1B681B685B0103F18443ED
:103C200094331A68002AFCD0704700BF0C020020B1
:103C3000054B1B681B685B0103F184438C331A68D6
:103C4000002AFCD0704700BF0C02002008B5FFF727
:103C5000E1FF054B00221B681B685B0103F18443F5
:103C6000C3F88C2008BD00BF0C02002008B5FFF788
:103C7000D1FF054B01221B681B685B0103F18443E4
:103C8000C3F8902008BD00BF0C02002008B5FFF764
:103C9000C1FF054B00221B681B685B0103F18443D5
:103CA000C3F8902008BD00BF0C02002010B50446E8
:103CB00000F069FB00F074FB204A112C136A23F416
:103CC0004073136213460BD005D8C4B1102C2AD10F
:103CD0000023136227E0122C11D0132C1AD022E0FB
:103CE000174A00211160012142F8081C154A126888
:103CF00012F0FF0FFAD01A6A42F4807212E0124AF0
:103D000001211160114A1268002AFBD01A6A42F49C
:103D1000007207E00E4A126812F0FF0FFAD01A6A1A
:103D200042F440721A620B4B01221A60FFF78EFFB9
:103D3000FFF77EFFBDE81040FFF76CBF00100240A8
:103D40000804424204044242800442428404424243
:103D5000440042423C04424238B5144D04462B68AC
:103D600003EB80035960FFF755FF032C09D1104A7C
:103D700001231360C2F800310E4B4FF400725A60F9
:103D800038BD2B6801221B68944204EBC3034FEA41
:103D9000830303F184431A6003D002D3022C00D0C2
:103DA00038BD044B08221A6038BD00BF0C02002049
:103DB0004480204200E100E010B50446FFF72AFFEE
:103DC000032C0B4B05D10B4900220A60C1F80021DE
:103DD00008E01A680021126804EBC202920002F1A6
:103DE000844211601B6803EB84040023636010BDF0
:103DF0000C02002044802042F8B5104B1E68356844
:103E00002B686F681F4017F0010403D074680CB171
:103E1000A0470124BA0704D5B36813B1984744F00A
:103E200002047B0704D5F36813B1984744F00404F7
:103E30006B6823EA04046C60F8BD00BF0C0200202C
:103E400008B5044B1B681B691BB19847024B012244
:103E50001A6008BD0C020020C482204208B5FFF79A
:103E6000F5FEFFF7E5FEFFF7D5FE044B1B681B6868
:103E70009869DB699BB243EA004008BD0C02002050
:103E800010B50446FFF7E2FEFFF7D2FEFFF7C2FED1
:103E9000FFF7ECFE064B220C1B68A4B21B689A616C
:103EA000DC61FFF7F3FEBDE81040FFF7B3BE00BFD3
:103EB0000C02002010B50446FFF7C8FEFFF7B8FE5D
:103EC000FFF7A8FEFFF7D2FE064B220C1B68A4B238
:103ED0001B689A60DC60FFF7D9FEBDE81040FFF771
:103EE00099BE00BF0C02002010B50446FFF7AEFEDD
:103EF000FFF79EFEFFF78EFEFFF7B8FE064B220C83
:103F00001B68A4B21B681A625C62FFF7BFFEBDE8C3
:103F10001040FFF77FBE00BF0C020020704700007A
:103F20000B4B10B5196809220A230A4801F000F862
:103F3000094B022219680948032300F0F9FFBDE884
:103F40001040074B074819681A221B2300F0F0BFE6
:103F500030030020A414002034030020BC140020EF
:103F600038030020D414002010B5044600F0F0F906
:103F7000034B20461978BDE8104000F075B900BF2A
:103F800028020020F8B50446056800F0D7FB226837
:103F90000023510101F184410B608021296001213E
:103FA000A9622B61EB606379696113B18B4203D025
:103FB0002BE04FF400436B644FF6FF73D362002590
:103FC0006E1CF7B22046394600F0C2FBD0B1236820
:103FD00048F6FF7103F1340242F8251018336D10D2
:103FE00017F0010F53F8252014BF6FF0FF016FF495
:103FF0007F4101EA020214BF68214FF4D0410A4315
:1040000043F82520042E3546DAD1216801224B01E0
:10401000490103F1844301F18441C3F880220A601D
:10402000F8BD000038B5274B274C1A68022042F033
:1040300010021A6000F0C0F90025002000F08AFA92
:1040400065602368182023F40023236000F08FFAB2
:10405000102000F08CFA00F043F8A560102000F06A
:1040600079FA102000F0A0FA0028FAD000F039F810
:10407000164800F0A5FA182000F06CFA182000F09D
:1040800093FA0028FAD0022000F054FA00214FF0F1
:10409000006000F001FA0E4800F008FB00F038F86C
:1040A0000C4B188800F042F90B4800F043F90B481C
:1040B00000F030FB00F02EF800F02DF8FFF72EFF97
:1040C00038BD00BF00200240001002402C0200203A
:1040D0003F1901002A020020693F0008853F0008BF
:1040E000704708B50020014600F0B8FA01204FF4EF
:1040F000806100F0B3FA0021022000F0AFFA2D2019
:1041000000F0BCFABDE808400320002100F0A6BA88
:1041100000F05CB9704700F099B9000001498D4684
:1041200001490847005000202D41000808B5124BF6
:10413000124A1968914201D0002301E0104B07E0B8
:104140001048D4188442F9D2C858D0500433F7E745
:104150000D4A934203D2002243F8042BF8E704F0FF
:1041600095F800200146024600F0CAFF074B0BB14C
:1041700004F07CF8FEE700BF4CE7000800000020D8
:104180007813002078130020901500206D8200081D
:1041900008B50D4B1A680AB90C4A1A601B680C4A1C
:1041A000D21A824204DB09494242591A914206DA84
:1041B00004F056F80C2303604FF0FF3008BD024AAC
:1041C00018441060184608BDEC140020901500201B
:1041D00058240128FEE70000000000000000000055
:1041E000012007E0022005E0032003E0042001E0B5
:1041F0000520FFE70D4A0121116072B60C4A00212B
:104200001160074902B4084902B486B005498E46D8
:10421000704700BFAFF30080AFF30080AFF30080C2
:1042200000000061F9FFFFFFE94D000814ED00E018
:1042300010E000E0AFF30080AFF30080AFF3008048
:10424000FEE710B50446007900F0D6F92079BDE804
:10425000104000F0E9B903689A6822F4602242F441
:104260008012114399607047002370B51A461C46AE
:10427000072B4FEA430503DCEE1801FA06F6344338
:104280001D4401FA05F501330A2B42EA0502EFD17C
:104290000368DC601A6170BD0368DA6A22F0F872A4
:1042A000DA6259639A6842F480029A601A68920747
:1042B000FCD5D86C80B2704738B5124D2A681368A7
:1042C0001C68A10706D5196821F0020119609368DE
:1042D00003B19847620708D52B681A681B691168F3
:1042E00021F00401116003B19847E30708D52B685A
:1042F0001A68DB68116821F00101116003B1984769
:1043000038BD00BF58020020036801225B0103F1A1
:10431000844303F58673191F1A6018680028FCD1BE
:1043200043F8042C0B68002BFCD170470146042095
:1043300000F094B9044B10B504461868A047034B2D
:104340001868A04710BD00BF58020020540200208A
:1043500010B50446FFF775FF20464FF46021FFF7C4
:104360007AFF2368012103F1404308335A015B01BE
:1043700002F1844203F18443116520461960BDE8CF
:104380001040FFF7C1BF08B5142000F035F9042034
:1043900000F032F9BDE80840042000F045B9000003
:1043A000014B01221A60704720000E42014B00228F
:1043B0001A60704720000E42034B1A6822F0070271
:1043C00010431860704700BF0020024008B507483E
:1043D00001F093FA064801F090FA064801F08DFAD0
:1043E000BDE80840044801F088BA00BF5C02002024
:1043F000640200206C0200207402002070B501F0FD
:104400000704A4000F25A5400368C80853F82060DE
:10441000092A26EA050514BF1646082606FA04F4FA
:10442000082A44EA050443F8204006D1012000FA96
:1044300001F1DA6822EA010106E0092A05D101202A
:1044400000FA01F1DA681143D96070BD08B50320A4
:1044500000F0D2F8BDE80840032000F0E5B8000005
:10446000024B4AF6AA221A60704700BF0030004093
:1044700000284FEA011105DA064B00F00F00C9B21F
:104480001954704700F16040C9B200F5614080F8EE
:104490000013704714ED00E021F0604138B521F0C1
:1044A0007F01084B0843986000241D4660B20F212D
:1044B0000134FFF7DDFF2B2CF8D1F02385F82330F2
:1044C00038BD00BF00ED00E0044A054BD16801F49F
:1044D00040710B43D360BFF34F8FFEE700ED00E068
:1044E0000400FA05014B1860704700BFA0000E429F
:1044F000074B1A6842F001021A601A6842F0020281
:104500001A60044B1A6942F004021A6130BF704706
:104510000070004000ED00E0024B1A6842EA8000A3
:104520001860704700700040014B13F8100070478E
:1045300028E40008064B5A6822F0030202435A603E
:1045400080005A6802F00C028242FAD1704700BF24
:1045500000100240030A0121C0B201FA00F003F189
:10456000804303F504331A68104318607047030A48
:104570000121C0B201FA00F003F1804303F50433D6
:104580001A6822EA000018607047030A0122C0B2CC
:1045900002FA00F003F1804303F504331B6818426C
:1045A0000CBF002001207047030A0222C0B202FAA9
:1045B00000F003F1804303F504331B681840704793
:1045C00038B54368044618201D68FFF7DEFF20B1A8
:1045D00006488121064A00F011FC064B21685A6802
:1045E0000D4322F4741215435D6038BDB8E3000832
:1045F0000CE400080010024010B50446FFF794FFD9
:10460000074B53F82020074B03EB4404637803EB7C
:10461000C2039B0003F1844301221A6010BD00BF56
:104620007C02002028E4000810B50446FFF77CFF58
:10463000084B53F82020084B03EB4404637803EB4A
:10464000C2039B0003F1844301221A6000221A6016
:1046500010BD00BF8802002028E4000810B5054BFB
:10466000054C5A6854F8200022EA000211435960B0
:1046700010BD00BF0010024084E4000810B50446DD
:10468000FFF752FF074B53F82020074B03EB44047E
:10469000637803EBC2039B0003F1844300221A609A
:1046A00010BD00BF9002002028E40008024B072242
:1046B00058601A60704700BF10E000E008B5044B76
:1046C0001A6801321A60034B1B6803B1984708BD92
:1046D00088150020F014002011F0010F70B542EA97
:1046E00003030CBF0825002503FA05F5006801F156
:1046F000FF3400F11800C4F3400450F8241014BF34
:104700006FF0FF066FF47F463140294340F82410D4
:1047100070BD000010B504460448A0470448A047F7
:104720000448A0470448A04710BD00BFE402002091
:104730000C0300209C020020C002002010B504469B
:104740000079FFF759FF2079BDE81040FFF76CBFF3
:1047500003791E2B10D9212B0ED0202B0ED9222B02
:1047600001D0252B04D102298CBF002001207047E5
:104770004B1E584258417047012070470020704737
:104780008B1C40F823200368012203F140430C33C3
:1047900001EBC3039B0003F184431A604279037960
:1047A000FAB9B3F11A025342534107294BD8DFE853
:1047B00001F004090909090E0E13002B0CBF2C236C
:1047C000192337E0002B0CBF2E231B2332E0002BD4
:1047D0000CBF2D231A232DE0002B0CBF2B231823F5
:1047E00028E01B3B0C2B1CD8DFE803F02123070932
:1047F0000B0D1B0F1113151719001E231AE032237E
:1048000018E0362316E0372314E0182312E01923AA
:1048100010E01A230EE02B230CE02C230AE02D23BA
:1048200008E0094840F2BF11084A00F0E7BA1C232B
:1048300000E01D235909012203F01F0302FA03F3CC
:10484000034A42F82130704798E4000843DA000830
:1048500000E100E00368002203F140430C3301EB68
:10486000C3039B0003F1844302311A6040F8212006
:1048700070470000F8B54E1EF3B2032B04460D46F8
:10488000174604D92648DA21264A00F0B7FA637998
:10489000022B43D0032F41D8DFE807F00212223564
:1048A00020462946FFF7D6FF236803F14043203313
:1048B000DB0003EB8606B60006F18446002320E009
:1048C0002368002203F140430C3305EBC3039B0034
:1048D00003F184431A60204629466022082303E03E
:1048E0002046294610220023FFF7F6FE236803F135
:1048F00040432033DB0003EB8606B60006F1844616
:1049000001233360F8BD23684FF2F1229A6103223C
:104910009A605B0103F1844301221A60F8BD00BF75
:1049200098E40008EBE4000810B5074B1C68E16848
:1049300022690A40120606D55B6A23B198472369AB
:1049400023F08003236110BDE402002010B5074B63
:104950001C68E16822690A40D20706D59B6823B12A
:104960009847236923F00103236110BDE40200206E
:10497000F8B50C4F3D68EB682E691E4016F04004F8
:1049800003D03C6A0CB1A0474024B30604D5FB69B0
:1049900013B1984744F020042B6923EA04042C61E6
:1049A000F8BD00BFE4020020F8B5134F3E68F3687D
:1049B00035691D4015F0100403D0BC690CB1A04747
:1049C0001024290704D57B6913B1984744F00804E3
:1049D0006A0704D53B6913B1984744F00404AB0758
:1049E00004D5FB6813B1984744F00204336923EA05
:1049F00004043461F8BD00BFE4020020F8B51A4E8B
:104A00003768FB683D691D4015F0400403D0346AE7
:104A10000CB1A0474024EB0604D5B36913B1984705
:104A200044F01004280704D5736913B1984744F083
:104A30000804690704D5336913B1984744F00404A6
:104A4000AA0704D5F36813B1984744F00204EB07B2
:104A500004D5B36813B1984744F001043B6923EAD5
:104A600004043C61F8BD00BF0C030020F8B51A4EE9
:104A70003768FB683D691D4015F0400403D0346A77
:104A80000CB1A0474024EB0604D5B36913B1984795
:104A900044F01004280704D5736913B1984744F013
:104AA0000804690704D5336913B1984744F0040436
:104AB000AA0704D5F36813B1984744F00204EB0742
:104AC00004D5B36813B1984744F001043B6923EA65
:104AD00004043C61F8BD00BF9C020020F8B51A4EEA
:104AE0003768FB683D691D4015F0400403D0346A07
:104AF0000CB1A0474024EB0604D5B36913B1984725
:104B000044F01004280704D5736913B1984744F0A2
:104B10000804690704D5336913B1984744F00404C5
:104B2000AA0704D5F36813B1984744F00204EB07D1
:104B300004D5B36813B1984744F001043B6923EAF4
:104B400004043C61F8BD00BFC002002081880268F7
:104B5000034689B2505C99881A8989B292B291420F
:104B600017BF9A880022013292B2C0B29A80704771
:104B7000C28838B5838892B29BB201329A42044609
:104B80000D461AD0C288038992B29BB29A4202D1D2
:104B900083889BB28BB14FF0FF30E288236892B2DA
:104BA0009D54E288238992B29BB29A4217BFE38850
:104BB000002301339BB2E38038BD2046FFF7C6FFD8
:104BC000EBE770B51E460546084611460422059CD3
:104BD000FFF714FC9DF810100B223046FFF70EFC77
:104BE0002B6804F00F01DA6804F0300422F4F0526C
:104BF0001204120C42EA4122DA601A6922F440528D
:104C00001204120C42EA04241C6170BD38B504463B
:104C1000154611B900F096F8014619235943AD0025
:104C20006423B1FBF5F1B1FBF3F21201100903FBB0
:104C3000101109013231B1FBF3F303F00F032168C6
:104C40001A4392B28A6038BD38B5114DEB689806A8
:104C500007D52B68990604D569680E48C9B2FFF7D5
:104C600087FFEB680A4C1A0611D523681B060ED580
:104C700009488288C38892B29BB29A4203D0FFF758
:104C800065FF606038BDE36823F08003E36038BDF2
:104C90000038014000150020F414002038B5114DF3
:104CA000EB68980607D52B68990604D569680E4805
:104CB000C9B2FFF75DFFEB680A4C1A0611D52368ED
:104CC0001B060ED509488288C38892B29BB29A42CD
:104CD00003D0FFF73BFF606038BDE36823F080033B
:104CE000E36038BD004400400C150020241500206E
:104CF00038B5114DEB68980607D52B68990604D591
:104D000069680E48C9B2FFF733FFEB680A4C1A0610
:104D100011D523681B060ED509488288C38892B234
:104D20009BB29A4203D0FFF711FF606038BDE36881
:104D300023F08003E36038BD0048004018150020D0
:104D40003015002008B590F89002FFF7EDFB20B178
:104D50000128034818BF002008BD024808BD00BF55
:104D600000A24A040051250213B504468DF807102D
:104D700020460DF10701012200F01AFE0028F7D0AD
:104D800002B010BD38B505464C1E14F8011F19B10C
:104D90002846FFF7E9FFF8E738BD000008B5114BDA
:104DA00001211C6803222046FFF728FB0023012174
:104DB0001A469342206834BF02254FF40035B2F5FD
:104DC000007F056103F1010303D0002A08BF012120
:104DD00001E04FF0FF31B3F5007F04BF521800230C
:104DE000E7E700BFB4E3000808B5034B0BB1AFF32E
:104DF000008062B6FFF7D2FF00000000F8B5144B48
:104E000006460D4617460BB3AFF300801149044622
:104E1000FFF7B8FF20463946FFF7B4FF20460E499A
:104E2000FFF7B0FF20463146FFF7ACFF20460B49A5
:104E3000FFF7A8FF2046294600F008FE20460A2179
:104E4000FFF792FF20460D21FFF78EFFFFF7CCFF03
:104E50000000000007E500081DE5000885E00008E7
:104E600003695B68D9889A8889B292B2D8888A1A0D
:104E7000998880B289B2884203D2198989B20131F6
:104E80000A4492B282B199881A6889B2505C9988B2
:104E90001A8989B292B2914217BF9A8800220132D0
:104EA00092B2C0B29A8070474FF0FF3070470369EA
:104EB0005B689988DA8889B292B2914205D09A8863
:104EC0001B6892B2985CC0B270474FF0FF307047D9
:104ED00003699A689088D18880B289B28842F9D1F2
:104EE0001A6813685B06FCD5704713B504698DF822
:104EF000071020460DF10701012200F059FD00289E
:104F0000F7D0012002B010BD03695B68D8889A8889
:104F100080B292B2D988801A9A8889B292B29142AC
:104F200003D21B899BB20133184480B27047000042
:104F300030B5002545604FF47A758560024D0161FA
:104F400005600275437530BD50E5000803692DE921
:104F5000F74FDB68044699420F4692462CD890F8EA
:104F60001480174D4FEA081808EB050690F81590C5
:104F700070684FEA091909EB050B717B10B100222B
:104F8000FFF778FC206900F0C3FC337B9BF80C2012
:104F900020698DE8080459F8051058F80530FFF726
:104FA00010FE206900213A46FFF730FE206903B069
:104FB000BDE8F04F00F0D6BC03B0BDE8F08F00BFF5
:104FC00084E100080022FFF7C1BF006900F0D4BCF3
:104FD000044B02791B789A4202D1034B1B6818607C
:104FE000704700BF4C15002050150020002310B55D
:104FF0000446036072B6054B19311970044B1860F2
:105000000448FFF787FB62B6204610BD4C15002010
:1050100050150020D14F0008036800221B685B0177
:1050200003F184431A607047036801221B685B0127
:1050300003F184431A607047036801391B6889B221
:105040009962704703681B68DA6A92B2914228BF7E
:1050500011465962704738B5054639B903680122CF
:105060001B689962DA62D86A80B238BD48244C4322
:105070004FF6FF71B4FBF1F1013189B204EB510439
:10508000B4FBF1F4FFF7D8FF2B68A4B21B682046ED
:10509000DC6238BD0068C9B2FFF7ECBB0368C9B277
:1050A0001B6801F18041D86A013980B234338242F1
:1050B00028BF024643F8212070470068C9B2FFF7B5
:1050C0005FBB000008B501210848FFF78FFF0221F0
:1050D0000748FFF78BFF03210648FFF787FFBDE86E
:1050E000084005480421FFF781BF00BF3C150020A0
:1050F000401500204415002048150020FEF792BFFF
:1051000008B5FBF72BF9FBF7A5FAFCE770B50546E8
:105110000E460024315D29B12A682846126890475E
:105120000134F7E7204670BDF8B505460C46164633
:105130008F18BC4206D02B6828461B6814F8011B48
:105140009847F6E73046F8BD10B502680B469468FC
:1051500009689A68A04710BD08B503681B6898479E
:1051600008BD08B503685B68984708BD38B50D21D0
:105170000546FFF7F1FF0A2104462846FFF7ECFF3A
:10518000204438BD38B50446FFF7DEFF054620460B
:10519000FFF7ECFF284438BD38B50446FFF7E1FFC0
:1051A00005462046FFF7E2FF284438BD2DE9F04FC1
:1051B00014461D4691B054EA050381469DF868B037
:1051C00004D13021FFF7C8FF01202EE04FF0000886
:1051D0005FFA8BF600272046294632463B4602F00E
:1051E00025FD08F101080DF1000AC2440AF8012C5E
:1051F000204629463B46324602F018FD04460D463D
:1052000054EA0503E4D1002408F1FF381DF8081022
:105210004846092994BF30313731C9B2FFF79CFFA6
:105220000444B8F1000FEFD1204611B0BDE8F08F73
:105230002DE9F041069F064614461D462FB9036826
:10524000D1B21B689847BDE8F081002C75F10003CE
:1052500005DA2D21FFF780FF644265EB4505FFB2BB
:105260000697304622462B46BDE8F041FFF79EBF29
:1052700007B5CB1700920A46FFF7DAFF03B05DF8D7
:1052800004FB38B50446FFF7F3FF05462046FFF759
:105290006DFF284438BD70B5049921B90368D1B2B7
:1052A0001B68984770BDC9B20491BDE87040FFF714
:1052B0007DBF07B500230092CAB2FFF7ECFF03B031
:1052C0005DF804FB38B50446FFF7F3FF05462046BA
:1052D000FFF74CFF284438BD07B5002300920A466B
:1052E000FFF7D9FF03B05DF804FB38B50446FFF7BC
:1052F000F3FF05462046FFF739FF284438BD07B5C0
:10530000002300920A46FFF7C6FF03B05DF804FBD6
:105310002DE9F74F19460646144610461D46002251
:10532000002302F0E7F89DF830704FF0010838B123
:105330002046294644A3D3E9002302F0D1F806E031
:105340002046294642A3D3E9002302F0BFF800B962
:1053500080465FFA88F82046294600220023B8F1EB
:10536000000F0DD002F0A8F818B130462D21FFF73C
:10537000F3FE804638493046FFF7F3FE404460E0D4
:1053800002F09AF838B130462D21FFF7E5FE05F11D
:10539000004380461D46314B4FF0000900225FFA62
:1053A00089F1B9420AD21046194600222C4B01F06D
:1053B0003BFF09F1010902460B46F0E7204629466A
:1053C00001F056FC04460D4602F046FC82468B4630
:1053D00001F0D2FD02460B462046294601F046FC6C
:1053E0000A2300930446524630465B460D46FFF7BB
:1053F0001FFF804427B130461A49FFF7B2FE8044B0
:10540000F7B1174B00222046294601F0E3FD0D4677
:10541000044602F079F881460A2249463046FFF7F1
:1054200027FF8044484601F06FFD02460B462046A8
:10543000294601F01BFC013F04460D46FFB2DFE7A1
:10544000404603B0BDE8F08F800350726C92DF439A
:10545000800350726C92DFC370E500080000E03FEB
:1054600000002440D8DB000837B59DF8181004462A
:105470000091FFF74DFF05462046FFF777FE2844D1
:1054800003B030BD054B03EB001000F1080380684A
:1054900010B19979FEF700BF704700BF84E10008A2
:1054A00022280ED8084B00011A18127B012101FA9C
:1054B00002F21B581B689B681A420CBF0020012097
:1054C00070470020704700BF84E10008222810D8F0
:1054D000084B00011A18127B1B58012000FA02F237
:1054E000D1F1010138BF0021090102FA01F11B6865
:1054F0001961704784E1000810B5044630B103F02B
:10550000C3FA90FBF4F303FB140010BD10BD8842F6
:1055100010B5044604DA081AFFF7EEFF204410BD68
:1055200010BD00002DE9F04780460E4608460021D8
:1055300092469946FFF7CAFF0024BAF1000F02D045
:10554000C4F1070100E0214649FA01F1404601F0AB
:105550000101FFF7BBFF0B4A3301D718D3580121D4
:105560001D683B7BEA6801FA03F35340EB603A7B2A
:10557000EB68914001345940082CE960DDD1BDE869
:10558000F08700BF84E10008054B70B51C68064633
:105590001D4600F04DF92B681B1BB342F9D370BDBB
:1055A000881500200C235843431E18460138FDD8A7
:1055B000704710B50446006802F098FE204610BD02
:1055C00010B50446006808B102F090FE0023236085
:1055D000A360636010BD38B504460D460068013114
:1055E00003F072FA10B184E82100012038BD03688D
:1055F00010B5044613B143688B4207D22046FFF72B
:10560000EAFF20B1A3680BB922681370012010BD16
:1056100070B50E46114604461546FFF7E8FF18B967
:105620002046FFF7CDFF04E0A5602068314603F077
:105630006BFC204670BD38B5002304460360436010
:1056400083600D4639B1084603F0BCFC294602468A
:105650002046FFF7DDFF204638BD884210B50B46D7
:10566000044607D0096819B19A68FFF7D1FF01E035
:10567000FFF7A6FF204610BD10B5002304460360C7
:1056800043608360FFF7E9FF204610BD38B505464B
:105690000C4641B1084603F095FC214602462846D7
:1056A000FFF7B6FF01E0FFF78BFF284638BD10B5C6
:1056B00000238AB00446036043608360084601A962
:1056C00000F0EEF8204601A9FFF7E0FF20460AB0FF
:1056D00010BD70B5044685680E4609B9002070BD3E
:1056E00062B115442946FFF782FF0028F6D02068F2
:1056F000A3683146184403F007FCA560012070BD83
:105700001FB504460A220846694600F0C9F86846F3
:1057100003F058FC694602462046FFF7DAFF04B062
:1057200010BD1FB504460A220846694600F0E3F89A
:10573000684603F047FC694602462046FFF7C9FF6A
:1057400004B010BD0B4610B509689A680446FFF70F
:10575000C0FF10B92046FFF733FF204610BD38B513
:1057600004460D4641B1084603F02CFC294602468A
:105770002046FFF7AEFF10B92046FFF721FF204675
:1057800038BD10B50446FFF7BBFF10B92046FFF740
:1057900017FF204610BD10B50446FFF7C2FF10B931
:1057A0002046FFF70DFF204610BD0000222870B5EF
:1057B0003BD8082939D8DFE801F0051A080B0E118B
:1057C000081417000024032213E00024042210E030
:1057D000002422460DE0002409220AE000240822C9
:1057E00007E001240B2204E001240F2201E0002441
:1057F00007220E4B00011E18317B1858FEF7FEFDE4
:10580000706890B1717B24B10122BDE87040FFF750
:1058100031B80368013903F140432033DB0003EB67
:1058200081039B0003F184431C6070BD84E1000888
:105830007047F0B58BB059B3931E222B2AD80A2A91
:105840002AD1002828DA4042012501AB1E4670B15A
:10585000B0FBF2F702FB1704092C3846D8BF3034EE
:1058600003F10107C8BF57341C703B46EFE7B34252
:10587000EED01DB12D204A1C087000E00A46B3424C
:1058800004D913F8010D02F8010BF8E70023137097
:10589000084603E0002001E00025D6E70BB0F0BD8C
:1058A000FFF7C7BF70B58AB001B3931E222B1FD874
:1058B00001AB1D4670B1B0FBF2F602FB1604092CD9
:1058C0003046D8BF303403F10106C8BF57341C70CE
:1058D0003346EFE7AB42EED00A46AB4204D913F8A9
:1058E000010D02F8010BF8E700231370084600E0F1
:1058F00000200AB070BDFFF7D5BF10B5044600798F
:10590000FEF77AFE2079BDE81040FEF78DBE00005C
:10591000436800227F2110B59A80DA80198100F156
:1059200010011960836804469A80DA8040F2FF1201
:105930001A8100F190021A6090F89002FEF75CFE66
:1059400094F891325AB2002A08DB012103F01F03B8
:1059500001FA03F30249521141F8223010BD00BF91
:1059600000E100E00368DA6842F02C02DA60DA68ED
:1059700042F40052DA60704710B503688268948878
:10598000D188A4B289B28C42F9D1DA68910402D5E7
:105990001A685206F9D5DA6822F40052DA604368D0
:1059A0009A8892B2DA8083689A8892B2DA8010BDBF
:1059B000F0B583680546046800209F88DE88BFB282
:1059C000B6B2B74204D0E36823F08003E36027E077
:1059D00026683606F7D59042F5D00E5C0130666039
:1059E000EBE7DF889E88BFB2B6B20137B74211F845
:1059F00000C01DD0DF881E89BFB2B6B2B74213D037
:105A0000DF881E68BFB206F807C0DF881E89BFB2F4
:105A1000B6B2B74218D0DE880136B6B2DE800130A9
:105A20009042AB68DDD303E09E88B6B2002EE7D18A
:105A30009A88DB8892B29BB29A4200D1F0BDE368AB
:105A400043F08003E360F0BD0026E7E77FB506463C
:105A500000240A22B1FBF2F302FB1312013401AD60
:105A60002819303200F8012C1946002BF1D114F11D
:105A7000FF340BD32B5D8DF8033030460DF103015D
:105A80000122FFF795FF0028F7D0F0E704B070BDC2
:105A90002DE9F04F8BB01D4680468946144600F034
:105AA00073F9DFF8ACA206469AF900300F460133CD
:105AB00004D02046294600F08DFF20B930463946F3
:105AC0000BB0BDE8F08F4046494600F083FF8346A7
:105AD00000282CD1204629460022002301F0E2FCB8
