:020000040800F2
:1000000000500020BD4200088145000885450008D9
:10001000894500088D45000891450008E145000824
:10002000E1450008E1450008E1450008E145000818
:10003000E1450008E1450008E14500085D4A000887
:10004000E1450008E1450008E14500089941000844
:10005000E1450008E1450008E1450008E1450008E8
:10006000E1450008E1450008E1450008E1450008D8
:10007000E1450008E1450008E1450008E1450008C8
:10008000E1450008E145000859460008E14500083F
:10009000E1450008E1450008E1450008E1450008A8
:1000A000054D0008294D00084D4D0008854D0008FC
:1000B000D94D0008494E0008B94E0008E145000836
:1000C000E1450008E1450008E1450008E145000878
:1000D000E14500083D50000891500008E550000837
:1000E000E1450008E1410008E145000810B5054C74
:1000F000237833B9044B13B10448AFF300800123D4
:10010000237010BD7813002000000000C4C4000854
:1001100008B5064B1BB106480649AFF300800648F8
:10012000036813B1054B03B1984708BD00000000F8
:10013000C4C400087C1300207813002000000000D5
:10014000012902D11C30C0B27047062984BF01F1D9
:10015000FF31C9B211F0010F14BF1E201F207047DC
:10016000444B2DE9F047B1FBF3F603FB16113C239A
:10017000B1FBF3F203FB1212054602704FF461600B
:10018000B1FBF0F200FB1211B1FBF3F36B704FF413
:10019000FA63AA70B6B2EB80EC884FF4C873B4FB74
:1001A000F3F803FB18481FFA88F8B8F1000F16D0CF
:1001B0006423B4FBF3F203FB12439BB2002B53D036
:1001C00014F0030140F26D130CBF4FF4B7721A46DE
:1001D00096420EDB002908BF4FF4B77304E0B6F572
:1001E000B77F06DB4FF4B773F61A0134B6B2EC8072
:1001F000D2E700236B716423B4FBF3F703FB1747CB
:10020000BFB2B8F1000F06D03FB114F0030F14BF16
:100210000020012002E0012000E0384695F805901A
:10022000C0B24946FFF78CFF864209F1010A15D397
:10023000B8F1000F06D03FB114F0030F14BF002037
:10024000012002E0012000E03846C0B24946FFF735
:1002500077FF301A86B285F805A0D2E701362E71F5
:1002600085F805A0BDE8F087B6F5B67FC1DD40F2A0
:100270006D13B9E780510100F8B5427887783C23C7
:1002800003FB072702780579467903FB0727013D21
:10029000013EEDB2F6B2044605714671013E731C93
:1002A000E38834D04FF4C872B3FBF2F102FB113291
:1002B00092B262B16422B3FBF2F002FB103080B262
:1002C00030B113F0030F14BF0020012000E0012023
:1002D000C0B2F1B2FFF734FF284485B2DEE74FF435
:1002E000C872B3FBF2F102FB113292B2AAB16422DE
:1002F000B3FBF2F102FB113292B28AB113F0030F99
:1003000040F26D1208BF4FF4B7721544ADB2013B15
:100310009BB2B3F5FA6FE2D205E04FF4B772F4E79F
:1003200040F26D12F1E7024800FB0570F8BD00BF16
:100330008051010002F078BC38B50D46044602F049
:100340008EFC290A49006039204601F0FE0102F0C6
:100350001DFD204602F0F3FCE9B2204602F016FD36
:10036000204602F0ECFC204602F079FC2046A12158
:1003700002F00CFD204602F0E2FC0021204602F0D3
:100380002CFD0546204602F0BDFC204602F082FC12
:10039000284638BD70B50D461646044602F05FFC8F
:1003A000290A49006039204601F0FE0102F0EEFC06
:1003B000204602F0C4FCE9B2204602F0E7FC2046E9
:1003C00002F0BDFC3146204602F0E0FC204602F07F
:1003D000B6FC204602F05EFCBDE870400A2005F045
:1003E00025BC0000D30770B548BF01320024520875
:1003F00002312346E5B2954225D211F8025CA5F1FF
:100400004106F6B2052E02D8104B9B5D05E0303D4B
:10041000EDB2092D03D80E4B5B5D1B01DBB211F869
:10042000015CA5F14106F6B2052E01D8074D04E0A6
:10043000303DEDB2092D02D8054E755D2B430355B5
:1004400002310134D6E7002070BD00BF8AD8000811
:1004500080D800082DE9F04F824687B00846144640
:10046000994606F077FFC9EB0406CDE90001304656
:1004700006F05EFF02460B4600204D4905F01AFDCE
:1004800002460B46DDE9000107F03EFA30B94FF0B5
:10049000020896FBF8F80546013E07E050460021A9
:1004A000224607B0BDE8F04F08F0B4BC454536DA47
:1004B000304606F03DFF02460B4600203C4905F061
:1004C000F9FCCDE90201701E06F032FF02460B4630
:1004D0000020374905F0EEFCDDE90223CDE90401F7
:1004E000DDE9000107F0B4F807F022FADDE90423A2
:1004F0000A2790FBF7FB0BFB17004FEA001BDDE917
:10050000000107F0A5F807F013FA90FBF7F303FBDF
:10051000170083440AF805B0023E0135C6E709EB2F
:1005200048094FF0020BC4EB090994FBFBFB09F1EE
:100530000109D84538DA484606F0FAFE02460B466D
:1005400000201B4905F0B6FC064609F101000F46E4
:1005500006F0EEFE02460B460020154905F0AAFC07
:1005600032463B4604460D46DDE9000106F046FFF3
:1005700007F0DEF90A2690FBF6F707FB16002B467C
:1005800007012246DDE9000106F038FF07F0D0F947
:1005900090FBF6F303FB160007440AF8087009F114
:1005A000020908F10108C4E707B0BDE8F08F00BFF9
:1005B00000002440124A517893784AF2130243EA29
:1005C0000123934213D008D84AF21102934213D068
:1005D0004AF21202934211D00DE04AF21402934201
:1005E00007D04AF22202934205D10420704702202C
:1005F0007047032070477047002070470120704704
:100600009413002010B5074C6018114602F021FA2F
:10061000054B1B781C4414F8073C1B1A58425841E0
:1006200010BD00BF9413002015140020044B18794E
:100630005B7943EA0020431E58425841704700BF8F
:1006400094130020044B9B79552B044B0CBF0122C3
:1006500000221A70704700BF941300201714002066
:1006600010B5084CE379552B01D1012010BD064887
:1006700001F03BFAE3798342F7D0D0F1010038BFB3
:10068000002010BD941300201B14002013B50D4B47
:100690001C7A552C01D1012012E00B48694601F06B
:1006A000C7F900231A461DF803108C42F3D019B97C
:1006B0000132D2B2052AEED00133052BF3D100204E
:1006C00002B010BD941300201B14002070B5054625
:1006D0001E46FFF797FF044698B12846FFF7A6FF8E
:1006E000044658B12846FFF7ADFF2846FFF7B8FF8C
:1006F000044648B946B10C480C4911E00A480C4977
:100700000EE009480B490BE02846FFF7BFFF0446FF
:1007100040B99DF810300BB9012403E002480649A6
:1007200004F038FF204670BDB4140020E2D8000861
:1007300090D80008BED8000819D900081A4B13B584
:100740001B787BB300230093042117220123FFF7BA
:10075000BDFFF0B1154C164804F10C0101F028FA68
:10076000A17AE37A134843EA012101F0CFF910B1ED
:10077000114B01221A70237A552B03D10F4802F036
:10078000C5FF06E0012B04D00C480721012203F02D
:1007900077F90B4B05481A78002102B0BDE81040EC
:1007A00008F038BB02B010BD0800002094130020F0
:1007B000291400201A14002014140020AE14002064
:1007C00015140020174B07B51B7843B30023009383
:1007D00004210A220123FFF779FFB8B11248134917
:1007E00001F0EBF830B11249124804F0D3FE124880
:1007F000032108E011490F4804F0CCFE104B0A22F7
:100800000D481A700421012203F03AF90D4B0E48ED
:100810001A78002103B05DF804EB08F0FBBA03B0CE
:100820005DF804FB080000201B1400209C1300202E
:1008300051D90008B4140020AE14002081D900085A
:10084000AF140020151400209413002013B50023CA
:10085000009304210F22FFF739FF10B31D4C1E48EF
:1008600004F10A0100F0FFFD002830D01A4804F11D
:100870000A0100F033FE50B31849194804F08AFE0B
:100880001848E17901F004F9A0B11749144804F0BF
:1008900081FE16480521012203F0F2F80E4800F00F
:1008A000EFFE134B0B481A78002102B0BDE8104050
:1008B00008F0B0BA0A480F4904F06CFE0E4B0A2249
:1008C0001A700A480621012203F0DAF8E9E7044821
:1008D0000A49F1E7941300201E14002014DA0008DE
:1008E000B41400201B140020B1D90008AE1400205D
:1008F00015140020E3D90008AF14002041DA0008E5
:100900000D4B07B51B789BB10023009304210522F2
:100910000123FFF7DBFE10B1084803F01FF8084B76
:1009200008481A78002103B05DF804EB08F072BAA9
:1009300003B05DF804FB00BF08000020AE140020E7
:10094000151400209413002010B50446FFF732FE62
:10095000032817D8DFE800F00207110C2046BDE895
:100960001040FFF7EBBE2046BDE81040FFF72ABF5E
:100970002046BDE81040FFF7C3BF2046BDE8104049
:10098000FFF764BF10BD00002DE9F047404C002781
:1009900082462770002635463E4804F0AFFC00280A
:1009A00033DD94F800903B4809F10103237004F013
:1009B00051FCDFF8F48008F80900052005F036F94D
:1009C00023781022434413F8011C334804F06FFECF
:1009D0003148324904F0C3FD94F90030002B4346FE
:1009E00002DA2B4A00211170F6B922781A4412F863
:1009F000012C0D2A01D117E00126052DCCD1264866
:100A0000274904F0C7FD0127C4E757B1254922480B
:100A100004F0C0FD5046FFF797FF00232370BDE8A8
:100A2000F0872770BDE8F087042DE5D8DFE805F0F2
:100A3000030C151E27002278134413F8015CB5F14E
:100A40000A035D425D4121E02278134413F8013C22
:100A50000D2B0CBF0225002518E02278134413F853
:100A6000013C0A2B0CBF032500250FE0227813441C
:100A700013F8013C0D2B0CBF0425002506E022785D
:100A8000134413F8013C0A2BB9D00025012683E753
:100A900015140020CC140020B414002045E40008F4
:100AA0006EDA000892DA00089413002008B50120DD
:100AB000002104F0EBFF0120014605F059F8002069
:100AC000014604F0E3FF0420002104F0DFFF0520CD
:100AD000002104F0DBFF0420002105F049F8052087
:100AE000012105F045F8BDE808400020014605F069
:100AF0003FB80000014804F05FBC00BFCC140020E8
:100B000008B561B10021052005F032F8962005F006
:100B10008DF8BDE808400520012105F029B808BD81
:100B200008B50021012005F023F80C4804F047FC2B
:100B30000220002104F0AAFF0320002104F0A6FFF8
:100B40000220002105F014F80320002105F010F820
:100B5000BDE808400520002105F00AB8CC140020AB
:100B600010B50B78452B12D14B78522B0FD18B78C7
:100B7000CC78303B03EB8303303C04EB4304E4B21A
:100B800021460A22034804F09BFD204610BD0A209E
:100B900010BD00BFB41400200B784F2B07D148784C
:100BA0004B2804D113704B780120537070470020FC
:100BB000704730B50020C4B20D5D01302C2D01D03E
:100BC0001D55F8E7601C5525C0B21D55904204D252
:100BD0000C5C1C540130C0B2F8E730BDF8B54C785D
:100BE000432C08D18C78532C05D1CC78B4F1510525
:100BF0006C426C4100E000240026F5B24F5D0136E6
:100C00003A2FFAD10135EDB200279542FEB207F135
:100C1000010706D811F805C0013501F806C0EDB28C
:100C2000F3E73CB92046C2B2B2420BD20A5C1A5476
:100C30000130F8E7069A022412681470721ED2B2CC
:100C4000FFF7B7FF0120F8BD37B5154809B91549B9
:100C500000E0154904F083FC642004F0E7FF002461
:100C60000F4804F04BFB0028E5B208DD062C14D039
:100C70000B4804F0EFFA0DF804000134F0E755B129
:100C80009DF802304F2B08D19DF80300B0F14B03C3
:100C90005842584102E0284600E0002003B030BD31
:100CA000CC140020BDDA0008C1DA000810B50446F3
:100CB0000120014604F05CFF07484FF4165104F090
:100CC0007BFB20460121FFF71BFF20460121BDE8E9
:100CD0001040FFF7B9BF00BFCC1400202DE9F04150
:100CE0009EB005AD0C46074600219046284664227A
:100CF000039308F08FF821462C4804F030FC642060
:100D000004F094FF0024294804F0F8FA0028E6B221
:100D100007DD642C45D0254804F09CFA28550134A1
:100D2000F1E726B92249234804F034FC39E09DF864
:100D300014300D2B35D19DF815300A2B31D11EAB57
:100D4000334413F8653C0A2B2BD1023E1EAB3344CF
:100D500013F8643C0D2B24D10021CCB2A31CDBB2D0
:100D6000B34201F1010107DA1EAA134413F8643CEF
:100D7000144404F8643CF0E738462946FFF7F0FED7
:100D80000A280CD103AB0093384629462246434635
:100D9000FFF724FF00280CBF0320022002E00120FF
:100DA00000E003201EB0BDE8F08100BFCC1400209D
:100DB000C7DA0008B41400202DE9F041B2B00646AD
:100DC0000D4690460021642268461F4608F022F82E
:100DD00019A80021642208F01DF80024E3B2E85CA1
:100DE000013420B132AA134403F8640CF6E701463B
:100DF000CAB25D1818F80240EDB232AA01312A4495
:100E000014B102F8644CF3E70D2302F8643C6B1C48
:100E100032A8DBB203442F480A2203F8642C03688B
:100E200019A95B6898472C48AA1C036819A99B68F4
:100E3000D2B29847642004F0F9FE274804F05EFA25
:100E40000028E5B208DD642C3FD0234804F002FA04
:100E50000DF804000134F0E7002D36D09DF8003085
:100E60000D2B32D19DF801300A2B2ED132AB2B4401
:100E700013F8C93C0A2B28D1023D32AB2B4413F89E
:100E8000C83C0D2B21D100218B1CDBB2AB4201F100
:100E9000010209DA32A8034413F8C83CC9B201447C
:100EA00001F8C83C1146EFE730466946FFF758FEA7
:100EB0000A2808D1304669463A46FFF76DFE80F0B1
:100EC0000100C0B202E0012000E0032032B0BDE822
:100ED000F08100BFB4140020CC140020F7B51E46EA
:100EE000044617460D4600218DF80710FFF7ACFEAB
:100EF00003F086FC204631462FB12A460DF1070348
:100F0000FFF7ECFE03E0089A2B46FFF755FF032896
:100F10002AD8DFE800F011040207002311E0164888
:100F2000164901E01448164904F034FB204601211B
:100F3000FFF78AFE00201CE012490F4804F02AFB4C
:100F400012E09DF807205E1CDBB29A420A4809D9DC
:100F5000E95C102204F0ABFB07480B4904F0FFFAF0
:100F60003346EEE704F000FB20460121FFF76CFE5C
:100F7000012003B0F0BD00BFB4140020DBDA00088C
:100F8000ECDA0008F5DA000845E400082DE9F04342
:100F90008BB004AF804600210922384602AE0024FF
:100FA00007F038FF0094404631460122454BFFF7D9
:100FB00095FF054620B94449444804F0EBFA7DE02A
:100FC0002346F25C07AC092A01D8303204E0A2F1D2
:100FD0000A01052998BF3732E2540133082BF0D1BA
:100FE0004FF000093A488DF8249000F0AFFC02461B
:100FF00000284AD03749354804F0CCFA34483946FD
:1010000000F00AFC00283BD04B46E15CFA5C9142C0
:1010100048D10133082BF8D12F492C4804F0BAFAF3
:101020002E492A4804F09BFA9DF81610274804F030
:1010300091FA9DF81710254804F08CFA9DF81410C9
:10104000224804F087FA9DF81510204804F082FA2F
:101050009DF812101D4804F07DFA9DF813101B48EE
:1010600004F078FA9DF81010184804F073FA9DF80F
:101070001110164804F06EFA144804F075FA1DE0D9
:101080001749124804F086FA07E0009440463146BA
:10109000144BFFF723FF054680B121460C4800F0B2
:1010A00013FC0AE01049094804F074FA009740461E
:1010B000314600220B4BFFF711FF054628460BB0C7
:1010C000BDE8F08301DB00080CDB0008B41400204D
:1010D000191400202CDB0008B4DB0008DEDB00085C
:1010E0004ADB00086EDB000877DB00082DE9F04FD3
:1010F00089B002AF07F10C068346894690461C462C
:10110000304600210A2207F085FE002C48D1C7F89E
:1011100004D05846CDF80080314601224B46FFF7F7
:10112000DDFE824608B1214602E03C483C496BE0C6
:10113000CCB218F804300131002BF9D1E11D01F4D3
:10114000FC71ADEB010D02A9D8B2A04203D2F05C54
:10115000C8540133F8E70B46581AC0B2A0420DD26A
:1011600013F8010B092801D8303004E0A0F10A057A
:10117000052DF1D8373003F8010CEDE70025EBB26F
:10118000A3423FD24B5D013508EB050010F8010C7E
:101190009842F4D02148234904F0FCF97B689D462D
:1011A0006C460023DAB219F8021001330A29F9D18A
:1011B000931D03F4FC73ADEB030DA2F1020E02AB21
:1011C0000020C1B2551EA94200F1010003DA19F84E
:1011D00001505D54F5E700223D215A55584603F869
:1011E0000E10CDF800803146FFF778FE054628B98D
:1011F0000A480D4904F0CEF9AA4601E04FF0010A71
:10120000A54605E00548094904F0C4F97B689D46F8
:1012100050461C37BD46BDE8F08F00BFB414002017
:10122000ECDB000812DC000869DC00088BDC00083D
:101230007FB50F2204460D466846002107F0EAFDFF
:101240005C485D4904F0A6F90A2603F0D9FA204665
:10125000002D65D1FFF79AFE58498DF80000584AD5
:101260002B462046FFF742FF56498DF80100564AAB
:1012700001232046FFF73AFF54498DF80200544AF3
:101280002B462046FFF732FF52498DF80300524AA1
:101290002B462046FFF72AFF50498DF80400504A9C
:1012A00001232046FFF722FF4E498DF805004E4AE4
:1012B0002B462046FFF71AFF4C498DF806004A4A94
:1012C0002B462046FFF712FF49498DF80700444A94
:1012D00001232046FFF70AFF46498DF80800464AD9
:1012E0002B462046FFF702FF44498DF80900444A87
:1012F0002B462046FFF7FAFE42498DF80A00324A93
:1013000001232046FFF7F2FE3F4A8DF80B003F49CC
:1013100020460123FFF7EAFE0D228DF80C0007E0BE
:101320002F4A2E490123FFF7E1FE01228DF800002C
:1013300000231DF80310A9B935491E4804F02AF905
:101340002046FFF7B3FC2046FFF7EAFB03F058FA0C
:101350002046FFF7ABFC4FF4FA6004F067FC03F0A3
:101360004FFA05E00133D9B29142E2D304B070BD27
:10137000284803F0C3FF002803DD264803F06AFF76
:10138000F6E7013E16F0FF067FF45FAF1E223146FE
:10139000214801F0CBFB2149064804F0FBF840F658
:1013A000B83004F043FC03F02BFA04B0BDE8704001
:1013B00003F05ABAB4140020A1DC0008C0DC000815
:1013C000CCDC0008D5DC0008D2DC0008DFDC00083B
:1013D000EBDC0008F4DC000800DD000809DD000893
:1013E00013DD000816DD000820DD000823DD0008FD
:1013F0002DDD000837DD000840DD000843DD000872
:101400004DDD000850DD000865DD00085ADD0008EC
:1014100068DD0008CC1400206414002085DD00087D
:1014200010B500210446152004F030FB15200121E1
:1014300004F09EFB2046BDE81040FEF77BBF08B5D8
:10144000052004F0F3FBBDE808401520012104F05D
:101450008FBB08B51520002104F08AFBBDE80840C9
:10146000052004F0E3BB7FB504460E46FFF7F1FF0D
:101470000D2573192946204613F80D2C0135FEF76A
:1014800089FF162DF5D13046092101F0E2FA064612
:10149000294620463246FEF77DFF0D252946204687
:1014A000FEF74AFF01AB2B440135162D03F80D0C56
:1014B000F4D101A8092101F0CCFAB042204603D0B2
:1014C000FFF7BDFF002007E00B215522FEF762FF6A
:1014D0002046FFF7B4FF012004B070BD7FB504467D
:1014E0000E46FFF7B6FF172573192946204613F855
:1014F000172C0135FEF74EFF202DF5D1304609217E
:1015000001F0A7FA0646294620463246FEF742FF7A
:10151000172529462046FEF70FFF01AB2B44013566
:10152000202D03F8170CF4D101A8092101F091FA3C
:10153000B042204603D0FFF782FF002007E00C21D5
:101540005522FEF727FF2046FFF779FF012004B060
:1015500070BDF0B585B001AD06460F4628460021A6
:10156000092207F057FC0D2421463046FEF7E4FE21
:101570002B190134162C03F80D0CF5D121463046F9
:10158000FEF7DAFE09210446284601F062FA844299
:1015900006D10023EA5CFA540133092BFAD101E0A9
:1015A000002000E0012005B0F0BDF0B585B001AD30
:1015B00006460F4628460021092207F02BFC172477
:1015C00021463046FEF7B8FE2B190134202C03F8D3
:1015D000170CF5D121463046FEF7AEFE0921044630
:1015E000284601F036FA844206D10023EA5CFA5418
:1015F0000133092BFAD101E0002000E0012005B001
:10160000F0BD37B50C461E210546FEF795FE1F219D
:101610008DF804002846FEF78FFE02218DF80500A4
:1016200001A801F016FA207003B030BD10B50446D1
:10163000FFF70FFF002220460B21FEF7ABFE2046EE
:10164000FFF7FDFE20460B21FEF776FED0F10100EC
:1016500038BF002010BD10B50446FFF7FAFE002287
:1016600020460C21FEF796FE2046FFF7E8FE2046B6
:101670000C21FEF761FED0F1010038BF002010BD43
:1016800010B50446FFF7E5FE552220462121FEF75E
:1016900081FE2046FFF7D3FE20462121FEF74CFEB7
:1016A000B0F155035842584110BD38B504461020DA
:1016B00004F048FA08B1002038BD41F2883004F047
:1016C000B5FA102004F03EFA05460028F3D1204672
:1016D000FFF7BFFE2A4620462121FEF75BFE20468B
:1016E000FFF7ADFE20462121FEF726FED0F10100D6
:1016F00038BF002038BD08B52121FEF71DFEB0F12E
:1017000055035842584108BD70B504460D46FFF7D1
:1017100020FF20B120462946FFF747FF48BB20465F
:101720002946FFF716FF48B11549164803F032FF66
:1017300020462946BDE87040FFF7D0BE2046294626
:10174000FFF733FF06460F4846B10F4903F022FF6B
:1017500020462946BDE87040FFF785BE0B4903F0DF
:1017600019FF2046FFF762FF2046FFF774FF30465F
:1017700070BD0749034803F00DFF012070BD00BF95
:10178000B1DD0008B4140020E8DD00081FDE000809
:1017900033DE000810B535210446FEF7CDFD55288F
:1017A00013D02046FFF755FE552220463521FEF77F
:1017B000F1FD2046FFF743FE20463521FEF7BCFD34
:1017C000B0F155035842584110BD012010BD08B575
:1017D0003521FEF7B1FDB0F155035842584108BD1F
:1017E00010B535210446FEF7A7FD98B12046FFF756
:1017F00030FE002220463521FEF7CCFD2046FFF7C3
:101800001EFE20463521FEF797FDD0F1010038BFBE
:10181000002010BD012010BDF7B505460E464F242F
:1018200021462846FEF788FD00AB23440134572C9F
:1018300003F84F0CF4D10821684601F00AF921465B
:1018400007462846FEF778FD87420CD100231DF895
:101850000320F2540133082BF9D10448044903F062
:1018600099FE012000E0002003B0F0BDB414002078
:1018700099DE000810B558210446FEF75DFD552895
:101880000CD02046FFF7E5FD204658215522FEF7F3
:1018900081FD2046BDE81040FFF7D1BD10BD10B559
:1018A00058210446FEF748FD60B12046FFF7D1FD00
:1018B000204658210022FEF76DFD2046BDE810406D
:1018C000FFF7BDBD10BD0000F7B50F460446FFF79A
:1018D000C0FD3846082101F0BCF84F2506467B19AB
:1018E0002946204613F84F2C0135FEF753FD572D9E
:1018F000F5D1294620463246FEF74CFD4F252946B4
:101900002046FEF719FD00AB2B440135572D03F897
:101910004F0CF4D16846082101F09BF8864207D0AD
:101920002046FFF7BCFF2046FFF789FD002007E0B7
:101930000449054803F02EFE2046FFF79BFF0120D7
:1019400003B0F0BDAEDE0008B414002008B5582185
:10195000FEF7F2FCB0F155035842584108BD70B58E
:1019600004460E461546FFF774FD204632462221F6
:10197000FEF710FD20462A462321FEF70BFD2046E8
:10198000BDE87040FFF75BBDFEF7D6BCFEF7D4BCE8
:1019900070B504460E461546FFF75BFD20463246FD
:1019A0002421FEF7F7FC20462A462521FEF7F2FC0B
:1019B0002046BDE87040FFF742BDF8B504460E462C
:1019C000FFF747FD262573192946204613F8262CD4
:1019D0000135FEF7DFFC2B2DF5D10521304601F056
:1019E00038F80746294620463A46FEF7D3FC262516
:1019F00020462946FEF7A0FC731913F8263C8342C3
:101A000014D101352B2DF3D120462946FEF794FC45
:101A1000B842204608D12C215522FEF7BBFC2046B7
:101A2000FFF70DFD0120F8BDFFF709FD0020F8BD0F
:101A300070B506460D46262421463046FEF77CFC4E
:101A40002B1901342B2C03F8260CF5D170BD38B5B9
:101A50000446FFF7FEFC2625002220462946FEF715
:101A600099FC20462946FEF767FC024620B1204635
:101A7000FFF7E5FC002038BD01352B2DECD12046C9
:101A80002C21FEF787FC2046FFF7D9FC012038BD4A
:101A900037B502AD04468DF80710FFF7DAFC15F8EC
:101AA000012D20462D21FEF775FC0121284600F06E
:101AB000D0FF2E2102462046FEF76CFC20462D2149
:101AC000FEF73AFC9DF807308342204608D12F21CB
:101AD0005522FEF75FFC2046FFF7B1FC012002E033
:101AE000FFF7ADFC002003B030BD2D21FEF724BC74
:101AF00010B50446FFF7ADFC20462D210022FEF76D
:101B000049FC2046FFF79BFC10BD00004A1F4AF627
:101B1000BB039A4270B504460D4628D83221FEF721
:101B20000BFC332106462046FEF706FC40EA062061
:101B3000A84204D10F49104803F02CFD15E02046BF
:101B4000FFF787FC20463221C5F30722FEF722FC6F
:101B500020463321EAB2FEF71DFC204634215522EF
:101B6000FEF718FC2046FFF76AFC012070BD00203C
:101B700070BD00BFC3DE0008B414002038B53221A8
:101B80000546FEF7D9FB332104462846FEF7D4FB71
:101B900040EA042038BD08B53421FEF7CDFBB0F192
:101BA00055035842584108BD032002F0D5BA000041
:101BB00070B55E480D46097801F063FD6978064608
:101BC0005A4801F05EFD06EB8606594C06EB860688
:101BD00000EB8600E080A978544801F052FD607166
:101BE000E978524801F04DFD207129794F4801F004
:101BF00048FD6979A0704D4801F043FDA9796070F6
:101C00004A4801F03EFD4B4920704B4803F0A7FCC9
:101C1000E1880A22484803F032FD4849464803F06B
:101C20009EFC61790A22444803F04AFD4449424837
:101C300003F095FC21790A223F4803F041FD414918
:101C40003D4803F08CFCA1780A223B4803F038FDA4
:101C50003D49394803F083FC61780A22364803F095
:101C60002FFD3A49344803F07AFC0A2221783248A1
:101C700003F026FD02F064FD642003F0D7FF204648
:101C8000FEF7FAFA0146324802F084F9642003F0C4
:101C9000CDFF02F05BFD2E4802F07FF901462046A1
:101CA000FEF75EFAE1886423B1FBF3F1C9B21F4885
:101CB00001F0DEFC2870E2884FF47A73B2FBF3F196
:101CC00003FB11211948C9B201F0D2FC6870617997
:101CD000164801F0CDFCA8702179144801F0C8FC29
:101CE000A178E870114801F0C3FC617828710F48B1
:101CF00001F0BEFC217868710C4801F0B9FC0024A9
:101D0000A871295D10220C4803F0D1FC01340A4867
:101D1000104903F024FC072CF3D1074803F024FCFE
:101D2000BDE8704004480C4903F034BCAD140020F9
:101D300020140020E2DE0008B4140020E9DE0008D0
:101D4000F1DE0008F7DE0008FEDE000808DF00080C
:101D50002A14002045E4000812DF000870B51C4872
:101D60000D4602F01AF91B4C01462046FEF7F8F921
:101D7000E188194E6423B1FBF3F1C9B2304601F09A
:101D800077FC2870E2884FF47A73B2FBF3F103FB1F
:101D900011213046C9B201F06BFC687061793046A0
:101DA00001F066FCA8702179304601F061FCA17851
:101DB000E870304601F05CFC61782871304601F033
:101DC00057FC21786871304601F052FCA87170BD53
:101DD0002A14002020140020AD14002070B54C48B7
:101DE00086B0FEF749FA044602F0AAFC0A2003F086
:101DF0001DFF2146474802F0CDF8464802F0CDF8D5
:101E000005464548FFF7C7FE444E002859D04248D2
:101E1000FFF7B4FE4AF6B103A0F10F029A4204465E
:101E200019D93F49684603F06FFD694603A803F0DE
:101E30008CFDB42103A803F017FE3A4903F0F8FD26
:101E40000146394803F09CFB03A803F01BFD6846DC
:101E500003F018FDB4243378012B0BD1B4F5966F41
:101E600003D925446846314915E005F5966503A870
:101E70002F4938E0022B0BD1B4F5166F03D9254456
:101E800068462C4907E005F5166503A82A492AE0AB
:101E90002A492544684603F037FD694603A803F044
:101EA00054FD214603A803F0DFFD1E4903F0C0FDE9
:101EB00001461D4803F064FB03A803F0E3FC6846F9
:101EC00018E03378012B04D105F5966503A81C4969
:101ED00009E0022B04D105F5166503A8194902E0B3
:101EE0001949B43503A803F00FFD0F4803A903F007
:101EF00047FB03A803F0C6FC14492A46054802F034
:101F00004EF80A2003F092FE02F020FC06B070BDED
:101F1000201400202A1400201A1400202814002065
:101F200035DF00083BE00008B4140020A9DF0008FA
:101F3000F2DF00083DE000088FE00008E3E0000861
:101F40002FE10008A4E1000822E20008A91B000814
:101F500030B5154885B0FEF78FF9144C054602F0F0
:101F6000EFFB0A2003F062FE2946204602F012F839
:101F7000204602F012F80E49054601A803F0C4FC01
:101F800001A90C4803F0FCFA01A803F07BFC0A4904
:101F900005F56162204602F002F80A2003F046FED1
:101FA00002F0D4FB05B030BD201400202A1400201C
:101FB00099E20008B4140020A91B0008014811216F
:101FC00001F0DFBF2A1400202DE9F84300240F465A
:101FD0009046994625464C4513DA5FFA88F601216A
:101FE000304603F0C5FD0A2003F020FEF8B203F0EE
:101FF000A9FD002100EB4505304603F0B9FD013491
:10200000E9E72846BDE8F88370B5D4B21D46EDB2C5
:102010000E462046002103F039FD2846002103F03A
:1020200035FD2046012103F0A3FD2846012103F0E0
:102030009FFD2046002103F09BFD2846002103F070
:1020400097FD2846012103F093FD2046012103F06E
:102050008FFD2846002103F08BFDF3B201222046BC
:10206000294603F0B1FD2846012103F081FD2046F9
:10207000022103F00BFD204603F064FD28460021F9
:1020800003F076FD2046BDE8704003F05BBD38B537
:10209000CDB22846022103F0F9FC64240A2003F0A3
:1020A000C5FD284603F04EFD08B1013CF6D138BD10
:1020B0002DE9F843CCB2154680460E46EFB22046D5
:1020C000022103F0E3FC3846002103F0DFFC2A463E
:1020D000082331464046FFF777FF00214FEA0029E9
:1020E000204603F0D3FC2046012103F041FD2046A9
:1020F000002103F03DFD3846012103F039FD38464B
:10210000002103F035FD2046022103F0BFFC4046CC
:1021100031462A460823FFF757FF49EA0000BDE889
:10212000F88338B51446CDB2E4B22846002103F056
:10213000ADFC2046002103F0A9FC2846012103F054
:1021400017FD2046012103F013FD20460021BDE8C4
:10215000384003F00DBD38B590E80C00044603216B
:10216000FFF752FF20462168FFF791FF94E8060031
:102170002046FFF79DFF94E8060005462046FFF73E
:10218000D0FF284605F026FD38BD000008B5FFF752
:10219000E2FF05F039FF05F01DFD034905F06EFD76
:1021A000024905F061FC08BD0AD7233C000020422B
:1021B000F8B590E80C0004460521FFF725FF2046FE
:1021C0002168FFF764FF94E806002046FFF770FFE0
:1021D00094E8060005462046FFF7A3FF284605F0D1
:1021E000F9FC1E49064605F049FD4FF0814105F016
:1021F0003BFC1B490546304605F040FD314605F0E5
:102200003DFD0146284605F031FC07462046FFF714
:10221000BDFF05F09FF80022124B04F03BFF04467F
:102220000D463046104905F029FD104905F01EFC09
:1022300005F090F802460B462046294605F0DEF8E8
:10224000044638460D4605F085F802460B46204602
:10225000294604F021FF05F0B3FBF8BD54E3253D0A
:10226000A2E73BB600003940ACC5A7380AD7233CEB
:10227000024B1D211C2283E8060070472C1400200D
:1022800007B53248FFF737FA78BB314B3149187040
:102290002E48FFF7E8F828B12C482E49FFF71EF921
:1022A000002848D12C48FFF723FC20B12A48FFF72B
:1022B000CEFB002844D101238DF8003026480023AE
:1022C00069468DF801308DF802308DF803308DF8B5
:1022D0000430FFF772FB18B12048214903F05AF986
:1022E00020480021052200F021FC1C481E4903F073
:1022F00051F91648FFF7FFF9B8B9102003F022FC96
:1023000078B941F2883003F091FC102003F01AFCF8
:1023100038B9164801F0FAF9102003F013FC002830
:10232000FAD01348FEF730FBE3E7094B01221A709D
:1023300003B05DF804FB0F49084803F02BF9B1E73F
:102340000D49064803F026F9B5E700BF1E1400202A
:1023500008000020381400201B140020B4140020B2
:10236000EDE20008641400200AE30008AE14002027
:10237000161400201DE3000831E30008F8B5114EE3
:1023800003253468104B1A781F46CAB90F4801F06C
:10239000FDFB326804F51C5310339A4201D23B789E
:1023A00053B1013D15F0FF053468EBD1BDE8F840AD
:1023B0000748084903F0EEB80748FEF7E5FAE8E7F2
:1023C000F8BD00BF9415002014140020AE140020A6
:1023D000B414002060E300081614002008B514208F
:1023E00003F0B0FB30BB642003F020FC142003F0AA
:1023F000A9FBF8B94FF4FA6003F018FC0E490F4836
:1024000003F0C8F84FF4FA6003F010FC142003F056
:1024100099FB78B9642003F009FC142003F092FBC7
:1024200040B90748FFF7DCF9BDE808400348054913
:1024300003F0B0B808BD00BF7FE30008B41400206B
:102440001914002093E3000810B5104C10492046E1
:1024500003F0A0F80F49204603F09CF8204602F054
:1024600031FF0D4800F08CFB0120002103F080FBC0
:102470000121132003F07CFB012002F003FA01206C
:1024800002F01AFABDE8104002F002BAB4140020BB
:10249000D7E30008E9E3000864140020B44B30B52A
:1024A0001A688DB022F0E06242F000721A60B14802
:1024B00000F016FBB0484FF4165102F07DFFAF4814
:1024C0004FF41651FEF716FB4FF41651AC4802F0CC
:1024D00073FF02F028F9A948FEF7E8FA0820002166
:1024E00003F0D4FA0021082003F042FBA548FEF7D0
:1024F00097FF0121A148FEF7A7FB4FF47A7003F084
:1025000095FBA148FEF740FA0021132003F030FBB1
:102510000A2003F08BFB9D49974803F03BF89C4849
:102520002221FFF733FA0228044606D198482321D6
:10253000FFF72CFA122805461CD0122294480221DB
:10254000FFF70DFA9349684603F0DEF9694606A8DD
:1025500003F0FBF91022022103A803F011FA03A9EA
:1025600006A803F058FA8C4903F062FA12210446D7
:1025700009A816E08949684603F0C6F9694606A825
:1025800003F0E3F92146102203A803F0F9F903A9A7
:1025900006A803F040FA804903F04AFA29460446A7
:1025A00009A8102203F0ECF9204609A903F033FA38
:1025B0000146714802F0E4FF09A803F063F903A89B
:1025C00003F060F906A803F05DF9684603F05AF9D4
:1025D0006F482421FFF7D8F90728044617D16C4823
:1025E0002521FFF7D1F91028054610D16C4906A81E
:1025F00003F08AF906A909A803F0A7F9214609A85A
:1026000003F028FA644903F013FA294614E0102273
:102610005F480721FFF7BCF9624906A803F074F987
:1026200006A909A803F091F9072109A803F012FAF5
:10263000594903F0FDF9102103F00CFA01464E4808
:1026400002F09EFF09A803F01DF906A803F01AF98D
:10265000FFF7C4FE5448FFF7BAF8014680B947486F
:10266000FEF7E6FD45480121FEF74AFA01214348FD
:10267000FEF7EAFA4448FEF787F94B48FFF78AF875
:102680004A48FFF712F8FFF7FBFD49494748FFF7B3
:102690003BF80146B0B90A22364800F047FA4549EE
:1026A000354802F077FF444801F0ECF84FF47A70B7
:1026B00003F0BCFA3448FEF767F940F6B83003F08F
:1026C000B5FAE2E73D492C4802F064FF2A483C494C
:1026D00002F045FF0024364B1022195D264802F017
:1026E000E6FF01342448374902F039FF092CF2D1C2
:1026F000214802F039FF0A2201211E4800F016FA93
:102700001C4800F055FA04461A4800F051FA2044DB
:1027100044082D4906A803F0F7F806A909A803F014
:1027200014F9214609A803F09FF9284903F080F91C
:102730000146114802F024FF09A803F0A3F806A8F7
:1027400003F0A0F840F6B8339C4207D8642003F0A9
:102750006DFA1F48FFF7FCFBFFF776FEFFF70EFE52
:1027600040F673639C421B4B36D900223AE000BF0F
:102770000400014064140020B41400201814002048
:10278000E41400201D1400201614002095EC00080D
:102790001C14002068E40008ACDE0008B3E4000864
:1027A000C9E40008DFE40008191400201E1400200A
:1027B00038140020FCE30008AE1400202FE40008C9
:1027C00047E4000845E4000851E4000865E4000817
:1027D000291400202814002040F6E44294428CBFC3
:1027E0000122022202481A70FFF7F8FA0DB030BD3C
:1027F00029140020FFF728BE0A4B1A680A4B9B6871
:1028000000BF00BF074909688A42F5D1C3F58C3380
:10281000482103F5A073B3FBF1F34FF47A7000FB8A
:10282000023070479415002010E000E010B5044617
:1028300080E80600D0B2002103F028F920780021BA
:1028400003F024F900232079E360012103F090F9DB
:1028500020780121BDE8104003F08AB938B5C3687B
:1028600004460D4623B10021C160007803F00EF943
:1028700020782946BDE8384003F07AB910B5002128
:102880000446FFF7EBFF642003F0DEF92079002116
:1028900003F06EF9BDE81040642003F0D5B910B51F
:1028A00000210446007903F063F9642003F0CCF9B9
:1028B00020460021FFF7D2FF642003F0C5F92079FC
:1028C000012103F055F9642003F0BEF920460121EF
:1028D000FFF7C4FFBDE81040642003F0B5B9F8B5B8
:1028E00004460E460825F7092079002103F040F937
:1028F00020463946FFF7B2FF0121207903F038F96D
:10290000642003F0A1F920463946FFF7A7FF7600BF
:10291000013DF6B2E7D12946207903F029F9207864
:10292000022103F0B3F80223E3602079012103F0D0
:102930001FF9FFF761FF0546207803F003F930B176
:10294000FFF75AFF401B6428F6D90020F8BD01208C
:10295000F8BD38B50D460446FFF790FF69002046E4
:1029600001F0FE01FFF7BBFF38BD08B5FFF797FF89
:10297000002008BD08B5FFF7B2FF08BD70B50D46D1
:102980006D0004461646FFF779FF691CA6602046D5
:10299000C9B2FFF7A4FF70BD70B586680446002E6B
:1029A00055D00078022103F071F80223E360082576
:1029B00000262079002103F0DBF80121207903F0C3
:1029C000D7F8642003F040F9207803F0BBF8013D0C
:1029D00000EB460000F0FF06EBD1A3686068013B06
:1029E000002BA360C0B2294617DD03F0C1F86420B4
:1029F00003F02AF929462046FFF730FF642003F050
:102A000023F92079012103F0B3F8642003F01CF9C5
:102A10002079294603F0ACF819E003F0A9F8642006
:102A200003F012F901212046FFF718FF642003F09C
:102A30000BF90121207903F09BF8642003F004F9DD
:102A40002079294603F094F82046FFF728FF304606
:102A500070BD002330B5054618468B420FDAEA5C9C
:102A60005040082210F0010F4FEA60041ABF84F0B2
:102A7000E000C0B2E0B2013AF4D10133EDE730BD7D
:102A800008B5134B13491A68096801328A421A6063
:102A90001DD3114900221A600B78DB43DBB20B70A7
:102AA0000E49097841B1012911D1182003B111460D
:102AB00003F05EF8192005E0192003B9012103F0A5
:102AC00057F818200021BDE8084003F051B808BDB0
:102AD0005814002060140020541400205C140020BE
:102AE00008B51320002102F0D1FF1820002102F0C8
:102AF000CDFF1920002102F0C9FF1020022102F0B1
:102B0000C5FF1420022102F0C1FF0321072002F0BB
:102B1000BDFF0A2003F08AF81820002103F028F8EE
:102B2000BDE808401920002103F022B80F4B10B572
:102B30000F4C19700F4B20461A600121022202F03F
:102B4000AFFC20460C4902F08CFC012120460A46CD
:102B500002F0AAFC20460121084A02F0B4FC2046FB
:102B60000021BDE8104002F073BC00BF5C140020DF
:102B70005415002060140020A0860100812A00085E
:102B800008B5064802F04EFC1820002102F0F0FFC4
:102B9000BDE808401920002102F0EABF54150020CA
:102BA000014802F047BC00BF54150020000000009F
:102BB00030B58BB001AD28460021242206F02AF959
:102BC0000024072002F0B0FF04F0B2FB12A3D3E907
:102BD000002304F013FC0022114B04F00FFC04F05E
:102BE000CFFE28514FF47A70043403F02DF8242CD2
:102BF000E7D109226B4608AC53F8040F59688842A4
:102C000084BF58601960A342F6D1013A12F0FF0266
:102C1000F0D105980BB030BDF163CC5D4BC8E93FF6
:102C200000001840AFF3008008B51620002102F024
:102C30002DFF1720002102F029FF1620012102F0AC
:102C400097FFBDE808401720012102F091BF17202F
:102C5000002102F01BBF1720042102F017BF08B5A6
:102C6000FFF7F5FF1720012102F082FF0121162056
:102C700002F07EFF052002F0E7FF0021172002F09E
:102C800077FF062002F0E0FFBDE808401620002193
:102C900002F06EBF08B5FFF7DAFF1620002102F040
:102CA00067FF1720002102F063FF0121162002F0C8
:102CB0005FFF062002F0C8FF1720012102F058FF35
:102CC000BDE80840062002F0BFBF10B50021044651
:102CD000162002F04DFF2046FFF7B9FF0021172014
:102CE00002F046FF022002F0AFFF0121162002F0A1
:102CF0003FFF052002F0A8FFBDE81040162000218C
:102D000002F036BF10B500210446162002F030FF55
:102D10002046FFF79CFF0121172002F029FF022027
:102D200002F092FF0121162002F022FF052002F09E
:102D30008BFFBDE810401620002102F019BF70B5CE
:102D40000646FFF788FF0121172002F011FF01203E
:102D500002F07AFF1620012102F00AFF012002F0A2
:102D600073FFFB25172002F0EDFE044640B1013D44
:102D700015F0FF05F6D13046FFF78CFF012070BD3E
:102D80001620214602F0F4FE204670BD38B50C46F0
:102D9000FFF75DFF1620002102F0EAFE082524F06F
:102DA0007F0303F0FF01172003B1012102F0E0FED1
:102DB0000121162002F0DCFE022002F045FF162061
:102DC000002102F0D5FE013D0220640002F03CFF2C
:102DD00015F0FF05E4B2E2D138BDF8B505460F465F
:102DE000FFF739FF082600240021162002F0C0FE5C
:102DF000022002F029FF1620012102F0B9FE640032
:102E00001720E4B202F09EFE08B10134E4B20120C2
:102E1000013E02F019FF16F0FF06E5D1284617B96A
:102E2000FFF770FF01E0FFF750FF2046F8BD704745
:102E3000012070470120704710B5FF2301441A4656
:102E4000884208D010F8014B5440044A125D5A40A1
:102E5000034B1B5DF4E743EA022010BD090000208C
:102E60000B01002070B5094D094C064622782978DF
:102E70000848FFF7DBFC2878012102F079FE207872
:102E8000012102F075FE304670BD00BF090100202F
:102E90000A0100209C14002010B5064C2046FFF7C4
:102EA00058FD2046FFF761FDD0F1010038BF00203A
:102EB00010BD00BF9C14002010B54A2104460548EF
:102EC000FFF7EAFF28B1236820461B6801219847D5
:102ED000012010BDAC14002070B5094C15462046E9
:102EE0001E46FFF736FD29462046FFF743FD2046E4
:102EF0003146FFF73FFD2046BDE87040FFF735BD86
:102F00009C140020F8B5134814461E460F469DF841
:102F10001850FFF71EFD21460E48FFF72BFD0D4808
:102F2000FFF723FD0B4CA5B12A4620463946FFF793
:102F300025FD0022237A551C33B10648D7B2FFF78E
:102F40002BFD2A46F055F5E70248BDE8F840FFF7AB
:102F50000CBDF8BD9C140020F0B51C4685B00123C3
:102F600000930DF10F03154607460E46FFF7CAFF03
:102F70009DF80F309DF8282023EA040314402343D2
:102F8000384631462A468DF80F30FFF7A5FF05B0C9
:102F9000F0BD000013B5002471B1012213460B48A7
:102FA0004A210094FFF7D8FF4A21009407480222E3
:102FB0004023FFF7D1FF8021009104484A210222DB
:102FC0008023FFF7C9FF02B010BD00BFAC14002082
:102FD00008B51E220F481F21FFF728FC38210D4895
:102FE000FFF7B7FC06210B48FFF7C4FC0948FFF7C1
:102FF000BCFC4FF4FA7002F019FE0748FFF75CFFC3
:1030000010B10648064901E004480649BDE80840F9
:1030100002F0C0BA4414002068140020B414002048
:1030200068E5000881E50008F0B5334C85B00D4631
:103030001646FFF7CDFF392101222046FFF79EFCFF
:10304000012002F0F3FD277A1FB12046FFF7A4FC10
:103050000746382101222848FFF790FC012002F0A2
:10306000E5FD207A10B12448FFF796FC40EA0720DE
:1030700004F04EF91EA3D3E9002304F0BFF904F0D5
:103080007FFC1E4930601E4802F069FA31680A224E
:103090001B4802F028FB022300931A4803AB4A2185
:1030A0000322FFF72FFF9DF80D209DF80C3002F052
:1030B0000F0242EA03122D21D2B24A431B0902FA3F
:1030C00003F34FF47A72B3FBF2F32B600E490C4812
:1030D00002F045FA29680A22094802F00EFB0B4962
:1030E000074802F057FA05B0F0BD00BFAFF300800B
:1030F0000AD7A3703D0A773F441400209AE50008E0
:10310000B4140020AC140020A0E50008B7E50008C6
:1031100008B50348FFF7A6FE024A034B1A6008BD34
:10312000AC14002038E50008681400202DE9F043B5
:103130001E46504B87B018688846596801AC03ADED
:1031400003C4174600210A22284605F063FE9DF8B5
:10315000383006AC04F8143D20460621FFF76CFE1B
:10316000030A8DF80B0044488DF80A3003682146A5
:103170009B68082298474FF4967002F057FD002490
:103180003D4802F0BBF800285FFA84F90EDD092CF7
:1031900006D13A483A4902F0FDF94FF0000905E03E
:1031A000354802F057F828550134E9E733483549E6
:1031B00002F0F0F9B9F1000F0DD133492F4802F0B8
:1031C000E9F92E482F4902F0E5F99DF80C309DF8F9
:1031D000144073B123E000244C45EED2295D102247
:1031E000264802F064FA2548284902F0B8F901346B
:1031F000F2E70DF10D000721FFF71EFE9DF81530D7
:1032000043EA042484422CD19DF811309DF810002B
:103210009DF8124043EA00209DF8133013E0284641
:103220000721FFF709FE9DF8133044EA0324844286
:1032300017D19DF810309DF80F009DF8114043EA1A
:1032400000209DF8123043EA042404F0BFFC10492A
:1032500004F0C8FDC8F800003C60E40B34700120A5
:1032600004E006480B4902F095F9002007B0BDE8DC
:10327000F08300BF50E50008E4140020B4140020DF
:10328000BCE50008DDE5000895EC000845E4000811
:103290000000C842F9E50008F0B50F4642498DB07C
:1032A0000868496801AB03AD03C30CAC16460021A6
:1032B0000922284605F0AEFD04F82C6D20460621B3
:1032C000FFF7BAFD030A8DF80B0038488DF80A3075
:1032D000036821469B68082298474FF4967002F0D5
:1032E000A5FC0024314802F009F80028E6B20DDD03
:1032F000082C05D12E482F4902F04CF9002605E094
:103300002A4801F0A7FF28550134EBE728482A494D
:1033100002F040F9002E32D12849254802F03AF94E
:103320002549234802F036F928460521FFF784FD98
:103330009DF811209DF8123043EA022383422CD1DC
:103340009DF810309DF80F401D4906A843EA04245B
:1033500002F0DAFA06A909A802F0F7FA214609A84C
:1033600002F082FB0146124802F00AF909A802F0B5
:1033700089FA06A802F086FA3C60012012E00024D7
:10338000B442C9D2295D1022094802F090F90848D8
:103390000C4902F0E4F80134F2E705480A4902F06A
:1033A000F9F800200DB0F0BD58E50008E414002045
:1033B000B414002035E6000856E6000895EC000835
:1033C00072E6000845E400087DE600082DE9F041BA
:1033D00017463C4A86B010688846516801AC03AD78
:1033E0001E4603C40A2206AC0021284605F012FD41
:1033F00004F8146D20460621FFF71EFD030A8DF820
:103400000B0031488DF80A30036821469B6808227A
:1034100098474FF4967002F009FC00242A4801F006
:103420006DFF0028E6B20DDD092C05D1274828499B
:1034300002F0B0F8002605E0234801F00BFF285504
:103440000134EBE72148234902F0A4F826BB2249C6
:103450001E4802F09FF81F491C4802F09BF82846BE
:103460000721FFF7E9FC9DF813209DF8143043EA8B
:10347000022383421ED19DF80F209DF810309DF845
:10348000111043EA02239DF81220012042EA012292
:10349000C8F800203B6012E00024295D10220B4890
:1034A00002F005F9013409480C4902F058F8092CDA
:1034B000F3D1CCE705480A4902F06CF8002006B0C9
:1034C000BDE8F08160E50008E4140020B414002099
:1034D0009DE60008C1E6000895EC000845E40008F8
:1034E000E0E6000837B50121082002F041FB4FF467
:1034F0007A7002F09BFB4E48FEF748FE4D4C0425C7
:103500002060642002F092FB4948FEF751FEA06063
:10351000642002F08BFB4849012300934748A1F146
:1035200008020B1FFFF702FE08B9013DF3D164202A
:1035300002F07CFB0425424940480A1D0123FFF7A5
:1035400045FF08B9013DF6D1642002F06FFB042568
:103550003A483C490222FFF79FFE08B9013DF7D1E6
:10356000642002F063FB3849344801F11802FFF788
:103570005BFD642002F05AFB3449354801F0EFFF4F
:10358000206803F0E7FE022502460B46009530480E
:1035900002F06AF92F492E4801F0E1FFA06803F01C
:1035A000D9FE009502460B46294802F05DF92A49EA
:1035B000274801F0D4FF23696421B3FBF1F10A220B
:1035C000234802F090F82549214801F0C8FFA06A7D
:1035D00004F0FCFA224904F005FC03F0BBFE009560
:1035E00002460B461A4802F03FF91E49184801F0FE
:1035F000B6FFA06903F0AEFE00950B4602461448E4
:1036000002F032F91849124801F0A9FFE1690A22D3
:103610000F4802F068F815490D4801F0A0FF0C486A
:10362000216A0A2203B0BDE8304002F05CB800BF56
:103630002C14002070140020881400206C1400202A
:103640008C140020981400207C14002016E7000839
:10365000B414002035E7000810E7000824E700084C
:103660000000C8422FE7000840E700084DE70008C7
:103670000A22B1FBF2F302FB131202EB0310C0B2F9
:10368000704701F00F03090901EB810103EB4100D1
:10369000C0B2704737B50C460C480DF10701FDF775
:1036A000B0FF9DF807304FF47A705843084902F094
:1036B00080FA9DF80730054664205843054902F01A
:1036C00078FA2844206003B030BD00BF1E140020EB
:1036D00080841E00400D030070B50E461546002480
:1036E000E3B2AB42074809D2315D102201F0DFFF9F
:1036F0000448054901F033FF0134F1E7BDE87040AB
:1037000001F032BFB414002045E4000830B595B094
:1037100040220546002104A805F07CFB002414A9E2
:1037200041F8504D28466946FFF7B4FF009802F073
:103730008BFAFE238DF81030E0238DF81130112321
:103740008DF8123024238DF8133001238DF81530B5
:10375000444B8DF814401B7803B1552342488DF833
:103760001630FEF7C2F901AC8DF8170021463E482D
:10377000FEF75EF9002304AA1A44E15C0133052B2D
:103780001172F8D139482146FDF7E3FE002304AA5F
:103790001A44E15C0133092B5173F8D10024012351
:1037A000222133488DF826308DF827408DF82840A7
:1037B0008DF829408DF82A408DF82B408DF82C404B
:1037C0008DF82D408DF82E408DF82F40FEF7DEF855
:1037D00023218DF830002648FEF7D8F824218DF8F3
:1037E00031002348FEF7D2F825218DF83200204819
:1037F000FEF7CCF824218DF8330005A88DF834406D
:103800008DF835408DF836408DF83740FFF721F9B7
:103810008DF83800E30704AB234404F1010454BFDE
:103820000D220A22062C83F82920F3D111491248CF
:1038300001F0B0FE04A928462F22FFF74DFF0F48E4
:10384000FFF79EF90E4804A903682F229B6898474A
:103850004FF4FA7002F0EAF90848FFF7A1F915B041
:1038600030BD00BF171400201B1400201E140020C0
:103870001C1400205AE70008B4140020641400202F
:10388000CC14002030B587B014220446002101A8D2
:1038900005F0C0FA002506A941F8185D20466946E2
:1038A000FFF7F8FE009802F0CFF9FE238DF8043000
:1038B000E0238DF8053013238DF8063005238DF8AD
:1038C000073001238DF809301E4B8DF808501B7806
:1038D00003B155231C488DF80A30FEF706F9012381
:1038E0008DF80B00052102A88DF80C30FFF7B1F818
:1038F00000238DF80D00DA0701AA1A4403F1010331
:1039000054BF0D210A21062B9172F4D10F491048A2
:1039100001F040FE01A920461022FFF7DDFE0D4810
:10392000FFF72EF90C4801A9036810229B689847FD
:103930004FF4FA7002F07AF90648FFF731F907B050
:1039400030BD00BF171400201B14002076E70008CC
:10395000B414002064140020CC14002030B58DB0C5
:103960001E220546002104A805F054FA00240CA9E3
:1039700041F8244D2846ADF80840FFF78BFE039828
:1039800002F062F9344B0094344802A90122FDF799
:10399000A5FAFE238DF81030E0238DF811301423A2
:1039A0008DF8123012238DF8133001238DF8153065
:1039B0002B4B8DF814401B7803B1552329488DF803
:1039C0001630FEF792F801238DF81830264B0024AC
:1039D0001B788DF817009DF8081024488DF81930D1
:1039E0008DF81A408DF81B40FFF74BFE9DF809102B
:1039F0008DF81C001D48FFF744FE12218DF81D00B4
:103A000005A8FFF726F823468DF81E00DA0704AA5A
:103A10001A4403F1010354BF0D210A21062BD1736F
:103A2000F4D11349134801F0B5FD04A92846152225
:103A3000FFF752FE1048FFF7A3F8104804A90368E7
:103A400015229B6898474FF4FA7002F0EFF80A4885
:103A5000FFF7A6F80DB030BD9CE700081814002051
:103A6000171400201B140020AF140020AD140020F8
:103A7000A6E70008B414002064140020CC14002031
:103A8000F0B589B005460F4616460021192201A857
:103A900005F0C0F9002408A941F8204D28466946E0
:103AA000FFF7F8FD009802F0CFF8FE238DF8043000
:103AB000E0238DF8053015238DF806300E238DF8A0
:103AC000073001238DF809302A4B8DF808401B7808
:103AD00003B1552328488DF80A30FEF706F8002474
:103AE0008DF80B00012302A80E218DF80C308DF803
:103AF0000D708DF80E408DF80F408DF810408DF848
:103B000011408DF812408DF813408DF814408DF857
:103B10001540FEF79EFF8DF81600E30701AB234426
:103B200004F1010454BF0D220A22062CDA74F4D1E8
:103B30001249134801F02EFD284601A91922FFF76A
:103B4000CBFD1048FFF71CF80024E3B2B3420BD2C0
:103B50000D4801A9036819229B6898474FF4FA7031
:103B600002F064F80134F0E70648FFF719F809B0ED
:103B7000F0BD00BF171400201B140020C0E7000890
:103B8000B414002064140020CC140020F0B50024EC
:103B9000ABB021460646142205A8019405F03AF977
:103BA000802221460AA805F035F92AA941F8A04D3E
:103BB0003046FFF76FFD029802F046F8AB48FFF77A
:103BC00091FCFE238DF82830D0238DF82930012573
:103BD0003023A7488DF82B308DF82C408DF82A50D3
:103BE0008DF82D50FEF7E4FFA24C030A27688DF8EC
:103BF0002F00A14938468DF82E3004F0FBF928B18A
:103C0000FF238DF830308DF831301AE0384600212E
:103C100004F0D2F918B107F10047276000E005462B
:103C2000022301A821680422FCF714FC9DF804304B
:103C30008DF830309DF805308DF831300DB1F2231C
:103C400000E0E223A5688DF8323028460023019376
:103C500004F0DAF90138632803D9FF238DF83330F3
:103C60000BE0022301A829460422FCF7F3FB9DF890
:103C700004308DF833309DF805308DF83430002154
:103C8000E223142205A88DF83530019105F0C2F821
:103C9000E2687A4B9A4207D9FF238DF836308DF8C7
:103CA00037308DF8383019E0754905A805F01AFB52
:103CB00005A805F09BFB05A9024601A8FCF792FBAD
:103CC0009DF804308DF836309DF805308DF837308A
:103CD0009DF806308DF838309DF807308DF8393072
:103CE000E0238DF83A30A36A0A200025B3FBF0F0F8
:103CF000019503F06BFF042201462B4601A8FCF757
:103D0000A9FBA36A4FF6FE72934207D9FF238DF8F1
:103D10003B308DF83C308DF83D3009E09DF80430A3
:103D20008DF83B508DF83D309DF805308DF83C50B6
:103D3000606A8DF83E300025E12364288DF83F301D
:103D4000019503D9FF238DF840300DE003F03EFFCD
:103D50002B460146042201A8FCF77CFB9DF80430A9
:103D60008DF840309DF80530E02220698DF8422022
:103D70008DF845208DF848204FF6FE728DF84130C1
:103D800090424FF0FF038DF843308DF844308DF8AA
:103D900046308DF8473002D98DF8493016E0354B62
:103DA0001B7D012B08BFC0F5803003F00FFF3549A4
:103DB00004F018F802230146042201A8FCF74AFB8C
:103DC0009DF804308DF849309DF805308DF84A3063
:103DD000237DA569012B0CBFF223E2238DF84B3024
:103DE00028460023019304F00FF9642803DDFF2324
:103DF0008DF84C300BE0022301A829460422FCF781
:103E000029FB9DF804308DF84C309DF805308DF875
:103E10004D30206AE2238DF84E304FF6FE730025B8
:103E20009842019503D9FF238DF84F300DE003F040
:103E3000CDFE2B460146042201A8FCF70BFB9DF8A2
:103E400004308DF84F309DF805308DF85030E06922
:103E5000E0238DF851304FF6FE730025984201950E
:103E600012D9FF238DF852301CE000BF6C140020E3
:103E7000641400207014002000001643400D03005D
:103E8000D8E700080000C84203F0A0FE2B46014618
:103E9000042201A8FCF7DEFA9DF804308DF85230B8
:103EA0009DF8053003AC8DF853301F48E0232146C0
:103EB0008DF85430FDF752FF00230AAA1A44E15C42
:103EC0000133072B82F82D10F7D10BA83021FEF714
:103ED000C0FD00238DF85C00DA070AAA1A4403F13A
:103EE000010354BF0D210A21062B82F83510F3D1AE
:103EF0000E490F4801F04EFB0AA930463B22FFF75E
:103F0000EBFB0C48FEF73CFE0B480AA903683B227A
:103F10009B6898474FF4FA7001F088FE0548FEF759
:103F20003FFE2BB0F0BD00BF29140020DEE70008E3
:103F3000B414002064140020CC140020122938B5D9
:103F40000546144608460BD0132910D0112916D166
:103F500000F07CF80CB120460FE047F6FF700CE053
:103F600000F074F8002CF6D149F63F4005E000F06F
:103F70006DF8002CEFD14FF2234000F06BF928468A
:103F800038BD13B50022044601A8FFF7D7FF20462D
:103F900002B010BD084600F043B900F02FB910B5CB
:103FA00010460C4600F070F921460320BDE8104091
:103FB00000F0A2B8054B1B681B685B0103F184434A
:103FC00094331A68002AFCD0704700BF0C0200200E
:103FD000054B1B681B685B0103F184438C331A6833
:103FE000002AFCD0704700BF0C02002008B5FFF784
:103FF000E1FF054B00221B681B685B0103F1844352
:10400000C3F88C2008BD00BF0C02002008B5FFF7E4
:10401000D1FF054B01221B681B685B0103F1844340
:10402000C3F8902008BD00BF0C02002008B5FFF7C0
:10403000C1FF054B00221B681B685B0103F1844331
:10404000C3F8902008BD00BF0C02002010B5044644
:1040500000F069FB00F074FB204A112C136A23F472
:104060004073136213460BD005D8C4B1102C2AD16B
:104070000023136227E0122C11D0132C1AD022E057
:10408000174A00211160012142F8081C154A1268E4
:1040900012F0FF0FFAD01A6A42F4807212E0124A4C
:1040A00001211160114A1268002AFBD01A6A42F4F9
:1040B000007207E00E4A126812F0FF0FFAD01A6A77
:1040C00042F440721A620B4B01221A60FFF78EFF16
:1040D000FFF77EFFBDE81040FFF76CBF0010024005
:1040E00008044242040442428004424284044242A0
:1040F000440042423C04424238B5144D04462B6809
:1041000003EB80035960FFF755FF032C09D1104AD8
:1041100001231360C2F800310E4B4FF400725A6055
:1041200038BD2B6801221B68944204EBC3034FEA9D
:10413000830303F184431A6003D002D3022C00D01E
:1041400038BD044B08221A6038BD00BF0C020020A5
:104150004480204200E100E010B50446FFF72AFF4A
:10416000032C0B4B05D10B4900220A60C1F800213A
:1041700008E01A680021126804EBC202920002F102
:10418000844211601B6803EB84040023636010BD4C
:104190000C02002044802042F8B5104B1E683568A0
:1041A0002B686F681F4017F0010403D074680CB1CE
:1041B000A0470124BA0704D5B36813B1984744F067
:1041C00002047B0704D5F36813B1984744F0040454
:1041D0006B6823EA04046C60F8BD00BF0C02002089
:1041E00008B5044B1B681B691BB19847024B0122A1
:1041F0001A6008BD0C020020C482204208B5FFF7F7
:10420000F5FEFFF7E5FEFFF7D5FE044B1B681B68C4
:104210009869DB699BB243EA004008BD0C020020AC
:1042200010B50446FFF7E2FEFFF7D2FEFFF7C2FE2D
:10423000FFF7ECFE064B220C1B68A4B21B689A61C8
:10424000DC61FFF7F3FEBDE81040FFF7B3BE00BF2F
:104250000C02002010B50446FFF7C8FEFFF7B8FEB9
:10426000FFF7A8FEFFF7D2FE064B220C1B68A4B294
:104270001B689A60DC60FFF7D9FEBDE81040FFF7CD
:1042800099BE00BF0C02002010B50446FFF7AEFE39
:10429000FFF79EFEFFF78EFEFFF7B8FE064B220CDF
:1042A0001B68A4B21B681A625C62FFF7BFFEBDE820
:1042B0001040FFF77FBE00BF0C02002001498D4671
:1042C0000149084700500020CD42000808B5124BB4
:1042D000124A1968914201D0002301E0104B07E017
:1042E0001048D4188442F9D2C858D0500433F7E7A4
:1042F0000D4A934203D2002243F8042BF8E704F05E
:10430000D9F900200146024601F0BAFB074B0BB178
:1043100004F0C0F9FEE700BF64EF000800000020D1
:104320007813002078130020A0150020958600083F
:1043300008B50D4B1A680AB90C4A1A601B680C4A7A
:10434000D21A824204DB09494242591A914206DAE2
:1043500004F09AF90C2303604FF0FF3008BD024AC5
:1043600018441060184608BDB0140020A0150020A5
:1043700080280128FEE770470B4B10B51968092209
:104380000A230A4800F0CEFF094B022219680948A7
:10439000032300F0C7FFBDE81040074B074819682A
:1043A0001A221B2300F0BEBF30030020B4140020EB
:1043B00034030020CC14002038030020E414002033
:1043C00010B5044600F094F9034B20461978BDE877
:1043D000104000F019B900BF28020020F8B50446CB
:1043E000056800F07BFB22680023510101F1844144
:1043F0000B60802129600121A9622B61EB60637948
:10440000696113B18B4203D02BE04FF400436B641E
:104410004FF6FF73D36200256E1CF7B22046394673
:1044200000F066FBD0B1236848F6FF7103F1340257
:1044300042F8251018336D1017F0010F53F825209E
:1044400014BF6FF0FF016FF47F4101EA020214BF55
:1044500068214FF4D0410A4343F82520042E354605
:10446000DAD1216801224B01490103F1844301F1B2
:104470008441C3F880220A60F8BD000038B5274B9C
:10448000274C1A68022042F010021A6000F064F90A
:104490000025002000F02EFA65602368182023F420
:1044A0000023236000F033FA102000F030FA00F00F
:1044B00043F8A560102000F01DFA102000F044FA27
:1044C0000028FAD000F039F8164800F049FA182010
:1044D00000F010FA182000F037FA0028FAD0022075
:1044E00000F0F8F900214FF0006000F0A5F90E4847
:1044F00000F0ACFA00F038F80C4B188800F0E6F841
:104500000B4800F0E7F80B4800F0D4FA00F02EF862
:1045100000F02DF8FFF72FFF38BD00BF002002404C
:10452000001002402C0200203F1901002A02002046
:10453000C1430008DD430008704708B5002001466C
:1045400000F05CFA01204FF4806100F057FA00217E
:10455000022000F053FA2D2000F060FABDE8084078
:104560000320002100F04ABA00F000B9704700F0C3
:104570003DB9000000000000000000000000000045
:10458000012007E0022005E0032003E0042001E011
:104590000520FFE70D4A0121116072B60C4A002187
:1045A0001160074902B4084902B486B005498E4635
:1045B000704700BFAFF30080AFF30080AFF300801F
:1045C00000000061F9FFFFFFDD51000814ED00E07D
:1045D00010E000E0AFF30080AFF30080AFF30080A5
:1045E000FEE710B50446007900F0D6F92079BDE861
:1045F000104000F0E9B903689A6822F4602242F49E
:104600008012114399607047002370B51A461C460A
:10461000072B4FEA430503DCEE1801FA06F6344394
:104620001D4401FA05F501330A2B42EA0502EFD1D8
:104630000368DC601A6170BD0368DA6A22F0F87200
:10464000DA6259639A6842F480029A601A689207A3
:10465000FCD5D86C80B2704738B5124D2A68136803
:104660001C68A10706D5196821F00201196093683A
:1046700003B19847620708D52B681A681B6911684F
:1046800021F00401116003B19847E30708D52B68B6
:104690001A68DB68116821F00101116003B19847C5
:1046A00038BD00BF58020020036801225B0103F1FE
:1046B000844303F58673191F1A6018680028FCD11B
:1046C00043F8042C0B68002BFCD1704701460420F2
:1046D00000F094B9044B10B504461868A047034B8A
:1046E0001868A04710BD00BF5802002054020020E7
:1046F00010B50446FFF775FF20464FF46021FFF721
:104700007AFF2368012103F1404308335A015B011A
:1047100002F1844203F18443116520461960BDE82B
:104720001040FFF7C1BF08B5142000F035F9042090
:1047300000F032F9BDE80840042000F045B900005F
:10474000014B01221A60704720000E42014B0022EB
:104750001A60704720000E42034B1A6822F00702CD
:1047600010431860704700BF0020024008B507489A
:1047700001F0D6FA064801F0D3FA064801F0D0FA63
:10478000BDE80840044801F0CBBA00BF5C0200203D
:10479000640200206C0200207402002070B501F059
:1047A0000704A4000F25A5400368C80853F820603B
:1047B000092A26EA050514BF1646082606FA04F457
:1047C000082A44EA050443F8204006D1012000FAF3
:1047D00001F1DA6822EA010106E0092A05D1012087
:1047E00000FA01F1DA681143D96070BD08B5032001
:1047F00000F0D2F8BDE80840032000F0E5B8000062
:10480000024B4AF6AA221A60704700BF00300040EF
:1048100000284FEA011105DA064B00F00F00C9B27B
:104820001954704700F16040C9B200F5614080F84A
:104830000013704714ED00E021F0604138B521F01D
:104840007F01084B0843986000241D4660B20F2189
:104850000134FFF7DDFF2B2CF8D1F02385F823304E
:1048600038BD00BF00ED00E0044A054BD16801F4FB
:1048700040710B43D360BFF34F8FFEE700ED00E0C4
:104880000400FA05014B1860704700BFA0000E42FB
:10489000074B1A6842F001021A601A6842F00202DD
:1048A0001A60044B1A6942F004021A6130BF704763
:1048B0000070004000ED00E0024B1A6842EA800000
:1048C0001860704700700040014B13F810007047EB
:1048D000DAEA0008064B5A6822F0030202435A60E3
:1048E00080005A6802F00C028242FAD1704700BF81
:1048F00000100240030A0121C0B201FA00F003F1E6
:10490000804303F504331A68104318607047030AA4
:104910000121C0B201FA00F003F1804303F5043332
:104920001A6822EA000018607047030A0122C0B228
:1049300002FA00F003F1804303F504331B681842C8
:104940000CBF002001207047030A0222C0B202FA05
:1049500000F003F1804303F504331B6818407047EF
:1049600038B54368044618201D68FFF7DEFF20B104
:1049700006488121064A00F03BFC064B21685A6834
:104980000D4322F4741215435D6038BD30EA00080F
:10499000BEEA00080010024010B50446FFF794FF7D
:1049A000074B53F82020074B03EB4404637803EBD9
:1049B000C2039B0003F1844301221A6010BD00BFB3
:1049C0007C020020DAEA000810B50446FFF77CFFFD
:1049D000084B53F82020084B03EB4404637803EBA7
:1049E000C2039B0003F1844301221A6000221A6073
:1049F00010BD00BF88020020DAEA000810B5054BA0
:104A0000054C5A6854F8200022EA0002114359600C
:104A100010BD00BF0010024038EB000810B504467E
:104A2000FFF752FF074B53F82020074B03EB4404DA
:104A3000637803EBC2039B0003F1844300221A60F6
:104A400010BD00BF90020020DAEA0008024B0722E6
:104A500058601A60704700BF10E000E008B5044BD2
:104A60001A6801321A60034B1B6803B1984708BDEE
:104A700094150020FC14002011F0010F70B542EADB
:104A800003030CBF0825002503FA05F5006801F1B2
:104A9000FF3400F11800C4F3400450F8241014BF90
:104AA0006FF0FF066FF47F463140294340F8241031
:104AB00070BD000010B504460448A0470448A04754
:104AC0000448A0470448A04710BD00BFE4020020EE
:104AD0000C0300209C020020C002002010B50446F8
:104AE0000079FFF759FF2079BDE81040FFF76CBF50
:104AF00038B54B1E032B0D46047905D90E4840F2FC
:104B000003110E4A00F074FB1E2C10D9212C0ED07C
:104B1000202C0ED9222C01D0252C04D1022D8CBFA3
:104B20000020012038BD6B1E5842584138BD01207D
:104B300038BD002038BD00BF4CEB00089FEB0008DB
:104B40008B1C40F823200368012203F140430C33FF
:104B500001EBC3039B0003F184431A60427903799C
:104B60001ABBB3F11A0253425341072919D8DFE89F
:104B700001F004090909090E0E13002B14BF1923B3
:104B80002C233BE0002B0CBF2E231B2336E0002BF5
:104B90000CBF2D231A2331E0002B0CBF2B2318232D
:104BA0002CE01B4840F28F1122E01B3B0C2B1CD841
:104BB000DFE803F0212307090B0D1B0F1113151755
:104BC00019001E231AE0322318E0362316E037239B
:104BD00014E0182312E0192310E01A230EE02B230F
:104BE0000CE02C230AE02D2308E0094840F2BF1115
:104BF000084A00F0FDBA1C2300E01D2359090122D8
:104C000003F01F0302FA03F3034A42F8213070470E
:104C10004CEB0008D3DC000800E100E00368002250
:104C200003F140430C3301EBC3039B0003F18443C6
:104C300002311A6040F8212070470000F8B54E1E7E
:104C4000F3B2032B04460D46174604D92A48DA214D
:104C50002A4A00F0CDFA6379022B04D12648DD21DF
:104C6000274A00F0C5FA6379022B43D0032F41D8BD
:104C7000DFE807F00212223520462946FFF7CEFF73
:104C8000236803F140432033DB0003EB8606B600C4
:104C900006F18446002320E02368002203F140430C
:104CA0000C3305EBC3039B0003F184431A602046D9
:104CB00029466022082303E02046294610220023CB
:104CC000FFF7DAFE236803F140432033DB0003EBF8
:104CD0008606B60006F1844601233360F8BD2368DA
:104CE0004FF2F1229A6103229A605B0103F184433F
:104CF00001221A60F8BD00BF4CEB0008C0EB0008B1
:104D0000DCEB000810B5074B1C68E16822690A401B
:104D1000120606D55B6A23B19847236923F0800306
:104D2000236110BDE402002010B5074B1C68E16848
:104D300022690A40D20706D59B6823B198472369A8
:104D400023F00103236110BDE4020020F8B50C4FED
:104D50003D68EB682E691E4016F0400403D03C6AA3
:104D60000CB1A0474024B30604D5FB6913B19847A2
:104D700044F020042B6923EA04042C61F8BD00BF31
:104D8000E4020020F8B5134F3E68F36835691D4012
:104D900015F0100403D0BC690CB1A04710242907FA
:104DA00004D57B6913B1984744F008046A0704D519
:104DB0003B6913B1984744F00404AB0704D5FB6882
:104DC00013B1984744F00204336923EA04043461C0
:104DD000F8BD00BFE4020020F8B51A4E3768FB6842
:104DE0003D691D4015F0400403D0346A0CB1A04762
:104DF0004024EB0604D5B36913B1984744F010047E
:104E0000280704D5736913B1984744F0080469076B
:104E100004D5336913B1984744F00404AA0704D5B4
:104E2000F36813B1984744F00204EB0704D5B36864
:104E300013B1984744F001043B6923EA04043C6140
:104E4000F8BD00BF0C030020F8B51A4E3768FB68A8
:104E50003D691D4015F0400403D0346A0CB1A047F1
:104E60004024EB0604D5B36913B1984744F010040D
:104E7000280704D5736913B1984744F008046907FB
:104E800004D5336913B1984744F00404AA0704D544
:104E9000F36813B1984744F00204EB0704D5B368F4
:104EA00013B1984744F001043B6923EA04043C61D0
:104EB000F8BD00BF9C020020F8B51A4E3768FB68A9
:104EC0003D691D4015F0400403D0346A0CB1A04781
:104ED0004024EB0604D5B36913B1984744F010049D
:104EE000280704D5736913B1984744F0080469078B
:104EF00004D5336913B1984744F00404AA0704D5D4
:104F0000F36813B1984744F00204EB0704D5B36883
:104F100013B1984744F001043B6923EA04043C615F
:104F2000F8BD00BFC002002081880268034689B234
:104F3000505C99881A8989B292B2914217BF9A88B7
:104F40000022013292B2C0B29A807047C28838B54E
:104F5000838892B29BB201329A4204460D461AD01F
:104F6000C288038992B29BB29A4202D183889BB2D3
:104F70008BB14FF0FF30E288236892B29D54E288F3
:104F8000238992B29BB29A4217BFE3880023013370
:104F90009BB2E38038BD2046FFF7C6FFEBE770B554
:104FA0001E460546084611460422059CFFF7F6FBFF
:104FB0009DF810100B223046FFF7F0FB2B6804F031
:104FC0000F01DA6804F0300422F4F0521204120CDB
:104FD00042EA4122DA601A6922F440521204120CA9
:104FE00042EA04241C6170BD70B5054616460C46A5
:104FF00041B900F0A1F8044620B90E48AE210E4A8E
:1050000000F0F6F819235C43B6006423B4FBF6F411
:10501000B4FBF3F21201110903FB114424013234F1
:10502000B4FBF3F303F00F0329681A4392B28A60CA
:1050300070BD00BFF5EB00084BEC000838B5114D12
:10504000EB68980607D52B68990604D569680E4861
:10505000C9B2FFF77BFFEB680A4C1A0611D523682B
:105060001B060ED509488288C38892B29BB29A4229
:1050700003D0FFF759FF606038BDE36823F0800379
:10508000E36038BD003801400C15002000150020F9
:1050900038B5114DEB68980607D52B68990604D5ED
:1050A00069680E48C9B2FFF751FFEB680A4C1A064F
:1050B00011D523681B060ED509488288C38892B291
:1050C0009BB29A4203D0FFF72FFF606038BDE368C0
:1050D00023F08003E36038BD004400401815002031
:1050E0003015002038B5114DEB68980607D52B68B0
:1050F000990604D569680E48C9B2FFF727FFEB6827
:105100000A4C1A0611D523681B060ED50948828859
:10511000C38892B29BB29A4203D0FFF705FF60604A
:1051200038BDE36823F08003E36038BD00480040E9
:10513000241500203C15002008B590F89002FFF7D8
:10514000C3FB20B10128034818BF002008BD024856
:1051500008BD00BF00A24A040051250213B5044651
:105160008DF8071020460DF10701012200F032FEF4
:105170000028F7D002B010BD38B505464C1E14F813
:10518000011F19B12846FFF7E9FFF8E738BD000015
:1051900008B5114B01211C6803222046FFF7FEFAD7
:1051A000002301211A469342206834BF02254FF4A0
:1051B0000035B2F5007F056103F1010303D0002A39
:1051C00008BF012101E04FF0FF31B3F5007F04BFBC
:1051D00052180023E7E700BF2CEA000808B5034B8C
:1051E0000BB1AFF3008062B6FFF7D2FF0000000002
:1051F000F8B5144B06460D4617460BB3AFF30080C7
:1052000011490446FFF7B8FF20463946FFF7B4FFBF
:1052100020460E49FFF7B0FF20463146FFF7ACFFAE
:1052200020460B49FFF7A8FF2046294600F020FE44
:1052300020460A21FFF792FF20460D21FFF78EFF3F
:10524000FFF7CCFF0000000057EC00086DEC0008F1
:105250009DE5000803695B68D9889A8889B292B293
:10526000D8888A1A998880B289B2884203D219896B
:1052700089B201310A4492B282B199881A6889B21E
:10528000505C99881A8989B292B2914217BF9A8864
:105290000022013292B2C0B29A8070474FF0FF30C4
:1052A000704703695B689988DA8889B292B2914243
:1052B00005D09A881B6892B2985CC0B270474FF0D4
:1052C000FF30704703699A689088D18880B289B2AC
:1052D0008842F9D11A6813685B06FCD5704713B58C
:1052E00004698DF8071020460DF10701012200F036
:1052F00071FD0028F7D0012002B010BD03695B6882
:10530000D8889A8880B292B2D988801A9A8889B24D
:1053100092B2914203D21B899BB20133184480B2EE
:105320007047000030B5002545604FF47A75856000
:10533000024D016105600275437530BDA0EC0008A7
:1053400003692DE9F74FDB68044699420F46924600
:105350002CD890F81480174D4FEA081808EB050672
:1053600090F8159070684FEA091909EB050B717BED
:1053700010B10022FFF762FC206900F0DBFC337BF8
:105380009BF80C2020698DE8080459F8051058F89E
:105390000530FFF704FE206900213A46FFF724FE9E
:1053A000206903B0BDE8F04F00F0EEBC03B0BDE8EB
:1053B000F08F00BFFCE700080022FFF7C1BF0069C3
:1053C00000F0ECBC044B02791B789A4202D1034BEB
:1053D0001B681860704700BF581500205C1500203E
:1053E000002310B50446036072B6094B19311970D9
:1053F000084B18600848FFF75DFB62B6236823B9C5
:1054000006484321064AFFF7F3FE204610BD00BFC1
:10541000581500205C150020C5530008C0EC00089A
:1054200014ED0008036800221B685B0103F184434C
:105430001A607047036801221B685B0103F1844313
:105440001A607047036801391B6889B29962704716
:1054500003681B68DA6A92B2914228BF114659620A
:10546000704738B5054639B9036801221B6899624F
:10547000DA62D86A80B238BD48244C434FF6FF71D7
:10548000B4FBF1F1013189B204EB5104B4FBF1F446
:10549000FFF7D8FF2B68A4B21B682046DC6238BD3A
:1054A0000068C9B2FFF7CABB0368C9B21B6801F143
:1054B0008041D86A013980B23433824228BF024623
:1054C00043F8212070470068C9B2FFF739BB0000DC
:1054D00008B501210848FFF783FF02210748FFF7BD
:1054E0007FFF03210648FFF77BFFBDE80840054822
:1054F0000421FFF775BF00BF481500204C150020A0
:10550000501500205415002070B505460E460024A5
:10551000315D29B12A682846126890470134F7E7BF
:10552000204670BDF8B505460C4616468F18BC429D
:1055300006D02B6828461B6814F8011B9847F6E72D
:105540003046F8BD10B502680B46946809689A6841
:10555000A04710BD08B503681B68984708BD08B58B
:1055600003685B68984708BD38B50D210546FFF70D
:10557000F1FF0A2104462846FFF7ECFF204438BD1E
:1055800038B50446FFF7DEFF05462046FFF7ECFF7F
:10559000284438BD38B50446FFF7E1FF05462046EC
:1055A000FFF7E2FF284438BD2DE9F04F14461D46B1
:1055B00091B054EA050381469DF868B004D13021CA
:1055C000FFF7C8FF01202EE04FF000085FFA8BF6CE
:1055D00000272046294632463B4602F03BFD08F1B3
:1055E00001080DF1000AC2440AF8012C20462946A0
:1055F0003B46324602F02EFD04460D4654EA0503B2
:10560000E4D1002408F1FF381DF8081048460929A4
:1056100094BF30313731C9B2FFF79CFF0444B8F171
:10562000000FEFD1204611B0BDE8F08F2DE9F04119
:10563000069F064614461D462FB90368D1B21B6863
:105640009847BDE8F081002C75F1000305DA2D21A3
:10565000FFF780FF644265EB4505FFB206973046D1
:1056600022462B46BDE8F041FFF79EBF07B5CB179A
:1056700000920A46FFF7DAFF03B05DF804FB38B585
:105680000446FFF7F3FF05462046FFF76DFF284469
:1056900038BD70B5049921B90368D1B21B68984729
:1056A00070BDC9B20491BDE87040FFF77DBF07B57A
:1056B00000230092CAB2FFF7ECFF03B05DF804FBD1
:1056C00038B50446FFF7F3FF05462046FFF74CFFC9
:1056D000284438BD07B5002300920A46FFF7D9FFDA
:1056E00003B05DF804FB38B50446FFF7F3FF054649
:1056F0002046FFF739FF284438BD07B50023009244
:105700000A46FFF7C6FF03B05DF804FB0000000087
:105710002DE9F74F19460646144610461D4600224D
:10572000002302F0FBF89DF830704FF0010838B10B
:105730002046294644A3D3E9002302F0E5F806E019
:105740002046294642A3D3E9002302F0D3F800B94A
:1057500080465FFA88F82046294600220023B8F1E7
:10576000000F0DD002F0BCF818B130462D21FFF724
:10577000F1FE804638493046FFF7F1FE404460E0D4
:1057800002F0AEF838B130462D21FFF7E3FE05F107
:10579000004380461D46314B4FF0000900225FFA5E
:1057A00089F1B9420AD21046194600222C4B01F069
:1057B0004FFF09F1010902460B46F0E72046294652
:1057C00001F06AFC04460D4602F05AFC82468B4604
:1057D00001F0E6FD02460B462046294601F05AFC40
:1057E0000A2300930446524630465B460D46FFF7B7
:1057F0001DFF804427B130461A49FFF7B0FE8044B0
:10580000F7B1174B00222046294601F0F7FD0D465F
:10581000044602F08DF881460A2249463046FFF7D9
:1058200025FF8044484601F083FD02460B46204692
:10583000294601F02FFC013F04460D46FFB2DFE789
:10584000404603B0BDE8F08F800350726C92DF4396
:10585000800350726C92DFC326ED00080000E03F29
:1058600000002440ACDE000837B59DF8181004464F
:105870000091FFF74DFF05462046FFF775FE2844CF
:1058800003B030BD10B50446006802F043FF204667
:1058900010BD10B50446006808B102F03BFF0023BC
:1058A0002360A360636010BD38B504460D460068F0
:1058B000013103F01DFB10B184E82100012038BD47
:1058C000036810B5044613B143688B4207D22046E3
:1058D000FFF7EAFF20B1A3680BB92268137001201B
:1058E00010BD70B50E46114604461546FFF7E8FF99
:1058F00018B92046FFF7CDFF04E0A56020683146C7
:1059000003F016FD204670BD38B500230446036041
:10591000436083600D4639B1084603F067FD2946B0
:1059200002462046FFF7DDFF204638BD884210B50D
:105930000B46044607D0096819B19A68FFF7D1FFF2
:1059400001E0FFF7A6FF204610BD10B50023044676
:10595000036043608360FFF7E9FF204610BD38B560
:1059600005460C4641B1084603F040FD214602467B
:105970002846FFF7B6FF01E0FFF78BFF284638BD4A
:1059800010B500238AB00446036043608360084674
:1059900001A900F098F9204601A9FFF7E0FF204691
:1059A0000AB010BD70B5044685680E4609B90020DE
:1059B00070BD62B115442946FFF782FF0028F6D07A
:1059C0002068A3683146184403F0B2FCA5600120AA
:1059D00070BD1FB504460A220846694600F073F9F7
:1059E000684603F003FD694602462046FFF7DAFFEA
:1059F00004B010BD1FB504460A220846694600F0EF
:105A00008DF9684603F0F2FC694602462046FFF72E
:105A1000C9FF04B010BD0B4610B509689A6804466A
:105A2000FFF7C0FF10B92046FFF733FF204610BD37
:105A300038B504460D4641B1084603F0D7FC294667
:105A400002462046FFF7AEFF10B92046FFF721FFC0
:105A5000204638BD10B50446FFF7BBFF10B92046FD
:105A6000FFF717FF204610BD10B50446FFF7C2FF31
:105A700010B92046FFF70DFF204610BDFEF7FEBC13
:105A800008B5FCF70BFDFCF7B5FEFCE7222870B566
:105A900042D8082918D8DFE801F01E2105080B0EAE
:105AA00005111400002404221AE00024224617E005
:105AB0000024092214E00024082211E001240B2212
:105AC0000EE001240F220BE014484C21144ABDE8DB
:105AD0007040FFF78DBB0024032201E00024072261
