:020000040800F2
:1000000000500020813C0008413F0008453F0008A7
:10001000493F00084D3F0008513F0008A13F00083C
:10002000A13F0008A13F0008A13F0008A13F000830
:10003000A13F0008A13F0008A13F0008D9430008E4
:10004000A13F0008A13F0008A13F0008913B000824
:10005000A13F0008A13F0008A13F0008A13F000800
:10006000A13F0008A13F0008A13F0008A13F0008F0
:10007000A13F0008A13F0008A13F0008A13F0008E0
:10008000A13F0008A13F0008F93F0008A13F000878
:10009000A13F0008A13F0008A13F0008A13F0008C0
:1000A00045460008694600088D460008C546000818
:1000B0001947000889470008F9470008A13F0008D0
:1000C000A13F0008A13F0008A13F0008A13F000890
:1000D000A13F000865490008B94900080D4A000819
:1000E000A13F0008D93B0008A13F000810B5054C0E
:1000F000237833B9044B13B10448AFF300800123D4
:10010000237010BD78130020000000005CBD0008C3
:1001100008B5064B1BB106480649AFF300800648F8
:10012000036813B1054B03B1984708BD00000000F8
:100130005CBD00087C130020781300200000000044
:10014000012902D11C30C0B27047062984BF01F1D9
:10015000FF31C9B211F0010F14BF1E201F207047DC
:10016000444B2DE9F047B1FBF3F603FB16113C239A
:10017000B1FBF3F203FB1212054602704FF461600B
:10018000B1FBF0F200FB1211B1FBF3F36B704FF413
:10019000FA63AA70B6B2EB80EC884FF4C873B4FB74
:1001A000F3F803FB18481FFA88F8B8F1000F16D0CF
:1001B0006423B4FBF3F203FB12439BB2002B53D036
:1001C00014F0030140F26D130CBF4FF4B7721A46DE
:1001D00096420EDB002908BF4FF4B77304E0B6F572
:1001E000B77F06DB4FF4B773F61A0134B6B2EC8072
:1001F000D2E700236B716423B4FBF3F703FB1747CB
:10020000BFB2B8F1000F06D03FB114F0030F14BF16
:100210000020012002E0012000E0384695F805901A
:10022000C0B24946FFF78CFF864209F1010A15D397
:10023000B8F1000F06D03FB114F0030F14BF002037
:10024000012002E0012000E03846C0B24946FFF735
:1002500077FF301A86B285F805A0D2E701362E71F5
:1002600085F805A0BDE8F087B6F5B67FC1DD40F2A0
:100270006D13B9E780510100F8B5427887783C23C7
:1002800003FB072702780579467903FB0727013D21
:10029000013EEDB2F6B2044605714671013E731C93
:1002A000E38834D04FF4C872B3FBF2F102FB113291
:1002B00092B262B16422B3FBF2F002FB103080B262
:1002C00030B113F0030F14BF0020012000E0012023
:1002D000C0B2F1B2FFF734FF284485B2DEE74FF435
:1002E000C872B3FBF2F102FB113292B2AAB16422DE
:1002F000B3FBF2F102FB113292B28AB113F0030F99
:1003000040F26D1208BF4FF4B7721544ADB2013B15
:100310009BB2B3F5FA6FE2D205E04FF4B772F4E79F
:1003200040F26D12F1E7024800FB0570F8BD00BF16
:100330008051010002F024BC38B50D46044602F09D
:100340003AFC290A49006039204601F0FE0102F01A
:10035000C9FC204602F09FFCE9B2204602F0C2FC34
:10036000204602F098FC204602F025FC2046A12100
:1003700002F0B8FC204602F08EFC0021204602F07C
:10038000D8FC0546204602F069FC204602F02EFC0F
:10039000284638BD70B50D461646044602F00BFCE3
:1003A000290A49006039204601F0FE0102F09AFC5A
:1003B000204602F070FCE9B2204602F093FC204691
:1003C00002F069FC3146204602F08CFC204602F027
:1003D00062FC204602F00AFCBDE870400A2005F0ED
:1003E0008FB80000D30770B548BF0132002452080F
:1003F00002312346E5B2954225D211F8025CA5F1FF
:100400004106F6B2052E02D8104B9B5D05E0303D4B
:10041000EDB2092D03D80E4B5B5D1B01DBB211F869
:10042000015CA5F14106F6B2052E01D8074D04E0A6
:10043000303DEDB2092D02D8054E755D2B430355B5
:1004400002310134D6E7002070BD00BF22D1000880
:1004500018D100082DE9F04F824687B008461446AF
:10046000994606F0C3FBC9EB0406CDE9000130460E
:1004700006F0AAFB02460B4600204D4905F068F93C
:1004800002460B46DDE9000106F08AFE30B94FF066
:10049000020896FBF8F80546013E07E050460021A9
:1004A000224607B0BDE8F04F08F000B9454536DAFE
:1004B000304606F089FB02460B4600203C4905F019
:1004C00047F9CDE90201701E06F07EFB02460B469D
:1004D0000020374905F03CF9DDE90223CDE90401AC
:1004E000DDE9000106F000FD06F06EFEDDE9042303
:1004F0000A2790FBF7FB0BFB17004FEA001BDDE917
:10050000000106F0F1FC06F05FFE90FBF7F303FB41
:10051000170083440AF805B0023E0135C6E709EB2F
:1005200048094FF0020BC4EB090994FBFBFB09F1EE
:100530000109D84538DA484606F046FB02460B4624
:1005400000201B4905F004F9064609F101000F4699
:1005500006F03AFB02460B460020154905F0F8F874
:1005600032463B4604460D46DDE9000106F092FBAB
:1005700006F02AFE0A2690FBF6F707FB16002B462C
:1005800007012246DDE9000106F084FB06F01CFEAF
:1005900090FBF6F303FB160007440AF8087009F114
:1005A000020908F10108C4E707B0BDE8F08F00BFF9
:1005B0000000244010B5144B5C789B7843EA042477
:1005C00003F0FEFD4AF213039C4213D008D84AF20E
:1005D00011039C4213D04AF212039C4211D00DE049
:1005E0004AF214039C4207D04AF222039C4205D1EE
:1005F000042010BD022010BD032010BD10BD00203E
:1006000010BD012010BD00BF9413002038B5084C68
:100610006018114602F001FA054603F0D1FD054BC2
:100620001B781C4414F8070C431B5842584138BD32
:10063000941300201514002010B5054B1C795B792C
:1006400043EA042403F0BCFDE31E5842584110BDA8
:1006500094130020044B9B79552B044B0CBF0122B3
:1006600000221A70704700BF941300201714002056
:1006700010B5094C03F0A4FDE379552B01D10120FD
:1006800010BD064801F00FF9E3798342F7D0D0F1AD
:10069000010038BF002010BD941300201D1400205D
:1006A00013B503F08DFD0D4B1C7A552C01D10120A3
:1006B00012E00B48694601F06DF800231A461DF858
:1006C00003108C42F3D019B90132D2B2052AEED010
:1006D0000133052BF3D1002002B010BD941300208C
:1006E0001D140020F8B5144605460F461E4603F0BB
:1006F00067FD224628463946FFF788FF044698B131
:100700002846FFF799FF044658B12846FFF7A2FF95
:100710002846FFF7ADFF044648B946B10C480D49DD
:1007200011E00B480C490EE009480C490BE0284643
:10073000FFF7B6FF044640B99DF818300BB9012405
:1007400003E00348064904F0ABFB2046F8BD00BFB8
:10075000B01400207AD1000828D1000856D1000832
:10076000B1D1000830B589B0044603F029FD284B0B
:100770001B78002B4AD00023009320460421172227
:100780000123FFF7AFFF002837D0224C224804F1A5
:100790000C0101F009FAE37AA57A204902A843EA9C
:1007A000052504F035FD02A905A804F052FD2946EF
:1007B00005A804F0DDFD0146194804F067FB05A813
:1007C00004F0E4FC02A804F0E1FC1648294601F01C
:1007D00087F918B1144B01221A7003E0104813492D
:1007E00004F05EFB237A1248552B02D102F078FD0B
:1007F00003E00721012202F039FF0E4B05481A7869
:10080000002109B0BDE8304007F050BF09B030BD4D
:10081000080000209413002026140020E9D10008CD
:10082000B01400201A1400201414002008D200086C
:10083000A71400201514002013B5044603F0C0FCD3
:100840001B4B1B78002B31D0002300932046042142
:100850000A220123FFF746FFF8B11648164900F0B7
:100860004BFF50B11549164804F01AFB15491448BE
:1008700004F016FB144803210CE01449104804F05E
:100880000FFB13490E4804F00BFB124B0A220E48D3
:100890001A700421012202F0E9FE0F4B0F481A786A
:1008A000002102B0BDE8104007F000BF02B010BD4B
:1008B000080000201D1400209C1300203FD20008D7
:1008C000B01400206FD20008A714002097D20008AF
:1008D000C7D20008A814002015140020941300208B
:1008E00013B5044603F06CFC00230093204604215A
:1008F0000F22FFF7F7FE08B31B4C1C4804F10A0156
:1009000000F041FD68B3194804F10A0100F07BFDD5
:1009100038B31749174804F0C3FA1448E17900F0D6
:1009200089FFA0B11449134804F0BAFA134805210D
:10093000012202F09BFE0D4800F046FE104B0A48D3
:100940001A78002102B0BDE8104007F0AFBE094898
:100950000C4904F0A5FA09480621012202F086FE9E
:10096000ECE704480849F4E7941300201D14002024
:1009700051D30008B0140020EED20008A7140020C4
:100980001514002020D300087ED3000813B50446B8
:1009900003F016FC0C4B1B78A3B1002300932046F8
:1009A000042105220123FFF79DFE10B1074802F044
:1009B000C5FD074B07481A78002102B0BDE810407A
:1009C00007F074BE02B010BD08000020A71400207C
:1009D000151400209413002010B5044603F0F0FB1A
:1009E0002046FFF7E7FD032817D8DFE800F00207ED
:1009F0000C112046BDE81040FFF7B4BE2046BDE80C
:100A00001040FFF719BF2046BDE81040FFF768BF50
:100A10002046BDE81040FFF7B9BF10BD2DE9F047F3
:100A2000424C00278246277003F0CAFB0026354659
:100A30003F4804F0F7F8002835DD03F0C1FB94F8D7
:100A400000903B4809F10103237004F097F8DFF8A8
:100A5000F48008F80900052004F052FD23781022E4
:100A6000434413F8011C334804F0A7FA31483249D3
:100A700004F0FBF994F90030002B434602DA2B4ACC
:100A800000211170F6B922781A4412F8012C0D2AAF
:100A900001D117E00126052DCAD12648274904F0C7
:100AA000FFF90127C2E757B12549224804F0F8F9B8
:100AB0005046FFF791FF00232370BDE8F0872770B1
:100AC000BDE8F087042DE5D8DFE805F0030C151E1E
:100AD00027002278134413F8015CB5F10A035D4244
:100AE0005D4121E02278134413F8013C0D2B0CBF2B
:100AF0000225002518E02278134413F8013C0A2B44
:100B00000CBF032500250FE02278134413F8013CA5
:100B10000D2B0CBF0425002506E02278134413F8A2
:100B2000013C0A2BB9D00025012681E715140020CD
:100B3000C8140020B014002036DD0008ABD3000834
:100B4000CFD300089413002008B50420002104F03E
:100B500021FC0420012104F075FC0020014604F072
:100B600019FC1820002104F015FC0120002104F0DC
:100B700011FC1820002104F065FC0120014604F05E
:100B800061FCBDE808400020014604F05BBC0000A9
:100B9000014804F0A5B800BFC814002010B50B78B8
:100BA000452B12D14B78522B0FD18B78CC78303B20
:100BB00003EB8303303C04EB4304E4B221460A22F6
:100BC000034804F003FA204610BD0A2010BD00BF00
:100BD000B01400200B784F2B07D148784B2804D154
:100BE00013704B780120537070470020704730B568
:100BF0000020C4B20D5D01302C2D01D01D55F8E749
:100C0000601C5525C0B21D55904204D20C5C1C548A
:100C10000130C0B2F8E730BDF8B54C78432C08D1AC
:100C20008C78532C05D1CC78B4F151056C426C41D1
:100C300000E000240026F5B24F5D01363A2FFAD1CC
:100C40000135EDB200279542FEB207F1010706D843
:100C500011F805C0013501F806C0EDB2F3E73CB963
:100C60002046C2B2B2420BD20A5C1A540130F8E7F5
:100C7000069A022412681470721ED2B2FFF7B7FFF0
:100C80000120F8BD37B5154809B9154900E01549E7
:100C900004F0EBF8642004F033FC00240F4803F068
:100CA000C1FF0028E5B208DD062C14D00B4803F084
:100CB00065FF0DF804000134F0E755B19DF80230EE
:100CC0004F2B08D19DF80300B0F14B035842584117
:100CD00002E0284600E0002003B030BDC814002028
:100CE000FAD30008FED300082DE9F0419EB005AD0F
:100CF0000C4607460021904628466422039307F0DD
:100D0000D5FC21462C4804F0B0F8642004F0F8FB30
:100D10000024294803F086FF0028E6B207DD642C92
:100D200045D0254803F02AFF28550134F1E726B9BC
:100D30002249234804F0B4F839E09DF814300D2B13
:100D400035D19DF815300A2B31D11EAB334413F841
:100D5000653C0A2B2BD1023E1EAB334413F8643C96
:100D60000D2B24D10021CCB2A31CDBB2B34201F184
:100D7000010107DA1EAA134413F8643C144404F872
:100D8000643CF0E738462946FFF708FF0A280CD1F3
:100D900003AB00933846294622464346FFF73CFF03
:100DA00000280CBF0320022002E0012000E0032005
:100DB0001EB0BDE8F08100BFC814002004D40008B4
:100DC000B01400202DE9F041B2B006460D46904621
:100DD0000021642268461F4607F068FC19A800211C
:100DE000642207F063FC0024E3B2E85C013420B124
:100DF00032AA134403F8640CF6E70146CAB25D1840
:100E000018F80240EDB232AA01312A4414B102F8B6
:100E1000644CF3E70D2302F8643C6B1C32A8DBB290
:100E200003442F480A2203F8642C036819A95B685D
:100E300098472C48AA1C036819A99B68D2B2984706
:100E4000642004F05DFB274803F0ECFE0028E5B2C7
:100E500008DD642C3FD0234803F090FE0DF8040019
:100E60000134F0E7002D36D09DF800300D2B32D143
:100E70009DF801300A2B2ED132AB2B4413F8C93C1C
:100E80000A2B28D1023D32AB2B4413F8C83C0D2B62
:100E900021D100218B1CDBB2AB4201F1010209DA46
:100EA00032A8034413F8C83CC9B2014401F8C83C55
:100EB0001146EFE730466946FFF770FE0A2808D171
:100EC000304669463A46FFF785FE80F00100C0B221
:100ED00002E0012000E0032032B0BDE8F08100BF55
:100EE000B0140020C8140020F7B51E46044617466B
:100EF0000D4600218DF80710FFF7C4FE03F060F9DE
:100F0000204631462FB12A460DF10703FFF7ECFECC
:100F100003E0089A2B46FFF755FF03282AD8DFE89D
:100F200000F011040207002311E01648164901E001
:100F30001448164903F0B4FF20460121FFF7A2FE32
:100F400000201CE012490F4803F0AAFF12E09DF8B0
:100F500007205E1CDBB29A420A4809D9E95C1022DC
:100F600004F02BF807480B4903F07FFF3346EEE708
:100F700003F080FF20460121FFF784FE012003B02B
:100F8000F0BD00BFB014002018D4000829D4000818
:100F900032D4000836DD00082DE9F0438BB004AFF1
:100FA000804600210922384602AE002407F07EFB6D
:100FB00000944046314601222C4BFFF795FF054631
:100FC00010B92B482B494BE02346F25C07AC092AA9
:100FD00001D8303204E0A2F10A01052998BF373266
:100FE000E2540133082BF0D14FF0000922488DF86C
:100FF000249000F041FD0246C0B120491C4803F096
:101000004FFF1D48394600F0A5FC50B14B46E15C4E
:10101000FA5C914217D10133082BF8D114481849D2
:101020001EE01849124803F03BFF07E000944046D9
:101030003146154BFFF758FF054698B121460E483B
:1010400000F0D8FC0AE01149094803F029FF009795
:101050004046314600220C4BFFF746FF054601E0B3
:1010600003F01EFF28460BB0BDE8F0833ED4000815
:10107000B014002049D400081914002069D40008D5
:10108000F1D4000887D40008ABD40008B4D4000819
:101090002DE9F04F89B002AF07F10C06834689466F
:1010A00090461C46304600210A2207F0FFFA002C29
:1010B00048D1C7F804D05846CDF800803146012207
:1010C0004B46FFF711FF824608B1214602E03C483B
:1010D0003C496BE0CCB218F804300131002BF9D157
:1010E000E11D01F4FC71ADEB010D02A9D8B2A042E3
:1010F00003D2F05CC8540133F8E70B46581AC0B26B
:10110000A0420DD213F8010B092801D8303004E0B9
:10111000A0F10A05052DF1D8373003F8010CEDE7F1
:101120000025EBB2A3423FD24B5D013508EB050031
:1011300010F8010C9842F4D02148234903F0B0FE86
:101140007B689D466C460023DAB219F80210013321
:101150000A29F9D1931D03F4FC73ADEB030DA2F141
:10116000020E02AB0020C1B2551EA94200F10100DF
:1011700003DA19F801505D54F5E700223D215A5574
:10118000584603F80E10CDF800803146FFF7ACFE4C
:10119000054628B90A480D4903F082FEAA4601E037
:1011A0004FF0010AA54605E00548094903F078FE1D
:1011B0007B689D4650461C37BD46BDE8F08F00BF9A
:1011C000B01400201BD5000841D5000898D50008B0
:1011D000BAD5000830B585B004460D4668460021F2
:1011E0000F2207F063FA4448444903F059FE02F025
:1011F000E7FF2046002D65D1FFF7CEFE40498DF870
:101200000000404A2B462046FFF742FF3E498DF83A
:1012100001003E4A01232046FFF73AFF3C498DF882
:1012200002003C4A2B462046FFF732FF3A498DF830
:1012300003003A4A2B462046FFF72AFF38498DF82B
:101240000400384A2B462046FFF722FF36498DF826
:101250000500364A01232046FFF71AFF34498DF86E
:101260000600344A2B462046FFF712FF32498DF81C
:101270000700304A2B462046FFF70AFF2F498DF81A
:1012800008002A4A01232046FFF702FF2C498DF867
:1012900009002C4A2B462046FFF7FAFE2A498DF812
:1012A0000A002A4A2B462046FFF7F2FE174A8DF81D
:1012B0000B00274920460123FFF7EAFE0D228DF897
:1012C0000C0007E0194A18490123FFF7E1FE01224B
:1012D0008DF8000000231DF8031031B91D490648A0
:1012E00003F0DEFD02F06CFF81E70133D9B29142D9
:1012F000F1D305B030BD00BFB0140020D0D5000838
:10130000EFD50008FBD5000804D6000801D6000878
:101310000ED600081AD6000823D600082FD60008DB
:1013200038D6000843D6000846D6000850D6000834
:1013300053D600085DD6000860D600086AD60008BB
:1013400074D600087DD6000880D600088AD600082A
:101350008DD6000897D600081520012104F072B838
:101360001520002104F06EB810B5002104461520A8
:1013700004F010F81520012104F064F82046BDE8BF
:101380001040FEF7D7BF7FB505460E46FFF7E8FFD2
:101390000D2433192146284613F80D2C0134FEF78D
:1013A000F9FF162CF5D13046092101F036FB06462F
:1013B000214628463246FEF7EDFF0D2421462846F9
:1013C000FEF7BAFF01AB23440134162C03F80D0CD1
:1013D000F4D101A8092101F020FBB04203D0FFF7AE
:1013E000BBFF00200DE028460B21FEF7A5FF552886
:1013F00004D028460B215522FEF7CCFFFFF7ACFFA7
:10140000012004B070BD7FB505460E46FFF7A8FF6A
:10141000172433192146284613F8172C0134FEF7F8
:10142000B9FF202CF5D13046092101F0F6FA064625
:10143000214628463246FEF7ADFF172421462846AE
:10144000FEF77AFF01AB23440134202C03F8170C7C
:10145000F4D101A8092101F0E0FAB04203D0FFF76E
:101460007BFF00200DE028460C21FEF765FF552884
:1014700004D028460C215522FEF78CFFFFF76CFFA5
:10148000012004B070BDF0B585B001AD06460F4631
:1014900028460021092207F009F90D24214630468B
:1014A000FEF74AFF2B190134162C03F80D0CF5D169
:1014B00021463046FEF740FF09210446284601F048
:1014C000ACFA844206D10023EA5CFA540133092BBA
:1014D000FAD101E0002000E0012005B0F0BDF0B538
:1014E00085B001AD06460F4628460021092207F0C7
:1014F000DDF8172421463046FEF71EFF2B19013474
:10150000202C03F8170CF5D121463046FEF714FFC6
:1015100009210446284601F080FA844206D10023BE
:10152000EA5CFA540133092BFAD101E0002000E013
:10153000012005B0F0BD37B50C461E210546FEF76B
:10154000FBFE1F218DF804002846FEF7F5FE022160
:101550008DF8050001A801F060FA207003B030BDDD
:1015600010B50B210446FEF7E7FE88B1FFF7F8FE41
:10157000204600220B21FEF70DFFFFF7EDFE20466F
:101580000B21FEF7D9FED0F1010038BF002010BDBD
:10159000012010BD10B50C210446FEF7CDFE88B128
:1015A000FFF7DEFE204600220C21FEF7F3FEFFF7D8
:1015B000D3FE20460C21FEF7BFFED0F1010038BF5C
:1015C000002010BD012010BD10B521210446FEF7FA
:1015D000B3FE552811D0FFF7C3FE20465522212126
:1015E000FEF7D8FEFFF7B8FE20462121FEF7A4FE45
:1015F000B0F155035842584110BD012010BD38B517
:101600000446102003F008FF08B1002038BD02F0A6
:10161000D7FD41F2883003F073FF02F0D1FD1020B6
:1016200003F0FAFE05460028EFD120462121FEF7FF
:1016300083FE40B1FFF794FE204621212A46FEF7A3
:10164000A9FEFFF789FE20462121FEF775FED0F1A5
:10165000010038BF002038BD08B52121FEF76CFE1F
:10166000B0F155035842584108BD000070B504461A
:101670000D46FFF708FF20B120462946FFF72FFF50
:1016800048BB20462946FFF7FEFE48B115491648DB
:1016900003F006FC20462946BDE87040FFF7B3BEC4
:1016A00020462946FFF71BFF06460F4846B10F4963
:1016B00003F0F6FB20462946BDE87040FFF763BE05
:1016C0000B4903F0EDFB2046FFF74AFF2046FFF7EA
:1016D00061FF304670BD0749034803F0E1FB01207C
:1016E00070BD00BFB4D60008B0140020EBD60008CF
:1016F00022D7000836D70008F8B504460E462F2535
:1017000073192046294613F82F7CFEF715FE8742F1
:1017100003D10135342DF3D136E0FFF721FE2F251B
:1017200073192946204613F82F2C0135FEF732FE97
:10173000342DF5D10521304601F06FF907462946D1
:1017400020463A46FEF726FE2F2520462946FEF77C
:10175000F3FD731913F82F3C834217D10135342D53
:10176000F3D120462946FEF7E7FDB8420ED12046C8
:101770003521FEF7E1FD552804D0204635215522BC
:10178000FEF708FEFFF7E8FD0120F8BDFFF7E4FDD6
:101790000020F8BDF7B505460E462F242146284601
:1017A000FEF7CAFD00AB23440134342C03F82F0CA0
:1017B000F4D10521684601F030F921460746284654
:1017C000FEF7BAFD874207D100231DF80320F2542B
:1017D0000133052BF9D101E0002000E0012003B026
:1017E000F0BD38B50546FFF7BBFD2F24284621463E
:1017F000FEF7A2FD68B1284621460022FEF7CAFD89
:1018000028462146FEF798FD18B1FFF7A5FD0020F8
:1018100038BD0134342CE9D128463521FEF78CFD42
:1018200020B1284635210022FEF7B4FDFFF794FDD4
:10183000012038BD37B50D468DF807103621044616
:10184000FEF77AFD85422BD002ADFFF789FD15F832
:10185000012D20463621FEF79DFD0121284601F08D
:10186000DCF8372102462046FEF794FD204636215B
:10187000FEF762FD9DF8073083420DD120463821E6
:10188000FEF75AFD552804D0204638215522FEF790
:1018900081FDFFF761FD03E0FFF75EFD002000E042
:1018A000012003B030BD3621FEF746BD37B53621E5
:1018B0000546FEF741FD02AB03F8010D1846012174
:1018C00001F0ABF8372104462846FEF735FD231A10
:1018D0005842584103B030BD10B536210446FEF7DA
:1018E0002BFD88B1FFF73CFD204636210022FEF794
:1018F00051FD20463621FEF71FFD18B1FFF72CFDE4
:10190000002010BDFFF728FD012010BD08B54821BB
:10191000FEF712FDB0F155035842584108BD10B50D
:1019200048210446FEF708FD88B1FFF719FD20465F
:1019300000224821FEF72EFDFFF70EFD204648212C
:10194000FEF7FAFCD0F1010038BF002010BD0120E5
:1019500010BD0000F7B505460E464F242146284627
:10196000FEF7EAFC00AB23440134572C03F84F0C7C
:10197000F4D10821684601F050F821460746284670
:10198000FEF7DAFC87420CD100231DF80320F25445
:101990000133082BF9D10448044903F081FA0120EE
:1019A00000E0002003B0F0BDB01400209CD7000878
:1019B00010B558210446FEF7BFFC552808D0FFF7A4
:1019C000CFFC204658215522FEF7E4FCFFF7C4FC6B
:1019D00010BD10B558210446FEF7AEFC40B1FFF72C
:1019E000BFFC204658210022FEF7D4FCFFF7B4FCD0
:1019F00010BD0000F7B50F460546FFF7B1FC3846AD
:101A0000082101F00AF84F2406463B1921462846D2
:101A100013F84F2C0134FEF7BDFC572CF5D12146AD
:101A200028463246FEF7B6FC4F2421462846FEF7EC
:101A300083FC00AB23440134572C03F84F0CF4D142
:101A40006846082100F0E9FF864206D02846FFF7E5
:101A5000C0FFFFF781FC002007E00549054803F0BF
:101A60001FFA2846FFF7A4FF012003B0F0BD00BF16
:101A7000B1D70008B014002008B55821FEF75CFC6F
:101A8000B0F155035842584108BD70B504460E46A2
:101A90001546FFF765FC204632462221FEF77AFC08
:101AA000204623212A46FEF775FCFFF755FC70BD42
:101AB000FEF742BCFEF740BC70B504460E46154624
:101AC000FFF74EFC204632462421FEF763FC2046F9
:101AD00025212A46FEF75EFCFFF73EFC70BD0000A4
:101AE00070B5A1F11E024AF6A2039A4286B00546DD
:101AF0000C4604D92148224903F0D2F9B4245921D3
:101B00002846FEF719FC5A2106462846FEF714FC23
:101B100040EA0620A0421AD11A49184803F0C0F939
:101B20006846194903F074FB694603A803F091FB6A
:101B3000214603A803F01CFC0146104803F0A6F957
:101B400003A803F023FB684603F020FB13E0FFF734
:101B500007FC28465921C4F30722FEF71BFC284640
:101B60005A21E2B2FEF716FC28465B215522FEF709
:101B700011FCFFF7F1FB012006B070BDC814002076
:101B8000C6D7000806D800083DD8000838B5592146
:101B90000546FEF7D1FB5A2104462846FEF7CCFB4A
:101BA00040EA042038BD000070B55E480D46097853
:101BB00001F04FFB697806465A4801F04AFB06EBF4
:101BC0008606594C06EB860600EB8600E080A97875
:101BD000544801F03EFB6071E978524801F039FB4E
:101BE000207129794F4801F034FB6979A0704D4884
:101BF00001F02FFBA97960704A4801F02AFB4B499C
:101C000020704B4803F031F9E1880A22484803F07C
:101C1000BCF94849464803F028F961790A2244484A
:101C200003F0D4F94449424803F01FF921790A220C
:101C30003F4803F0CBF941493D4803F016F9A1783C
:101C40000A223B4803F0C2F93D49394803F00DF937
:101C500061780A22364803F0B9F93A49344803F06A
:101C600004F90A222178324803F0B0F902F038FA78
:101C7000642003F045FC2046FEF7FEFA0146324898
:101C800001F0DEFE642003F03BFC02F02FFA2E4848
:101C900001F0D9FE01462046FEF762FAE18864238E
:101CA000B1FBF3F1C9B21F4801F0CAFA2870E2880B
:101CB0004FF47A73B2FBF3F103FB11211948C9B257
:101CC00001F0BEFA68706179164801F0B9FAA8709F
:101CD0002179144801F0B4FAA178E870114801F0B4
:101CE000AFFA617828710F4801F0AAFA217868717B
:101CF0000C4801F0A5FA0024A871295D10220C48B7
:101D000003F05BF901340A48104903F0AEF8072CE0
:101D1000F3D1074803F0AEF8BDE8704004480C4921
:101D200003F0BEB8A61400201E14002062D80008DC
:101D3000B014002069D8000871D8000877D80008CE
:101D40007ED8000888D800082714002036DD000857
:101D500092D8000870B51C480D4601F074FE1B4C6B
:101D600001462046FEF7FCF9E188194E6423B1FBD9
:101D7000F3F1C9B2304601F063FA2870E2884FF4FB
:101D80007A73B2FBF3F103FB11213046C9B201F0C3
:101D900057FA68706179304601F052FAA8702179DB
:101DA000304601F04DFAA178E870304601F048FA6B
:101DB00061782871304601F043FA21786871304625
:101DC00001F03EFAA87170BD271400201E140020F7
:101DD000A61400200148112101F029BE271400207B
:101DE000064B1A6801321A601A683B2A04D900228D
:101DF0001A60034B01221A70704700BF281400209C
:101E00004914002010B5084C0849204602F0AFFFE5
:101E100020460121064A02F0DCFF20460021BDE8F1
:101E2000104002F09BBF00BF4C15002040420F0045
:101E3000E11D000810B5054C204602F081FF204648
:101E40000021BDE8104002F089BF00BF4C15002002
:101E5000014802F06DBF00BF4C1500202DE9F8438A
:101E600000240F469046994625464C4513DA5FFA02
:101E700088F60121304603F0E5FA0A2003F040FB22
:101E8000F8B203F0C9FA002100EB4505304603F033
:101E9000D9FA0134E9E72846BDE8F88370B5D4B231
:101EA0001D46EDB20E462046002103F073FA284687
:101EB000002103F06FFA2046012103F0C3FA2846FF
:101EC000012103F0BFFA2046002103F0BBFA2846A7
:101ED000002103F0B7FA2846012103F0B3FA2046A7
:101EE000012103F0AFFA2846002103F0ABFAF3B268
:101EF00001222046294603F0D1FA2846012103F0A9
:101F0000A1FA2046022103F045FA204603F084FAA4
:101F10002846002103F096FA2046BDE8704003F001
:101F20007BBA38B5CDB22846022103F033FA6424D7
:101F30000A2003F0E5FA284603F06EFA08B1013CE6
:101F4000F6D138BD2DE9F843CCB2154680460E4691
:101F5000EFB22046022103F01DFA3846002103F0BB
:101F600019FA2A46082331464046FFF777FF002139
:101F70004FEA0029204603F00DFA2046012103F024
:101F800061FA2046002103F05DFA3846012103F092
:101F900059FA3846002103F055FA2046022103F091
:101FA000F9F9404631462A460823FFF757FF49EA28
:101FB0000000BDE8F88338B51446CDB2E4B2284637
:101FC000002103F0E7F92046002103F0E3F9284659
:101FD000012103F037FA2046012103F033FA2046AD
:101FE0000021BDE8384003F02DBA38B590E80C0068
:101FF00004460321FFF752FF20462168FFF791FFB7
:1020000094E806002046FFF79DFF94E80600054689
:102010002046FFF7D0FF284605F028FA38BD00001B
:1020200008B5FFF7E2FF05F03BFC05F01FFA034996
:1020300005F070FA024905F063F908BD0AD7233CA0
:1020400000002042F8B590E80C0004460521FFF797
:1020500025FF20462168FFF764FF94E8060020462C
:10206000FFF770FF94E8060005462046FFF7A3FF40
:10207000284605F0FBF91E49064605F04BFA4FF0DD
:10208000814105F03DF91B490546304605F042FA0D
:10209000314605F03FFA0146284605F033F9074678
:1020A0002046FFF7BDFF04F0A1FD0022124B04F013
:1020B0003DFC04460D463046104905F02BFA104908
:1020C00005F020F904F092FD02460B462046294611
:1020D00004F0E0FD044638460D4604F087FD024654
:1020E0000B462046294604F023FC05F0B5F8F8BD60
:1020F00054E3253DA2E73BB600003940ACC5A73804
:102100000AD7233C024B1D211C2283E8060070479E
:102110002C14002038B5094C094825680135256084
:10212000FFF734FD854207D3064802F001FE002385
:102130002360054B01221A7038BD00BF44140020F3
:102140001A140020481500200A01002007B538485D
:10215000FFF782FA002831D1364B187002F030F8C0
:1021600033483549FFF70FF928B131483249FFF7B5
:102170004AF9002852D12E48FFF7AEFB20B12C4877
:10218000FFF72FFB00284ED101238DF8003028489F
:10219000002369468DF801308DF802308DF8033048
:1021A0008DF80430FFF7A8FA18B12448244902F04A
:1021B00077FE24480021052200F0A0FC1F48224998
:1021C00002F06EFE1A48FFF747FA08BB01F0F8FF6D
:1021D000102003F021F9A8B901F0F2FF41F2883094
:1021E00003F08EF901F0ECFF102003F015F948B967
:1021F000164801F075F8102003F00EF910B901F03F
:10220000DFFFF8E71248FEF709FC01F0D9FFD9E734
:10221000084B01221A7003B05DF804FB0D49074812
:1022200002F03EFEA7E70C49044802F039FEABE796
:102230001D1400200800002038140020B0140020D5
:102240003FD900086C1400205CD90008A7140020B6
:102250001614002081D9000894D90008F8B5154E4D
:102260000325346801F0ACFF134B1A781F461AB9E6
:10227000124801F087FA0BE0114A1178114A1170E7
:1022800000221A70F8BD3B7843B90F48FEF7C6FB31
:10229000326804F51C5310339A42F4D3013D15F013
:1022A000FF053468DED1BDE8F8400848084902F06F
:1022B000F7BD00BF9015002014140020A7140020C3
:1022C00074140020A414002016140020B014002060
:1022D000C3D9000810B501F073FF124800F092FF57
:1022E000114B1A78114B1B789A4205D010491148AE
:1022F00002F0D6FDFFF7B2FF0F4B1A7872B10F490B
:1023000000240C481C7002F0CBFDFFF7A7FF0C481F
:10231000214602F023FD0A4802F012FDBDE81040FC
:1023200000F026BA7514002074140020A4140020B4
:10233000E2D90008B01400200A01002003DA0008E6
:102340004815002008B5052003F066F840BB64205E
:1023500003F0D6F8052003F05FF808BB11491248D6
:1023600002F09EFD01F02CFF41F2883003F0C8F826
:1023700001F026FF052003F04FF888B9642003F030
:10238000BFF8052003F048F850B90848FFF7C7FA2E
:102390000548074902F084FDBDE8084001F010BF80
:1023A00008BD00BF33DA0008B01400201914002063
:1023B00046DA000810B50D4C02222046012102F039
:1023C000F5FC20460A4902F0D2FC012120460A46CB
:1023D00002F0F0FC20460121064A02F0FAFC2046F9
:1023E0000021BDE8104002F0B9BC00BF4815002034
:1023F00040420F0015210008074A30B51368154602
:102400002C6819188C42044A04D81168994238BFC4
:102410001368F5E730BD00BF90150020924B30B532
:102420001A688DB022F0E06242F000721A60062055
:102430004FF47A7101F0B4FE8C484FF4165102F05B
:102440004FFC8B484FF41651FEF7A2FB4FF4165188
:10245000884802F045FC01F036FE01F0B1FE8648E6
:1024600000F022FB8248FEF76FFB1420002102F0EF
:1024700091FF0121142002F0E5FF8048FEF774FF70
:1024800001217B48FEF7FEFB4FF47A7003F038F829
:102490007B48FEF7C3FA01F093FE7A49734802F0D5
:1024A000FFFC79482221FFF705FB0128044605D1EE
:1024B00075482321FFF7FEFA0546E0B10022724875
:1024C0000121FFF7E2FA7149684602F0A1FE694670
:1024D00006A802F0BEFE1022012103A802F0D4FEDD
:1024E00003A906A802F01BFF694902F025FF00219D
:1024F000044609A816E06749684602F089FE694665
:1025000006A802F0A6FE2146102203A802F0BCFE97
:1025100003A906A802F003FF5D4902F00DFF29465A
:10252000044609A8102202F0AFFE204609A902F0D5
:10253000F6FE01464D4802F0A9FC09A802F026FE6D
:1025400003A802F023FE06A802F020FE684602F06F
:102550001DFE4D482421FFF7ABFA0228044616D190
:1025600049482521FFF7A4FA054680B94A4906A83B
:1025700002F04EFE06A909A802F06BFE214609A84A
:1025800002F0ECFE424902F0D7FE294614E0002298
:102590003D480221FFF790FA404906A802F038FEB4
:1025A00006A909A802F055FE022109A802F0D6FEEC
:1025B000374902F0C1FE002102F0D0FE01462B484F
:1025C00002F064FC09A802F0E1FD06A802F0DEFDBD
:1025D000FFF7B8FE3248FFF799F9044658B90620CC
:1025E000012102F02FFF22482146FEF7F3FD0620CD
:1025F000214602F027FF2B48FFF701F8FFF7A6FD61
:1026000029492848FFF732F80146C0B90A221A487A
:1026100000F074FA2549154802F042FC2449134899
:1026200002F03EFC234800F019FF1548FEF7F6F9CA
:1026300040F6B830FFF7E0FE01F0C2FDE0E71E49CA
:102640000A4802F02DFC0A220B48012100F056FA3C
:1026500001F0B6FDFFF7D6FB1849044802F020FC54
:10266000FFF7A8FE0DB030BD04000140B0140020FB
:1026700018140020E01400206C1400201C1400200A
:1026800016140020F9E100081B14002036DB0008B6
:10269000AFD7000881DB000897DB0008ADDB00083E
:1026A000191400201D140020381400208ADA0008B4
:1026B000BEDA0008A7140020EDDA000814DB0008D9
:1026C00001480021FEF786BD181400201FB52148DF
:1026D00001A9FEF7CBFF204CC0B92049204802F0E9
:1026E000DFFB204800F0BAFE1F48FEF797F940F6DE
:1026F000B83002F005FF01F063FD23780133DBB24F
:10270000322B2370E3D901F08FFDE0E70023237023
:102710001048FFF7CBF8C0B91449114802F0C0FBCC
:10272000104800F09BFE1048FEF778F940F6B830EC
:1027300002F0E6FE01F044FD23780133DBB2322BD8
:102740002370E5D901F070FDE2E70023237004B0A7
:1027500010BD00BF1D14002048140020F8DB000845
:10276000B0140020A71400201614002046DC000836
:102770000F4B10B51A78CAB100241C70FFF768FB24
:1027800021460C480A2200F0B9F9FFF799FFFFF73C
:102790009DFFFFF74FFB074801210A2200F0AEF929
:1027A000BDE810400448054902F07ABB10BD00BFE7
:1027B000491400206C140020B01400209CDC000898
:1027C0000A4B1A680A4B9B6800BF00BF074909689B
:1027D0008A42F5D1C3F58C33482103F5A073B3FBCE
:1027E000F1F34FF47A7000FB02307047901500202F
:1027F00010E000E010B5044680E80600D0B20021E9
:1028000002F0C8FD2078002102F0C4FD00232079E9
:10281000E360012102F016FE20780121BDE810409E
:1028200002F010BE38B5C36804460D4623B100213E
:10283000C160007802F0AEFD20782946BDE838403E
:1028400002F000BE10B500210446FFF7EBFF642044
:1028500002F064FE2079002102F0F4FDBDE8104092
:10286000642002F05BBE10B500210446007902F03E
:10287000E9FD642002F052FE20460021FFF7D2FF5E
:10288000642002F04BFE2079012102F0DBFD642080
:1028900002F044FE20460121FFF7C4FFBDE81040CE
:1028A000642002F03BBEF8B504460E460825F70941
:1028B0002079002102F0C6FD20463946FFF7B2FF1D
:1028C0000121207902F0BEFD642002F027FE20469F
:1028D0003946FFF7A7FF7600013DF6B2E7D129465A
:1028E000207902F0AFFD2078022102F053FD02238F
:1028F000E3602079012102F0A5FDFFF761FF0546A5
:10290000207802F089FD30B1FFF75AFF401B6428A0
:10291000F6D90020F8BD0120F8BD38B50D460446B3
:10292000FFF790FF6900204601F0FE01FFF7BBFFB3
:1029300038BD08B5FFF797FF002008BD08B5FFF7C1
:10294000B2FF08BD70B50D466D0004461646FFF790
:1029500079FF691CA6602046C9B2FFF7A4FF70BDCD
:1029600070B586680446002E55D00078022102F02A
:1029700011FD0223E360082500262079002102F0E2
:1029800061FD0121207902F05DFD642002F0C6FDA9
:10299000207802F041FD013D00EB460000F0FF060B
:1029A000EBD1A3686068013B002BA360C0B229464D
:1029B00017DD02F047FD642002F0B0FD29462046F5
:1029C000FFF730FF642002F0A9FD2079012102F019
:1029D00039FD642002F0A2FD2079294602F032FD83
:1029E00019E002F02FFD642002F098FD012120463D
:1029F000FFF718FF642002F091FD0121207902F019
:102A000021FD642002F08AFD2079294602F01AFD9A
:102A10002046FFF728FF304670BD002330B505463D
:102A200018468B420FDAEA5C5040082210F0010F82
:102A30004FEA60041ABF84F0E000C0B2E0B2013A8D
:102A4000F4D10133EDE730BD08B5134B13491A68D3
:102A5000096801328A421A601DD3114900221A60A6
:102A60000B78DB43DBB20B700E49097841B10129C9
:102A700011D1072003B1114602F0E4FC062005E065
:102A8000062003B9012102F0DDFC07200021BDE88A
:102A9000084002F0D7BC08BD601400206814002074
:102AA0005C1400206414002008B51320002102F0FB
:102AB00071FC0720002102F06DFC0620002102F0CD
:102AC00069FC1020022102F065FC0520022102F0C1
:102AD00061FC0021082002F05DFC0A2002F010FDDC
:102AE0000720002102F0AEFC0620002102F0AAFC23
:102AF000BDE808400820012102F0A4BC0F4B10B52E
:102B00000F4C19700F4B20461A600121022202F06F
:102B10004DF920460C4902F02AF9012120460A46C7
:102B200002F048F920460121084A02F052F92046F5
:102B30000021BDE8104002F011B900BF641400206C
:102B40005015002068140020A0860100492A0008C2
:102B500008B5064802F0ECF80720002102F072FCEC
:102B6000BDE808400620002102F06CBC5015002092
:102B7000014802F0E5B800BF501500200020704762
:102B800008B51620002102F005FC1720002102F0F4
:102B900001FC1620012102F055FCBDE80840172079
:102BA000012102F04FBC1720002102F0F3BB1720D7
:102BB000042102F0EFBB08B5FFF7F5FF1720012154
:102BC00002F040FC0121162002F03CFC052002F03E
:102BD000A5FC0021172002F035FC062002F09EFC27
:102BE000BDE808401620002102F02CBC08B5FFF714
:102BF000DAFF1620002102F025FC1720002102F048
:102C000021FC0121162002F01DFC062002F086FCAA
:102C10001720012102F016FCBDE80840062002F052
:102C20007DBC10B500210446162002F00BFC2046A6
:102C3000FFF7B9FF0021172002F004FC022002F088
:102C40006DFC0121162002F0FDFB052002F066FC60
:102C5000BDE810401620002102F0F4BB10B50021A1
:102C60000446162002F0EEFB2046FFF79CFF0121F0
:102C7000172002F0E7FB022002F050FC0121162091
:102C800002F0E0FB052002F049FCBDE810401620F0
:102C9000002102F0D7BB70B50646FFF788FF01217F
:102CA000172002F0CFFB012002F038FC1620012192
:102CB00002F0C8FB012002F031FCFB25172002F0D6
:102CC000ABFB044640B1013D15F0FF05F6D130469F
:102CD000FFF78CFF012070BD1620214602F0B2FBE9
:102CE000204670BD38B50C46FFF75DFF1620002169
:102CF00002F0A8FB082524F07F0303F0FF01172052
:102D000003B1012102F09EFB0121162002F09AFB83
:102D1000022002F003FC1620002102F093FB013D8B
:102D20000220640002F0FAFB15F0FF05E4B2E2D1E4
:102D300038BDF8B505460F46FFF739FF08260024D1
:102D40000021162002F07EFB022002F0E7FB162095
:102D5000012102F077FB64001720E4B202F05CFB73
:102D600008B10134E4B20120013E02F0D7FB16F0B5
:102D7000FF06E5D1284617B9FFF770FF01E0FFF71E
:102D800050FF2046F8BD7047012070470120704772
:102D900010B5FF2301441A46884208D010F8014BB1
:102DA0005440044A125D5A40034B1B5DF4E743EA6A
:102DB000022010BD090000200C01002070B5094D53
:102DC000094C0646227829780848FFF713FD287831
:102DD000012102F037FB2078012102F033FB30465D
:102DE00070BD00BF090100200B01002094140020D9
:102DF00010B5064C2046FFF790FD2046FFF799FDE1
:102E0000D0F1010038BF002010BD00BF9414002095
:102E100010B54A2104460548FFF7EAFF28B12368A8
:102E200020461B6801219847012010BDA5140020F1
:102E300070B5094C154620461E46FFF76EFD294623
:102E40002046FFF77BFD20463146FFF777FD204601
:102E5000BDE87040FFF76DBD94140020F8B513482D
:102E600014461E460F469DF81850FFF756FD2146A2
:102E70000E48FFF763FD0D48FFF75BFD0B4CA5B156
:102E80002A4620463946FFF75DFD0022237A551C6D
:102E900033B10648D7B2FFF763FD2A46F055F5E790
:102EA0000248BDE8F840FFF744BDF8BD9414002087
:102EB000F0B51C4685B0012300930DF10F031546B4
:102EC00007460E46FFF7CAFF9DF80F309DF82820F1
:102ED00023EA040314402343384631462A468DF83A
:102EE0000F30FFF7A5FF05B0F0BD000013B50024BB
:102EF00071B1012213460B484A210094FFF7D8FF15
:102F00004A210094074802224023FFF7D1FF802185
:102F1000009104484A2102228023FFF7C9FF02B032
:102F200010BD00BFA514002008B501F049F91E220C
:102F30000F481F21FFF75EFC38210D48FFF7EDFC1D
:102F400006210B48FFF7FAFC0948FFF7F2FC4FF4A3
:102F5000FA7002F0D5FA0748FFF75AFF10B1064899
:102F6000064901E004480649BDE8084001F098BF61
:102F70004C14002070140020B014002000DD000864
:102F800019DD000800000000F0B5044685B00D46CC
:102F9000164601F015F92046314CFFF7C5FF3921DF
:102FA00001222046FFF7CEFC012002F0A9FA277A81
:102FB0001FB12046FFF7D4FC0746382101222848DC
:102FC000FFF7C0FC012002F09BFA207A10B12448E0
:102FD000FFF7C6FC40EA072003F0E6FD1EA3D3E995
:102FE000002303F057FE04F017F91E4930601E4815
:102FF00001F03BFF31680A221B4801F0FAFF02236F
:1030000000931A4803AB4A210322FFF727FF9DF8DC
:103010000D209DF80C3002F00F0242EA03122D2120
:10302000D2B24A431B0902FA03F34FF47A72B3FB9C
:10303000F2F32B600E490C4801F017FF29680A22B1
:10304000094801F0E0FF0B49074801F029FF05B0EE
:10305000F0BD00BFAFF300800AD7A3703D0A773FF1
:103060004C14002032DD0008B0140020A51400200C
:1030700038DD00084FDD000808B50348FFF79EFE65
:10308000024A034B1A6008BDA5140020E0DC0008CA
:1030900070140020F0B5284C85B020680E46616899
:1030A00002AB03C304AC154600210722684605F0B5
:1030B000FDFA01F085F804F8085D20460621FFF7C7
:1030C00067FE030A8DF80F001C488DF80E30036868
:1030D00021469B6808229847642002F011FA0025D7
:1030E0002C46164801F09EFD002811DD062C04D95F
:1030F0000135EDB2092D1BD80024104801F03EFD2A
:10310000671C04AB1C44FFB204F8100C3C46E8E713
:1031100074B168460521FFF73BFE9DF805209DF838
:10312000063043EA0223834202D19DF8043000E0D6
:10313000FF23337005B0F0BDF8DC0008E014002078
:1031400037B5054601F03CF82548FEF769FF254CE8
:103150002060642002F0D4F92148FEF773FFA060DC
:10316000642002F0CDF9284604F118010222FFF78D
:1031700091FF642002F0C4F904F1140204F10C017F
:103180001948FFF701FF642002F0BAF917491848FF
:1031900001F06BFE206803F029FD022502460B4674
:1031A0000095134801F0E4FF1249114801F05DFE5B
:1031B000A06803F01BFD009502460B460C4801F089
:1031C000D7FF237E0A480BB90B4903E0012B0CBF44
:1031D0000A490B4903B0BDE8304001F061BE00BFB1
:1031E0002C140020781400207514002054DD0008F1
:1031F000B014002062DD00086DDD000877DD0008F6
:1032000082DD000870B50C4C06460025257600F0DE
:10321000D7FF304604F118010222FFF73BFFC82018
:1032200002F06EF9207E012800D010B9034B18700F
:1032300070BD284670BD00BF7814002074140020B3
:103240000A22B1FBF2F302FB131202EB0310C0B22D
:10325000704701F00F03090901EB810103EB410005
:10326000C0B2704737B50C4600F0AAFF0DF1070158
:103270000B48FEF760F99DF807304FF47A70584319
:10328000084902F000F99DF80730054664205843CC
:10329000054902F0F8F82844206003B030BD00BFB3
:1032A0001D14002080841E00400D030070B50E46E2
:1032B00015460024E3B2AB42074809D2315D102223
:1032C00001F07BFE0448054901F0CFFD0134F1E730
:1032D000BDE8704001F0CEBDB014002036DD00081E
:1032E00070B594B0402200210546002604A814AC15
:1032F00005F0DCF944F8506D00F062FF694628469D
:10330000FFF7B0FF009802F009F900F059FFFE2323
:103310008DF81030E0238DF8113011238DF8123024
:1033200024238DF8133003238DF81530444B8DF88A
:1033300014601B7803B1552342488DF81630FEF710
:10334000B2FA01AC8DF8170021463E48FEF722FA8A
:10335000002304AA1A44E15C0133052B1172F8D151
:1033600038482146FEF78FF8002304AA1A44E15C8E
:103370000133092B5173F8D1002401232221324853
:103380008DF826308DF827408DF828408DF829409B
:103390008DF82A408DF82B408DF82C408DF82D406B
:1033A0008DF82E408DF82F40FEF784FB23218DF8F9
:1033B00030002548FEF77EFB24218DF8310022489D
:1033C000FEF778FB25218DF832001F48FEF772FBCF
:1033D00024218DF8330005A88DF834408DF8354050
:1033E0008DF836408DF83740FFF717FB8DF8380021
:1033F000E30704AB234404F1010454BF0D220A2265
:10340000062C83F82920F3D11049114801F048FD1A
:1034100004A928462F22FFF749FF0E48FFF798FB23
:103420000D4804A903682F229B6898474FF4FA704F
:1034300002F066F80748FFF79BFB14B070BD00BFB1
:10344000171400201D1400201B14002098DD000814
:10345000B01400206C140020C814002070B586B091
:10346000142200210546002601A806AC05F01EF92D
:1034700044F8186D00F0A4FE69462846FFF7F2FEF6
:10348000009802F04BF800F09BFEFE238DF804300C
:10349000E0238DF8053013238DF8063005238DF8D1
:1034A000073003238DF809301E4B8DF808601B7818
:1034B00003B155231C488DF80A30FEF7F4F90123B7
:1034C0008DF80B00052102A88DF80C30FFF7A5FA46
:1034D00000238DF80D00DA0701AA1A4403F1010355
:1034E00054BF0D210A21062B9172F4D10F491048C7
:1034F00001F0D6FC01A928461022FFF7D7FE0D489F
:10350000FFF726FB0C4801A9036810229B68984727
:103510004FF4FA7001F0F4FF0648FFF729FB06B0FC
:1035200070BD00BF171400201D140020B4DD00087A
:10353000B01400206C140020C814002070B58CB0AA
:103540001E220024002106460CAD04A805F0AEF8AA
:1035500045F8244DADF8084000F032FE29463046CB
:10356000FFF780FE039801F0D9FF00F029FE354BEC
:103570000094354802A90122FDF7B6FCFE238DF820
:103580001030E0238DF8113014238DF812301223FF
:103590008DF8133003238DF815302C4B8DF8144023
:1035A0001B7803B155232A488DF81630FEF77BF9B6
:1035B00001238DF81830274B00241B788DF8170055
:1035C0009DF8081024488DF819308DF81A408DF8B0
:1035D0001B40FFF73EFE9DF809108DF81C001E48A9
:1035E000FFF737FE12218DF81D0005A8FFF715FA29
:1035F00023468DF81E00DA0704AA1A4403F10103DA
:1036000054BF0D210A21062BD173F4D1134914485C
:1036100001F046FC04A930461522FFF747FE114889
:10362000FFF796FA104804A9036815229B6898478B
:103630004FF4FA7001F064FF0A48FFF799FA0CB0F2
:1036400070BD00BFDADD0008181400201714002038
:103650001D140020A8140020A6140020E4DD00089A
:10366000B01400206C140020C81400202DE9F04193
:1036700088B005460026884617460021192201A871
:1036800008AC05F013F844F8206D00F099FD694688
:103690002846FFF7E7FD009801F040FF00F090FD9D
:1036A000FE238DF80430E0238DF8053015238DF8C6
:1036B00006300E238DF8073003238DF809302B4B8D
:1036C0008DF808601B7803B1552329488DF80A301E
:1036D000FEF7E9F800248DF80B00012302A80E2163
:1036E0008DF80C308DF80D808DF80E408DF80F4060
:1036F0008DF810408DF811408DF812408DF8134070
:103700008DF814408DF81540FFF787F98DF81600F5
:10371000E30701AB234404F1010454BF0D220A2244
:10372000062CDA74F4D11349134801F0B9FB28468A
:1037300001A91922FFF7BAFD1048FFF709FA002482
:10374000E3B2BB420BD20E4801A9036819229B6861
:1037500098474FF4FA7001F0D3FE0134F0E70748C0
:10376000FFF706FA08B0BDE8F08100BF171400208B
:103770001D140020FEDD0008B01400206C14002091
:10378000C8140020F0B50024A9B021461422054633
:1037900003A8009404F08AFF2146802208A804F0C0
:1037A00085FF00F00DFD8648FFF7CAFC00F008FD1C
:1037B000FE238DF82030D0238DF8213025238DF87D
:1037C0002330012703237F488DF824408DF82530CE
:1037D0008DF82270FFF7D2F97B4C030A26688DF82A
:1037E00027007A4930468DF8263004F04FF828B18A
:1037F000FF238DF828308DF829301AE0304600215B
:1038000004F026F818B106F10046266000E00746ED
:103810000223684621680422FCF71CFE9DF8003054
:103820008DF828309DF801308DF829300FB1F22342
:1038300000E0E223A6688DF82A303046002300938A
:1038400004F02EF80138632803D9FF238DF82B30BC
:103850000BE00223684631460422FCF7FBFD9DF88D
:1038600000308DF82B309DF801308DF82C30002180
:10387000E223142203A88DF82D30009104F016FFE6
:10388000E268534B9A4207D9FF238DF82E308DF80A
:103890002F308DF8303019E04E4903A805F06EF94D
:1038A00003A805F0EFF903A902466846FCF79AFD64
:1038B0009DF800308DF82E309DF801308DF82F30B6
:1038C0009DF802308DF830309DF8033060698DF836
:1038D0003130E023FF228DF832300026E1236428C6
:1038E0008DF833208DF834208DF835208DF8362072
:1038F0008DF83730009604D98DF838208DF83920AE
:103900000FE003F0AFFD3346014604226846FCF7A2
:10391000A1FD9DF800308DF838309DF801308DF80C
:103920003930FF238DF83B308DF83C308DF83E3038
:103930008DF83F30237E01ACE022274821468DF8E8
:1039400041308DF83A208DF83D208DF84020FEF76B
:1039500001FA002308AA1A44E15C0133072B82F81C
:103960002210F7D109A82521FFF757F800238DF879
:103970004900DA0708AA1A4403F1010354BF0D21D4
:103980000A21062B82F82A10F3D11449144801F0B9
:1039900087FA08A928463022FFF788FC0948FFF774
:1039A000D7F8104808A9036830229B6898474FF45D
:1039B000FA7001F0A5FD0348FFF7DAF829B0F0BD71
:1039C000751400206C1400207814002000001643A9
:1039D000400D030016DE0008261400201CDE00083F
:1039E000B0140020C8140020122938B5054614462A
:1039F00008460BD0132910D0112916D100F072F807
:103A00000CB120460FE047F6FF700CE000F06AF8BA
:103A1000002CF6D149F63F4005E000F063F8002C99
:103A2000EFD14FF2234000F011F9284638BD13B50D
:103A30000022044601A8FFF7D7FF204602B010BDC0
:103A4000084600F0E9B800F0D5B80000054B1B6847
:103A50001B685B0103F1844394331A68002AFCD08D
:103A6000704700BF0C020020054B1B681B685B0100
:103A700003F184438C331A68002AFCD0704700BFDE
:103A80000C02002008B5FFF7E1FF054B00221B6880
:103A90001B685B0103F18443C3F88C2008BD00BFA1
:103AA0000C02002008B5FFF7D1FF054B01221B686F
:103AB0001B685B0103F18443C3F8902008BD00BF7D
:103AC0000C02002008B5FFF7C1FF054B00221B6860
:103AD0001B685B0103F18443C3F8902008BD00BF5D
:103AE0000C02002010B5044600F0EDFA00F0F8FAE0
:103AF000204A112C136A23F44073136213460BD02F
:103B000005D8C4B1102C2AD10023136227E0122C4F
:103B100011D0132C1AD022E0174A00211160012184
:103B200042F8081C154A126812F0FF0FFAD01A6A00
:103B300042F4807212E0124A01211160114A1268A7
:103B4000002AFBD01A6A42F4007207E00E4A12689B
:103B500012F0FF0FFAD01A6A42F440721A620B4B4D
:103B600001221A60FFF78EFFFFF77EFFBDE81040CD
:103B7000FFF76CBF001002400804424204044242B6
:103B80008004424284044242440042423C04424295
:103B9000F8B5104B1E6835682B686F681F4017F02A
:103BA000010403D074680CB1A0470124BA0704D5FE
:103BB000B36813B1984744F002047B0704D5F36857
:103BC00013B1984744F004046B6823EA04046C6062
:103BD000F8BD00BF0C02002008B5044B1B681B6930
:103BE0001BB19847024B01221A6008BD0C0200204D
:103BF000C482204208B5FFF745FFFFF735FFFFF706
:103C000025FF044B1B681B689869DB699BB243EA7C
:103C1000004008BD0C02002010B50446FFF732FF3B
:103C2000FFF722FFFFF712FFFFF73CFF064B220CC6
:103C30001B68A4B21B689A61DC61FFF743FFBDE813
:103C40001040FFF703BF00BF0C02002010B5044670
:103C5000FFF718FFFFF708FFFFF7F8FEFFF722FF57
:103C6000064B220C1B68A4B21B689A60DC60FFF74D
:103C700029FFBDE81040FFF7E9BE00BF0C0200209D
:103C800001498D460149084700500020913C000839
:103C900008B5124B124A1968914201D0002301E085
:103CA000104B07E01048D4188442F9D2C858D050BD
:103CB0000433F7E70D4A934203D2002243F8042B62
:103CC000F8E704F043F900200146024601F05CFBEE
:103CD000074B0BB104F02AF9FEE700BF04E400082B
:103CE0000000002078130020781300209815002091
:103CF0002D7F000808B50D4B1A680AB90C4A1A60E6
:103D00001B680C4AD21A824204DB09494242591A02
:103D1000914206DA04F004F90C2303604FF0FF30FF
:103D200008BD024A18441060184608BDAC140020B3
:103D30009815002018210128FEE770470B4B10B59D
:103D4000196809220A230A4800F080FF094B022261
:103D500019680948032300F079FFBDE81040074BBC
:103D6000074819681A221B2300F070BF3003002097
:103D7000B014002034030020C814002038030020B1
:103D8000E014002010B5044600F082F9034B2046F1
:103D90001978BDE8104000F017B900BF28020020D4
:103DA000F8B50446056800F057FB2268002351016E
:103DB00001F184410B60802129600121A9622B61FE
:103DC000EB606379696113B18B4203D02BE04FF450
:103DD00000436B644FF6FF73D36200256E1CF7B28D
:103DE0002046394600F042FBD0B1236848F6FF7107
:103DF00003F1340242F8251018336D1017F0010F4B
:103E000053F8252014BF6FF0FF016FF47F4101EAE2
:103E1000020214BF68214FF4D0410A4343F8252021
:103E2000042E3546DAD1216801224B01490103F104
:103E3000844301F18441C3F880220A60F8BD000088
:103E400038B5274B274C1A68022042F010021A603E
:103E500000F052F90025002000F00AFA656023689E
:103E6000182023F40023236000F00FFA102000F044
:103E70000CFA00F043F8A560102000F0F9F91020CA
:103E800000F020FA0028FAD000F039F8164800F0C7
:103E900025FA182000F0ECF9182000F013FA002899
:103EA000FAD0022000F0D4F900214FF0006000F0B9
:103EB000A3F90E4800F088FA00F038F80C4B188887
:103EC00000F0D4F80B4800F0D5F80B4800F0B0FA39
:103ED00000F02EF800F02DF8FFF72FFF38BD00BFDF
:103EE00000200240001002402C0200203F19010077
:103EF0002A020020853D0008A13D0008704708B552
:103F00000020014600F038FA01204FF4806100F0F3
:103F100033FA0021022000F02FFA2D2000F03CFAA5
:103F2000BDE808400320002100F026BA00F0EEB8FA
:103F3000704700F02BB900000000000000000000F6
:103F4000012007E0022005E0032003E0042001E057
:103F50000520FFE70D4A0121116072B60C4A0021CD
:103F60001160074902B4084902B486B005498E467B
:103F7000704700BFAFF30080AFF30080AFF3008065
:103F800000000061F9FFFFFF054B000814ED00E0A1
:103F900010E000E0AFF30080AFF30080AFF30080EB
:103FA000FEE710B50446007900F0B4F92079BDE8C9
:103FB000104000F0C7B903689A6822F4602242F406
:103FC0008012114399607047002370B51A461C4651
:103FD000072B4FEA430503DCEE1801FA06F63443DB
:103FE0001D4401FA05F501330A2B42EA0502EFD11F
:103FF0000368DC601A6170BD38B5124D2A68136819
:104000001C68A10706D5196821F0020119609368A0
:1040100003B19847620708D52B681A681B691168B5
:1040200021F00401116003B19847E30708D52B681C
:104030001A68DB68116821F00101116003B198472B
:1040400038BD00BF58020020036801225B0103F164
:10405000844303F58673191F1A6018680028FCD181
:1040600043F8042C0B68002BFCD170470146042058
:1040700000F082B9044B10B504461868A047034B02
:104080001868A04710BD00BF58020020540200204D
:1040900010B50446FFF785FF20464FF46021FFF777
:1040A0008AFF2368012103F1404308335A015B0171
:1040B00002F1844203F18443116520461960BDE892
:1040C0001040FFF7C1BF08B5142000F023F9042009
:1040D00000F020F9BDE80840042000F033B90000EA
:1040E000014B01221A60704720000E42014B002252
:1040F0001A60704720000E42034B1A6822F0070234
:1041000010431860704700BF0020024008B5074800
:1041100001F070FA064801F06DFA064801F06AFAFB
:10412000BDE80840044801F065BA00BF5C02002009
:10413000640200206C0200207402002070B501F0BF
:104140000704A4000F25A5400368C80853F82060A1
:10415000092A26EA050514BF1646082606FA04F4BD
:10416000082A44EA050443F8204006D1012000FA59
:1041700001F1DA6822EA010106E0092A05D10120ED
:1041800000FA01F1DA681143D96070BD08B5032067
:1041900000F0C0F8BDE80840032000F0D3B80000EC
:1041A000064B45F255521A604CF6CC425860996065
:1041B0001A604AF6AA221A60704700BF0030004019
:1041C000024B4AF6AA221A60704700BF0030004036
:1041D00000284FEA011105DA064B00F00F00C9B2C2
:1041E0001954704700F16040C9B200F5614080F891
:1041F0000013704714ED00E021F0604138B521F064
:104200007F01084B0843986000241D4660B20F21CF
:104210000134FFF7DDFF2B2CF8D1F02385F8233094
:1042200038BD00BF00ED00E0044A054BD16801F441
:1042300040710B43D360BFF34F8FFEE700ED00E00A
:104240000400FA05014B13F810007047DCE0000889
:10425000064B5A6822F0030202435A6080005A68F3
:1042600002F00C028242FAD1704700BF00100240F7
:10427000030A0121C0B201FA00F003F1804303F503
:1042800004331A68104318607047030A0121C0B252
:1042900001FA00F003F1804303F504331A6822EABF
:1042A000000018607047030A0122C0B202FA00F051
:1042B00003F1804303F504331B6818420CBF002050
:1042C00001207047030A0222C0B202FA00F003F193
:1042D000804303F504331B681840704738B54368C2
:1042E000044618201D68FFF7DEFF20B10648812133
:1042F000064A00F011FC064B21685A680D4322F46F
:10430000741215435D6038BD6CE00008C0E0000821
:104310000010024010B50446FFF794FF074B53F816
:104320002020074B03EB4404637803EBC2039B009C
:1043300003F1844301221A6010BD00BF7C020020FB
:10434000DCE0000810B50446FFF77CFF084B53F88B
:104350002020084B03EB4404637803EBC2039B006B
:1043600003F1844301221A6000221A6010BD00BFCD
:1043700088020020DCE0000810B5054B054C5A68A7
:1043800054F8200022EA00021143596010BD00BF1A
:104390000010024038E1000810B50446FFF752FF54
:1043A000074B53F82020074B03EB4404637803EBDF
:1043B000C2039B0003F1844300221A6010BD00BFBA
:1043C00090020020DCE00008024B072258601A60CF
:1043D000704700BF10E000E008B5044B1A680132D6
:1043E0001A60034B1B6803B1984708BD9015002065
:1043F000F814002011F0010F70B542EA03030CBF5E
:104400000825002503FA05F5006801F1FF3400F1E5
:104410001800C4F3400450F8241014BF6FF0FF06D6
:104420006FF47F463140294340F8241070BD0000EE
:1044300010B504460448A0470448A0470448A047D4
:104440000448A04710BD00BFE40200200C03002078
:104450009C020020C002002010B504460079FFF73E
:1044600059FF2079BDE81040FFF76CBF03791E2B80
:1044700010D9212B0ED0202B0ED9222B01D0252B89
:1044800004D102298CBF0020012070474B1E5842E6
:104490005841704701207047002070478B1C40F83E
:1044A00023200368012203F140430C3301EBC303D3
:1044B0009B0003F184431A6042790379FAB9B3F19E
:1044C0001A025342534107294BD8DFE801F004098F
:1044D0000909090E0E13002B0CBF2C23192337E0FA
:1044E000002B0CBF2E231B2332E0002B0CBF2D23EF
:1044F0001A232DE0002B0CBF2B23182328E01B3B95
:104500000C2B1CD8DFE803F0212307090B0D1B0F30
:104510001113151719001E231AE0322318E0362351
:1045200016E0372314E0182312E0192310E01A23B1
:104530000EE02B230CE02C230AE02D2308E0094891
:1045400040F2BF11084A00F0E7BA1C2300E01D2327
:104550005909012203F01F0302FA03F3034A42F848
:10456000213070474CE1000802D6000800E100E06D
:104570000368002203F140430C3301EBC3039B00AB
:1045800003F1844302311A6040F821207047000093
:10459000F8B54E1EF3B2032B04460D46174604D958
:1045A0002648DA21264A00F0B7FA6379022B43D075
:1045B000032F41D8DFE807F00212223520462946B2
:1045C000FFF7D6FF236803F140432033DB0003EB02
:1045D0008606B60006F18446002320E02368002208
:1045E00003F140430C3305EBC3039B0003F1844309
:1045F0001A60204629466022082303E02046294607
:1046000010220023FFF7F6FE236803F14043203316
:10461000DB0003EB8606B60006F184460123336017
:10462000F8BD23684FF2F1229A6103229A605B0180
:1046300003F1844301221A60F8BD00BF4CE1000879
:104640009FE1000810B5074B1C68E16822690A4029
:10465000120606D55B6A23B19847236923F08003CD
:10466000236110BDE402002010B5074B1C68E1680F
:1046700022690A40D20706D59B6823B1984723696F
:1046800023F00103236110BDE4020020F8B50C4FB4
:104690003D68EB682E691E4016F0400403D03C6A6A
:1046A0000CB1A0474024B30604D5FB6913B1984769
:1046B00044F020042B6923EA04042C61F8BD00BFF8
:1046C000E4020020F8B5134F3E68F36835691D40D9
:1046D00015F0100403D0BC690CB1A04710242907C1
:1046E00004D57B6913B1984744F008046A0704D5E0
:1046F0003B6913B1984744F00404AB0704D5FB6849
:1047000013B1984744F00204336923EA0404346186
:10471000F8BD00BFE4020020F8B51A4E3768FB6808
:104720003D691D4015F0400403D0346A0CB1A04728
:104730004024EB0604D5B36913B1984744F0100444
:10474000280704D5736913B1984744F00804690732
:1047500004D5336913B1984744F00404AA0704D57B
:10476000F36813B1984744F00204EB0704D5B3682B
:1047700013B1984744F001043B6923EA04043C6107
:10478000F8BD00BF0C030020F8B51A4E3768FB686F
:104790003D691D4015F0400403D0346A0CB1A047B8
:1047A0004024EB0604D5B36913B1984744F01004D4
:1047B000280704D5736913B1984744F008046907C2
:1047C00004D5336913B1984744F00404AA0704D50B
:1047D000F36813B1984744F00204EB0704D5B368BB
:1047E00013B1984744F001043B6923EA04043C6197
:1047F000F8BD00BF9C020020F8B51A4E3768FB6870
:104800003D691D4015F0400403D0346A0CB1A04747
:104810004024EB0604D5B36913B1984744F0100463
:10482000280704D5736913B1984744F00804690751
:1048300004D5336913B1984744F00404AA0704D59A
:10484000F36813B1984744F00204EB0704D5B3684A
:1048500013B1984744F001043B6923EA04043C6126
:10486000F8BD00BFC002002081880268034689B2FB
:10487000505C99881A8989B292B2914217BF9A887E
:104880000022013292B2C0B29A807047C28838B515
:10489000838892B29BB201329A4204460D461AD0E6
:1048A000C288038992B29BB29A4202D183889BB29A
:1048B0008BB14FF0FF30E288236892B29D54E288BA
:1048C000238992B29BB29A4217BFE3880023013337
:1048D0009BB2E38038BD2046FFF7C6FFEBE770B51B
:1048E0001E460546084611460422059CFFF726FC95
:1048F0009DF810100B223046FFF720FC2B6804F0C7
:104900000F01DA6804F0300422F4F0521204120CA1
:1049100042EA4122DA601A6922F440521204120C6F
:1049200042EA04241C6170BD38B50446154611B92D
:1049300000F096F8014619235943AD006423B1FBFA
:10494000F5F1B1FBF3F21201100903FB101109019B
:104950003231B1FBF3F303F00F0321681A4392B233
:104960008A6038BD38B5114DEB68980607D52B68BD
:10497000990604D569680E48C9B2FFF787FFEB684E
:104980000A4C1A0611D523681B060ED509488288E1
:10499000C38892B29BB29A4203D0FFF765FF606072
:1049A00038BDE36823F08003E36038BD0038014080
:1049B00008150020FC14002038B5114DEB6898064E
:1049C00007D52B68990604D569680E48C9B2FFF768
:1049D0005DFFEB680A4C1A0611D523681B060ED53D
:1049E00009488288C38892B29BB29A4203D0FFF7EB
:1049F0003BFF606038BDE36823F08003E36038BDAF
:104A000000440040141500202C15002038B5114D2D
:104A1000EB68980607D52B68990604D569680E4897
:104A2000C9B2FFF733FFEB680A4C1A0611D52368A9
:104A30001B060ED509488288C38892B29BB29A425F
:104A400003D0FFF711FF606038BDE36823F08003F7
:104A5000E36038BD004800402015002038150020D4
:104A600008B590F89002FFF7EDFB20B1012803484C
:104A700018BF002008BD024808BD00BF00A24A04BC
:104A80000051250213B504468DF8071020460DF19C
:104A90000701012200F0ECFD0028F7D002B010BDA4
:104AA00038B505464C1E14F8011F19B12846FFF70A
:104AB000E9FFF8E738BD000008B5114B01211C687B
:104AC00003222046FFF73AFB002301211A469342B6
:104AD000206834BF02254FF40035B2F5007F056130
:104AE00003F1010303D0002A08BF012101E04FF0C8
:104AF000FF31B3F5007F04BF52180023E7E700BF82
:104B000068E0000808B5034B0BB1AFF3008062B654
:104B1000FFF7D2FF00000000F8B5144B06460D4623
:104B200017460BB3AFF3008011490446FFF7B8FFF7
:104B300020463946FFF7B4FF20460E49FFF7B0FF85
:104B400020463146FFF7ACFF20460B49FFF7A8FF90
:104B50002046294600F0DAFD20460A21FFF792FFA1
:104B600020460D21FFF78EFFFFF7CCFF000000006D
:104B7000BBE10008D1E1000835DD000803695B688E
:104B8000D9889A8889B292B2D8888A1A998880B2CC
:104B900089B2884203D2198989B201310A4492B29A
:104BA00082B199881A6889B2505C99881A8989B249
:104BB00092B2914217BF9A880022013292B2C0B2DB
:104BC0009A8070474FF0FF30704703695B6899889F
:104BD000DA8889B292B2914205D09A881B6892B263
:104BE000985CC0B270474FF0FF30704703699A6815
:104BF0009088D18880B289B28842F9D11A68136846
:104C00005B06FCD5704713B504698DF80710204684
:104C10000DF10701012200F02BFD0028F7D0012043
:104C200002B010BD03695B68D8889A8880B292B2DE
:104C3000D988801A9A8889B292B2914203D21B898C
:104C40009BB20133184480B27047000030B5002594
:104C500045604FF47A758560024D0161056002750B
:104C6000437530BD08E2000803692DE9F74FDB68A2
:104C7000044699420F4692462CD890F81480174D5E
:104C80004FEA081808EB050690F8159070684FEA8F
:104C9000091909EB050B717B10B10022FFF778FCB5
:104CA000206900F0B1FC337B9BF80C2020698DE873
:104CB000080459F8051058F80530FFF710FE206970
:104CC00000213A46FFF730FE206903B0BDE8F04FFF
:104CD00000F0C4BC03B0BDE8F08F00BF38DE0008B0
:104CE0000022FFF7C1BF0000044B02791B789A42F3
:104CF00002D1034B1B681860704700BF5415002099
:104D000058150020002310B50446036072B6054B09
:104D100019311970044B18600448FFF789FB62B61B
:104D2000204610BD5415002058150020E94C0008FD
:104D3000036800221B685B0103F184431A6070471B
:104D4000036801221B685B0103F184431A6070470A
:104D5000036801391B6889B29962704703681B6850
:104D6000DA6A92B2914228BF11465962704738B54B
:104D7000054639B9036801221B689962DA62D86A6C
:104D800080B238BD48244C434FF6FF71B4FBF1F1BB
:104D9000013189B204EB5104B4FBF1F4FFF7D8FF01
:104DA0002B68A4B21B682046DC6238BD0068C9B21B
:104DB000FFF7EEBB0368C9B21B6801F18041D86AF6
:104DC000013980B23433824228BF024643F82120A1
:104DD00070470068C9B2FFF761BB000008B5012148
:104DE0000848FFF78FFF02210748FFF78BFF0321D9
:104DF0000648FFF787FFBDE8084005480421FFF794
:104E000081BF00BF44150020481500204C1500202C
:104E10005015002070B505460E460024315D29B1BD
:104E20002A682846126890470134F7E7204670BD8B
:104E3000F8B505460C4616468F18BC4206D02B68BE
:104E400028461B6814F8011B9847F6E73046F8BD62
:104E500010B502680B46946809689A68A04710BDAF
:104E600008B503681B68984708BD08B503685B6808
:104E7000984708BD38B50D210546FFF7F1FF0A2117
:104E800004462846FFF7ECFF204438BD38B50446F9
:104E9000FFF7DEFF05462046FFF7ECFF284438BD4C
:104EA00038B50446FFF7E1FF05462046FFF7E2FF6D
:104EB000284438BD2DE9F04F14461D4691B054EA00
:104EC000050381469DF868B004D13021FFF7C8FF83
:104ED00001202EE04FF000085FFA8BF600272046F5
:104EE000294632463B4602F001FD08F101080DF16A
:104EF000000AC2440AF8012C204629463B463246A5
:104F000002F0F4FC04460D4654EA0503E4D1002403
:104F100008F1FF381DF808104846092994BF3031C0
:104F20003731C9B2FFF79CFF0444B8F1000FEFD14D
:104F3000204611B0BDE8F08F2DE9F041069F0646EE
:104F400014461D462FB90368D1B21B689847BDE8C7
:104F5000F081002C75F1000305DA2D21FFF780FFA9
:104F6000644265EB4505FFB20697304622462B4664
:104F7000BDE8F041FFF79EBF07B5CB1700920A4688
:104F8000FFF7DAFF03B05DF804FB38B50446FFF71E
:104F9000F3FF05462046FFF76DFF284438BD70B586
:104FA000049921B90368D1B21B68984770BDC9B292
:104FB0000491BDE87040FFF77DBF07B50023009264
:104FC000CAB2FFF7ECFF03B05DF804FB38B5044646
:104FD000FFF7F3FF05462046FFF74CFF284438BD96
:104FE00007B5002300920A46FFF7D9FF03B05DF82A
:104FF00004FB38B50446FFF7F3FF05462046FFF7EC
:1050000039FF284438BD07B5002300920A46FFF750
:10501000C6FF03B05DF804FB2DE9F74F19460646BD
:10502000144610461D460022002302F0C3F89DF8E6
:1050300030704FF0010838B12046294644A3D3E927
:10504000002302F0ADF806E02046294642A3D3E94A
:10505000002302F09BF800B980465FFA88F82046EA
:10506000294600220023B8F1000F0DD002F084F889
:1050700018B130462D21FFF7F3FE804638493046FF
:10508000FFF7F3FE404460E002F076F838B13046B6
:105090002D21FFF7E5FE05F1004380461D46314B0B
:1050A0004FF0000900225FFA89F1B9420AD2104696
:1050B000194600222C4B01F017FF09F101090246A5
:1050C0000B46F0E72046294601F032FC04460D4627
:1050D00002F022FC82468B4601F0AEFD02460B46F2
:1050E0002046294601F022FC0A230093044652463A
:1050F00030465B460D46FFF71FFF804427B1304620
:105100001A49FFF7B2FE8044F7B1174B0022204640
:10511000294601F0BFFD0D46044602F055F88146D0
:105120000A2249463046FFF727FF8044484601F0EF
:105130004BFD02460B462046294601F0F7FB013F96
:1051400004460D46FFB2DFE7404603B0BDE8F08FEE
:10515000800350726C92DF43800350726C92DFC305
:1051600028E200080000E03F00002440AFD700081C
:1051700037B59DF8181004460091FFF74DFF05461E
:105180002046FFF777FE284403B030BD10B5044633
:10519000006802F00BFF204610BD10B50446006801
:1051A00008B102F003FF00232360A360636010BD19
:1051B00038B504460D460068013103F0E5FA10B138
:1051C00084E82100012038BD036810B5044613B1FE
:1051D00043688B4207D22046FFF7EAFF20B1A3685D
:1051E0000BB922681370012010BD70B50E46114630
:1051F00004461546FFF7E8FF18B92046FFF7CDFF34
:1052000004E0A5602068314603F0DEFC204670BD56
:1052100038B5002304460360436083600D4639B10E
:10522000084603F02FFD294602462046FFF7DDFF22
:10523000204638BD884210B50B46044607D00968A1
:1052400019B19A68FFF7D1FF01E0FFF7A6FF2046EA
:1052500010BD10B500230446036043608360FFF770
:10526000E9FF204610BD38B505460C4641B1084659
:1052700003F008FD214602462846FFF7B6FF01E08D
:10528000FFF78BFF284638BD10B500238AB00446CF
:10529000036043608360084601A900F07EF9204660
:1052A00001A9FFF7E0FF20460AB010BD70B5044623
:1052B00085680E4609B9002070BD62B115442946C3
:1052C000FFF782FF0028F6D02068A3683146184413
:1052D00003F07AFCA560012070BD1FB504460A22C8
:1052E0000846694600F059F9684603F0CBFC694668
:1052F00002462046FFF7DAFF04B010BD1FB5044692
:105300000A220846694600F073F9684603F0BAFCC1
:10531000694602462046FFF7C9FF04B010BD0B46A0
:1053200010B509689A680446FFF7C0FF10B9204617
:10533000FFF733FF204610BD38B504460D4641B196
:10534000084603F09FFC294602462046FFF7AEFFC1
:1053500010B92046FFF721FF204638BD10B504469E
:10536000FFF7BBFF10B92046FFF717FF204610BD1F
:1053700010B50446FFF7C2FF10B92046FFF70DFF36
:10538000204610BDFEF75CBD08B5FDF747F8FCF7F9
:10539000A1FFFCE7222870B53BD8082939D8DFE8FF
:1053A00001F0051A080B0E1108141700002403223F
:1053B00013E00024042210E0002422460DE0002423
:1053C00009220AE00024082207E001240B2204E05D
:1053D00001240F2201E0002407220E4B00011E18B9
:1053E000317B1858FEF7AAFE706890B1717B24B12A
:1053F0000122BDE87040FFF7CBB80368013903F123
:1054000040432033DB0003EB81039B0003F1844323
:105410001C6070BD38DE000822280ED8084B000141
:105420001A18127B012101FA02F21B581B689B68B3
:105430001A420CBF0020012070470020704700BFB7
:1054400038DE0008222810D8084B00011A18127BF9
:105450001B58012000FA02F2D1F1010138BF0021EE
:10546000090102FA01F11B681961704738DE000872
:1054700010B5044630B103F067F990FBF4F303FB79
:10548000140010BD10BD884210B5044604DA081A95
:10549000FFF7EEFF204410BD10BD00002DE9F047DE
:1054A00080460E460846002192469946FFF7CAFFFD
:1054B0000024BAF1000F02D0C4F1070100E0214638
:1054C00049FA01F1404601F00101FFF7BBFF0B4A29
:1054D0003301D718D35801211D683B7BEA6801FAD4
:1054E00003F35340EB603A7BEB6891400134594041
:1054F000082CE960DDD1BDE8F08700BF38DE000888
:10550000054B70B51C6806461D4600F00EF82B686A
:105510001B1BB342F9D370BD901500200C235843D8
:10552000431E18460138FDD870477047F0B58BB060
:1055300059B3931E222B2AD80A2A2AD1002828DA06
:105540004042012501AB1E4670B1B0FBF2F702FBF1
:105550001704092C3846D8BF303403F10107C8BFFF
:1055600057341C703B46EFE7B342EED01DB12D20FF
:105570004A1C087000E00A46B34204D913F8010D32
:1055800002F8010BF8E700231370084603E000203F
:1055900001E00025D6E70BB0F0BDFFF7C7BF70B53F
:1055A0008AB001B3931E222B1FD801AB1D4670B1E8
:1055B000B0FBF2F602FB1604092C3046D8BF30349B
:1055C00003F10106C8BF57341C703346EFE7AB4206
:1055D000EED00A46AB4204D913F8010D02F8010BD4
:1055E000F8E700231370084600E000200AB070BD01
:1055F000FFF7D5BF10B504460079FEF78BFE207982
:10560000BDE81040FEF79EBE436800227F2110B522
:105610009A80DA80198100F11001196083680446CC
:105620009A80DA8040F2FF121A8100F190021A602B
:1056300090F89002FEF76EFE94F891325AB2002A6A
:1056400008DB012103F01F0301FA03F302495211A1
:1056500041F8223010BD00BF00E100E00368DA68C5
:1056600042F02C02DA60DA6842F40052DA607047E5
:10567000F0B583680546046800209F88DE88BFB2C5
:10568000B6B2B74204D0E36823F08003E36027E0BA
:1056900026683606F7D59042F5D00E5C013066607C
:1056A000EBE7DF889E88BFB2B6B20137B74211F888
:1056B00000C01DD0DF881E89BFB2B6B2B74213D07A
:1056C000DF881E68BFB206F807C0DF881E89BFB238
:1056D000B6B2B74218D0DE880136B6B2DE800130ED
:1056E0009042AB68DDD303E09E88B6B2002EE7D1CE
:1056F0009A88DB8892B29BB29A4200D1F0BDE368EF
:1057000043F08003E360F0BD0026E7E77FB506467F
:1057100000240A22B1FBF2F302FB1312013401ADA3
:105720002819303200F8012C1946002BF1D114F160
:10573000FF340BD32B5D8DF8033030460DF10301A0
:105740000122FFF795FF0028F7D0F0E704B070BD05
:105750002DE9F04F8BB01D4680468946144600F077
:1057600073F9DFF8ACA206469AF900300F46013310
:1057700004D02046294600F08DFF20B93046394636
:105780000BB0BDE8F08F4046494600F083FF8346EA
:1057900000282CD1204629460022002301F0E2FCFB
:1057A0000028EBD0944B9AF90010944E002201206F
:1057B000CDE906234B1CCDF820B0CDE90289CDE917
:1057C00004458DE841000DD002290BD0684600F059
:1057D00089FF002800F09580089B1BB102F0A0FB18
:1057E000089B0360DDE906010BB0BDE8F08F0022E5
:1057F00000234046494601F0B5FCF8B12046294651
:105800000022002301F0AEFC834600284DD07B48E7
:105810009AF90030CDE90445012100220024002539
:10582000CDE90289CDE90645019000910892002B4F
:10583000CCD0714B0022CDE90623D3E73046394660
:1058400000F022FF8346002860D00022002330466B
:10585000394601F087FC002890D04046494600F0C8
:1058600013FF00288AD02046294600F00DFF0028AB
:1058700084D09AF900306148CDE904450421002222
:1058800000240025022BCDE90289CDE906450190CF
:105890000091089200F08280684600F023FF002803
:1058A0007CD0089B002B9DD098E72046294600F02D
:1058B000EBFE00283FF462AF204629460022002379
:1058C00001F05AFC00283FF459AF4C4A9AF80010F6
:1058D00001230192CDF820B0CDE90289CDE904453C
:1058E00000930022002934D10023CDE90623684625
:1058F00000F0F8FE0028D4D102F012FB212303604F
:10590000CFE702F00DFB2123036065E740464946DF
:1059100000F0BAFE002898D02046294600F0B4FED8
:10592000002892D03046394600F0B4FEB8B9334A68
:105930009AF8006001230890CDE90289CDE9044579
:1059400001920093002E2ED100240025CDE90645BA
:10595000CDE72B4B0229CDE90623CDD0C7E7274958
:105960009AF90030032201910092CDF820B0CDE9E0
:105970000289CDE90445404649460022F3B9214F4A
:105980004FF060460023CDE9066701F0F5FB0028E3
:1059900040D19AF90030022B7FF47EAF02F0C0FABA
:1059A000222303607DE70020002102460B4601F020
:1059B0009BFA022ECDE906019ED098E7124F0026F1
:1059C0000023CDE9066701F0D7FB0028E1D00022D3
:1059D0000E4B2046294601F05DF904460D4600F0C5
:1059E00089FE22462B4601F0BDFB0028D1D1044B95
:1059F0000022CDE90623CCE70000F03F38E20008A2
:105A00000000F0FFFFFFEF470000F07F0000E03FE5
:105A1000F80A002000220A4B2046294601F03AF9F4
:105A200004460D4600F066FE22462B4601F09AFB26
:105A30000028AED1034B4FF06042CDE90623A8E722
:105A40000000E03FFFFFEFC72DE9F04F23F0004BD0
:105A500091B089460F465BEA0201CDE90223144664
:105A60001D46804606462ED0634B29F0004A9A45D3
:105A700022DC1FD0604B9B451EDC77D0002F78DBEB
:105A80000022049264BB5C4B9B4500F091805B4B11
:105A90009B4565D0B5F1804F00F0F983584B9D428E
:105AA0001ED1002F1CDB4046494611B0BDE8F04F27
:105AB00000F026BD0028DDD00AF1404A0AF5801A20
:105AC0005AEA060A04D14D49002011B0BDE8F08F12
:105AD0004C4811B0BDE8F04F00F006BE0021049123
