:020000040800F2
:100000000050002089410008414400084544000890
:10001000494400084D44000851440008A144000828
:10002000A1440008A1440008A1440008A14400081C
:10003000A1440008A1440008A14400081D4900088B
:10004000A1440008A1440008A1440008654000083C
:10005000A1440008A1440008A1440008A1440008EC
:10006000A1440008A1440008A1440008A1440008DC
:10007000A1440008A1440008A1440008A1440008CC
:10008000A1440008A144000819450008A144000843
:10009000A1440008A1440008A1440008A1440008AC
:1000A000894B0008AD4B0008D14B0008094C0008F3
:1000B0005D4C0008CD4C00083D4D0008A1440008EF
:1000C000A1440008A1440008A1440008A14400087C
:1000D000A1440008A94E0008FD4E0008514F000839
:1000E000A1440008AD400008A144000810B5054C2B
:1000F000237833B9044B13B10448AFF300800123D4
:10010000237010BD7813002000000000FCC200081E
:1001100008B5064B1BB106480649AFF300800648F8
:10012000036813B1054B03B1984708BD00000000F8
:10013000FCC200087C13002078130020000000009F
:10014000012902D11C30C0B27047062984BF01F1D9
:10015000FF31C9B211F0010F14BF1E201F207047DC
:10016000444B2DE9F047B1FBF3F603FB16113C239A
:10017000B1FBF3F203FB1212054602704FF461600B
:10018000B1FBF0F200FB1211B1FBF3F36B704FF413
:10019000FA63AA70B6B2EB80EC884FF4C873B4FB74
:1001A000F3F803FB18481FFA88F8B8F1000F16D0CF
:1001B0006423B4FBF3F203FB12439BB2002B53D036
:1001C00014F0030140F26D130CBF4FF4B7721A46DE
:1001D00096420EDB002908BF4FF4B77304E0B6F572
:1001E000B77F06DB4FF4B773F61A0134B6B2EC8072
:1001F000D2E700236B716423B4FBF3F703FB1747CB
:10020000BFB2B8F1000F06D03FB114F0030F14BF16
:100210000020012002E0012000E0384695F805901A
:10022000C0B24946FFF78CFF864209F1010A15D397
:10023000B8F1000F06D03FB114F0030F14BF002037
:10024000012002E0012000E03846C0B24946FFF735
:1002500077FF301A86B285F805A0D2E701362E71F5
:1002600085F805A0BDE8F087B6F5B67FC1DD40F2A0
:100270006D13B9E780510100F8B5427887783C23C7
:1002800003FB072702780579467903FB0727013D21
:10029000013EEDB2F6B2044605714671013E731C93
:1002A000E38834D04FF4C872B3FBF2F102FB113291
:1002B00092B262B16422B3FBF2F002FB103080B262
:1002C00030B113F0030F14BF0020012000E0012023
:1002D000C0B2F1B2FFF734FF284485B2DEE74FF435
:1002E000C872B3FBF2F102FB113292B2AAB16422DE
:1002F000B3FBF2F102FB113292B28AB113F0030F99
:1003000040F26D1208BF4FF4B7721544ADB2013B15
:100310009BB2B3F5FA6FE2D205E04FF4B772F4E79F
:1003200040F26D12F1E7024800FB0570F8BD00BF16
:100330008051010002F014BC38B50D46044602F0AD
:100340002AFC290A49006039204601F0FE0102F02A
:10035000B9FC204602F08FFCE9B2204602F0B2FC64
:10036000204602F088FC204602F015FC2046A12120
:1003700002F0A8FC204602F07EFC0021204602F09C
:10038000C8FC0546204602F059FC204602F01EFC3F
:10039000284638BD70B50D461646044602F0FBFBF4
:1003A000290A49006039204601F0FE0102F08AFC6A
:1003B000204602F060FCE9B2204602F083FC2046B1
:1003C00002F059FC3146204602F07CFC204602F047
:1003D00052FC204602F0FAFBBDE870400A2005F00E
:1003E00041BB0000D30770B548BF0132002452085A
:1003F00002312346E5B2954225D211F8025CA5F1FF
:100400004106F6B2052E02D8104B9B5D05E0303D4B
:10041000EDB2092D03D80E4B5B5D1B01DBB211F869
:10042000015CA5F14106F6B2052E01D8074D04E0A6
:10043000303DEDB2092D02D8054E755D2B430355B5
:1004400002310134D6E7002070BD00BFC2D60008DB
:10045000B8D600082DE9F04F824687B0084614460A
:10046000994606F093FEC9EB0406CDE9000130463B
:1004700006F07AFE02460B4600204D4905F036FC98
:1004800002460B46DDE9000107F05AF930B94FF09A
:10049000020896FBF8F80546013E07E050460021A9
:1004A000224607B0BDE8F04F08F0D0BB454536DA2C
:1004B000304606F059FE02460B4600203C4905F046
:1004C00015FCCDE90201701E06F04EFE02460B46F9
:1004D0000020374905F00AFCDDE90223CDE90401DB
:1004E000DDE9000106F0D0FF07F03EF9DDE9042365
:1004F0000A2790FBF7FB0BFB17004FEA001BDDE917
:10050000000106F0C1FF07F02FF990FBF7F303FBA2
:10051000170083440AF805B0023E0135C6E709EB2F
:1005200048094FF0020BC4EB090994FBFBFB09F1EE
:100530000109D84538DA484606F016FE02460B4651
:1005400000201B4905F0D2FB064609F101000F46C9
:1005500006F00AFE02460B460020154905F0C6FBD0
:1005600032463B4604460D46DDE9000106F062FED8
:1005700007F0FAF80A2690FBF6F707FB16002B4661
:1005800007012246DDE9000106F054FE07F0ECF811
:1005900090FBF6F303FB160007440AF8087009F114
:1005A000020908F10108C4E707B0BDE8F08F00BFF9
:1005B00000002440124A517893784AF2130243EA29
:1005C0000123934213D008D84AF21102934213D068
:1005D0004AF21202934211D00DE04AF21402934201
:1005E00007D04AF22202934205D10420704702202C
:1005F0007047032070477047002070470120704704
:100600009413002010B5074C6018114602F0BFF992
:10061000054B1B781C4414F8073C1B1A58425841E0
:1006200010BD00BF9413002015140020044B18794E
:100630005B7943EA0020431E58425841704700BF8F
:1006400094130020044B9B79552B044B0CBF0122C3
:1006500000221A70704700BF941300201714002066
:1006600010B5084CE379552B01D1012010BD064887
:1006700001F007FAE3798342F7D0D0F1010038BFE7
:10068000002010BD941300201B14002013B50D4B47
:100690001C7A552C01D1012012E00B48694601F06B
:1006A00093F900231A461DF803108C42F3D019B9B0
:1006B0000132D2B2052AEED00133052BF3D100204E
:1006C00002B010BD941300201B14002070B5054625
:1006D0001E46FFF797FF044698B12846FFF7A6FF8E
:1006E000044658B12846FFF7ADFF2846FFF7B8FF8C
:1006F000044648B946B10C480C4911E00A480C4977
:100700000EE009480B490BE02846FFF7BFFF0446FF
:1007100040B99DF810300BB9012403E002480649A6
:1007200004F062FE204670BDB41400201AD7000801
:10073000C8D60008F6D6000851D700081A4B13B5E2
:100740001B787BB300230093042117220123FFF7BA
:10075000BDFFF0B1154C164804F10C0101F0F4F99D
:10076000A17AE37A134843EA012101F09BF910B121
:10077000114B01221A70237A552B03D10F4802F036
:1007800039FF06E0012B04D00C480721012203F0B9
:10079000EBF80B4B05481A78002102B0BDE8104079
:1007A00008F054BA02B010BD0800002094130020D5
:1007B000291400201A14002014140020AE14002064
:1007C00015140020174B07B51B7843B30023009383
:1007D00004210A220123FFF779FFB8B11248134917
:1007E00001F0B7F830B11249124804F0FDFD12488B
:1007F000032108E011490F4804F0F6FD104B0A22CE
:100800000D481A700421012203F0AEF80D4B0E487A
:100810001A78002103B05DF804EB08F017BA03B0B2
:100820005DF804FB080000201B1400209C1300202E
:1008300089D70008B4140020AE140020B9D70008EE
:10084000AF140020151400209413002013B50023CA
:10085000009304210F22FFF739FF10B31D4C1E48EF
:1008600004F10A0100F0CBFD002830D01A4804F151
:100870000A0100F0FFFD50B31849194804F0B4FD17
:100880001848E17901F0D0F8A0B11749144804F0F4
:10089000ABFD16480521012203F066F80E4800F072
:1008A000BBFE134B0B481A78002102B0BDE8104084
:1008B00008F0CCB90A480F4904F096FD0E4B0A2205
:1008C0001A700A480621012203F04EF8E9E70448AD
:1008D0000A49F1E7941300201E1400204CD80008A8
:1008E000B41400201B140020E9D70008AE14002027
:1008F000151400201BD80008AF14002079D8000878
:100900000D4B07B51B789BB10023009304210522F2
:100910000123FFF7DBFE10B1084802F093FF084BFC
:1009200008481A78002103B05DF804EB08F08EB98E
:1009300003B05DF804FB00BF08000020AE140020E7
:10094000151400209413002010B50446FFF732FE62
:10095000032817D8DFE800F00207110C2046BDE895
:100960001040FFF7EBBE2046BDE81040FFF72ABF5E
:100970002046BDE81040FFF7C3BF2046BDE8104049
:10098000FFF764BF10BD00002DE9F047404C002781
:1009900082462770002635463E4804F0E5FB0028D5
:1009A00033DD94F800903B4809F10103237004F013
:1009B00087FBDFF8F48008F80900052005F052F8FD
:1009C00023781022434413F8011C334804F099FDA6
:1009D0003148324904F0EDFC94F90030002B4346D5
:1009E00002DA2B4A00211170F6B922781A4412F863
:1009F000012C0D2A01D117E00126052DCCD1264866
:100A0000274904F0F1FC0127C4E757B125492248E2
:100A100004F0EAFC5046FFF797FF00232370BDE87F
:100A2000F0872770BDE8F087042DE5D8DFE805F0F2
:100A3000030C151E27002278134413F8015CB5F14E
:100A40000A035D425D4121E02278134413F8013C22
:100A50000D2B0CBF0225002518E02278134413F853
:100A6000013C0A2B0CBF032500250FE0227813441C
:100A700013F8013C0D2B0CBF0425002506E022785D
:100A8000134413F8013C0A2BB9D00025012683E753
:100A900015140020CC140020B4140020A6E3000894
:100AA000A6D80008CAD800089413002008B5012071
:100AB000002104F013FF0120014604F075FF00201F
:100AC000014604F00BFF0420002104F007FF05207D
:100AD000002104F003FF0420002104F065FF05203D
:100AE000012104F061FFBDE808400020014604F048
:100AF0005BBF0000014804F095BB00BFCC14002090
:100B000008B561B10021052004F04EFF962004F0E5
:100B1000A9FFBDE808400520012104F045BF08BD3C
:100B200008B50021012004F03FFF0C4804F07DFBD4
:100B30000220002104F0D2FE0320002104F0CEFEAA
:100B40000220002104F030FF0320002104F02CFFDC
:100B5000BDE808400520002104F026BFCC14002089
:100B600010B50B78452B12D14B78522B0FD18B78C7
:100B7000CC78303B03EB8303303C04EB4304E4B21A
:100B800021460A22034804F0C5FC204610BD0A2075
:100B900010BD00BFB41400200B784F2B07D148784C
:100BA0004B2804D113704B780120537070470020FC
:100BB000704730B50020C4B20D5D01302C2D01D03E
:100BC0001D55F8E7601C5525C0B21D55904204D252
:100BD0000C5C1C540130C0B2F8E730BDF8B54C785D
:100BE000432C08D18C78532C05D1CC78B4F1510525
:100BF0006C426C4100E000240026F5B24F5D0136E6
:100C00003A2FFAD10135EDB200279542FEB207F135
:100C1000010706D811F805C0013501F806C0EDB28C
:100C2000F3E73CB92046C2B2B2420BD20A5C1A5476
:100C30000130F8E7069A022412681470721ED2B2CC
:100C4000FFF7B7FF0120F8BD37B5154809B91549B9
:100C500000E0154904F0ADFB642004F003FF00241C
:100C60000F4804F081FA0028E5B208DD062C14D004
:100C70000B4804F025FA0DF804000134F0E755B1F3
:100C80009DF802304F2B08D19DF80300B0F14B03C3
:100C90005842584102E0284600E0002003B030BD31
:100CA000CC140020F5D80008F9D8000810B5044687
:100CB0000120014604F078FE07484FF4165104F075
:100CC000B1FA20460121FFF71BFF20460121BDE8B4
:100CD0001040FFF7B9BF00BFCC1400202DE9F04150
:100CE0009EB005AD0C46074600219046284664227A
:100CF000039307F0ABFF21462C4804F05AFB642015
:100D000004F0B0FE0024294804F02EFA0028E6B2D0
:100D100007DD642C45D0254804F0D2F9285501346C
:100D2000F1E726B92249234804F05EFB39E09DF83B
:100D300014300D2B35D19DF815300A2B31D11EAB57
:100D4000334413F8653C0A2B2BD1023E1EAB3344CF
:100D500013F8643C0D2B24D10021CCB2A31CDBB2D0
:100D6000B34201F1010107DA1EAA134413F8643CEF
:100D7000144404F8643CF0E738462946FFF7F0FED7
:100D80000A280CD103AB0093384629462246434635
:100D9000FFF724FF00280CBF0320022002E00120FF
:100DA00000E003201EB0BDE8F08100BFCC1400209D
:100DB000FFD80008B41400202DE9F041B2B0064677
:100DC0000D4690460021642268461F4607F03EFF0C
:100DD00019A80021642207F039FF0024E3B2E85C7F
:100DE000013420B132AA134403F8640CF6E701463B
:100DF000CAB25D1818F80240EDB232AA01312A4495
:100E000014B102F8644CF3E70D2302F8643C6B1C48
:100E100032A8DBB203442F480A2203F8642C03688B
:100E200019A95B6898472C48AA1C036819A99B68F4
:100E3000D2B29847642004F015FE274804F094F9D4
:100E40000028E5B208DD642C3FD0234804F038F9CF
:100E50000DF804000134F0E7002D36D09DF8003085
:100E60000D2B32D19DF801300A2B2ED132AB2B4401
:100E700013F8C93C0A2B28D1023D32AB2B4413F89E
:100E8000C83C0D2B21D100218B1CDBB2AB4201F100
:100E9000010209DA32A8034413F8C83CC9B201447C
:100EA00001F8C83C1146EFE730466946FFF758FEA7
:100EB0000A2808D1304669463A46FFF76DFE80F0B1
:100EC0000100C0B202E0012000E0032032B0BDE822
:100ED000F08100BFB4140020CC140020F7B51E46EA
:100EE000044617460D4600218DF80710FFF7ACFEAB
:100EF00003F0E6FB204631462FB12A460DF10703E9
:100F0000FFF7ECFE03E0089A2B46FFF755FF032896
:100F10002AD8DFE800F011040207002311E0164888
:100F2000164901E01448164904F05EFA20460121F2
:100F3000FFF78AFE00201CE012490F4804F054FA23
:100F400012E09DF807205E1CDBB29A420A4809D9DC
:100F5000E95C102204F0D5FA07480B4904F029FA9D
:100F60003346EEE704F02AFA20460121FFF76CFE33
:100F7000012003B0F0BD00BFB414002013D9000855
:100F800024D900082DD90008A6E300082DE9F04374
:100F90008BB004AF804600210922384602AE0024FF
:100FA00007F054FE00944046314601222C4BFFF7D7
:100FB00095FF054610B92B482B494BE02346F25CC0
:100FC00007AC092A01D8303204E0A2F10A01052950
:100FD00098BF3732E2540133082BF0D14FF00009AB
:100FE00022488DF8249000F07DFC0246C0B12049D3
:100FF0001C4804F0F9F91D48394600F0D9FB50B1FE
:101000004B46E15CFA5C914217D10133082BF8D1D1
:10101000144818491EE01849124804F0E5F907E0A1
:10102000009440463146154BFFF758FF054698B1EE
:1010300021460E4800F014FC0AE01149094804F06A
:10104000D3F900974046314600220C4BFFF746FF8C
:10105000054601E004F0C8F928460BB0BDE8F0836E
:1010600039D90008B414002044D90008191400200C
:1010700064D90008ECD9000882D90008A6D9000874
:10108000AFD900082DE9F04F89B002AF07F10C0687
:101090008346894690461C46304600210A2207F0C6
:1010A000D5FD002C48D1C7F804D05846CDF80080B3
:1010B000314601224B46FFF711FF824608B1214617
:1010C00002E03C483C496BE0CCB218F804300131F6
:1010D000002BF9D1E11D01F4FC71ADEB010D02A96A
:1010E000D8B2A04203D2F05CC8540133F8E70B46F3
:1010F000581AC0B2A0420DD213F8010B092801D82A
:10110000303004E0A0F10A05052DF1D8373003F89E
:10111000010CEDE70025EBB2A3423FD24B5D013558
:1011200008EB050010F8010C9842F4D0214823493F
:1011300004F05AF97B689D466C460023DAB219F830
:10114000021001330A29F9D1931D03F4FC73ADEBAE
:10115000030DA2F1020E02AB0020C1B2551EA9423E
:1011600000F1010003DA19F801505D54F5E700229F
:101170003D215A55584603F80E10CDF800803146EF
:10118000FFF7ACFE054628B90A480D4904F02CF9D2
:10119000AA4601E04FF0010AA54605E005480949C5
:1011A00004F022F97B689D4650461C37BD46BDE8D9
:1011B000F08F00BFB414002016DA00083CDA0008F3
:1011C00093DA0008B5DA00087FB50F2204460D4611
:1011D0006846002107F03AFD5C485D4904F004F9D7
:1011E0000A2603F06DFA2046002D65D1FFF7CEFEEA
:1011F00058498DF80000584A2B462046FFF742FF19
:1012000056498DF80100564A01232046FFF73AFF60
:1012100054498DF80200544A2B462046FFF732FF0E
:1012200052498DF80300524A2B462046FFF72AFF09
:1012300050498DF80400504A01232046FFF722FF51
:101240004E498DF805004E4A2B462046FFF71AFFFF
:101250004C498DF806004A4A2B462046FFF712FFFC
:1012600049498DF80700444A01232046FFF70AFF49
:1012700046498DF80800464A2B462046FFF702FFF4
:1012800044498DF80900444A2B462046FFF7FAFEF0
:1012900042498DF80A00324A01232046FFF7F2FE48
:1012A0003F4A8DF80B003F4920460123FFF7EAFE35
:1012B0000D228DF80C0007E02F4A2E490123FFF77D
:1012C000E1FE01228DF8000000231DF80310A9B9EA
:1012D00035491E4804F088F82046FFF7E7FC204611
:1012E000FFF71EFC03F0ECF92046FFF7DFFC4FF49C
:1012F000FA6004F0B7FB03F0E3F905E00133D9B27B
:101300009142E2D304B070BD284803F02DFF0028BD
:1013100003DD264803F0D4FEF6E7013E16F0FF0693
:101320007FF45FAF1E223146214801F09DFB214929
:10133000064804F059F840F6B83004F093FB03F087
:10134000BFF904B0BDE8704003F0EEB9B41400205A
:10135000CBDA0008EADA0008F6DA0008FFDA00085B
:10136000FCDA000809DB000815DB00081EDB0008BA
:101370002ADB000833DB00083DDB000840DB000807
:101380004ADB00084DDB000857DB000861DB000882
:101390006ADB00086DDB000877DB00087ADB0008F9
:1013A0008FDB000884DB000892DB0008CC140020EF
:1013B00064140020AFDB000810B50021044615209E
:1013C00004F08CFA1520012104F0EEFA2046BDE865
:1013D0001040FEF7AFBF08B5052004F043FBBDE8A1
:1013E00008401520012104F0DFBA08B515200021BE
:1013F00004F0DAFABDE80840052004F033BB7FB5FD
:1014000004460E46FFF7F1FF0D25731929462046C5
:1014100013F80D2C0135FEF7BDFF162DF5D1304622
:10142000092101F0B4FA0646294620463246FEF765
:10143000B1FF0D2529462046FEF77EFF01AB2B4468
:101440000135162D03F80D0CF4D101A8092101F086
:101450009EFAB042204603D0FFF7BDFF002007E010
:101460000B215522FEF796FF2046FFF7B4FF01201F
:1014700004B070BD7FB504460E46FFF7B6FF1725D2
:1014800073192946204613F8172C0135FEF782FF01
:10149000202DF5D13046092101F079FA064629467A
:1014A00020463246FEF776FF172529462046FEF7EE
:1014B00043FF01AB2B440135202D03F8170CF4D169
:1014C00001A8092101F063FAB042204603D0FFF7DA
:1014D00082FF002007E00C215522FEF75BFF20462B
:1014E000FFF779FF012004B070BDF0B585B001AD04
:1014F00006460F4628460021092207F0A7FB0D24C7
:1015000021463046FEF718FF2B190134162C03F83C
:101510000D0CF5D121463046FEF70EFF0921044699
:10152000284601F034FA844206D10023EA5CFA54DA
:101530000133092BFAD101E0002000E0012005B0C1
:10154000F0BDF0B585B001AD06460F462846002136
:10155000092207F07BFB172421463046FEF7ECFEFC
:101560002B190134202C03F8170CF5D121463046F5
:10157000FEF7E2FE09210446284601F008FA8442FB
:1015800006D10023EA5CFA540133092BFAD101E0B9
:10159000002000E0012005B0F0BD37B50C461E214B
:1015A0000546FEF7C9FE1F218DF804002846FEF708
:1015B000C3FE02218DF8050001A801F0E8F92070B2
:1015C00003B030BD10B50446FFF70FFF00222046E0
:1015D0000B21FEF7DFFE2046FFF7FDFE20460B2124
:1015E000FEF7AAFED0F1010038BF002010BD10B5F3
:1015F0000446FFF7FAFE002220460C21FEF7CAFE41
:101600002046FFF7E8FE20460C21FEF795FED0F1BC
:10161000010038BF002010BD10B50446FFF7E5FEFD
:10162000552220462121FEF7B5FE2046FFF7D3FEC6
:1016300020462121FEF780FEB0F155035842584163
:1016400010BD38B50446102004F098F908B1002008
:1016500038BD41F2883004F005FA102004F08EF90C
:1016600005460028F3D12046FFF7BFFE2A46204654
:101670002121FEF78FFE2046FFF7ADFE20462121F7
:10168000FEF75AFED0F1010038BF002038BD08B582
:101690002121FEF751FEB0F155035842584108BDD3
:1016A00070B504460D46FFF720FF20B120462946BD
:1016B000FFF747FF48BB20462946FFF716FF48B112
:1016C0001549164803F090FE20462946BDE87040B3
:1016D000FFF7D0BE20462946FFF733FF06460F48E6
:1016E00046B10F4903F080FE20462946BDE8704010
:1016F000FFF785BE0B4903F077FE2046FFF762FF38
:101700002046FFF774FF304670BD0749034803F0D9
:101710006BFE012070BD00BFDBDB0008B4140020AD
:1017200012DC000849DC00085DDC000810B535213A
:101730000446FEF701FE552813D02046FFF755FE5C
:10174000552220463521FEF725FE2046FFF743FEB1
:1017500020463521FEF7F0FDB0F1550358425841BF
:1017600010BD012010BD08B53521FEF7E5FDB0F133
:1017700055035842584108BD10B535210446FEF7BF
:10178000DBFD98B12046FFF730FE002220463521D0
:10179000FEF700FE2046FFF71EFE20463521FEF72D
:1017A000CBFDD0F1010038BF002010BD012010BDDD
:1017B000F7B505460E464F2421462846FEF7BCFDE8
:1017C00000AB23440134572C03F84F0CF4D108210B
:1017D000684601F0DCF8214607462846FEF7ACFDD6
:1017E00087420CD100231DF80320F2540133082B4B
:1017F000F9D10448044903F0F7FD012000E000207E
:1018000003B0F0BDB4140020C3DC000810B55821AB
:101810000446FEF791FD55280CD02046FFF7E5FD64
:10182000204658215522FEF7B5FD2046BDE8104060
:10183000FFF7D1BD10BD10B558210446FEF77CFD61
:1018400060B12046FFF7D1FD204658210022FEF767
:10185000A1FD2046BDE81040FFF7BDBD10BD000052
:10186000F7B50F460446FFF7C0FD3846082101F0E2
:101870008EF84F2506467B192946204613F84F2C33
:101880000135FEF787FD572DF5D129462046324612
:10189000FEF780FD4F2529462046FEF74DFD00ABA3
:1018A0002B440135572D03F84F0CF4D1684608211D
:1018B00001F06DF8864207D02046FFF7BCFF2046B6
:1018C000FFF789FD002007E00449054803F08CFD7F
:1018D0002046FFF79BFF012003B0F0BDD8DC0008D5
:1018E000B414002008B55821FEF726FDB0F15503C9
:1018F0005842584108BD70B504460E461546FFF7DC
:1019000074FD204632462221FEF744FD20462A4639
:101910002321FEF73FFD2046BDE87040FFF75BBD89
:10192000FEF70ABDFEF708BD70B504460E46154623
:10193000FFF75BFD204632462421FEF72BFD2046B3
:101940002A462521FEF726FD2046BDE87040FFF718
:1019500042BDF8B504460E46FFF747FD262573192C
:101960002946204613F8262C0135FEF713FD2B2DB2
:10197000F5D10521304601F00AF8074629462046F0
:101980003A46FEF707FD262520462946FEF7D4FCF9
:10199000731913F8263C834214D101352B2DF3D152
:1019A00020462946FEF7C8FCB842204608D12C2123
:1019B0005522FEF7EFFC2046FFF70DFD0120F8BD94
:1019C000FFF709FD0020F8BD70B506460D46262438
:1019D00021463046FEF7B0FC2B1901342B2C03F8BE
:1019E000260CF5D170BD38B50446FFF7FEFC262560
:1019F000002220462946FEF7CDFC20462946FEF768
:101A00009BFC024620B12046FFF7E5FC002038BDD4
:101A100001352B2DECD120462C21FEF7BBFC2046B6
:101A2000FFF7D9FC012038BD37B502AD04468DF86B
:101A30000710FFF7DAFC15F8012D20462D21FEF7DF
:101A4000A9FC0121284600F0A2FF2E2102462046D3
:101A5000FEF7A0FC20462D21FEF76EFC9DF8073016
:101A60008342204608D12F215522FEF793FC2046C1
:101A7000FFF7B1FC012002E0FFF7ADFC002003B04E
:101A800030BD2D21FEF758BC10B50446FFF7ADFC64
:101A900020462D210022FEF77DFC2046FFF79BFC0F
:101AA00010BD00004A1F4AF6BB039A4270B50446B7
:101AB0000D4628D83221FEF73FFC3321064620464A
:101AC000FEF73AFC40EA0620A84204D10F4910482C
:101AD00003F08AFC15E02046FFF787FC2046322100
:101AE000C5F30722FEF756FC20463321EAB2FEF783
:101AF00051FC204634215522FEF74CFC2046FFF7CE
:101B00006AFC012070BD002070BD00BFEDDC000844
:101B1000B414002038B532210546FEF70DFC332100
:101B200004462846FEF708FC40EA042038BD08B504
:101B30003421FEF701FCB0F155035842584108BD6D
:101B4000032002F06FBA000070B55E480D460978B8
:101B500001F00BFD697806465A4801F006FD06EBD8
:101B60008606594C06EB860600EB8600E080A978D5
:101B7000544801F0FAFC6071E978524801F0F5FC34
:101B8000207129794F4801F0F0FC6979A0704D4827
:101B900001F0EBFCA97960704A4801F0E6FC4B4982
:101BA00020704B4803F005FCE1880A22484803F006
:101BB00090FC4849464803F0FCFB61790A224448FE
:101BC00003F0A8FC4449424803F0F3FB21790A22C0
:101BD0003F4803F09FFC41493D4803F0EAFBA178F0
:101BE0000A223B4803F096FC3D49394803F0E1FBEB
:101BF00061780A22364803F08DFC3A49344803F0F4
:101C0000D8FB0A222178324803F084FC02F0F8FC69
:101C1000642003F027FF2046FEF72EFB01463248E2
:101C200002F01EF9642003F01DFF02F0EFFC2E48C5
:101C300002F019F901462046FEF792FAE188642382
:101C4000B1FBF3F1C9B21F4801F086FC2870E288AD
:101C50004FF47A73B2FBF3F103FB11211948C9B2B7
:101C600001F07AFC68706179164801F075FCA87083
:101C70002179144801F070FCA178E870114801F056
:101C80006BFC617828710F4801F066FC217868715F
:101C90000C4801F061FC0024A871295D10220C4859
:101CA00003F02FFC01340A48104903F082FB072C93
:101CB000F3D1074803F082FBBDE8704004480C49AB
:101CC00003F092BBAD140020201400200CDD0008AE
:101CD000B414002013DD00081BDD000821DD00081E
:101CE00028DD000832DD00082A140020A6E30008E1
:101CF0003CDD000870B51C480D4602F0B4F81B4CE2
:101D000001462046FEF72CFAE188194E6423B1FB08
:101D1000F3F1C9B2304601F01FFC2870E2884FF49D
:101D20007A73B2FBF3F103FB11213046C9B201F023
:101D300013FC68706179304601F00EFCA8702179BF
:101D4000304601F009FCA178E870304601F004FC4F
:101D500061782871304601F0FFFB217868713046C8
:101D600001F0FAFBA87170BD2A1400202014002095
:101D7000AD14002070B54C4886B0FEF77DFA0446DD
:101D800002F03EFC0A2003F06DFE2146474802F0B7
:101D900067F8464802F067F805464548FFF7C7FE72
:101DA000444E002859D04248FFF7B4FE4AF6B1032A
:101DB000A0F10F029A42044619D93F49684603F040
:101DC000CBFC694603A803F0E8FCB42103A803F0A8
:101DD00073FD3A4903F054FD0146394803F0FAFA1D
:101DE00003A803F077FC684603F074FCB42433784E
:101DF000012B0BD1B4F5966F03D9254468463149C0
:101E000015E005F5966503A82F4938E0022B0BD1A4
:101E1000B4F5166F03D9254468462C4907E005F54B
:101E2000166503A82A492AE02A492544684603F092
:101E300093FC694603A803F0B0FC214603A803F015
:101E40003BFD1E4903F01CFD01461D4803F0C2FA8C
:101E500003A803F03FFC684618E03378012B04D157
:101E600005F5966503A81C4909E0022B04D105F588
:101E7000166503A8194902E01949B43503A803F00F
:101E80006BFC0F4803A903F0A5FA03A803F022FC9A
:101E900014492A46054801F0E8FF0A2003F0E2FD54
:101EA00002F0B4FB06B070BD201400202A140020FC
:101EB0001A140020281400205FDD000865DE0008E9
:101EC000B4140020D3DD00081CDE000867DE000823
:101ED000B9DE00080DDF000859DF0008CEDF00087A
:101EE0004CE00008411B000830B5154885B0FEF7EE
:101EF000C3F9144C054602F083FB0A2003F0B2FD3F
:101F00002946204601F0ACFF204601F0ACFF0E4907
:101F1000054601A803F020FC01A90C4803F05AFA79
:101F200001A803F0D7FB0A4905F56162204601F0DC
:101F30009CFF0A2003F096FD02F068FB05B030BD5F
:101F4000201400202A140020C3E00008B41400204C
:101F5000411B00080148112101F079BF2A1400201B
:101F60002DE9F84300240F469046994625464C45F6
:101F700013DA5FFA88F60121304603F015FD0A20D6
:101F800003F070FDF8B203F0F9FC002100EB450509
:101F9000304603F009FD0134E9E72846BDE8F8833F
:101FA00070B5D4B21D46EDB20E462046002103F0B6
:101FB00095FC2846002103F091FC2046012103F006
:101FC000F3FC2846012103F0EFFC2046002103F03A
:101FD000EBFC2846002103F0E7FC2846012103F032
:101FE000E3FC2046012103F0DFFC2846002103F03A
:101FF000DBFCF3B201222046294603F001FD28460E
:10200000012103F0D1FC2046022103F067FC2046A9
:1020100003F0B4FC2846002103F0C6FC2046BDE8CE
:10202000704003F0ABBC38B5CDB22846022103F0B6
:1020300055FC64240A2003F015FD284603F09EFC9D
:1020400008B1013CF6D138BD2DE9F843CCB21546B4
:1020500080460E46EFB22046022103F03FFC384690
:10206000002103F03BFC2A46082331464046FFF797
:1020700077FF00214FEA0029204603F02FFC20467D
:10208000012103F091FC2046002103F08DFC38462D
:10209000012103F089FC3846002103F085FC20462D
:1020A000022103F01BFC404631462A460823FFF775
:1020B00057FF49EA0000BDE8F88338B51446CDB2B1
:1020C000E4B22846002103F009FC2046002103F079
:1020D00005FC2846012103F067FC2046012103F09E
:1020E00063FC20460021BDE8384003F05DBC38B5F4
:1020F00090E80C0004460321FFF752FF20462168B8
:10210000FFF791FF94E806002046FFF79DFF94E853
:10211000060005462046FFF7D0FF284605F076FC6E
:1021200038BD000008B5FFF7E2FF05F089FE05F0B5
:102130006DFC034905F0BEFC024905F0B1FB08BD8A
:102140000AD7233C00002042F8B590E80C00044672
:102150000521FFF725FF20462168FFF764FF94E87B
:1021600006002046FFF770FF94E80600054620466B
:10217000FFF7A3FF284605F049FC1E49064605F077
:1021800099FC4FF0814105F08BFB1B490546304619
:1021900005F090FC314605F08DFC0146284605F01F
:1021A00081FB07462046FFF7BDFF04F0EFFF00224A
:1021B000124B04F08BFE04460D463046104905F0E4
:1021C00079FC104905F06EFB04F0E0FF02460B4677
:1021D0002046294605F02EF8044638460D4604F000
:1021E000D5FF02460B462046294604F071FE05F055
:1021F00003FBF8BD54E3253DA2E73BB600003940A0
:10220000ACC5A7380AD7233C024B1D211C2283E80A
:10221000060070472C14002007B53248FFF737FA44
:1022200078BB314B314918702E48FFF7E8F828B1D8
:102230002C482E49FFF71EF9002848D12C48FFF7FB
:1022400023FC20B12A48FFF7CEFB002844D101230C
:102250008DF800302648002369468DF801308DF84E
:1022600002308DF803308DF80430FFF772FB18B19F
:102270002048214903F0B8F820480021052200F049
:10228000F3FB1C481E4903F0AFF81648FFF7FFF9AF
:10229000B8B9102003F072FB78B941F2883003F02E
:1022A000E1FB102003F06AFB38B9164801F0A2F9EF
:1022B000102003F063FB0028FAD01348FEF764FBFC
:1022C000E3E7094B01221A7003B05DF804FB0F49E4
:1022D000084803F089F8B1E70D49064803F084F88F
:1022E000B5E700BF1E1400200800002038140020AD
:1022F0001B140020B414002017E10008641400200F
:1023000034E10008AE1400201614002047E1000854
:102310005BE10008F8B5114E03253468104B1A78BC
:102320001F46CAB90F4801F0A5FB326804F51C53DB
:1023300010339A4201D23B7853B1013D15F0FF05AD
:102340003468EBD1BDE8F8400748084903F04CB8C1
:102350000748FEF719FBE8E7F8BD00BF9415002019
:1023600014140020AE140020B41400208AE10008E8
:102370001614002008B5142003F000FB30BB6420C5
:1023800003F070FB142003F0F9FAF8B94FF4FA6087
:1023900003F068FB0E490F4803F026F84FF4FA608B
:1023A00003F060FB142003F0E9FA78B9642003F02D
:1023B00059FB142003F0E2FA40B90748FFF7DCF9B3
:1023C000BDE808400348054903F00EB808BD00BF4A
:1023D000A9E10008B414002019140020BDE1000890
:1023E00010B5124C1249204602F0FEFF114920465A
:1023F00002F0FAFF204602F09BFE0F4800F05EFB61
:102400000820002103F0D0FA0120002103F0CCFACB
:102410000121132003F0C8FA012002F093F90120F2
:1024200002F0AAF9BDE8104002F092B9B4140020FD
:1024300001E2000813E2000864140020A64B30B546
:102440001A688DB022F0E06242F000721A60A34870
:1024500000F0E4FAA2484FF4165102F0E3FEA1485E
:102460004FF41651FEF746FB4FF416519E4802F00A
:10247000D9FE02F0B8F89B48FEF718FB08200021AF
:1024800003F02CFA0021082003F08EFA9748FEF79B
:1024900093FF01219348FEF7D7FB4FF47A7003F0C6
:1024A000E1FA9348FEF770FA0021132003F07CFA5A
:1024B0000A2003F0D7FA8F49894802F095FF8E4829
:1024C0002221FFF72FFA0228044606D18A48232149
:1024D000FFF728FA112805461CD011228648022150
:1024E000FFF709FA8549684603F036F9694606A8F8
:1024F00003F053F91022022103A803F069F903A99C
:1025000006A803F0B0F97E4903F0BAF91121044698
:1025100009A816E07B49684603F01EF9694606A83B
:1025200003F03BF92146102203A803F051F903A957
:1025300006A803F098F9724903F0A2F92946044667
:1025400009A8102203F044F9204609A903F08BF9E9
:102550000146634802F03EFF09A803F0BBF803A858
:1025600003F0B8F806A803F0B5F8684603F0B2F82F
:1025700061482421FFF7D4F90728044617D15E48A3
:102580002521FFF7CDF91028054610D15E4906A890
:1025900003F0E2F806A909A803F0FFF8214609A80C
:1025A00003F080F9564903F06BF9294614E0102234
:1025B00051480721FFF7B8F9544906A803F0CCF8B1
:1025C00006A909A803F0E9F8072109A803F06AF9A8
:1025D0004B4903F055F9102103F064F901464048D6
:1025E00002F0F8FE09A803F075F806A803F072F8E7
:1025F000FFF7C0FE4648FFF7B6F8014680B93948F4
:10260000FEF7E2FD37480121FEF77AFA012135484D
:10261000FEF71AFB3648FEF7B7F93D48FFF786F894
:102620003C48FFF70EF8FFF7F7FD3B493948FFF745
:1026300037F80146B0B90A22284800F015FA3749A0
:10264000274802F0D1FE364801F090F84FF47A7036
:1026500003F008FA2648FEF797F940F6B83003F081
:1026600001FAE2E72F491E4802F0BEFE1B48012195
:102670000A2200F0F9F9194800F036FAB0F52F6F88
:102680000DD8642003F0EEF9144800F02DFAB0F5EF
:102690002F6F04D82448FFF727FCFFF7A1FEFFF7B0
:1026A00039FE0E4800F020FA40F6E34398421F4CF2
:1026B00001D9002309E001230848237000F014FA2F
:1026C00040F6B833984201D8022323701648FFF72A
:1026D00051FB0DB030BD00BF040001406414002068
:1026E000B414002018140020E41400201D1400204D
:1026F000161400202DE900081C14002072E20008C6
:10270000D6DC0008BDE20008D3E20008E9E20008D8
:10271000191400201E1400203814002026E200089E
:10272000AE14002059E200082914002028140020CB
:10273000FFF756BE0A4B1A680A4B9B6800BF00BFE2
:10274000074909688A42F5D1C3F58C33482103F55E
:10275000A073B3FBF1F34FF47A7000FB02307047C3
:102760009415002010E000E010B5044680E8060053
:10277000D0B2002103F0B2F82078002103F0AEF8C7
:1027800000232079E360012103F00EF92078012174
:10279000BDE8104003F008B938B5C36804460D46DB
:1027A00023B10021C160007803F098F82078294611
:1027B000BDE8384003F0F8B810B500210446FFF733
:1027C000EBFF642003F05CF92079002103F0ECF8C2
:1027D000BDE81040642003F053B910B50021044651
:1027E000007903F0E1F8642003F04AF92046002163
:1027F000FFF7D2FF642003F043F92079012103F0B1
:10280000D3F8642003F03CF920460121FFF7C4FF10
:10281000BDE81040642003F033B9F8B504460E4615
:102820000825F7092079002103F0BEF82046394633
:10283000FFF7B2FF0121207903F0B6F8642003F01E
:102840001FF920463946FFF7A7FF7600013DF6B293
:10285000E7D12946207903F0A7F82078022103F078
:102860003DF80223E3602079012103F09DF8FFF792
:1028700061FF0546207803F081F830B1FFF75AFF79
:10288000401B6428F6D90020F8BD0120F8BD38B5FA
:102890000D460446FFF790FF6900204601F0FE0157
:1028A000FFF7BBFF38BD08B5FFF797FF002008BD55
:1028B00008B5FFF7B2FF08BD70B50D466D000446C0
:1028C0001646FFF779FF691CA6602046C9B2FFF7DC
:1028D000A4FF70BD70B586680446002E55D0007800
:1028E000022102F0FBFF0223E36008250026207985
:1028F000002103F059F80121207903F055F86420F4
:1029000003F0BEF8207803F039F8013D00EB4600F3
:1029100000F0FF06EBD1A3686068013B002BA360C9
:10292000C0B2294617DD03F03FF8642003F0A8F891
:1029300029462046FFF730FF642003F0A1F82079F4
:10294000012103F031F8642003F09AF82079294638
:1029500003F02AF819E003F027F8642003F090F858
:1029600001212046FFF718FF642003F089F80121B8
:10297000207903F019F8642003F082F820792946C1
:1029800003F012F82046FFF728FF304670BD002301
:1029900030B5054618468B420FDAEA5C50400822F3
:1029A00010F0010F4FEA60041ABF84F0E000C0B2DB
:1029B000E0B2013AF4D10133EDE730BD08B5134B75
:1029C00013491A68096801328A421A601DD31149F5
:1029D00000221A600B78DB43DBB20B700E490978DA
:1029E00041B1012911D1182003B1114602F0DCFFD9
:1029F000192005E0192003B9012102F0D5FF1820A4
:102A00000021BDE8084002F0CFBF08BD58140020E7
:102A100060140020541400205C14002008B513201A
:102A2000002102F05BFF1820002102F057FF19205F
:102A3000002102F053FF1020022102F04FFF14206A
:102A4000022102F04BFF0321072002F047FF0A207A
:102A500003F008F81820002102F0A6FFBDE80840A6
:102A60001920002102F0A0BF0F4B10B50F4C1970B8
:102A70000F4B20461A600121022202F03BFC204647
:102A80000C4902F018FC012120460A4602F036FCEF
:102A900020460121084A02F040FC20460021BDE802
:102AA000104002F0FFBB00BF5C1400205415002052
:102AB00060140020A0860100BD29000808B5064862
:102AC00002F0DAFB1820002102F06EFFBDE808409A
:102AD0001920002102F068BF54150020014802F0BF
:102AE000D3BB00BF5415002030B58BB001AD2846D4
:102AF0000021242206F0AAF80024072002F030FF6B
:102B000004F032FB12A3D3E9002304F093FB00226C
:102B1000114B04F08FFB04F04FFE28514FF47A70F4
:102B2000043402F0ADFF242CE7D109226B4608AC37
:102B300053F8040F5968884284BF58601960A34253
:102B4000F6D1013A12F0FF02F0D105980BB030BD7A
:102B5000F163CC5D4BC8E93F00001840AFF3008043
:102B600008B51620002102F0B9FE1720002102F05E
:102B7000B5FE1620012102F017FFBDE8084017201E
:102B8000012102F011BF1720002102F0A7BE17207B
:102B9000042102F0A3BE08B5FFF7F5FF17200121BD
:102BA00002F002FF0121162002F0FEFE052002F0D5
:102BB00067FF0021172002F0F7FE062002F060FFF9
:102BC000BDE808401620002102F0EEBE08B5FFF770
:102BD000DAFF1620002102F0E7FE1720002102F0A4
:102BE000E3FE0121162002F0DFFE062002F048FF7E
:102BF0001720012102F0D8FEBDE80840062002F0AF
:102C00003FBF10B500210446162002F0CDFE20463D
:102C1000FFF7B9FF0021172002F0C6FE022002F0E4
:102C20002FFF0121162002F0BFFE052002F028FF31
:102C3000BDE810401620002102F0B6BE10B50021FC
:102C40000446162002F0B0FE2046FFF79CFF01214B
:102C5000172002F0A9FE022002F012FF0121162027
:102C600002F0A2FE052002F00BFFBDE81040162086
:102C7000002102F099BE70B50646FFF788FF0121DA
:102C8000172002F091FE012002F0FAFE1620012129
:102C900002F08AFE012002F0F3FEFB25172002F06D
:102CA0006DFE044640B1013D15F0FF05F6D13046FA
:102CB000FFF78CFF012070BD1620214602F074FE44
:102CC000204670BD38B50C46FFF75DFF1620002189
:102CD00002F06AFE082524F07F0303F0FF011720AD
:102CE00003B1012102F060FE0121162002F05CFE1A
:102CF000022002F0C5FE1620002102F055FE013D23
:102D00000220640002F0BCFE15F0FF05E4B2E2D13F
:102D100038BDF8B505460F46FFF739FF08260024F1
:102D20000021162002F040FE022002F0A9FE16202B
:102D3000012102F039FE64001720E4B202F01EFE09
:102D400008B10134E4B20120013E02F099FE16F010
:102D5000FF06E5D1284617B9FFF770FF01E0FFF73E
:102D600050FF2046F8BD7047012070470120704792
:102D700010B5FF2301441A46884208D010F8014BD1
:102D80005440044A125D5A40034B1B5DF4E743EA8A
:102D9000022010BD090000200B01002070B5094D74
:102DA000094C0646227829780848FFF7DDFC287888
:102DB000012102F0F9FD2078012102F0F5FD3046F5
:102DC00070BD00BF090100200A0100209C140020F2
:102DD00010B5064C2046FFF75AFD2046FFF763FD6D
:102DE000D0F1010038BF002010BD00BF9C140020AE
:102DF00010B54A2104460548FFF7EAFF28B12368C9
:102E000020461B6801219847012010BDAC1400200A
:102E100070B5094C154620461E46FFF738FD294679
:102E20002046FFF745FD20463146FFF741FD20468D
:102E3000BDE87040FFF737BD9C140020F8B513487B
:102E400014461E460F469DF81850FFF720FD2146F8
:102E50000E48FFF72DFD0D48FFF725FD0B4CA5B1E2
:102E60002A4620463946FFF727FD0022237A551CC3
:102E700033B10648D7B2FFF72DFD2A46F055F5E7E6
:102E80000248BDE8F840FFF70EBDF8BD9C140020D5
:102E9000F0B51C4685B0012300930DF10F031546D4
:102EA00007460E46FFF7CAFF9DF80F309DF8282011
:102EB00023EA040314402343384631462A468DF85A
:102EC0000F30FFF7A5FF05B0F0BD000013B50024DB
:102ED00071B1012213460B484A210094FFF7D8FF35
:102EE0004A210094074802224023FFF7D1FF8021A6
:102EF000009104484A2102228023FFF7C9FF02B053
:102F000010BD00BFAC14002008B51E220F481F21C1
:102F1000FFF72AFC38210D48FFF7B9FC06210B48C2
:102F2000FFF7C6FC0948FFF7BEFC4FF4FA7002F049
:102F300099FD0748FFF75CFF10B10648064901E01C
:102F400004480649BDE8084002F04EBA4414002087
:102F500068140020B414002070E3000889E300081E
:102F6000F0B5334C85B00D461646FFF7CDFF39213D
:102F700001222046FFF7A0FC012002F073FD277A12
:102F80001FB12046FFF7A6FC07463821012228483A
:102F9000FFF792FC012002F065FD207A10B1244871
:102FA000FFF798FC40EA072004F0CEF81EA3D3E90F
:102FB000002304F03FF904F0FFFB1E4930601E4877
:102FC00002F0F7F931680A221B4802F0B6FA022330
:102FD00000931A4803AB4A210322FFF72FFF9DF805
:102FE0000D209DF80C3002F00F0242EA03122D2151
:102FF000D2B24A431B0902FA03F34FF47A72B3FBCD
:10300000F2F32B600E490C4802F0D3F929680A222A
:10301000094802F09CFA0B49074802F0E5F905B0AF
:10302000F0BD00BFAFF300800AD7A3703D0A773F21
:1030300044140020A2E30008B4140020AC140020C3
:10304000A8E30008BFE3000808B50348FFF7A6FEA1
:10305000024A034B1A6008BDAC14002040E300088C
:10306000681400202DE9F0431746504A87B01068D5
:10307000884651681E4603AD01AB03C30A220021F6
:10308000284605F0E3FD9DF8383006AC04F8143D01
:1030900020460621FFF76CFE030A8DF80B0044481A
:1030A0008DF80A30036821469B68082298476420FF
:1030B00002F0D8FC00243E4802F056F800285FFADF
:1030C00084F90EDD092C06D13A483B4902F08CF90F
:1030D0004FF0000905E0364801F0F2FF28550134B1
:1030E000E9E73448354902F07FF9B9F1000F0FD113
:1030F0003349304802F078F92E48304902F074F92B
:103100009DF80C909DF81440B9F1000F0ED019E015
:1031100000244C45ECD2295D1022264802F0F1F93A
:103120002448284902F045F90134F2E70DF10D0079
:103130000721FFF71DFE9DF8153043EA0424844261
:103140000AD10EE028460721FFF712FE9DF8133042
:1031500044EA032484420FD000234FF6FF741A4838
:103160001CE09DF811309DF810009DF8124043EAD4
:1031700000209DF8133009E09DF810309DF80F00F5
:103180009DF8114043EA00209DF8123043EA0424E0
:1031900004F038FC0D4904F041FDE30BC8F80000D1
:1031A0003C60337007B0BDE8F08300BF58E300080F
:1031B000E4140020B4140020C4E30008E5E3000890
:1031C0002DE90008A6E3000800FF7F470000C84281
:1031D000F0B50F46354987B00868496801AB03ADC3
:1031E00003C306AC164600210922284605F02EFD31
:1031F00004F8146D20460621FFF7BAFD030A8DF886
:103200000B002B488DF80A30036821469B68082282
:103210009847642002F026FC0024254801F0A4FF12
:103220000028E6B20DDD082C05D12248224902F023
:10323000DBF8002605E01E4801F042FF2855013466
:10324000EBE71C481D4902F0CFF8B6B91C491948F4
:1032500002F0CAF81949174802F0C6F828460521B5
:10326000FFF786FD9DF811209DF8123043EA0223F6
:10327000834210D04FF6FF7313E00024B442E5D22E
:10328000295D10220B4802F03CF90A480D4902F072
:1032900090F80134F2E79DF80F209DF8103043EAD2
:1032A00002230A2253433B6007B0F0BD60E30008ED
:1032B000E4140020B414002001E4000822E4000813
:1032C0002DE90008A6E300082DE9F04116463C4A26
:1032D00086B010680F46516801AC03AD984603C430
:1032E0000A2206AC0021284605F0B0FC04F8148D33
:1032F00020460621FFF73CFD030A8DF80B003148FC
:103300008DF80A30036821469B680822984764209C
:1033100002F0A8FB00242B4801F026FF00285FFAEA
:1033200084F80EDD092C06D12748284902F05CF804
:103330004FF0000805E0234801F0C2FE2855013493
:10334000E9E72148224902F04FF8B8F1000F17D100
:1033500020491D4802F048F81D491B4802F044F876
:1033600028460721FFF704FD9DF813209DF814302F
:1033700043EA0223834211D04FF6FF731A4619E045
:103380000024295D1022104802F0BBF801340E48D9
:10339000114902F00EF8092CF3D1D9E79DF812304B
:1033A0009DF811209DF80F1043EA02229DF810307D
:1033B00043EA01233A60336006B0BDE8F08100BF04
:1033C00068E30008E4140020B41400203EE4000880
:1033D00062E400082DE90008A6E3000873B50121A6
:1033E000514D082002F0E0FA642002F03BFB284631
:1033F000FEF798FE4D4C01262060642002F032FB5F
:103400002846FEF7A1FE4A4DA060642002F02AFB88
:1034100004F1140304F1180104F110020096284687
:10342000FFF720FE642002F01DFB04F1280128466E
:103430000222FFF7CDFE642002F014FB334604F1B4
:103440001C0104F120022846FFF73EFF642002F031
:1034500009FB04F1240204F10C012846FFF780FD6A
:10346000344D642002F0FEFA0820002102F09CFA9C
:103470002846314901F09DFF206803F087FE0226AF
:1034800002460B460096284602F016F928462B49BC
:1034900001F08FFFA06803F079FE009602460B460C
:1034A000284602F009F92846254901F082FF2369E0
:1034B0006421B3FBF1F10A22284602F03EF82149CB
:1034C000284601F076FFA06A04F09CFA1E4904F039
:1034D000A5FB03F05BFE009602460B46284602F071
:1034E000EBF82846194901F064FFA06903F04EFE8D
:1034F00000960B460246284602F0DEF8284614499C
:1035000001F057FFE1690A22284602F016F8284622
:10351000104901F04EFF216A28460A2202B0BDE898
:10352000704002F00AB800BF2C1400207014002074
:103530006C140020B414002087E40008A6E40008FE
:1035400081E4000895E400080000C842A0E40008F7
:10355000B1E40008BEE400080A22B1FBF2F302FB6A
:10356000131202EB0310C0B2704701F00F030909F8
:1035700001EB810103EB4100C0B2704737B50C4647
:103580000C480DF10701FEF708F89DF807304FF4DD
:103590007A705843084902F028FA9DF8073005462A
:1035A00064205843054902F020FA2844206003B003
:1035B00030BD00BF1E14002080841E00400D03009B
:1035C00070B50E4615460024E3B2AB42074809D257
:1035D000315D102201F095FF0448054901F0E9FE34
:1035E0000134F1E7BDE8704001F0E8BEB4140020FA
:1035F000A6E3000830B595B040220546002104A896
:1036000005F024FB002414A941F8504D28466946D2
:10361000FFF7B4FF009802F033FAFE238DF8103064
:10362000E0238DF8113011238DF8123024238DF80A
:10363000133001238DF81530444B8DF814401B785E
:1036400003B1552342488DF81630FEF71AFA01AC43
:103650008DF8170021463E48FEF7B6F9002304AA6C
:103660001A44E15C0133052B1172F8D13948214627
:10367000FDF73BFF002304AA1A44E15C0133092B48
:103680005173F8D100240123222133488DF82630CC
:103690008DF827408DF828408DF829408DF82A4074
:1036A0008DF82B408DF82C408DF82D408DF82E4054
:1036B0008DF82F40FEF736F923218DF8300026488B
:1036C000FEF730F924218DF831002348FEF72AF95E
:1036D00025218DF832002048FEF724F924218DF8A9
:1036E000330005A88DF834408DF835408DF836400C
:1036F0008DF83740FFF74BF98DF83800E30704AB3E
:10370000234404F1010454BF0D220A22062C83F83D
:103710002920F3D11149124801F066FE04A9284678
:103720002F22FFF74DFF0F48FFF7C8F90E4804A9F5
:1037300003682F229B6898474FF4FA7002F092F9C1
:103740000848FFF7CBF915B030BD00BF17140020B3
:103750001B1400201E1400201C140020CBE40008C1
:10376000B414002064140020CC14002030B587B0BD
:1037700014220446002101A805F068FA002506A9D4
:1037800041F8185D20466946FFF7F8FE009802F000
:1037900077F9FE238DF80430E0238DF805301323EC
:1037A0008DF8063005238DF8073001238DF8093098
:1037B0001E4B8DF808501B7803B155231C488DF81B
:1037C0000A30FEF75EF901238DF80B00052102A8EF
:1037D0008DF80C30FFF7DBF800238DF80D00DA07C9
:1037E00001AA1A4403F1010354BF0D210A21062B3B
:1037F0009172F4D10F49104801F0F6FD01A920465D
:103800001022FFF7DDFE0D48FFF758F90C4801A91B
:10381000036810229B6898474FF4FA7002F022F96F
:103820000648FFF75BF907B030BD00BF1714002052
:103830001B140020E7E40008B414002064140020E6
:10384000CC14002030B58DB01E220546002104A8FE
:1038500005F0FCF900240CA941F8244D2846ADF8E8
:103860000840FFF78BFE039802F00AF9344B0094EE
:10387000344802A90122FDF731FBFE238DF81030F8
:10388000E0238DF8113014238DF8123012238DF8B7
:10389000133001238DF815302B4B8DF814401B7815
:1038A00003B1552329488DF81630FEF7EAF80123B5
:1038B0008DF81830264B00241B788DF817009DF8E2
:1038C000081024488DF819308DF81A408DF81B40E7
:1038D000FFF74BFE9DF809108DF81C001D48FFF7FF
:1038E00044FE12218DF81D0005A8FFF750F823466D
:1038F0008DF81E00DA0704AA1A4403F1010354BF2D
:103900000D210A21062BD173F4D11349134801F07C
:103910006BFD04A928461522FFF752FE1048FFF759
:10392000CDF8104804A9036815229B6898474FF406
:10393000FA7002F097F80A48FFF7D0F80DB030BDE2
:103940000DE5000818140020171400201B14002097
:10395000AF140020AD14002017E50008B4140020B7
:1039600064140020CC140020F0B589B005460F4641
:1039700016460021192201A805F068F9002408A9BB
:1039800041F8204D28466946FFF7F8FD009802F0FF
:1039900077F8FE238DF80430E0238DF805301523E9
:1039A0008DF806300E238DF8073001238DF809308D
:1039B0002A4B8DF808401B7803B1552328488DF811
:1039C0000A30FEF75EF800248DF80B00012302A8F0
:1039D0000E218DF80C308DF80D708DF80E408DF89D
:1039E0000F408DF810408DF811408DF812408DF881
:1039F00013408DF814408DF81540FEF7C8FF8DF880
:103A00001600E30701AB234404F1010454BF0D2267
:103A10000A22062CDA74F4D11249134801F0E4FCAE
:103A2000284601A91922FFF7CBFD1048FFF746F8F9
:103A30000024E3B2B3420BD20D4801A90368192256
:103A40009B6898474FF4FA7002F00CF80134F0E7E5
:103A50000648FFF743F809B0F0BD00BF1714002077
:103A60001B14002031E50008B41400206414002069
:103A7000CC140020F0B50024ABB021460646142239
:103A800005A8019405F0E2F8802221460AA805F075
:103A9000DDF82AA941F8A04D3046FFF76FFD0298E6
:103AA00001F0EEFFA448FFF799FCFE238DF82830C3
:103AB000D0238DF8293001253023A0488DF82B30F4
:103AC0008DF82C408DF82A508DF82D50FFF70CF80A
:103AD0009B4C030A27688DF82F009A4938468DF8C9
:103AE0002E3004F0A3F928B1FF238DF830308DF883
:103AF00031301AE03846002104F07AF918B107F1A4
:103B00000047276000E00546022301A8216804223F
:103B1000FCF7A0FC9DF804308DF830309DF805309E
:103B20008DF831300DB1F22300E0E223A5688DF865
:103B3000323028460023019304F082F901386328CB
:103B400003D9FF238DF833300BE0022301A8294667
:103B50000422FCF77FFC9DF804308DF833309DF88B
:103B600005308DF834300021E223142205A88DF8A9
:103B70003530019105F06AF8E268734B9A4207D933
:103B8000FF238DF836308DF837308DF8383019E056
:103B90006E4905A805F0C2FA05A805F043FB05A982
:103BA000024601A8FCF71EFC9DF804308DF8363063
:103BB0009DF805308DF837309DF806308DF8383097
:103BC0009DF807308DF83930E0238DF83A30A36A3C
:103BD0000A200025B3FBF0F0019503F013FF2B46FC
:103BE0000146042201A8FCF735FC9DF80430606A08
:103BF0008DF83D309DF8053064288DF83E304FF04B
:103C0000E1038DF83B508DF83C508DF83F30019525
:103C100003D9FF238DF840300DE003F0F3FE2B466F
:103C20000146042201A8FCF715FC9DF804308DF82C
:103C300040309DF80530E02220698DF842208DF853
:103C400045208DF848204FF6FE728DF841309042A5
:103C50004FF0FF038DF843308DF844308DF8463037
:103C60008DF8473002D98DF8493016E0344B1B7D72
:103C7000012B08BFC0F5803003F0C4FE344903F0C7
:103C8000CDFF02230146042201A8FCF7E3FB9DF8C7
:103C900004308DF849309DF805308DF84A30237D89
:103CA000A569012B0CBFF223E2238DF84B30284687
:103CB0000023019304F0C4F8642803DDFF238DF88A
:103CC0004C300BE0022301A829460422FCF7C2FB7A
:103CD0009DF804308DF84C309DF805308DF84D304E
:103CE000206AE2238DF84E304FF6FE73002598428D
:103CF000019503D9FF238DF84F300DE003F082FECC
:103D00002B460146042201A8FCF7A4FB9DF80430D1
:103D10008DF84F309DF805308DF85030E069E02384
:103D20008DF851304FF6FE7300259842019511D958
:103D3000FF238DF852301BE06C1400206414002027
:103D40007014002000001643400D030049E50008F0
:103D50000000C84203F056FE2B460146042201A88B
:103D6000FCF778FB9DF804308DF852309DF8053053
:103D700003AC8DF853301F48E02321468DF85430B2
:103D8000FDF7B8FF00230AAA1A44E15C0133072BB0
:103D900082F82D10F7D10BA83021FEF7F8FD002393
:103DA0008DF85C00DA070AAA1A4403F1010354BF34
:103DB0000D210A21062B82F83510F3D10E490F4848
:103DC00001F012FB0AA930463B22FFF7F9FB0C4831
:103DD000FEF774FE0B480AA903683B229B689847CC
:103DE0004FF4FA7001F03EFE0548FEF777FE2BB067
:103DF000F0BD00BF291400204FE50008B4140020D6
:103E000064140020CC140020122938B5054614464D
:103E100008460BD0132910D0112916D100F07CF8D8
:103E20000CB120460FE047F6FF700CE000F074F88C
:103E3000002CF6D149F63F4005E000F06DF8002C6B
:103E4000EFD14FF2234000F06BF9284638BD13B58F
:103E50000022044601A8FFF7D7FF204602B010BD9C
:103E6000084600F043B900F02FB910B510460C46D3
:103E700000F070F921460320BDE8104000F0A2B820
:103E8000054B1B681B685B0103F1844394331A687C
:103E9000002AFCD0704700BF0C020020054B1B68B5
:103EA0001B685B0103F184438C331A68002AFCD041
:103EB000704700BF0C02002008B5FFF7E1FF054B7B
:103EC00000221B681B685B0103F18443C3F88C204C
:103ED00008BD00BF0C02002008B5FFF7D1FF054B5D
:103EE00001221B681B685B0103F18443C3F8902027
:103EF00008BD00BF0C02002008B5FFF7C1FF054B4D
:103F000000221B681B685B0103F18443C3F8902007
:103F100008BD00BF0C02002010B5044600F063FB92
:103F200000F06EFB204A112C136A23F440731362D5
:103F300013460BD005D8C4B1102C2AD1002313622C
:103F400027E0122C11D0132C1AD022E0174A00219E
:103F50001160012142F8081C154A126812F0FF0F87
:103F6000FAD01A6A42F4807212E0124A01211160FA
:103F7000114A1268002AFBD01A6A42F4007207E064
:103F80000E4A126812F0FF0FFAD01A6A42F4407219
:103F90001A620B4B01221A60FFF78EFFFFF77EFFBC
:103FA000BDE81040FFF76CBF001002400804424219
:103FB0000404424280044242840442424400424299
:103FC0003C04424238B5144D04462B6803EB800391
:103FD0005960FFF755FF032C09D1104A01231360E4
:103FE000C2F800310E4B4FF400725A6038BD2B6896
:103FF00001221B68944204EBC3034FEA830303F1DD
:1040000084431A6003D002D3022C00D038BD044B85
:1040100008221A6038BD00BF0C02002044802042F4
:1040200000E100E010B50446FFF72AFF032C0B4B1C
:1040300005D10B4900220A60C1F8002108E01A6886
:104040000021126804EBC202920002F18442116066
:104050001B6803EB84040023636010BD0C02002086
:1040600044802042F8B5104B1E6835682B686F6895
:104070001F4017F0010403D074680CB1A04701245D
:10408000BA0704D5B36813B1984744F002047B071C
:1040900004D5F36813B1984744F004046B6823EA2D
:1040A00004046C60F8BD00BF0C02002008B5044B8E
:1040B0001B681B691BB19847024B01221A6008BD9F
:1040C0000C020020C482204208B5FFF7F5FEFFF77E
:1040D000E5FEFFF7D5FE044B1B681B689869DB699A
:1040E0009BB243EA004008BD0C02002010B5044614
:1040F000FFF7E2FEFFF7D2FEFFF7C2FEFFF7ECFE8E
:10410000064B220C1B68A4B21B689A61DC61FFF7A6
:10411000F3FEBDE81040FFF7B3BE00BF0C02002065
:1041200010B50446FFF7C8FEFFF7B8FEFFF7A8FE7C
:10413000FFF7D2FE064B220C1B68A4B21B689A60E4
:10414000DC60FFF7D9FEBDE81040FFF799BE00BF65
:104150000C02002010B50446FFF7AEFEFFF79EFEEE
:10416000FFF78EFEFFF7B8FE064B220C1B68A4B2C9
:104170001B681A625C62FFF7BFFEBDE81040FFF7E4
:104180007FBE00BF0C02002001498D46014908474F
:10419000005000209941000808B5124B124A1968D6
:1041A000914201D0002301E0104B07E01048D418E1
:1041B0008442F9D2C858D0500433F7E70D4A9342ED
:1041C00003D2002243F8042BF8E704F08FF9002013
:1041D0000146024601F07CFB074B0BB104F076F977
:1041E000FEE700BF34EB0008000000207813002039
:1041F00078130020A0150020CD84000808B50D4BD1
:104200001A680AB90C4A1A601B680C4AD21A824210
:1042100004DB09494242591A914206DA04F050F986
:104220000C2303604FF0FF3008BD024A18441060B1
:10423000184608BDB0140020A0150020B82601289B
:10424000FEE770470B4B10B5196809220A230A488C
:1042500000F09EFF094B022219680948032300F071
:1042600097FFBDE81040074B074819681A221B2327
:1042700000F08EBF30030020B4140020340300206F
:10428000CC14002038030020E414002010B50446AC
:1042900000F08EF9034B20461978BDE8104000F07D
:1042A00013B900BF28020020F8B50446056800F0E5
:1042B00075FB22680023510101F184410B608021CC
:1042C00029600121A9622B61EB606379696113B1F7
:1042D0008B4203D02BE04FF400436B644FF6FF7327
:1042E000D36200256E1CF7B22046394600F060FB11
:1042F000D0B1236848F6FF7103F1340242F825106B
:1043000018336D1017F0010F53F8252014BF6FF00C
:10431000FF016FF47F4101EA020214BF68214FF4EC
:10432000D0410A4343F82520042E3546DAD12168CE
:1043300001224B01490103F1844301F18441C3F897
:1043400080220A60F8BD000038B5274B274C1A6858
:10435000022042F010021A6000F05EF900250020F1
:1043600000F028FA65602368182023F400232360F6
:1043700000F02DFA102000F02AFA00F043F8A560B2
:10438000102000F017FA102000F03EFA0028FAD0B2
:1043900000F039F8164800F043FA182000F00AFA45
:1043A000182000F031FA0028FAD0022000F0F2F9CB
:1043B00000214FF0006000F09FF90E4800F0A6FACF
:1043C00000F038F80C4B188800F0E0F80B4800F0CB
:1043D000E1F80B4800F0CEFA00F02EF800F02DF8CE
:1043E000FFF72FFF38BD00BF002002400010024041
:1043F0002C0200203F1901002A0200208D420008F3
:10440000A9420008704708B50020014600F056FA9E
:1044100001204FF4806100F051FA0021022000F0E9
:104420004DFA2D2000F05AFABDE808400320002183
:1044300000F044BA00F0FAB8704700F037B9000055
:10444000012007E0022005E0032003E0042001E052
:104450000520FFE70D4A0121116072B60C4A0021C8
:104460001160074902B4084902B486B005498E4676
:10447000704700BFAFF30080AFF30080AFF3008060
:1044800000000061F9FFFFFF4950000814ED00E053
:1044900010E000E0AFF30080AFF30080AFF30080E6
:1044A000FEE710B50446007900F0D6F92079BDE8A2
:1044B000104000F0E9B903689A6822F4602242F4DF
:1044C0008012114399607047002370B51A461C464C
:1044D000072B4FEA430503DCEE1801FA06F63443D6
:1044E0001D4401FA05F501330A2B42EA0502EFD11A
:1044F0000368DC601A6170BD0368DA6A22F0F87242
:10450000DA6259639A6842F480029A601A689207E4
:10451000FCD5D86C80B2704738B5124D2A68136844
:104520001C68A10706D5196821F00201196093687B
:1045300003B19847620708D52B681A681B69116890
:1045400021F00401116003B19847E30708D52B68F7
:104550001A68DB68116821F00101116003B1984706
:1045600038BD00BF58020020036801225B0103F13F
:10457000844303F58673191F1A6018680028FCD15C
:1045800043F8042C0B68002BFCD170470146042033
:1045900000F094B9044B10B504461868A047034BCB
:1045A0001868A04710BD00BF580200205402002028
:1045B00010B50446FFF775FF20464FF46021FFF762
:1045C0007AFF2368012103F1404308335A015B015C
:1045D00002F1844203F18443116520461960BDE86D
:1045E0001040FFF7C1BF08B5142000F035F90420D2
:1045F00000F032F9BDE80840042000F045B90000A1
:10460000014B01221A60704720000E42014B00222C
:104610001A60704720000E42034B1A6822F007020E
:1046200010431860704700BF0020024008B50748DB
:1046300001F092FA064801F08FFA064801F08CFA70
:10464000BDE80840044801F087BA00BF5C020020C2
:10465000640200206C0200207402002070B501F09A
:104660000704A4000F25A5400368C80853F820607C
:10467000092A26EA050514BF1646082606FA04F498
:10468000082A44EA050443F8204006D1012000FA34
:1046900001F1DA6822EA010106E0092A05D10120C8
:1046A00000FA01F1DA681143D96070BD08B5032042
:1046B00000F0D2F8BDE80840032000F0E5B80000A3
:1046C000024B4AF6AA221A60704700BF0030004031
:1046D00000284FEA011105DA064B00F00F00C9B2BD
:1046E0001954704700F16040C9B200F5614080F88C
:1046F0000013704714ED00E021F0604138B521F05F
:104700007F01084B0843986000241D4660B20F21CA
:104710000134FFF7DDFF2B2CF8D1F02385F823308F
:1047200038BD00BF00ED00E0044A054BD16801F43C
:1047300040710B43D360BFF34F8FFEE700ED00E005
:104740000400FA05014B1860704700BFA0000E423C
:10475000074B1A6842F001021A601A6842F002021E
:104760001A60044B1A6942F004021A6130BF7047A4
:104770000070004000ED00E0024B1A6842EA800041
:104780001860704700700040014B13F8100070472C
:1047900010E80008064B5A6822F0030202435A60F0
:1047A00080005A6802F00C028242FAD1704700BFC2
:1047B00000100240030A0121C0B201FA00F003F127
:1047C000804303F504331A68104318607047030AE6
:1047D0000121C0B201FA00F003F1804303F5043374
:1047E0001A6822EA000018607047030A0122C0B26A
:1047F00002FA00F003F1804303F504331B6818420A
:104800000CBF002001207047030A0222C0B202FA46
:1048100000F003F1804303F504331B681840704730
:1048200038B54368044618201D68FFF7DEFF20B145
:1048300006488121064A00F011FC064B21685A689F
:104840000D4322F4741215435D6038BDA0E70008E3
:10485000F4E700080010024010B50446FFF794FF8B
:10486000074B53F82020074B03EB4404637803EB1A
:10487000C2039B0003F1844301221A6010BD00BFF4
:104880007C02002010E8000810B50446FFF77CFF0A
:10489000084B53F82020084B03EB4404637803EBE8
:1048A000C2039B0003F1844301221A6000221A60B4
:1048B00010BD00BF8802002010E8000810B5054BAD
:1048C000054C5A6854F8200022EA0002114359604E
:1048D00010BD00BF001002406CE8000810B504468F
:1048E000FFF752FF074B53F82020074B03EB44041C
:1048F000637803EBC2039B0003F1844300221A6038
:1049000010BD00BF9002002010E80008024B0722F3
:1049100058601A60704700BF10E000E008B5044B13
:104920001A6801321A60034B1B6803B1984708BD2F
:1049300094150020FC14002011F0010F70B542EA1C
:1049400003030CBF0825002503FA05F5006801F1F3
:10495000FF3400F11800C4F3400450F8241014BFD1
:104960006FF0FF066FF47F463140294340F8241072
:1049700070BD000010B504460448A0470448A04795
:104980000448A0470448A04710BD00BFE40200202F
:104990000C0300209C020020C002002010B5044639
:1049A0000079FFF759FF2079BDE81040FFF76CBF91
:1049B00003791E2B10D9212B0ED0202B0ED9222BA0
:1049C00001D0252B04D102298CBF00200120704783
:1049D0004B1E5842584170470120704700207047D5
:1049E0008B1C40F823200368012203F140430C3361
:1049F00001EBC3039B0003F184431A6042790379FE
:104A0000FAB9B3F11A025342534107294BD8DFE8F0
:104A100001F004090909090E0E13002B0CBF2C2309
:104A2000192337E0002B0CBF2E231B2332E0002B71
:104A30000CBF2D231A232DE0002B0CBF2B23182392
:104A400028E01B3B0C2B1CD8DFE803F021230709CF
:104A50000B0D1B0F1113151719001E231AE032231B
:104A600018E0362316E0372314E0182312E0192348
:104A700010E01A230EE02B230CE02C230AE02D2358
:104A800008E0094840F2BF11084A00F0E7BA1C23C9
:104A900000E01D235909012203F01F0302FA03F36A
:104AA000034A42F82130704780E80008FDDA000828
:104AB00000E100E00368002203F140430C3301EB06
:104AC000C3039B0003F1844302311A6040F82120A4
:104AD00070470000F8B54E1EF3B2032B04460D4696
:104AE000174604D92648DA21264A00F0B7FA637936
:104AF000022B43D0032F41D8DFE807F00212223502
:104B000020462946FFF7D6FF236803F140432033B0
:104B1000DB0003EB8606B60006F18446002320E0A6
:104B20002368002203F140430C3305EBC3039B00D1
:104B300003F184431A60204629466022082303E0DB
:104B40002046294610220023FFF7F6FE236803F1D2
:104B500040432033DB0003EB8606B60006F18446B3
:104B600001233360F8BD23684FF2F1229A610322DA
:104B70009A605B0103F1844301221A60F8BD00BF13
:104B800080E80008D3E8000810B5074B1C68E1680E
:104B900022690A40120606D55B6A23B19847236949
:104BA00023F08003236110BDE402002010B5074B01
:104BB0001C68E16822690A40D20706D59B6823B1C8
:104BC0009847236923F00103236110BDE40200200C
:104BD000F8B50C4F3D68EB682E691E4016F0400496
:104BE00003D03C6A0CB1A0474024B30604D5FB694E
:104BF00013B1984744F020042B6923EA04042C6184
:104C0000F8BD00BFE4020020F8B5134F3E68F3681A
:104C100035691D4015F0100403D0BC690CB1A047E4
:104C20001024290704D57B6913B1984744F0080480
:104C30006A0704D53B6913B1984744F00404AB07F5
:104C400004D5FB6813B1984744F00204336923EAA2
:104C500004043461F8BD00BFE4020020F8B51A4E28
:104C60003768FB683D691D4015F0400403D0346A85
:104C70000CB1A0474024EB0604D5B36913B19847A3
:104C800044F01004280704D5736913B1984744F021
:104C90000804690704D5336913B1984744F0040444
:104CA000AA0704D5F36813B1984744F00204EB0750
:104CB00004D5B36813B1984744F001043B6923EA73
:104CC00004043C61F8BD00BF0C030020F8B51A4E87
:104CD0003768FB683D691D4015F0400403D0346A15
:104CE0000CB1A0474024EB0604D5B36913B1984733
:104CF00044F01004280704D5736913B1984744F0B1
:104D00000804690704D5336913B1984744F00404D3
:104D1000AA0704D5F36813B1984744F00204EB07DF
:104D200004D5B36813B1984744F001043B6923EA02
:104D300004043C61F8BD00BF9C020020F8B51A4E87
:104D40003768FB683D691D4015F0400403D0346AA4
:104D50000CB1A0474024EB0604D5B36913B19847C2
:104D600044F01004280704D5736913B1984744F040
:104D70000804690704D5336913B1984744F0040463
:104D8000AA0704D5F36813B1984744F00204EB076F
:104D900004D5B36813B1984744F001043B6923EA92
:104DA00004043C61F8BD00BFC00200208188026895
:104DB000034689B2505C99881A8989B292B29142AD
:104DC00017BF9A880022013292B2C0B29A8070470F
:104DD000C28838B5838892B29BB201329A420446A7
:104DE0000D461AD0C288038992B29BB29A4202D170
:104DF00083889BB28BB14FF0FF30E288236892B278
:104E00009D54E288238992B29BB29A4217BFE388ED
:104E1000002301339BB2E38038BD2046FFF7C6FF75
:104E2000EBE770B51E460546084611460422059C70
:104E3000FFF714FC9DF810100B223046FFF70EFC14
:104E40002B6804F00F01DA6804F0300422F4F05209
:104E50001204120C42EA4122DA601A6922F440522A
:104E60001204120C42EA04241C6170BD38B50446D9
:104E7000154611B900F096F8014619235943AD00C3
:104E80006423B1FBF5F1B1FBF3F21201100903FB4E
:104E9000101109013231B1FBF3F303F00F03216864
:104EA0001A4392B28A6038BD38B5114DEB68980646
:104EB00007D52B68990604D569680E48C9B2FFF773
:104EC00087FFEB680A4C1A0611D523681B060ED51E
:104ED00009488288C38892B29BB29A4203D0FFF7F6
:104EE00065FF606038BDE36823F08003E36038BD90
:104EF000003801400C1500200015002038B5114D78
:104F0000EB68980607D52B68990604D569680E48A2
:104F1000C9B2FFF75DFFEB680A4C1A0611D523688A
:104F20001B060ED509488288C38892B29BB29A426A
:104F300003D0FFF73BFF606038BDE36823F08003D8
:104F4000E36038BD004400401815002030150020F3
:104F500038B5114DEB68980607D52B68990604D52E
:104F600069680E48C9B2FFF733FFEB680A4C1A06AE
:104F700011D523681B060ED509488288C38892B2D2
:104F80009BB29A4203D0FFF711FF606038BDE3681F
:104F900023F08003E36038BD004800402415002062
:104FA0003C15002008B590F89002FFF7EDFB20B10A
:104FB0000128034818BF002008BD024808BD00BFF3
:104FC00000A24A040051250213B504468DF80710CB
:104FD00020460DF10701012200F018FE0028F7D04D
:104FE00002B010BD38B505464C1E14F8011F19B1AA
:104FF0002846FFF7E9FFF8E738BD000008B5114B78
:1050000001211C6803222046FFF728FB0023012111
:105010001A469342206834BF02254FF40035B2F59A
:10502000007F056103F1010303D0002A08BF0121BD
:1050300001E04FF0FF31B3F5007F04BF52180023A9
:10504000E7E700BF9CE7000808B5034B0BB1AFF3DF
:10505000008062B6FFF7D2FF00000000F8B5144BE5
:1050600006460D4617460BB3AFF3008011490446C0
:10507000FFF7B8FF20463946FFF7B4FF20460E4938
:10508000FFF7B0FF20463146FFF7ACFF20460B4943
:10509000FFF7A8FF2046294600F006FE20460A2119
:1050A000FFF792FF20460D21FFF78EFFFFF7CCFFA1
:1050B00000000000EFE8000805E90008A5E300088B
:1050C00003695B68D9889A8889B292B2D8888A1AAB
:1050D000998880B289B2884203D2198989B2013194
:1050E0000A4492B282B199881A6889B2505C998850
:1050F0001A8989B292B2914217BF9A88002201326E
:1051000092B2C0B29A8070474FF0FF307047036987
:105110005B689988DA8889B292B2914205D09A8800
:105120001B6892B2985CC0B270474FF0FF30704776
:1051300003699A689088D18880B289B28842F9D18F
:105140001A6813685B06FCD5704713B504698DF8BF
:10515000071020460DF10701012200F057FD00283D
:10516000F7D0012002B010BD03695B68D8889A8827
:1051700080B292B2D988801A9A8889B292B291424A
:1051800003D21B899BB20133184480B270470000E0
:1051900030B5002545604FF47A758560024D016198
:1051A00005600275437530BD38E9000803692DE9D3
:1051B000F74FDB68044699420F4692462CD890F888
:1051C0001480174D4FEA081808EB050690F8159063
:1051D00070684FEA091909EB050B717B10B10022C9
:1051E000FFF778FC206900F0C1FC337B9BF80C20B2
:1051F00020698DE8080459F8051058F80530FFF7C4
:1052000010FE206900213A46FFF730FE206903B006
:10521000BDE8F04F00F0D4BC03B0BDE8F08F00BF94
:105220006CE500080022FFF7C1BF006900F0D2BCA6
:10523000044B02791B789A4202D1034B1B68186019
:10524000704700BF581500205C150020002310B5E2
:105250000446036072B6054B19311970044B18608F
:105260000448FFF787FB62B6204610BD58150020A2
:105270005C15002031520008036800221B685B01A6
:1052800003F184431A607047036801221B685B01C5
:1052900003F184431A607047036801391B6889B2BF
:1052A0009962704703681B68DA6A92B2914228BF1C
:1052B00011465962704738B5054639B9036801226D
:1052C0001B689962DA62D86A80B238BD48244C43C0
:1052D0004FF6FF71B4FBF1F1013189B204EB5104D7
:1052E000B4FBF1F4FFF7D8FF2B68A4B21B6820468B
:1052F000DC6238BD0068C9B2FFF7ECBB0368C9B215
:105300001B6801F18041D86A013980B2343382428E
:1053100028BF024643F8212070470068C9B2FFF752
:105320005FBB000008B501210848FFF78FFF02218D
:105330000748FFF78BFF03210648FFF787FFBDE80B
:10534000084005480421FFF781BF00BF4815002031
:105350004C150020501500205415002070B505464E
:105360000E460024315D29B12A682846126890470C
:105370000134F7E7204670BDF8B505460C461646E1
:105380008F18BC4206D02B6828461B6814F8011BF6
:105390009847F6E73046F8BD10B502680B469468AA
:1053A00009689A68A04710BD08B503681B6898474C
:1053B00008BD08B503685B68984708BD38B50D217E
:1053C0000546FFF7F1FF0A2104462846FFF7ECFFE8
:1053D000204438BD38B50446FFF7DEFF05462046B9
:1053E000FFF7ECFF284438BD38B50446FFF7E1FF6E
:1053F00005462046FFF7E2FF284438BD2DE9F04F6F
:1054000014461D4691B054EA050381469DF868B0E4
:1054100004D13021FFF7C8FF01202EE04FF0000833
:105420005FFA8BF600272046294632463B4602F0BB
:105430002DFD08F101080DF1000AC2440AF8012C03
:10544000204629463B46324602F020FD04460D46E2
:1054500054EA0503E4D1002408F1FF381DF80810D0
:105460004846092994BF30313731C9B2FFF79CFF54
:105470000444B8F1000FEFD1204611B0BDE8F08F21
:105480002DE9F041069F064614461D462FB90368D4
:10549000D1B21B689847BDE8F081002C75F100037C
:1054A00005DA2D21FFF780FF644265EB4505FFB269
:1054B0000697304622462B46BDE8F041FFF79EBFD7
:1054C00007B5CB1700920A46FFF7DAFF03B05DF885
:1054D00004FB38B50446FFF7F3FF05462046FFF707
:1054E0006DFF284438BD70B5049921B90368D1B265
:1054F0001B68984770BDC9B20491BDE87040FFF7C2
:105500007DBF07B500230092CAB2FFF7ECFF03B0DE
:105510005DF804FB38B50446FFF7F3FF0546204667
:10552000FFF74CFF284438BD07B5002300920A4618
:10553000FFF7D9FF03B05DF804FB38B50446FFF769
:10554000F3FF05462046FFF739FF284438BD07B56D
:10555000002300920A46FFF7C6FF03B05DF804FB84
:105560002DE9F74F19460646144610461D460022FF
:10557000002302F0EFF89DF830704FF0010838B1C9
:105580002046294644A3D3E9002302F0D9F806E0D7
:105590002046294642A3D3E9002302F0C7F800B908
:1055A00080465FFA88F82046294600220023B8F199
:1055B000000F0DD002F0B0F818B130462D21FFF7E2
:1055C000F3FE804638493046FFF7F3FE404460E082
:1055D00002F0A2F838B130462D21FFF7E5FE05F1C3
:1055E000004380461D46314B4FF0000900225FFA10
:1055F00089F1B9420AD21046194600222C4B01F01B
:1056000043FF09F1010902460B46F0E7204629460F
:1056100001F05EFC04460D4602F04EFC82468B46CD
:1056200001F0DAFD02460B462046294601F04EFC09
:105630000A2300930446524630465B460D46FFF768
:105640001FFF804427B130461A49FFF7B2FE80445D
:10565000F7B1174B00222046294601F0EBFD0D461D
:10566000044602F081F881460A2249463046FFF797
:1056700027FF8044484601F077FD02460B4620464E
:10568000294601F023FC013F04460D46FFB2DFE747
:10569000404603B0BDE8F08F800350726C92DF4348
:1056A000800350726C92DFC358E900080000E03FAD
:1056B00000002440D6DC000837B59DF818100446D9
:1056C0000091FFF74DFF05462046FFF777FE28447F
:1056D00003B030BD10B50446006802F037FF204625
:1056E00010BD10B50446006808B102F02FFF00237A
:1056F0002360A360636010BD38B504460D460068A2
:10570000013103F011FB10B184E82100012038BD04
:10571000036810B5044613B143688B4207D2204694
:10572000FFF7EAFF20B1A3680BB9226813700120CC
:1057300010BD70B50E46114604461546FFF7E8FF4A
:1057400018B92046FFF7CDFF04E0A5602068314678
:1057500003F00AFD204670BD38B5002304460360FF
:10576000436083600D4639B1084603F05BFD29466E
:1057700002462046FFF7DDFF204638BD884210B5BF
:105780000B46044607D0096819B19A68FFF7D1FFA4
:1057900001E0FFF7A6FF204610BD10B50023044628
:1057A000036043608360FFF7E9FF204610BD38B512
:1057B00005460C4641B1084603F034FD2146024639
:1057C0002846FFF7B6FF01E0FFF78BFF284638BDFC
:1057D00010B500238AB00446036043608360084626
:1057E00001A900F08CF9204601A9FFF7E0FF20464F
:1057F0000AB010BD70B5044685680E4609B9002090
:1058000070BD62B115442946FFF782FF0028F6D02B
:105810002068A3683146184403F0A6FCA560012067
:1058200070BD1FB504460A220846694600F067F9B4
:10583000684603F0F7FC694602462046FFF7DAFFA8
:1058400004B010BD1FB504460A220846694600F0A0
:1058500081F9684603F0E6FC694602462046FFF7F8
:10586000C9FF04B010BD0B4610B509689A6804461C
:10587000FFF7C0FF10B92046FFF733FF204610BDE9
:1058800038B504460D4641B1084603F0CBFC294625
:1058900002462046FFF7AEFF10B92046FFF721FF72
:1058A000204638BD10B50446FFF7BBFF10B92046AF
:1058B000FFF717FF204610BD10B50446FFF7C2FFE3
:1058C00010B92046FFF70DFF204610BDFEF73CBD86
:1058D00008B5FCF7B3FDFCF72BFFFCE7222870B5F9
:1058E0003BD8082939D8DFE801F0051A080B0E115A
:1058F000081417000024032213E00024042210E0FF
:10590000002422460DE0002409220AE00024082297
:1059100007E001240B2204E001240F2201E000240F
:1059200007220E4B00011E18317B1858FEF796FE19
:10593000706890B1717B24B10122BDE87040FFF71F
:10594000C9B80368013903F140432033DB0003EB9E
:1059500081039B0003F184431C6070BD6CE500086B
:10596000054B03EB001000F10803806810B1997932
:10597000FEF7C2BD704700BF6CE5000822280ED8B4
:10598000084B00011A18127B012101FA02F21B5880
:105990001B689B681A420CBF002001207047002042
:1059A000704700BF6CE50008222810D8084B0001A2
:1059B0001A18127B1B58012000FA02F2D1F10101E2
:1059C00038BF0021090102FA01F11B681961704713
:1059D0006CE5000810B5044630B103F085F990FB82
:1059E000F4F303FB140010BD10BD884210B504464B
:1059F00004DA081AFFF7EEFF204410BD10BD0000C6
:105A00002DE9F04780460E46084600219246994609
:105A1000FFF7CAFF0024BAF1000F02D0C4F107015A
:105A200000E0214649FA01F1404601F00101FFF78B
:105A3000BBFF0B4A3301D718D35801211D683B7BAC
:105A4000EA6801FA03F35340EB603A7BEB6891405C
:105A500001345940082CE960DDD1BDE8F08700BF72
:105A60006CE50008054B70B51C6806461D4600F045
:105A70000EF82B681B1BB342F9D370BD94150020A0
:105A80000C235843431E18460138FDD87047704711
:105A9000F0B58BB059B3931E222B2AD80A2A2AD1EB
:105AA000002828DA4042012501AB1E4670B1B0FB48
:105AB000F2F702FB1704092C3846D8BF303403F143
:105AC0000107C8BF57341C703B46EFE7B342EED026
:105AD0001DB12D204A1C087000E00A46B34204D9CB
