:020000040800F2
:1000000000500020ED410008B1440008B54400084C
:10001000B9440008BD440008C14400081145000867
:100020001145000811450008114500081145000858
:100030001145000811450008114500088D490008C8
:10004000114500081145000811450008C940000885
:100050001145000811450008114500081145000828
:100060001145000811450008114500081145000818
:100070001145000811450008114500081145000808
:100080001145000811450008894500081145000880
:1000900011450008114500081145000811450008E8
:1000A000F94B00081D4C0008414C0008794C000831
:1000B000CD4C00083D4D0008AD4D0008114500082D
:1000C00011450008114500081145000811450008B8
:1000D00011450008194F00086D4F0008C14F000876
:1000E00011450008114100081145000810B5054CE4
:1000F000237833B9044B13B10448AFF300800123D4
:10010000237010BD78130020000000006CC30008AD
:1001100008B5064B1BB106480649AFF300800648F8
:10012000036813B1054B03B1984708BD00000000F8
:100130006CC300087C13002078130020000000002E
:10014000012902D11C30C0B27047062984BF01F1D9
:10015000FF31C9B211F0010F14BF1E201F207047DC
:10016000444B2DE9F047B1FBF3F603FB16113C239A
:10017000B1FBF3F203FB1212054602704FF461600B
:10018000B1FBF0F200FB1211B1FBF3F36B704FF413
:10019000FA63AA70B6B2EB80EC884FF4C873B4FB74
:1001A000F3F803FB18481FFA88F8B8F1000F16D0CF
:1001B0006423B4FBF3F203FB12439BB2002B53D036
:1001C00014F0030140F26D130CBF4FF4B7721A46DE
:1001D00096420EDB002908BF4FF4B77304E0B6F572
:1001E000B77F06DB4FF4B773F61A0134B6B2EC8072
:1001F000D2E700236B716423B4FBF3F703FB1747CB
:10020000BFB2B8F1000F06D03FB114F0030F14BF16
:100210000020012002E0012000E0384695F805901A
:10022000C0B24946FFF78CFF864209F1010A15D397
:10023000B8F1000F06D03FB114F0030F14BF002037
:10024000012002E0012000E03846C0B24946FFF735
:1002500077FF301A86B285F805A0D2E701362E71F5
:1002600085F805A0BDE8F087B6F5B67FC1DD40F2A0
:100270006D13B9E780510100F8B5427887783C23C7
:1002800003FB072702780579467903FB0727013D21
:10029000013EEDB2F6B2044605714671013E731C93
:1002A000E38834D04FF4C872B3FBF2F102FB113291
:1002B00092B262B16422B3FBF2F002FB103080B262
:1002C00030B113F0030F14BF0020012000E0012023
:1002D000C0B2F1B2FFF734FF284485B2DEE74FF435
:1002E000C872B3FBF2F102FB113292B2AAB16422DE
:1002F000B3FBF2F102FB113292B28AB113F0030F99
:1003000040F26D1208BF4FF4B7721544ADB2013B15
:100310009BB2B3F5FA6FE2D205E04FF4B772F4E79F
:1003200040F26D12F1E7024800FB0570F8BD00BF16
:100330008051010002F010BC38B50D46044602F0B1
:1003400026FC290A49006039204601F0FE0102F02E
:10035000B5FC204602F08BFCE9B2204602F0AEFC70
:10036000204602F084FC204602F011FC2046A12128
:1003700002F0A4FC204602F07AFC0021204602F0A4
:10038000C4FC0546204602F055FC204602F01AFC4B
:10039000284638BD70B50D461646044602F0F7FBF8
:1003A000290A49006039204601F0FE0102F086FC6E
:1003B000204602F05CFCE9B2204602F07FFC2046B9
:1003C00002F055FC3146204602F078FC204602F04F
:1003D0004EFC204602F0F6FBBDE870400A2005F016
:1003E00079BB0000D30770B548BF01320024520822
:1003F00002312346E5B2954225D211F8025CA5F1FF
:100400004106F6B2052E02D8104B9B5D05E0303D4B
:10041000EDB2092D03D80E4B5B5D1B01DBB211F869
:10042000015CA5F14106F6B2052E01D8074D04E0A6
:10043000303DEDB2092D02D8054E755D2B430355B5
:1004400002310134D6E7002070BD00BF32D700086A
:1004500028D700082DE9F04F824687B00846144699
:10046000994606F0CBFEC9EB0406CDE90001304603
:1004700006F0B2FE02460B4600204D4905F06EFC28
:1004800002460B46DDE9000107F092F930B94FF062
:10049000020896FBF8F80546013E07E050460021A9
:1004A000224607B0BDE8F04F08F008BC454536DAF3
:1004B000304606F091FE02460B4600203C4905F00E
:1004C0004DFCCDE90201701E06F086FE02460B4689
:1004D0000020374905F042FCDDE90223CDE90401A3
:1004E000DDE9000107F008F807F076F9DDE90423FB
:1004F0000A2790FBF7FB0BFB17004FEA001BDDE917
:10050000000106F0F9FF07F067F990FBF7F303FB32
:10051000170083440AF805B0023E0135C6E709EB2F
:1005200048094FF0020BC4EB090994FBFBFB09F1EE
:100530000109D84538DA484606F04EFE02460B4619
:1005400000201B4905F00AFC064609F101000F4690
:1005500006F042FE02460B460020154905F0FEFB60
:1005600032463B4604460D46DDE9000106F09AFEA0
:1005700007F032F90A2690FBF6F707FB16002B4628
:1005800007012246DDE9000106F08CFE07F024F9A0
:1005900090FBF6F303FB160007440AF8087009F114
:1005A000020908F10108C4E707B0BDE8F08F00BFF9
:1005B00000002440124A517893784AF2130243EA29
:1005C0000123934213D008D84AF21102934213D068
:1005D0004AF21202934211D00DE04AF21402934201
:1005E00007D04AF22202934205D10420704702202C
:1005F0007047032070477047002070470120704704
:100600009413002010B5074C6018114602F0BBF996
:10061000054B1B781C4414F8073C1B1A58425841E0
:1006200010BD00BF9413002015140020044B18794E
:100630005B7943EA0020431E58425841704700BF8F
:1006400094130020044B9B79552B044B0CBF0122C3
:1006500000221A70704700BF941300201714002066
:1006600010B5084CE379552B01D1012010BD064887
:1006700001F007FAE3798342F7D0D0F1010038BFE7
:10068000002010BD941300201B14002013B50D4B47
:100690001C7A552C01D1012012E00B48694601F06B
:1006A00093F900231A461DF803108C42F3D019B9B0
:1006B0000132D2B2052AEED00133052BF3D100204E
:1006C00002B010BD941300201B14002070B5054625
:1006D0001E46FFF797FF044698B12846FFF7A6FF8E
:1006E000044658B12846FFF7ADFF2846FFF7B8FF8C
:1006F000044648B946B10C480C4911E00A480C4977
:100700000EE009480B490BE02846FFF7BFFF0446FF
:1007100040B99DF810300BB9012403E002480649A6
:1007200004F09AFE204670BDB41400208AD7000859
:1007300038D7000866D70008C1D700081A4B13B590
:100740001B787BB300230093042117220123FFF7BA
:10075000BDFFF0B1154C164804F10C0101F0F4F99D
:10076000A17AE37A134843EA012101F09BF910B121
:10077000114B01221A70237A552B03D10F4802F036
:100780005DFF06E0012B04D00C480721012203F095
:100790000FF90B4B05481A78002102B0BDE8104054
:1007A00008F08CBA02B010BD08000020941300209D
:1007B000291400201A14002014140020AE14002064
:1007C00015140020174B07B51B7843B30023009383
:1007D00004210A220123FFF779FFB8B11248134917
:1007E00001F0B7F830B11249124804F035FE124852
:1007F000032108E011490F4804F02EFE104B0A2295
:100800000D481A700421012203F0D2F80D4B0E4856
:100810001A78002103B05DF804EB08F04FBA03B07A
:100820005DF804FB080000201B1400209C1300202E
:10083000F9D70008B4140020AE14002029D800080D
:10084000AF140020151400209413002013B50023CA
:10085000009304210F22FFF739FF10B31D4C1E48EF
:1008600004F10A0100F0CBFD002830D01A4804F151
:100870000A0100F0FFFD50B31849194804F0ECFDDF
:100880001848E17901F0D0F8A0B11749144804F0F4
:10089000E3FD16480521012203F08AF80E4800F016
:1008A000BBFE134B0B481A78002102B0BDE8104084
:1008B00008F004BA0A480F4904F0CEFD0E4B0A2294
:1008C0001A700A480621012203F072F8E9E7044889
:1008D0000A49F1E7941300201E140020BCD8000838
:1008E000B41400201B14002059D80008AE140020B6
:1008F000151400208BD80008AF140020E9D8000898
:100900000D4B07B51B789BB10023009304210522F2
:100910000123FFF7DBFE10B1084802F0B7FF084BD8
:1009200008481A78002103B05DF804EB08F0C6B956
:1009300003B05DF804FB00BF08000020AE140020E7
:10094000151400209413002010B50446FFF732FE62
:10095000032817D8DFE800F00207110C2046BDE895
:100960001040FFF7EBBE2046BDE81040FFF72ABF5E
:100970002046BDE81040FFF7C3BF2046BDE8104049
:10098000FFF764BF10BD00002DE9F047404C002781
:1009900082462770002635463E4804F01DFC00289C
:1009A00033DD94F800903B4809F10103237004F013
:1009B000BFFBDFF8F48008F80900052005F08AF88D
:1009C00023781022434413F8011C334804F0D1FD6E
:1009D0003148324904F025FD94F90030002B43469C
:1009E00002DA2B4A00211170F6B922781A4412F863
:1009F000012C0D2A01D117E00126052DCCD1264866
:100A0000274904F029FD0127C4E757B125492248A9
:100A100004F022FD5046FFF797FF00232370BDE846
:100A2000F0872770BDE8F087042DE5D8DFE805F0F2
:100A3000030C151E27002278134413F8015CB5F14E
:100A40000A035D425D4121E02278134413F8013C22
:100A50000D2B0CBF0225002518E02278134413F853
:100A6000013C0A2B0CBF032500250FE0227813441C
:100A700013F8013C0D2B0CBF0425002506E022785D
:100A8000134413F8013C0A2BB9D00025012683E753
:100A900015140020CC140020B414002016E4000823
:100AA00016D900083AD900089413002008B501208F
:100AB000002104F04BFF0120014604F0ADFF0020AF
:100AC000014604F043FF0420002104F03FFF05200D
:100AD000002104F03BFF0420002104F09DFF0520CD
:100AE000012104F099FFBDE808400020014604F010
:100AF00093BF0000014804F0CDBB00BFCC14002020
:100B000008B561B10021052004F086FF962004F0AD
:100B1000E1FFBDE808400520012104F07DBF08BDCC
:100B200008B50021012004F077FF0C4804F0B5FB64
:100B30000220002104F00AFF0320002104F006FF38
:100B40000220002104F068FF0320002104F064FF6C
:100B5000BDE808400520002104F05EBFCC14002051
:100B600010B50B78452B12D14B78522B0FD18B78C7
:100B7000CC78303B03EB8303303C04EB4304E4B21A
:100B800021460A22034804F0FDFC204610BD0A203D
:100B900010BD00BFB41400200B784F2B07D148784C
:100BA0004B2804D113704B780120537070470020FC
:100BB000704730B50020C4B20D5D01302C2D01D03E
:100BC0001D55F8E7601C5525C0B21D55904204D252
:100BD0000C5C1C540130C0B2F8E730BDF8B54C785D
:100BE000432C08D18C78532C05D1CC78B4F1510525
:100BF0006C426C4100E000240026F5B24F5D0136E6
:100C00003A2FFAD10135EDB200279542FEB207F135
:100C1000010706D811F805C0013501F806C0EDB28C
:100C2000F3E73CB92046C2B2B2420BD20A5C1A5476
:100C30000130F8E7069A022412681470721ED2B2CC
:100C4000FFF7B7FF0120F8BD37B5154809B91549B9
:100C500000E0154904F0E5FB642004F03BFF0024AC
:100C60000F4804F0B9FA0028E5B208DD062C14D0CC
:100C70000B4804F05DFA0DF804000134F0E755B1BB
:100C80009DF802304F2B08D19DF80300B0F14B03C3
:100C90005842584102E0284600E0002003B030BD31
:100CA000CC14002065D9000869D9000810B50446A5
:100CB0000120014604F0B0FE07484FF4165104F03D
:100CC000E9FA20460121FFF71BFF20460121BDE87C
:100CD0001040FFF7B9BF00BFCC1400202DE9F04150
:100CE0009EB005AD0C46074600219046284664227A
:100CF000039307F0E3FF21462C4804F092FB6420A5
:100D000004F0E8FE0024294804F066FA0028E6B260
:100D100007DD642C45D0254804F00AFA2855013433
:100D2000F1E726B92249234804F096FB39E09DF803
:100D300014300D2B35D19DF815300A2B31D11EAB57
:100D4000334413F8653C0A2B2BD1023E1EAB3344CF
:100D500013F8643C0D2B24D10021CCB2A31CDBB2D0
:100D6000B34201F1010107DA1EAA134413F8643CEF
:100D7000144404F8643CF0E738462946FFF7F0FED7
:100D80000A280CD103AB0093384629462246434635
:100D9000FFF724FF00280CBF0320022002E00120FF
:100DA00000E003201EB0BDE8F08100BFCC1400209D
:100DB0006FD90008B41400202DE9F041B2B0064606
:100DC0000D4690460021642268461F4607F076FFD4
:100DD00019A80021642207F071FF0024E3B2E85C47
:100DE000013420B132AA134403F8640CF6E701463B
:100DF000CAB25D1818F80240EDB232AA01312A4495
:100E000014B102F8644CF3E70D2302F8643C6B1C48
:100E100032A8DBB203442F480A2203F8642C03688B
:100E200019A95B6898472C48AA1C036819A99B68F4
:100E3000D2B29847642004F04DFE274804F0CCF964
:100E40000028E5B208DD642C3FD0234804F070F997
:100E50000DF804000134F0E7002D36D09DF8003085
:100E60000D2B32D19DF801300A2B2ED132AB2B4401
:100E700013F8C93C0A2B28D1023D32AB2B4413F89E
:100E8000C83C0D2B21D100218B1CDBB2AB4201F100
:100E9000010209DA32A8034413F8C83CC9B201447C
:100EA00001F8C83C1146EFE730466946FFF758FEA7
:100EB0000A2808D1304669463A46FFF76DFE80F0B1
:100EC0000100C0B202E0012000E0032032B0BDE822
:100ED000F08100BFB4140020CC140020F7B51E46EA
:100EE000044617460D4600218DF80710FFF7ACFEAB
:100EF00003F01EFC204631462FB12A460DF10703B0
:100F0000FFF7ECFE03E0089A2B46FFF755FF032896
:100F10002AD8DFE800F011040207002311E0164888
:100F2000164901E01448164904F096FA20460121BA
:100F3000FFF78AFE00201CE012490F4804F08CFAEB
:100F400012E09DF807205E1CDBB29A420A4809D9DC
:100F5000E95C102204F00DFB07480B4904F061FA2C
:100F60003346EEE704F062FA20460121FFF76CFEFB
:100F7000012003B0F0BD00BFB414002083D90008E5
:100F800094D900089DD9000816E400082DE9F04323
:100F90008BB004AF804600210922384602AE0024FF
:100FA00007F08CFE00944046314601222C4BFFF79F
:100FB00095FF054610B92B482B494BE02346F25CC0
:100FC00007AC092A01D8303204E0A2F10A01052950
:100FD00098BF3732E2540133082BF0D14FF00009AB
:100FE00022488DF8249000F07DFC0246C0B12049D3
:100FF0001C4804F031FA1D48394600F0D9FB50B1C5
:101000004B46E15CFA5C914217D10133082BF8D1D1
:10101000144818491EE01849124804F01DFA07E068
:10102000009440463146154BFFF758FF054698B1EE
:1010300021460E4800F014FC0AE01149094804F06A
:101040000BFA00974046314600220C4BFFF746FF53
:10105000054601E004F000FA28460BB0BDE8F08335
:10106000A9D90008B4140020B4D90008191400202C
:10107000D4D900085CDA0008F2D9000816DA0008B2
:101080001FDA00082DE9F04F89B002AF07F10C0616
:101090008346894690461C46304600210A2207F0C6
:1010A0000DFE002C48D1C7F804D05846CDF800807A
:1010B000314601224B46FFF711FF824608B1214617
:1010C00002E03C483C496BE0CCB218F804300131F6
:1010D000002BF9D1E11D01F4FC71ADEB010D02A96A
:1010E000D8B2A04203D2F05CC8540133F8E70B46F3
:1010F000581AC0B2A0420DD213F8010B092801D82A
:10110000303004E0A0F10A05052DF1D8373003F89E
:10111000010CEDE70025EBB2A3423FD24B5D013558
:1011200008EB050010F8010C9842F4D0214823493F
:1011300004F092F97B689D466C460023DAB219F8F8
:10114000021001330A29F9D1931D03F4FC73ADEBAE
:10115000030DA2F1020E02AB0020C1B2551EA9423E
:1011600000F1010003DA19F801505D54F5E700229F
:101170003D215A55584603F80E10CDF800803146EF
:10118000FFF7ACFE054628B90A480D4904F064F99A
:10119000AA4601E04FF0010AA54605E005480949C5
:1011A00004F05AF97B689D4650461C37BD46BDE8A1
:1011B000F08F00BFB414002086DA0008ACDA000813
:1011C00003DB000825DB00087FB50F2204460D462F
:1011D0006846002107F072FD5C485D4904F03CF967
:1011E0000A2603F0A5FA2046002D65D1FFF7CEFEB2
:1011F00058498DF80000584A2B462046FFF742FF19
:1012000056498DF80100564A01232046FFF73AFF60
:1012100054498DF80200544A2B462046FFF732FF0E
:1012200052498DF80300524A2B462046FFF72AFF09
:1012300050498DF80400504A01232046FFF722FF51
:101240004E498DF805004E4A2B462046FFF71AFFFF
:101250004C498DF806004A4A2B462046FFF712FFFC
:1012600049498DF80700444A01232046FFF70AFF49
:1012700046498DF80800464A2B462046FFF702FFF4
:1012800044498DF80900444A2B462046FFF7FAFEF0
:1012900042498DF80A00324A01232046FFF7F2FE48
:1012A0003F4A8DF80B003F4920460123FFF7EAFE35
:1012B0000D228DF80C0007E02F4A2E490123FFF77D
:1012C000E1FE01228DF8000000231DF80310A9B9EA
:1012D00035491E4804F0C0F82046FFF7E7FC2046D9
:1012E000FFF71EFC03F024FA2046FFF7DFFC4FF463
:1012F000FA6004F0EFFB03F01BFA05E00133D9B20A
:101300009142E2D304B070BD284803F065FF002885
:1013100003DD264803F00CFFF6E7013E16F0FF065A
:101320007FF45FAF1E223146214801F099FB21492D
:10133000064804F091F840F6B83004F0CBFB03F017
:10134000F7F904B0BDE8704003F026BAB4140020E9
:101350003BDB00085ADB000866DB00086FDB000897
:101360006CDB000879DB000885DB00088EDB0008F9
:101370009ADB0008A3DB0008ADDB0008B0DB000847
:10138000BADB0008BDDB0008C7DB0008D1DB0008C2
:10139000DADB0008DDDB0008E7DB0008EADB000839
:1013A000FFDB0008F4DB000802DC0008CC1400209E
:1013B000641400201FDC000810B50021044615202D
:1013C00004F0C4FA1520012104F026FB2046BDE8F4
:1013D0001040FEF7AFBF08B5052004F07BFBBDE869
:1013E00008401520012104F017BB08B51520002185
:1013F00004F012FBBDE80840052004F06BBB7FB58C
:1014000004460E46FFF7F1FF0D25731929462046C5
:1014100013F80D2C0135FEF7BDFF162DF5D1304622
:10142000092101F0B0FA0646294620463246FEF769
:10143000B1FF0D2529462046FEF77EFF01AB2B4468
:101440000135162D03F80D0CF4D101A8092101F086
:101450009AFAB042204603D0FFF7BDFF002007E014
:101460000B215522FEF796FF2046FFF7B4FF01201F
:1014700004B070BD7FB504460E46FFF7B6FF1725D2
:1014800073192946204613F8172C0135FEF782FF01
:10149000202DF5D13046092101F075FA064629467E
:1014A00020463246FEF776FF172529462046FEF7EE
:1014B00043FF01AB2B440135202D03F8170CF4D169
:1014C00001A8092101F05FFAB042204603D0FFF7DE
:1014D00082FF002007E00C215522FEF75BFF20462B
:1014E000FFF779FF012004B070BDF0B585B001AD04
:1014F00006460F4628460021092207F0DFFB0D248F
:1015000021463046FEF718FF2B190134162C03F83C
:101510000D0CF5D121463046FEF70EFF0921044699
:10152000284601F030FA844206D10023EA5CFA54DE
:101530000133092BFAD101E0002000E0012005B0C1
:10154000F0BDF0B585B001AD06460F462846002136
:10155000092207F0B3FB172421463046FEF7ECFEC4
:101560002B190134202C03F8170CF5D121463046F5
:10157000FEF7E2FE09210446284601F004FA8442FF
:1015800006D10023EA5CFA540133092BFAD101E0B9
:10159000002000E0012005B0F0BD37B50C461E214B
:1015A0000546FEF7C9FE1F218DF804002846FEF708
:1015B000C3FE02218DF8050001A801F0E4F92070B6
:1015C00003B030BD10B50446FFF70FFF00222046E0
:1015D0000B21FEF7DFFE2046FFF7FDFE20460B2124
:1015E000FEF7AAFED0F1010038BF002010BD10B5F3
:1015F0000446FFF7FAFE002220460C21FEF7CAFE41
:101600002046FFF7E8FE20460C21FEF795FED0F1BC
:10161000010038BF002010BD10B50446FFF7E5FEFD
:10162000552220462121FEF7B5FE2046FFF7D3FEC6
:1016300020462121FEF780FEB0F155035842584163
:1016400010BD38B50446102004F0D0F908B10020D0
:1016500038BD41F2883004F03DFA102004F0C6F99C
:1016600005460028F3D12046FFF7BFFE2A46204654
:101670002121FEF78FFE2046FFF7ADFE20462121F7
:10168000FEF75AFED0F1010038BF002038BD08B582
:101690002121FEF751FEB0F155035842584108BDD3
:1016A00070B504460D46FFF720FF20B120462946BD
:1016B000FFF747FF48BB20462946FFF716FF48B112
:1016C0001549164803F0C8FE20462946BDE870407B
:1016D000FFF7D0BE20462946FFF733FF06460F48E6
:1016E00046B10F4903F0B8FE20462946BDE87040D8
:1016F000FFF785BE0B4903F0AFFE2046FFF762FF00
:101700002046FFF774FF304670BD0749034803F0D9
:10171000A3FE012070BD00BF4BDC0008B414002004
:1017200082DC0008B9DC0008CDDC000810B53521EA
:101730000446FEF701FE552813D02046FFF755FE5C
:10174000552220463521FEF725FE2046FFF743FEB1
:1017500020463521FEF7F0FDB0F1550358425841BF
:1017600010BD012010BD08B53521FEF7E5FDB0F133
:1017700055035842584108BD10B535210446FEF7BF
:10178000DBFD98B12046FFF730FE002220463521D0
:10179000FEF700FE2046FFF71EFE20463521FEF72D
:1017A000CBFDD0F1010038BF002010BD012010BDDD
:1017B000F7B505460E464F2421462846FEF7BCFDE8
:1017C00000AB23440134572C03F84F0CF4D108210B
:1017D000684601F0D8F8214607462846FEF7ACFDDA
:1017E00087420CD100231DF80320F2540133082B4B
:1017F000F9D10448044903F02FFE012000E0002045
:1018000003B0F0BDB414002033DD000810B558213A
:101810000446FEF791FD55280CD02046FFF7E5FD64
:10182000204658215522FEF7B5FD2046BDE8104060
:10183000FFF7D1BD10BD10B558210446FEF77CFD61
:1018400060B12046FFF7D1FD204658210022FEF767
:10185000A1FD2046BDE81040FFF7BDBD10BD000052
:10186000F7B50F460446FFF7C0FD3846082101F0E2
:101870008AF84F2506467B192946204613F84F2C37
:101880000135FEF787FD572DF5D129462046324612
:10189000FEF780FD4F2529462046FEF74DFD00ABA3
:1018A0002B440135572D03F84F0CF4D1684608211D
:1018B00001F069F8864207D02046FFF7BCFF2046BA
:1018C000FFF789FD002007E00449054803F0C4FD47
:1018D0002046FFF79BFF012003B0F0BD48DD000864
:1018E000B414002008B55821FEF726FDB0F15503C9
:1018F0005842584108BD70B504460E461546FFF7DC
:1019000074FD204632462221FEF744FD20462A4639
:101910002321FEF73FFD2046BDE87040FFF75BBD89
:10192000FEF70ABDFEF708BD70B504460E46154623
:10193000FFF75BFD204632462421FEF72BFD2046B3
:101940002A462521FEF726FD2046BDE87040FFF718
:1019500042BDF8B504460E46FFF747FD262573192C
:101960002946204613F8262C0135FEF713FD2B2DB2
:10197000F5D10521304601F006F8074629462046F4
:101980003A46FEF707FD262520462946FEF7D4FCF9
:10199000731913F8263C834214D101352B2DF3D152
:1019A00020462946FEF7C8FCB842204608D12C2123
:1019B0005522FEF7EFFC2046FFF70DFD0120F8BD94
:1019C000FFF709FD0020F8BD70B506460D46262438
:1019D00021463046FEF7B0FC2B1901342B2C03F8BE
:1019E000260CF5D170BD38B50446FFF7FEFC262560
:1019F000002220462946FEF7CDFC20462946FEF768
:101A00009BFC024620B12046FFF7E5FC002038BDD4
:101A100001352B2DECD120462C21FEF7BBFC2046B6
:101A2000FFF7D9FC012038BD37B502AD04468DF86B
:101A30000710FFF7DAFC15F8012D20462D21FEF7DF
:101A4000A9FC0121284600F09EFF2E2102462046D7
:101A5000FEF7A0FC20462D21FEF76EFC9DF8073016
:101A60008342204608D12F215522FEF793FC2046C1
:101A7000FFF7B1FC012002E0FFF7ADFC002003B04E
:101A800030BD2D21FEF758BC10B50446FFF7ADFC64
:101A900020462D210022FEF77DFC2046FFF79BFC0F
:101AA00010BD00004A1F4AF6BB039A4270B50446B7
:101AB0000D4628D83221FEF73FFC3321064620464A
:101AC000FEF73AFC40EA0620A84204D10F4910482C
:101AD00003F0C2FC15E02046FFF787FC20463221C8
:101AE000C5F30722FEF756FC20463321EAB2FEF783
:101AF00051FC204634215522FEF74CFC2046FFF7CE
:101B00006AFC012070BD002070BD00BF5DDD0008D3
:101B1000B414002038B532210546FEF70DFC332100
:101B200004462846FEF708FC40EA042038BD08B504
:101B30003421FEF701FCB0F155035842584108BD6D
:101B4000032002F0A1BA000070B55E480D46097886
:101B500001F02FFD697806465A4801F02AFD06EB90
:101B60008606594C06EB860600EB8600E080A978D5
:101B7000544801F01EFD6071E978524801F019FDEA
:101B8000207129794F4801F014FD6979A0704D4802
:101B900001F00FFDA97960704A4801F00AFD4B4938
:101BA00020704B4803F03DFCE1880A22484803F0CE
:101BB000C8FC4849464803F034FC61790A2244488D
:101BC00003F0E0FC4449424803F02BFC21790A224F
:101BD0003F4803F0D7FC41493D4803F022FCA1787F
:101BE0000A223B4803F0CEFC3D49394803F019FC7A
:101BF00061780A22364803F0C5FC3A49344803F0BC
:101C000010FC0A222178324803F0BCFC02F030FDBF
:101C1000642003F05FFF2046FEF72EFB01463248AA
:101C200002F050F9642003F055FF02F027FD2E4822
:101C300002F04BF901462046FEF792FAE188642350
:101C4000B1FBF3F1C9B21F4801F0AAFC2870E28889
:101C50004FF47A73B2FBF3F103FB11211948C9B2B7
:101C600001F09EFC68706179164801F099FCA8703B
:101C70002179144801F094FCA178E870114801F032
:101C80008FFC617828710F4801F08AFC2178687117
:101C90000C4801F085FC0024A871295D10220C4835
:101CA00003F067FC01340A48104903F0BAFB072C23
:101CB000F3D1074803F0BAFBBDE8704004480C4973
:101CC00003F0CABBAD140020201400207CDD000806
:101CD000B414002083DD00088BDD000891DD0008CE
:101CE00098DD0008A2DD00082A14002016E4000890
:101CF000ACDD000870B51C480D4602F0E6F81B4C40
:101D000001462046FEF72CFAE188194E6423B1FB08
:101D1000F3F1C9B2304601F043FC2870E2884FF479
:101D20007A73B2FBF3F103FB11213046C9B201F023
:101D300037FC68706179304601F032FCA870217977
:101D4000304601F02DFCA178E870304601F028FC07
:101D500061782871304601F023FC217868713046A3
:101D600001F01EFCA87170BD2A1400202014002070
:101D7000AD14002070B54C4886B0FEF77DFA0446DD
:101D800002F076FC0A2003F0A5FE2146474802F047
:101D900099F8464802F099F805464548FFF7C7FE0E
:101DA000444E002859D04248FFF7B4FE4AF6B1032A
:101DB000A0F10F029A42044619D93F49684603F040
:101DC00003FD694603A803F020FDB42103A803F036
:101DD000ABFD3A4903F08CFD0146394803F032FB74
:101DE00003A803F0AFFC684603F0ACFCB4243378DE
:101DF000012B0BD1B4F5966F03D9254468463149C0
:101E000015E005F5966503A82F4938E0022B0BD1A4
:101E1000B4F5166F03D9254468462C4907E005F54B
:101E2000166503A82A492AE02A492544684603F092
:101E3000CBFC694603A803F0E8FC214603A803F0A5
:101E400073FD1E4903F054FD01461D4803F0FAFAE4
:101E500003A803F077FC684618E03378012B04D11F
:101E600005F5966503A81C4909E0022B04D105F588
:101E7000166503A8194902E01949B43503A803F00F
:101E8000A3FC0F4803A903F0DDFA03A803F05AFCF2
:101E900014492A46054802F01AF80A2003F01AFEEF
:101EA00002F0ECFB06B070BD201400202A140020C4
:101EB0001A14002028140020CFDD0008D5DE000809
:101EC000B414002043DE00088CDE0008D7DE0008D2
:101ED00029DF00087DDF0008C9DF00083EE00008B8
:101EE000BCE00008411B000830B5154885B0FEF77E
:101EF000C3F9144C054602F0BBFB0A2003F0EAFDCF
:101F00002946204601F0DEFF204601F0DEFF0E49A3
:101F1000054601A803F058FC01A90C4803F092FA09
:101F200001A803F00FFC0A4905F56162204601F0A3
:101F3000CEFF0A2003F0CEFD02F0A0FB05B030BDBD
:101F4000201400202A14002033E10008B4140020DB
:101F5000411B00080148112101F0ABBF2A140020E9
:101F60002DE9F84300240F469046994625464C45F6
:101F700013DA5FFA88F60121304603F04DFD0A209E
:101F800003F0A8FDF8B203F031FD002100EB450598
:101F9000304603F041FD0134E9E72846BDE8F88307
:101FA00070B5D4B21D46EDB20E462046002103F0B6
:101FB000CDFC2846002103F0C9FC2046012103F096
:101FC0002BFD2846012103F027FD2046002103F0C8
:101FD00023FD2846002103F01FFD2846012103F0C0
:101FE0001BFD2046012103F017FD2846002103F0C8
:101FF00013FDF3B201222046294603F039FD28469D
:10200000012103F009FD2046022103F09FFC204638
:1020100003F0ECFC2846002103F0FEFC2046BDE85E
:10202000704003F0E3BC38B5CDB22846022103F07E
:102030008DFC64240A2003F04DFD284603F0D6FCF5
:1020400008B1013CF6D138BD2DE9F843CCB21546B4
:1020500080460E46EFB22046022103F077FC384658
:10206000002103F073FC2A46082331464046FFF75F
:1020700077FF00214FEA0029204603F067FC204645
:10208000012103F0C9FC2046002103F0C5FC3846BD
:10209000012103F0C1FC3846002103F0BDFC2046BD
:1020A000022103F053FC404631462A460823FFF73D
:1020B00057FF49EA0000BDE8F88338B51446CDB2B1
:1020C000E4B22846002103F041FC2046002103F041
:1020D0003DFC2846012103F09FFC2046012103F02E
:1020E0009BFC20460021BDE8384003F095BC38B584
:1020F00090E80C0004460321FFF752FF20462168B8
:10210000FFF791FF94E806002046FFF79DFF94E853
:10211000060005462046FFF7D0FF284605F0AEFC36
:1021200038BD000008B5FFF7E2FF05F0C1FE05F07D
:10213000A5FC034905F0F6FC024905F0E9FB08BDE2
:102140000AD7233C00002042F8B590E80C00044672
:102150000521FFF725FF20462168FFF764FF94E87B
:1021600006002046FFF770FF94E80600054620466B
:10217000FFF7A3FF284605F081FC1E49064605F03F
:10218000D1FC4FF0814105F0C3FB1B4905463046A9
:1021900005F0C8FC314605F0C5FC0146284605F0AF
:1021A000B9FB07462046FFF7BDFF05F027F80022E0
:1021B000124B04F0C3FE04460D463046104905F0AC
:1021C000B1FC104905F0A6FB05F018F802460B46D5
:1021D0002046294605F066F8044638460D4605F0C7
:1021E0000DF802460B462046294604F0A9FE05F0EC
:1021F0003BFBF8BD54E3253DA2E73BB60000394068
:10220000ACC5A7380AD7233C024B1D211C2283E80A
:10221000060070472C14002007B53248FFF737FA44
:1022200078BB314B314918702E48FFF7E8F828B1D8
:102230002C482E49FFF71EF9002848D12C48FFF7FB
:1022400023FC20B12A48FFF7CEFB002844D101230C
:102250008DF800302648002369468DF801308DF84E
:1022600002308DF803308DF80430FFF772FB18B19F
:102270002048214903F0F0F820480021052200F011
:10228000EFFB1C481E4903F0E7F81648FFF7FFF97B
:10229000B8B9102003F0AAFB78B941F2883003F0F6
:1022A00019FC102003F0A2FB38B9164801F0C6F95A
:1022B000102003F09BFB0028FAD01348FEF764FBC4
:1022C000E3E7094B01221A7003B05DF804FB0F49E4
:1022D000084803F0C1F8B1E70D49064803F0BCF81F
:1022E000B5E700BF1E1400200800002038140020AD
:1022F0001B140020B414002087E10008641400209F
:10230000A4E10008AE14002016140020B7E1000874
:10231000CBE10008F8B5114E03253468104B1A784C
:102320001F46CAB90F4801F0C9FB326804F51C53B7
:1023300010339A4201D23B7853B1013D15F0FF05AD
:102340003468EBD1BDE8F8400748084903F084B889
:102350000748FEF719FBE8E7F8BD00BF9415002019
:1023600014140020AE140020B4140020FAE1000878
:102370001614002008B5142003F038FB30BB64208D
:1023800003F0A8FB142003F031FBF8B94FF4FA6016
:1023900003F0A0FB0E490F4803F05EF84FF4FA601B
:1023A00003F098FB142003F021FB78B9642003F0BC
:1023B00091FB142003F01AFB40B90748FFF7DCF942
:1023C000BDE808400348054903F046B808BD00BF12
:1023D00019E20008B4140020191400202DE20008AE
:1023E00010B5104C1049204603F036F80F4920462E
:1023F00003F032F8204602F0D3FE0D4800F05AFBFD
:102400000120002103F008FB0121132003F004FB4D
:10241000012002F0CFF9012002F0E6F9BDE81040FA
:1024200002F0CEB9B414002071E2000883E2000883
:1024300064140020A64B30B51A688DB022F0E0621B
:1024400042F000721A60A34800F0E4FAA2484FF488
:10245000165102F01FFFA1484FF41651FEF74AFB38
:102460004FF416519E4802F015FF02F0F4F89B4815
:10247000FEF71CFB0820002103F068FA0021082069
:1024800003F0CAFA9748FEF797FF01219348FEF739
:10249000DBFB4FF47A7003F01DFB9348FEF774FAF0
:1024A0000021132003F0B8FA0A2003F013FB8F4930
:1024B000894802F0D1FF8E482221FFF733FA022823
:1024C000044606D18A482321FFF72CFA1128054635
:1024D0001CD0112286480221FFF70DFA8549684673
:1024E00003F072F9694606A803F08FF91022022161
:1024F00003A803F0A5F903A906A803F0ECF97E49A7
:1025000003F0F6F91121044609A816E07B49684654
:1025100003F05AF9694606A803F077F9214610221C
:1025200003A803F08DF903A906A803F0D4F97249B2
:1025300003F0DEF92946044609A8102203F080F9C9
:10254000204609A903F0C7F90146634802F07AFF63
:1025500009A803F0F7F803A803F0F4F806A803F0BD
:10256000F1F8684603F0EEF861482421FFF7D8F946
:102570000728044617D15E482521FFF7D1F9102816
:10258000054610D15E4906A803F01EF906A909A860
:1025900003F03BF9214609A803F0BCF9564903F0C2
:1025A000A7F9294614E0102251480721FFF7BCF98A
:1025B000544906A803F008F906A909A803F025F96B
:1025C000072109A803F0A6F94B4903F091F910215E
:1025D00003F0A0F90146404802F034FF09A803F0D7
:1025E000B1F806A803F0AEF8FFF7C4FE4648FFF7BF
:1025F000BAF8014680B93948FEF7E6FD37480121AF
:10260000FEF77EFA01213548FEF71EFB3648FEF73D
:10261000BBF93D48FFF78AF83C48FFF712F8FFF78F
:10262000FBFD3B493948FFF73BF80146B0B90A22A8
:10263000284800F015FA3749274802F00DFF3648C0
:1026400001F0B8F84FF47A7003F044FA2648FEF728
:102650009BF940F6B83003F03DFAE2E72F491E48F7
:1026600002F0FAFE1B4801210A2200F0F9F919488C
:1026700000F036FA40F6B834A0420CD8642003F0DB
:1026800029FA144800F02CFAA04204D82448FFF795
:102690002BFCFFF7A5FEFFF73DFE0E4800F020FAE9
:1026A00040F6736398421F4C01D9002309E00123CF
:1026B0000848237000F014FA40F6E443984201D829
:1026C000022323701648FFF755FB0DB030BD00BF45
:1026D0000400014064140020B414002018140020E9
:1026E000E41400201D1400201614002035EA000810
:1026F0001C140020E2E2000846DD00082DE300087B
:1027000043E3000859E30008191400201E140020B8
:102710003814002096E20008AE140020C9E2000838
:102720002914002028140020FFF75ABE0A4B1A680B
:102730000A4B9B6800BF00BF074909688A42F5D170
:10274000C3F58C33482103F5A073B3FBF1F34FF4C9
:102750007A7000FB023070479415002010E000E012
:1027600010B5044680E80600D0B2002103F0EEF870
:102770002078002103F0EAF800232079E3600121AA
:1027800003F04AF920780121BDE8104003F044B974
:1027900038B5C36804460D4623B10021C1600078F6
:1027A00003F0D4F820782946BDE8384003F034B966
:1027B00010B500210446FFF7EBFF642003F098F901
:1027C0002079002103F028F9BDE81040642003F0CF
:1027D0008FB910B500210446007903F01DF964207B
:1027E00003F086F920460021FFF7D2FF642003F0B2
:1027F0007FF92079012103F00FF9642003F078F9C3
:1028000020460121FFF7C4FFBDE81040642003F01B
:102810006FB9F8B504460E460825F709207900215E
:1028200003F0FAF820463946FFF7B2FF012120797C
:1028300003F0F2F8642003F05BF920463946FFF715
:10284000A7FF7600013DF6B2E7D12946207903F0D3
:10285000E3F82078022103F079F80223E36020797D
:10286000012103F0D9F8FFF761FF0546207803F056
:10287000BDF830B1FFF75AFF401B6428F6D900209D
:10288000F8BD0120F8BD38B50D460446FFF790FFAE
:102890006900204601F0FE01FFF7BBFF38BD08B517
:1028A000FFF797FF002008BD08B5FFF7B2FF08BD8E
:1028B00070B50D466D0004461646FFF779FF691C9A
:1028C000A6602046C9B2FFF7A4FF70BD70B5866848
:1028D0000446002E55D00078022103F037F8022379
:1028E000E360082500262079002103F095F80121F6
:1028F000207903F091F8642003F0FAF8207803F0CF
:1029000075F8013D00EB460000F0FF06EBD1A3682F
:102910006068013B002BA360C0B2294617DD03F0BD
:102920007BF8642003F0E4F829462046FFF730FFE7
:10293000642003F0DDF82079012103F06DF86420B4
:1029400003F0D6F82079294603F066F819E003F081
:1029500063F8642003F0CCF801212046FFF718FF4C
:10296000642003F0C5F80121207903F055F86420B4
:1029700003F0BEF82079294603F04EF82046FFF711
:1029800028FF304670BD002330B5054618468B42FF
:102990000FDAEA5C5040082210F0010F4FEA6004A1
:1029A0001ABF84F0E000C0B2E0B2013AF4D10133C2
:1029B000EDE730BD08B5134B13491A6809680132B9
:1029C0008A421A601DD3114900221A600B78DB433A
:1029D000DBB20B700E49097841B1012911D11820E1
:1029E00003B1114603F018F8192005E0192003B9C6
:1029F000012103F011F818200021BDE8084003F080
:102A00000BB808BD58140020601400205414002096
:102A10005C14002008B51320002102F097FF182055
:102A2000002102F093FF1920002102F08FFF1020F7
:102A3000022102F08BFF1420022102F087FF032104
:102A4000072002F083FF0A2003F044F81820002139
:102A500002F0E2FFBDE808401920002102F0DCBFCF
:102A60000F4B10B50F4C19700F4B20461A60012107
:102A7000022202F077FC20460C4902F054FC0121AE
:102A800020460A4602F072FC20460121084A02F064
:102A90007CFC20460021BDE8104002F03BBC00BF9A
:102AA0005C1400205415002060140020A086010052
:102AB000B529000808B5064802F016FC18200021C8
:102AC00002F0AAFFBDE808401920002102F0A4BFCF
:102AD00054150020014802F00FBC00BF541500201F
:102AE00030B58BB001AD28460021242206F0E6F86F
:102AF0000024072002F06CFF04F06EFB12A3D3E960
:102B0000002304F0CFFB0022114B04F0CBFB04F0B8
:102B10008BFE28514FF47A70043402F0E9FF242C24
:102B2000E7D109226B4608AC53F8040F5968884274
:102B300084BF58601960A342F6D1013A12F0FF0237
:102B4000F0D105980BB030BDF163CC5D4BC8E93FC7
:102B500000001840AFF3008008B51620002102F0F5
:102B6000F5FE1720002102F0F1FE1620012102F0EF
:102B700053FFBDE808401720012102F04DBF172088
:102B8000002102F0E3BE1720042102F0DFBE08B5E9
:102B9000FFF7F5FF1720012102F03EFF012116206B
:102BA00002F03AFF052002F0A3FF0021172002F0F7
:102BB00033FF062002F09CFFBDE8084016200021EC
:102BC00002F02ABF08B5FFF7DAFF1620002102F055
:102BD00023FF1720002102F01FFF0121162002F021
:102BE0001BFF062002F084FF1720012102F014FFD2
:102BF000BDE80840062002F07BBF10B50021044666
:102C0000162002F009FF2046FFF7B9FF0021172028
:102C100002F002FF022002F06BFF0121162002F0F9
:102C2000FBFE052002F064FFBDE8104016200021E5
:102C300002F0F2BE10B500210446162002F0ECFEB0
:102C40002046FFF79CFF0121172002F0E5FE02203D
:102C500002F04EFF0121162002F0DEFE052002F0F8
:102C600047FFBDE810401620002102F0D5BE70B528
:102C70000646FFF788FF0121172002F0CDFE012054
:102C800002F036FF1620012102F0C6FE012002F0FC
:102C90002FFFFB25172002F0A9FE044640B1013D9D
:102CA00015F0FF05F6D13046FFF78CFF012070BD0F
:102CB0001620214602F0B0FE204670BD38B50C4605
:102CC000FFF75DFF1620002102F0A6FE082524F084
:102CD0007F0303F0FF01172003B1012102F09CFEE6
:102CE0000121162002F098FE022002F001FF1620BA
:102CF000002102F091FE013D0220640002F0F8FE86
:102D000015F0FF05E4B2E2D138BDF8B505460F462F
:102D1000FFF739FF082600240021162002F07CFE70
:102D2000022002F0E5FE1620012102F075FE64008B
:102D30001720E4B202F05AFE08B10134E4B20120D7
:102D4000013E02F0D5FE16F0FF06E5D1284617B980
:102D5000FFF770FF01E0FFF750FF2046F8BD704716
:102D6000012070470120704710B5FF2301441A4627
:102D7000884208D010F8014B5440044A125D5A4072
:102D8000034B1B5DF4E743EA022010BD090000205D
:102D90000B01002070B5094D094C064622782978B0
:102DA0000848FFF7DDFC2878012102F035FE207885
:102DB000012102F031FE304670BD00BF0901002044
:102DC0000A0100209C14002010B5064C2046FFF795
:102DD0005AFD2046FFF763FDD0F1010038BF002007
:102DE00010BD00BF9C14002010B54A2104460548C0
:102DF000FFF7EAFF28B1236820461B6801219847A6
:102E0000012010BDAC14002070B5094C15462046B9
:102E10001E46FFF738FD29462046FFF745FD2046B0
:102E20003146FFF741FD2046BDE87040FFF737BD52
:102E30009C140020F8B5134814461E460F469DF812
:102E40001850FFF720FD21460E48FFF72DFD0D48D5
:102E5000FFF725FD0B4CA5B12A4620463946FFF762
:102E600027FD0022237A551C33B10648D7B2FFF75D
:102E70002DFD2A46F055F5E70248BDE8F840FFF77A
:102E80000EBDF8BD9C140020F0B51C4685B0012392
:102E900000930DF10F03154607460E46FFF7CAFFD4
:102EA0009DF80F309DF8282023EA040314402343A3
:102EB000384631462A468DF80F30FFF7A5FF05B09A
:102EC000F0BD000013B5002471B1012213460B4878
:102ED0004A210094FFF7D8FF4A21009407480222B4
:102EE0004023FFF7D1FF8021009104484A210222AC
:102EF0008023FFF7C9FF02B010BD00BFAC14002053
:102F000008B51E220F481F21FFF72AFC38210D4863
:102F1000FFF7B9FC06210B48FFF7C6FC0948FFF78D
:102F2000BEFC4FF4FA7002F0D5FD0748FFF75CFFD6
:102F300010B10648064901E004480649BDE80840CA
:102F400002F08ABA4414002068140020B41400204F
:102F5000E0E30008F9E30008F0B5334C85B00D4616
:102F60001646FFF7CDFF392101222046FFF7A0FCCE
:102F7000012002F0AFFD277A1FB12046FFF7A6FC23
:102F80000746382101222848FFF792FC012002F071
:102F9000A1FD207A10B12448FFF798FC40EA0720F1
:102FA00004F00AF91EA3D3E9002304F07BF904F02E
:102FB0003BFC1E4930601E4802F033FA31680A2299
:102FC0001B4802F0F2FA022300931A4803AB4A218D
:102FD0000322FFF72FFF9DF80D209DF80C3002F023
:102FE0000F0242EA03122D21D2B24A431B0902FA10
:102FF00003F34FF47A72B3FBF2F32B600E490C48E3
:1030000002F00FFA29680A22094802F0D8FA0B499F
:10301000074802F021FA05B0F0BD00BFAFF3008011
:103020000AD7A3703D0A773F4414002012E4000839
:10303000B4140020AC14002018E400082FE40008A9
:1030400008B50348FFF7A6FE024A034B1A6008BD05
:10305000AC140020B0E30008681400202DE9F04310
:103060001E46504B87B018688846596801AC03ADBE
:1030700003C4174600210A22284605F01FFE9DF8CA
:10308000383006AC04F8143D20460621FFF76CFEEC
:10309000030A8DF80B0044488DF80A300368214676
:1030A0009B68082298474FF4967002F013FD0024A5
:1030B0003D4802F091F800285FFA84F90EDD092CF2
:1030C00006D13A483A4902F0C7F94FF0000905E045
:1030D000354802F02DF828550134E9E733483549E1
:1030E00002F0BAF9B9F1000F0DD133492F4802F0BF
:1030F000B3F92E482F4902F0AFF99DF80C309DF836
:10310000144073B123E000244C45EED2295D102217
:10311000264802F02EFA2548284902F082F90134A7
:10312000F2E70DF10D000721FFF71EFE9DF81530A7
:1031300043EA042484422CD19DF811309DF81000FC
:103140009DF8124043EA00209DF8133013E0284612
:103150000721FFF709FE9DF8133044EA0324844257
:1031600017D19DF810309DF80F009DF8114043EAEB
:1031700000209DF8123043EA042404F07BFC10493F
:1031800004F084FDC8F800003C60E40B34700120BA
:1031900004E006480B4902F05FF9002007B0BDE8E3
:1031A000F08300BFC8E30008E4140020B41400203A
:1031B00034E4000855E4000835EA000816E4000885
:1031C0000000C84271E40008F0B50F4642498DB0D6
:1031D0000868496801AB03AD03C30CAC1646002177
:1031E0000922284605F06AFD04F82C6D20460621C8
:1031F000FFF7BAFD030A8DF80B0038488DF80A3046
:10320000036821469B68082298474FF4967002F0A5
:1032100061FC0024314801F0DFFF0028E6B20DDD3B
:10322000082C05D12E482F4902F016F9002605E09A
:103230002A4801F07DFF28550134EBE728482A4948
:1032400002F00AF9002E32D12849254802F004F98B
:103250002549234802F000F928460521FFF784FD9F
:103260009DF811209DF8123043EA022383422CD1AD
:103270009DF810309DF80F401D4906A843EA04242C
:1032800002F0A2FA06A909A802F0BFFA214609A88D
:1032900002F04AFB0146124802F0D4F809A802F0F5
:1032A00051FA06A802F04EFA3C60012012E0002418
:1032B000B442C9D2295D1022094802F05AF90848DF
:1032C0000C4902F0AEF80134F2E705480A4902F071
:1032D000C3F800200DB0F0BDD0E30008E4140020D6
:1032E000B4140020ADE40008CEE4000835EA00087C
:1032F000EAE4000816E40008F5E400082DE9F041CE
:1033000017463C4A86B010688846516801AC03AD48
:103310001E4603C40A2206AC0021284605F0CEFC56
:1033200004F8146D20460621FFF71EFD030A8DF8F0
:103330000B0031488DF80A30036821469B6808224B
:1033400098474FF4967002F0C5FB00242A4801F01C
:1033500043FF0028E6B20DDD092C05D12748284996
:1033600002F07AF8002605E0234801F0E1FE285536
:103370000134EBE72148234902F06EF826BB2249CD
:103380001E4802F069F81F491C4802F065F82846FB
:103390000721FFF7E9FC9DF813209DF8143043EA5C
:1033A000022383421ED19DF80F209DF810309DF816
:1033B000111043EA02239DF81220012042EA012263
:1033C000C8F800203B6012E00024295D10220B4861
:1033D00002F0CFF8013409480C4902F022F8092C18
:1033E000F3D1CCE705480A4902F036F8002006B0D0
:1033F000BDE8F081D8E30008E4140020B4140020F4
:1034000015E5000839E5000835EA000816E400086B
:1034100058E5000837B50121082002F0FDFA4FF405
:103420007A7002F057FB4E48FEF77CFE4D4C0425A7
:103430002060642002F04EFB4948FEF785FEA06044
:10344000642002F047FB4849012300934748A1F15B
:1034500008020B1FFFF702FE08B9013DF3D16420FB
:1034600002F038FB0425424940480A1D0123FFF7BA
:1034700045FF08B9013DF6D1642002F02BFB04257D
:103480003A483C490222FFF79FFE08B9013DF7D1B7
:10349000642002F01FFB3849344801F11802FFF79D
:1034A0005BFD642002F016FB3449354801F0B9FF9A
:1034B000206803F0A3FE022502460B460095304823
:1034C00002F032F92F492E4801F0ABFFA06803F05B
:1034D00095FE009502460B46294802F025F92A4937
:1034E000274801F09EFF23696421B3FBF1F10A2212
:1034F000234802F05AF82549214801F092FFA06ABA
:1035000004F0B8FA224904F0C1FB03F077FE0095FD
:1035100002460B461A4802F007F91E49184801F006
:1035200080FFA06903F06AFE00950B46024614482E
:1035300002F0FAF81849124801F073FFE1690A2213
:103540000F4802F032F815490D4801F06AFF0C48A7
:10355000216A0A2203B0BDE8304002F026B800BF5D
:103560002C14002070140020881400206C140020FB
:103570008C140020981400207C1400208EE5000894
:10358000B4140020ADE5000888E500089CE50008BB
:103590000000C842A7E50008B8E50008C5E5000836
:1035A0000A22B1FBF2F302FB131202EB0310C0B2CA
:1035B000704701F00F03090901EB810103EB4100A2
:1035C000C0B2704737B50C460C480DF10701FDF746
:1035D000E4FF9DF807304FF47A705843084902F031
:1035E0003CFA9DF80730054664205843054902F02F
:1035F00034FA2844206003B030BD00BF1E14002000
:1036000080841E00400D030070B50E461546002450
:10361000E3B2AB42074809D2315D102201F0A9FFA5
:103620000448054901F0FDFE0134F1E7BDE87040B2
:1036300001F0FCBEB414002016E4000830B595B0CB
:1036400040220546002104A805F038FB002414A9F7
:1036500041F8504D28466946FFF7B4FF009802F044
:1036600047FAFE238DF81030E0238DF81130112336
:103670008DF8123024238DF8133001238DF8153086
:10368000444B8DF814401B7803B1552342488DF804
:103690001630FEF7F6F901AC8DF8170021463E48CA
:1036A000FEF792F9002304AA1A44E15C0133052BCA
:1036B0001172F8D139482146FDF717FF002304AAFB
:1036C0001A44E15C0133092B5173F8D10024012322
:1036D000222133488DF826308DF827408DF8284078
:1036E0008DF829408DF82A408DF82B408DF82C401C
:1036F0008DF82D408DF82E408DF82F40FEF712F9F1
:1037000023218DF830002648FEF70CF924218DF88E
:1037100031002348FEF706F925218DF832002048B4
:10372000FEF700F924218DF8330005A88DF8344008
:103730008DF835408DF836408DF83740FFF723F986
:103740008DF83800E30704AB234404F1010454BFAF
:103750000D220A22062C83F82920F3D111491248A0
:1037600001F07AFE04A928462F22FFF74DFF0F48EB
:10377000FFF7A0F90E4804A903682F229B68984719
:103780004FF4FA7002F0A6F90848FFF7A3F915B054
:1037900030BD00BF171400201B1400201E14002091
:1037A0001C140020D2E50008B4140020641400208A
:1037B000CC14002030B587B014220446002101A8A3
:1037C00005F07CFA002506A941F8185D20466946F7
:1037D000FFF7F8FE009802F08BF9FE238DF8043015
:1037E000E0238DF8053013238DF8063005238DF87E
:1037F000073001238DF809301E4B8DF808501B78D7
:1038000003B155231C488DF80A30FEF73AF901231D
:103810008DF80B00052102A88DF80C30FFF7B3F8E6
:1038200000238DF80D00DA0701AA1A4403F1010301
:1038300054BF0D210A21062B9172F4D10F49104873
:1038400001F00AFE01A920461022FFF7DDFE0D4817
:10385000FFF730F90C4801A9036810229B689847CC
:103860004FF4FA7002F036F90648FFF733F907B063
:1038700030BD00BF171400201B140020EEE5000827
:10388000B414002064140020CC14002030B58DB096
:103890001E220546002104A805F010FA00240CA9F8
:1038A00041F8244D2846ADF80840FFF78BFE0398F9
:1038B00002F01EF9344B0094344802A90122FDF7AE
:1038C0000DFBFE238DF81030E0238DF8113014230A
:1038D0008DF8123012238DF8133001238DF8153036
:1038E0002B4B8DF814401B7803B1552329488DF8D4
:1038F0001630FEF7C6F801238DF81830264B002449
:103900001B788DF817009DF8081024488DF81930A1
:103910008DF81A408DF81B40FFF74BFE9DF80910FB
:103920008DF81C001D48FFF744FE12218DF81D0084
:1039300005A8FFF728F823468DF81E00DA0704AA29
:103940001A4403F1010354BF0D210A21062BD17340
:10395000F4D11349134801F07FFD04A9284615222C
:10396000FFF752FE1048FFF7A5F8104804A90368B6
:1039700015229B6898474FF4FA7002F0ABF80A489A
:10398000FFF7A8F80DB030BD14E6000818140020A9
:10399000171400201B140020AF140020AD140020C9
:1039A0001EE60008B414002064140020CC1400208B
:1039B000F0B589B005460F4616460021192201A828
:1039C00005F07CF9002408A941F8204D28466946F5
:1039D000FFF7F8FD009802F08BF8FE238DF8043015
:1039E000E0238DF8053015238DF806300E238DF871
:1039F000073001238DF809302A4B8DF808401B78D9
:103A000003B1552328488DF80A30FEF73AF8002410
:103A10008DF80B00012302A80E218DF80C308DF8D3
:103A20000D708DF80E408DF80F408DF810408DF818
:103A300011408DF812408DF813408DF814408DF828
:103A40001540FEF7A0FF8DF81600E30701AB2344F5
:103A500004F1010454BF0D220A22062CDA74F4D1B9
:103A60001249134801F0F8FC284601A91922FFF772
:103A7000CBFD1048FFF71EF80024E3B2B3420BD28F
:103A80000D4801A9036819229B6898474FF4FA7002
:103A900002F020F80134F0E70648FFF71BF809B000
:103AA000F0BD00BF171400201B14002038E60008EA
:103AB000B414002064140020CC140020F0B50024BD
:103AC000ABB021460646142205A8019405F0F6F88D
:103AD000802221460AA805F0F1F82AA941F8A04D54
:103AE0003046FFF76FFD029802F002F8AB48FFF78F
:103AF00091FCFE238DF82830D0238DF82930012544
:103B00003023A7488DF82B308DF82C408DF82A50A3
:103B10008DF82D50FEF7E4FFA24C030A27688DF8BC
:103B20002F00A14938468DF82E3004F0B7F928B19E
:103B3000FF238DF830308DF831301AE038460021FF
:103B400004F08EF918B107F10047276000E0054640
:103B5000022301A821680422FCF77CFC9DF80430B4
:103B60008DF830309DF805308DF831300DB1F223ED
:103B700000E0E223A5688DF8323028460023019347
:103B800004F096F90138632803D9FF238DF8333008
:103B90000BE0022301A829460422FCF75BFC9DF8F8
:103BA00004308DF833309DF805308DF83430002125
:103BB000E223142205A88DF83530019105F07EF836
:103BC000E2687A4B9A4207D9FF238DF836308DF898
:103BD00037308DF8383019E0754905A805F0D6FA68
:103BE00005A805F057FB05A9024601A8FCF7FAFB5A
:103BF0009DF804308DF836309DF805308DF837305B
:103C00009DF806308DF838309DF807308DF8393042
:103C1000E0238DF83A30A36A0A200025B3FBF0F0C8
:103C2000019503F027FF042201462B4601A8FCF76B
:103C300011FCA36A4FF6FE72934207D9FF238DF859
:103C40003B308DF83C308DF83D3009E09DF8043074
:103C50008DF83B508DF83D309DF805308DF83C5087
:103C6000606A8DF83E300025E12364288DF83F30EE
:103C7000019503D9FF238DF840300DE003F0FAFEE3
:103C80002B460146042201A8FCF7E4FB9DF8043012
:103C90008DF840309DF80530E02220698DF84220F3
:103CA0008DF845208DF848204FF6FE728DF8413092
:103CB00090424FF0FF038DF843308DF844308DF87B
:103CC00046308DF8473002D98DF8493016E0354B33
:103CD0001B7D012B08BFC0F5803003F0CBFE3549BA
:103CE00003F0D4FF02230146042201A8FCF7B2FB33
:103CF0009DF804308DF849309DF805308DF84A3034
:103D0000237DA569012B0CBFF223E2238DF84B30F4
:103D100028460023019304F0CBF8642803DDFF2339
:103D20008DF84C300BE0022301A829460422FCF751
:103D300091FB9DF804308DF84C309DF805308DF8DE
:103D40004D30206AE2238DF84E304FF6FE73002589
:103D50009842019503D9FF238DF84F300DE003F011
:103D600089FE2B460146042201A8FCF773FB9DF84F
:103D700004308DF84F309DF805308DF85030E069F3
:103D8000E0238DF851304FF6FE73002598420195DF
:103D900012D9FF238DF852301CE000BF6C140020B4
:103DA000641400207014002000001643400D03002E
:103DB00050E600080000C84203F05CFE2B460146B6
:103DC000042201A8FCF746FB9DF804308DF8523020
:103DD0009DF8053003AC8DF853301F48E023214691
:103DE0008DF85430FDF786FF00230AAA1A44E15CDF
:103DF0000133072B82F82D10F7D10BA83021FEF7E5
:103E0000C2FD00238DF85C00DA070AAA1A4403F108
:103E1000010354BF0D210A21062B82F83510F3D17E
:103E20000E490F4801F018FB0AA930463B22FFF764
:103E3000EBFB0C48FEF73EFE0B480AA903683B2249
:103E40009B6898474FF4FA7001F044FE0548FEF76E
:103E500041FE2BB0F0BD00BF2914002056E600083B
:103E6000B414002064140020CC140020122938B5AA
:103E70000546144608460BD0132910D0112916D137
:103E800000F07CF80CB120460FE047F6FF700CE024
:103E900000F074F8002CF6D149F63F4005E000F040
:103EA0006DF8002CEFD14FF2234000F06BF928465B
:103EB00038BD13B50022044601A8FFF7D7FF2046FE
:103EC00002B010BD084600F043B900F02FB910B59C
:103ED00010460C4600F070F921460320BDE8104062
:103EE00000F0A2B8054B1B681B685B0103F184431B
:103EF00094331A68002AFCD0704700BF0C020020DF
:103F0000054B1B681B685B0103F184438C331A6803
:103F1000002AFCD0704700BF0C02002008B5FFF754
:103F2000E1FF054B00221B681B685B0103F1844322
:103F3000C3F88C2008BD00BF0C02002008B5FFF7B5
:103F4000D1FF054B01221B681B685B0103F1844311
:103F5000C3F8902008BD00BF0C02002008B5FFF791
:103F6000C1FF054B00221B681B685B0103F1844302
:103F7000C3F8902008BD00BF0C02002010B5044615
:103F800000F069FB00F074FB204A112C136A23F443
:103F90004073136213460BD005D8C4B1102C2AD13C
:103FA0000023136227E0122C11D0132C1AD022E028
:103FB000174A00211160012142F8081C154A1268B5
:103FC00012F0FF0FFAD01A6A42F4807212E0124A1D
:103FD00001211160114A1268002AFBD01A6A42F4CA
:103FE000007207E00E4A126812F0FF0FFAD01A6A48
:103FF00042F440721A620B4B01221A60FFF78EFFE7
:10400000FFF77EFFBDE81040FFF76CBF00100240D5
:104010000804424204044242800442428404424270
:10402000440042423C04424238B5144D04462B68D9
:1040300003EB80035960FFF755FF032C09D1104AA9
:1040400001231360C2F800310E4B4FF400725A6026
:1040500038BD2B6801221B68944204EBC3034FEA6E
:10406000830303F184431A6003D002D3022C00D0EF
:1040700038BD044B08221A6038BD00BF0C02002076
:104080004480204200E100E010B50446FFF72AFF1B
:10409000032C0B4B05D10B4900220A60C1F800210B
:1040A00008E01A680021126804EBC202920002F1D3
:1040B000844211601B6803EB84040023636010BD1D
:1040C0000C02002044802042F8B5104B1E68356871
:1040D0002B686F681F4017F0010403D074680CB19F
:1040E000A0470124BA0704D5B36813B1984744F038
:1040F00002047B0704D5F36813B1984744F0040425
:104100006B6823EA04046C60F8BD00BF0C02002059
:1041100008B5044B1B681B691BB19847024B012271
:104120001A6008BD0C020020C482204208B5FFF7C7
:10413000F5FEFFF7E5FEFFF7D5FE044B1B681B6895
:104140009869DB699BB243EA004008BD0C0200207D
:1041500010B50446FFF7E2FEFFF7D2FEFFF7C2FEFE
:10416000FFF7ECFE064B220C1B68A4B21B689A6199
:10417000DC61FFF7F3FEBDE81040FFF7B3BE00BF00
:104180000C02002010B50446FFF7C8FEFFF7B8FE8A
:10419000FFF7A8FEFFF7D2FE064B220C1B68A4B265
:1041A0001B689A60DC60FFF7D9FEBDE81040FFF79E
:1041B00099BE00BF0C02002010B50446FFF7AEFE0A
:1041C000FFF79EFEFFF78EFEFFF7B8FE064B220CB0
:1041D0001B68A4B21B681A625C62FFF7BFFEBDE8F1
:1041E0001040FFF77FBE00BF0C02002001498D4642
:1041F0000149084700500020FD41000808B5124B56
:10420000124A1968914201D0002301E0104B07E0E7
:104210001048D4188442F9D2C858D0500433F7E774
:104220000D4A934203D2002243F8042BF8E704F02E
:1042300095F900200146024601F082FB074B0BB1C5
:1042400004F07CF9FEE700BF3CEC00080000002011
:104250007813002078130020A01500203D85000869
:1042600008B50D4B1A680AB90C4A1A601B680C4A4B
:10427000D21A824204DB09494242591A914206DAB3
:1042800004F056F90C2303604FF0FF3008BD024ADA
:1042900018441060184608BDB0140020A015002076
:1042A00028270128FEE770470B4B10B51968092233
:1042B0000A230A4800F0A4FF094B022219680948A2
:1042C000032300F09DFFBDE81040074B0748196825
:1042D0001A221B2300F094BF30030020B4140020E6
:1042E00034030020CC14002038030020E414002004
:1042F00010B5044600F094F9034B20461978BDE848
:10430000104000F019B900BF28020020F8B504469B
:10431000056800F07BFB22680023510101F1844114
:104320000B60802129600121A9622B61EB60637918
:10433000696113B18B4203D02BE04FF400436B64EF
:104340004FF6FF73D36200256E1CF7B22046394644
:1043500000F066FBD0B1236848F6FF7103F1340228
:1043600042F8251018336D1017F0010F53F825206F
:1043700014BF6FF0FF016FF47F4101EA020214BF26
:1043800068214FF4D0410A4343F82520042E3546D6
:10439000DAD1216801224B01490103F1844301F183
:1043A0008441C3F880220A60F8BD000038B5274B6D
:1043B000274C1A68022042F010021A6000F064F9DB
:1043C0000025002000F02EFA65602368182023F4F1
:1043D0000023236000F033FA102000F030FA00F0E0
:1043E00043F8A560102000F01DFA102000F044FAF8
:1043F0000028FAD000F039F8164800F049FA1820E1
:1044000000F010FA182000F037FA0028FAD0022045
:1044100000F0F8F900214FF0006000F0A5F90E4817
:1044200000F0ACFA00F038F80C4B188800F0E6F811
:104430000B4800F0E7F80B4800F0D4FA00F02EF833
:1044400000F02DF8FFF72FFF38BD00BF002002401D
:10445000001002402C0200203F1901002A02002017
:10446000F14200080D430008704708B500200146DE
:1044700000F05CFA01204FF4806100F057FA00214F
:10448000022000F053FA2D2000F060FABDE8084049
:104490000320002100F04ABA00F000B9704700F094
:1044A0003DB9000000000000000000000000000016
:1044B000012007E0022005E0032003E0042001E0E2
:1044C0000520FFE70D4A0121116072B60C4A002158
:1044D0001160074902B4084902B486B005498E4606
:1044E000704700BFAFF30080AFF30080AFF30080F0
:1044F00000000061F9FFFFFFB950000814ED00E073
:1045000010E000E0AFF30080AFF30080AFF3008075
:10451000FEE710B50446007900F0D6F92079BDE831
:10452000104000F0E9B903689A6822F4602242F46E
:104530008012114399607047002370B51A461C46DB
:10454000072B4FEA430503DCEE1801FA06F6344365
:104550001D4401FA05F501330A2B42EA0502EFD1A9
:104560000368DC601A6170BD0368DA6A22F0F872D1
:10457000DA6259639A6842F480029A601A68920774
:10458000FCD5D86C80B2704738B5124D2A681368D4
:104590001C68A10706D5196821F00201196093680B
:1045A00003B19847620708D52B681A681B69116820
:1045B00021F00401116003B19847E30708D52B6887
:1045C0001A68DB68116821F00101116003B1984796
:1045D00038BD00BF58020020036801225B0103F1CF
:1045E000844303F58673191F1A6018680028FCD1EC
:1045F00043F8042C0B68002BFCD1704701460420C3
:1046000000F094B9044B10B504461868A047034B5A
:104610001868A04710BD00BF5802002054020020B7
:1046200010B50446FFF775FF20464FF46021FFF7F1
:104630007AFF2368012103F1404308335A015B01EB
:1046400002F1844203F18443116520461960BDE8FC
:104650001040FFF7C1BF08B5142000F035F9042061
:1046600000F032F9BDE80840042000F045B9000030
:10467000014B01221A60704720000E42014B0022BC
:104680001A60704720000E42034B1A6822F007029E
:1046900010431860704700BF0020024008B507486B
:1046A00001F092FA064801F08FFA064801F08CFA00
:1046B000BDE80840044801F087BA00BF5C02002052
:1046C000640200206C0200207402002070B501F02A
:1046D0000704A4000F25A5400368C80853F820600C
:1046E000092A26EA050514BF1646082606FA04F428
:1046F000082A44EA050443F8204006D1012000FAC4
:1047000001F1DA6822EA010106E0092A05D1012057
:1047100000FA01F1DA681143D96070BD08B50320D1
:1047200000F0D2F8BDE80840032000F0E5B8000032
:10473000024B4AF6AA221A60704700BF00300040C0
:1047400000284FEA011105DA064B00F00F00C9B24C
:104750001954704700F16040C9B200F5614080F81B
:104760000013704714ED00E021F0604138B521F0EE
:104770007F01084B0843986000241D4660B20F215A
:104780000134FFF7DDFF2B2CF8D1F02385F823301F
:1047900038BD00BF00ED00E0044A054BD16801F4CC
:1047A00040710B43D360BFF34F8FFEE700ED00E095
:1047B0000400FA05014B1860704700BFA0000E42CC
:1047C000074B1A6842F001021A601A6842F00202AE
:1047D0001A60044B1A6942F004021A6130BF704734
:1047E0000070004000ED00E0024B1A6842EA8000D1
:1047F0001860704700700040014B13F810007047BC
:1048000018E90008064B5A6822F0030202435A6076
:1048100080005A6802F00C028242FAD1704700BF51
:1048200000100240030A0121C0B201FA00F003F1B6
:10483000804303F504331A68104318607047030A75
:104840000121C0B201FA00F003F1804303F5043303
:104850001A6822EA000018607047030A0122C0B2F9
:1048600002FA00F003F1804303F504331B68184299
:104870000CBF002001207047030A0222C0B202FAD6
:1048800000F003F1804303F504331B6818407047C0
:1048900038B54368044618201D68FFF7DEFF20B1D5
:1048A00006488121064A00F011FC064B21685A682F
:1048B0000D4322F4741215435D6038BDA8E800086A
:1048C000FCE800080010024010B50446FFF794FF12
:1048D000074B53F82020074B03EB4404637803EBAA
:1048E000C2039B0003F1844301221A6010BD00BF84
:1048F0007C02002018E9000810B50446FFF77CFF91
:10490000084B53F82020084B03EB4404637803EB77
:10491000C2039B0003F1844301221A6000221A6043
:1049200010BD00BF8802002018E9000810B5054B33
:10493000054C5A6854F8200022EA000211435960DD
:1049400010BD00BF0010024074E9000810B5044615
:10495000FFF752FF074B53F82020074B03EB4404AB
:10496000637803EBC2039B0003F1844300221A60C7
:1049700010BD00BF9002002018E90008024B07227A
:1049800058601A60704700BF10E000E008B5044BA3
:104990001A6801321A60034B1B6803B1984708BDBF
:1049A00094150020FC14002011F0010F70B542EAAC
:1049B00003030CBF0825002503FA05F5006801F183
:1049C000FF3400F11800C4F3400450F8241014BF61
:1049D0006FF0FF066FF47F463140294340F8241002
:1049E00070BD000010B504460448A0470448A04725
:1049F0000448A0470448A04710BD00BFE4020020BF
:104A00000C0300209C020020C002002010B50446C8
:104A10000079FFF759FF2079BDE81040FFF76CBF20
:104A200003791E2B10D9212B0ED0202B0ED9222B2F
:104A300001D0252B04D102298CBF00200120704712
:104A40004B1E584258417047012070470020704764
:104A50008B1C40F823200368012203F140430C33F0
:104A600001EBC3039B0003F184431A60427903798D
:104A7000FAB9B3F11A025342534107294BD8DFE880
:104A800001F004090909090E0E13002B0CBF2C2399
:104A9000192337E0002B0CBF2E231B2332E0002B01
:104AA0000CBF2D231A232DE0002B0CBF2B23182322
:104AB00028E01B3B0C2B1CD8DFE803F0212307095F
:104AC0000B0D1B0F1113151719001E231AE03223AB
:104AD00018E0362316E0372314E0182312E01923D8
:104AE00010E01A230EE02B230CE02C230AE02D23E8
:104AF00008E0094840F2BF11084A00F0E7BA1C2359
:104B000000E01D235909012203F01F0302FA03F3F9
:104B1000034A42F82130704788E900086DDB00083D
:104B200000E100E00368002203F140430C3301EB95
:104B3000C3039B0003F1844302311A6040F8212033
:104B400070470000F8B54E1EF3B2032B04460D4625
:104B5000174604D92648DA21264A00F0B7FA6379C5
:104B6000022B43D0032F41D8DFE807F00212223591
:104B700020462946FFF7D6FF236803F14043203340
:104B8000DB0003EB8606B60006F18446002320E036
:104B90002368002203F140430C3305EBC3039B0061
:104BA00003F184431A60204629466022082303E06B
:104BB0002046294610220023FFF7F6FE236803F162
:104BC00040432033DB0003EB8606B60006F1844643
:104BD00001233360F8BD23684FF2F1229A6103226A
:104BE0009A605B0103F1844301221A60F8BD00BFA3
:104BF00088E90008DBE9000810B5074B1C68E1688C
:104C000022690A40120606D55B6A23B198472369D8
:104C100023F08003236110BDE402002010B5074B90
:104C20001C68E16822690A40D20706D59B6823B157
:104C30009847236923F00103236110BDE40200209B
:104C4000F8B50C4F3D68EB682E691E4016F0400425
:104C500003D03C6A0CB1A0474024B30604D5FB69DD
:104C600013B1984744F020042B6923EA04042C6113
:104C7000F8BD00BFE4020020F8B5134F3E68F368AA
:104C800035691D4015F0100403D0BC690CB1A04774
:104C90001024290704D57B6913B1984744F0080410
:104CA0006A0704D53B6913B1984744F00404AB0785
:104CB00004D5FB6813B1984744F00204336923EA32
:104CC00004043461F8BD00BFE4020020F8B51A4EB8
:104CD0003768FB683D691D4015F0400403D0346A15
:104CE0000CB1A0474024EB0604D5B36913B1984733
:104CF00044F01004280704D5736913B1984744F0B1
:104D00000804690704D5336913B1984744F00404D3
:104D1000AA0704D5F36813B1984744F00204EB07DF
:104D200004D5B36813B1984744F001043B6923EA02
:104D300004043C61F8BD00BF0C030020F8B51A4E16
:104D40003768FB683D691D4015F0400403D0346AA4
:104D50000CB1A0474024EB0604D5B36913B19847C2
:104D600044F01004280704D5736913B1984744F040
:104D70000804690704D5336913B1984744F0040463
:104D8000AA0704D5F36813B1984744F00204EB076F
:104D900004D5B36813B1984744F001043B6923EA92
:104DA00004043C61F8BD00BF9C020020F8B51A4E17
:104DB0003768FB683D691D4015F0400403D0346A34
:104DC0000CB1A0474024EB0604D5B36913B1984752
:104DD00044F01004280704D5736913B1984744F0D0
:104DE0000804690704D5336913B1984744F00404F3
:104DF000AA0704D5F36813B1984744F00204EB07FF
:104E000004D5B36813B1984744F001043B6923EA21
:104E100004043C61F8BD00BFC00200208188026824
:104E2000034689B2505C99881A8989B292B291423C
:104E300017BF9A880022013292B2C0B29A8070479E
:104E4000C28838B5838892B29BB201329A42044636
:104E50000D461AD0C288038992B29BB29A4202D1FF
:104E600083889BB28BB14FF0FF30E288236892B207
:104E70009D54E288238992B29BB29A4217BFE3887D
:104E8000002301339BB2E38038BD2046FFF7C6FF05
:104E9000EBE770B51E460546084611460422059C00
:104EA000FFF714FC9DF810100B223046FFF70EFCA4
:104EB0002B6804F00F01DA6804F0300422F4F05299
:104EC0001204120C42EA4122DA601A6922F44052BA
:104ED0001204120C42EA04241C6170BD38B5044669
:104EE000154611B900F096F8014619235943AD0053
:104EF0006423B1FBF5F1B1FBF3F21201100903FBDE
:104F0000101109013231B1FBF3F303F00F032168F3
:104F10001A4392B28A6038BD38B5114DEB689806D5
:104F200007D52B68990604D569680E48C9B2FFF702
:104F300087FFEB680A4C1A0611D523681B060ED5AD
:104F400009488288C38892B29BB29A4203D0FFF785
:104F500065FF606038BDE36823F08003E36038BD1F
:104F6000003801400C1500200015002038B5114D07
:104F7000EB68980607D52B68990604D569680E4832
:104F8000C9B2FFF75DFFEB680A4C1A0611D523681A
:104F90001B060ED509488288C38892B29BB29A42FA
:104FA00003D0FFF73BFF606038BDE36823F0800368
:104FB000E36038BD00440040181500203015002083
:104FC00038B5114DEB68980607D52B68990604D5BE
:104FD00069680E48C9B2FFF733FFEB680A4C1A063E
:104FE00011D523681B060ED509488288C38892B262
:104FF0009BB29A4203D0FFF711FF606038BDE368AF
:1050000023F08003E36038BD0048004024150020F1
:105010003C15002008B590F89002FFF7EDFB20B199
:105020000128034818BF002008BD024808BD00BF82
:1050300000A24A040051250213B504468DF807105A
:1050400020460DF10701012200F018FE0028F7D0DC
:1050500002B010BD38B505464C1E14F8011F19B139
:105060002846FFF7E9FFF8E738BD000008B5114B07
:1050700001211C6803222046FFF728FB00230121A1
:105080001A469342206834BF02254FF40035B2F52A
:10509000007F056103F1010303D0002A08BF01214D
:1050A00001E04FF0FF31B3F5007F04BF5218002339
:1050B000E7E700BFA4E8000808B5034B0BB1AFF366
:1050C000008062B6FFF7D2FF00000000F8B5144B75
:1050D00006460D4617460BB3AFF300801149044650
:1050E000FFF7B8FF20463946FFF7B4FF20460E49C8
:1050F000FFF7B0FF20463146FFF7ACFF20460B49D3
:10510000FFF7A8FF2046294600F006FE20460A21A8
:10511000FFF792FF20460D21FFF78EFFFFF7CCFF30
:1051200000000000F7E900080DEA000815E4000897
:1051300003695B68D9889A8889B292B2D8888A1A3A
:10514000998880B289B2884203D2198989B2013123
:105150000A4492B282B199881A6889B2505C9988DF
:105160001A8989B292B2914217BF9A8800220132FD
:1051700092B2C0B29A8070474FF0FF307047036917
:105180005B689988DA8889B292B2914205D09A8890
:105190001B6892B2985CC0B270474FF0FF30704706
:1051A00003699A689088D18880B289B28842F9D11F
:1051B0001A6813685B06FCD5704713B504698DF84F
:1051C000071020460DF10701012200F057FD0028CD
:1051D000F7D0012002B010BD03695B68D8889A88B7
:1051E00080B292B2D988801A9A8889B292B29142DA
:1051F00003D21B899BB20133184480B27047000070
:1052000030B5002545604FF47A758560024D016127
:1052100005600275437530BD40EA000803692DE959
:10522000F74FDB68044699420F4692462CD890F817
:105230001480174D4FEA081808EB050690F81590F2
:1052400070684FEA091909EB050B717B10B1002258
:10525000FFF778FC206900F0C1FC337B9BF80C2041
:1052600020698DE8080459F8051058F80530FFF753
:1052700010FE206900213A46FFF730FE206903B096
:10528000BDE8F04F00F0D4BC03B0BDE8F08F00BF24
:1052900074E600080022FFF7C1BF006900F0D2BC2D
:1052A000044B02791B789A4202D1034B1B681860A9
:1052B000704700BF581500205C150020002310B572
:1052C0000446036072B6054B19311970044B18601F
:1052D0000448FFF787FB62B6204610BD5815002032
:1052E0005C150020A1520008036800221B685B01C6
:1052F00003F184431A607047036801221B685B0155
:1053000003F184431A607047036801391B6889B24E
:105310009962704703681B68DA6A92B2914228BFAB
:1053200011465962704738B5054639B903680122FC
:105330001B689962DA62D86A80B238BD48244C434F
:105340004FF6FF71B4FBF1F1013189B204EB510466
:10535000B4FBF1F4FFF7D8FF2B68A4B21B6820461A
:10536000DC6238BD0068C9B2FFF7ECBB0368C9B2A4
:105370001B6801F18041D86A013980B2343382421E
:1053800028BF024643F8212070470068C9B2FFF7E2
:105390005FBB000008B501210848FFF78FFF02211D
:1053A0000748FFF78BFF03210648FFF787FFBDE89B
:1053B000084005480421FFF781BF00BF48150020C1
:1053C0004C150020501500205415002070B50546DE
:1053D0000E460024315D29B12A682846126890479C
:1053E0000134F7E7204670BDF8B505460C46164671
:1053F0008F18BC4206D02B6828461B6814F8011B86
:105400009847F6E73046F8BD10B502680B46946839
:1054100009689A68A04710BD08B503681B689847DB
:1054200008BD08B503685B68984708BD38B50D210D
:105430000546FFF7F1FF0A2104462846FFF7ECFF77
:10544000204438BD38B50446FFF7DEFF0546204648
:10545000FFF7ECFF284438BD38B50446FFF7E1FFFD
:1054600005462046FFF7E2FF284438BD2DE9F04FFE
:1054700014461D4691B054EA050381469DF868B074
:1054800004D13021FFF7C8FF01202EE04FF00008C3
:105490005FFA8BF600272046294632463B4602F04B
:1054A0002DFD08F101080DF1000AC2440AF8012C93
:1054B000204629463B46324602F020FD04460D4672
:1054C00054EA0503E4D1002408F1FF381DF8081060
:1054D0004846092994BF30313731C9B2FFF79CFFE4
:1054E0000444B8F1000FEFD1204611B0BDE8F08FB1
:1054F0002DE9F041069F064614461D462FB9036864
:10550000D1B21B689847BDE8F081002C75F100030B
:1055100005DA2D21FFF780FF644265EB4505FFB2F8
:105520000697304622462B46BDE8F041FFF79EBF66
:1055300007B5CB1700920A46FFF7DAFF03B05DF814
:1055400004FB38B50446FFF7F3FF05462046FFF796
:105550006DFF284438BD70B5049921B90368D1B2F4
:105560001B68984770BDC9B20491BDE87040FFF751
:105570007DBF07B500230092CAB2FFF7ECFF03B06E
:105580005DF804FB38B50446FFF7F3FF05462046F7
:10559000FFF74CFF284438BD07B5002300920A46A8
:1055A000FFF7D9FF03B05DF804FB38B50446FFF7F9
:1055B000F3FF05462046FFF739FF284438BD07B5FD
:1055C000002300920A46FFF7C6FF03B05DF804FB14
:1055D0002DE9F74F19460646144610461D4600228F
:1055E000002302F0EFF89DF830704FF0010838B159
:1055F0002046294644A3D3E9002302F0D9F806E067
:105600002046294642A3D3E9002302F0C7F800B997
:1056100080465FFA88F82046294600220023B8F128
:10562000000F0DD002F0B0F818B130462D21FFF771
:10563000F3FE804638493046FFF7F3FE404460E011
:1056400002F0A2F838B130462D21FFF7E5FE05F152
:10565000004380461D46314B4FF0000900225FFA9F
:1056600089F1B9420AD21046194600222C4B01F0AA
:1056700043FF09F1010902460B46F0E7204629469F
:1056800001F05EFC04460D4602F04EFC82468B465D
:1056900001F0DAFD02460B462046294601F04EFC99
:1056A0000A2300930446524630465B460D46FFF7F8
:1056B0001FFF804427B130461A49FFF7B2FE8044ED
:1056C000F7B1174B00222046294601F0EBFD0D46AD
:1056D000044602F081F881460A2249463046FFF727
:1056E00027FF8044484601F077FD02460B462046DE
:1056F000294601F023FC013F04460D46FFB2DFE7D7
:10570000404603B0BDE8F08F800350726C92DF43D7
:10571000800350726C92DFC360EA00080000E03F33
:105720000000244046DD000837B59DF818100446F7
:105730000091FFF74DFF05462046FFF777FE28440E
:1057400003B030BD10B50446006802F037FF2046B4
:1057500010BD10B50446006808B102F02FFF002309
:105760002360A360636010BD38B504460D46006831
:10577000013103F011FB10B184E82100012038BD94
:10578000036810B5044613B143688B4207D2204624
:10579000FFF7EAFF20B1A3680BB92268137001205C
:1057A00010BD70B50E46114604461546FFF7E8FFDA
:1057B00018B92046FFF7CDFF04E0A5602068314608
:1057C00003F00AFD204670BD38B50023044603608F
:1057D000436083600D4639B1084603F05BFD2946FE
:1057E00002462046FFF7DDFF204638BD884210B54F
:1057F0000B46044607D0096819B19A68FFF7D1FF34
:1058000001E0FFF7A6FF204610BD10B500230446B7
:10581000036043608360FFF7E9FF204610BD38B5A1
:1058200005460C4641B1084603F034FD21460246C8
:105830002846FFF7B6FF01E0FFF78BFF284638BD8B
:1058400010B500238AB004460360436083600846B5
:1058500001A900F08CF9204601A9FFF7E0FF2046DE
:105860000AB010BD70B5044685680E4609B900201F
:1058700070BD62B115442946FFF782FF0028F6D0BB
:105880002068A3683146184403F0A6FCA5600120F7
:1058900070BD1FB504460A220846694600F067F944
:1058A000684603F0F7FC694602462046FFF7DAFF38
:1058B00004B010BD1FB504460A220846694600F030
:1058C00081F9684603F0E6FC694602462046FFF788
:1058D000C9FF04B010BD0B4610B509689A680446AC
:1058E000FFF7C0FF10B92046FFF733FF204610BD79
:1058F00038B504460D4641B1084603F0CBFC2946B5
:1059000002462046FFF7AEFF10B92046FFF721FF01
:10591000204638BD10B50446FFF7BBFF10B920463E
:10592000FFF717FF204610BD10B50446FFF7C2FF72
:1059300010B92046FFF70DFF204610BDFEF736BD1B
:1059400008B5FCF777FDFCF7EFFEFCE7222870B501
:105950003BD8082939D8DFE801F0051A080B0E11E9
:10596000081417000024032213E00024042210E08E
:10597000002422460DE0002409220AE00024082227
:1059800007E001240B2204E001240F2201E000249F
:1059900007220E4B00011E18317B1858FEF796FEA9
:1059A000706890B1717B24B10122BDE87040FFF7AF
:1059B000C9B80368013903F140432033DB0003EB2E
:1059C00081039B0003F184431C6070BD74E60008F2
:1059D000054B03EB001000F10803806810B19979C2
:1059E000FEF7C2BD704700BF74E6000822280ED83B
:1059F000084B00011A18127B012101FA02F21B5810
:105A00001B689B681A420CBF0020012070470020D1
:105A1000704700BF74E60008222810D8084B000128
:105A20001A18127B1B58012000FA02F2D1F1010171
:105A300038BF0021090102FA01F11B6819617047A2
:105A400074E6000810B5044630B103F085F990FB08
:105A5000F4F303FB140010BD10BD884210B50446DA
:105A600004DA081AFFF7EEFF204410BD10BD000055
:105A70002DE9F04780460E46084600219246994699
:105A8000FFF7CAFF0024BAF1000F02D0C4F10701EA
:105A900000E0214649FA01F1404601F00101FFF71B
:105AA000BBFF0B4A3301D718D35801211D683B7B3C
:105AB000EA6801FA03F35340EB603A7BEB689140EC
:105AC00001345940082CE960DDD1BDE8F08700BF02
:105AD00074E60008054B70B51C6806461D4600F0CC
