:020000040800F2
:1000000000500020DD470008A14A0008A54A00086A
:10001000A94A0008AD4A0008B14A0008014B00088F
:10002000014B0008014B0008014B0008014B000880
:10003000014B0008014B0008014B0008414F00082C
:10004000014B0008014B0008014B0008B9460008AD
:10005000014B0008014B0008014B0008014B000850
:10006000014B0008014B0008014B0008014B000840
:10007000014B0008014B0008014B0008014B000830
:10008000014B0008014B0008794B0008014B0008A8
:10009000014B0008014B0008014B0008014B000810
:1000A000695100088D510008B1510008E95100085C
:1000B0003D520008AD5200081D530008014B0008D6
:1000C000014B0008014B0008014B0008014B0008E0
:1000D000014B000889540008DD5400083155000820
:1000E000014B000801470008014B000810B5054C02
:1000F000237833B9044B13B10448AFF300800123D4
:10010000237010BD781300200000000054CD0008BB
:1001100008B5064B1BB106480649AFF300800648F8
:10012000036813B1054B03B1984708BD00000000F8
:1001300054CD00087C13002078130020000000003C
:10014000012902D11C30C0B27047062984BF01F1D9
:10015000FF31C9B211F0010F14BF1E201F207047DC
:10016000444B2DE9F047B1FBF3F603FB16113C239A
:10017000B1FBF3F203FB1212054602704FF461600B
:10018000B1FBF0F200FB1211B1FBF3F36B704FF413
:10019000FA63AA70B6B2EB80EC884FF4C873B4FB74
:1001A000F3F803FB18481FFA88F8B8F1000F16D0CF
:1001B0006423B4FBF3F203FB12439BB2002B53D036
:1001C00014F0030140F26D130CBF4FF4B7721A46DE
:1001D00096420EDB002908BF4FF4B77304E0B6F572
:1001E000B77F06DB4FF4B773F61A0134B6B2EC8072
:1001F000D2E700236B716423B4FBF3F703FB1747CB
:10020000BFB2B8F1000F06D03FB114F0030F14BF16
:100210000020012002E0012000E0384695F805901A
:10022000C0B24946FFF78CFF864209F1010A15D397
:10023000B8F1000F06D03FB114F0030F14BF002037
:10024000012002E0012000E03846C0B24946FFF735
:1002500077FF301A86B285F805A0D2E701362E71F5
:1002600085F805A0BDE8F087B6F5B67FC1DD40F2A0
:100270006D13B9E780510100F8B5427887783C23C7
:1002800003FB072702780579467903FB0727013D21
:10029000013EEDB2F6B2044605714671013E731C93
:1002A000E38834D04FF4C872B3FBF2F102FB113291
:1002B00092B262B16422B3FBF2F002FB103080B262
:1002C00030B113F0030F14BF0020012000E0012023
:1002D000C0B2F1B2FFF734FF284485B2DEE74FF435
:1002E000C872B3FBF2F102FB113292B2AAB16422DE
:1002F000B3FBF2F102FB113292B28AB113F0030F99
:1003000040F26D1208BF4FF4B7721544ADB2013B15
:100310009BB2B3F5FA6FE2D205E04FF4B772F4E79F
:1003200040F26D12F1E7024800FB0570F8BD00BF16
:100330008051010002F0DCBE38B50D46044602F0E3
:10034000F2FE290A49006039204601F0FE0102F060
:1003500081FF204602F057FFE9B2204602F07AFF03
:10036000204602F050FF204602F0DDFE2046A1218B
:1003700002F070FF204602F046FF0021204602F006
:1003800090FF0546204602F021FF204602F0E6FEDF
:10039000284638BD70B50D461646044602F0C3FE29
:1003A000290A49006039204601F0FE0102F052FF9F
:1003B000204602F028FFE9B2204602F04BFF20461B
:1003C00002F021FF3146204602F044FF204602F0B1
:1003D0001AFF204602F0C2FEBDE870400A2005F078
:1003E00063BE0000D30770B548BF01320024520835
:1003F00002312346E5B2954225D211F8025CA5F1FF
:100400004106F6B2052E02D8104B9B5D05E0303D4B
:10041000EDB2092D03D80E4B5B5D1B01DBB211F869
:10042000015CA5F14106F6B2052E01D8074D04E0A6
:10043000303DEDB2092D02D8054E755D2B430355B5
:1004400002310134D6E7002070BD00BF22E1000870
:1004500018E100082DE9F04F824687B0084614469F
:10046000994607F097F9C9EB0406CDE9000130463B
:1004700007F07EF902460B4600204D4905F03CFF8F
:1004800002460B46DDE9000107F05EFC30B94FF093
:10049000020896FBF8F80546013E07E050460021A9
:1004A000224607B0BDE8F04F08F0E2BE454536DA17
:1004B000304607F05DF902460B4600203C4905F046
:1004C0001BFFCDE90201701E07F052F902460B46F0
:1004D0000020374905F010FFDDE90223CDE90401D2
:1004E000DDE9000107F0D4FA07F042FCDDE904235E
:1004F0000A2790FBF7FB0BFB17004FEA001BDDE917
:10050000000107F0C5FA07F033FC90FBF7F303FB9B
:10051000170083440AF805B0023E0135C6E709EB2F
:1005200048094FF0020BC4EB090994FBFBFB09F1EE
:100530000109D84538DA484607F01AF902460B4651
:1005400000201B4905F0D8FE064609F101000F46C0
:1005500007F00EF902460B460020154905F0CCFEC7
:1005600032463B4604460D46DDE9000107F066F9D8
:1005700007F0FEFB0A2690FBF6F707FB16002B465A
:1005800007012246DDE9000107F058F907F0F0FB0A
:1005900090FBF6F303FB160007440AF8087009F114
:1005A000020908F10108C4E707B0BDE8F08F00BFF9
:1005B00000002440124A517893784AF2130243EA29
:1005C0000123934213D008D84AF21102934213D068
:1005D0004AF21202934211D00DE04AF21402934201
:1005E00007D04AF22202934205D10420704702202C
:1005F0007047032070477047002070470120704704
:100600009413002010B5074C6018114602F085FCC9
:10061000054B1B781C4414F8073C1B1A58425841E0
:1006200010BD00BF9413002015140020044B18794E
:100630005B7943EA0020431E58425841704700BF8F
:1006400094130020044B9B79552B044B0CBF0122C3
:1006500000221A70704700BF941300201714002066
:1006600010B5084CE379552B01D1012010BD064887
:1006700001F067FBE3798342F7D0D0F1010038BF86
:10068000002010BD941300201D14002013B50D4B45
:100690001C7A552C01D1012012E00B48694601F06B
:1006A000F3FA00231A461DF803108C42F3D019B94F
:1006B0000132D2B2052AEED00133052BF3D100204E
:1006C00002B010BD941300201D14002070B5054623
:1006D0001E46FFF797FF044698B12846FFF7A6FF8E
:1006E000044658B12846FFF7ADFF2846FFF7B8FF8C
:1006F000044648B946B10C480C4911E00A480C4977
:100700000EE009480B490BE02846FFF7BFFF0446FF
:1007100040B99DF810300BB9012403E002480649A6
:1007200005F006F9204670BDC81400207AE10008E3
:1007300028E1000856E10008B1E100081A4B13B5A2
:100740001B787BB300230093042117220123FFF7BA
:10075000BDFFF0B1154C164804F10C0101F054FB3B
:10076000A17AE37A134843EA012101F0FBFA10B1C0
:10077000114B01221A70237A552B03D10F4803F035
:100780002BFA06E0012B04D00C480721012203F0CC
:10079000DDFB0B4B05481A78002102B0BDE8104084
:1007A00008F066BD02B010BD0C00002094130020BC
:1007B0002B1400201C14002014140020C21400204C
:1007C00015140020174B07B51B7843B30023009383
:1007D00004210A220123FFF779FFB8B11248134917
:1007E00001F017FA30B11249124805F0A1F8124889
:1007F000032108E011490F4805F09AF8104B0A222E
:100800000D481A700421012203F0A0FB0D4B0E4885
:100810001A78002103B05DF804EB08F029BD03B09D
:100820005DF804FB0C0000201D1400209C13002028
:10083000E9E10008C8140020C214002019E20008F1
:10084000C3140020151400209413002013B50023B6
:10085000009304210F22FFF739FF10B31D4C1E48EF
:1008600004F10A0100F0CFFE002830D01A4804F14C
:100870000A0100F003FF50B31849194805F058F871
:100880001848E17901F030FAA0B11749144805F091
:100890004FF816480521012203F058FB0E4800F0DE
:1008A000BFFF134B0B481A78002102B0BDE810407F
:1008B00008F0DEBC0A480F4905F03AF80E4B0A2250
:1008C0001A700A480621012203F040FBE9E70448B8
:1008D0000A49F1E79413002020140020ACE200083C
:1008E000C81400201D14002049E20008C214002092
:1008F000151400207BE20008C3140020D9E2000890
:100900000D4B07B51B789BB10023009304210522F2
:100910000123FFF7DBFE10B1084803F085FA084B0E
:1009200008481A78002103B05DF804EB08F0A0BC79
:1009300003B05DF804FB00BF0C000020C2140020CF
:10094000151400209413002010B50446FFF732FE62
:10095000032817D8DFE800F00207110C2046BDE895
:100960001040FFF7EBBE2046BDE81040FFF72ABF5E
:100970002046BDE81040FFF7C3BF2046BDE8104049
:10098000FFF764BF10BD00002DE9F047404C002781
:1009900082462770002635463E4804F089FE00282E
:1009A00033DD94F800903B4809F10103237004F013
:1009B0002BFEDFF8F48008F80900052005F074FB31
:1009C00023781022434413F8011C334805F03DF806
:1009D0003148324904F091FF94F90030002B43462E
:1009E00002DA2B4A00211170F6B922781A4412F863
:1009F000012C0D2A01D117E00126052DCCD1264866
:100A0000274904F095FF0127C4E757B1254922483B
:100A100004F08EFF5046FFF797FF00232370BDE8D8
:100A2000F0872770BDE8F087042DE5D8DFE805F0F2
:100A3000030C151E27002278134413F8015CB5F14E
:100A40000A035D425D4121E02278134413F8013C22
:100A50000D2B0CBF0225002518E02278134413F853
:100A6000013C0A2B0CBF032500250FE0227813441C
:100A700013F8013C0D2B0CBF0425002506E022785D
:100A8000134413F8013C0A2BB9D00025012683E753
:100A900015140020E0140020C814002014EE0008F3
:100AA00006E300082AE300089413002008B501209B
:100AB000002105F035FA0120014605F097FA0020E3
:100AC000014605F02DFA0420002105F029FA052041
:100AD000002105F025FA0420002105F087FA052001
:100AE000012105F083FABDE808400020014605F029
:100AF0007DBA0000014804F039BE00BFE0140020B8
:100B000008B561B10021052005F070FA962005F0C6
:100B1000CBFABDE808400520012105F067BA08BD01
:100B200008B50021012005F061FA0C4804F021FE0F
:100B30000220002105F0F4F90320002105F0F0F96E
:100B40000220002105F052FA0320002105F04EFAA0
:100B5000BDE808400520002105F048BAE014002057
:100B600010B50B78452B12D14B78522B0FD18B78C7
:100B7000CC78303B03EB8303303C04EB4304E4B21A
:100B800021460A22034804F069FF204610BD0A20CE
:100B900010BD00BFC81400200B784F2B07D1487838
:100BA0004B2804D113704B780120537070470020FC
:100BB000704700002DE9F04190B00E4601A865494C
:100BC0001C46904605F06CF8624904A805F068F8E8
:100BD000604907A805F064F820460021042208F0C7
:100BE00047FBE023A370E37035460027AB1B43456A
:100BF0003AD229780A220DA805F08EF80DA901A88D
:100C000005F0C4F80DA805F009F815F8013B2C2BE8
:100C100028D0303BDBB2092B98BF05F8013C15F812
:100C2000011C57B92D2902D14B484C4909E00DA8A8
:100C30000A2205F071F804A80DE02D2906D14648D6
:100C4000474904F075FEF023E370CFE70DA80A22B0
:100C500005F062F807A80DA905F098F80DA804F0B2
:100C6000DDFFC3E70127C1E73E490AA805F018F8F0
:100C70000AA90DA805F035F801A90DA805F0BAF8E4
:100C80000146354804F04AFE0DA804F0C7FF0AA843
:100C900004F0C4FF34490DA805F002F80DA92E4850
:100CA00004F01EFE0DA804F0B9FFA3782A48F02B2B
:100CB00001D12E4903E0E02B0CBF26492C4904F05A
:100CC0001CFE04A90DA805F00CF82A490DA805F092
:100CD0009EF80146204804F021FE0DA804F09EFF76
:100CE00025490DA804F0DCFF0DA91B4804F0F8FD10
:100CF0000DA804F093FFE3781748F02B01D11B49AE
:100D000003E0E02B0CBF1349194904F0F6FD07A9D5
:100D10000DA804F0E6FF0DA8164905F078F8014685
:100D20000D4804F0FBFD0DA804F078FF04A805F0C1
:100D3000E4F8207007A805F0E0F8607007A804F058
:100D40006DFF04A804F06AFF01A804F067FF10B06B
:100D5000BDE8F0814DE60008C814002055E3000806
:100D600062E3000870E300087BE30008A6F00008D7
:100D700086E3000893E300089AE30008F8B54C788E
:100D8000432C08D18C78532C05D1CC78B4F1510583
:100D90006C426C4100E000240026F5B24F5D013644
:100DA0003A2FFAD10135EDB200279542FEB207F194
:100DB000010706D811F805C0013501F806C0EDB2EB
:100DC000F3E73CB92046C2B2B2420BD20A5C1A54D5
:100DD0000130F8E7069A022412681470721ED2B22B
:100DE000FFF7E8FE0120F8BD37B5154809B91549E8
:100DF00000E0154904F081FD642005F055F9002458
:100E00000F4804F055FC0028E5B208DD062C14D08C
:100E10000B4804F0F9FB0DF804000134F0E755B17C
:100E20009DF802304F2B08D19DF80300B0F14B0321
:100E30005842584102E0284600E0002003B030BD8F
:100E4000E0140020A6E30008AAE3000810B5044659
:100E50000120014605F0CAF807484FF4165104F086
:100E600085FC20460121FFF74BFE20460121BDE80D
:100E70001040FFF7B9BF00BFE01400202DE9F0419A
:100E80009EB005AD0C4607460021904628466422D8
:100E9000039308F0EDF921462C4804F02EFD642060
:100EA00005F002F90024294804F002FC0028E6B20B
:100EB00007DD642C45D0254804F0A6FB28550134F5
:100EC000F1E726B92249234804F032FD39E09DF8C4
:100ED00014300D2B35D19DF815300A2B31D11EABB6
:100EE000334413F8653C0A2B2BD1023E1EAB33442E
:100EF00013F8643C0D2B24D10021CCB2A31CDBB22F
:100F0000B34201F1010107DA1EAA134413F8643C4D
:100F1000144404F8643CF0E738462946FFF720FE05
:100F20000A280CD103AB0093384629462246434693
:100F3000FFF724FF00280CBF0320022002E001205D
:100F400000E003201EB0BDE8F08100BFE0140020E7
:100F5000B0E30008C81400202DE9F041B2B0064605
:100F60000D4690460021642268461F4608F080F92D
:100F700019A80021642208F07BF90024E3B2E85CA0
:100F8000013420B132AA134403F8640CF6E7014699
:100F9000CAB25D1818F80240EDB232AA01312A44F3
:100FA00014B102F8644CF3E70D2302F8643C6B1CA7
:100FB00032A8DBB203442F480A2203F8642C0368EA
:100FC00019A95B6898472C48AA1C036819A99B6853
:100FD000D2B29847642005F067F8274804F068FB10
:100FE0000028E5B208DD642C3FD0234804F00CFB58
:100FF0000DF804000134F0E7002D36D09DF80030E4
:101000000D2B32D19DF801300A2B2ED132AB2B445F
:1010100013F8C93C0A2B28D1023D32AB2B4413F8FC
:10102000C83C0D2B21D100218B1CDBB2AB4201F15E
:10103000010209DA32A8034413F8C83CC9B20144DA
:1010400001F8C83C1146EFE730466946FFF788FDD6
:101050000A2808D1304669463A46FFF79DFD80F0E0
:101060000100C0B202E0012000E0032032B0BDE880
:10107000F08100BFC8140020E0140020F7B51E4620
:10108000044617460D4600218DF80710FFF7ACFE09
:1010900003F046FE204631462FB12A460DF10703E4
:1010A000FFF7ECFE03E0089A2B46FFF755FF0328F5
:1010B0002AD8DFE800F011040207002311E01648E7
:1010C000164901E01448164904F032FC204601217B
:1010D000FFF78AFE00201CE012490F4804F028FCAC
:1010E00012E09DF807205E1CDBB29A420A4809D93B
:1010F000E95C102204F0A9FC07480B4904F0FDFB51
:101100003346EEE704F0FEFB20460121FFF76CFEBC
:10111000012003B0F0BD00BFC8140020C4E30008E4
:10112000D5E30008DEE3000814EE00082DE9F043E3
:101130008BB004AF804600210922384602AE00245D
:1011400008F096F80094404631460122454BFFF7DF
:1011500095FF054620B94449444804F0E9FB7DE089
:101160002346F25C07AC092A01D8303204E0A2F130
:101170000A01052998BF3732E2540133082BF0D118
:101180004FF000093A488DF8249000F0AFFC024679
:1011900000284AD03749354804F0CAFB344839465C
:1011A00000F00AFC00283BD04B46E15CFA5C91421F
:1011B00048D10133082BF8D12F492C4804F0B8FB53
:1011C0002E492A4804F099FB9DF81610274804F090
:1011D0008FFB9DF81710254804F08AFB9DF814102A
:1011E000224804F085FB9DF81510204804F080FB90
:1011F0009DF812101D4804F07BFB9DF813101B484E
:1012000004F076FB9DF81010184804F071FB9DF86F
:101210001110164804F06CFB144804F073FB1DE039
:101220001749124804F084FB07E000944046314619
:10123000144BFFF723FF054680B121460C4800F010
:1012400013FC0AE01049094804F072FB009740467D
:10125000314600220B4BFFF711FF054628460BB025
:10126000BDE8F083EAE30008F5E30008C8140020B5
:101270001B14002015E400089DE40008C7E40008E2
:1012800033E4000857E4000860E400082DE9F04F5B
:1012900089B002AF07F10C068346894690461C468A
:1012A000304600210A2207F0E3FF002C48D1C7F89E
:1012B00004D05846CDF80080314601224B46FFF756
:1012C000DDFE824608B1214602E03C483C496BE025
:1012D000CCB218F804300131002BF9D1E11D01F432
:1012E000FC71ADEB010D02A9D8B2A04203D2F05CB3
:1012F000C8540133F8E70B46581AC0B2A0420DD2C9
:1013000013F8010B092801D8303004E0A0F10A05D8
:10131000052DF1D8373003F8010CEDE70025EBB2CD
:10132000A3423FD24B5D013508EB050010F8010CDC
:101330009842F4D02148234904F0FAFA7B689D468C
:101340006C460023DAB219F8021001330A29F9D1E8
:10135000931D03F4FC73ADEB030DA2F1020E02AB7F
:101360000020C1B2551EA94200F1010003DA19F8AC
:1013700001505D54F5E700223D215A55584603F8C7
:101380000E10CDF800803146FFF778FE054628B9EB
:101390000A480D4904F0CCFAAA4601E04FF0010AD0
:1013A000A54605E00548094904F0C2FA7B689D4658
:1013B00050461C37BD46BDE8F08F00BFC814002062
:1013C000D5E40008FBE4000852E5000874E50008D5
:1013D0007FB50F2204460D466846002107F048FFFE
:1013E0005C485D4904F0A4FA0A2603F099FC204603
:1013F000002D65D1FFF79AFE58498DF80000584A34
:101400002B462046FFF742FF56498DF80100564A09
:1014100001232046FFF73AFF54498DF80200544A51
:101420002B462046FFF732FF52498DF80300524AFF
:101430002B462046FFF72AFF50498DF80400504AFA
:1014400001232046FFF722FF4E498DF805004E4A42
:101450002B462046FFF71AFF4C498DF806004A4AF2
:101460002B462046FFF712FF49498DF80700444AF2
:1014700001232046FFF70AFF46498DF80800464A37
:101480002B462046FFF702FF44498DF80900444AE5
:101490002B462046FFF7FAFE42498DF80A00324AF1
:1014A00001232046FFF7F2FE3F4A8DF80B003F492B
:1014B00020460123FFF7EAFE0D228DF80C0007E01D
:1014C0002F4A2E490123FFF7E1FE01228DF800008B
:1014D00000231DF80310A9B935491E4804F028FA65
:1014E0002046FFF7B3FC2046FFF71AFB03F018FC79
:1014F0002046FFF7ABFC4FF4FA6004F0D5FD03F093
:101500000FFC05E00133D9B29142E2D304B070BDC3
:10151000284804F0CDF8002803DD264804F074F8CC
:10152000F6E7013E16F0FF067FF45FAF1E2231465C
:10153000214801F05FFD2149064804F0F9F940F621
:10154000B83004F0B1FD03F0EBFB04B0BDE870402F
:1015500003F01ABCC81400208AE50008A9E50008B9
:10156000B5E50008BEE50008BBE50008C8E50008D1
:10157000D4E50008DDE50008E9E50008F2E500082B
:10158000FCE50008FFE5000809E600080CE6000895
:1015900016E6000820E6000829E600082CE6000808
:1015A00036E6000839E600084EE6000843E6000883
:1015B00051E60008E0140020741400206EE60008D4
:1015C00010B500210446152004F0AAFC15200121C5
:1015D00004F00CFD2046BDE81040FEF7ABBE08B598
:1015E000052004F061FDBDE808401520012104F04C
:1015F000FDBC08B51520002104F0F8FCBDE808404A
:10160000052004F051BD7FB504460E46FFF7F1FFFB
:101610000D2573192946204613F80D2C0135FEF7C8
:10162000B9FE162DF5D13046092101F076FC0646AB
:10163000294620463246FEF7ADFE0D2529462046B6
:10164000FEF77AFE01AB2B440135162D03F80D0C85
:10165000F4D101A8092101F060FCB042204603D07A
:10166000FFF7BDFF002007E00B215522FEF792FE99
:101670002046FFF7B4FF012004B070BD7FB50446DB
:101680000E46FFF7B6FF172573192946204613F8B3
:10169000172C0135FEF77EFE202DF5D130460921AD
:1016A00001F03BFC0646294620463246FEF772FE14
:1016B000172529462046FEF73FFE01AB2B44013596
:1016C000202D03F8170CF4D101A8092101F025FC05
:1016D000B042204603D0FFF782FF002007E00C2134
:1016E0005522FEF757FE2046FFF779FF012004B090
:1016F00070BDF0B585B001AD06460F462846002105
:10170000092207F0B5FD0D2421463046FEF714FEF0
:101710002B190134162C03F80D0CF5D12146304657
:10172000FEF70AFE09210446284601F0F6FB844232
:1017300006D10023EA5CFA540133092BFAD101E007
:10174000002000E0012005B0F0BDF0B585B001AD8E
:1017500006460F4628460021092207F089FD172476
:1017600021463046FEF7E8FD2B190134202C03F802
:10177000170CF5D121463046FEF7DEFD092104465F
:10178000284601F0CAFB844206D10023EA5CFA54E1
:101790000133092BFAD101E0002000E0012005B05F
:1017A000F0BD37B50C461E210546FEF7C5FD1F21CD
:1017B0008DF804002846FEF7BFFD02218DF80500D4
:1017C00001A801F0AAFB207003B030BD10B504469B
:1017D000FFF70FFF002220460B21FEF7DBFD20461E
:1017E000FFF7FDFE20460B21FEF7A6FDD0F101001C
:1017F00038BF002010BD10B50446FFF7FAFE0022E6
:1018000020460C21FEF7C6FD2046FFF7E8FE2046E5
:101810000C21FEF791FDD0F1010038BF002010BD72
:1018200010B50446FFF7E5FE552220462121FEF7BC
:10183000B1FD2046FFF7D3FE20462121FEF77CFDB7
:10184000B0F155035842584110BD38B50446102038
:1018500004F0B6FB08B1002038BD41F2883004F036
:1018600023FC102004F0ACFB05460028F3D12046F1
:10187000FFF7BFFE2A4620462121FEF78BFD2046BA
:10188000FFF7ADFE20462121FEF756FDD0F1010005
:1018900038BF002038BD08B52121FEF74DFDB0F15D
:1018A00055035842584108BD70B504460D46FFF730
:1018B00020FF20B120462946FFF747FF48BB2046BE
:1018C0002946FFF716FF48B11549164804F030F8CD
:1018D00020462946BDE87040FFF7D0BE2046294685
:1018E000FFF733FF06460F4846B10F4904F020F8D2
:1018F00020462946BDE87040FFF785BE0B4904F03D
:1019000017F82046FFF762FF2046FFF774FF3046C6
:1019100070BD0749034804F00BF8012070BD00BFFB
:101920009AE60008C8140020D1E6000808E700087D
:101930001CE7000810B535210446FEF7FDFC5528CC
:1019400013D02046FFF755FE552220463521FEF7DD
:1019500021FD2046FFF743FE20463521FEF7ECFC33
:10196000B0F155035842584110BD012010BD08B5D3
:101970003521FEF7E1FCB0F155035842584108BD4E
:1019800010B535210446FEF7D7FC98B12046FFF785
:1019900030FE002220463521FEF7FCFC2046FFF7F2
:1019A0001EFE20463521FEF7C7FCD0F1010038BFEE
:1019B000002010BD012010BDF7B505460E464F248E
:1019C00021462846FEF7B8FC00AB23440134572CCF
:1019D00003F84F0CF4D10821684601F09EFA214625
:1019E00007462846FEF7A8FC87420CD100231DF8C5
:1019F0000320F2540133082BF9D10448044903F0C1
:101A000097FF012000E0002003B0F0BDC8140020C3
:101A100082E7000810B558210446FEF78DFC5528D2
:101A20000CD02046FFF7E5FD204658215522FEF751
:101A3000B1FC2046BDE81040FFF7D1BD10BD10B588
:101A400058210446FEF778FC60B12046FFF7D1FD2F
:101A5000204658210022FEF79DFC2046BDE810409C
:101A6000FFF7BDBD10BD0000F7B50F460446FFF7F8
:101A7000C0FD3846082101F050FA4F2506467B1973
:101A80002946204613F84F2C0135FEF783FC572DCD
:101A9000F5D1294620463246FEF77CFC4F252946E3
:101AA0002046FEF749FC00AB2B440135572D03F8C7
:101AB0004F0CF4D16846082101F02FFA864207D076
:101AC0002046FFF7BCFF2046FFF789FD002007E016
:101AD0000449054803F02CFF2046FFF79BFF012037
:101AE00003B0F0BD97E70008C814002008B55821DE
:101AF000FEF722FCB0F155035842584108BD10B51D
:101B00005A210446FEF718FC55280CD02046FFF752
:101B100070FD20465A215522FEF73CFC2046FFF777
:101B20005EFD002010BD012010BD38B50D465921C5
:101B30000446FEF701FCA8420AD02046FFF759FDF3
:101B4000204659212A46FEF725FC2046FFF747FD8F
:101B5000012038BD5921FEF7EFBB10B55C210446CA
:101B6000FEF7EAFB55280CD02046FFF742FD204641
:101B70005C215522FEF70EFC2046FFF730FD0020C9
:101B800010BD012010BD38B50D465B210446FEF79F
:101B9000D3FBA8420AD02046FFF72BFD20465B214D
:101BA0002A46FEF7F7FB2046FFF719FD012038BD56
:101BB0005B21FEF7C1BB70B504460E461546FFF724
:101BC00018FD204632462221FEF7E4FB20462A4635
:101BD0002321FEF7DFFB2046BDE87040FFF7FFBC86
:101BE000FEF7AABBFEF7A8BB70B504460E46154625
:101BF000FFF7FFFC204632462421FEF7CBFB2046B0
:101C00002A462521FEF7C6FB2046BDE87040FFF7B7
:101C1000E6BCF8B504460E46FFF7EBFC2625731923
:101C20002946204613F8262C0135FEF7B3FB2B2D51
:101C3000F5D10521304601F070F9074629462046C6
:101C40003A46FEF7A7FB262520462946FEF774FBF9
:101C5000731913F8263C834214D101352B2DF3D18F
:101C600020462946FEF768FBB842204608D12C21C1
:101C70005522FEF78FFB2046FFF7B1FC0120F8BD8F
:101C8000FFF7ADFC0020F8BD70B506460D462624D2
:101C900021463046FEF750FB2B1901342B2C03F85C
:101CA000260CF5D170BD38B50446FFF7A2FC2625F9
:101CB000002220462946FEF76DFB20462946FEF706
:101CC0003BFB024620B12046FFF789FC002038BDCF
:101CD00001352B2DECD120462C21FEF75BFB204655
:101CE000FFF77DFC012038BD37B502AD04468DF805
:101CF0000710FFF77EFC15F8012D20462D21FEF779
:101D000049FB0121284601F008F92E210246204610
:101D1000FEF740FB20462D21FEF70EFB9DF8073015
:101D20008342204608D12F215522FEF733FB20465F
:101D3000FFF755FC012002E0FFF751FC002003B043
:101D400030BD2D21FEF7F8BA10B50446FFF751FC5F
:101D500020462D210022FEF71DFB2046FFF73FFC09
:101D600010BD00004A1F4AF6BB039A4270B50446F4
:101D70000D4628D83221FEF7DFFA332106462046E9
:101D8000FEF7DAFA40EA0620A84204D10F491048CB
:101D900003F0CEFD15E02046FFF72BFC2046322154
:101DA000C5F30722FEF7F6FA20463321EAB2FEF722
:101DB000F1FA204634215522FEF7ECFA2046FFF7CF
:101DC0000EFC012070BD002070BD00BFACE7000814
:101DD000C814002038B532210546FEF7ADFA33218C
:101DE00004462846FEF7A8FA40EA042038BD08B5A4
:101DF0003421FEF7A1FAB0F155035842584108BD0D
:101E0000032002F039BC000070B55E480D46097829
:101E100001F09DFE697806465A4801F098FE06EBEF
:101E20008606594C06EB860600EB8600E080A97812
:101E3000544801F08CFE6071E978524801F087FE49
:101E4000207129794F4801F082FE6979A0704D48D0
:101E500001F07DFEA97960704A4801F078FE4B4997
:101E600020704B4803F049FDE1880A22484803F0FE
:101E7000D4FD4849464803F040FD61790A224448B0
:101E800003F0ECFD4449424803F037FD21790A2272
:101E90003F4803F0E3FD41493D4803F02EFDA178A2
:101EA0000A223B4803F0DAFD3D49394803F025FD9D
:101EB00061780A22364803F0D1FD3A49344803F0EC
:101EC0001CFD0A222178324803F0C8FD02F0C8FE4A
:101ED000642004F0E9F82046FEF7CEF901463248C6
:101EE00002F0E8FA642004F0DFF802F0BFFE2E48AA
:101EF00002F0E3FA01462046FEF732F9E188642356
:101F0000B1FBF3F1C9B21F4801F018FE2870E28856
:101F10004FF47A73B2FBF3F103FB11211948C9B2F4
:101F200001F00CFE68706179164801F007FEA87098
:101F30002179144801F002FEA178E870114801F0FF
:101F4000FDFD617828710F4801F0F8FD2178687176
:101F50000C4801F0F3FD0024A871295D10220C4803
:101F600003F073FD01340A48104903F0C6FC072C46
:101F7000F3D1074803F0C6FCBDE8704004480C49A3
:101F800003F0D6BCBD14002022140020CBE70008CB
:101F9000C8140020D2E70008DAE70008E0E70008EC
:101FA000E7E70008F1E700082C14002014EE000811
:101FB000FBE7000870B51C480D4602F07EFA1B4C8A
:101FC00001462046FEF7CCF8E188194E6423B1FBA8
:101FD000F3F1C9B2304601F0B1FD2870E2884FF448
:101FE0007A73B2FBF3F103FB11213046C9B201F061
:101FF000A5FD68706179304601F0A0FDA8702179D7
:10200000304601F09BFDA178E870304601F096FD66
:1020100061782871304601F091FD21786871304671
:1020200001F08CFDA87170BD2C140020221400203A
:10203000BD14002070B54C4886B0FEF71DF904466B
:1020400002F00EFE0A2004F02FF82146474802F065
:1020500031FA464802F031FA05464548FFF7C7FE17
:10206000444E002859D04248FFF7B4FE4AF6B10367
:10207000A0F10F029A42044619D93F49684603F07D
:102080000FFE694603A803F02CFEB42103A803F059
:10209000DAFE3A4903F0BBFE0146394803F03EFC44
:1020A00003A803F0BBFD684603F0B8FDB424337801
:1020B000012B0BD1B4F5966F03D9254468463149FD
:1020C00015E005F5966503A82F4938E0022B0BD1E2
:1020D000B4F5166F03D9254468462C4907E005F589
:1020E000166503A82A492AE02A492544684603F0D0
:1020F000D7FD694603A803F0F4FD214603A803F0C9
:10210000A2FE1E4903F083FE01461D4803F006FCB3
:1021100003A803F083FD684618E03378012B04D14F
:1021200005F5966503A81C4909E0022B04D105F5C5
:10213000166503A8194902E01949B43503A803F04C
:10214000AFFD0F4803A903F0E9FB03A803F066FD08
:1021500014492A46054802F0B2F90A2003F0A4FF08
:1021600002F084FD06B070BD221400202C14002063
:102170001C1400202A1400201EE8000824E900088E
:10218000C814002092E80008DBE8000826E90008EF
:1021900078E90008CCE9000818EA00088DEA000890
:1021A0000BEB0008011E000830B5154885B0FEF79E
:1021B00063F8144C054602F053FD0A2003F074FF47
:1021C0002946204602F076F9204602F076F90E49BB
:1021D000054601A803F064FD01A90C4803F09EFB2D
:1021E00001A803F01BFD0A4905F56162204602F0D3
:1021F00066F90A2003F058FF02F038FD05B030BD43
:10220000221400202C14002082EB0008C8140020A7
:10221000011E00080148112102F043B92C140020CE
:102220002DE9F84300240F469046994625464C4533
:1022300013DA5FFA88F60121304603F0D7FE0A2050
:1022400003F032FFF8B203F0BBFE002100EB4505BE
:10225000304603F0CBFE0134E9E72846BDE8F883B9
:1022600070B5D4B21D46EDB20E462046002103F0F3
:1022700057FE2846002103F053FE2046012103F0BB
:10228000B5FE2846012103F0B1FE2046002103F0EF
:10229000ADFE2846002103F0A9FE2846012103F0E7
:1022A000A5FE2046012103F0A1FE2846002103F0EF
:1022B0009DFEF3B201222046294603F0C3FE2846C4
:1022C000012103F093FE2046022103F029FE20465F
:1022D00003F076FE2846002103F088FE2046BDE884
:1022E000704003F06DBE38B5CDB22846022103F030
:1022F00017FE64240A2003F0D7FE284603F060FE90
:1023000008B1013CF6D138BD2DE9F843CCB21546F1
:1023100080460E46EFB22046022103F001FE384609
:10232000002103F0FDFD2A46082331464046FFF711
:1023300077FF00214FEA0029204603F0F1FD2046F7
:10234000012103F053FE2046002103F04FFE3846E2
:10235000012103F04BFE3846002103F047FE2046E2
:10236000022103F0DDFD404631462A460823FFF7EF
:1023700057FF49EA0000BDE8F88338B51446CDB2EE
:10238000E4B22846002103F0CBFD2046002103F0F3
:10239000C7FD2846012103F029FE2046012103F054
:1023A00025FE20460021BDE8384003F01FBE38B5A9
:1023B00090E80C0004460321FFF752FF20462168F5
:1023C000FFF791FF94E806002046FFF79DFF94E891
:1023D000060005462046FFF7D0FF284605F01AFE06
:1023E00038BD000008B5FFF7E2FF06F02DF805F054
:1023F00011FE034905F062FE024905F055FD08BDD6
:102400000AD7233C00002042F8B590E80C000446AF
:102410000521FFF725FF20462168FFF764FF94E8B8
:1024200006002046FFF770FF94E8060005462046A8
:10243000FFF7A3FF284605F0EDFD1E49064605F00F
:102440003DFE4FF0814105F02FFD1B49054630460A
:1024500005F034FE314605F031FE0146284605F010
:1024600025FD07462046FFF7BDFF05F093F9002242
:10247000124B05F02FF804460D463046104905F082
:102480001DFE104905F012FD05F084F902460B46C9
:102490002046294605F0D2F9044638460D4605F097
:1024A00079F902460B462046294605F015F805F055
:1024B000A7FCF8BD54E3253DA2E73BB60000394038
:1024C000ACC5A7380AD7233C024B1D211C2283E848
:1024D000060070473014002007B53248FFF7DBF9DB
:1024E00078BB314B314918702E48FFF78CF828B172
:1024F0002C482E49FFF7C2F8002848D12C48FFF796
:1025000023FC20B12A48FFF7CEFB002844D1012349
:102510008DF800302648002369468DF801308DF88B
:1025200002308DF803308DF80430FFF772FB18B1DC
:102530002048214903F0FCF920480021052200F041
:1025400059FD1C481E4903F0F3F91648FFF7A3F99B
:10255000B8B9102003F034FD78B941F2883003F0A7
:10256000A3FD102003F02CFD38B9164801F034FB10
:10257000102003F025FD0028FAD01348FEF704FAD6
:10258000E3E7094B01221A7003B05DF804FB0F4921
:10259000084803F0CDF9B1E70D49064803F0C8F942
:1025A000B5E700BF201400200C0000203C140020E0
:1025B0001D140020C8140020D6EB0008741400205D
:1025C000F3EB0008C21400201614002006EC0008EB
:1025D0001AEC0008F8B5114E03253468104B1A7830
:1025E0001F46CAB90F4801F037FD326804F51C5385
:1025F00010339A4201D23B7853B1013D15F0FF05EB
:102600003468EBD1BDE8F8400748084903F090B9B9
:102610000748FEF7B9F9E8E7F8BD00BFA8150020A4
:1026200014140020C2140020C814002049EC000833
:102630001614002008B5142003F0C2FC30BB64203F
:1026400003F032FD142003F0BBFCF8B94FF4FA603C
:1026500003F02AFD0E490F4803F06AF94FF4FA60BF
:1026600003F022FD142003F0ABFC78B9642003F0E2
:102670001BFD142003F0A4FC40B90748FFF780F9C4
:10268000BDE808400348054903F052B908BD00BF42
:1026900068EC0008C81400201B1400207CEC000823
:1026A00010B5064C0649204603F0FAFA20460549C3
:1026B000054ABDE8104003F019BE00BF48140020D1
:1026C0004DE600081D5C00080800002010B5104C05
:1026D0001049204603F02CF90F49204603F028F951
:1026E000204602F0C9FF0D4800F0AEFC0120002199
:1026F00003F07CFC0121132003F078FC012002F0A0
:1027000051FB012002F068FBBDE8104002F050BB15
:10271000C8140020C0EC0008D2EC0008741400209B
:1027200030B589B0454802F0C3FF00280ADD4348B0
:1027300002F06AFFC1B2424803F02DFB022003F011
:10274000B3FCEFE73E4CA368002B74D0204603F0A7
:10275000C8FB3C4905A803F0A3FA05A902A803F0A9
:10276000C0FA214602A803F045FB0146334803F0B6
:10277000D5F802A803F052FA05A803F04FFA32493F
:1027800005A803F08DFA204605A903F07CFB054659
:1027900005A803F043FA65B12C49284803F0C8F8AE
:1027A000002300932A4901222A4B2B48FEF766FC9E
:1027B0003DE02A4905A803F073FA204605A903F075
:1027C00062FB054605A803F029FA55B1244A1B48C7
:1027D000137883F0010313700BB1224925E02249DD
:1027E00023E0224905A803F05BFA204605A903F07F
:1027F0004AFB054605A803F011FA3DB11C490F48F4
:1028000003F096F81B4801F027FC10E01A4905A8D0
:1028100003F046FA204605A903F05AFB044605A832
:1028200003F0FCF91CB90548144903F081F8044889
:10283000134903F060FA09B030BD00BFC81400208E
:1028400048140020E5EC0008F0EC0008F8EC000863
:10285000BE14002014ED0008191400201EED00081D
:102860004514002024ED000839ED00084EED000865
:1028700059ED0008C214002075ED000886ED00082F
:102880004DE60008B54B30B51A688DB022F0E06215
:1028900042F000721A60B24800F086FBB1484FF473
:1028A000E13102F063FFB0484FF41651FEF722F910
:1028B0004FF41651AD4802F059FF02F0C4F9AA488E
:1028C000FEF7F4F80820002103F02AFB002108207D
:1028D00003F08CFBA648FEF773FE0121A248FEF729
:1028E00083FA4FF47A7003F0DFFBA248FEF74CF84E
:1028F0000021132003F07AFB0A2003F0D5FB9E4948
:10290000984803F015F89D482221FFF76BF902283B
:10291000044606D199482321FFF764F91428054697
:102920001CD0142295480221FFF745F994496846C6
:1029300003F0B6F9694606A803F0D3F91022022184
:1029400003A803F0FAF903A906A803F053FA8D4986
:1029500003F05DFA1421044609A816E08A49684686
:1029600003F09EF9694606A803F0BBF92146102240
:1029700003A803F0E2F903A906A803F03BFA814992
:1029800003F045FA2946044609A8102203F0D5F9B8
:10299000204609A903F02EFA0146724802F0BEFF54
:1029A00009A803F03BF903A803F038F906A803F0DF
:1029B00035F9684603F032F970482421FFF710F921
:1029C0000728044617D16D482521FFF709F910287B
:1029D000054610D16D4906A803F062F906A909A8B9
:1029E00003F07FF9214609A803F023FA654903F0B3
:1029F0000EFA294614E0102260480721FFF7F4F888
:102A0000634906A803F04CF906A909A803F069F97F
:102A1000072109A803F00DFA5A4903F0F8F910212B
:102A200003F007FA01464F4802F078FF09A803F0C7
:102A3000F5F806A803F0F2F8FFF7FCFD5548FEF79D
:102A400096FF002867D15348FFF759F818B9514845
:102A50000121FFF76AF84F48FFF77CF84E4C4F49C9
:102A6000207003A803F01CF903A909A803F039F9A1
:102A70001022217806A803F04FF906A909A803F04F
:102A8000B9F90146374802F049FF06A803F0C6F835
:102A900009A803F0C3F803A803F0C0F83D48FFF706
:102AA0005CF818B93B483421FFF76DF83948FFF757
:102AB0007FF83B4C3B49207003A803F0F1F803A9D1
:102AC00009A803F00EF90A22217806A803F024F9D8
:102AD00006A909A803F08EF90146224802F01EFF5C
:102AE00006A803F09BF809A803F098F803A803F0E0
:102AF00095F81D480021FEF76BFC1B480121FDF7EE
:102B0000FFFF01211848FEF76FF91A48FDF73CFF57
:102B10002048FEF70FFF2448FEF797FEFFF7DCFC86
:102B200022492148FEF7C0FE0146002844D10A226E
:102B30000B4800F05FFA1E490A4802F0F9FE1D48F2
:102B400001F006F94FF47A7003F0AEFA0948FDF788
:102B50001BFF40F6B83003F0A7FAE1E7040001409C
:102B600074140020C814002019140020F814002048
:102B70001F140020161400204DE600081E1400202B
:102B800036EE000895E7000881EE000897EE000891
:102B9000ADEE00081B14002018140020AFED000853
:102BA0001A140020BEED0008201400203C14002060
:102BB000CBED0008C21400203149324802F0B8FEC3
:102BC0003048314902F099FE0024304B1022195D43
:102BD0002C4802F03AFF01342A482D4902F08DFEBC
:102BE000092CF2D1274802F08DFE0A220121294842
:102BF00000F000FA274800F03FFA0446254800F0AC
:102C00003BFA20444408244906A803F049F806A9E1
:102C100009A803F066F8214609A803F014F91F4932
:102C200003F0F5F80146174802F078FE09A802F013
:102C3000F5FF06A802F0F2FF40F6B8339C4207D831
:102C4000642003F031FA1648FFF7AEFAFFF73EFDB5
:102C5000FFF7C0FC40F673639C42124B01D900227F
:102C600005E040F6E44294428CBF012202220C4867
:102C70001A70FFF7DFF9FFF753FD0DB030BD00BF4D
:102C8000FEED0008C814002016EE00083C140020D9
:102C900014EE00087414002020EE000833EE000843
:102CA0002B1400202A14002008B5034B1B7813B105
:102CB000FFF736FDF9E708BD45140020FFF7F4BF24
:102CC0000A4B1A680A4B9B6800BF00BF0749096896
:102CD0008A42F5D1C3F58C33482103F5A073B3FBC9
:102CE000F1F34FF47A7000FB02307047A815002012
:102CF00010E000E010B5044680E80600D0B20021E4
:102D000003F00EF92078002103F00AF9002320795E
:102D1000E360012103F06AF920780121BDE8104049
:102D200003F064B938B5C36804460D4623B10021E9
:102D3000C160007803F0F4F820782946BDE83840F7
:102D400003F054B910B500210446FFF7EBFF6420EF
:102D500003F0B8F92079002103F048F9BDE81040EC
:102D6000642003F0AFB910B500210446007903F0E8
:102D70003DF9642003F0A6F920460021FFF7D2FFB9
:102D8000642003F09FF92079012103F02FF96420DA
:102D900003F098F920460121FFF7C4FFBDE8104079
:102DA000642003F08FB9F8B504460E460825F709EC
:102DB0002079002103F01AF920463946FFF7B2FFC7
:102DC0000121207903F012F9642003F07BF92046F9
:102DD0003946FFF7A7FF7600013DF6B2E7D1294655
:102DE000207903F003F92078022103F099F80223F7
:102DF000E3602079012103F0F9F8FFF761FF054650
:102E0000207803F0DDF830B1FFF75AFF401B64284B
:102E1000F6D90020F8BD0120F8BD38B50D460446AE
:102E2000FFF790FF6900204601F0FE01FFF7BBFFAE
:102E300038BD08B5FFF797FF002008BD08B5FFF7BC
:102E4000B2FF08BD70B50D466D0004461646FFF78B
:102E500079FF691CA6602046C9B2FFF7A4FF70BDC8
:102E600070B586680446002E55D00078022103F024
:102E700057F80223E360082500262079002103F09B
:102E8000B5F80121207903F0B1F8642003F01AF9B4
:102E9000207803F095F8013D00EB460000F0FF06B6
:102EA000EBD1A3686068013B002BA360C0B2294648
:102EB00017DD03F09BF8642003F004F9294620464F
:102EC000FFF730FF642003F0FDF82079012103F0C3
:102ED0008DF8642003F0F6F82079294603F086F88F
:102EE00019E003F083F8642003F0ECF80121204698
:102EF000FFF718FF642003F0E5F80121207903F0C3
:102F000075F8642003F0DEF82079294603F06EF8A6
:102F10002046FFF728FF304670BD002330B5054638
:102F200018468B420FDAEA5C5040082210F0010F7D
:102F30004FEA60041ABF84F0E000C0B2E0B2013A88
:102F4000F4D10133EDE730BD08B5134B13491A68CE
:102F5000096801328A421A601DD3114900221A60A1
:102F60000B78DB43DBB20B700E49097841B10129C4
:102F700011D1182003B1114603F038F8192005E0EB
:102F8000192003B9012103F031F818200021BDE810
:102F9000084003F02BB808BD68140020701400200E
:102FA000641400206C14002008B51320002102F0E6
:102FB000B7FF1820002102F0B3FF1920002102F012
:102FC000AFFF1020022102F0ABFF1420022102F01B
:102FD000A7FF0321072002F0A3FF0A2003F064F8F3
:102FE0001820002103F002F8BDE808401920002154
:102FF00002F0FCBF0F4B10B50F4C19700F4B204661
:103000001A600121022202F019FC20460C4902F04C
:10301000F6FB012120460A4602F014FC204601215D
:10302000084A02F01EFC20460021BDE8104002F0D4
:10303000DDBB00BF6C140020681500207014002058
:10304000A0860100492F000808B5064802F0B8FB29
:103050001820002102F0CAFFBDE808401920002115
:1030600002F0C4BF68150020014802F0B1BB00BFE8
:10307000681500200000000030B58BB001AD284677
:103080000021242206F0F4F80024072002F08AFF31
:1030900004F06EFB12A3D3E9002304F0CFFB00225F
:1030A000114B04F0CBFB04F08BFE28514FF47A70E7
:1030B000043403F007F8242CE7D109226B4608AC4E
:1030C00053F8040F5968884284BF58601960A342BE
:1030D000F6D1013A12F0FF02F0D105980BB030BDE5
:1030E000F163CC5D4BC8E93F00001840AFF30080AE
:1030F00008B51620002102F013FF1720002102F06E
:103100000FFF1620012102F071FFBDE808401720D3
:10311000012102F06BBF1720002102F001BF172030
:10312000042102F0FDBE08B5FFF7F5FF17200121CD
:1031300002F05CFF0121162002F058FF052002F08A
:10314000C1FF0021172002F051FF062002F0BAFF54
:10315000BDE808401620002102F048BF08B5FFF77F
:10316000DAFF1620002102F041FF1720002102F0B3
:103170003DFF0121162002F039FF062002F0A2FFD8
:103180001720012102F032FFBDE80840062002F0BE
:1031900099BF10B500210446162002F027FF2046F3
:1031A000FFF7B9FF0021172002F020FF022002F0F4
:1031B00089FF0121162002F019FF052002F082FF8D
:1031C000BDE810401620002102F010BF10B500210C
:1031D0000446162002F00AFF2046FFF79CFF01215B
:1031E000172002F003FF022002F06CFF01211620DD
:1031F00002F0FCFE052002F065FFBDE8104016203D
:10320000002102F0F3BE70B50646FFF788FF0121EA
:10321000172002F0EBFE012002F054FF16200121DE
:1032200002F0E4FE012002F04DFFFB25172002F022
:10323000C7FE044640B1013D15F0FF05F6D130460A
:10324000FFF78CFF012070BD1620214602F0CEFE54
:10325000204670BD38B50C46FFF75DFF16200021F3
:1032600002F0C4FE082524F07F0303F0FF011720BD
:1032700003B1012102F0BAFE0121162002F0B6FED0
:10328000022002F01FFF1620002102F0AFFE013DD8
:103290000220640002F016FF15F0FF05E4B2E2D14F
:1032A00038BDF8B505460F46FFF739FF082600245C
:1032B0000021162002F09AFE022002F003FF1620E1
:1032C000012102F093FE64001720E4B202F078FEC0
:1032D00008B10134E4B20120013E02F0F3FE16F021
:1032E000FF06E5D1284617B9FFF770FF01E0FFF7A9
:1032F00050FF2046F8BD70470120704701207047FD
:1033000010B5FF2301441A46884208D010F8014B3B
:103310005440044A125D5A40034B1B5DF4E743EAF4
:10332000022010BD0D0000200F01002070B5094DD6
:10333000094C0646227829780848FFF7DBFC2878F4
:10334000012102F053FE2078012102F04FFE3046A9
:1033500070BD00BF0D0100200E010020AC14002044
:1033600010B5064C2046FFF758FD2046FFF761FDDB
:10337000D0F1010038BF002010BD00BFAC14002008
:1033800010B54A2104460548FFF7EAFF28B1236833
:1033900020461B6801219847012010BDBC14002065
:1033A00070B5094C154620461E46FFF736FD2946E6
:1033B0002046FFF743FD20463146FFF73FFD2046FC
:1033C000BDE87040FFF735BDAC140020F8B51348D8
:1033D00014461E460F469DF81850FFF71EFD214665
:1033E0000E48FFF72BFD0D48FFF723FD0B4CA5B151
:1033F0002A4620463946FFF725FD0022237A551C30
:1034000033B10648D7B2FFF72BFD2A46F055F5E752
:103410000248BDE8F840FFF70CBDF8BDAC14002031
:10342000F0B51C4685B0012300930DF10F0315463E
:1034300007460E46FFF7CAFF9DF80F309DF828207B
:1034400023EA040314402343384631462A468DF8C4
:103450000F30FFF7A5FF05B0F0BD000013B5002445
:1034600071B1012213460B484A210094FFF7D8FF9F
:103470004A210094074802224023FFF7D1FF802110
:10348000009104484A2102228023FFF7C9FF02B0BD
:1034900010BD00BFBC14002008B51E220F481F211C
:1034A000FFF728FC38210D48FFF7B7FC06210B4831
:1034B000FFF7C4FC0948FFF7BCFC4FF4FA7002F0B8
:1034C000F3FD0748FFF75CFF10B10648064901E02D
:1034D00004480649BDE8084002F02ABA5414002006
:1034E00078140020C814002030EF000849EF0008CD
:1034F000F0B5334C85B00D461646FFF7CDFF3921A8
:1035000001222046FFF79EFC012002F0CDFD277A24
:103510001FB12046FFF7A4FC0746382101222848A6
:10352000FFF790FC012002F0BFFD207A10B1244883
:10353000FFF796FC40EA072004F00AF91EA3D3E93E
:10354000002304F07BF904F03BFC1E4930601E4868
:1035500002F0D3F931680A221B4802F092FA0223E2
:1035600000931A4803AB4A210322FFF72FFF9DF86F
:103570000D209DF80C3002F00F0242EA03122D21BB
:10358000D2B24A431B0902FA03F34FF47A72B3FB37
:10359000F2F32B600E490C4802F0AFF929680A22B9
:1035A000094802F078FA0B49074802F0C1F905B062
:1035B000F0BD00BFAFF300800AD7A3703D0A773F8C
:1035C0005414002062EF0008C8140020BC1400202E
:1035D00068EF00087FEF000808B50348FFF7A6FE74
:1035E000024A034B1A6008BDBC14002000EF00081B
:1035F000781400202DE9F0431E46504B87B0186820
:103600008846596801AC03AD03C4174600210A225D
:10361000284605F02DFE9DF8383006AC04F8143D20
:1036200020460621FFF76CFE030A8DF80B00444884
:103630008DF80A30036821469B68082298474FF4AA
:10364000967002F031FD00243D4802F031F8002868
:103650005FFA84F90EDD092C06D13A483A4902F0A6
:1036600067F94FF0000905E0354801F0CDFF285516
:103670000134E9E73348354902F05AF9B9F1000F4E
:103680000DD133492F4802F053F92E482F4902F04B
:103690004FF99DF80C309DF8144073B123E00024DD
:1036A0004C45EED2295D1022264802F0CEF925487D
:1036B000284902F022F90134F2E70DF10D0007214B
:1036C000FFF71EFE9DF8153043EA042484422CD1F6
:1036D0009DF811309DF810009DF8124043EA00203B
:1036E0009DF8133013E028460721FFF709FE9DF8E7
:1036F000133044EA0324844217D19DF810309DF81A
:103700000F009DF8114043EA00209DF8123043EA73
:10371000042404F07BFC104904F084FDC8F8000088
:103720003C60E40B3470012004E006480B4902F0D1
:10373000FFF8002007B0BDE8F08300BF18EF0008D5
:10374000F8140020C814002084EF0008A5EF00083A
:103750004DE6000814EE000800002041C1EF00080B
:10376000F0B50F4642498DB00868496801AB03AD1A
:1037700003C30CAC164600210922284605F078FD4B
:1037800004F82C6D20460621FFF7BAFD030A8DF8D8
:103790000B0038488DF80A30036821469B680822E0
:1037A00098474FF4967002F07FFC0024314801F0F6
:1037B0007FFF0028E6B20DDD082C05D12E482F49E9
:1037C00002F0B6F8002605E02A4801F01DFF285552
:1037D0000134EBE728482A4902F0AAF8002E32D13A
:1037E0002849254802F0A4F82549234802F0A0F80A
:1037F00028460521FFF784FD9DF811209DF8123021
:1038000043EA022383422CD19DF810309DF80F40EB
:103810001D4906A843EA042402F042FA06A909A8B1
:1038200002F05FFA214609A802F00DFB014612489A
:1038300002F074F809A802F0F1F906A802F0EEF916
:103840003C60012012E00024B442C9D2295D10225C
:10385000094802F0FAF808480C4902F04EF8013421
:10386000F2E705480A4902F063F800200DB0F0BD08
:1038700020EF0008F8140020C8140020FDEF000815
:103880001EF000084DE600083AF0000814EE0008AB
:1038900045F000082DE9F04117463C4A86B0106813
:1038A0008846516801AC03AD1E4603C40A2206AC2B
:1038B0000021284605F0DCFC04F8146D20460621A2
:1038C000FFF71EFD030A8DF80B0031488DF80A3012
:1038D000036821469B68082298474FF4967002F0CF
:1038E000E3FB00242A4801F0E3FE0028E6B20DDDE8
:1038F000092C05D12748284902F01AF8002605E0CE
:10390000234801F081FE28550134EBE72148234983
:1039100002F00EF826BB22491E4802F009F81F49A2
:103920001C4802F005F828460721FFF7E9FC9DF83E
:1039300013209DF8143043EA022383421ED19DF8E0
:103940000F209DF810309DF8111043EA02239DF8D6
:103950001220012042EA0122C8F800203B6012E058
:103960000024295D10220B4802F06FF80134094849
:103970000C4901F0C2FF092CF3D1CCE705480A49F4
:1039800001F0D6FF002006B0BDE8F08128EF000866
:10399000F8140020C814002065F0000889F0000821
:1039A0004DE6000814EE0008A8F000082DE9D74104
:1039B0000121082002F01AFB4FF47A7002F074FB28
:1039C0004E48FEF70FFD4E4E04243060642002F096
:1039D0006BFB4A48FEF718FDB06040F2DC5002F085
:1039E00063FB4849012300934748A1F108020B1FDC
:1039F000FFF700FE08B9013CF3D1642002F054FB4C
:103A00000424424940480A1D0123FFF743FF08B937
:103A1000013CF6D1642002F047FB04243A483C49BB
:103A20000222FFF79DFE08B9013CF7D1642002F0A5
:103A30003BFB3849344801F11802FFF759FD642077
:103A400002F032FB3449354801F057FF306803F08B
:103A5000A1FE022702460B460097304802F0D0F83C
:103A60002F492E4801F049FFB06803F093FE0097FC
:103A70000B460246294802F0C3F82A49274801F0BC
:103A80003CFF31694FF00A084246B1FBF8F1234888
:103A900001F0F7FF2449214801F02FFFB06903F03E
:103AA00079FE009702460B461C4802F0A9F81F4910
:103AB0001A4801F022FFB06A04F0A8FA1C4904F089
:103AC000B1FB03F067FE00970B460246134802F075
:103AD00097F81849114801F010FF4246F1690F4864
:103AE00001F0CFFF14490D4801F007FF0B48316A80
:103AF000424603B0BDE8D04101F0C3BF30140020FE
:103B000080140020981400207C1400209C140020B5
:103B1000A81400208C140020DEF00008C814002037
:103B2000F2F00008D8F00008ECF00008FDF0000802
:103B30000000C84208F1000815F100080A22B1FB94
:103B4000F2F302FB131202EB0310C0B2704701F054
:103B50000F03090901EB810103EB4100C0B270477B
:103B600037B50C460C480DF10701FDF71AFE9DF81C
:103B700007304FF47A705843084902F058FA9DF81C
:103B80000730054664205843054902F050FA28449E
:103B9000206003B030BD00BF2014002080841E00D0
:103BA000400D030070B50E4615460024E3B2AB424B
:103BB000074809D2315D102201F047FF044805494A
:103BC00001F09BFE0134F1E7BDE8704001F09ABEC0
:103BD000C814002014EE000830B595B04022054608
:103BE000002104A805F044FB002414A941F8504D1D
:103BF00028466946FFF7B4FF009802F063FAFE23F7
:103C00008DF81030E0238DF8113011238DF812302B
:103C100024238DF8133001238DF81530444B8DF893
:103C200014401B7803B1552342488DF81630FEF737
:103C300088F801AC8DF8170021463E48FEF724F8BD
:103C4000002304AA1A44E15C0133052B1172F8D158
:103C500039482146FDF74DFD002304AA1A44E15CD2
:103C60000133092B5173F8D1002401232221334859
:103C70008DF826308DF827408DF828408DF82940A2
:103C80008DF82A408DF82B408DF82C408DF82D4072
:103C90008DF82E408DF82F40FDF7A4FF23218DF8DD
:103CA00030002648FDF79EFF24218DF8310023487F
:103CB000FDF798FF25218DF832002048FDF792FF8F
:103CC00024218DF8330005A88DF834408DF8354057
:103CD0008DF836408DF83740FFF71FF98DF8380022
:103CE000E30704AB234404F1010454BF0D220A226C
:103CF000062C83F82920F3D11149124801F018FE4F
:103D000004A928462F22FFF74DFF0F48FFF79CF923
:103D10000E4804A903682F229B6898474FF4FA7055
:103D200002F0C2F90848FFF79FF915B030BD00BF97
:103D3000171400201D140020201400201E14002041
:103D400022F10008C814002074140020E0140020A0
:103D500030B587B014220446002101A805F088FA86
:103D6000002506A941F8185D20466946FFF7F8FED0
:103D7000009802F0A7F9FE238DF80430E0238DF8B7
:103D8000053013238DF8063005238DF80730012305
:103D90008DF809301E4B8DF808501B7803B1552360
:103DA0001C488DF80A30FDF7CCFF01238DF80B007D
:103DB000052102A88DF80C30FFF7AFF800238DF82D
:103DC0000D00DA0701AA1A4403F1010354BF0D21C3
:103DD0000A21062B9172F4D10F49104801F0A8FD79
:103DE00001A920461022FFF7DDFE0D48FFF72CF950
:103DF0000C4801A9036810229B6898474FF4FA7099
:103E000002F052F90648FFF72FF907B030BD00BFA6
:103E1000171400201D1400203EF10008C8140020D3
:103E200074140020E014002030B58DB01E22054629
:103E3000002104A805F01CFA00240CA941F8244D27
:103E40002846ADF80840FFF78BFE039802F03AF9D8
:103E5000344B0094344802A90122FDF70FF9FE23E8
:103E60008DF81030E0238DF8113014238DF81230C6
:103E700012238DF8133001238DF815302B4B8DF85C
:103E800014401B7803B1552329488DF81630FDF7EF
:103E900058FF01238DF81830264B00241B788DF82D
:103EA00017009DF8081024488DF819308DF81A4035
:103EB0008DF81B40FFF74BFE9DF809108DF81C0094
:103EC0001D48FFF744FE12218DF81D0005A8FFF7DD
:103ED00024F823468DF81E00DA0704AA1A4403F1D9
:103EE000010354BF0D210A21062BD173F4D11349CC
:103EF000134801F01DFD04A928461522FFF752FEC4
:103F00001048FFF7A1F8104804A9036815229B6820
:103F100098474FF4FA7002F0C7F80A48FFF7A4F880
:103F20000DB030BD14ED0008191400201714002046
:103F30001D140020C3140020BD14002064F10008EB
:103F4000C814002074140020E0140020F0B589B0DB
:103F500005460F4616460021192201A805F088F9EA
:103F6000002408A941F8204D28466946FFF7F8FDCE
:103F7000009802F0A7F8FE238DF80430E0238DF8B6
:103F8000053015238DF806300E238DF807300123F8
:103F90008DF809302A4B8DF808401B7803B1552362
:103FA00028488DF80A30FDF7CCFE00248DF80B0070
:103FB000012302A80E218DF80C308DF80D708DF8BC
:103FC0000E408DF80F408DF810408DF811408DF89F
:103FD00012408DF813408DF814408DF81540FEF70F
:103FE0009CFF8DF81600E30701AB234404F10104A4
:103FF00054BF0D220A22062CDA74F4D11249134858
:1040000001F096FC284601A91922FFF7CBFD1048C4
:10401000FFF71AF80024E3B2B3420BD20D4801A90E
:10402000036819229B6898474FF4FA7002F03CF835
:104030000134F0E70648FFF717F809B0F0BD00BFFC
:10404000171400201D1400207EF10008C814002061
:1040500074140020E01400202DE9F0410024ACB0DD
:1040600007462146142207A8039405F001F980228F
:1040700021460CA805F0FCF82CA941F8A04D3846C3
:10408000B74DFFF76DFD049802F01CF82B780BB1CB
:104090006B785BB9B349B44801F04AFC0023009344
:1040A000B248AF490122B24BFCF7E8FFB148FFF735
:1040B0007DFCFE238DF83030D0238DF83130342351
:1040C00001268DF83330AC4800238DF834308DF85C
:1040D00032608DF83560FEF7CFFFA84C030AD4F8A4
:1040E00000808DF83700A64940468DF8363004F040
:1040F000A1F928B1FF238DF838308DF839301BE055
:104100004046002104F078F920B108F10048C4F8D5
:10411000008000E00646022303A821680422FCF781
:1041200099F99DF80C308DF838309DF80D308DF8E8
:1041300039300EB1F22300E0E223A6688DF83A3060
:1041400030460023039304F07FF90138632803D934
:10415000FF238DF83B300BE0022303A831460422F5
:10416000FCF778F99DF80C308DF83B309DF80D3058
:104170008DF83C300021E223142207A88DF83D3051
:10418000039105F075F8E2687E4B9A4207D9FF2348
:104190008DF83E308DF83F308DF8403019E07A4987
:1041A00007A805F0CDFA07A805F06CFC07A90246A0
:1041B00003A8FCF717F99DF80C308DF83E309DF8F8
:1041C0000D308DF83F309DF80E308DF840309DF861
:1041D0000F308DF84130E0238DF84230A36A0A2079
:1041E0000026B3FBF0F0039603F010FF0422014613
:1041F000334603A8FCF72EF9A36A4FF6FE729342EA
:1042000007D9FF238DF843308DF844308DF84530C1
:1042100009E09DF80C308DF843608DF845309DF82D
:104220000D308DF84460606A8DF846300026E12339
:1042300064288DF84730039603D9FF238DF8483062
:104240000DE003F0E3FE33460146042203A8FCF729
:1042500001F99DF80C308DF848309DF80D30E022C2
:1042600020698DF84A208DF84D208DF850204FF6AA
:10427000FE728DF8493090424FF0FF038DF84B30BD
:104280008DF84C308DF84E308DF84F3002D98DF8C6
:10429000513016E0394B1B7D012B08BFC0F5803033
:1042A00003F0B4FE394903F0BDFF022301460422A6
:1042B00003A8FCF7CFF89DF80C308DF851309DF82D
:1042C0000D308DF85230237DA669012B0CBFF223EF
:1042D000E2238DF8533030460023039304F0B4F802
:1042E000642803DDFF238DF854300BE0022303A87C
:1042F00031460422FCF7AEF89DF80C308DF85430AE
:104300009DF80D308DF85530206AE2238DF8563037
:104310004FF6FE7300269842039603D9FF238DF8CB
:1043200057300DE003F072FE33460146042203A825
:10433000FCF790F89DF80C308DF857309DF80D3053
:104340008DF85830E069E0238DF859304FF6FE7350
:104350000026984203961BD9FF238DF85A3025E09A
:10436000BE14002096F10008C81400201914002083
:1043700014ED00087C140020741400208014002028
:1043800000001643400D0300AFF10008000020417B
:1043900003F03CFE33460146042203A8FCF75AF81A
:1043A0009DF80C308DF85A309DF80D3005AC8DF825
:1043B0005B302548E02321468DF85C30FDF7FAFD9F
:1043C00000230CAA1A44E15C0133072B82F82D105C
:1043D000F7D12B780DA88DF86430AB7834218DF8A7
:1043E00065306B788DF86630EB788DF86730FEF7C6
:1043F00094FD00238DF86800DA070CAA1A4403F133
:10440000010354BF0D210A21062B82F83910F3D184
:104410000E490F4801F08CFA0CA938463F22FFF7ED
:10442000C1FB0C48FEF710FE0B480CA903683F22A5
:104430009B6898474FF4FA7001F036FE0548FEF786
:1044400013FE2CB0BDE8F0812B140020B5F100085C
:10445000C814002074140020E0140020122938B57C
:104460000546144608460BD0132910D0112916D141
:1044700000F07CF80CB120460FE047F6FF700CE02E
:1044800000F074F8002CF6D149F63F4005E000F04A
:104490006DF8002CEFD14FF2234000F06BF9284665
:1044A00038BD13B50022044601A8FFF7D7FF204608
:1044B00002B010BD084600F043B900F02FB910B5A6
:1044C00010460C4600F070F921460320BDE810406C
:1044D00000F0A2B8054B1B681B685B0103F1844325
:1044E00094331A68002AFCD0704700BF10020020E5
:1044F000054B1B681B685B0103F184438C331A680E
:10450000002AFCD0704700BF1002002008B5FFF75A
:10451000E1FF054B00221B681B685B0103F184432C
:10452000C3F88C2008BD00BF1002002008B5FFF7BB
:10453000D1FF054B01221B681B685B0103F184431B
:10454000C3F8902008BD00BF1002002008B5FFF797
:10455000C1FF054B00221B681B685B0103F184430C
:10456000C3F8902008BD00BF1002002010B504461B
:1045700000F069FB00F074FB204A112C136A23F44D
:104580004073136213460BD005D8C4B1102C2AD146
:104590000023136227E0122C11D0132C1AD022E032
:1045A000174A00211160012142F8081C154A1268BF
:1045B00012F0FF0FFAD01A6A42F4807212E0124A27
:1045C00001211160114A1268002AFBD01A6A42F4D4
:1045D000007207E00E4A126812F0FF0FFAD01A6A52
:1045E00042F440721A620B4B01221A60FFF78EFFF1
:1045F000FFF77EFFBDE81040FFF76CBF00100240E0
:10460000080442420404424280044242840442427A
:10461000440042423C04424238B5144D04462B68E3
:1046200003EB80035960FFF755FF032C09D1104AB3
:1046300001231360C2F800310E4B4FF400725A6030
:1046400038BD2B6801221B68944204EBC3034FEA78
:10465000830303F184431A6003D002D3022C00D0F9
:1046600038BD044B08221A6038BD00BF100200207C
:104670004480204200E100E010B50446FFF72AFF25
:10468000032C0B4B05D10B4900220A60C1F8002115
:1046900008E01A680021126804EBC202920002F1DD
:1046A000844211601B6803EB84040023636010BD27
:1046B0001002002044802042F8B5104B1E68356877
:1046C0002B686F681F4017F0010403D074680CB1A9
:1046D000A0470124BA0704D5B36813B1984744F042
:1046E00002047B0704D5F36813B1984744F004042F
:1046F0006B6823EA04046C60F8BD00BF1002002060
:1047000008B5044B1B681B691BB19847024B01227B
:104710001A6008BD10020020C482204208B5FFF7CD
:10472000F5FEFFF7E5FEFFF7D5FE044B1B681B689F
:104730009869DB699BB243EA004008BD1002002083
:1047400010B50446FFF7E2FEFFF7D2FEFFF7C2FE08
:10475000FFF7ECFE064B220C1B68A4B21B689A61A3
:10476000DC61FFF7F3FEBDE81040FFF7B3BE00BF0A
:104770001002002010B50446FFF7C8FEFFF7B8FE90
:10478000FFF7A8FEFFF7D2FE064B220C1B68A4B26F
:104790001B689A60DC60FFF7D9FEBDE81040FFF7A8
:1047A00099BE00BF1002002010B50446FFF7AEFE10
:1047B000FFF79EFEFFF78EFEFFF7B8FE064B220CBA
:1047C0001B68A4B21B681A625C62FFF7BFFEBDE8FB
:1047D0001040FFF77FBE00BF1002002001498D4648
:1047E0000149084700500020ED47000808B5124B6A
:1047F000124A1968914201D0002301E0104B07E0F2
:104800001048D4188442F9D2C858D0500433F7E77E
:104810000D4A934203D2002243F8042BF8E704F038
:1048200077F900200146024601F06EFB074B0BB101
:1048300004F05EF9FEE700BF84F7000800000020E6
:104840007813002078130020B0150020F18A0008AA
:1048500008B50D4B1A680AB90C4A1A601B680C4A55
:10486000D21A824204DB09494242591A914206DABD
:1048700004F038F90C2303604FF0FF3008BD024A02
:1048800018441060184608BDC4140020B01500205C
:1048900018310128FEE770470B4B10B51968092243
:1048A0000A230A4800F018FF094B02221968094838
:1048B000032300F011FFBDE81040074B07481968BB
:1048C0001A221B2300F008BF34030020C814002064
:1048D00038030020E01400203C030020F8140020DE
:1048E00010B5044600F094F9034B20461978BDE852
:1048F000104000F019B900BF2C020020F8B50446A2
:10490000056800F05DFB22680023510101F184413C
:104910000B60802129600121A9622B61EB60637922
:10492000696113B18B4203D02BE04FF400436B64F9
:104930004FF6FF73D36200256E1CF7B2204639464E
:1049400000F048FBD0B1236848F6FF7103F1340250
:1049500042F8251018336D1017F0010F53F8252079
:1049600014BF6FF0FF016FF47F4101EA020214BF30
:1049700068214FF4D0410A4343F82520042E3546E0
:10498000DAD1216801224B01490103F1844301F18D
:104990008441C3F880220A60F8BD000038B5274B77
:1049A000274C1A68022042F010021A6000F064F9E5
:1049B0000025002000F02EFA65602368182023F4FB
:1049C0000023236000F033FA102000F030FA00F0EA
:1049D00043F8A560102000F01DFA102000F035FA11
:1049E0000028FAD000F039F8164800F03BFA1820F9
:1049F00000F010FA182000F028FA0028FAD002205F
:104A000000F0F8F900214FF0006000F0A5F90E4821
:104A100000F08EFA00F038F80C4B188800F0E6F839
:104A20000B4800F0E7F80B4800F0B6FA00F02EF85B
:104A300000F02DF8FFF72FFF38BD00BF0020024027
:104A400000100240300200203F1901002E02002019
:104A5000E1480008FD480008704708B500200146FD
:104A600000F03EFA01204FF4806100F039FA002195
:104A7000022000F035FA2D2000F042FABDE808408F
:104A80000320002100F02CBA00F000B9704700F0BC
:104A90003DB9000000000000000000000000000020
:104AA000012007E0022005E0032003E0042001E0EC
:104AB0000520FFE70D4A0121116072B60C4A002162
:104AC0001160074902B4084902B486B005498E4610
:104AD000704700BFAFF30080AFF30080AFF30080FA
:104AE00000000061F9FFFFFFF555000814ED00E03C
:104AF00010E000E0AFF30080AFF30080AFF3008080
:104B0000FEE710B50446007900F0B8F92079BDE859
:104B1000104000F0CBB903689A6822F4602242F496
:104B20008012114399607047002370B51A461C46E5
:104B3000072B4FEA430503DCEE1801FA06F634436F
:104B40001D4401FA05F501330A2B42EA0502EFD1B3
:104B50000368DC601A6170BD0368DA6A22F0F872DB
:104B6000DA6259639A6842F480029A601A6892077E
:104B7000FCD5D86C80B2704738B5124D2A681368DE
:104B80001C68A10706D5196821F002011960936815
:104B900003B19847620708D52B681A681B6911682A
:104BA00021F00401116003B19847E30708D52B6891
:104BB0001A68DB68116821F00101116003B19847A0
:104BC00038BD00BF5C020020036801225B0103F1D5
:104BD000844303F58673191F1A6018680028FCD1F6
:104BE00043F8042C0B68002BFCD1704701460420CD
:104BF00000F076B9044B10B504461868A047034B83
:104C00001868A04710BD00BF5C02002058020020B9
:104C100010B50446FFF775FF20464FF46021FFF7FB
:104C20007AFF2368012103F1404308335A015B01F5
:104C300002F1844203F18443116520461960BDE806
:104C40001040FFF7C1BF08B5142000F017F9042089
:104C500000F014F9BDE80840042000F027B9000076
:104C6000014B01221A60704720000E42014B0022C6
:104C70001A60704720000E42034B1A6822F00702A8
:104C800010431860704700BF0020024008B5074875
:104C900001F084FA064801F081FA064801F07EFA34
:104CA000BDE80840044801F079BA00BF6002002066
:104CB00068020020700200207802002070B501F028
:104CC0000704A4000F25A5400368C80853F8206016
:104CD000092A26EA050514BF1646082606FA04F432
:104CE000082A44EA050443F8204006D1012000FACE
:104CF00001F1DA6822EA010106E0092A05D1012062
:104D000000FA01F1DA681143D96070BD08B50320DB
:104D100000F0B4F8BDE80840032000F0C7B8000078
:104D2000024B4AF6AA221A60704700BF00300040CA
:104D300000284FEA011105DA064B00F00F00C9B256
:104D40001954704700F16040C9B200F5614080F825
:104D50000013704714ED00E021F0604138B521F0F8
:104D60007F01084B0843986000241D4660B20F2164
:104D70000134FFF7DDFF2B2CF8D1F02385F8233029
:104D800038BD00BF00ED00E0044A054BD16801F4D6
:104D900040710B43D360BFF34F8FFEE700ED00E09F
:104DA0000400FA05014B1860704700BFA0000E42D6
:104DB000074B1A6842F001021A601A6842F00202B8
:104DC0001A60044B1A6942F004021A6130BF70473E
:104DD0000070004000ED00E0024B1A6842EA8000DB
:104DE0001860704700700040014B13F810007047C6
:104DF00008F40008064B5A6822F0030202435A6086
:104E000080005A6802F00C028242FAD1704700BF5B
:104E100000100240030A0121C0B201FA00F003F1C0
:104E2000804303F504331A68104318607047030A7F
:104E30000121C0B201FA00F003F1804303F504330D
:104E40001A6822EA000018607047030A0222C0B202
:104E500002FA00F003F1804303F504331B681840A5
:104E600070470000044B05C85968126821F474119A
:104E700002430A435A6070470010024010B50446CE
:104E8000FFF7B2FF074B53F82020074B03EB440416
:104E9000637803EBC2039B0003F1844301221A6091
:104EA00010BD00BF8002002008F4000810B50446C1
:104EB000FFF79AFF084B53F82020084B03EB4404FC
:104EC000637803EBC2039B0003F1844301221A6061
:104ED00000221A6010BD00BF8C02002008F40008F8
:104EE00010B5054B054C5A6854F8200022EA000220
:104EF0001143596010BD00BF0010024064F4000867
:104F000010B50446FFF770FF074B53F82020074BFE
:104F100003EB4404637803EBC2039B0003F1844377
:104F200000221A6010BD00BF9402002008F400089F
:104F3000024B072258601A60704700BF10E000E083
:104F400008B5044B1A6801321A60034B1B6803B1A1
:104F5000984708BDA81500201015002011F0010F7A
:104F600070B542EA03030CBF0825002503FA05F5D6
:104F7000006801F1FF3400F11800C4F3400450F858
:104F8000241014BF6FF0FF066FF47F4631402943B1
:104F900040F8241070BD000010B504460448A04736
:104FA0000448A0470448A0470448A04710BD00BFDC
:104FB000E802002010030020A0020020C40200200C
:104FC00010B504460079FFF759FF2079BDE810407D
:104FD000FFF76CBF03791E2B10D9212B0ED0202B8D
:104FE0000ED9222B01D0252B04D102298CBF002001
:104FF000012070474B1E58425841704701207047AE
:10500000002070478B1C40F823200368012203F125
:1050100040430C3301EBC3039B0003F184431A604C
:1050200042790379FAB9B3F11A025342534107297D
:1050300045D8DFE801F004090909090E0E13002B19
:105040000CBF2C23192331E0002B0CBF2E231B2374
:105050002CE0002B0CBF2D231A2327E0002B0CBFC4
:105060002B23182322E01B3B0C2B28D8DFE803F06E
:10507000071D090B0D0F2711131517191B001C23F2
:1050800014E01E2312E0322310E036230EE0372313
:105090000CE018230AE0192308E01A2306E02B236A
:1050A00004E02C2302E02D2300E01D2359090122F6
:1050B00003F01F0302FA03F3014A42F8213070475C
:1050C00000E100E00368002203F140430C3301EBF0
:1050D000C3039B0003F1844302311A6040F821208E
:1050E000704738B543790446022B0D463BD0032A5E
:1050F00039D8DFE802F002111F2DFFF7E3FF236824
:10510000013D03F140432033DB0003EB85039B00AB
:1051100003F18443002225E00368002203F14043A9
:105120000C3301EBC3039B0003F184431A6060223C
:10513000082301E010220023FFF710FF2368013D40
:1051400003F140432033DB0003EB85039B0006E0C3
:1051500003684FF2F1229A6103229A605B0103F126
:10516000844301221A6038BD10B5074B1C68E16802
:1051700022690A40120606D55B6A23B19847236963
:1051800023F08003236110BDE802002010B5074B17
:105190001C68E16822690A40D20706D59B6823B1E2
:1051A0009847236923F00103236110BDE802002022
:1051B000F8B50C4F3D68EB682E691E4016F04004B0
:1051C00003D03C6A0CB1A0474024B30604D5FB6968
:1051D00013B1984744F020042B6923EA04042C619E
:1051E000F8BD00BFE8020020F8B5134F3E68F36831
:1051F00035691D4015F0100403D0BC690CB1A047FF
:105200001024290704D57B6913B1984744F008049A
:105210006A0704D53B6913B1984744F00404AB070F
:1052200004D5FB6813B1984744F00204336923EABC
:1052300004043461F8BD00BFE8020020F8B51A4E3E
:105240003768FB683D691D4015F0400403D0346A9F
:105250000CB1A0474024EB0604D5B36913B19847BD
:1052600044F01004280704D5736913B1984744F03B
:105270000804690704D5336913B1984744F004045E
:10528000AA0704D5F36813B1984744F00204EB076A
:1052900004D5B36813B1984744F001043B6923EA8D
:1052A00004043C61F8BD00BF10030020F8B51A4E9D
:1052B0003768FB683D691D4015F0400403D0346A2F
:1052C0000CB1A0474024EB0604D5B36913B198474D
:1052D00044F01004280704D5736913B1984744F0CB
:1052E0000804690704D5336913B1984744F00404EE
:1052F000AA0704D5F36813B1984744F00204EB07FA
:1053000004D5B36813B1984744F001043B6923EA1C
:1053100004043C61F8BD00BFA0020020F8B51A4E9D
:105320003768FB683D691D4015F0400403D0346ABE
:105330000CB1A0474024EB0604D5B36913B19847DC
:1053400044F01004280704D5736913B1984744F05A
:105350000804690704D5336913B1984744F004047D
:10536000AA0704D5F36813B1984744F00204EB0789
:1053700004D5B36813B1984744F001043B6923EAAC
:1053800004043C61F8BD00BFC402002081880268AB
:10539000034689B2505C99881A8989B292B29142C7
:1053A00017BF9A880022013292B2C0B29A80704729
:1053B000C28838B5838892B29BB201329A420446C1
:1053C0000D461AD0C288038992B29BB29A4202D18A
:1053D00083889BB28BB14FF0FF30E288236892B292
:1053E0009D54E288238992B29BB29A4217BFE38808
:1053F000002301339BB2E38038BD2046FFF7C6FF90
:10540000EBE770B51E460546084611460422059C8A
:10541000FFF754FC9DF810100B223046FFF74EFCAE
:105420002B6804F00F01DA6804F0300422F4F05223
:105430001204120C42EA4122DA601A6922F4405244
:105440001204120C42EA04241C6170BD38B50446F3
:10545000154611B900F096F8014619235943AD00DD
:105460006423B1FBF5F1B1FBF3F21201100903FB68
:10547000101109013231B1FBF3F303F00F0321687E
:105480001A4392B28A6038BD38B5114DEB68980660
:1054900007D52B68990604D569680E48C9B2FFF78D
:1054A00087FFEB680A4C1A0611D523681B060ED538
:1054B00009488288C38892B29BB29A4203D0FFF710
:1054C00065FF606038BDE36823F08003E36038BDAA
:1054D00000380140201500201415002038B5114D6A
:1054E000EB68980607D52B68990604D569680E48BD
:1054F000C9B2FFF75DFFEB680A4C1A0611D52368A5
:105500001B060ED509488288C38892B29BB29A4284
:1055100003D0FFF73BFF606038BDE36823F08003F2
:10552000E36038BD004400402C15002044150020E5
:1055300038B5114DEB68980607D52B68990604D548
:1055400069680E48C9B2FFF733FFEB680A4C1A06C8
:1055500011D523681B060ED509488288C38892B2EC
:105560009BB29A4203D0FFF711FF606038BDE36839
:1055700023F08003E36038BD004800403815002068
:105580005015002008B590F89002FFF72DFC20B1CF
:105590000128034818BF002008BD024808BD00BF0D
:1055A00000A24A040051250208B5114B01211C68D4
:1055B00003222046FFF782FB002301211A46934273
:1055C000206834BF02254FF40035B2F5007F056135
:1055D00003F1010303D0002A08BF012101E04FF0CD
:1055E000FF31B3F5007F04BF52180023E7E700BF87
:1055F00004F4000808B5034B0BB1AFF3008062B6AA
:10560000FFF7D2FF0000000003695B68D9889A8821
:1056100089B292B2D8888A1A998880B289B28842AF
:1056200003D2198989B201310A4492B282B19988B0
:105630001A6889B2505C99881A8989B292B29142EB
:1056400017BF9A880022013292B2C0B29A80704786
:105650004FF0FF30704703695B689988DA8889B238
:1056600092B2914205D09A881B6892B2985CC0B2FF
:1056700070474FF0FF30704703699A689088D1886F
:1056800080B289B28842F9D11A6813685B06FCD5EA
:10569000704713B504698DF8071020460DF1070116
:1056A000012200F0D5FD0028F7D0012002B010BD86
:1056B00003695B68D8889A8880B292B2D988801AC8
:1056C0009A8889B292B2914203D21B899BB201336C
:1056D000184480B27047000030B5002545604FF493
:1056E0007A758560024D016105600275437530BDB4
:1056F00080F4000803692DE9F74FDB6804469942FE
:105700000F4692462CD890F81480174D4FEA08188F
:1057100008EB050690F8159070684FEA091909EB37
:10572000050B717B10B10022FFF7DBFC206900F054
:105730003FFD337B9BF80C2020698DE8080459F865
:10574000051058F80530FFF75CFE206900213A4645
:10575000FFF77CFE206903B0BDE8F04F00F052BDBA
:1057600003B0BDE8F08F00BFD4F100080022FFF7BE
:10577000C1BF006900F050BD044B02791B789A420A
:1057800002D1034B1B681860704700BF6C150020E6
:1057900070150020002310B50446036072B6054B57
:1057A00019311970044B18600448FFF7F5FB62B615
:1057B000204610BD6C150020701500207957000898
:1057C000036800221B685B0103F184431A60704781
:1057D000036801221B685B0103F184431A60704770
:1057E000036801391B6889B29962704703681B68B6
:1057F000DA6A92B2914228BF11465962704738B5B1
:10580000054639B9036801221B689962DA62D86AD1
:1058100080B238BD48244C434FF6FF71B4FBF1F120
:10582000013189B204EB5104B4FBF1F4FFF7D8FF66
:105830002B68A4B21B682046DC6238BD0068C9B280
:10584000FFF74FBC0368C9B21B6801F18041D86AF9
:10585000013980B23433824228BF024643F8212006
:1058600070470068C9B2FFF7CDBB000008B5012141
:105870000848FFF78FFF02210748FFF78BFF03213E
:105880000648FFF787FFBDE8084005480421FFF7F9
:1058900081BF00BF5C15002060150020641500204A
:1058A0006815002070B505460E460024315D29B10B
:1058B0002A682846126890470134F7E7204670BDF1
:1058C000F8B505460C4616468F18BC4206D02B6824
:1058D00028461B6814F8011B9847F6E73046F8BDC8
:1058E00010B502680B46946809689A68A04710BD15
:1058F00008B503681B68984708BD08B503685B686E
:10590000984708BD38B50D210546FFF7F1FF0A217C
:1059100004462846FFF7ECFF204438BD38B504465E
:10592000FFF7DEFF05462046FFF7ECFF284438BDB1
:1059300038B50446FFF7E1FF05462046FFF7E2FFD2
:10594000284438BD2DE9F04F14461D4691B054EA65
:10595000050381469DF868B004D13021FFF7C8FFE8
:1059600001202EE04FF000085FFA8BF6002720465A
:10597000294632463B4602F08DFD08F101080DF143
:10598000000AC2440AF8012C204629463B4632460A
:1059900002F080FD04460D4654EA0503E4D10024DC
:1059A00008F1FF381DF808104846092994BF303126
:1059B0003731C9B2FFF79CFF0444B8F1000FEFD1B3
:1059C000204611B0BDE8F08F2DE9F041069F064654
:1059D00014461D462FB90368D1B21B689847BDE82D
:1059E000F081002C75F1000305DA2D21FFF780FF0F
:1059F000644265EB4505FFB20697304622462B46CA
:105A0000BDE8F041FFF79EBF07B5CB1700920A46ED
:105A1000FFF7DAFF03B05DF804FB38B50446FFF783
:105A2000F3FF05462046FFF76DFF284438BD70B5EB
:105A3000049921B90368D1B21B68984770BDC9B2F7
:105A40000491BDE87040FFF77DBF07B500230092C9
:105A5000CAB2FFF7ECFF03B05DF804FB38B50446AB
:105A6000FFF7F3FF05462046FFF74CFF284438BDFB
:105A700007B5002300920A46FFF7D9FF03B05DF88F
:105A800004FB38B50446FFF7F3FF05462046FFF751
:105A900039FF284438BD07B5002300920A46FFF7B6
:105AA000C6FF03B05DF804FB2DE9F74F1946064623
:105AB000144610461D460022002302F04FF99DF8BF
:105AC00030704FF0010838B12046294644A3D3E98D
:105AD000002302F039F906E02046294642A3D3E923
