:020000040800F2
:1000000000500020AD42000871430008754300080D
:10001000794300087D43000881430008D14300086C
:10002000D1430008D1430008D1430008D143000860
:10003000D1430008D1430008D14300084D480008CF
:10004000D1430008D1430008D1430008893F00088C
:10005000D1430008D1430008D1430008D143000830
:10006000D1430008D1430008D1430008D143000820
:10007000D1430008D1430008D1430008D143000810
:10008000D1430008D143000849440008D143000887
:10009000D1430008D1430008D1430008D1430008F0
:1000A000B94A0008DD4A0008014B0008394B000836
:1000B0008D4B0008FD4B00086D4C0008D143000833
:1000C000D1430008D1430008D1430008D1430008C0
:1000D000D1430008D94D00082D4E0008814E00087C
:1000E000D1430008D13F0008D143000810B5054CAA
:1000F000237833B9044B13B10448AFF300800123D4
:10010000237010BD78130020000000002CC20008EE
:1001100008B5064B1BB106480649AFF300800648F8
:10012000036813B1054B03B1984708BD00000000F8
:100130002CC200087C13002078130020000000006F
:1001400007B5324801F01DFE002837D1304B314948
:1001500018702E4801F0CDFC28B12C482D4901F033
:1001600003FD002848D12C4802F066F820B12A4847
:1001700002F011F8002844D101238DF80030264800
:10018000002369468DF801308DF802308DF8033078
:100190008DF8043001F0B5FF18B12048204905F072
:1001A000C3F820480021052200F07EFF06E0102061
:1001B00005F03EFA40B11C4800F08EFE134801F0F5
:1001C000E0FD0028F3D011E041F2883005F0A4FAF8
:1001D000102005F02DFA0028EDD1144802F010FF90
:1001E000102005F025FA0028FAD0E4E7084B012298
:1001F0001A7003B05DF804FB0D49084805F094F847
:10020000B1E70C49054805F08FF8B5E73714002031
:10021000080000209413002034140020A4140020AF
:10022000E8D50008301400201F1400208614002098
:1002300005D6000819D60008F8B5114E0325346814
:10024000104B1A781F46CAB90F4803F019F93268E3
:1002500004F51C5310339A4201D23B7853B1013D4F
:1002600015F0FF053468EBD1BDE8F84007480849B0
:1002700005F05AB8074800F02FFEE8E7F8BD00BFC8
:10028000881500201D14002086140020A4140020CE
:1002900048D600081F14002008B5142005F0C8F93E
:1002A00030BB642005F038FA142005F0C1F9F8B924
:1002B00040F6C41005F030FA0E490F4805F034F846
:1002C00040F6C41005F028FA142005F0B1F978B909
:1002D000642005F021FA142005F0AAF940B9074876
:1002E00001F0C4FDBDE808400348054905F01CB80D
:1002F00008BD00BF67D60008A414002032140020F7
:100300007BD6000810B5124C1249204605F00CF8B7
:100310001149204605F008F8204604F0A1FE0F48D8
:1003200000F0ECFE0820002105F098F901200021E2
:1003300005F094F90121132005F090F9012004F053
:1003400099F9012004F0B0F9BDE8104004F098B923
:10035000A4140020BFD60008D1D600083014002015
:10036000A54B30B51A688DB022F0E06242F0007201
:100370001A60A24800F072FEA1484FF4165104F032
:10038000E9FEA0484FF4165100F02EFF4FF416512D
:100390009D4804F0DFFE04F0BEF89A4800F000FF2C
:1003A0000820002105F0CAFA0021082005F056F9BE
:1003B000964801F07BFB0121924800F0BFFF4FF40B
:1003C0007A7005F0A9F9924800F086FD002113200B
:1003D00005F044F90A2005F09FF98E49884804F099
:1003E000A3FF8D48222101F075FE0228044605D1A5
:1003F0008948232101F06EFE0546E0B100228648BF
:10040000022101F050FE8549684605F0DCF9694695
:1004100006A805F0F9F91022022103A805F00FFA49
:1004200003A906A805F056FA7D4905F060FA0021F7
:10043000044609A816E07B49684605F0C4F96946F8
:1004400006A805F0E1F92146102203A805F0F7F906
:1004500003A906A805F03EFA714905F048FA2946B5
:10046000044609A8102205F0EAF9204609A905F07A
:1004700031FA0146624804F04DFF09A805F061F920
:1004800003A805F05EF906A805F05BF9684605F0DB
:1004900058F96148242101F01BFE0728044616D1B3
:1004A0005D48252101F014FE054680B95E4906A885
:1004B00005F089F906A909A805F0A6F9214609A8B9
:1004C00005F027FA564905F012FA294614E00022F1
:1004D0005148072101F000FE544906A805F073F9C0
:1004E00006A909A805F090F9072109A805F011FA55
:1004F0004B4905F0FCF9002105F00BFA0146404894
:1005000004F008FF09A805F01CF906A805F019F980
:10051000FFF7C2FE464801F0A0FC014680B9394809
:1005200001F0CCF93748012100F064FE0121354883
:1005300000F004FF364800F0CFFC3D4801F070FCAD
:100540003C4801F0F8FBFFF7FBFD3B49394801F05F
:1005500021FC0146B0B90A22284800F0A5FD374920
:10056000274804F0E1FE364802F006FE4FF47A70A8
:1005700005F0D2F8264800F0AFFC40F6B83005F0A0
:10058000CBF8E2E72F491E4804F0CEFE1B480121BC
:100590000A2200F089FD194800F0C6FDB0F52F6F62
:1005A0000DD8642005F0B8F8144800F0BDFDB0F592
:1005B0002F6F04D8244802F071F9FFF7A3FEFFF76C
:1005C0003BFE0E4800F0B0FD40F6E34398421F4C5E
:1005D00001D9002309E001230848237000F0A4FD9D
:1005E00040F6B833984201D802232370164802F02F
:1005F0009BF80DB030BD00BF040001403014002056
:10060000A414002031140020D4140020361400203B
:100610001F14002045E700083514002030D70008DB
:10062000D7DD00084BD7000880D7000865D7000841
:10063000321400203714002094130020E4D6000860
:100640008614002017D70008411400204014002011
:10065000FFF758BE012902D11C30C0B270470629ED
:1006600084BF01F1FF31C9B211F0010F14BF1E2088
:100670001F207047444B2DE9F047B1FBF3F603FB15
:1006800016113C23B1FBF3F203FB12120546027074
:100690004FF46160B1FBF0F200FB1211B1FBF3F318
:1006A0006B704FF4FA63AA70B6B2EB80EC884FF42B
:1006B000C873B4FBF3F803FB18481FFA88F8B8F1C5
:1006C000000F16D06423B4FBF3F203FB12439BB27A
:1006D000002B53D014F0030140F26D130CBF4FF404
:1006E000B7721A4696420EDB002908BF4FF4B77363
:1006F00004E0B6F5B77F06DB4FF4B773F61A0134A2
:10070000B6B2EC80D2E700236B716423B4FBF3F73D
:1007100003FB1747BFB2B8F1000F06D03FB114F08A
:10072000030F14BF0020012002E0012000E0384642
:1007300095F80590C0B24946FFF78CFF864209F153
:10074000010A15D3B8F1000F06D03FB114F0030F22
:1007500014BF0020012002E0012000E03846C0B2B2
:100760004946FFF777FF301A86B285F805A0D2E731
:1007700001362E7185F805A0BDE8F087B6F5B67F85
:10078000C1DD40F26D13B9E780510100F8B5427840
:1007900087783C2303FB072702780579467903FB1A
:1007A0000727013D013EEDB2F6B2044605714671E0
:1007B000013E731CE38834D04FF4C872B3FBF2F1EE
:1007C00002FB113292B262B16422B3FBF2F002FB7F
:1007D000103080B230B113F0030F14BF002001209D
:1007E00000E00120C0B2F1B2FFF734FF284485B227
:1007F000DEE74FF4C872B3FBF2F102FB113292B2A2
:10080000AAB16422B3FBF2F102FB113292B28AB1B7
:1008100013F0030F40F26D1208BF4FF4B772154486
:10082000ADB2013B9BB2B3F5FA6FE2D205E04FF4F3
:10083000B772F4E740F26D12F1E7024800FB057071
:10084000F8BD00BF8051010001F052BD38B50D4622
:10085000044601F068FD290A49006039204601F08C
:10086000FE0101F0F7FD204601F0CDFDE9B2204682
:1008700001F0F0FD204601F0C6FD204601F053FDD9
:100880002046A12101F0E6FD204601F0BCFD00213B
:10089000204601F006FE0546204601F097FD204661
:1008A00001F05CFD284638BD70B50D46164604467D
:1008B00001F039FD290A49006039204601F0FE01A6
:1008C00001F0C8FD204601F09EFDE9B2204601F08E
:1008D000C1FD204601F097FD3146204601F0BAFDEA
:1008E000204601F090FD204601F038FDBDE8704043
:1008F0000A2004F011BF0000D30770B548BF0132D1
:100900000024520802312346E5B2954225D211F85F
:10091000025CA5F14106F6B2052E02D8104B9B5D94
:1009200005E0303DEDB2092D03D80E4B5B5D1B0198
:10093000DBB211F8015CA5F14106F6B2052E01D833
:10094000074D04E0303DEDB2092D02D8054E755D2E
:100950002B43035502310134D6E7002070BD00BFA0
:10096000A4D700089AD700082DE9F04F824687B037
:1009700008461446994606F0A1FBC9EB0406CDE9EA
:100980000001304606F088FB02460B4600204D4928
:1009900005F046F902460B46DDE9000106F068FE67
:1009A00030B94FF0020896FBF8F80546013E07E023
:1009B00050460021224607B0BDE8F04F08F0DEB8EF
:1009C000454536DA304606F067FB02460B46002006
:1009D0003C4905F025F9CDE90201701E06F05CFBEB
:1009E00002460B460020374905F01AF9DDE90223DB
:1009F000CDE90401DDE9000106F0DEFC06F04CFE65
:100A0000DDE904230A2790FBF7FB0BFB17004FEAF5
:100A1000001BDDE9000106F0CFFC06F03DFE90FB77
:100A2000F7F303FB170083440AF805B0023E0135D3
:100A3000C6E709EB48094FF0020BC4EB090994FB28
:100A4000FBFB09F10109D84538DA484606F024FBDA
:100A500002460B4600201B4905F0E2F8064609F164
:100A600001000F4606F018FB02460B460020154910
:100A700005F0D6F832463B4604460D46DDE9000156
:100A800006F070FB06F008FE0A2690FBF6F707FB5F
:100A900016002B4607012246DDE9000106F062FB45
:100AA00006F0FAFD90FBF6F303FB160007440AF884
:100AB000087009F1020908F10108C4E707B0BDE8B0
:100AC000F08F00BF00002440124A517893784AF218
:100AD000130243EA0123934213D008D84AF21102C9
:100AE000934213D04AF21202934211D00DE04AF21F
:100AF0001402934207D04AF22202934205D1042005
:100B000070470220704703207047704700207047ED
:100B1000012070479D13002010B5074C6018114646
:100B200003F0EDF8054B1B781C4414F8073C1B1A26
:100B30005842584110BD00BF9D1300201E140020D4
:100B4000044B18795B7943EA0020431E5842584110
:100B5000704700BF9D130020044B9B79552B044B1D
:100B60000CBF012200221A70704700BF9D130020A5
:100B70002014002010B5084CE379552B01D1012039
:100B800010BD064801F055FBE3798342F7D0D0F160
:100B9000010038BF002010BD9D1300203414002038
:100BA00013B50D4B1C7A552C01D1012012E00B48D6
:100BB000694601F0E1FA00231A461DF803108C4241
:100BC000F3D019B90132D2B2052AEED00133052B88
:100BD000F3D1002002B010BD9D130020341400207A
:100BE00070B505461E46FFF797FF044698B12846A4
:100BF000FFF7A6FF044658B12846FFF7ADFF284689
:100C0000FFF7B8FF044648B946B10C480C4911E05B
:100C10000A480C490EE009480B490BE02846FFF74B
:100C2000BFFF044640B99DF810300BB9012403E022
:100C30000248064904F078FB204670BDA414002049
:100C4000FCD70008AAD70008D8D7000833D8000876
:100C5000254B13B51B78002B44D0002300930421AF
:100C600017220123FFF7BCFF002832D01F4C204879
:100C700004F10C0101F042FCA17AE37A1D4843EA39
:100C8000012101F0E7FA10B11B4B01221A70237AFF
:100C9000552B03D1194802F0B3F91AE0012B13D1F7
:100CA000124B1748997CF1290CD101F017F920B1AA
:100CB0001448012100F002FE0BE01349134804F030
:100CC00033FB06E0F021F0E70C480721012202F097
:100CD00051FB0F4B05481A78002102B0BDE81040C7
:100CE00007F04CBF02B010BD080000209D1300208B
:100CF00041140020331400201D140020861400200D
:100D000032140020311400206BD80008A4140020F5
:100D10001E140020174B07B51B7843B30023009324
:100D200004210A220123FFF75BFFB8B112481349DF
:100D300001F0E7F930B11249124804F0F5FA12480F
:100D4000032108E011490F4804F0EEFA104B0A2283
:100D50000D481A700421012202F00CFB0D4B0E48C5
:100D60001A78002103B05DF804EB07F007BF03B069
:100D70005DF804FB0800002034140020A5130020B7
:100D80008AD80008A414002086140020BAD80008CD
:100D9000871400201E1400209D13002013B500238B
:100DA000009304210F22FFF71BFF10B31D4C1E48B8
:100DB00004F10A0100F09DFE002830D01A4804F129
:100DC0000A0100F0D1FE50B31849194804F0ACFAFA
:100DD0001848E17901F000FAA0B11749144804F06D
:100DE000A3FA16480521012202F0C4FA0E4800F0C9
:100DF0008DFF134B0B481A78002102B0BDE810405C
:100E000007F0BCBE0A480F4904F08EFA0E4B0A22C6
:100E10001A700A480621012202F0ACFAE9E70448F8
:100E20000A49F1E79D130020371400204DD900082E
:100E3000A414002034140020EAD8000886140020EE
:100E40001E1400201CD90008871400207AD900083D
:100E50000D4B07B51B789BB100230093042105229D
:100E60000123FFF7BDFE10B1084802F0F1F9084B6D
:100E700008481A78002103B05DF804EB07F07EBE45
:100E800003B05DF804FB00BF0800002086140020BA
:100E90001E1400209D13002010B50446FFF714FE19
:100EA000032817D8DFE800F00207110C2046BDE840
:100EB0001040FFF7CDBE2046BDE81040FFF72ABF27
:100EC0002046BDE81040FFF7C3BF2046BDE81040F4
:100ED000FFF764BF10BD00002DE9F047404C00272C
:100EE00082462770002635463E4804F0D5F8002893
:100EF00033DD94F800903B4809F10103237004F0BE
:100F000077F8DFF8F48008F80900052004F004FC05
:100F100023781022434413F8011C334804F091FA5B
:100F20003148324904F0E5F994F90030002B43468A
:100F300002DA2B4A00211170F6B922781A4412F80D
:100F4000012C0D2A01D117E00126052DCCD1264810
:100F5000274904F0E9F90127C4E757B12549224898
:100F600004F0E2F95046FFF797FF00232370BDE835
:100F7000F0872770BDE8F087042DE5D8DFE805F09D
:100F8000030C151E27002278134413F8015CB5F1F9
:100F90000A035D425D4121E02278134413F8013CCD
:100FA0000D2B0CBF0225002518E02278134413F8FE
:100FB000013C0A2B0CBF032500250FE022781344C7
:100FC00013F8013C0D2B0CBF0425002506E0227808
:100FD000134413F8013C0A2BB9D00025012683E7FE
:100FE0001E140020BC140020A41400207EE200087F
:100FF000A7D90008CBD900089D13002008B5134BD2
:1010000013491A68096801328A421A601DD31149CE
:1010100000221A600B78DB43DBB20B700E490978B3
:1010200041B1012911D1182003B1114604F016FB7A
:10103000192005E0192003B9012104F00FFB182045
:101040000021BDE8084004F009BB08BD24140020BD
:101050002C140020211400202814002008B513208F
:10106000002104F06BFC1820002104F067FC19201B
:10107000002104F063FC1020022104F05FFC142026
:10108000022104F05BFC0321072004F057FC0A2036
:1010900004F042FB1820002104F0E0FABDE808400B
:1010A0001920002104F0DABA0F4B10B50F4C19705B
:1010B0000F4B20461A600121022204F0B3F82046AB
:1010C0000C4904F090F8012120460A4604F0AEF8DD
:1010D00020460121084A04F0B8F820460021BDE866
:1010E000104004F077B800BF2814002048150020F5
:1010F0002C140020A0860100FD0F000808B506484A
:1011000004F052F81820002104F0A8FABDE80840C5
:101110001920002104F0A2BA48150020014804F06B
:101120004BB800BF4815002030B58BB001AD284644
:101130000021242207F022FD0024072004F06AFA8F
:1011400005F0AAFF12A3D3E9002306F00BF8002252
:10115000114B06F007F806F0C7FA28514FF47A70E1
:10116000043404F0E7FA242CE7D109226B4608ACDA
:1011700053F8040F5968884284BF58601960A3422D
:10118000F6D1013A12F0FF02F0D105980BB030BD54
:10119000F163CC5D4BC8E93F00001840AFF300801D
:1011A00008B50120002104F0C9FB0120014604F02C
:1011B00055FA0020014604F0C1FB0420002104F090
:1011C000BDFB0520002104F0B9FB0420002104F040
:1011D00045FA0520012104F041FABDE8084000204D
:1011E000014604F03BBA0000014803F0B3BF00BF62
:1011F000BC14002008B561B10021052004F02EFACE
:10120000962004F089FABDE808400520012104F089
:1012100025BA08BD08B50021012004F01FFA0C48CA
:1012200003F09BFF0220002104F088FB0320002133
:1012300004F084FB0220002104F010FA03200021B6
:1012400004F00CFABDE808400520002104F006BABD
:10125000BC14002010B50B78452B12D14B78522BC3
:101260000FD18B78CC78303B03EB8303303C04EB1D
:101270004304E4B221460A22034804F0EBF8204676
:1012800010BD0A2010BD00BFA41400200B784F2B06
:1012900007D148784B2804D113704B780120537044
:1012A00070470020704730B50020C4B20D5D01309A
:1012B0002C2D01D01D55F8E7601C5525C0B21D55D9
:1012C000904204D20C5C1C540130C0B2F8E730BD2F
:1012D000F8B54C78432C08D18C78532C05D1CC78B8
:1012E000B4F151056C426C4100E000240026F5B2D7
:1012F0004F5D01363A2FFAD10135EDB20027954204
:10130000FEB207F1010706D811F805C0013501F852
:1013100006C0EDB2F3E73CB92046C2B2B2420BD2EE
:101320000A5C1A540130F8E7069A02241268147015
:10133000721ED2B2FFF7B7FF0120F8BD37B51548CE
:1013400009B9154900E0154903F0D3FF642004F002
:10135000E3F900240F4803F09FFE0028E5B208DD02
:10136000062C14D00B4803F043FE0DF804000134A2
:10137000F0E755B19DF802304F2B08D19DF80300DE
:10138000B0F14B035842584102E0284600E00020EB
:1013900003B030BDBC140020F6D90008FAD900080B
:1013A00010B504460120014604F058F907484FF4EF
:1013B000165103F0CFFE20460121FFF71BFF204608
:1013C0000121BDE81040FFF7B9BF00BFBC140020E9
:1013D0002DE9F0419EB005AD0C4607460021904630
:1013E00028466422039307F0C9FB21462C4803F0EA
:1013F00080FF642004F090F90024294803F04CFE9B
:101400000028E6B207DD642C45D0254803F0F0FD46
:1014100028550134F1E726B92249234803F084FF17
:1014200039E09DF814300D2B35D19DF815300A2B7D
:1014300031D11EAB334413F8653C0A2B2BD1023E4D
:101440001EAB334413F8643C0D2B24D10021CCB2E5
:10145000A31CDBB2B34201F1010107DA1EAA134457
:1014600013F8643C144404F8643CF0E73846294619
:10147000FFF7F0FE0A280CD103AB0093384629464B
:1014800022464346FFF724FF00280CBF032002201A
:1014900002E0012000E003201EB0BDE8F08100BFA3
:1014A000BC14002000DA0008A41400202DE9F0414B
:1014B000B2B006460D4690460021642268461F469B
:1014C00007F05CFB19A80021642207F057FB0024F9
:1014D000E3B2E85C013420B132AA134403F8640C8F
:1014E000F6E70146CAB25D1818F80240EDB232AA1A
:1014F00001312A4414B102F8644CF3E70D2302F8D9
:10150000643C6B1C32A8DBB203442F480A2203F868
:10151000642C036819A95B6898472C48AA1C0368C7
:1015200019A99B68D2B29847642004F0F5F82748BF
:1015300003F0B2FD0028E5B208DD642C3FD023485B
:1015400003F056FD0DF804000134F0E7002D36D00D
:101550009DF800300D2B32D19DF801300A2B2ED191
:1015600032AB2B4413F8C93C0A2B28D1023D32ABD5
:101570002B4413F8C83C0D2B21D100218B1CDBB26E
:10158000AB4201F1010209DA32A8034413F8C83C66
:10159000C9B2014401F8C83C1146EFE7304669463C
:1015A000FFF758FE0A2808D1304669463A46FFF749
:1015B0006DFE80F00100C0B202E0012000E00320D7
:1015C00032B0BDE8F08100BFA4140020BC1400209C
:1015D000F7B51E46044617460D4600218DF8071044
:1015E000FFF7ACFE03F004F8204631462FB12A463F
:1015F0000DF10703FFF7ECFE03E0089A2B46FFF717
:1016000055FF03282AD8DFE800F011040207002361
:1016100011E01648164901E01448164903F084FE0B
:1016200020460121FFF78AFE00201CE012490F48E6
:1016300003F07AFE12E09DF807205E1CDBB29A42AE
:101640000A4809D9E95C102203F0FBFE07480B4960
:1016500003F04FFE3346EEE703F050FE2046012133
:10166000FFF76CFE012003B0F0BD00BFA414002002
:1016700014DA000825DA00082EDA00087EE20008F5
:101680002DE9F0438BB004AF804600210922384693
:1016900002AE002407F072FA00944046314601225F
:1016A0002C4BFFF795FF054610B92B482B494BE013
:1016B0002346F25C07AC092A01D8303204E0A2F1DB
:1016C0000A01052998BF3732E2540133082BF0D1C3
:1016D0004FF0000922488DF8249000F0DBFC024610
:1016E000C0B120491C4803F01FFE1D48394600F0D8
:1016F00037FC50B14B46E15CFA5C914217D10133A3
:10170000082BF8D1144818491EE01849124803F074
:101710000BFE07E0009440463146154BFFF758FF9B
:10172000054698B121460E4800F072FC0AE01149C6
:10173000094803F0F9FD00974046314600220C4B62
:10174000FFF746FF054601E003F0EEFD28460BB02B
:10175000BDE8F0833ADA0008A414002045DA000856
:101760003214002065DA0008EDDA000883DA000898
:10177000A7DA0008B0DA00082DE9F04F89B002AF0F
:1017800007F10C068346894690461C4630460021E8
:101790000A2207F0F3F9002C48D1C7F804D05846C4
:1017A000CDF80080314601224B46FFF711FF8246FB
:1017B00008B1214602E03C483C496BE0CCB218F845
:1017C00004300131002BF9D1E11D01F4FC71ADEBC6
:1017D000010D02A9D8B2A04203D2F05CC854013373
:1017E000F8E70B46581AC0B2A0420DD213F8010B0D
:1017F000092801D8303004E0A0F10A05052DF1D800
:10180000373003F8010CEDE70025EBB2A3423FD2DD
:101810004B5D013508EB050010F8010C9842F4D03F
:101820002148234903F080FD7B689D466C460023D8
:10183000DAB219F8021001330A29F9D1931D03F421
:10184000FC73ADEB030DA2F1020E02AB0020C1B29E
:10185000551EA94200F1010003DA19F801505D5448
:10186000F5E700223D215A55584603F80E10CDF8F1
:1018700000803146FFF7ACFE054628B90A480D49FD
:1018800003F052FDAA4601E04FF0010AA54605E02B
:101890000548094903F048FD7B689D4650461C37C2
:1018A000BD46BDE8F08F00BFA414002017DB000880
:1018B0003DDB000894DB0008B6DB00087FB50F2293
:1018C00004460D466846002107F058F95C485D491A
:1018D00003F02AFD0A2602F08BFE2046002D65D17A
:1018E000FFF7CEFE58498DF80000584A2B46204697
:1018F000FFF742FF56498DF80100564A0123204662
:10190000FFF73AFF54498DF80200544A2B4620460F
:10191000FFF732FF52498DF80300524A2B4620460A
:10192000FFF72AFF50498DF80400504A0123204652
:10193000FFF722FF4E498DF805004E4A2B46204600
:10194000FFF71AFF4C498DF806004A4A2B462046FD
:10195000FFF712FF49498DF80700444A012320464A
:10196000FFF70AFF46498DF80800464A2B462046F5
:10197000FFF702FF44498DF80900444A2B462046F0
:10198000FFF7FAFE42498DF80A00324A0123204649
:10199000FFF7F2FE3F4A8DF80B003F492046012336
:1019A000FFF7EAFE0D228DF80C0007E02F4A2E49C2
:1019B0000123FFF7E1FE01228DF8000000231DF84E
:1019C0000310A9B935491E4803F0AEFC2046FFF7C5
:1019D000E7FC2046FFF71EFC02F00AFE2046FFF758
:1019E000DFFC4FF4FA6003F097FE02F001FE05E021
:1019F0000133D9B29142E2D304B070BD284803F05C
:101A00004BFB002803DD264803F0F2FAF6E7013E1F
:101A100016F0FF067FF45FAF1E2231462148FFF724
:101A200043FB2149064803F07FFC40F6B83003F041
:101A300073FE02F0DDFD04B0BDE8704002F00CBEA4
:101A4000A4140020CCDB0008EBDB0008F7DB000867
:101A500000DC0008FDDB00080ADC000816DC0008DA
:101A60001FDC00082BDC000834DC00083EDC00082A
:101A700041DC00084BDC00084EDC000858DC0008A4
:101A800062DC00086BDC00086EDC000878DC000813
:101A90007BDC000890DC000885DC000893DC000893
:101AA000BC14002030140020B0DC000810B5002168
:101AB0000446152003F042FF1520012103F0CEFD5E
:101AC0002046BDE81040FEF7BFBE08B5052003F074
:101AD00023FEBDE808401520012103F0BFBD08B575
:101AE0001520002103F0BAFDBDE80840052003F0F1
:101AF00013BE7FB504460E46FFF7F1FF0D2573199F
:101B00002946204613F80D2C0135FEF7CDFE162D83
:101B1000F5D13046092102F0F2F806462946204662
:101B20003246FEF7C1FE0D2529462046FEF78EFE01
:101B300001AB2B440135162D03F80D0CF4D101A88F
:101B4000092102F0DCF8B042204603D0FFF7BDFFC8
:101B5000002007E00B215522FEF7A6FE2046FFF7E6
:101B6000B4FF012004B070BD7FB504460E46FFF7F8
:101B7000B6FF172573192946204613F8172C01358F
:101B8000FEF792FE202DF5D13046092102F0B7F87C
:101B90000646294620463246FEF786FE1725294688
:101BA0002046FEF753FE01AB2B440135202D03F8F0
:101BB000170CF4D101A8092102F0A1F8B042204687
:101BC00003D0FFF782FF002007E00C215522FEF72B
:101BD0006BFE2046FFF779FF012004B070BDF0B521
:101BE00085B001AD06460F4628460021092206F0C1
:101BF000C5FF0D2421463046FEF728FE2B1901347F
:101C0000162C03F80D0CF5D121463046FEF71EFECA
:101C100009210446284602F072F8844206D10023C6
:101C2000EA5CFA540133092BFAD101E0002000E00C
:101C3000012005B0F0BDF0B585B001AD06460F46F8
:101C400028460021092206F099FF17242146304634
:101C5000FEF7FCFD2B190134202C03F8170CF5D1ED
:101C600021463046FEF7F2FD09210446284602F0DF
:101C700046F8844206D10023EA5CFA540133092B6A
:101C8000FAD101E0002000E0012005B0F0BD37B539
:101C90000C461E210546FEF7D9FD1F218DF80400D4
:101CA0002846FEF7D3FD02218DF8050001A802F0B9
:101CB00026F8207003B030BD10B50446FFF70FFFC3
:101CC000002220460B21FEF7EFFD2046FFF7FDFE28
:101CD00020460B21FEF7BAFDD0F1010038BF0020ED
:101CE00010BD10B50446FFF7FAFE002220460C2175
:101CF000FEF7DAFD2046FFF7E8FE20460C21FEF74E
:101D0000A5FDD0F1010038BF002010BD10B504467C
:101D1000FFF7E5FE552220462121FEF7C5FD2046AE
:101D2000FFF7D3FE20462121FEF790FDB0F15503C9
:101D30005842584110BD38B50446102003F078FCD5
:101D400008B1002038BD41F2883003F0E5FC1020D6
:101D500003F06EFC05460028F3D12046FFF7BFFED6
:101D60002A4620462121FEF79FFD2046FFF7ADFEC3
:101D700020462121FEF76AFDD0F1010038BF002086
:101D800038BD08B52121FEF761FDB0F15503584279
:101D9000584108BD70B504460D46FFF720FF20B13D
:101DA00020462946FFF747FF48BB20462946FFF754
:101DB00016FF48B11549164803F0B6FA20462946E1
:101DC000BDE87040FFF7D0BE20462946FFF733FF3D
:101DD00006460F4846B10F4903F0A6FA20462946A9
:101DE000BDE87040FFF785BE0B4903F09DFA204621
:101DF000FFF762FF2046FFF774FF304670BD0749CA
:101E0000034803F091FA012070BD00BFDCDC00083C
:101E1000A414002013DD00084ADD00085EDD000880
:101E200010B535210446FEF711FD552813D0204684
:101E3000FFF755FE552220463521FEF735FD204699
:101E4000FFF743FE20463521FEF700FDB0F15503B4
:101E50005842584110BD012010BD08B53521FEF78C
:101E6000F5FCB0F155035842584108BD10B5352175
:101E70000446FEF7EBFC98B12046FFF730FE002247
:101E800020463521FEF710FD2046FFF71EFE2046B6
:101E90003521FEF7DBFCD0F1010038BF002010BD7A
:101EA000012010BD10B54D210446FEF7CFFC55288A
:101EB00012D02046FFF713FE552220464D21FEF793
:101EC000F3FC2046FFF701FE20460021FEF7BEFC92
:101ED000003018BF012010BD012010BD37B58DF8AE
:101EE00007101031C9B2012904462BD84C21FEF746
:101EF000ADFC9DF8073083422AD0204602ADFFF7A3
:101F0000EEFD15F8012D20464C21FEF7CDFC0121F8
:101F1000284601F0F4FE4E2102462046FEF7C4FC9E
:101F200020464C21FEF792FC9DF807308342204664
:101F300005D1FFF7B7FF2046FFF7C7FD08E0FFF721
:101F4000C4FD03E00448054903F0EEF9002000E079
:101F5000012003B030BD00BFA41400208EDD0008B6
:101F6000F7B505460E464F2421462846FEF76EFC7F
:101F700000AB23440134572C03F84F0CF4D1082153
:101F8000684601F0BCFE214607462846FEF75EFC87
:101F900087420CD100231DF80320F2540133082B93
:101FA000F9D10448044903F0BFF9012000E0002002
:101FB00003B0F0BDA4140020C4DD000810B5582102
:101FC0000446FEF743FC55280CD02046FFF787FD5A
:101FD000204658215522FEF767FC2046BDE81040F8
:101FE000FFF773BD10BD10B558210446FEF72EFC57
:101FF00060B12046FFF773FD204658210022FEF70E
:1020000053FC2046BDE81040FFF75FBD10BD000047
:10201000F7B50F460446FFF762FD3846082101F088
:102020006EFE4F2506467B192946204613F84F2C95
:102030000135FEF739FC572DF5D1294620463246A9
:10204000FEF732FC4F2529462046FEF7FFFB00AB8A
:102050002B440135572D03F84F0CF4D16846082165
:1020600001F04DFE864207D02046FFF7BCFF204618
:10207000FFF72BFD002007E00449054803F054F961
:102080002046FFF79BFF012003B0F0BDD9DD00081B
:10209000A414002008B55821FEF7D8FBB0F1550371
:1020A0005842584108BD70B504460E461546FFF724
:1020B00016FD204632462221FEF7F6FB20462A4630
:1020C0002321FEF7F1FB2046BDE87040FFF7FDBC81
:1020D000FEF7BCBBFEF7BABB70B504460E4615460C
:1020E000FFF7FDFC204632462421FEF7DDFB2046AB
:1020F0002A462521FEF7D8FB2046BDE87040FFF7B1
:10210000E4BCF8B504460E46FFF7E9FC2625731932
:102110002946204613F8262C0135FEF7C5FB2B2D4A
:10212000F5D10521304601F0EAFD07462946204653
:102130003A46FEF7B9FB262520462946FEF786FBE0
:10214000731913F8263C834214D101352B2DF3D19A
:1021500020462946FEF77AFBB842204608D12C21BA
:102160005522FEF7A1FB2046FFF7AFFC0120F8BD8A
:10217000FFF7ABFC0020F8BD70B506460D462624DF
:1021800021463046FEF762FB2B1901342B2C03F855
:10219000260CF5D170BD38B50446FFF7A0FC262506
:1021A000002220462946FEF77FFB20462946FEF7FF
:1021B0004DFB024620B12046FFF787FC002038BDCA
:1021C00001352B2DECD120462C21FEF76DFB20464E
:1021D000FFF77BFC012038BD37B502AD04468DF812
:1021E0000710FFF77CFC15F8012D20462D21FEF786
:1021F0005BFB0121284601F082FD2E21024620468C
:10220000FEF752FB20462D21FEF720FB9DF80730FC
:102210008342204608D12F215522FEF745FB204658
:10222000FFF753FC012002E0FFF74FFC002003B052
:1022300030BD2D21FEF70ABB10B50446FFF74FFC59
:1022400020462D210022FEF72FFB2046FFF73DFC04
:1022500010BD00004A1F4AF6BB039A4270B50446FF
:102260000D4628D83221FEF7F1FA332106462046E2
:10227000FEF7ECFA40EA0620A84204D10F491048C4
:1022800003F052F815E02046FFF729FC20463221E2
:10229000C5F30722FEF708FB20463321EAB2FEF71A
:1022A00003FB204634215522FEF7FEFA2046FFF7B5
:1022B0000CFC012070BD002070BD00BFEEDD0008E9
:1022C000A414002038B532210546FEF7BFFA3321A9
:1022D00004462846FEF7BAFA40EA042038BD08B59D
:1022E0003421FEF7B3FAB0F155035842584108BD06
:1022F00008B51620002103F021FB1720002103F070
:102300001DFB1620012103F0A9F9BDE808401720A4
:10231000012103F0A3B91720002103F00FBB172000
:10232000042103F00BBB08B5FFF7F5FF17200121CF
:1023300003F094F90121162003F090F9052003F031
:10234000F9F90021172003F089F9062003F0F2F9CA
:10235000BDE808401620002103F080B908B5FFF75A
:10236000DAFF1620002103F079F91720002103F08D
:1023700075F90121162003F071F9062003F0DAF94E
:102380001720012103F06AF9BDE80840062003F098
:10239000D1B910B500210446162003F05FF920469C
:1023A000FFF7B9FF0021172003F058F9022003F0CE
:1023B000C1F90121162003F051F9052003F0BAF903
:1023C000BDE810401620002103F048B910B50021E7
:1023D0000446162003F042F92046FFF79CFF012136
:1023E000172003F03BF9022003F0A4F90121162085
:1023F00003F034F9052003F09DF9BDE810401620E4
:10240000002103F02BB970B50646FFF788FF0121C4
:10241000172003F023F9012003F08CF91620012185
:1024200003F01CF9012003F085F9FB25172003F0C8
:10243000FFF8044640B1013D15F0FF05F6D13046E6
:10244000FFF78CFF012070BD1620214603F006F92E
:10245000204670BD38B50C46FFF75DFF1620002101
:1024600003F0FCF8082524F07F0303F0FF01172098
:1024700003B1012103F0F2F80121162003F0EEF878
:10248000022003F057F91620002103F0E7F8013D80
:102490000220640003F04EF915F0FF05E4B2E2D12A
:1024A00038BDF8B505460F46FFF739FF082600246A
:1024B0000021162003F0D2F8022003F03BF9162089
:1024C000012103F0CBF864001720E4B203F0B0F868
:1024D00008B10134E4B20120013E03F02BF916F0FB
:1024E000FF06E5D1284617B9FFF770FF01E0FFF7B7
:1024F00050FF2046F8BD032001F026BD70B55E48B0
:102500000D46097800F037FD697806465A4800F014
:1025100032FD06EB8606594C06EB860600EB86007C
:10252000E080A978544800F026FD6071E9785248AF
:1025300000F021FD207129794F4800F01CFD6979D8
:10254000A0704D4800F017FDA97960704A4800F06E
:1025500012FD4B4920704B4802F0CBFEE1880A2265
:10256000484802F056FF4849464802F0C2FE6179E9
:102570000A22444802F06EFF4449424802F0B9FE84
:1025800021790A223F4802F065FF41493D4802F0A7
:10259000B0FEA1780A223B4802F05CFF3D49394871
:1025A00002F0A7FE61780A22364802F053FF3A494A
:1025B000344802F09EFE0A222178324802F04AFF97
:1025C00001F0B6FF642003F0A7F82046FEF7DEF81E
:1025D0000146324801F0D6FB642003F09DF801F07B
:1025E000ADFF2E4801F0D1FB01462046FEF742F830
:1025F000E1886423B1FBF3F1C9B21F4800F0B2FCDB
:102600002870E2884FF47A73B2FBF3F103FB1121D7
:102610001948C9B200F0A6FC68706179164800F04C
:10262000A1FCA8702179144800F09CFCA178E87006
:10263000114800F097FC617828710F4800F092FC77
:10264000217868710C4800F08DFC0024A871295D88
:1026500010220C4802F0F5FE01340A48104902F03D
:1026600048FE072CF3D1074802F048FEBDE8704051
:1026700004480C4902F058BE85140020381400208C
:102680000DDE0008A414002014DE00081CDE000883
:1026900022DE000829DE000833DE00084214002094
:1026A0007EE200083DDE000870B51C480D4601F0D2
:1026B0006CFB1B4C01462046FDF7DCFFE188194E00
:1026C0006423B1FBF3F1C9B2304600F04BFC287033
:1026D000E2884FF47A73B2FBF3F103FB1121304629
:1026E000C9B200F03FFC68706179304600F03AFCF6
:1026F000A8702179304600F035FCA178E8703046AA
:1027000000F030FC61782871304600F02BFC217815
:102710006871304600F026FCA87170BD421400209C
:10272000381400208514002070B54C4886B0FEF7A0
:102730002DF8044601F0FCFE0A2002F0EDFF2146D0
:10274000474801F01FFB464801F01FFB054645487E
:10275000FFF7C5FD444E002859D04248FFF7B2FDAF
:102760004AF6B103A0F10F029A42044619D93F4933
:10277000684603F028F8694603A803F045F8B42139
:1027800003A803F0D0F83A4903F0B1F801463948FC
:1027900002F0C0FD03A802F0D4FF684602F0D1FFAA
:1027A000B4243378012B0BD1B4F5966F03D92544AB
:1027B0006846314915E005F5966503A82F4938E0CC
:1027C000022B0BD1B4F5166F03D9254468462C496A
:1027D00007E005F5166503A82A492AE02A49254499
:1027E000684602F0F0FF694603A803F00DF82146A1
:1027F00003A803F098F81E4903F079F801461D4834
:1028000002F088FD03A802F09CFF684618E03378C8
:10281000012B04D105F5966503A81C4909E0022B9C
:1028200004D105F5166503A8194902E01949B43524
:1028300003A802F0C8FF0F4803A902F06BFD03A82C
:1028400002F07FFF14492A46054801F0A0FA0A2049
:1028500002F062FF01F072FE06B070BD3814002075
:1028600042140020331400204014002060DE0008D1
:1028700066DF0008A4140020D4DE00081DDF000875
:1028800068DF0008BADF00080EE000085AE0000820
:10289000CFE000084DE10008F724000830B51548E6
:1028A00085B0FDF773FF144C054601F041FE0A2088
:1028B00002F032FF2946204601F064FA204601F07A
:1028C00064FA0E49054601A802F07DFF01A90C48F3
:1028D00002F020FD01A802F034FF0A4905F561620B
:1028E000204601F054FA0A2002F016FF01F026FEFD
:1028F00005B030BD3814002042140020C4E10008A7
:10290000A4140020F72400080148112101F031BA75
:1029100042140020704701207047012070470000DA
:1029200010B5FF2301441A46884208D010F8014B25
:102930005440044A125D5A40034B1B5DF4E743EADE
:10294000022010BD090000200B01002070B5094DC8
:10295000094C064622782978084801F0BDF8287805
:10296000012102F07BFE2078012102F077FE304643
:1029700070BD00BF090100200A010020741400206E
:1029800010B5064C204601F03AF9204601F043F913
:10299000D0F1010038BF002010BD00BF741400202A
:1029A00010B54A2104460548FFF7EAFF28B123681D
:1029B00020461B6801219847012010BD8414002087
:1029C00070B5094C154620461E4601F018F92946F7
:1029D000204601F025F92046314601F021F9204634
:1029E000BDE8704001F017B974140020F8B5134821
:1029F00014461E460F469DF8185001F000F9214676
:102A00000E4801F00DF90D4801F005F90B4CA5B188
:102A10002A462046394601F007F90022237A551C40
:102A200033B10648D7B201F00DF92A46F055F5E763
:102A30000248BDE8F84001F0EEB8F8BD741400207B
:102A4000F0B51C4685B0012300930DF10F03154628
:102A500007460E46FFF7CAFF9DF80F309DF8282065
:102A600023EA040314402343384631462A468DF8AE
:102A70000F30FFF7A5FF05B0F0BD000013B500242F
:102A800071B1012213460B484A210094FFF7D8FF89
:102A90004A210094074802224023FFF7D1FF8021FA
:102AA000009104484A2102228023FFF7C9FF02B0A7
:102AB00010BD00BF8414002008B51E220F481F213E
:102AC00001F00AF838210D4801F099F806210B4869
:102AD00001F0A6F8094801F09EF84FF4FA7002F0F0
:102AE0001BFE0748FFF75CFF10B10648064901E0EE
:102AF00004480649BDE8084002F016BC94140020C2
:102B000044140020A414002048E2000861E20008F8
:102B1000F0B5334C85B00D461646FFF7CDFF392191
:102B20000122204601F080F8012002F0F5FD277A0D
:102B30001FB1204601F086F80746382101222848B7
:102B400001F072F8012002F0E7FD207A10B124486C
:102B500001F078F840EA072004F08EFA1EA3D3E9CA
:102B6000002304F0FFFA04F0BFFD1E4930601E4848
:102B700002F0BFFB31680A221B4802F07EFC0223F0
:102B800000931A4803AB4A210322FFF72FFF9DF859
:102B90000D209DF80C3002F00F0242EA03122D21A5
:102BA000D2B24A431B0902FA03F34FF47A72B3FB21
:102BB000F2F32B600E490C4802F09BFB29680A22B5
:102BC000094802F064FC0B49074802F0ADFB05B070
:102BD000F0BD00BFAFF300800AD7A3703D0A773F76
:102BE000941400207AE20008A41400208414002029
:102BF00080E2000897E2000808B50348FFF7A6FE48
:102C0000024A034B1A6008BD8414002020E2000829
:102C1000441400202DE9F0431E464D4B87B0186840
:102C20008846596801AC03AD03C4174600210A2247
:102C3000284605F0A3FF9DF8383006AC04F8143D93
:102C400020460621FFF76CFE030A8DF80B00414871
:102C50008DF80A30036821469B6808229847642053
:102C600002F05AFD00243B4802F016FA00285FFAF1
:102C700084F904F1010407DD364802F0B9F906AB26
:102C80004B4403F80C0CEEE73348344902F04CFB9C
:102C9000B9F1000F0FD132492F4802F045FB2E4801
:102CA0002E4902F041FB9DF80C909DF81440B9F1BB
:102CB000000F0ED019E000244C45ECD2295D0A2209
:102CC000254802F0BEFB2448264902F012FB0134DD
:102CD000F2E70DF10D000721FFF722FE9DF81530F8
:102CE00043EA042484420AD10EE028460721FFF774
:102CF00017FE9DF8133044EA032484420FD00023CA
:102D00004FF6FF7418481CE09DF811309DF8100034
:102D10009DF8124043EA00209DF8133009E09DF829
:102D200010309DF80F009DF8114043EA00209DF8F7
:102D3000123043EA042404F0FDFD0C4904F006FFC0
:102D4000E30BC8F800003C60337007B0BDE8F083C7
:102D500038E20008D4140020A41400209CE20008EB
:102D600045E700087EE2000800FF7F470000C842F8
:102D7000F0B516462A4A87B010680F46516801AC74
:102D80001D4603C4092206AC002103A805F0F6FE87
:102D900004F8145D20460621FFF7C2FD030A8DF8F2
:102DA0000B0020488DF80A30036821469B680822F2
:102DB0009847642002F0B0FC00241A4802F06CF935
:102DC00000280DDD174802F013F9651CEDB206ABC3
:102DD0001C44092D04F80C0C34BF2C460024ECE7ED
:102DE00003A80721FFF79CFD9DF813209DF81430E0
:102DF00043EA022383420CD19DF812309DF8110062
:102E00009DF80F2043EA00209DF8103043EA02238A
:102E100002E04FF6FF7318463860336007B0F0BD2C
:102E200040E20008D414002073B50121434D08206E
:102E300002F014FC642002F06FFC284600F0B8FD9C
:102E40003F4C01262060642002F066FC284600F01A
:102E5000C1FD3C4DA060642002F05EFC04F118014D
:102E600004F1100204F1140300962846FFF7D2FE85
:102E7000642002F051FC334604F11C0104F12002ED
:102E80002846FFF775FF642002F046FC04F1240297
:102E900004F10C012846FFF73BFE2B4D642002F0A5
:102EA0003BFC0820002102F0D9FB2846274902F00C
:102EB00020FA206804F002F9022602460B4600962A
:102EC000284602F099FB2846214902F012FAA06830
:102ED00004F0F4F8009602460B46284602F08CFBFC
:102EE00028461C4902F005FA23696421B3FBF1F17D
:102EF0000A22284602F0C1FA2846174902F0F9F9D9
:102F0000A06904F0DBF800960B460246284602F062
:102F100073FB2846114902F0ECF9E1690A222846C0
:102F200002F0ABFA28460E4902F0E3F9216A28467E
:102F30000A2202B0BDE8704002F09FBA8814002057
:102F40004C14002048140020A4140020A9E200081A
:102F5000BDE20008A3E20008B7E20008C8E20008EA
:102F6000D5E200080A22B1FBF2F302FB131202EBD6
:102F70000310C0B2704701F00F03090901EB810192
:102F800003EB4100C0B2704737B50C460C480DF159
:102F90000701FEF77CFE9DF807304FF47A70584326
:102FA000084902F07CFB9DF8073005466420584331
:102FB000054902F074FB2844206003B030BD00BF17
:102FC0003714002080841E00400D030070B50E46AB
:102FD00015460024E3B2AB42074809D2315D102206
:102FE00002F02FFA0448054902F083F90134F1E7B1
:102FF000BDE8704002F082B9A41400207EE200080F
:1030000030B595B040220546002104A805F0B6FD74
:10301000002414A941F8504D28466946FFF7B4FF33
:10302000009802F087FBFE238DF81030E0238DF826
:10303000113011238DF8123024238DF81330012321
:103040008DF81530444B8DF814401B7803B155238F
:1030500042488DF81630FFF7ECF801AC8DF81700F8
:1030600021463E48FFF788F8002304AA1A44E15C91
:103070000133052B1172F8D139482146FEF7AFFD17
:10308000002304AA1A44E15C0133092B5173F8D1DF
:1030900000240123222133488DF826308DF8274063
:1030A0008DF828408DF829408DF82A408DF82B4066
:1030B0008DF82C408DF82D408DF82E408DF82F4046
:1030C000FFF708F823218DF830002648FFF702F8B3
:1030D00024218DF831002348FEF7FCFF25218DF8CF
:1030E00032002048FEF7F6FF24218DF8330005A8B2
:1030F0008DF834408DF835408DF836408DF83740E6
:1031000000F0FDFD8DF83800E30704AB234404F123
:10311000010454BF0D220A22062C83F82920F3D182
:103120001149124802F000F904A928462F22FFF79E
:103130004DFF0F48FDF7E2FF0E4804A903682F2258
:103140009B6898474FF4FA7002F0E6FA0848FDF7DA
:10315000E5FF15B030BD00BF20140020341400205E
:103160003714002035140020E2E20008A4140020E7
:1031700030140020BC14002030B587B0142204465F
:10318000002101A805F0FAFC002506A941F8185D08
:1031900020466946FFF7F8FE009802F0CBFAFE23BE
:1031A0008DF80430E0238DF8053013238DF80630B8
:1031B00005238DF8073001238DF809301E4B8DF85B
:1031C00008501B7803B155231C488DF80A30FFF7CF
:1031D00030F801238DF80B00052102A88DF80C3082
:1031E00000F08DFD00238DF80D00DA0701AA1A44C6
:1031F00003F1010354BF0D210A21062B9172F4D172
:103200000F49104802F090F801A920461022FFF75C
:10321000DDFE0D48FDF772FF0C4801A9036810227E
:103220009B6898474FF4FA7002F076FA0648FDF76B
:1032300075FF07B030BD00BF2014002034140020FB
:10324000FEE20008A414002030140020BC1400206A
:1032500030B58DB01E220546002104A805F08EFC75
:1032600000240CA941F8244D2846ADF80840FFF78A
:103270008BFE039802F05EFA344B0094344802A9A6
:103280000122FEF7A5F9FE238DF81030E0238DF81A
:10329000113014238DF8123012238DF813300123CE
:1032A0008DF815302B4B8DF814401B7803B1552346
:1032B00029488DF81630FEF7BCFF01238DF8183031
:1032C000264B00241B788DF817009DF80810244821
:1032D0008DF819308DF81A408DF81B40FFF74BFE22
:1032E0009DF809108DF81C001D48FFF744FE1221BF
:1032F0008DF81D0005A800F002FD23468DF81E0084
:10330000DA0704AA1A4403F1010354BF0D210A216C
:10331000062BD173F4D11349134802F005F804A920
:1033200028461522FFF752FE1048FDF7E7FE104829
:1033300004A9036815229B6898474FF4FA7002F0BD
:10334000EBF90A48FDF7EAFE0DB030BD24E30008B2
:103350003114002020140020341400208714002091
:10336000851400202EE30008A4140020301400204F
:10337000BC140020F0B589B005460F461646002162
:10338000192201A805F0FAFB002408A941F8204DF4
:1033900028466946FFF7F8FD009802F0CBF9FE23B6
:1033A0008DF80430E0238DF8053015238DF80630B4
:1033B0000E238DF8073001238DF809302A4B8DF844
:1033C00008401B7803B1552328488DF80A30FEF7D2
:1033D00030FF00248DF80B00012302A80E218DF888
:1033E0000C308DF80D708DF80E408DF80F408DF873
:1033F00010408DF811408DF812408DF813408DF873
:1034000014408DF8154000F07AFC8DF81600E307A3
:1034100001AB234404F1010454BF0D220A22062CFF
:10342000DA74F4D11249134801F07EFF284601A94D
:103430001922FFF7CBFD1048FDF760FE0024E3B230
:10344000B3420BD20D4801A9036819229B68984723
:103450004FF4FA7002F060F90134F0E70648FDF726
:103460005DFE09B0F0BD00BF201400203414002020
:1034700048E30008A414002030140020BC140020ED
:10348000F0B50024ABB021460546142205A80194EE
:1034900005F074FB802221460AA805F06FFB2AA9DB
:1034A00041F8A04D2846FFF76FFD029802F042F95F
:1034B000C348FFF7B9FCFE238DF82830D0238DF8E0
:1034C000293001263023BF488DF82B308DF82C4051
:1034D0008DF82A608DF82D60FDF726FEBA4C030AA0
:1034E00027688DF82F00B94938468DF82E3004F042
:1034F00035FC28B1FF238DF830308DF831301AE0DB
:103500003846002104F00CFC18B107F10047276091
:1035100000E00646022301A821680422FDF724FAF0
:103520009DF804308DF830309DF805308DF831303D
:103530000EB1F22300E0E223A6688DF83230304667
:103540000023019304F014FC0138632803D9FF23FE
:103550008DF833300BE0022301A831460422FDF739
:1035600003FA9DF804308DF833309DF805308DF85E
:1035700034300021E223142205A88DF83530019162
:1035800005F0FCFAE268924B9A4207D9FF238DF8C6
:1035900036308DF837308DF8383019E08D4905A870
:1035A00005F054FD05A805F0D5FD05A9024601A8C2
:1035B000FDF7A2F99DF804308DF836309DF80530FE
:1035C0008DF837309DF806308DF838309DF807308B
:1035D000606A8DF83930E023FF228DF83A300026FA
:1035E000E12364288DF83B208DF83C208DF83D20A8
:1035F0008DF83E208DF83F30019604D98DF840209B
:103600008DF841200FE004F095F93346014604227D
:1036100001A8FDF7A9F99DF804308DF840309DF818
:1036200005308DF84130E02220698DF842208DF878
:1036300045208DF848204FF6FE72FF2390428DF80A
:1036400043308DF844308DF846308DF8473002D93C
:103650008DF8493016E05C4B1B7D012B08BFC0F58F
:10366000803004F067F95C4904F070FA02230146E7
:10367000042201A8FDF778F99DF804308DF849304F
:103680009DF805308DF84A30237DA669012B0CBFCB
:10369000F223E2238DF84B3030460023019304F0EF
:1036A00067FB642803DDFF238DF84C300BE0022319
:1036B00001A831460422FDF757F99DF804308DF832
:1036C0004C309DF805308DF84D30206AE2238DF89E
:1036D0004E304FF6FE7300269842019603D9FF2321
:1036E0008DF84F300DE004F025F9334601460422F1
:1036F00001A8FDF739F99DF804308DF84F309DF899
:1037000005308DF85030E069E0238DF851304FF6E8
:10371000FE7300269842019603D9FF238DF852309C
:103720000DE004F007F933460146042201A8FDF735
:103730001BF99DF804308DF852309DF8053003AC2C
:103740008DF853302548E02321468DF85430FEF79C
:10375000ABFF00230AAA1A44E15C0133072B82F86D
:103760002D10F7D10BA8302100F0C9FA00238DF8F5
:103770005C00DA070AAA1A4403F1010354BF0D21C1
:103780000A21062B82F83510F3D11549154801F0AE
:10379000CBFD0AA928463B22FFF718FC0948FDF794
:1037A000ADFC11480AA903683B229B6898474FF477
:1037B000FA7001F0B1FF0348FDF7B0FC2BB0F0BD8B
:1037C00048140020301400204C1400200000164340
:1037D000400D030060E300080000C84241140020CF
:1037E00066E30008A4140020BC1400202DE9F8436F
:1037F00000240F469046994625464C4513DA5FFA59
:1038000088F60121304601F029FF0A2001F084FFEB
:10381000F8B201F00DFF002100EB4505304601F044
:103820001DFF0134E9E72846BDE8F88370B5D4B23E
:103830001D46EDB20E462046002102F07FF82846D4
:10384000002102F07BF82046012101F007FF284605
:10385000012101F003FF2046002101F0FFFE284670
:10386000002101F0FBFE2846012101F0F7FE204671
:10387000012101F0F3FE2846002101F0EFFEF3B232
:1038800001222046294601F015FF2846012101F0BA
:10389000E5FE2046022102F051F8204601F0C8FE64
:1038A0002846002101F0DAFE2046BDE8704001F014
:1038B000BFBE38B5CDB22846022102F03FF86424DD
:1038C0000A2001F029FF284601F0B2FE08B1013CB0
:1038D000F6D138BD2DE9F843CCB2154680460E46E8
:1038E000EFB22046022102F029F83846002102F00A
:1038F00025F82A46082331464046FFF777FF002186
:103900004FEA0029204602F019F82046012101F073
:10391000A5FE2046002101F0A1FE3846012101F05C
:103920009DFE3846002101F099FE2046022102F05A
:1039300005F8404631462A460823FFF757FF49EA73
:103940000000BDE8F88338B51446CDB2E4B228468D
:10395000002101F0F3FF2046002101F0EFFF28468F
:10396000012101F07BFE2046012101F077FE204677
:103970000021BDE8384001F071BE38B590E80C0078
:1039800004460321FFF752FF20462168FFF791FF0D
:1039900094E806002046FFF79DFF94E806000546E0
:1039A0002046FFF7D0FF284603F0C8FF38BD0000CF
:1039B00008B5FFF7E2FF04F0DBF903F0BFFF0349AE
:1039C00004F010F8024903F003FF08BD0AD7233CB6
:1039D00000002042F8B590E80C0004460521FFF7EE
:1039E00025FF20462168FFF764FF94E80600204683
:1039F000FFF770FF94E8060005462046FFF7A3FF97
:103A0000284603F09BFF1E49064603F0EBFF4FF0EC
:103A1000814103F0DDFE1B490546304603F0E2FF1D
:103A2000314603F0DFFF0146284603F0D3FE074688
:103A30002046FFF7BDFF03F041FB0022124B03F0CD
:103A4000DDF904460D463046104903F0CBFF10491E
:103A500003F0C0FE03F032FB02460B462046294627
:103A600003F080FB044638460D4603F027FB024670
:103A70000B462046294603F0C3F903F055FEF8BD76
:103A800054E3253DA2E73BB600003940ACC5A7385A
:103A90000AD7233C024B1D211C2283E806007047F5
:103AA000881400200A4B1A680A4B9B6800BF00BFAD
:103AB000074909688A42F5D1C3F58C33482103F5DB
:103AC000A073B3FBF1F34FF47A7000FB0230704740
:103AD0008815002010E000E010B5044680E80600DC
:103AE000D0B2002101F02AFF2078002101F026FF4A
:103AF00000232079E360012101F0B0FD207801214D
:103B0000BDE8104001F0AABD38B5C36804460D46B3
:103B100023B10021C160007801F010FF2078294610
:103B2000BDE8384001F09ABD10B500210446FFF70A
:103B3000EBFF642001F0FEFD2079002101F08EFDF5
:103B4000BDE81040642001F0F5BD10B50021044629
:103B5000007901F083FD642001F0ECFD2046002196
:103B6000FFF7D2FF642001F0E5FD2079012101F08B
:103B700075FD642001F0DEFD20460121FFF7C4FF42
:103B8000BDE81040642001F0D5BDF8B504460E46EE
:103B90000825F7092079002101F060FD204639460B
:103BA000FFF7B2FF0121207901F058FD642001F0F8
:103BB000C1FD20463946FFF7A7FF7600013DF6B26A
:103BC000E7D12946207901F049FD2078022101F052
:103BD000B5FE0223E3602079012101F03FFDFFF7EC
:103BE00061FF0546207801F023FD30B1FFF75AFF51
:103BF000401B6428F6D90020F8BD0120F8BD38B577
:103C00000D460446FFF790FF6900204601F0FE01D3
:103C1000FFF7BBFF38BD08B5FFF797FF002008BDD1
:103C200008B5FFF7B2FF08BD70B50D466D0004463C
:103C30001646FFF779FF691CA6602046C9B2FFF758
:103C4000A4FF70BD70B586680446002E55D000787C
:103C5000022101F073FE0223E3600825002620798B
:103C6000002101F0FBFC0121207901F0F7FC642028
:103C700001F060FD207801F0DBFC013D00EB460027
:103C800000F0FF06EBD1A3686068013B002BA36046
:103C9000C0B2294617DD01F0E1FC642001F04AFDC5
:103CA00029462046FFF730FF642001F043FD2079CC
:103CB000012101F0D3FC642001F03CFD207929466C
:103CC00001F0CCFC19E001F0C9FC642001F032FDE8
:103CD00001212046FFF718FF642001F02BFD012190
:103CE000207901F0BBFC642001F024FD20792946F5
:103CF00001F0B4FC2046FFF728FF304670BD0023DA
:103D000030B5054618468B420FDAEA5C504008226F
:103D100010F0010F4FEA60041ABF84F0E000C0B257
:103D2000E0B2013AF4D10133EDE730BD122938B5E4
:103D30000546144608460BD0132910D0112916D178
:103D400000F07CF80CB120460FE047F6FF700CE065
:103D500000F074F8002CF6D149F63F4005E000F081
:103D60006DF8002CEFD14FF2234000F06BF928469C
:103D700038BD13B50022044601A8FFF7D7FF20463F
:103D800002B010BD084600F043B900F02FB910B5DD
:103D900010460C4600F070F921460320BDE81040A3
:103DA00000F0A2B8054B1B681B685B0103F184435C
:103DB00094331A68002AFCD0704700BF0C02002020
:103DC000054B1B681B685B0103F184438C331A6845
:103DD000002AFCD0704700BF0C02002008B5FFF796
:103DE000E1FF054B00221B681B685B0103F1844364
:103DF000C3F88C2008BD00BF0C02002008B5FFF7F7
:103E0000D1FF054B01221B681B685B0103F1844352
:103E1000C3F8902008BD00BF0C02002008B5FFF7D2
:103E2000C1FF054B00221B681B685B0103F1844343
:103E3000C3F8902008BD00BF0C02002010B5044656
:103E400000F069FB00F074FB204A112C136A23F484
:103E50004073136213460BD005D8C4B1102C2AD17D
:103E60000023136227E0122C11D0132C1AD022E069
:103E7000174A00211160012142F8081C154A1268F6
:103E800012F0FF0FFAD01A6A42F4807212E0124A5E
:103E900001211160114A1268002AFBD01A6A42F40B
:103EA000007207E00E4A126812F0FF0FFAD01A6A89
:103EB00042F440721A620B4B01221A60FFF78EFF28
:103EC000FFF77EFFBDE81040FFF76CBF0010024017
:103ED00008044242040442428004424284044242B2
:103EE000440042423C04424238B5144D04462B681B
:103EF00003EB80035960FFF755FF032C09D1104AEB
:103F000001231360C2F800310E4B4FF400725A6067
:103F100038BD2B6801221B68944204EBC3034FEAAF
:103F2000830303F184431A6003D002D3022C00D030
:103F300038BD044B08221A6038BD00BF0C020020B7
:103F40004480204200E100E010B50446FFF72AFF5C
:103F5000032C0B4B05D10B4900220A60C1F800214C
:103F600008E01A680021126804EBC202920002F114
:103F7000844211601B6803EB84040023636010BD5E
:103F80000C02002044802042F8B5104B1E683568B2
:103F90002B686F681F4017F0010403D074680CB1E0
:103FA000A0470124BA0704D5B36813B1984744F079
:103FB00002047B0704D5F36813B1984744F0040466
:103FC0006B6823EA04046C60F8BD00BF0C0200209B
:103FD00008B5044B1B681B691BB19847024B0122B3
:103FE0001A6008BD0C020020C482204208B5FFF709
:103FF000F5FEFFF7E5FEFFF7D5FE044B1B681B68D7
:104000009869DB699BB243EA004008BD0C020020BE
:1040100010B50446FFF7E2FEFFF7D2FEFFF7C2FE3F
:10402000FFF7ECFE064B220C1B68A4B21B689A61DA
:10403000DC61FFF7F3FEBDE81040FFF7B3BE00BF41
:104040000C02002010B50446FFF7C8FEFFF7B8FECB
:10405000FFF7A8FEFFF7D2FE064B220C1B68A4B2A6
:104060001B689A60DC60FFF7D9FEBDE81040FFF7DF
:1040700099BE00BF0C02002010B50446FFF7AEFE4B
:10408000FFF79EFEFFF78EFEFFF7B8FE064B220CF1
:104090001B68A4B21B681A625C62FFF7BFFEBDE832
:1040A0001040FFF77FBE00BF0C02002070470000E9
:1040B0000B4B10B5196809220A230A4801F000F8D1
:1040C000094B022219680948032300F0F9FFBDE8F3
:1040D0001040074B074819681A221B2300F0F0BF55
:1040E00030030020A414002034030020BC1400205E
:1040F00038030020D414002010B5044600F0F0F975
:10410000034B20461978BDE8104000F075B900BF98
:1041100028020020F8B50446056800F0D7FB2268A5
:104120000023510101F184410B60802129600121AC
:10413000A9622B61EB606379696113B18B4203D093
:104140002BE04FF400436B644FF6FF73D3620025FE
:104150006E1CF7B22046394600F0C2FBD0B123688E
:1041600048F6FF7103F1340242F8251018336D1040
:1041700017F0010F53F8252014BF6FF0FF016FF403
:104180007F4101EA020214BF68214FF4D0410A4383
:1041900043F82520042E3546DAD1216801224B014F
:1041A000490103F1844301F18441C3F880220A608C
:1041B000F8BD000038B5274B274C1A68022042F0A2
:1041C00010021A6000F0C0F90025002000F08AFA01
:1041D00065602368182023F40023236000F08FFA21
:1041E000102000F08CFA00F043F8A560102000F0D9
:1041F00079FA102000F0A0FA0028FAD000F039F87F
:10420000164800F0A5FA182000F06CFA182000F00B
:1042100093FA0028FAD0022000F054FA00214FF05F
:10422000006000F001FA0E4800F008FB00F038F8DA
:104230000C4B188800F042F90B4800F043F90B488A
:1042400000F030FB00F02EF800F02DF8FFF72EFF05
:1042500038BD00BF00200240001002402C020020A8
:104260003F1901002A020020F9400008154100080A
:10427000704708B50020014600F0B8FA01204FF45D
:10428000806100F0B3FA0021022000F0AFFA2D2087
:1042900000F0BCFABDE808400320002100F0A6BAF7
:1042A00000F05CB9704700F099B9000001498D46F3
:1042B0000149084700500020BD42000808B5124BD4
:1042C000124A1968914201D0002301E0104B07E027
:1042D0001048D4188442F9D2C858D0500433F7E7B4
:1042E0000D4A934203D2002243F8042BF8E704F06E
:1042F00095F800200146024600F0CAFF074B0BB1BB
:1043000004F07CF8FEE700BF4CE900080000002044
:10431000781300207813002090150020FD830008FA
:1043200008B50D4B1A680AB90C4A1A601B680C4A8A
:10433000D21A824204DB09494242591A914206DAF2
:1043400004F056F80C2303604FF0FF3008BD024A1A
:1043500018441060184608BDEC1400209015002089
:10436000E8250128FEE70000000000000000000032
:10437000012007E0022005E0032003E0042001E023
:104380000520FFE70D4A0121116072B60C4A002199
:104390001160074902B4084902B486B005498E4647
:1043A000704700BFAFF30080AFF30080AFF3008031
:1043B00000000061F9FFFFFF794F000814ED00E0F5
:1043C00010E000E0AFF30080AFF30080AFF30080B7
:1043D000FEE710B50446007900F0D6F92079BDE873
:1043E000104000F0E9B903689A6822F4602242F4B0
:1043F0008012114399607047002370B51A461C461D
:10440000072B4FEA430503DCEE1801FA06F63443A6
:104410001D4401FA05F501330A2B42EA0502EFD1EA
:104420000368DC601A6170BD0368DA6A22F0F87212
:10443000DA6259639A6842F480029A601A689207B5
:10444000FCD5D86C80B2704738B5124D2A68136815
:104450001C68A10706D5196821F00201196093684C
:1044600003B19847620708D52B681A681B69116861
:1044700021F00401116003B19847E30708D52B68C8
:104480001A68DB68116821F00101116003B19847D7
:1044900038BD00BF58020020036801225B0103F110
:1044A000844303F58673191F1A6018680028FCD12D
:1044B00043F8042C0B68002BFCD170470146042004
:1044C00000F094B9044B10B504461868A047034B9C
:1044D0001868A04710BD00BF5802002054020020F9
:1044E00010B50446FFF775FF20464FF46021FFF733
:1044F0007AFF2368012103F1404308335A015B012D
:1045000002F1844203F18443116520461960BDE83D
:104510001040FFF7C1BF08B5142000F035F90420A2
:1045200000F032F9BDE80840042000F045B9000071
:10453000014B01221A60704720000E42014B0022FD
:104540001A60704720000E42034B1A6822F00702DF
:1045500010431860704700BF0020024008B50748AC
:1045600001F093FA064801F090FA064801F08DFA3E
:10457000BDE80840044801F088BA00BF5C02002092
:10458000640200206C0200207402002070B501F06B
:104590000704A4000F25A5400368C80853F820604D
:1045A000092A26EA050514BF1646082606FA04F469
:1045B000082A44EA050443F8204006D1012000FA05
:1045C00001F1DA6822EA010106E0092A05D1012099
:1045D00000FA01F1DA681143D96070BD08B5032013
:1045E00000F0D2F8BDE80840032000F0E5B8000074
:1045F000024B4AF6AA221A60704700BF0030004002
:1046000000284FEA011105DA064B00F00F00C9B28D
:104610001954704700F16040C9B200F5614080F85C
:104620000013704714ED00E021F0604138B521F02F
:104630007F01084B0843986000241D4660B20F219B
:104640000134FFF7DDFF2B2CF8D1F02385F8233060
:1046500038BD00BF00ED00E0044A054BD16801F40D
:1046600040710B43D360BFF34F8FFEE700ED00E0D6
:104670000400FA05014B1860704700BFA0000E420D
:10468000074B1A6842F001021A601A6842F00202EF
:104690001A60044B1A6942F004021A6130BF704775
:1046A0000070004000ED00E0024B1A6842EA800012
:1046B0001860704700700040014B13F810007047FD
:1046C00028E60008064B5A6822F0030202435A60AB
:1046D00080005A6802F00C028242FAD1704700BF93
:1046E00000100240030A0121C0B201FA00F003F1F8
:1046F000804303F504331A68104318607047030AB7
:104700000121C0B201FA00F003F1804303F5043344
:104710001A6822EA000018607047030A0122C0B23A
:1047200002FA00F003F1804303F504331B681842DA
:104730000CBF002001207047030A0222C0B202FA17
:1047400000F003F1804303F504331B681840704701
:1047500038B54368044618201D68FFF7DEFF20B116
:1047600006488121064A00F011FC064B21685A6870
:104770000D4322F4741215435D6038BDB8E500089E
:104780000CE600080010024010B50446FFF794FF45
:10479000074B53F82020074B03EB4404637803EBEB
:1047A000C2039B0003F1844301221A6010BD00BFC5
:1047B0007C02002028E6000810B50446FFF77CFFC5
:1047C000084B53F82020084B03EB4404637803EBB9
:1047D000C2039B0003F1844301221A6000221A6085
:1047E00010BD00BF8802002028E6000810B5054B68
:1047F000054C5A6854F8200022EA0002114359601F
:1048000010BD00BF0010024084E6000810B5044649
:10481000FFF752FF074B53F82020074B03EB4404EC
:10482000637803EBC2039B0003F1844300221A6008
:1048300010BD00BF9002002028E60008024B0722AE
:1048400058601A60704700BF10E000E008B5044BE4
:104850001A6801321A60034B1B6803B1984708BD00
:1048600088150020F014002011F0010F70B542EA05
:1048700003030CBF0825002503FA05F5006801F1C4
:10488000FF3400F11800C4F3400450F8241014BFA2
:104890006FF0FF066FF47F463140294340F8241043
:1048A00070BD000010B504460448A0470448A04766
:1048B0000448A0470448A04710BD00BFE402002000
:1048C0000C0300209C020020C002002010B504460A
:1048D0000079FFF759FF2079BDE81040FFF76CBF62
:1048E00003791E2B10D9212B0ED0202B0ED9222B71
:1048F00001D0252B04D102298CBF00200120704754
:104900004B1E5842584170470120704700207047A5
:104910008B1C40F823200368012203F140430C3331
:1049200001EBC3039B0003F184431A6042790379CE
:10493000FAB9B3F11A025342534107294BD8DFE8C1
:1049400001F004090909090E0E13002B0CBF2C23DA
:10495000192337E0002B0CBF2E231B2332E0002B42
:104960000CBF2D231A232DE0002B0CBF2B23182363
:1049700028E01B3B0C2B1CD8DFE803F021230709A0
:104980000B0D1B0F1113151719001E231AE03223EC
:1049900018E0362316E0372314E0182312E0192319
:1049A00010E01A230EE02B230CE02C230AE02D2329
:1049B00008E0094840F2BF11084A00F0E7BA1C239A
:1049C00000E01D235909012203F01F0302FA03F33B
:1049D000034A42F82130704798E60008FEDB0008E1
:1049E00000E100E00368002203F140430C3301EBD7
:1049F000C3039B0003F1844302311A6040F8212075
:104A000070470000F8B54E1EF3B2032B04460D4666
:104A1000174604D92648DA21264A00F0B7FA637906
:104A2000022B43D0032F41D8DFE807F002122235D2
:104A300020462946FFF7D6FF236803F14043203381
:104A4000DB0003EB8606B60006F18446002320E077
:104A50002368002203F140430C3305EBC3039B00A2
:104A600003F184431A60204629466022082303E0AC
:104A70002046294610220023FFF7F6FE236803F1A3
:104A800040432033DB0003EB8606B60006F1844684
:104A900001233360F8BD23684FF2F1229A610322AB
:104AA0009A605B0103F1844301221A60F8BD00BFE4
:104AB00098E60008EBE6000810B5074B1C68E168B3
:104AC00022690A40120606D55B6A23B1984723691A
:104AD00023F08003236110BDE402002010B5074BD2
:104AE0001C68E16822690A40D20706D59B6823B199
:104AF0009847236923F00103236110BDE4020020DD
:104B0000F8B50C4F3D68EB682E691E4016F0400466
:104B100003D03C6A0CB1A0474024B30604D5FB691E
:104B200013B1984744F020042B6923EA04042C6154
:104B3000F8BD00BFE4020020F8B5134F3E68F368EB
:104B400035691D4015F0100403D0BC690CB1A047B5
:104B50001024290704D57B6913B1984744F0080451
:104B60006A0704D53B6913B1984744F00404AB07C6
:104B700004D5FB6813B1984744F00204336923EA73
:104B800004043461F8BD00BFE4020020F8B51A4EF9
:104B90003768FB683D691D4015F0400403D0346A56
:104BA0000CB1A0474024EB0604D5B36913B1984774
:104BB00044F01004280704D5736913B1984744F0F2
:104BC0000804690704D5336913B1984744F0040415
:104BD000AA0704D5F36813B1984744F00204EB0721
:104BE00004D5B36813B1984744F001043B6923EA44
:104BF00004043C61F8BD00BF0C030020F8B51A4E58
:104C00003768FB683D691D4015F0400403D0346AE5
:104C10000CB1A0474024EB0604D5B36913B1984703
:104C200044F01004280704D5736913B1984744F081
:104C30000804690704D5336913B1984744F00404A4
:104C4000AA0704D5F36813B1984744F00204EB07B0
:104C500004D5B36813B1984744F001043B6923EAD3
:104C600004043C61F8BD00BF9C020020F8B51A4E58
:104C70003768FB683D691D4015F0400403D0346A75
:104C80000CB1A0474024EB0604D5B36913B1984793
:104C900044F01004280704D5736913B1984744F011
:104CA0000804690704D5336913B1984744F0040434
:104CB000AA0704D5F36813B1984744F00204EB0740
:104CC00004D5B36813B1984744F001043B6923EA63
:104CD00004043C61F8BD00BFC00200208188026866
:104CE000034689B2505C99881A8989B292B291427E
:104CF00017BF9A880022013292B2C0B29A807047E0
:104D0000C28838B5838892B29BB201329A42044677
:104D10000D461AD0C288038992B29BB29A4202D140
:104D200083889BB28BB14FF0FF30E288236892B248
:104D30009D54E288238992B29BB29A4217BFE388BE
:104D4000002301339BB2E38038BD2046FFF7C6FF46
:104D5000EBE770B51E460546084611460422059C41
:104D6000FFF714FC9DF810100B223046FFF70EFCE5
:104D70002B6804F00F01DA6804F0300422F4F052DA
:104D80001204120C42EA4122DA601A6922F44052FB
:104D90001204120C42EA04241C6170BD38B50446AA
:104DA000154611B900F096F8014619235943AD0094
:104DB0006423B1FBF5F1B1FBF3F21201100903FB1F
:104DC000101109013231B1FBF3F303F00F03216835
:104DD0001A4392B28A6038BD38B5114DEB68980617
:104DE00007D52B68990604D569680E48C9B2FFF744
:104DF00087FFEB680A4C1A0611D523681B060ED5EF
:104E000009488288C38892B29BB29A4203D0FFF7C6
:104E100065FF606038BDE36823F08003E36038BD60
:104E20000038014000150020F414002038B5114D61
:104E3000EB68980607D52B68990604D569680E4873
:104E4000C9B2FFF75DFFEB680A4C1A0611D523685B
:104E50001B060ED509488288C38892B29BB29A423B
:104E600003D0FFF73BFF606038BDE36823F08003A9
:104E7000E36038BD004400400C15002024150020DC
:104E800038B5114DEB68980607D52B68990604D5FF
:104E900069680E48C9B2FFF733FFEB680A4C1A067F
:104EA00011D523681B060ED509488288C38892B2A3
:104EB0009BB29A4203D0FFF711FF606038BDE368F0
:104EC00023F08003E36038BD00480040181500203F
:104ED0003015002008B590F89002FFF7EDFB20B1E7
:104EE0000128034818BF002008BD024808BD00BFC4
:104EF00000A24A040051250213B504468DF807109C
:104F000020460DF10701012200F01AFE0028F7D01B
:104F100002B010BD38B505464C1E14F8011F19B17A
:104F20002846FFF7E9FFF8E738BD000008B5114B48
:104F300001211C6803222046FFF728FB00230121E2
:104F40001A469342206834BF02254FF40035B2F56B
:104F5000007F056103F1010303D0002A08BF01218E
:104F600001E04FF0FF31B3F5007F04BF521800237A
:104F7000E7E700BFB4E5000808B5034B0BB1AFF39A
:104F8000008062B6FFF7D2FF00000000F8B5144BB6
:104F900006460D4617460BB3AFF300801149044691
:104FA000FFF7B8FF20463946FFF7B4FF20460E4909
:104FB000FFF7B0FF20463146FFF7ACFF20460B4914
:104FC000FFF7A8FF2046294600F008FE20460A21E8
:104FD000FFF792FF20460D21FFF78EFFFFF7CCFF72
:104FE0000000000007E700081DE700087DE2000858
:104FF00003695B68D9889A8889B292B2D8888A1A7C
:10500000998880B289B2884203D2198989B2013164
:105010000A4492B282B199881A6889B2505C998820
:105020001A8989B292B2914217BF9A88002201323E
:1050300092B2C0B29A8070474FF0FF307047036958
:105040005B689988DA8889B292B2914205D09A88D1
:105050001B6892B2985CC0B270474FF0FF30704747
:1050600003699A689088D18880B289B28842F9D160
:105070001A6813685B06FCD5704713B504698DF890
:10508000071020460DF10701012200F059FD00280C
:10509000F7D0012002B010BD03695B68D8889A88F8
:1050A00080B292B2D988801A9A8889B292B291421B
:1050B00003D21B899BB20133184480B270470000B1
:1050C00030B5002545604FF47A758560024D016169
:1050D00005600275437530BD50E7000803692DE98E
:1050E000F74FDB68044699420F4692462CD890F859
:1050F0001480174D4FEA081808EB050690F8159034
:1051000070684FEA091909EB050B717B10B1002299
:10511000FFF778FC206900F0C3FC337B9BF80C2080
:1051200020698DE8080459F8051058F80530FFF794
:1051300010FE206900213A46FFF730FE206903B0D7
:10514000BDE8F04F00F0D6BC03B0BDE8F08F00BF63
:1051500084E300080022FFF7C1BF006900F0D4BC5F
:10516000044B02791B789A4202D1034B1B681860EA
:10517000704700BF4C15002050150020002310B5CB
:105180000446036072B6054B19311970044B186060
:105190000448FFF787FB62B6204610BD4C1500207F
:1051A0005015002061510008036800221B685B0154
:1051B00003F184431A607047036801221B685B0196
:1051C00003F184431A607047036801391B6889B290
:1051D0009962704703681B68DA6A92B2914228BFED
:1051E00011465962704738B5054639B9036801223E
:1051F0001B689962DA62D86A80B238BD48244C4391
:105200004FF6FF71B4FBF1F1013189B204EB5104A7
:10521000B4FBF1F4FFF7D8FF2B68A4B21B6820465B
:10522000DC6238BD0068C9B2FFF7ECBB0368C9B2E5
:105230001B6801F18041D86A013980B2343382425F
:1052400028BF024643F8212070470068C9B2FFF723
:105250005FBB000008B501210848FFF78FFF02215E
:105260000748FFF78BFF03210648FFF787FFBDE8DC
:10527000084005480421FFF781BF00BF3C1500200E
:10528000401500204415002048150020FEF792BF6D
:1052900008B5FBF765F8FBF7DBF9FCE770B50546E9
:1052A0000E460024315D29B12A68284612689047CD
:1052B0000134F7E7204670BDF8B505460C461646A2
:1052C0008F18BC4206D02B6828461B6814F8011BB7
:1052D0009847F6E73046F8BD10B502680B4694686B
:1052E00009689A68A04710BD08B503681B6898470D
:1052F00008BD08B503685B68984708BD38B50D213F
:105300000546FFF7F1FF0A2104462846FFF7ECFFA8
:10531000204438BD38B50446FFF7DEFF0546204679
:10532000FFF7ECFF284438BD38B50446FFF7E1FF2E
:1053300005462046FFF7E2FF284438BD2DE9F04F2F
:1053400014461D4691B054EA050381469DF868B0A5
:1053500004D13021FFF7C8FF01202EE04FF00008F4
:105360005FFA8BF600272046294632463B4602F07C
:1053700025FD08F101080DF1000AC2440AF8012CCC
:10538000204629463B46324602F018FD04460D46AB
:1053900054EA0503E4D1002408F1FF381DF8081091
:1053A0004846092994BF30313731C9B2FFF79CFF15
:1053B0000444B8F1000FEFD1204611B0BDE8F08FE2
:1053C0002DE9F041069F064614461D462FB9036895
:1053D000D1B21B689847BDE8F081002C75F100033D
:1053E00005DA2D21FFF780FF644265EB4505FFB22A
:1053F0000697304622462B46BDE8F041FFF79EBF98
:1054000007B5CB1700920A46FFF7DAFF03B05DF845
:1054100004FB38B50446FFF7F3FF05462046FFF7C7
:105420006DFF284438BD70B5049921B90368D1B225
:105430001B68984770BDC9B20491BDE87040FFF782
:105440007DBF07B500230092CAB2FFF7ECFF03B09F
:105450005DF804FB38B50446FFF7F3FF0546204628
:10546000FFF74CFF284438BD07B5002300920A46D9
:10547000FFF7D9FF03B05DF804FB38B50446FFF72A
:10548000F3FF05462046FFF739FF284438BD07B52E
:10549000002300920A46FFF7C6FF03B05DF804FB45
:1054A0002DE9F74F19460646144610461D460022C0
:1054B000002302F0E7F89DF830704FF0010838B192
:1054C0002046294644A3D3E9002302F0D1F806E0A0
:1054D0002046294642A3D3E9002302F0BFF800B9D1
:1054E00080465FFA88F82046294600220023B8F15A
:1054F000000F0DD002F0A8F818B130462D21FFF7AB
:10550000F3FE804638493046FFF7F3FE404460E042
:1055100002F09AF838B130462D21FFF7E5FE05F18B
:10552000004380461D46314B4FF0000900225FFAD0
:1055300089F1B9420AD21046194600222C4B01F0DB
:105540003BFF09F1010902460B46F0E720462946D8
:1055500001F056FC04460D4602F046FC82468B469E
:1055600001F0D2FD02460B462046294601F046FCDA
:105570000A2300930446524630465B460D46FFF729
:105580001FFF804427B130461A49FFF7B2FE80441E
:10559000F7B1174B00222046294601F0E3FD0D46E6
:1055A000044602F079F881460A2249463046FFF760
:1055B00027FF8044484601F06FFD02460B46204617
:1055C000294601F01BFC013F04460D46FFB2DFE710
:1055D000404603B0BDE8F08F800350726C92DF4309
:1055E000800350726C92DFC370E700080000E03F58
:1055F00000002440D7DD000837B59DF81810044698
:105600000091FFF74DFF05462046FFF777FE28443F
:1056100003B030BD054B03EB001000F108038068B8
:1056200010B19979FEF700BF704700BF84E300080E
:1056300022280ED8084B00011A18127B012101FA0A
:1056400002F21B581B689B681A420CBF0020012005
:1056500070470020704700BF84E30008222810D85C
:10566000084B00011A18127B1B58012000FA02F2A5
:10567000D1F1010138BF0021090102FA01F11B68D3
:105680001961704784E3000810B5044630B103F097
:10569000C3FA90FBF4F303FB140010BD10BD884265
:1056A00010B5044604DA081AFFF7EEFF204410BDD7
:1056B00010BD00002DE9F04780460E460846002147
:1056C00092469946FFF7CAFF0024BAF1000F02D0B4
:1056D000C4F1070100E0214649FA01F1404601F01A
:1056E0000101FFF7BBFF0B4A3301D718D358012143
:1056F0001D683B7BEA6801FA03F35340EB603A7B99
:10570000EB68914001345940082CE960DDD1BDE8D7
:10571000F08700BF84E30008054B70B51C6806469F
:105720001D4600F04DF92B681B1BB342F9D370BD29
:10573000881500200C235843431E18460138FDD815
:10574000704710B50446006802F098FE204610BD70
:1057500010B50446006808B102F090FE00232360F3
:10576000A360636010BD38B504460D460068013182
:1057700003F072FA10B184E82100012038BD0368FB
:1057800010B5044613B143688B4207D22046FFF799
:10579000EAFF20B1A3680BB922681370012010BD85
:1057A00070B50E46114604461546FFF7E8FF18B9D6
:1057B0002046FFF7CDFF04E0A5602068314603F0E6
:1057C0006BFC204670BD38B500230446036043607F
:1057D00083600D4639B1084603F0BCFC29460246F9
:1057E0002046FFF7DDFF204638BD884210B50B4646
:1057F000044607D0096819B19A68FFF7D1FF01E0A4
:10580000FFF7A6FF204610BD10B500230446036035
:1058100043608360FFF7E9FF204610BD38B50546B9
:105820000C4641B1084603F095FC21460246284645
:10583000FFF7B6FF01E0FFF78BFF284638BD10B534
:1058400000238AB00446036043608360084601A9D0
:1058500000F0EEF8204601A9FFF7E0FF20460AB06D
:1058600010BD70B5044685680E4609B9002070BDAC
:1058700062B115442946FFF782FF0028F6D0206860
:10588000A3683146184403F007FCA560012070BDF1
:105890001FB504460A220846694600F0C9F8684662
:1058A00003F058FC694602462046FFF7DAFF04B0D1
:1058B00010BD1FB504460A220846694600F0E3F809
:1058C000684603F047FC694602462046FFF7C9FFD9
:1058D00004B010BD0B4610B509689A680446FFF77E
:1058E000C0FF10B92046FFF733FF204610BD38B582
:1058F00004460D4641B1084603F02CFC29460246F9
:105900002046FFF7AEFF10B92046FFF721FF2046E3
:1059100038BD10B50446FFF7BBFF10B92046FFF7AE
:1059200017FF204610BD10B50446FFF7C2FF10B99F
:105930002046FFF70DFF204610BD0000222870B55D
:105940003BD8082939D8DFE801F0051A080B0E11F9
:10595000081417000024032213E00024042210E09E
:10596000002422460DE0002409220AE00024082237
:1059700007E001240B2204E001240F2201E00024AF
:1059800007220E4B00011E18317B1858FEF7FEFD52
:10599000706890B1717B24B10122BDE87040FFF7BF
:1059A00031B80368013903F140432033DB0003EBD6
:1059B00081039B0003F184431C6070BD84E30008F5
:1059C0007047F0B58BB059B3931E222B2AD80A2A00
:1059D0002AD1002828DA4042012501AB1E4670B1C9
:1059E000B0FBF2F702FB1704092C3846D8BF30345D
:1059F00003F10107C8BF57341C703B46EFE7B342C1
:105A0000EED01DB12D204A1C087000E00A46B342BA
:105A100004D913F8010D02F8010BF8E70023137005
:105A2000084603E0002001E00025D6E70BB0F0BDFA
:105A3000FFF7C7BF70B58AB001B3931E222B1FD8E2
:105A400001AB1D4670B1B0FBF2F602FB1604092C47
:105A50003046D8BF303403F10106C8BF57341C703C
:105A60003346EFE7AB42EED00A46AB4204D913F817
:105A7000010D02F8010BF8E700231370084600E05F
:105A800000200AB070BDFFF7D5BF10B504460079FD
:105A9000FEF77AFE2079BDE81040FEF78DBE0000CB
:105AA000436800227F2110B59A80DA80198100F1C5
:105AB00010011960836804469A80DA8040F2FF1270
:105AC0001A8100F190021A6090F89002FEF75CFED5
:105AD00094F891325AB2002A08DB012103F01F0327
