:020000040800F2
:10000000005000205141000811420008154200082C
:10001000194200081D4200082142000871420008F0
:1000200071420008714200087142000871420008E4
:10003000714200087142000871420008ED46000854
:100040007142000871420008714200082D3E00080C
:1000500071420008714200087142000871420008B4
:1000600071420008714200087142000871420008A4
:100070007142000871420008714200087142000894
:100080007142000871420008E9420008714200080C
:100090007142000871420008714200087142000874
:1000A000594900087D490008A1490008D9490008BC
:1000B0002D4A00089D4A00080D4B000871420008B7
:1000C0007142000871420008714200087142000844
:1000D00071420008794C0008CD4C0008214D000801
:1000E00071420008753E00087142000810B5054CC9
:1000F000237833B9044B13B10448AFF300800123D4
:10010000237010BD781300200000000094C0000888
:1001100008B5064B1BB106480649AFF300800648F8
:10012000036813B1054B03B1984708BD00000000F8
:1001300094C000087C130020781300200000000009
:1001400007B5324801F0C9FD002837D1304B31499D
:1001500018702E4801F079FC28B12C482D4901F087
:10016000AFFC002848D12C4801F096FF20B12A4866
:1001700001F041FF002844D101238DF800302648CA
:10018000002369468DF801308DF802308DF8033078
:100190008DF8043001F0E5FE18B12048204905F043
:1001A00013F820480021052200F036FF06E0102059
:1001B00005F08EF940B11C4800F046FE134801F0EE
:1001C0008CFD0028F3D011E041F2883005F0F4F9FD
:1001D000102005F07DF90028EDD1144802F060FEF2
:1001E000102005F075F90028FAD0E4E7084B012249
:1001F0001A7003B05DF804FB0D49084804F0E4FFF1
:10020000B1E70C49054804F0DFFFB5E737140020DB
:10021000080000209413002034140020A8140020AB
:1002200050D40008301400201F1400208A1400202D
:100230006DD4000881D40008104B70B51A78104CAA
:100240001E462568CAB90F4803F058F8226805F51C
:100250001C5310339A4201D2337853B10A490B48E8
:10026000236804F0B1FFBDE870400848084904F075
:10027000ABBF084800F0E8FDE8E770BD1D140020A2
:100280008C1500208A140020B0D40008A814002087
:10029000CED400081F14002008B51049104804F0FF
:1002A00093FF4FF47A7005F087F90E4800F0DEFEF8
:1002B0001420002105F022F90120002105F01EF98B
:1002C0000121132005F01AF9012004F023F901207F
:1002D00004F03AF9BDE8084004F022B9E1D400087E
:1002E000A81400203014002008B50448044904F084
:1002F0006BFFBDE80840FFF7CFBF00BFA814002088
:10030000F3D4000808B5102005F0E2F8F0B9642035
:1003100005F052F9102005F0DBF8B8B941F2883049
:1003200005F04AF9082005F0D3F878B9642005F003
:1003300043F9082005F0CCF840B9054801F031FD3B
:10034000BDE808400348044904F03EBF08BD00BFB3
:1003500032140020A8140020F9D400089B4B30B5BB
:100360001A6887B022F0E06242F000721A60984882
:100370004FF4165104F03EFE96484FF4165100F02B
:10038000EBFE95484FF4165104F034FE04F013F8D8
:1003900092498F4804F018FF914800F017FE8D48ED
:1003A00000F0B6FE1420002105F0FCF90021142015
:1003B00005F0A4F88B4801F025FB0121854800F0E9
:1003C00075FF4FF47A7005F0F7F8874800F03CFDB0
:1003D00086497F4804F0F8FE8548222101F095FD0A
:1003E0000128044605D18248232101F08EFD0546EF
:1003F000A8B100227E48012101F089FD7D496846AF
:1004000005F031F9694603A805F04EF9012103A86A
:1004100005F0BEF9784905F0A9F900210FE0774908
:10042000684605F020F9694603A805F03DF9214624
:1004300003A805F0ADF9704905F098F9294605F0D3
:10044000A7F90146624804F0B5FE03A805F0C9F813
:10045000684605F0C6F86648242101F054FD0728D7
:10046000044616D16248252101F04DFD054680B9AC
:100470006349684605F0F7F8694603A805F014F9E2
:10048000214603A805F084F95B4905F06FF9294678
:1004900014E000225648072101F04EFD59496846F4
:1004A00005F0E1F8694603A805F0FEF8072103A866
:1004B00005F06EF9504905F059F9002105F068F989
:1004C0000146434804F076FE03A805F08AF8684622
:1004D00005F087F8FFF716FF4B4801F059FC88B983
:1004E0003C48012101F0A2F93A48012100F03AFE0E
:1004F0000121384800F0DAFE3B4800F0A5FC4248F4
:1005000001F038FC414801F0C2FBFFF719FE4049F9
:100510003E4801F0EBFB0146B0B90A22304800F03A
:100520007BFD3C492A4804F04FFE3B4802F062FD47
:100530004FF47A7005F040F82B4800F085FC40F647
:10054000B83005F039F8E2E73449214804F03CFEC0
:10055000234801210A2200F05FFD214800F09CFDA4
:10056000B0F52F6F0DD8642005F026F81C4800F078
:1005700093FDB0F52F6F04D8294802F091F8FFF7EA
:100580008BFE2849124804F01FFEFFF755FE144861
:1005900000F082FD40F6E3439842234C02D9002349
:1005A000237009E001250E48257000F075FD40F626
:1005B000B833984298BF2570194801F0EBFF1B49EA
:1005C000034804F001FE07B030BD00BF0400014045
:1005D000A814002031140020D81400203DD50008B4
:1005E00030140020361400201F140020D9E2000827
:1005F00035140020ABD5000801DC0008C6D5000882
:10060000FBD50008E0D50008321400203714002084
:10061000941300204DD500088A14002080D50008CE
:100620004114002099D5000840140020A2D50008EC
:10063000012902D11C30C0B27047062984BF01F1E4
:10064000FF31C9B211F0010F14BF1E201F207047E7
:10065000444B2DE9F047B1FBF3F603FB16113C23A5
:10066000B1FBF3F203FB1212054602704FF4616016
:10067000B1FBF0F200FB1211B1FBF3F36B704FF41E
:10068000FA63AA70B6B2EB80EC884FF4C873B4FB7F
:10069000F3F803FB18481FFA88F8B8F1000F16D0DA
:1006A0006423B4FBF3F203FB12439BB2002B53D041
:1006B00014F0030140F26D130CBF4FF4B7721A46E9
:1006C00096420EDB002908BF4FF4B77304E0B6F57D
:1006D000B77F06DB4FF4B773F61A0134B6B2EC807D
:1006E000D2E700236B716423B4FBF3F703FB1747D6
:1006F000BFB2B8F1000F06D03FB114F0030F14BF22
:100700000020012002E0012000E0384695F8059025
:10071000C0B24946FFF78CFF864209F1010A15D3A2
:10072000B8F1000F06D03FB114F0030F14BF002042
:10073000012002E0012000E03846C0B24946FFF740
:1007400077FF301A86B285F805A0D2E701362E7100
:1007500085F805A0BDE8F087B6F5B67FC1DD40F2AB
:100760006D13B9E780510100F8B5427887783C23D2
:1007700003FB072702780579467903FB0727013D2C
:10078000013EEDB2F6B2044605714671013E731C9E
:10079000E38834D04FF4C872B3FBF2F102FB11329C
:1007A00092B262B16422B3FBF2F002FB103080B26D
:1007B00030B113F0030F14BF0020012000E001202E
:1007C000C0B2F1B2FFF734FF284485B2DEE74FF440
:1007D000C872B3FBF2F102FB113292B2AAB16422E9
:1007E000B3FBF2F102FB113292B28AB113F0030FA4
:1007F00040F26D1208BF4FF4B7721544ADB2013B21
:100800009BB2B3F5FA6FE2D205E04FF4B772F4E7AA
:1008100040F26D12F1E7024800FB0570F8BD00BF21
:100820008051010001F094BC38B50D46044601F03A
:10083000AAFC290A49006039204601F0FE0101F0B6
:1008400039FD204601F00FFDE9B2204601F032FDEE
:10085000204601F008FD204601F095FC2046A1212C
:1008600001F028FD204601F0FEFC0021204601F0A9
:1008700048FD0546204601F0D9FC204601F09EFCCB
:10088000284638BD70B50D461646044601F07BFC7F
:10089000290A49006039204601F0FE0101F00AFDF5
:1008A000204601F0E0FCE9B2204601F003FD2046BD
:1008B00001F0D9FC3146204601F0FCFC204601F055
:1008C000D2FC204601F07AFCBDE870400A2004F01A
:1008D00073BE0000D30770B548BF01320024520830
:1008E00002312346E5B2954225D211F8025CA5F10A
:1008F0004106F6B2052E02D8104B9B5D05E0303D57
:10090000EDB2092D03D80E4B5B5D1B01DBB211F874
:10091000015CA5F14106F6B2052E01D8074D04E0B1
:10092000303DEDB2092D02D8054E755D2B430355C0
:1009300002310134D6E7002070BD00BF1FD6000889
:1009400015D600082DE9F04F824687B008461446B8
:10095000994606F0E7FAC9EB0406CDE900013046F6
:1009600006F0CEFA02460B4600204D4905F08CF801
:1009700002460B46DDE9000106F0AEFD30B94FF04E
:10098000020896FBF8F80546013E07E050460021B4
:10099000224607B0BDE8F04F08F024B8454536DAE6
:1009A000304606F0ADFA02460B4600203C4905F001
:1009B0006BF8CDE90201701E06F0A2FA02460B4662
:1009C0000020374905F060F8DDE90223CDE9040194
:1009D000DDE9000106F024FC06F092FDDDE90423C8
:1009E0000A2790FBF7FB0BFB17004FEA001BDDE922
:1009F000000106F015FC06F083FD90FBF7F303FB06
:100A0000170083440AF805B0023E0135C6E709EB3A
:100A100048094FF0020BC4EB090994FBFBFB09F1F9
:100A20000109D84538DA484606F06AFA02460B460C
:100A300000201B4905F028F8064609F101000F4681
:100A400006F05EFA02460B460020154905F01CF838
:100A500032463B4604460D46DDE9000106F0B6FA93
:100A600006F04EFD0A2690FBF6F707FB16002B4614
:100A700007012246DDE9000106F0A8FA06F040FD74
:100A800090FBF6F303FB160007440AF8087009F11F
:100A9000020908F10108C4E707B0BDE8F08F00BF04
:100AA00000002440064A5178937843EA0123A3F5D5
:100AB0002043113B112B9ABF024AD05C052070479E
:100AC0009D13002052D8000810B5074C601811463D
:100AD00003F067F8054B1B781C4414F8073C1B1AFD
:100AE0005842584110BD00BF9D1300201E14002025
:100AF000044B18795B7943EA0020431E5842584161
:100B0000704700BF9D130020044B9B79552B044B6D
:100B10000CBF012200221A70704700BF9D130020F5
:100B20002014002010B5084CE379552B01D1012089
:100B300010BD064801F0ADFAE3798342F7D0D0F159
:100B4000010038BF002010BD9D1300203414002088
:100B500013B50D4B1C7A552C01D1012012E00B4826
:100B6000694601F039FA00231A461DF803108C4239
:100B7000F3D019B90132D2B2052AEED00133052BD8
:100B8000F3D1002002B010BD9D13002034140020CA
:100B900070B505461E46FFF797FF044698B12846F4
:100BA000FFF7A6FF044658B12846FFF7ADFF2846D9
:100BB000FFF7B8FF044648B946B10C480C4911E0AC
:100BC0000A480C490EE009480B490BE02846FFF79C
:100BD000BFFF044640B99DF810300BB9012403E073
:100BE0000248064904F0F0FA204670BDA81400201F
:100BF00077D6000825D6000853D60008AED60008E0
:100C0000194B13B51B7863B30023009304211722FB
:100C10000123FFF7BDFFD8B1144C154804F10C01B6
:100C200001F0A2FBA17AE37A124843EA012101F024
:100C300041FA10B1104B01221A70237A0F48552B3C
:100C400002D102F02DF903E00721012202F0D0FACF
:100C50000B4B06481A78002102B0BDE8104007F09F
:100C6000C1BE02B010BD00BF080000209D130020CF
:100C700041140020331400201D1400208A14002089
:100C80001E140020174B07B51B7843B300230093B5
:100C900004210A220123FFF77BFFB8B11248134950
:100CA00001F05FF930B11249124804F08DFA124890
:100CB000032108E011490F4804F086FA104B0A227C
:100CC0000D481A700421012202F092FA0D4B0E48D1
:100CD0001A78002103B05DF804EB07F083BE03B07F
:100CE0005DF804FB0800002034140020A513002048
:100CF000E6D60008A81400208A14002016D70008A1
:100D00008B1400201E1400209D13002013B5002317
:100D1000009304210F22FFF73BFF10B31D4C1E4828
:100D200004F10A0100F091FE002830D01A4804F1C5
:100D30000A0100F0C5FE50B31849194804F044FAFE
:100D40001848E17901F078F9A0B11749144804F086
:100D50003BFA16480521012202F04AFA0E4800F03B
:100D600081FF134B0B481A78002102B0BDE81040F8
:100D700007F038BE0A480F4904F026FA0E4B0A2243
:100D80001A700A480621012202F032FAE9E7044803
:100D90000A49F1E79D13002037140020A9D7000865
:100DA000A81400203414002046D700088A1400201C
:100DB0001E14002078D700088B140020D6D7000816
:100DC0000D4B07B51B789BB100230093042105222E
:100DD0000123FFF7DDFE10B1084802F077F9084B58
:100DE00008481A78002103B05DF804EB07F0FABD5B
:100DF00003B05DF804FB00BF080000208A14002047
:100E00001E1400209D13002010B50446FFF74AFE73
:100E1000032817D8DFE800F002070C112046BDE8D0
:100E20001040FFF7EDBE2046BDE81040FFF72ABF97
:100E30002046BDE81040FFF769BF2046BDE81040DE
:100E4000FFF7BEBF10BD00002DE9F047404C002762
:100E500082462770002635463E4804F06DF800288B
:100E600033DD94F800903B4809F10103237004F04E
:100E70000FF8DFF8F48008F80900052004F09CFB67
:100E800023781022434413F8011C334804F029FA54
:100E90003148324904F07DF994F90030002B434683
:100EA00002DA2B4A00211170F6B922781A4412F89E
:100EB000012C0D2A01D117E00126052DCCD12648A1
:100EC000274904F081F90127C4E757B12549224891
:100ED00004F07AF95046FFF797FF00232370BDE82E
:100EE000F0872770BDE8F087042DE5D8DFE805F02E
:100EF000030C151E27002278134413F8015CB5F18A
:100F00000A035D425D4121E02278134413F8013C5D
:100F10000D2B0CBF0225002518E02278134413F88E
:100F2000013C0A2B0CBF032500250FE02278134457
:100F300013F8013C0D2B0CBF0425002506E0227898
:100F4000134413F8013C0A2BB9D00025012683E78E
:100F50001E140020C0140020A81400200EDE00087B
:100F600003D8000827D800089D13002008B5134BAC
:100F700013491A68096801328A421A601DD311495F
:100F800000221A600B78DB43DBB20B700E49097844
:100F900041B1012911D1182003B1114604F0AEFA74
:100FA000192005E0192003B9012104F0A7FA18203F
:100FB0000021BDE8084004F0A1BA08BD24140020B7
:100FC0002C140020211400202814002008B5132020
:100FD000002104F0E7FB1820002104F0E3FB1920B6
:100FE000002104F0DFFB1020022104F0DBFB0820CD
:100FF000022104F0D7FB0321072004F0D3FB0A20D1
:1010000004F0DAFA1820002104F078FABDE808406C
:101010001920002104F072BA0F4B10B50F4C197053
:101020000F4B20461A600121022204F04BF82046A3
:101030000C4904F028F8012120460A4604F046F83D
:1010400020460121084A04F050F820460021BDE85E
:10105000104004F00FB800BF281400204C150020E9
:101060002C140020A08601006D0F000808B506486A
:1010700003F0EAFF1820002104F040FABDE8084020
:101080001920002104F03ABA4C150020014803F061
:10109000E3BF00BF4C15002030B58BB001AD284632
:1010A0000021242207F09EFC0024072004F002FA0D
:1010B00005F026FF12A3D3E9002305F087FF0022E5
:1010C000114B05F083FF06F043FA28514FF47A7074
:1010D000043404F07FFA242CE7D109226B4608ACD3
:1010E00053F8040F5968884284BF58601960A342BE
:1010F000F6D1013A12F0FF02F0D105980BB030BDE5
:10110000F163CC5D4BC8E93F00001840AFF30080AD
:1011100008B50120002104F045FB0120014604F040
:10112000EDF90020014604F03DFB0420002104F00D
:1011300039FB0520002104F035FB0420002104F0D8
:10114000DDF90520012104F0D9F9BDE808400020AF
:10115000014604F0D3B90000014803F04BBF00BFC3
:10116000C014002008B561B10021052004F0C6F9C3
:10117000962004F021FABDE808400520012104F082
:10118000BDB908BD08B50021012004F0B7F90C482D
:1011900003F033FF0220002104F004FB03200021B0
:1011A00004F000FB0220002104F0A8F90320002134
:1011B00004F0A4F9BDE808400520002104F09EB920
:1011C000C014002010B50B78452B12D14B78522B50
:1011D0000FD18B78CC78303B03EB8303303C04EBAE
:1011E0004304E4B221460A22034804F083F820466F
:1011F00010BD0A2010BD00BFA81400200B784F2B93
:1012000007D148784B2804D113704B7801205370D4
:1012100070470020704730B50020C4B20D5D01302A
:101220002C2D01D01D55F8E7601C5525C0B21D5569
:10123000904204D20C5C1C540130C0B2F8E730BDBF
:10124000F8B54C78432C08D18C78532C05D1CC7848
:10125000B4F151056C426C4100E000240026F5B267
:101260004F5D01363A2FFAD10135EDB20027954294
:10127000FEB207F1010706D811F805C0013501F8E3
:1012800006C0EDB2F3E73CB92046C2B2B2420BD27F
:101290000A5C1A540130F8E7069A022412681470A6
:1012A000721ED2B2FFF7B7FF0120F8BD37B515485F
:1012B00009B9154900E0154903F06BFF642004F0FB
:1012C0007BF900240F4803F037FE0028E5B208DD63
:1012D000062C14D00B4803F0DBFD0DF8040001349C
:1012E000F0E755B19DF802304F2B08D19DF803006F
:1012F000B0F14B035842584102E0284600E000207C
:1013000003B030BDC014002064D8000868D80008BD
:1013100010B504460120014604F0F0F807484FF4E8
:10132000165103F067FE20460121FFF71BFF204600
:101330000121BDE81040FFF7B9BF00BFC014002075
:101340002DE9F0419EB005AD0C46074600219046C0
:1013500028466422039307F045FB21462C4803F0FE
:1013600018FF642004F028F90024294803F0E4FD64
:101370000028E6B207DD642C45D0254803F088FD3F
:1013800028550134F1E726B92249234803F01CFF10
:1013900039E09DF814300D2B35D19DF815300A2B0E
:1013A00031D11EAB334413F8653C0A2B2BD1023EDE
:1013B0001EAB334413F8643C0D2B24D10021CCB276
:1013C000A31CDBB2B34201F1010107DA1EAA1344E8
:1013D00013F8643C144404F8643CF0E738462946AA
:1013E000FFF7F0FE0A280CD103AB009338462946DC
:1013F00022464346FFF724FF00280CBF03200220AB
:1014000002E0012000E003201EB0BDE8F08100BF33
:10141000C01400206ED80008A81400202DE9F04167
:10142000B2B006460D4690460021642268461F462B
:1014300007F0D8FA19A80021642207F0D3FA002493
:10144000E3B2E85C013420B132AA134403F8640C1F
:10145000F6E70146CAB25D1818F80240EDB232AAAA
:1014600001312A4414B102F8644CF3E70D2302F869
:10147000643C6B1C32A8DBB203442F480A2203F8F9
:10148000642C036819A95B6898472C48AA1C036858
:1014900019A99B68D2B29847642004F08DF82748B8
:1014A00003F04AFD0028E5B208DD642C3FD0234854
:1014B00003F0EEFC0DF804000134F0E7002D36D007
:1014C0009DF800300D2B32D19DF801300A2B2ED122
:1014D00032AB2B4413F8C93C0A2B28D1023D32AB66
:1014E0002B4413F8C83C0D2B21D100218B1CDBB2FF
:1014F000AB4201F1010209DA32A8034413F8C83CF7
:10150000C9B2014401F8C83C1146EFE730466946CC
:10151000FFF758FE0A2808D1304669463A46FFF7D9
:101520006DFE80F00100C0B202E0012000E0032067
:1015300032B0BDE8F08100BFA8140020C014002024
:10154000F7B51E46044617460D4600218DF80710D4
:10155000FFF7ACFE02F09CFF204631462FB12A4631
:101560000DF10703FFF7ECFE03E0089A2B46FFF7A7
:1015700055FF03282AD8DFE800F0110402070023F2
:1015800011E01648164901E01448164903F01CFE04
:1015900020460121FFF78AFE00201CE012490F4877
:1015A00003F012FE12E09DF807205E1CDBB29A42A7
:1015B0000A4809D9E95C102203F093FE07480B4959
:1015C00003F0E7FD3346EEE703F0E8FD2046012196
:1015D000FFF76CFE012003B0F0BD00BFA81400208F
:1015E00082D8000893D800089CD800080EDE0008B6
:1015F0002DE9F0438BB004AF804600210922384624
:1016000002AE002407F0EEF9009440463146012274
:101610002C4BFFF795FF054610B92B482B494BE0A3
:101620002346F25C07AC092A01D8303204E0A2F16B
:101630000A01052998BF3732E2540133082BF0D153
:101640004FF0000922488DF8249000F053FC024628
:10165000C0B120491C4803F0B7FD1D48394600F0D1
:10166000AFFB50B14B46E15CFA5C914217D10133BC
:10167000082BF8D1144818491EE01849124803F005
:10168000A3FD07E0009440463146154BFFF758FF95
:10169000054698B121460E4800F0EAFB0AE01149E0
:1016A000094803F091FD00974046314600220C4B5B
:1016B000FFF746FF054601E003F086FD28460BB024
:1016C000BDE8F083A8D80008A8140020B3D800080B
:1016D00032140020D3D800085BD90008F1D80008E4
:1016E00015D900081ED900082DE9F04F89B002AFC6
:1016F00007F10C068346894690461C463046002179
:101700000A2207F06FF9002C48D1C7F804D05846D8
:10171000CDF80080314601224B46FFF711FF82468B
:1017200008B1214602E03C483C496BE0CCB218F8D5
:1017300004300131002BF9D1E11D01F4FC71ADEB56
:10174000010D02A9D8B2A04203D2F05CC854013303
:10175000F8E70B46581AC0B2A0420DD213F8010B9D
:10176000092801D8303004E0A0F10A05052DF1D890
:10177000373003F8010CEDE70025EBB2A3423FD26E
:101780004B5D013508EB050010F8010C9842F4D0D0
:101790002148234903F018FD7B689D466C460023D1
:1017A000DAB219F8021001330A29F9D1931D03F4B2
:1017B000FC73ADEB030DA2F1020E02AB0020C1B22F
:1017C000551EA94200F1010003DA19F801505D54D9
:1017D000F5E700223D215A55584603F80E10CDF882
:1017E00000803146FFF7ACFE054628B90A480D498E
:1017F00003F0EAFCAA4601E04FF0010AA54605E025
:101800000548094903F0E0FC7B689D4650461C37BB
:10181000BD46BDE8F08F00BFA814002085D90008A0
:10182000ABD9000802DA000824DA00087FB50F22DD
:1018300004460D466846002107F0D4F85848594937
:1018400003F0C2FC0A2602F023FE2046002D5DD1E3
:10185000FFF7CEFE54498DF80000544A2B4620462F
:10186000FFF742FF52498DF80100524A01232046FA
:10187000FFF73AFF50498DF80200504A2B462046A8
:10188000FFF732FF4E498DF803004E4A2B462046A3
:10189000FFF72AFF4C498DF804004C4A01232046EB
:1018A000FFF722FF4A498DF805004A4A2B46204699
:1018B000FFF71AFF48498DF80600464A2B46204696
:1018C000FFF712FF45498DF80700404A01232046E3
:1018D000FFF70AFF42498DF80800424A2B4620468E
:1018E000FFF702FF40498DF80900404A2B46204689
:1018F000FFF7FAFE2F4A8DF80A003D4920460123E2
:10190000FFF7F2FE0C228DF80B0007E02F4A2E495C
:101910000123FFF7E9FE01228DF8000000231DF8E6
:101920000310A9B933491E4803F04EFC2046FFF7C7
:10193000EFFC2046FFF726FC02F0AAFD2046FFF749
:10194000E7FC4FF4FA6003F037FE02F0A1FD05E07A
:101950000133D9B29142E2D304B070BD264803F0FE
:10196000EBFA002803DD244803F092FAF6E7013E83
:1019700016F0FF067FF467AF1E2231461F48FFF7BF
:101980004BFB1F49064803F01FFC40F6B83003F03C
:1019900013FE02F07DFD04B0BDE8704002F0ACBD66
:1019A000A81400203ADA000859DA000865DA0008BD
:1019B0006EDA00086BDA000878DA000884DA0008CA
:1019C0008DDA000899DA0008A2DA0008ACDA00081B
:1019D000AFDA0008B9DA0008BCDA0008C6DA000895
:1019E000D0DA0008D9DA0008DCDA0008E6DA000804
:1019F000E9DA0008F3DA0008C014002030140020EF
:101A000010DB000810B500210446152003F0CAFEC3
:101A10001520012103F072FD2046BDE81040FEF7BD
:101A200001BF08B5052003F0C7FDBDE8084015203B
:101A3000012103F063BD08B51520002103F05EFD10
:101A4000BDE80840052003F0B7BD7FB504460E464B
:101A5000FFF7F1FF0D2573192946204613F80D2CC9
:101A60000135FEF70FFF162DF5D13046092102F0A2
:101A700098F80646294620463246FEF703FF0D2514
:101A800029462046FEF7D0FE01AB2B440135162D2A
:101A900003F80D0CF4D101A8092102F082F8B0423C
:101AA000204603D0FFF7BDFF002007E00B215522A1
:101AB000FEF7E8FE2046FFF7B4FF012004B070BD3A
:101AC0007FB504460E46FFF7B6FF17257319294662
:101AD000204613F8172C0135FEF7D4FE202DF5D142
:101AE0003046092102F05DF8064629462046324676
:101AF000FEF7C8FE172529462046FEF795FE01ABE6
:101B00002B440135202D03F8170CF4D101A809212D
:101B100002F047F8B042204603D0FFF782FF0020D2
:101B200007E00C215522FEF7ADFE2046FFF779FFB6
:101B3000012004B070BDF0B585B001AD06460F467A
:101B400028460021092206F04DFF0D24214630468B
:101B5000FEF76AFE2B190134162C03F80D0CF5D193
:101B600021463046FEF760FE09210446284602F071
:101B700018F8844206D10023EA5CFA540133092B99
:101B8000FAD101E0002000E0012005B0F0BDF0B581
:101B900085B001AD06460F4628460021092206F011
:101BA00021FF172421463046FEF73EFE2B19013453
:101BB000202C03F8170CF5D121463046FEF734FEF1
:101BC00009210446284601F0ECFF844206D1002397
:101BD000EA5CFA540133092BFAD101E0002000E05D
:101BE000012005B0F0BD37B50C461E210546FEF7B5
:101BF0001BFE1F218DF804002846FEF715FE02216A
:101C00008DF8050001A801F0CCFF207003B030BDB5
:101C100010B50446FFF70FFF002220460B21FEF708
:101C200031FE2046FFF7FDFE20460B21FEF7FCFDAE
:101C3000D0F1010038BF002010BD10B50446FFF7F9
:101C4000FAFE002220460C21FEF71CFE2046FFF77C
:101C5000E8FE20460C21FEF7E7FDD0F1010038BF79
:101C6000002010BD10B50446FFF7E5FE55222046C2
:101C70002121FEF707FE2046FFF7D3FE2046212153
:101C8000FEF7D2FDB0F155035842584110BD38B5AA
:101C90000446102003F01CFC08B1002038BD41F2BE
:101CA000883003F089FC102003F012FC0546002860
:101CB000F3D12046FFF7BFFE2A4620462121FEF73A
:101CC000E1FD2046FFF7ADFE20462121FEF7ACFDE9
:101CD000D0F1010038BF002038BD08B52121FEF742
:101CE000A3FDB0F155035842584108BD38B504462C
:101CF0000D46FFF720FF20B120462946FFF747FF9A
:101D000040BB20462946FFF716FF48B11449154845
:101D100003F05AFA20462946BDE83840FFF7D0BE06
:101D200020462946FFF733FF48B10F490D4803F01D
:101D30004BFA20462946BDE83840FFF786BE0B49DE
:101D4000084803F041FA2046FFF762FF2046FFF7FC
:101D500074FF03E00348064903F036FA012038BD5A
:101D60003CDB0008A814002073DB0008AADB000895
:101D7000BEDB000810B50446FFF75DFE20463521A6
:101D80005522FEF77FFD2046BDE81040FFF749BE13
:101D900008B53521FEF748FDB0F1550358425841CA
:101DA00008BD10B50446FFF746FE20463521002247
:101DB000FEF768FD2046BDE81040FFF732BE000088
:101DC00073B505460E46362421462846FEF72CFDFF
:101DD00000AB234401343E2C03F8360CF4D1082127
:101DE000684601F0DEFE3F2104462846FEF71CFD52
:101DF00084420CD100231DF80320F2540133082B38
:101E0000F9D10448044903F0DFF9012000E0002083
:101E100002B070BDA8140020EEDB000810B5402110
:101E20000446FEF701FD55280CD02046FFF703FEBF
:101E3000204640215522FEF725FD2046BDE81040F2
:101E4000FFF7EFBD10BD10B540210446FEF7ECFCD6
:101E500060B12046FFF7EFFD204640210022FEF74B
:101E600011FD2046BDE81040FFF7DBBD10BD0000AE
:101E7000F7B50F460446FFF7DEFD3846082101F0AE
:101E800090FE362506467B192946204613F8362C47
:101E90000135FEF7F7FC3E2DF5D120463F213246B5
:101EA000FEF7F0FC362529462046FEF7BDFC00ABC8
:101EB0002B4401353E2D03F8360CF4D16846082139
:101EC00001F06FFE864207D02046FFF7BCFF204698
:101ED000FFF7A7FD002007E00449054803F074F967
:101EE0002046FFF79BFF012003B0F0BD03DC000894
:101EF000A814002008B54021FEF796FCB0F1550368
:101F00005842584108BDFEF78FBCFEF78DBC70B536
:101F100004460E461546FFF78EFD20463246222126
:101F2000FEF7B0FC20462A462321FEF7ABFC2046F4
:101F3000BDE87040FFF775BD70B504460E46154606
:101F4000FFF779FD204632462421FEF79BFC204610
:101F50002A462521FEF796FC2046BDE87040FFF793
:101F600060BDF8B504460E46FFF765FD26257319DA
:101F70002946204613F8262C0135FEF783FC2B2D2D
:101F8000F5D10521304601F00CFE074629462046D2
:101F90003A46FEF777FC262520462946FEF744FC04
:101FA000731913F8263C834214D101352B2DF3D13C
:101FB00020462946FEF738FCB842204608D12C219D
:101FC0005522FEF75FFC2046FFF72BFD0120F8BDF0
:101FD000FFF727FD0020F8BD70B506460D46262404
:101FE00021463046FEF720FC2B1901342B2C03F838
:101FF000260CF5D170BD38B50446FFF71CFD26252B
:10200000002220462946FEF73DFC20462946FEF7E1
:102010000BFC024620B12046FFF703FD002038BD2F
:1020200001352B2DECD120462C21FEF72BFC204630
:10203000FFF7F7FC012038BD37B502AD04468DF837
:102040000710FFF7F8FC15F8012D20462D21FEF7AB
:1020500019FC0121284601F0A4FD2E21024620464C
:10206000FEF710FC20462D21FEF7DEFB9DF8073021
:102070008342204608D12F215522FEF703FC20463B
:10208000FFF7CFFC012002E0FFF7CBFC002003B0FC
:1020900030BD2D21FEF7C8BB10B50446FFF7CBFCC1
:1020A00020462D210022FEF7EDFB2046FFF7B9FC6C
:1020B000012010BD4A1F4AF6BB039A4270B5044680
:1020C0000D4628D83221FEF7AFFB332106462046C5
:1020D000FEF7AAFB40EA0620A84204D10F491048A7
:1020E00003F072F815E02046FFF7A5FC20463221E8
:1020F000C5F30722FEF7C6FB20463321EAB2FEF7FE
:10210000C1FB204634215522FEF7BCFB2046FFF7D9
:1021100088FC012070BD002070BD00BF18DC0008E5
:10212000A814002038B532210546FEF77DFB332187
:1021300004462846FEF778FB40EA042038BD08B57F
:102140003421FEF771FBB0F155035842584108BDE8
:1021500008B51620002103F025FB1720002103F00D
:1021600021FB1620012103F0C9F9BDE80840172022
:10217000012103F0C3B91720002103F013BB17207E
:10218000042103F00FBB08B5FFF7F5FF172001216D
:1021900003F0B4F90121162003F0B0F9052003F093
:1021A00019FA0021172003F0A9F9062003F012FA0A
:1021B000BDE808401620002103F0A0B908B5FFF7DC
:1021C000DAFF1620002103F099F91720002103F00F
:1021D00095F90121162003F091F9062003F0FAF990
:1021E0001720012103F08AF9BDE80840062003F01A
:1021F000F1B910B500210446162003F07FF92046FE
:10220000FFF7B9FF0021172003F078F9022003F04F
:10221000E1F90121162003F071F9052003F0DAF944
:10222000BDE810401620002103F068B910B5002168
:102230000446162003F062F92046FFF79CFF0121B7
:10224000172003F05BF9022003F0C4F901211620E6
:1022500003F054F9052003F0BDF9BDE81040162045
:10226000002103F04BB970B50646FFF788FF012146
:10227000172003F043F9012003F0ACF916200121E7
:1022800003F03CF9012003F0A5F9FB25172003F02A
:102290001FF9044640B1013D15F0FF05F6D1304667
:1022A000FFF78CFF012070BD1620214603F026F9B0
:1022B000204670BD38B50C46FFF75DFF16200021A3
:1022C00003F01CF9082524F07F0303F0FF01172019
:1022D00003B1012103F012F90121162003F00EF9D8
:1022E000022003F077F91620002103F007F9013DE1
:1022F0000220640003F06EF915F0FF05E4B2E2D1AC
:1023000038BDF8B505460F46FFF739FF082600240B
:102310000021162003F0F2F8022003F05BF91620EA
:10232000012103F0EBF864001720E4B203F0D0F8C9
:1023300008B10134E4B20120013E03F04BF916F07C
:10234000FF06E5D1284617B9FFF770FF01E0FFF758
:1023500050FF2046F8BD08B5032001F047FDBDE859
:10236000084002F0C9B8000070B55E480D46097813
:1023700000F051FD697806465A4800F04CFD06EB26
:102380008606594C06EB860600EB8600E080A978AD
:10239000544800F040FD6071E978524800F03BFD80
:1023A000207129794F4800F036FD6979A0704D48B9
:1023B00000F031FDA97960704A4800F02CFD4B49CE
:1023C00020704B4802F0E5FEE1880A22484802F0FE
:1023D00070FF4849464802F0DCFE61790A22444811
:1023E00002F088FF4449424802F0D3FE21790A22D4
:1023F0003F4802F07FFF41493D4802F0CAFEA17804
:102400000A223B4802F076FF3D49394802F0C1FEFE
:1024100061780A22364802F06DFF3A49344802F0EA
:10242000B8FE0A222178324802F064FF01F0D0FFA2
:10243000642003F0C1F82046FEF796F901463248C1
:1024400001F0F2FB642003F0B7F801F0C7FF2E485B
:1024500001F0EDFB01462046FEF7FAF8E18864231F
:10246000B1FBF3F1C9B21F4800F0CCFC2870E28840
:102470004FF47A73B2FBF3F103FB11211948C9B28F
:1024800000F0C0FC68706179164800F0BBFCA870D1
:102490002179144800F0B6FCA178E870114800F0EA
:1024A000B1FC617828710F4800F0ACFC21786871AC
:1024B0000C4800F0A7FC0024A871295D10220C48EC
:1024C00002F00FFF01340A48104902F062FE072CA7
:1024D000F3D1074802F062FEBDE8704004480C49A1
:1024E00002F072BE891400203814002037DC000886
:1024F000A81400203EDC000846DC00084CDC000884
:1025000053DC00085DDC0008421400200EDE0008E9
:1025100067DC000870B51C480D4601F088FB1B4CB9
:1025200001462046FEF794F8E188194E6423B1FB7A
:10253000F3F1C9B2304600F065FC2870E2884FF430
:102540007A73B2FBF3F103FB11213046C9B200F0FC
:1025500059FC68706179304600F054FCA87021790C
:10256000304600F04FFCA178E870304600F04AFC9D
:1025700061782871304600F045FC2178687130465A
:1025800000F040FCA87170BD4214002038140020F7
:102590008914002070B536488AB0FEF7E5F8044685
:1025A00001F016FF0A2003F007F82146314801F038
:1025B0003BFB304801F03BFB04462F48FFF7BFFDD3
:1025C0002E4E00283BD02C48FFF7ACFD4AF6B10355
:1025D000A0F10F059D4294BF0546B42533785BB149
:1025E000B5F5966F03D92C4401A8254907E004F5F9
:1025F0009664244824492CE024492C4401A803F083
:1026000032F801A907A803F04FF80A22294604A8C6
:1026100003F065F804A907A803F09BF81C4903F030
:10262000A5F80146174802F0C5FD04A802F0D9FF3D
:1026300007A802F0D6FF01A802F0D3FF0BE0337821
:1026400023B104F596640F48124902E00D4812497F
:10265000B43402F0B9FD11492246064801F0E9FA06
:102660000A2002F0A9FF01F0B9FE0AB070BD00BF58
:10267000381400204214002033140020401400209D
:102680008ADC0008A8140020B0DC0008D7DC0008B1
:10269000A9DC0008EDDC000823DD00085723000852
:1026A00030B5154885B0FEF75FF8144C054601F0CB
:1026B0008FFE0A2002F080FF2946204601F0B4FA7E
:1026C000204601F0B4FA0E49054601A802F0CBFFFE
:1026D00001A90C4802F06EFD01A802F082FF0A4930
:1026E00005F56162204601F0A4FA0A2002F064FFB9
:1026F00001F074FE05B030BD3814002042140020F3
:1027000049DD0008A81400205723000801481121C2
:1027100001F081BA42140020704701207047012067
:102720007047000010B5FF2301441A46884208D0C4
:1027300010F8014B5440044A125D5A40034B1B5D94
:10274000F4E743EA022010BD090000200B0100203D
:1027500070B5094D094C064622782978084801F0E1
:102760000DF92878012102F0C9FE2078012102F03C
:10277000C5FE304670BD00BF090100200A010020DF
:102780007814002010B5064C204601F08AF9204646
:1027900001F093F9D0F1010038BF002010BD00BF57
:1027A0007814002010B54A2104460548FFF7EAFFD7
:1027B00028B1236820461B6801219847012010BDDD
:1027C0008814002070B5094C154620461E4601F0BD
:1027D00068F92946204601F075F92046314601F096
:1027E00071F92046BDE8704001F067B97814002007
:1027F000F8B5134814461E460F469DF8185001F0D0
:1028000050F921460E4801F05DF90D4801F055F9E7
:102810000B4CA5B12A462046394601F057F9002253
:10282000237A551C33B10648D7B201F05DF92A4628
:10283000F055F5E70248BDE8F84001F03EB9F8BDB3
:1028400078140020F0B51C4685B0012300930DF1EB
:102850000F03154607460E46FFF7CAFF9DF80F30D7
:102860009DF8282023EA04031440234338463146C8
:102870002A468DF80F30FFF7A5FF05B0F0BD000028
:1028800013B5002471B1012213460B484A2100946C
:10289000FFF7D8FF4A210094074802224023FFF7A0
:1028A000D1FF8021009104484A2102228023FFF7B2
:1028B000C9FF02B010BD00BF8814002008B51E2259
:1028C0000F481F2101F05AF838210D4801F0E9F8AE
:1028D00006210B4801F0F6F8094801F0EEF84FF434
:1028E000FA7002F069FE0748FFF75CFF10B1064876
:1028F000064901E004480649BDE8084002F064BC0E
:102900009814002044140020A8140020D8DD0008EA
:10291000F1DD000800000000F0B5334C85B00D4635
:102920001646FFF7CBFF39210122204601F0CEF8F1
:10293000012002F041FE277A1FB1204601F0D4F8B1
:10294000074638210122284801F0C0F8012002F092
:1029500033FE207A10B1244801F0C6F840EA07207F
:1029600004F0BEFA1EA3D3E9002304F02FFB04F009
:10297000EFFD1E4930601E4802F00BFC31680A2250
:102980001B4802F0CAFC022300931A4803AB4A21F9
:102990000322FFF72DFF9DF80D209DF80C3002F06B
:1029A0000F0242EA03122D21D2B24A431B0902FA56
:1029B00003F34FF47A72B3FBF2F32B600E490C4829
:1029C00002F0E7FB29680A22094802F0B0FC0B4933
:1029D000074802F0F9FB05B0F0BD00BFAFF300807F
:1029E0000AD7A3703D0A773F981400200ADE00083A
:1029F000A81400208814002010DE000827DE00083C
:102A000008B50348FFF7A4FE024A034B1A6008BD4D
:102A100088140020A8DD0008441400202DE9F041AE
:102A20001E463D4B86B018688846596801AC03C401
:102A3000174600210A2203A805F0D4FF9DF8303084
:102A400006AC04F8143D20460621FFF76BFE030A8E
:102A50008DF80B0031488DF80A30036821469B68D9
:102A600008229847642002F0A7FD00242B4802F0BA
:102A700063FA002804F1010509DD284802F008FA8C
:102A8000E4B206AB1C4404F80C0C2C46EEE79DF8AF
:102A90000C509DF814405DB90DF10D000721FFF7B2
:102AA00041FE9DF8153043EA042484420BD10EE028
:102AB00003A80721FFF736FE9DF8133044EA0324EC
:102AC00084420FD000254FF6FF7415481CE09DF896
:102AD00011309DF810009DF8124043EA00209DF847
:102AE000133009E09DF810309DF80F009DF811405B
:102AF00043EA00209DF8123043EA042404F04EFE1D
:102B0000084904F057FFE50BC8F800003C60357039
:102B100006B0BDE8F08100BFC0DD0008D814002079
:102B200000FF7F470000C84270B5274C86B0206880
:102B30000E46616801AB03C306AC154600210922AD
:102B400003A805F04FFF04F8145D20460621FFF7A7
:102B5000E9FD030A8DF80B001C488DF80A30036864
:102B600021469B6808229847642002F025FD002436
:102B7000164802F0E1F900280DDD144802F088F94A
:102B8000651CEDB206AB1C44082D04F80C0C34BFD8
:102B90002C460024ECE703A80521FFF7C3FD9DF8B0
:102BA00011209DF8123043EA0223834205BF9DF8AD
:102BB0000F209DF810304FF6FF7343EA02230A22DC
:102BC0005343336006B070BDC8DD0008D814002040
:102BD000F0B516462A4A87B010680F46516801AC16
:102BE0001D4603C4092206AC002103A805F0FAFE25
:102BF00004F8145D20460621FFF794FD030A8DF8C2
:102C00000B0020488DF80A30036821469B68082293
:102C10009847642002F0D0FC00241A4802F08CF996
:102C200000280DDD174802F033F9651CEDB206AB44
:102C30001C44092D04F80C0C34BF2C460024ECE78E
:102C400003A80721FFF76EFD9DF813209DF81430AF
:102C500043EA022383420CD19DF812309DF8110003
:102C60009DF80F2043EA00209DF8103043EA02232C
:102C700002E04FF6FF7318463860336007B0F0BDCE
:102C8000D0DD0008D814002073B50121514D142067
:102C900002F034FC642002F08FFC284600F0DAFDDC
:102CA0004D4C01262060642002F086FC284600F08E
:102CB000E3FD4A4DA060642002F07EFC04F11403A1
:102CC00004F1180104F1100200962846FFF7A6FE51
:102CD000642002F071FC04F1280128460222FFF76B
:102CE00023FF642002F068FC334604F11C0104F168
:102CF00020022846FFF76CFF642002F05DFC04F11F
:102D0000240204F10C012846FFF706FE344D64202E
:102D100002F052FC1420002102F0F0FB2846314959
:102D200002F037FA206804F0FDF8022602460B464E
:102D30000096284602F0B0FB28462B4902F029FAFB
:102D4000A06804F0EFF8009602460B46284602F011
:102D5000A3FB2846254902F01CFA23696421B3FB32
:102D6000F1F10A22284602F0D8FA2149284602F059
:102D700010FAA06A04F012FD1E4904F01BFE04F0D4
:102D8000D1F8009602460B46284602F085FB2846FD
:102D9000194902F0FEF9A06904F0C4F800960B4648
:102DA0000246284602F078FB2846144902F0F1F961
:102DB000E1690A22284602F0B0FA2846104902F0DA
:102DC000E8F9216A28460A2202B0BDE8704002F004
:102DD000A4BA00BF8C1400204C140020481400201A
:102DE000A814002032DE000851DE00082CDE0008A6
:102DF00040DE00080000C8424BDE00085CDE000830
:102E000069DE00080A22B1FBF2F302FB131202EBA7
:102E10000310C0B2704701F00F03090901EB8101F3
:102E200003EB4100C0B2704737B50C460C480DF1BA
:102E30000701FEF7D8FE9DF807304FF47A7058432B
:102E4000084902F07CFB9DF8073005466420584392
:102E5000054902F074FB2844206003B030BD00BF78
:102E60003714002080841E00400D030070B50E460C
:102E700015460024E3B2AB42074809D2315D102267
:102E800002F02FFA0448054902F083F90134F1E712
:102E9000BDE8704002F082B9A81400200EDE0008E0
:102EA00030B595B040220546002104A805F09AFDF2
:102EB000002414A941F8504D28466946FFF7B4FF95
:102EC000009802F087FBFE238DF81030E0238DF888
:102ED000113011238DF8123024238DF81330012383
:102EE0008DF815303C4B8DF814401B7803B15523F9
:102EF0003A488DF81630FFF7CCF801AC8DF8170082
:102F000021463648FFF768F8002304AA1A44E15C1A
:102F10000133052B1172F8D131482146FEF70BFE23
:102F2000002304AA1A44E15C0133092B5173F8D140
:102F30000024012305A824218DF826308DF8274090
:102F40008DF828408DF829408DF82A408DF82B40C7
:102F50008DF82C408DF82D408DF82E408DF82F40A7
:102F60008DF830408DF831408DF832408DF8334087
:102F70008DF834408DF835408DF836408DF8374067
:102F800000F00FFE8DF83800E30704AB234404F192
:102F9000010454BF0D220A22062C83F82920F3D104
:102FA0001049114802F010F904A928462F22FFF712
:102FB0005DFF0E48FEF75AF80D4804A903682F225A
:102FC0009B6898474FF4FA7002F0F6FA0748FEF74C
:102FD0005DF815B030BD00BF20140020341400206F
:102FE0003714002076DE0008A814002030140020DA
:102FF000C014002030B587B014220446002101A877
:1030000005F0F0FC002506A941F8185D2046694648
:10301000FFF70AFF009802F0DDFAFE238DF8043076
:10302000E0238DF8053013238DF8063005238DF845
:10303000073001238DF809301E4B8DF808501B789E
:1030400003B155231C488DF80A30FFF722F80123FD
:103050008DF80B00052102A88DF80C3000F0A1FDC1
:1030600000238DF80D00DA0701AA1A4403F10103C9
:1030700054BF0D210A21062B9172F4D10F4910483B
:1030800002F0A2F801A920461022FFF7EFFE0D483A
:10309000FDF7ECFF0C4801A9036810229B689847D4
:1030A0004FF4FA7002F088FA0648FDF7EFFF07B018
:1030B00030BD00BF201400203414002092DE000830
:1030C000A814002030140020C014002030B58DB0AA
:1030D0001E220546002104A805F084FC00240CA94A
:1030E00041F8244D2846ADF80840FFF79DFE0398AF
:1030F00002F070FA344B0094344802A90122FEF722
:103100001FFAFE238DF81030E0238DF811301423C0
:103110008DF8123012238DF8133001238DF81530FD
:103120002B4B8DF814401B7803B1552329488DF89B
:103130001630FEF7AEFF01238DF81830264B002421
:103140001B788DF817009DF8081024488DF8193069
:103150008DF81A408DF81B40FFF75DFE9DF80910B1
:103160008DF81C001D48FFF756FE12218DF81D003A
:1031700005A800F016FD23468DF81E00DA0704AA04
:103180001A4403F1010354BF0D210A21062BD17308
:10319000F4D11349134802F017F804A92846152260
:1031A000FFF764FE1048FDF761FF104804A90368AB
:1031B00015229B6898474FF4FA7002F0FDF90A480F
:1031C000FDF764FF0DB030BDB8DE000831140020FB
:1031D00020140020341400208B14002089140020B7
:1031E000C2DE0008A814002030140020C014002003
:1031F000F0B589B005460F4616460021192201A8F0
:1032000005F0F0FB002408A941F8204D2846694646
:10321000FFF70AFE009802F0DDF9FE238DF8043076
:10322000E0238DF8053015238DF806300E238DF838
:10323000073001238DF809302A4B8DF808401B78A0
:1032400003B1552328488DF80A30FEF722FF0024E9
:103250008DF80B00012302A80E218DF80C308DF89B
:103260000D708DF80E408DF80F408DF810408DF8E0
:1032700011408DF812408DF813408DF814408DF8F0
:10328000154000F08EFC8DF81600E30701AB2344D7
:1032900004F1010454BF0D220A22062CDA74F4D181
:1032A0001249134801F090FF284601A91922FFF79F
:1032B000DDFD1048FDF7DAFE0024E3B2B3420BD285
:1032C0000D4801A9036819229B6898474FF4FA70CA
:1032D00002F072F90134F0E70648FDF7D7FE09B0B5
:1032E000F0BD00BF2014002034140020DCDE0008F4
:1032F000A814002030140020C0140020F0B50024D1
:10330000ABB021460646142205A8019405F06AFBDD
:10331000802221460AA805F065FB2AA941F8A04DA4
:103320003046FFF781FD029802F054F9A448FFF7F8
:10333000ABFCFE238DF82830D0238DF829300125F1
:103340003023A0488DF82B308DF82C408DF82A5072
:103350008DF82D50FDF7A0FE9B4C030A27688DF8D1
:103360002F009A4938468DF82E3004F02BFC28B1F6
:10337000FF238DF830308DF831301AE038460021C7
:1033800004F002FC18B107F10047276000E0054691
:10339000022301A821680422FDF7D4FA9DF8043025
:1033A0008DF830309DF805308DF831300DB1F223B5
:1033B00000E0E223A5688DF832302846002301930F
:1033C00004F00AFC0138632803D9FF238DF8333059
:1033D0000BE0022301A829460422FDF7B3FA9DF869
:1033E00004308DF833309DF805308DF834300021ED
:1033F000E223142205A88DF83530019105F0F2FA88
:10340000E268734B9A4207D9FF238DF836308DF866
:1034100037308DF8383019E06E4905A805F04AFDBF
:1034200005A805F0CBFD05A9024601A8FDF752FA53
:103430009DF804308DF836309DF805308DF8373022
:103440009DF806308DF838309DF807308DF839300A
:10345000E0238DF83A30A36A0A200025B3FBF0F090
:10346000019504F09BF92B460146042201A8FDF7C3
:1034700069FA9DF80430606A8DF83D309DF805309A
:1034800064288DF83E304FF0E1038DF83B508DF805
:103490003C508DF83F30019503D9FF238DF8403023
:1034A0000DE004F07BF92B460146042201A8FDF74C
:1034B00049FA9DF804308DF840309DF80530E0223F
:1034C00020698DF842208DF845208DF848204FF670
:1034D000FE728DF8413090424FF0FF038DF843307B
:1034E0008DF844308DF846308DF8473002D98DF88C
:1034F000493016E0344B1B7D012B08BFC0F58030EE
:1035000004F04CF9344904F055FA02230146042230
:1035100001A8FDF717FA9DF804308DF849309DF8A1
:1035200005308DF84A30237DA569012B0CBFF223AD
:10353000E2238DF84B3028460023019304F04CFB26
:10354000642803DDFF238DF84C300BE0022301A833
:1035500029460422FDF7F6F99DF804308DF84C3029
:103560009DF805308DF84D30206AE2238DF84E30FD
:103570004FF6FE7300259842019503D9FF238DF87D
:103580004F300DE004F00AF92B460146042201A851
:10359000FDF7D8F99DF804308DF84F309DF80530CF
:1035A0008DF85030E069E0238DF851304FF6FE730E
:1035B00000259842019511D9FF238DF852301BE068
:1035C00048140020301400204C1400200000164342
:1035D000400D0300F4DE00080000C84204F0DEF8ED
:1035E0002B460146042201A8FDF7ACF99DF80430F2
:1035F0008DF852309DF8053003AC8DF853301F48DC
:10360000E02321468DF85430FEF784FF00230AAAF8
:103610001A44E15C0133072B82F82D10F7D10BA877
:10362000302100F0BEFA00238DF85C00DA070AAA08
:103630001A4403F1010354BF0D210A21062B82F81D
:103640003510F3D10E490F4801F0BEFD0AA93046EE
:103650003B22FFF70BFC0C48FDF708FD0B480AA9BD
:1036600003683B229B6898474FF4FA7001F0A4FF6F
:103670000548FDF70BFD2BB0F0BD00BF4114002045
:10368000FADE0008A814002030140020C014002026
:103690002DE9F84300240F469046994625464C45AF
:1036A00013DA5FFA88F60121304601F027FF0A207D
:1036B00001F082FFF8B201F00BFF002100EB45059D
:1036C000304601F01BFF0134E9E72846BDE8F883E6
:1036D00070B5D4B21D46EDB20E462046002102F070
:1036E00061F82846002102F05DF82046012101F032
:1036F00005FF2846012101F001FF2046002101F0CD
:10370000FDFE2846002101F0F9FE2846012101F0C6
:10371000F5FE2046012101F0F1FE2846002101F0CE
:10372000EDFEF3B201222046294601F013FF2846A0
:10373000012101F0E3FE2046022102F033F8204689
:1037400001F0C6FE2846002101F0D8FE2046BDE863
:10375000704001F0BDBE38B5CDB22846022102F05E
:1037600021F864240A2001F027FF284601F0B0FE6A
:1037700008B1013CF6D138BD2DE9F843CCB215466D
:1037800080460E46EFB22046022102F00BF8384682
:10379000002102F007F82A46082331464046FFF789
:1037A00077FF00214FEA0029204601F0FBFF204669
:1037B000012101F0A3FE2046002101F09FFE3846C2
:1037C000012101F09BFE3846002101F097FE2046C2
:1037D000022101F0E7FF404631462A460823FFF761
:1037E00057FF49EA0000BDE8F88338B51446CDB26A
:1037F000E4B22846002101F0D5FF2046002101F067
:10380000D1FF2846012101F079FE2046012101F077
:1038100075FE20460021BDE8384001F06FBE38B586
:1038200090E80C0004460321FFF752FF2046216870
:10383000FFF791FF94E806002046FFF79DFF94E80C
:10384000060005462046FFF7D0FF284603F0AAFFF2
:1038500038BD000008B5FFF7E2FF04F0BDF903F042
:10386000A1FF034903F0F2FF024903F0E5FE08BDA2
:103870000AD7233C00002042F8B590E80C0004462B
:103880000521FFF725FF20462168FFF764FF94E834
:1038900006002046FFF770FF94E806000546204624
:1038A000FFF7A3FF284603F07DFF1E49064603F0FD
:1038B000CDFF4FF0814103F0BFFE1B490546304666
:1038C00003F0C4FF314603F0C1FF0146284603F070
:1038D000B5FE07462046FFF7BDFF03F023FB00229D
:1038E000124B03F0BFF904460D463046104903F071
:1038F000ADFF104903F0A2FE03F014FB02460B4695
:103900002046294603F062FB044638460D4603F084
:1039100009FB02460B462046294603F0A5F903F0B1
:1039200037FEF8BD54E3253DA2E73BB60000394021
:10393000ACC5A7380AD7233C024B1D211C2283E8C3
:10394000060070478C1400200A4B1A680A4B9B68CB
:1039500000BF00BF074909688A42F5D1C3F58C331F
:10396000482103F5A073B3FBF1F34FF47A7000FB29
:10397000023070478C15002010E000E010B50446BE
:1039800080E80600D0B2002101F00CFF2078002171
:1039900001F008FF00232079E360012101F0AEFD72
:1039A00020780121BDE8104001F0A8BD38B5C368FA
:1039B00004460D4623B10021C160007801F0F2FEFB
:1039C00020782946BDE8384001F098BD10B50021A7
:1039D0000446FFF7EBFF642001F0FCFD2079002195
:1039E00001F08CFDBDE81040642001F0F3BD10B57E
:1039F00000210446007901F081FD642001F0EAFD18
:103A000020460021FFF7D2FF642001F0E3FD20797A
:103A1000012101F073FD642001F0DCFD204601214D
:103A2000FFF7C4FFBDE81040642001F0D3BDF8B536
:103A300004460E460825F7092079002101F05EFDB5
:103A400020463946FFF7B2FF0121207901F056FDEB
:103A5000642001F0BFFD20463946FFF7A7FF76003E
:103A6000013DF6B2E7D12946207901F047FD2078E3
:103A7000022101F097FE0223E3602079012101F089
:103A80003DFDFFF761FF0546207801F021FD30B1D3
:103A9000FFF75AFF401B6428F6D90020F8BD01202B
:103AA000F8BD38B50D460446FFF790FF6900204683
:103AB00001F0FE01FFF7BBFF38BD08B5FFF797FF28
:103AC000002008BD08B5FFF7B2FF08BD70B50D4670
:103AD0006D0004461646FFF779FF691CA660204674
:103AE000C9B2FFF7A4FF70BD70B586680446002E0A
:103AF00055D00078022101F055FE0223E36008252D
:103B000000262079002101F0F9FC0121207901F043
:103B1000F5FC642001F05EFD207801F0D9FC013D48
:103B200000EB460000F0FF06EBD1A3686068013BA4
:103B3000002BA360C0B2294617DD01F0DFFC642032
:103B400001F048FD29462046FFF730FF642001F0D0
:103B500041FD2079012101F0D1FC642001F03AFD02
:103B60002079294601F0CAFC19E001F0C7FC642065
:103B700001F030FD01212046FFF718FF642001F01D
:103B800029FD0121207901F0B9FC642001F022FD1A
:103B90002079294601F0B2FC2046FFF728FF304685
:103BA00070BD002330B5054618468B420FDAEA5C3B
:103BB0005040082210F0010F4FEA60041ABF84F051
:103BC000E000C0B2E0B2013AF4D10133EDE730BD1C
:103BD000122938B50546144608460BD0132910D0D3
:103BE000112916D100F07CF80CB120460FE047F601
:103BF000FF700CE000F074F8002CF6D149F63F405D
:103C000005E000F06DF8002CEFD14FF2234000F0FA
:103C10006BF9284638BD13B50022044601A8FFF70A
:103C2000D7FF204602B010BD084600F043B900F0AF
:103C30002FB910B510460C4600F070F9214603204C
:103C4000BDE8104000F0A2B8054B1B681B685B0183
:103C500003F1844394331A68002AFCD0704700BFF4
:103C60000C020020054B1B681B685B0103F18443B9
:103C70008C331A68002AFCD0704700BF0C02002069
:103C800008B5FFF7E1FF054B00221B681B685B01CD
:103C900003F18443C3F88C2008BD00BF0C02002050
:103CA00008B5FFF7D1FF054B01221B681B685B01BC
:103CB00003F18443C3F8902008BD00BF0C0200202C
:103CC00008B5FFF7C1FF054B00221B681B685B01AD
:103CD00003F18443C3F8902008BD00BF0C0200200C
:103CE00010B5044600F067FB00F072FB204A112C6F
:103CF000136A23F44073136213460BD005D8C4B182
:103D0000102C2AD10023136227E0122C11D0132C7F
:103D10001AD022E0174A00211160012142F8081C44
:103D2000154A126812F0FF0FFAD01A6A42F4807234
:103D300012E0124A01211160114A1268002AFBD0D8
:103D40001A6A42F4007207E00E4A126812F0FF0F7E
:103D5000FAD01A6A42F440721A620B4B01221A60BE
:103D6000FFF78EFFFFF77EFFBDE81040FFF76CBF47
:103D700000100240080442420404424280044242CD
:103D800084044242440042423C04424238B5144D4D
:103D900004462B6803EB80035960FFF755FF032CA3
:103DA00009D1104A01231360C2F800310E4B4FF4C1
:103DB00000725A6038BD2B6801221B68944204EBE4
:103DC000C3034FEA830303F184431A6003D002D391
:103DD000022C00D038BD044B08221A6038BD00BF49
:103DE0000C0200204480204200E100E010B50446AF
:103DF000FFF72AFF032C0B4B05D10B4900220A6069
:103E0000C1F8002108E01A680021126804EBC20220
:103E1000920002F1844211601B6803EB84040023CA
:103E2000636010BD0C02002044802042F8B5104BA6
:103E30001E6835682B686F681F4017F0010403D0B7
:103E400074680CB1A0470124BA0704D5B36813B154
:103E5000984744F002047B0704D5F36813B19847F0
:103E600044F004046B6823EA04046C60F8BD00BFEE
:103E70000C02002008B5044B1B681B691BB1984756
:103E8000024B01221A6008BD0C020020C4822042AD
:103E900008B5FFF7F5FEFFF7E5FEFFF7D5FE044B8B
:103EA0001B681B689869DB699BB243EA004008BD48
:103EB0000C02002010B50446FFF7E2FEFFF7D2FE29
:103EC000FFF7C2FEFFF7ECFE064B220C1B68A4B204
:103ED0001B689A61DC61FFF7F3FEBDE81040FFF755
:103EE000B3BE00BF0C02002010B50446FFF7C8FEA9
:103EF000FFF7B8FEFFF7A8FEFFF7D2FE064B220C35
:103F00001B68A4B21B689A60DC60FFF7D9FEBDE8AD
:103F10001040FFF799BE00BF0C02002010B5044608
:103F2000FFF7AEFEFFF79EFEFFF78EFEFFF7B8FE2F
:103F3000064B220C1B68A4B21B681A625C62FFF776
:103F4000BFFEBDE81040FFF77FBE00BF0C0200209F
:103F5000704700000B4B10B5196809220A230A4864
:103F600000F0FEFF094B022219680948032300F004
:103F7000F7FFBDE81040074B074819681A221B23BA
:103F800000F0EEBF30030020A8140020340300200E
:103F9000C014002038030020D814002010B50446B7
:103FA00000F0EEF9034B20461978BDE8104000F010
:103FB00073B900BF28020020F8B50446056800F078
:103FC000D5FB22680023510101F184410B6080215F
:103FD00029600121A9622B61EB606379696113B1EA
:103FE0008B4203D02BE04FF400436B644FF6FF731A
:103FF000D36200256E1CF7B22046394600F0C0FBA4
:10400000D0B1236848F6FF7103F1340242F825105D
:1040100018336D1017F0010F53F8252014BF6FF0FF
:10402000FF016FF47F4101EA020214BF68214FF4DF
:10403000D0410A4343F82520042E3546DAD12168C1
:1040400001224B01490103F1844301F18441C3F88A
:1040500080220A60F8BD000038B5274B274C1A684B
:10406000022042F010021A6000F0BEF90025002084
:1040700000F088FA65602368182023F40023236089
:1040800000F08DFA102000F08AFA00F043F8A560E5
:10409000102000F077FA102000F09EFA0028FAD0E5
:1040A00000F039F8164800F0A3FA182000F06AFA78
:1040B000182000F091FA0028FAD0022000F052FAFD
:1040C00000214FF0006000F0FFF90E4800F006FB01
:1040D00000F038F80C4B188800F040F90B4800F05D
:1040E00041F90B4800F02EFB00F02EF800F02DF8FF
:1040F000FFF72EFF38BD00BF002002400010024035
:104100002C0200203F1901002A0200209D3F0008D8
:10411000B93F0008704708B50020014600F0B6FA24
:1041200001204FF4806100F0B1FA0021022000F07C
:10413000ADFA2D2000F0BAFABDE8084003200021B6
:1041400000F0A4BA00F05AB9704700F097B9000027
:1041500001498D460149084700500020614100088F
:1041600008B5124B124A1968914201D0002301E0B0
:10417000104B07E01048D4188442F9D2C858D050E8
:104180000433F7E70D4A934203D2002243F8042B8D
:10419000F8E704F077F800200146024600F0C8FF77
:1041A000074B0BB104F05EF8FEE700BFE4E4000843
:1041B00000000020781300207813002098150020BC
:1041C0006582000808B50D4B1A680AB90C4A1A60D6
:1041D0001B680C4AD21A824204DB09494242591A2E
:1041E000914206DA04F038F80C2303604FF0FF30F8
:1041F00008BD024A18441060184608BDF01400209B
:104200009815002050240128FEE70000000000005F
:10421000012007E0022005E0032003E0042001E084
:104220000520FFE70D4A0121116072B60C4A0021FA
:104230001160074902B4084902B486B005498E46A8
:10424000704700BFAFF30080AFF30080AFF3008092
:1042500000000061F9FFFFFF194E000814ED00E0B7
:1042600010E000E0AFF30080AFF30080AFF3008018
:10427000FEE710B50446007900F0D6F92079BDE8D4
:10428000104000F0E9B903689A6822F4602242F411
:104290008012114399607047002370B51A461C467E
:1042A000072B4FEA430503DCEE1801FA06F6344308
:1042B0001D4401FA05F501330A2B42EA0502EFD14C
:1042C0000368DC601A6170BD0368DA6A22F0F87274
:1042D000DA6259639A6842F480029A601A68920717
:1042E000FCD5D86C80B2704738B5124D2A68136877
:1042F0001C68A10706D5196821F0020119609368AE
:1043000003B19847620708D52B681A681B691168C2
:1043100021F00401116003B19847E30708D52B6829
:104320001A68DB68116821F00101116003B1984738
:1043300038BD00BF58020020036801225B0103F171
:10434000844303F58673191F1A6018680028FCD18E
:1043500043F8042C0B68002BFCD170470146042065
:1043600000F094B9044B10B504461868A047034BFD
:104370001868A04710BD00BF58020020540200205A
:1043800010B50446FFF775FF20464FF46021FFF794
:104390007AFF2368012103F1404308335A015B018E
:1043A00002F1844203F18443116520461960BDE89F
:1043B0001040FFF7C1BF08B5142000F035F9042004
:1043C00000F032F9BDE80840042000F045B90000D3
:1043D000014B01221A60704720000E42014B00225F
:1043E0001A60704720000E42034B1A6822F0070241
:1043F00010431860704700BF0020024008B507480E
:1044000001F077FA064801F074FA064801F071FAF3
:10441000BDE80840044801F06CBA00BF5C0200200F
:10442000640200206C0200207402002070B501F0CC
:104430000704A4000F25A5400368C80853F82060AE
:10444000092A26EA050514BF1646082606FA04F4CA
:10445000082A44EA050443F8204006D1012000FA66
:1044600001F1DA6822EA010106E0092A05D10120FA
:1044700000FA01F1DA681143D96070BD08B5032074
:1044800000F0D2F8BDE80840032000F0E5B80000D5
:10449000024B4AF6AA221A60704700BF0030004063
:1044A00000284FEA011105DA064B00F00F00C9B2EF
:1044B0001954704700F16040C9B200F5614080F8BE
:1044C0000013704714ED00E021F0604138B521F091
:1044D0007F01084B0843986000241D4660B20F21FD
:1044E0000134FFF7DDFF2B2CF8D1F02385F82330C2
:1044F00038BD00BF00ED00E0044A054BD16801F46F
:1045000040710B43D360BFF34F8FFEE700ED00E037
:104510000400FA05014B1860704700BFA0000E426E
:10452000074B1A6842F001021A601A6842F0020250
:104530001A60044B1A6942F004021A6130BF7047D6
:104540000070004000ED00E0024B1A6842EA800073
:104550001860704700700040014B13F8100070475E
:10456000BCE10008064B5A6822F0030202435A607D
:1045700080005A6802F00C028242FAD1704700BFF4
:1045800000100240030A0121C0B201FA00F003F159
:10459000804303F504331A68104318607047030A18
:1045A0000121C0B201FA00F003F1804303F50433A6
:1045B0001A6822EA000018607047030A0122C0B29C
:1045C00002FA00F003F1804303F504331B6818423C
:1045D0000CBF002001207047030A0222C0B202FA79
:1045E00000F003F1804303F504331B681840704763
:1045F00038B54368044618201D68FFF7DEFF20B178
:1046000006488121064A00F011FC064B21685A68D1
:104610000D4322F4741215435D6038BD4CE100086F
:10462000A0E100080010024010B50446FFF794FF17
:10463000074B53F82020074B03EB4404637803EB4C
:10464000C2039B0003F1844301221A6010BD00BF26
:104650007C020020BCE1000810B50446FFF77CFF97
:10466000084B53F82020084B03EB4404637803EB1A
:10467000C2039B0003F1844301221A6000221A60E6
:1046800010BD00BF88020020BCE1000810B5054B3A
:10469000054C5A6854F8200022EA00021143596080
:1046A00010BD00BF0010024018E2000810B504461B
:1046B000FFF752FF074B53F82020074B03EB44044E
:1046C000637803EBC2039B0003F1844300221A606A
:1046D00010BD00BF90020020BCE10008024B072281
:1046E00058601A60704700BF10E000E008B5044B46
:1046F0001A6801321A60034B1B6803B1984708BD62
:104700008C150020F414002011F0010F70B542EA5E
:1047100003030CBF0825002503FA05F5006801F125
:10472000FF3400F11800C4F3400450F8241014BF03
:104730006FF0FF066FF47F463140294340F82410A4
:1047400070BD000010B504460448A0470448A047C7
:104750000448A0470448A04710BD00BFE402002061
:104760000C0300209C020020C002002010B504466B
:104770000079FFF759FF2079BDE81040FFF76CBFC3
:1047800003791E2B10D9212B0ED0202B0ED9222BD2
:1047900001D0252B04D102298CBF002001207047B5
:1047A0004B1E584258417047012070470020704707
:1047B0008B1C40F823200368012203F140430C3393
:1047C00001EBC3039B0003F184431A604279037930
:1047D000FAB9B3F11A025342534107294BD8DFE823
:1047E00001F004090909090E0E13002B0CBF2C233C
:1047F000192337E0002B0CBF2E231B2332E0002BA4
:104800000CBF2D231A232DE0002B0CBF2B231823C4
:1048100028E01B3B0C2B1CD8DFE803F02123070901
:104820000B0D1B0F1113151719001E231AE032234D
:1048300018E0362316E0372314E0182312E019237A
:1048400010E01A230EE02B230CE02C230AE02D238A
:1048500008E0094840F2BF11084A00F0E7BA1C23FB
:1048600000E01D235909012203F01F0302FA03F39C
:10487000034A42F8213070472CE200086CDA000845
:1048800000E100E00368002203F140430C3301EB38
:10489000C3039B0003F1844302311A6040F82120D6
:1048A00070470000F8B54E1EF3B2032B04460D46C8
:1048B000174604D92648DA21264A00F0B7FA637968
:1048C000022B43D0032F41D8DFE807F00212223534
:1048D00020462946FFF7D6FF236803F140432033E3
:1048E000DB0003EB8606B60006F18446002320E0D9
:1048F0002368002203F140430C3305EBC3039B0004
:1049000003F184431A60204629466022082303E00D
:104910002046294610220023FFF7F6FE236803F104
:1049200040432033DB0003EB8606B60006F18446E5
:1049300001233360F8BD23684FF2F1229A6103220C
:104940009A605B0103F1844301221A60F8BD00BF45
:104950002CE200087FE2000810B5074B1C68E168F4
:1049600022690A40120606D55B6A23B1984723697B
:1049700023F08003236110BDE402002010B5074B33
:104980001C68E16822690A40D20706D59B6823B1FA
:104990009847236923F00103236110BDE40200203E
:1049A000F8B50C4F3D68EB682E691E4016F04004C8
:1049B00003D03C6A0CB1A0474024B30604D5FB6980
:1049C00013B1984744F020042B6923EA04042C61B6
:1049D000F8BD00BFE4020020F8B5134F3E68F3684D
:1049E00035691D4015F0100403D0BC690CB1A04717
:1049F0001024290704D57B6913B1984744F00804B3
:104A00006A0704D53B6913B1984744F00404AB0727
:104A100004D5FB6813B1984744F00204336923EAD4
:104A200004043461F8BD00BFE4020020F8B51A4E5A
:104A30003768FB683D691D4015F0400403D0346AB7
:104A40000CB1A0474024EB0604D5B36913B19847D5
:104A500044F01004280704D5736913B1984744F053
:104A60000804690704D5336913B1984744F0040476
:104A7000AA0704D5F36813B1984744F00204EB0782
:104A800004D5B36813B1984744F001043B6923EAA5
:104A900004043C61F8BD00BF0C030020F8B51A4EB9
:104AA0003768FB683D691D4015F0400403D0346A47
:104AB0000CB1A0474024EB0604D5B36913B1984765
:104AC00044F01004280704D5736913B1984744F0E3
:104AD0000804690704D5336913B1984744F0040406
:104AE000AA0704D5F36813B1984744F00204EB0712
:104AF00004D5B36813B1984744F001043B6923EA35
:104B000004043C61F8BD00BF9C020020F8B51A4EB9
:104B10003768FB683D691D4015F0400403D0346AD6
:104B20000CB1A0474024EB0604D5B36913B19847F4
:104B300044F01004280704D5736913B1984744F072
:104B40000804690704D5336913B1984744F0040495
:104B5000AA0704D5F36813B1984744F00204EB07A1
:104B600004D5B36813B1984744F001043B6923EAC4
:104B700004043C61F8BD00BFC002002081880268C7
:104B8000034689B2505C99881A8989B292B29142DF
:104B900017BF9A880022013292B2C0B29A80704741
:104BA000C28838B5838892B29BB201329A420446D9
:104BB0000D461AD0C288038992B29BB29A4202D1A2
:104BC00083889BB28BB14FF0FF30E288236892B2AA
:104BD0009D54E288238992B29BB29A4217BFE38820
:104BE000002301339BB2E38038BD2046FFF7C6FFA8
:104BF000EBE770B51E460546084611460422059CA3
:104C0000FFF714FC9DF810100B223046FFF70EFC46
:104C10002B6804F00F01DA6804F0300422F4F0523B
:104C20001204120C42EA4122DA601A6922F440525C
:104C30001204120C42EA04241C6170BD38B504460B
:104C4000154611B900F096F8014619235943AD00F5
:104C50006423B1FBF5F1B1FBF3F21201100903FB80
:104C6000101109013231B1FBF3F303F00F03216896
:104C70001A4392B28A6038BD38B5114DEB68980678
:104C800007D52B68990604D569680E48C9B2FFF7A5
:104C900087FFEB680A4C1A0611D523681B060ED550
:104CA00009488288C38892B29BB29A4203D0FFF728
:104CB00065FF606038BDE36823F08003E36038BDC2
:104CC0000038014004150020F814002038B5114DBB
:104CD000EB68980607D52B68990604D569680E48D5
:104CE000C9B2FFF75DFFEB680A4C1A0611D52368BD
:104CF0001B060ED509488288C38892B29BB29A429D
:104D000003D0FFF73BFF606038BDE36823F080030A
:104D1000E36038BD00440040101500202815002035
:104D200038B5114DEB68980607D52B68990604D560
:104D300069680E48C9B2FFF733FFEB680A4C1A06E0
:104D400011D523681B060ED509488288C38892B204
:104D50009BB29A4203D0FFF711FF606038BDE36851
:104D600023F08003E36038BD004800401C1500209C
:104D70003415002008B590F89002FFF7EDFB20B144
:104D80000128034818BF002008BD024808BD00BF25
:104D900000A24A040051250213B504468DF80710FD
:104DA00020460DF10701012200F0FEFD0028F7D09A
:104DB00002B010BD38B505464C1E14F8011F19B1DC
:104DC0002846FFF7E9FFF8E738BD000008B5114BAA
:104DD00001211C6803222046FFF728FB0023012144
:104DE0001A469342206834BF02254FF40035B2F5CD
:104DF000007F056103F1010303D0002A08BF0121F0
:104E000001E04FF0FF31B3F5007F04BF52180023DB
:104E1000E7E700BF48E1000808B5034B0BB1AFF36B
:104E2000008062B6FFF7D2FF00000000F8B5144B17
:104E300006460D4617460BB3AFF3008011490446F2
:104E4000FFF7B8FF20463946FFF7B4FF20460E496A
:104E5000FFF7B0FF20463146FFF7ACFF20460B4975
:104E6000FFF7A8FF2046294600F0ECFD20460A2166
:104E7000FFF792FF20460D21FFF78EFFFFF7CCFFD3
:104E8000000000009BE20008B1E200080DDE00080F
:104E900003695B68D9889A8889B292B2D8888A1ADD
:104EA000998880B289B2884203D2198989B20131C6
:104EB0000A4492B282B199881A6889B2505C998882
:104EC0001A8989B292B2914217BF9A8800220132A0
:104ED00092B2C0B29A8070474FF0FF3070470369BA
:104EE0005B689988DA8889B292B2914205D09A8833
:104EF0001B6892B2985CC0B270474FF0FF307047A9
:104F000003699A689088D18880B289B28842F9D1C1
:104F10001A6813685B06FCD5704713B504698DF8F1
:104F2000071020460DF10701012200F03DFD002889
:104F3000F7D0012002B010BD03695B68D8889A8859
:104F400080B292B2D988801A9A8889B292B291427C
:104F500003D21B899BB20133184480B27047000012
:104F600030B5002545604FF47A758560024D0161CA
:104F700005600275437530BDE8E2000803692DE95C
:104F8000F74FDB68044699420F4692462CD890F8BA
:104F90001480174D4FEA081808EB050690F8159095
:104FA00070684FEA091909EB050B717B10B10022FB
:104FB000FFF778FC206900F0A7FC337B9BF80C20FE
:104FC00020698DE8080459F8051058F80530FFF7F6
:104FD00010FE206900213A46FFF730FE206903B039
:104FE000BDE8F04F00F0BABC03B0BDE8F08F00BFE1
:104FF00018DF00080022FFF7C1BF006900F0B8BC4D
:10500000044B02791B789A4202D1034B1B6818604B
:10501000704700BF5015002054150020002310B524
:105020000446036072B6054B19311970044B1860C1
:105030000448FFF787FB62B6204610BD50150020DC
:105040005415002001500008036800221B685B0112
:1050500003F184431A607047036801221B685B01F7
:1050600003F184431A607047036801391B6889B2F1
:105070009962704703681B68DA6A92B2914228BF4E
:1050800011465962704738B5054639B9036801229F
:105090001B689962DA62D86A80B238BD48244C43F2
:1050A0004FF6FF71B4FBF1F1013189B204EB510409
:1050B000B4FBF1F4FFF7D8FF2B68A4B21B682046BD
:1050C000DC6238BD0068C9B2FFF7ECBB0368C9B247
:1050D0001B6801F18041D86A013980B234338242C1
:1050E00028BF024643F8212070470068C9B2FFF785
:1050F0005FBB000008B501210848FFF78FFF0221C0
:105100000748FFF78BFF03210648FFF787FFBDE83D
:10511000084005480421FFF781BF00BF401500206B
:1051200044150020481500204C150020FEF794BFC0
:1051300008B5FBF713F9FBF7D7F8FCE770B50546A0
:105140000E460024315D29B12A682846126890472E
:105150000134F7E7204670BDF8B505460C46164603
:105160008F18BC4206D02B6828461B6814F8011B18
:105170009847F6E73046F8BD10B502680B469468CC
:1051800009689A68A04710BD08B503681B6898476E
:1051900008BD08B503685B68984708BD38B50D21A0
:1051A0000546FFF7F1FF0A2104462846FFF7ECFF0A
:1051B000204438BD38B50446FFF7DEFF05462046DB
:1051C000FFF7ECFF284438BD38B50446FFF7E1FF90
:1051D00005462046FFF7E2FF284438BD2DE9F04F91
:1051E00014461D4691B054EA050381469DF868B007
:1051F00004D13021FFF7C8FF01202EE04FF0000856
:105200005FFA8BF600272046294632463B4602F0DD
:1052100009FD08F101080DF1000AC2440AF8012C49
:10522000204629463B46324602F0FCFC04460D4629
:1052300054EA0503E4D1002408F1FF381DF80810F2
:105240004846092994BF30313731C9B2FFF79CFF76
:105250000444B8F1000FEFD1204611B0BDE8F08F43
:105260002DE9F041069F064614461D462FB90368F6
:10527000D1B21B689847BDE8F081002C75F100039E
:1052800005DA2D21FFF780FF644265EB4505FFB28B
:105290000697304622462B46BDE8F041FFF79EBFF9
:1052A00007B5CB1700920A46FFF7DAFF03B05DF8A7
:1052B00004FB38B50446FFF7F3FF05462046FFF729
:1052C0006DFF284438BD70B5049921B90368D1B287
:1052D0001B68984770BDC9B20491BDE87040FFF7E4
:1052E0007DBF07B500230092CAB2FFF7ECFF03B001
:1052F0005DF804FB38B50446FFF7F3FF054620468A
:10530000FFF74CFF284438BD07B5002300920A463A
:10531000FFF7D9FF03B05DF804FB38B50446FFF78B
:10532000F3FF05462046FFF739FF284438BD07B58F
:10533000002300920A46FFF7C6FF03B05DF804FBA6
:105340002DE9F74F19460646144610461D46002221
:10535000002302F0CBF89DF830704FF0010838B10F
:105360002046294644A3D3E9002302F0B5F806E01D
:105370002046294642A3D3E9002302F0A3F800B94E
:1053800080465FFA88F82046294600220023B8F1BB
:10539000000F0DD002F08CF818B130462D21FFF728
:1053A000F3FE804638493046FFF7F3FE404460E0A4
:1053B00002F07EF838B130462D21FFF7E5FE05F109
:1053C000004380461D46314B4FF0000900225FFA32
:1053D00089F1B9420AD21046194600222C4B01F03D
:1053E0001FFF09F1010902460B46F0E72046294656
:1053F00001F03AFC04460D4602F02AFC82468B4638
:1054000001F0B6FD02460B462046294601F02AFC73
:105410000A2300930446524630465B460D46FFF78A
:105420001FFF804427B130461A49FFF7B2FE80447F
:10543000F7B1174B00222046294601F0C7FD0D4663
:10544000044602F05DF881460A2249463046FFF7DD
:1054500027FF8044484601F053FD02460B46204694
:10546000294601F0FFFB013F04460D46FFB2DFE78E
:10547000404603B0BDE8F08F800350726C92DF436A
:10548000800350726C92DFC308E300080000E03F25
:105490000000244001DC000837B59DF818100446D0
:1054A0000091FFF74DFF05462046FFF777FE2844A1
:1054B00003B030BD054B03EB001000F1080380681A
:1054C00010B19979FEF700BF704700BF18DF0008E0
:1054D00022280ED8084B00011A18127B012101FA6C
:1054E00002F21B581B689B681A420CBF0020012067
:1054F00070470020704700BF18DF0008222810D82E
:10550000084B00011A18127B1B58012000FA02F206
:10551000D1F1010138BF0021090102FA01F11B6834
:105520001961704718DF000810B5044630B103F068
:10553000A7FA90FBF4F303FB140010BD10BD8842E2
:1055400010B5044604DA081AFFF7EEFF204410BD38
:1055500010BD00002DE9F04780460E4608460021A8
:1055600092469946FFF7CAFF0024BAF1000F02D015
:10557000C4F1070100E0214649FA01F1404601F07B
:105580000101FFF7BBFF0B4A3301D718D3580121A4
:105590001D683B7BEA6801FA03F35340EB603A7BFA
:1055A000EB68914001345940082CE960DDD1BDE839
:1055B000F08700BF18DF0008054B70B51C68064671
:1055C0001D4600F031F92B681B1BB342F9D370BDA7
:1055D0008C1500200C235843431E18460138FDD873
:1055E000704710B50446006802F07CFE204610BDEE
:1055F00010B50446006808B102F074FE0023236071
:10560000A360636010BD38B504460D4600680131E3
:1056100003F056FA10B184E82100012038BD036878
:1056200010B5044613B143688B4207D22046FFF7FA
:10563000EAFF20B1A3680BB922681370012010BDE6
:1056400070B50E46114604461546FFF7E8FF18B937
:105650002046FFF7CDFF04E0A5602068314603F047
:105660004FFC204670BD38B50023044603604360FC
:1056700083600D4639B1084603F0A0FC2946024676
:105680002046FFF7DDFF204638BD884210B50B46A7
:10569000044607D0096819B19A68FFF7D1FF01E005
:1056A000FFF7A6FF204610BD10B500230446036097
:1056B00043608360FFF7E9FF204610BD38B505461B
:1056C0000C4641B1084603F079FC214602462846C3
:1056D000FFF7B6FF01E0FFF78BFF284638BD10B596
:1056E00000238AB00446036043608360084601A932
:1056F00000F0FDF8204601A9FFF7E0FF20460AB0C0
:1057000010BD70B5044685680E4609B9002070BD0D
:1057100062B115442946FFF782FF0028F6D02068C1
:10572000A3683146184403F0EBFBA560012070BD6F
:105730001FB504460A220846694600F0ADF86846DF
:1057400003F03CFC694602462046FFF7DAFF04B04E
:1057500010BD0B4610B509689A680446FFF7D1FFE3
:1057600010B92046FFF744FF204610BD38B5044667
:105770000D4641B1084603F021FC29460246204669
:10578000FFF7BFFF10B92046FFF732FF204638BDB4
:1057900010B50446FFF7CCFF10B92046FFF728FFED
:1057A000204610BD222870B53BD8082939D8DFE83B
:1057B00001F0051A080B0E1108141700002403222B
:1057C00013E00024042210E0002422460DE000240F
:1057D00009220AE00024082207E001240B2204E049
:1057E00001240F2201E0002407220E4B00011E18A5
:1057F000317B1858FEF71AFE706890B1717B24B1A6
:105800000122BDE87040FFF74DB80368013903F18C
:1058100040432033DB0003EB81039B0003F184430F
:105820001C6070BD18DF00087047F0B58BB059B32D
:10583000931E222B2AD80A2A2AD1002828DA40428D
:10584000012501AB1E4670B1B0FBF2F702FB170455
:10585000092C3846D8BF303403F10107C8BF57348C
:105860001C703B46EFE7B342EED01DB12D204A1C21
:10587000087000E00A46B34204D913F8010D02F89B
:10588000010BF8E700231370084603E0002001E055
:105890000025D6E70BB0F0BDFFF7C7BF70B58AB0E3
:1058A00001B3931E222B1FD801AB1D4670B1B0FB74
:1058B000F2F602FB1604092C3046D8BF303403F14F
:1058C0000106C8BF57341C703346EFE7AB42EED039
:1058D0000A46AB4204D913F8010D02F8010BF8E7B0
:1058E00000231370084600E000200AB070BDFFF7E7
:1058F000D5BF10B504460079FEF796FE2079BDE8C5
:105900001040FEF7A9BE0000436800227F2110B5B9
:105910009A80DA80198100F11001196083680446C9
:105920009A80DA8040F2FF121A8100F190021A6028
:1059300090F89002FEF778FE94F891325AB2002A5D
:1059400008DB012103F01F0301FA03F3024952119E
:1059500041F8223010BD00BF00E100E00368DA68C2
:1059600042F02C02DA60DA6842F40052DA607047E2
:1059700010B5036882689488D188A4B289B28C4239
:10598000F9D1DA68910402D51A685206F9D5DA68B5
:1059900022F40052DA6043689A8892B2DA8083680F
:1059A0009A8892B2DA8010BDF0B583680546046823
:1059B00000209F88DE88BFB2B6B2B74204D0E36849
:1059C00023F08003E36027E026683606F7D590428F
:1059D000F5D00E5C01306660EBE7DF889E88BFB2D1
:1059E000B6B20137B74211F800C01DD0DF881E895A
:1059F000BFB2B6B2B74213D0DF881E68BFB206F896
:105A000007C0DF881E89BFB2B6B2B74218D0DE88A1
:105A10000136B6B2DE8001309042AB68DDD303E0E0
:105A20009E88B6B2002EE7D19A88DB8892B29BB2EC
:105A30009A4200D1F0BDE36843F08003E360F0BD1B
:105A40000026E7E77FB5064600240A22B1FBF2F301
:105A500002FB1312013401AD2819303200F8012C79
:105A60001946002BF1D114F1FF340BD32B5D8DF8C7
:105A7000033030460DF103010122FFF795FF0028A6
:105A8000F7D0F0E704B070BD2DE9F04F8BB01D46A4
:105A900080468946144600F073F9DFF8ACA206464A
:105AA0009AF900300F46013304D02046294600F011
:105AB0008DFF20B9304639460BB0BDE8F08F404627
:105AC000494600F083FF834600282CD12046294612
:105AD0000022002301F0E2FC0028EBD0944B9AF95D
