:020000040800F2
:1000000000500020C53B0008813C0008853C0008EA
:10001000893C00088D3C0008913C0008E13C000848
:10002000E13C0008E13C0008E13C0008E13C00083C
:10003000E13C0008E13C0008E13C000831410008D7
:10004000E13C0008E13C0008E13C0008A138000860
:10005000E13C0008E13C0008E13C0008E13C00080C
:10006000E13C0008E13C0008E13C0008E13C0008FC
:10007000E13C0008E13C0008E13C0008E13C0008EC
:10008000E13C0008E13C0008593D0008E13C000863
:10009000E13C0008E13C0008E13C0008E13C0008CC
:1000A0009D430008C1430008E54300081D440008C3
:1000B00071440008E144000851450008E13C000893
:1000C000E13C0008E13C0008E13C0008E13C00089C
:1000D000E13C0008BD4600081147000865470008DC
:1000E000E13C0008E9380008E13C000810B5054C87
:1000F000237833B9044B13B10448AFF300800123D4
:10010000237010BD78130020000000000CBA000816
:1001100008B5064B1BB106480649AFF300800648F8
:10012000036813B1054B03B1984708BD00000000F8
:100130000CBA00087C130020781300200000000097
:1001400007B5324801F069FC002837D1304B3149FE
:1001500018702E4801F01BFB28B12C482D4901F0E6
:1001600051FB002848D12C4801F064FD20B12A48F9
:1001700001F00FFD002844D101238DF800302648FE
:10018000002369468DF801308DF802308DF8033078
:100190008DF8043001F0B3FC18B12048204904F078
:1001A00035FD20480021052200F09CFE06E01020CD
:1001B00004F0B2FE40B11C4800F0ACFD134801F061
:1001C0002CFC0028F3D011E041F2883004F018FF35
:1001D000102004F0A1FE0028EDD1144802F0AEFB7F
:1001E000102004F099FE0028FAD0E4E7084B012221
:1001F0001A7003B05DF804FB0D49084804F006FDD1
:10020000B1E70C49054804F001FDB5E736140020BC
:10021000080000209413002034140020A4140020AF
:10022000C8CD0008301400201F14002086140020C0
:10023000E5CD0008F9CD00080E4B70B51A780E4CCC
:100240001E462568AAB90D4802F0A6FD226805F5EC
:100250001C5310339A4201D2337833B123680848D3
:100260000849BDE8704004F0D1BC074800F052FDD9
:10027000ECE770BD1D1400208815002086140020B6
:10028000A414002028CE00081F14002008B5102058
:1002900004F042FE30BB642004F0B2FE102004F0F3
:1002A0003BFEF8B940F6C41004F0AAFE0E490F4810
:1002B00004F0ACFC40F6C41004F0A2FE142004F0DC
:1002C0002BFE78B9642004F09BFE142004F024FE79
:1002D00040B9074801F005FCBDE80840034805495E
:1002E00004F094BC08BD00BF47CE0008A414002051
:1002F000321400205BCE00084E4B10B51A684E48F1
:1003000022F0E06242F000721A6000F0C5FD182091
:10031000012104F017FE49484FF4165104F08CFBFC
:1003200047484FF4165100F07DFE4FF416514548F2
:1003300004F082FB03F077FD414800F051FE0820F5
:10034000002104F023FF0021082004F0FBFD3E48BB
:1003500001F0FAF901213A4800F06AFE4FF47A7090
:1003600004F04EFE394800F0D5FC0021132004F0C3
:10037000E9FD0A2004F044FEFFF788FF344801F04D
:10038000A7FB80B92E4801F00BF92D48012100F0A0
:100390005DFE2B48012100F04BFE2C4800F0BAFC1A
:1003A0002B4801F087FB2B4801F013FBFFF7C8FE39
:1003B0002949284801F03AFB0146B0B90A221E48F3
:1003C00000F090FD25491D4804F020FC244802F06F
:1003D0005FFB4FF47A7004F013FE1C4800F09AFCA7
:1003E00040F6B83004F00CFEE2E71E49134804F072
:1003F0000DFC114801210A2200F074FDFFF71CFFDB
:100400000D4800F0B1FD40F6E3439842164C01D987
:10041000002309E001230848237000F0A5FD40F601
:10042000B833984201D8022323701048BDE8104029
:1004300001F078BE0400014030140020A414002014
:1004400031140020D4140020351400201F14002083
:100450003214002036140020941300209FCE000890
:1004600086140020D2CE0008401400204114002041
:1004700008B51149114804F0C9FB11490F4804F0AF
:10048000C5FB0E4804F05EFA0E4800F055FD08204A
:10049000002104F057FD0120002104F053FD01214B
:1004A000132004F04FFD012003F056FD012003F05E
:1004B0006DFD03F057FDFEE7EBCE0008A41400200D
:1004C000FDCE00083014002008B5FFF7D1FF012948
:1004D00002D11C30C0B27047062984BF01F1FF3140
:1004E000C9B211F0010F14BF1E201F207047000079
:1004F000444B2DE9F047B1FBF3F603FB16113C2307
:10050000B1FBF3F203FB1212054602704FF4616077
:10051000B1FBF0F200FB1211B1FBF3F36B704FF47F
:10052000FA63AA70B6B2EB80EC884FF4C873B4FBE0
:10053000F3F803FB18481FFA88F8B8F1000F16D03B
:100540006423B4FBF3F203FB12439BB2002B53D0A2
:1005500014F0030140F26D130CBF4FF4B7721A464A
:1005600096420EDB002908BF4FF4B77304E0B6F5DE
:10057000B77F06DB4FF4B773F61A0134B6B2EC80DE
:10058000D2E700236B716423B4FBF3F703FB174737
:10059000BFB2B8F1000F06D03FB114F0030F14BF83
:1005A0000020012002E0012000E0384695F8059087
:1005B000C0B24946FFF78BFF864209F1010A15D305
:1005C000B8F1000F06D03FB114F0030F14BF0020A4
:1005D000012002E0012000E03846C0B24946FFF7A2
:1005E00076FF301A86B285F805A0D2E701362E7163
:1005F00085F805A0BDE8F087B6F5B67FC1DD40F20D
:100600006D13B9E780510100F8B5427887783C2333
:1006100003FB072702780579467903FB0727013D8D
:10062000013EEDB2F6B2044605714671013E731CFF
:10063000E38834D04FF4C872B3FBF2F102FB1132FD
:1006400092B262B16422B3FBF2F002FB103080B2CE
:1006500030B113F0030F14BF0020012000E001208F
:10066000C0B2F1B2FFF733FF284485B2DEE74FF4A2
:10067000C872B3FBF2F102FB113292B2AAB164224A
:10068000B3FBF2F102FB113292B28AB113F0030F05
:1006900040F26D1208BF4FF4B7721544ADB2013B82
:1006A0009BB2B3F5FA6FE2D205E04FF4B772F4E70C
:1006B00040F26D12F1E7024800FB0570F8BD00BF83
:1006C0008051010001F012BB38B50D46044601F01F
:1006D00028FB290A49006039204601F0FE0101F09B
:1006E000B7FB204601F08DFBE9B2204601F0B0FBDC
:1006F000204601F086FB204601F013FB2046A12195
:1007000001F0A6FB204601F07CFB0021204601F011
:10071000C6FB0546204601F057FB204601F01CFBB6
:10072000284638BD70B50D461646044601F0F9FA64
:10073000290A49006039204601F0FE0101F088FBDA
:10074000204601F05EFBE9B2204601F081FB204625
:1007500001F057FB3146204601F07AFB204601F0BC
:1007600050FB204601F0F8FABDE870400A2004F082
:1007700047BC0000D30770B548BF013200245208BF
:1007800002312346E5B2954225D211F8025CA5F16B
:100790004106F6B2052E02D8104B9B5D05E0303DB8
:1007A000EDB2092D03D80E4B5B5D1B01DBB211F8D6
:1007B000015CA5F14106F6B2052E01D8074D04E013
:1007C000303DEDB2092D02D8054E755D2B43035522
:1007D00002310134D6E7002070BD00BF0ECF000803
:1007E00004CF00082DE9F04F824687B00846144632
:1007F000994606F053F8C9EB0406CDE900013046EE
:1008000006F03AF802460B4600204D4904F0F6FD8A
:1008100002460B46DDE9000106F01AFB30B94FF045
:10082000020896FBF8F80546013E07E05046002115
:10083000224607B0BDE8F04F07F090BD454536DAD7
:10084000304606F019F802460B4600203C4904F0F9
:10085000D5FDCDE90201701E06F00EF802460B46EA
:100860000020374904F0CAFDDDE90223CDE9040187
:10087000DDE9000106F090F906F0FEFADDE9042357
:100880000A2790FBF7FB0BFB17004FEA001BDDE983
:10089000000106F081F906F0EFFA90FBF7F303FB95
:1008A000170083440AF805B0023E0135C6E709EB9C
:1008B00048094FF0020BC4EB090994FBFBFB09F15B
:1008C0000109D84538DA484605F0D6FF02460B46FE
:1008D00000201B4904F092FD064609F101000F4675
:1008E00005F0CAFF02460B460020154904F086FDBC
:1008F00032463B4604460D46DDE9000106F022F88B
:1009000006F0BAFA0A2690FBF6F707FB16002B460C
:1009100007012246DDE9000106F014F806F0ACFA02
:1009200090FBF6F303FB160007440AF8087009F180
:10093000020908F10108C4E707B0BDE8F08F00BF65
:1009400000002440124A517893784AF2130243EA95
:100950000123934213D008D84AF21102934213D0D4
:100960004AF21202934211D00DE04AF2140293426D
:1009700007D04AF22202934205D106207047022096
:100980007047032070477047002070470120704770
:100990009D13002010B5074C6018114602F03BFE75
:1009A000054B1B781C4414F8073C1B1A584258414D
:1009B00010BD00BF9D1300201E140020044B1879A9
:1009C0005B7943EA0020431E58425841704700BFFC
:1009D0009D130020044B9B79552B044B0CBF012227
:1009E00000221A70704700BF9D13002020140020C1
:1009F00010B5084CE379552B01D1012010BD0648F4
:100A000001F015F9E3798342F7D0D0F1010038BF46
:100A1000002010BD9D1300203414002013B50D4B91
:100A20001C7A552C01D1012012E00B48694601F0D7
:100A3000A1F800231A461DF803108C42F3D019B90F
:100A40000132D2B2052AEED00133052BF3D10020BA
:100A500002B010BD9D1300203414002070B505466F
:100A60001E46FFF797FF044698B12846FFF7A6FFFA
:100A7000044658B12846FFF7ADFF2846FFF7B8FFF8
:100A8000044648B946B10C480C4911E00A480C49E3
:100A90000EE009480B490BE02846FFF7BFFF04466C
:100AA00040B99DF810300BB9012403E00248064913
:100AB00004F0ACF8204670BDA414002066CF0008F6
:100AC00014CF000842CF00089DCF0008194B13B582
:100AD0001B7863B300230093042117220123FFF73F
:100AE000BDFFD8B1144C154804F10C0101F004FA13
:100AF000A17AE37A124843EA012101F0A9F810B182
:100B0000104B01221A70237A0F48552B02D101F0A5
:100B100015FF03E00721012202F0B8F80B4B06484D
:100B20001A78002102B0BDE8104007F017BC02B0EF
:100B300010BD00BF080000209D13002041140020BC
:100B4000331400201D140020861400201E140020E1
:100B5000174B07B51B7843B30023009304210A22E7
:100B60000123FFF77BFFB8B11248134900F0C7FF1C
:100B700030B11249124804F049F81248032108E044
:100B800011490F4804F042F8104B0A220D481A7020
:100B90000421012202F07AF80D4B0E481A78002148
:100BA00003B05DF804EB07F0D9BB03B05DF804FBBC
:100BB0000800002034140020A5130020D5CF000821
:100BC000A41400208614002005D0000887140020FB
:100BD0001E1400209D13002013B500230093042150
:100BE0000F22FFF73BFF10B31D4C1E4804F10A0112
:100BF00000F0CDFD002830D01A4804F10A0100F0C1
:100C000001FE50B31849194804F000F81848E1797A
:100C100000F0E0FFA0B11749144803F0F7FF1648B1
:100C20000521012202F032F80E4800F0BDFE134B00
:100C30000B481A78002102B0BDE8104007F08EBBC7
:100C40000A480F4903F0E2FF0E4B0A221A700A48C5
:100C50000621012202F01AF8E9E704480A49F1E7FF
:100C60009D1300203614002098D00008A414002002
:100C70003414002035D00008861400201E140020F3
:100C800067D0000887140020C5D000080D4B07B5B9
:100C90001B789BB100230093042105220123FFF759
:100CA000DDFE10B1084801F05FFF084B08481A78D4
:100CB000002103B05DF804EB07F050BB03B05DF812
:100CC00004FB00BF08000020861400201E14002032
:100CD0009D13002010B50446FFF734FE032817D8F3
:100CE000DFE800F002070C112046BDE81040FFF7D6
:100CF000EDBE2046BDE81040FFF72ABF2046BDE804
:100D00001040FFF769BF2046BDE81040FFF7BEBFA7
:100D100010BD00002DE9F047404C002782462770A7
:100D2000002635463E4803F029FE002833DD94F8BE
:100D300000903B4809F10103237003F0CBFDDFF87D
:100D4000F48008F80900052004F05AF923781022ED
:100D5000434413F8011C334803F0E5FF314832499E
:100D600003F039FF94F90030002B434602DA2B4A96
:100D700000211170F6B922781A4412F8012C0D2ABC
:100D800001D117E00126052DCCD12648274903F0D3
:100D90003DFF0127C4E757B12549224803F036FF3C
:100DA0005046FFF797FF00232370BDE8F0872770B8
:100DB000BDE8F087042DE5D8DFE805F0030C151E2B
:100DC00027002278134413F8015CB5F10A035D4251
:100DD0005D4121E02278134413F8013C0D2B0CBF38
:100DE0000225002518E02278134413F8013C0A2B51
:100DF0000CBF032500250FE02278134413F8013CB3
:100E00000D2B0CBF0425002506E02278134413F8AF
:100E1000013C0A2BB9D00025012683E71E140020CF
:100E2000BC140020A4140020CED70008F2D0000883
:100E300016D100089D13002008B5134B13491A68FA
:100E4000096801328A421A601DD3114900221A60D2
:100E50000B78DB43DBB20B700E49097841B10129F5
:100E600011D1182003B1114604F06CF8192005E0E7
:100E7000192003B9012104F065F818200021BDE80C
:100E8000084004F05FB808BD241400202C14002092
:100E9000211400202814002008B51320002104F09C
:100EA00075F91820002104F071F91920002104F0CF
:100EB0006DF91020022104F069F91420022104F0D8
:100EC00065F90321072004F061F90A2004F098F87D
:100ED0001820002104F036F8BDE808401920002150
:100EE00004F030B80F4B10B50F4C19700F4B204663
:100EF0001A600121022203F007FE20460C4903F08C
:100F0000E4FD012120460A4603F002FE20460121AD
:100F1000084A03F00CFE20460021BDE8104003F013
:100F2000CBBD00BF28140020481500202C14002041
:100F3000A0860100390E000808B5064803F0A6FD9A
:100F40001820002103F0FEFFBDE808401920002111
:100F500003F0F8BF48150020014803F09FBD00BF13
:100F6000481500200000000030B58BB001AD2846C8
:100F70000021242207F0F2F90024072003F0BEFF2D
:100F800005F07AFC12A3D3E9002305F0DBFC002274
:100F9000114B05F0D7FC05F097FF28514FF47A70FC
:100FA000043404F03BF8242CE7D109226B4608AC4A
:100FB00053F8040F5968884284BF58601960A342EF
:100FC000F6D1013A12F0FF02F0D105980BB030BD16
:100FD000F163CC5D4BC8E93F00001840AFF30080DF
:100FE00008B50120002104F0D1F80020014604F0EA
:100FF000CDF80420002104F0C9F80520002104F0F8
:10100000C5F80120014603F09DFF642003F0F8FFBE
:101010000420002103F096FFBDE8084005200121CF
:1010200003F090BF014803F007BD00BFBC140020CF
:1010300008B511B90846012101E00020014603F07E
:1010400081FFBDE80840642003F0DABF08B561B154
:101050000021052003F076FF962003F0D1FFBDE8C4
:1010600008400520012103F06DBF08BD08B500212F
:10107000012003F067FF0C4803F0E1FC022000218F
:1010800004F084F80320002104F080F802200021FD
:1010900003F058FF0320002103F054FFBDE808408F
:1010A0000520002103F04EBFBC14002010B50446FB
:1010B0000120014603F046FF07484FF4165103F0A4
:1010C000BBFC20460121FFF7C1FF20460121BDE8FE
:1010D0001040FFF7ADBF00BFBC14002010B50B7867
:1010E000452B12D14B78522B0FD18B78CC78303BDB
:1010F00003EB8303303C04EB4304E4B221460A22B1
:10110000034803F019FE204610BD0A2010BD00BFA1
:10111000A41400200B784F2B07D148784B2804D11A
:1011200013704B780120537070470020704730B522
:101130000020C4B20D5D01302C2D01D01D55F8E703
:10114000601C5525C0B21D55904204D20C5C1C5445
:101150000130C0B2F8E730BD10B50B46581AC0B226
:10116000904217D213F8010BA0F13004E4B2092C1D
:1011700002D803F8014CF1E7A0F14104052C01D895
:10118000373804E0A0F16104052C05D8573803F87E
:10119000010CE3E7012010BD002010BD2DE9F8434C
:1011A00000240F4691461D46A046FFF7D5FF204676
:1011B00014F0010FE3B210D117F80380064608EBD4
:1011C00088084FEA48085FFA88F805F80080D8F1E7
:1011D000010838BF4FF000080DE0FA5C2B5C461C9C
:1011E0001344F6B22B54B8F1000F04D1711E064817
:1011F000294401F054FB0134E3B24B4501D8304699
:10120000D6E7BDE8F88300BF85140020F8B54C7818
:10121000432C08D18C78532C05D1CD78B5F15104ED
:101220006542654100E000250026F4B20F5D0136FD
:101230003A2FFAD10134E4B200269442F7B206F113
:10124000010606D811F804E0013401F807E0E4B221
:10125000F3E7069A022614687A1E35B992FBF6F671
:101260002670D2B2FFF79AFF03E02670D2B2FFF7E2
:101270005EFF0120F8BD00002DE9F0419EB005ADF4
:101280000C4607460021904628466422039307F047
:1012900065F821462C4803F09EFC642003F0B0FE64
:1012A0000024294803F06AFB0028E6B207DD642C1D
:1012B00046D0254803F00EFB28550134F1E726B946
:1012C0002249234803F0A2FC3AE09DF814300D2B8C
:1012D00036D19DF815300A2B32D11EAB334413F8AA
:1012E000653C0A2B2CD1023E1EAB334413F8643C00
:1012F0000D2B25D10021CCB2A31CDBB2B34201F1EE
:10130000010107DA1EAA134413F8643C144404F8DC
:10131000643CF0E7384629464246FFF7DFFE0A28DC
:101320000CD103AB00933846294622464346FFF7CB
:101330006DFF00280CBF0320022002E0012000E026
:1013400003201EB0BDE8F081BC14002041D100088C
:10135000A41400202DE9F041B2B006460D46904697
:101360000021642268461F4606F0F8FF19A80021F4
:10137000642206F0F3FF0024E3B2E85C013420B1FC
:1013800032AA134403F8640CF6E70146CAB25D18AA
:1013900018F80240EDB232AA01312A4414B102F821
:1013A000644CF3E70D2302F8643C6B1C32A8DBB2FB
:1013B00003442F480A2203F8642C036819A95B68C8
:1013C00098472C48AA1C036819A99B68D2B2984771
:1013D000642003F015FE274803F0D0FA0028E5B298
:1013E00008DD642C40D0234803F074FA0DF80400A3
:1013F0000134F0E7002D37D09DF800300D2B33D1AC
:101400009DF801300A2B2FD132AB2B4413F8C93C85
:101410000A2B29D1023D32AB2B4413F8C83C0D2BCB
:1014200022D100218B1CDBB2AB4201F1010209DAAF
:1014300032A8034413F8C83CC9B2014401F8C83CBF
:101440001146EFE7304669463A46FFF747FE0A285D
:1014500006D1304669463A46FFF75CFE10B904E013
:10146000012002E0002000E0032032B0BDE8F0815E
:10147000A4140020BC14002073B51D4623480C465C
:10148000164600218DF80710FFF7D2FD1F482946A8
:101490002EB122460DF10703FFF7EEFE03E0069A98
:1014A0002346FFF757FF032828D8DFE800F0040998
:1014B0000227002309E01649164803F0A7FB17E0AE
:1014C0001549144803F0A2FB18E09DF807205D1CA5
:1014D000DBB29A420F4809D9E15C102203F023FCE9
:1014E0000C480E4903F077FB2B46EEE703F078FB40
:1014F00006480121FFF79CFD012004E0034801217B
:10150000FFF796FD002002B070BD00BF311400202F
:1015100055D10008A414002061D10008CED70008DE
:1015200030B5002487B001221B4B009402A9054668
:10153000FFF7A2FF2346224606AC13F0010F03A9D2
:10154000144404D114F8100C0009C85406E014F82F
:10155000100C013200F00F00C854D2B20133082B36
:10156000EAD10023CA5C092A01D8303204E0A2F192
:101570000A00052801D83732CA540133082BF1D1AB
:1015800000220091284602A9044B8DF81420FFF791
:1015900073FF07B030BD00BF72D100087DD10008D5
:1015A0002DE9F0418AB05249044606AF514803F094
:1015B0002DFB384600210F2206F0D0FE00252046E4
:1015C000FFF7AEFF4C4B8DF81800009303A90022E3
:1015D0004A4B2046FFF750FF494B8DF81900009306
:1015E00003A90022474B2046FFF746FF464E8DF8E1
:1015F0001A0003A90022454B00962046FFF73CFF46
:1016000003A98DF81B000022414B00962046FFF7EE
:1016100033FFDFF830818DF81C0003A900223D4B19
:10162000CDF800802046FFF727FF03A98DF81D00A5
:101630000022394BCDF800802046FFF71DFF374BC5
:101640008DF81E00009303A90022354B2046FFF7BA
:1016500013FF344B8DF81F00009303A90022324B77
:101660002046FFF709FF314B8DF82000009303A9B6
:1016700000222F4B2046FFF7FFFE2E4B8DF8210056
:101680000096204603A90022FFF7F6FE00238DF8FE
:101690002200FE5C86B92849164803F0B7FA2046B6
:1016A000FFF704FD2046FFF7E1FC01354FF4FA6037
:1016B000EDB203F0A5FC03E001330B2BE9D10126C9
:1016C0002046FFF7F3FC86B9092D7FF678AF1B485B
:1016D00031461E22FFF706FC1949064803F096FA28
:1016E00040F6B83003F08CFCF6E70AB0BDE8F081B4
:1016F00086D10008A4140020AFD10008A5D10008AD
:10170000C2D10008B8D10008D3D10008CBD100085D
:10171000D6D10008DED10008E9D10008F9D10008CF
:10172000F1D1000803D20008FCD100080ED2000855
:1017300006D2000811D2000819D200083014002087
:1017400045D20008E6D1000810B500210446152056
:1017500003F01CFD1520012103F0F4FB2046BDE839
:101760001040FEF7AFBF08B5052003F049FCBDE807
:1017700008401520012103F0E5BB08B51520002124
:1017800003F0E0FBBDE80840052003F039BC7FB55D
:1017900004460E46FFF7F1FF0D2573192946204632
:1017A00013F80D2C0135FEF7BDFF162DF5D130468F
:1017B000092101F030FF0646294620463246FEF751
:1017C000B1FF0D2529462046FEF77EFF01AB2B44D5
:1017D0000135162D03F80D0CF4D101A8092101F0F3
:1017E0001AFFB042204603D0FFF7BDFF002007E0FC
:1017F0000B215522FEF796FF2046FFF7B4FF01208C
:1018000004B070BD7FB504460E46FFF7B6FF17253E
:1018100073192946204613F8172C0135FEF782FF6D
:10182000202DF5D13046092101F0F5FE0646294666
:1018300020463246FEF776FF172529462046FEF75A
:1018400043FF01AB2B440135202D03F8170CF4D1D5
:1018500001A8092101F0DFFEB042204603D0FFF7C6
:1018600082FF002007E00C215522FEF75BFF204697
:10187000FFF779FF012004B070BDF0B585B001AD70
:1018800006460F4628460021092206F067FD0D2472
:1018900021463046FEF718FF2B190134162C03F8A9
:1018A0000D0CF5D121463046FEF70EFF0921044606
:1018B000284601F0B0FE844206D10023EA5CFA54C7
:1018C0000133092BFAD101E0002000E0012005B02E
:1018D000F0BDF0B585B001AD06460F4628460021A3
:1018E000092206F03BFD172421463046FEF7ECFEA8
:1018F0002B190134202C03F8170CF5D12146304662
:10190000FEF7E2FE09210446284601F084FE8442E7
:1019100006D10023EA5CFA540133092BFAD101E025
:10192000002000E0012005B0F0BD37B50C461E21B7
:101930000546FEF7C9FE1F218DF804002846FEF774
:10194000C3FE02218DF8050001A801F064FE20709D
:1019500003B030BD10B50446FFF70FFF002220464C
:101960000B21FEF7DFFE2046FFF7FDFE20460B2190
:10197000FEF7AAFED0F1010038BF002010BD10B55F
:101980000446FFF7FAFE002220460C21FEF7CAFEAD
:101990002046FFF7E8FE20460C21FEF795FED0F129
:1019A000010038BF002010BD10B50446FFF7E5FE6A
:1019B000552220462121FEF7B5FE2046FFF7D3FE33
:1019C00020462121FEF780FEB0F1550358425841D0
:1019D00010BD38B50446102003F09EFAE0B941F27C
:1019E000883003F00DFB102003F096FA054698B9F5
:1019F0002046FFF7C2FE2A4620462121FEF792FE2E
:101A00002046FFF7B0FE20462121FEF75DFED0F113
:101A1000010038BF002038BD38BD08B52121FEF7D0
:101A200053FEB0F155035842584108BD38B504463D
:101A30000D46FFF722FF20B120462946FFF749FF58
:101A400040BB20462946FFF718FF48B11449154806
:101A500003F0DCF820462946BDE83840FFF7D2BE47
:101A600020462946FFF735FF48B10F490D4803F0DE
:101A7000CDF820462946BDE83840FFF788BE0B491F
:101A8000084803F0C3F82046FFF764FF2046FFF73D
:101A900076FF03E00348064903F0B8F8012038BD9B
:101AA0008CD20008A4140020C3D20008FAD2000887
:101AB0000ED3000810B50446FFF75FFE204635211F
:101AC0005522FEF72FFE2046BDE81040FFF74BBE23
:101AD00008B53521FEF7F8FDB0F1550358425841DD
:101AE00008BD10B50446FFF748FE20463521002208
:101AF000FEF718FE2046BDE81040FFF734BEF8B5EB
:101B000004460E46FFF739FE26257319294620465E
:101B100013F8262C0135FEF705FE2B2DF5D10521F6
:101B2000304601F078FD0746294620463A46FEF742
:101B3000F9FD262520462946FEF7C6FD731913F840
:101B4000263C834214D101352B2DF3D12046294662
:101B5000FEF7BAFDB842204608D12C215522FEF7E7
:101B6000E1FD2046FFF7FFFD0120F8BDFFF7FBFD7B
:101B70000020F8BD70B506460D46262421463046A5
:101B8000FEF7A2FD2B1901342B2C03F8260CF5D1FE
:101B900070BD38B50446FFF7F0FD2625002220462B
:101BA0002946FEF7BFFD20462946FEF78DFD024679
:101BB00020B12046FFF7D7FD002038BD01352B2D81
:101BC000ECD120462C21FEF7ADFD2046FFF7CBFDE2
:101BD000012038BD37B502AD04468DF80710FFF778
:101BE000CCFD15F8012D20462D21FEF79BFD01218E
:101BF000284601F010FD2E2102462046FEF792FDF8
:101C000020462D21FEF760FD9DF8073083422046D7
:101C100008D12F215522FEF785FD2046FFF7A3FDB1
:101C2000012002E0FFF79FFD002003B030BD2D2111
:101C3000FEF74ABD10B50446FFF79FFD20462D2153
:101C40000022FEF76FFD2046FFF78DFD10BD00005E
:101C50004A1F4AF6BB039A4270B504460D4628D87F
:101C60003221FEF731FD332106462046FEF72CFDDA
:101C700040EA0620A84204D10F49104802F0C6FFEE
:101C800015E02046FFF779FD20463221C5F30722F3
:101C9000FEF748FD20463321EAB2FEF743FD204619
:101CA00034215522FEF73EFD2046FFF75CFD012062
:101CB00070BD002070BD00BF3ED30008A4140020FA
:101CC00038B532210546FEF7FFFC3321044628468D
:101CD000FEF7FAFC40EA042038BD08B53421FEF7CF
:101CE000F3FCB0F155035842584108BD08B5162021
:101CF000002103F04BFA1720002103F047FA1620C9
:101D0000012103F01FF9BDE808401720012103F06D
:101D100019B91720002103F039BA1720042103F064
:101D200035BA08B5FFF7F5FF1720012103F00AF9CE
:101D30000121162003F006F9052003F06FF90021B8
:101D4000172003F0FFF8062003F068F9BDE808400B
:101D50001620002103F0F6B808B5FFF7DAFF1620C9
:101D6000002103F0EFF81720002103F0EBF8012128
:101D7000162003F0E7F8062003F050F917200121A0
:101D800003F0E0F8BDE80840062003F047B910B5BD
:101D900000210446162003F0D5F82046FFF7B9FFCE
:101DA0000021172003F0CEF8022003F037F90121BB
:101DB000162003F0C7F8052003F030F9BDE8104005
:101DC0001620002103F0BEB810B5002104461620ED
:101DD00003F0B8F82046FFF79CFF0121172003F01D
:101DE000B1F8022003F01AF90121162003F0AAF835
:101DF000052003F013F9BDE810401620002103F080
:101E0000A1B870B50646FFF788FF0121172003F03F
:101E100099F8012003F002F91620012103F092F84D
:101E2000012003F0FBF8FB25172003F075F80446AA
:101E300040B1013D15F0FF05F6D13046FFF78CFFAC
:101E4000012070BD1620214603F07CF8204670BDAD
:101E500038B50C46FFF75DFF1620002103F072F83D
:101E6000082524F07F0303F0FF01172003B10121AF
:101E700003F068F80121162003F064F8022003F053
:101E8000CDF81620002103F05DF8013D022064002A
:101E900003F0C4F815F0FF05E4B2E2D138BDF8B59F
:101EA00005460F46FFF739FF0826002400211620BB
:101EB00003F048F8022003F0B1F81620012103F0E6
:101EC00041F864001720E4B203F026F808B10134A9
:101ED000E4B20120013E03F0A1F816F0FF06E5D1BF
:101EE000284617B9FFF770FF01E0FFF750FF2046C3
:101EF000F8BD032001F0B4BC70B55E480D4609780A
:101F000000F0D7FC697806465A4800F0D2FC06EB90
:101F10008606594C06EB860600EB8600E080A97821
:101F2000544800F0C6FC6071E978524800F0C1FCEA
:101F3000207129794F4800F0BCFC6979A0704D48A8
:101F400000F0B7FCA97960704A4800F0B2FC4B4938
:101F500020704B4802F03FFEE1880A22484802F018
:101F6000CAFE4849464802F036FE61790A224448D2
:101F700002F0E2FE4449424802F02DFE21790A2295
:101F80003F4802F0D9FE41493D4802F024FEA178C5
:101F90000A223B4802F0D0FE3D49394802F01BFEC0
:101FA00061780A22364802F0C7FE3A49344802F006
:101FB00012FE0A222178324802F0BEFE01F040FFF4
:101FC000642003F01DF82046FEF71EFB0146324850
:101FD00001F064FB642003F013F801F037FF2E4892
:101FE00001F05FFB01462046FEF782FAE188642398
:101FF000B1FBF3F1C9B21F4800F048FC2870E28839
:102000004FF47A73B2FBF3F103FB11211948C9B203
:1020100000F03CFC68706179164800F037FCA8704D
:102020002179144800F032FCA178E870114800F0E2
:102030002DFC617828710F4800F028FC2178687128
:102040000C4800F023FC0024A871295D10220C48E4
:1020500002F069FE01340A48104902F0BCFD072C69
:10206000F3D1074802F0BCFDBDE8704004480C49BC
:1020700002F0CCBD85140020381400205DD3000888
:10208000A414002064D300086CD3000872D30008A5
:1020900079D3000883D3000842140020CED700086B
:1020A0008DD3000870B51C480D4601F0FAFA1B4CA0
:1020B00001462046FEF71CFAE188194E6423B1FB65
:1020C000F3F1C9B2304600F0E1FB2870E2884FF42A
:1020D0007A73B2FBF3F103FB11213046C9B200F071
:1020E000D5FB68706179304600F0D0FBA87021798B
:1020F000304600F0CBFBA178E870304600F0C6FB1C
:1021000061782871304600F0C1FB21786871304653
:1021100000F0BCFBA87170BD4214002038140020F0
:102120008514002070B54A4886B0FEF76DFA044663
:1021300001F086FE0A2002F063FF2146454801F0C7
:10214000ADFA444801F0ADFA05464348FFF7C5FD36
:10215000424E002859D04048FFF7B2FD4AF6B1037D
:10216000A0F10F029A42044619D93D49684602F08F
:102170009EFF694603A802F0BBFFB42103A802F04A
:10218000FBFF384902F0E6FF0146374802F034FD14
:1021900003A802F04AFF684602F047FFB4243378F0
:1021A000012B0BD1B4F5966F03D9254468462F490E
:1021B00015E005F5966503A82D4934E0022B0BD1F7
:1021C000B4F5166F03D9254468462A4907E005F59A
:1021D000166503A8284926E028492544684602F0E8
:1021E00066FF694603A802F083FF214603A802F0B8
:1021F000C3FF1C4902F0AEFF01461B4802F0FCFC85
:1022000003A802F012FF684614E03378012B04D1D2
:1022100005F5966503A81A4905E0022B0CBF19497C
:10222000194903A8123502F042FF0F4803A902F032
:10223000E3FC03A802F0F9FE14492A46054801F020
:1022400032FA0A2002F0DCFE01F000FE06B070BD9A
:1022500038140020421400203314002040140020C1
:10226000B0D30008B6D40008A414002024D4000879
:102270006DD40008B8D400080AD500085ED500085F
:10228000AAD500081FD600089BD60008F31E000838
:102290000148112101F0F9B94214002070470120D2
:1022A000704701207047000010B5FF2301441A4613
:1022B000884208D010F8014B5440044A125D5A403D
:1022C000034B1B5DF4E743EA022010BD0900002028
:1022D0000B01002070B5094D094C0646227829787B
:1022E000084801F085F82878012102F02BFE2078BB
:1022F000012102F027FE304670BD00BF0901002019
:102300000A0100207414002010B5064C204601F08C
:1023100002F9204601F00BF9D0F1010038BF00208E
:1023200010BD00BF7414002010B54A2104460548B2
:10233000FFF7EAFF28B1236820461B680121984770
:10234000012010BD8414002070B5094C15462046AC
:102350001E4601F0E0F82946204601F0EDF820463F
:10236000314601F0E9F82046BDE8704001F0DFB8E1
:1023700074140020F8B5134814461E460F469DF805
:10238000185001F0C8F821460E4801F0D5F80D4864
:1023900001F0CDF80B4CA5B12A462046394601F094
:1023A000CFF80022237A551C33B10648D7B201F08A
:1023B000D5F82A46F055F5E70248BDE8F84001F0A7
:1023C000B6B8F8BD74140020F0B51C4685B00123E2
:1023D00000930DF10F03154607460E46FFF7CAFF9F
:1023E0009DF80F309DF8282023EA0403144023436E
:1023F000384631462A468DF80F30FFF7A5FF05B065
:10240000F0BD000013B5002471B1012213460B4842
:102410004A210094FFF7D8FF4A210094074802227E
:102420004023FFF7D1FF8021009104484A21022276
:102430008023FFF7C9FF02B010BD00BF8414002045
:1024400008B51E220F481F2100F0D2FF38210D4889
:1024500001F061F806210B4801F06EF8094801F01F
:1024600066F84FF4FA7002F0CBFD0748FFF75CFF07
:1024700010B10648064901E004480649BDE8084095
:1024800002F0C4BB9414002044140020A4140020C3
:1024900098D70008B1D70008F0B5334C85B00D4689
:1024A0001646FFF7CDFF39210122204601F048F8FA
:1024B000012002F0A5FD277A1FB1204601F04EF859
:1024C000074638210122284801F03AF8012002F09D
:1024D00097FD207A10B1244801F040F840EA072027
:1024E00004F0BAF91EA3D3E9002304F02BFA04F098
:1024F000EBFC1E4930601E4802F06DFB31680A2279
:102500001B4802F02CFC022300931A4803AB4A211B
:102510000322FFF72FFF9DF80D209DF80C3002F0ED
:102520000F0242EA03122D21D2B24A431B0902FADA
:1025300003F34FF47A72B3FBF2F32B600E490C48AD
:1025400002F049FB29680A22094802F012FC0B49F3
:10255000074802F05BFB05B0F0BD00BFAFF30080A1
:102560000AD7A3703D0A773F94140020CAD7000809
:10257000A414002084140020D0D70008E7D7000856
:1025800008B50348FFF7A6FE024A034B1A6008BDD0
:102590008414002070D70008441400202DE9F04175
:1025A0001E463D4B86B018688846596801AC03C486
:1025B000174600210A2203A805F0D0FE9DF830300E
:1025C00006AC04F8143D20460621FFF76DFE030A11
:1025D0008DF80B0031488DF80A30036821469B685E
:1025E00008229847642002F00BFD00242B4802F0DB
:1025F000C5F9002804F1010509DD284802F06AF94F
:10260000E4B206AB1C4404F80C0C2C46EEE79DF833
:102610000C509DF814405DB90DF10D000721FFF736
:1026200043FE9DF8153043EA042484420BD10EE0AA
:1026300003A80721FFF738FE9DF8133044EA03246E
:1026400084420FD000254FF6FF7415481CE09DF81A
:1026500011309DF810009DF8124043EA00209DF8CB
:10266000133009E09DF810309DF80F009DF81140DF
:1026700043EA00209DF8123043EA042404F04AFDA6
:10268000084904F053FEE50BC8F800003C603570C3
:1026900006B0BDE8F08100BF88D70008D414002040
:1026A00000FF7F470000C842F0B516462A4A87B0AF
:1026B00010680F46516801AC1D4603C4092206ACE0
:1026C000002103A805F04AFE04F8145D2046062107
:1026D000FFF7EAFD030A8DF80B0020488DF80A3059
:1026E000036821469B6808229847642002F088FC12
:1026F00000241A4802F042F900280DDD174802F0C4
:10270000E9F8651CEDB206AB1C44092D04F80C0C6D
:1027100034BF2C460024ECE703A80721FFF7C4FDD3
:102720009DF813209DF8143043EA022383420CD114
:102730009DF812309DF811009DF80F2043EA00200B
:102740009DF8103043EA022302E04FF6FF7318466B
:102750003860336007B0F0BD90D70008D414002073
:1027600073B5404D642002F04BFC284600F0ACFDF0
:102770003D4C01262060642002F042FC284600F017
:10278000B5FD3A4DA060642002F03AFC04F1180156
:1027900004F1100204F1140300962846FFF7FEFE30
:1027A000642002F02DFC334604F11C0104F12002E8
:1027B0002846FFF779FF642002F022FC04F124028E
:1027C00004F10C0128462A4DFFF766FE642002F052
:1027D00017FC2846274902F0FEF9206804F05EF84D
:1027E000022602460B460096284602F079FB284650
:1027F000214902F0F0F9A06804F050F80096024672
:102800000B46284602F06CFB28461C4902F0E3F90F
:1028100023696421B3FBF1F10A22284602F09FFAF2
:102820002846174902F0D7F9A06904F037F8009656
:102830000B460246284602F053FB2846114902F097
:10284000CAF9E1690A22284602F089FA28460E49A7
:1028500002F0C1F9216A28460A2202B0BDE87040A0
:1028600002F07DBA881400204C1400204814002087
:10287000A4140020F2D7000806D80008ECD70008FE
:1028800000D8000811D800081ED800080A22B1FBA1
:10289000F2F302FB131202EB0310C0B27047087888
:1028A0000A22B0FBF2F302FB130202EB03130B70DC
:1028B000704701F00F03090901EB810103EB4100AF
:1028C000C0B2704737B50C460C480DF10701FFF751
:1028D0002CF89DF807304FF47A705843084902F0FD
:1028E00052FB9DF80730054664205843054902F025
:1028F0004AFB2844206003B030BD00BF36140020DE
:1029000080841E00400D030070B50E46154600245D
:10291000E3B2AB42074809D2315D102202F003FA5C
:102920000448054902F057F90134F1E7BDE8704069
:1029300002F056B9A4140020CED7000830B595B0E7
:1029400040220546002104A805F008FD002414A932
:1029500041F8504D28466946FFF7B4FF009802F051
:102960005DFBFE238DF81030E0238DF8113011232C
:102970008DF8123024238DF8133001238DF8153093
:102980003C4B8DF814401B7803B155233A488DF821
:102990001630FFF74CF901AC8DF817002146364888
:1029A000FFF7E8F8002304AA1A44E15C0133052B81
:1029B0001172F8D131482146FEF75FFF002304AAC7
:1029C0001A44E15C0133092B5173F8D1002401232F
:1029D00005A824218DF826308DF827408DF8284051
:1029E0008DF829408DF82A408DF82B408DF82C4029
:1029F0008DF82D408DF82E408DF82F408DF8304009
:102A00008DF831408DF832408DF833408DF83440E8
:102A10008DF835408DF836408DF8374000F0FBFDDD
:102A20008DF83800E30704AB234404F1010454BFDC
:102A30000D220A22062C83F82920F3D110491148CF
:102A400002F0E4F804A928462F22FFF75DFF0E48A4
:102A5000FEF772FA0D4804A903682F229B68984775
:102A60004FF4FA7002F0CCFA0748FEF775FA15B089
:102A700030BD00BF20140020341400203614002084
:102A80002BD80008A414002030140020BC1400200F
:102A900030B587B014220446002101A805F05EFC81
:102AA000002506A941F8185D20466946FFF70AFF90
:102AB000009802F0B3FAFE238DF80430E0238DF87D
:102AC000053013238DF8063005238DF807300123D8
:102AD0008DF809301E4B8DF808501B7803B1552333
:102AE0001C488DF80A30FFF7A2F801238DF80B007F
:102AF000052102A88DF80C3000F08DFD00238DF823
:102B00000D00DA0701AA1A4403F1010354BF0D2195
:102B10000A21062B9172F4D10F49104802F076F881
:102B200001A920461022FFF7EFFE0D48FEF704FA38
:102B30000C4801A9036810229B6898474FF4FA706B
:102B400002F05EFA0648FEF707FA07B030BD00BF94
:102B5000201400203414002047D80008A4140020BA
:102B600030140020BC14002030B58DB01E22054664
:102B7000002104A805F0F2FB00240CA941F8244D23
:102B80002846ADF80840FFF79DFE039802F046FA8C
:102B9000344B0094344802A90122FEF76DFCFE2359
:102BA0008DF81030E0238DF8113014238DF8123099
:102BB00012238DF8133001238DF815302B4B8DF82F
:102BC00014401B7803B1552329488DF81630FFF7C0
:102BD0002EF801238DF81830264B00241B788DF831
:102BE00017009DF8081024488DF819308DF81A4008
:102BF0008DF81B40FFF75DFE9DF809108DF81C0055
:102C00001D48FFF756FE12218DF81D0005A800F0A3
:102C100002FD23468DF81E00DA0704AA1A4403F1C8
:102C2000010354BF0D210A21062BD173F4D113499E
:102C3000134801F0EBFF04A928461522FFF764FEB4
:102C40001048FEF779F9104804A9036815229B681B
:102C500098474FF4FA7002F0D3F90A48FEF77CF96E
:102C60000DB030BD6DD800083114002020140020B4
:102C700034140020871400208514002077D8000821
:102C8000A414002030140020BC140020F0B589B03A
:102C900005460F4616460021192201A805F05EFBE5
:102CA000002408A941F8204D28466946FFF70AFE8E
:102CB000009802F0B3F9FE238DF80430E0238DF87C
:102CC000053015238DF806300E238DF807300123CB
:102CD0008DF809302A4B8DF808401B7803B1552335
:102CE00028488DF80A30FEF7A2FF00248DF80B006B
:102CF000012302A80E218DF80C308DF80D708DF88F
:102D00000E408DF80F408DF810408DF811408DF871
:102D100012408DF813408DF814408DF8154000F0E6
:102D20007AFC8DF81600E30701AB234404F101049B
:102D300054BF0D220A22062CDA74F4D1124913482A
:102D400001F064FF284601A91922FFF7DDFD1048B4
:102D5000FEF7F2F80024E3B2B3420BD20D4801A90A
:102D6000036819229B6898474FF4FA7002F048F9FB
:102D70000134F0E70648FEF7EFF809B0F0BD00BFF8
:102D8000201400203414002091D80008A41400203E
:102D900030140020BC140020F0B50024ABB0214654
:102DA0000546142205A8019405F0D8FA8022214690
:102DB0000AA805F0D3FA2AA941F8A04D2846FFF742
:102DC00081FD029802F02AF9C348FFF7C9FCFE23EF
:102DD0008DF82830D0238DF8293001263023BF48C4
:102DE0008DF82B308DF82C408DF82A608DF82D60F1
:102DF000FEF7BAF8BA4C030A27688DF82F00B949D4
:102E000038468DF82E3004F099FB28B1FF238DF859
:102E100030308DF831301AE03846002104F070FB74
:102E200018B107F10047276000E00646022301A819
:102E300021680422FDF7D6FC9DF804308DF830306F
:102E40009DF805308DF831300EB1F22300E0E22319
:102E5000A6688DF8323030460023019304F078FBE9
:102E60000138632803D9FF238DF833300BE00223A8
:102E700001A831460422FDF7B5FC9DF804308DF819
:102E800033309DF805308DF834300021E2231422D0
:102E900005A88DF83530019105F060FAE268924B93
:102EA0009A4207D9FF238DF836308DF837308DF8E8
:102EB000383019E08D4905A805F0B8FC05A805F0E3
:102EC00039FD05A9024601A8FDF754FC9DF8043020
:102ED0008DF836309DF805308DF837309DF8063086
:102EE0008DF838309DF80730606A8DF83930E0236E
:102EF000FF228DF83A300026E12364288DF83B202C
:102F00008DF83C208DF83D208DF83E208DF83F3027
:102F1000019604D98DF840208DF841200FE004F08F
:102F2000F9F833460146042201A8FDF75BFC9DF841
:102F300004308DF840309DF805308DF84130E022A6
:102F400020698DF842208DF845208DF848204FF6F5
:102F5000FE72FF2390428DF843308DF844308DF897
:102F600046308DF8473002D98DF8493016E05C4B79
:102F70001B7D012B08BFC0F5803004F0CBF85C4905
:102F800004F0D4F902230146042201A8FDF72AFC2B
:102F90009DF804308DF849309DF805308DF84A30A1
:102FA000237DA669012B0CBFF223E2238DF84B3061
:102FB00030460023019304F0CBFA642803DDFF239D
:102FC0008DF84C300BE0022301A831460422FDF7B6
:102FD00009FC9DF804308DF84C309DF805308DF8D3
:102FE0004D30206AE2238DF84E304FF6FE730026F6
:102FF0009842019603D9FF238DF84F300DE004F07D
:1030000089F833460146042201A8FDF7EBFB9DF841
:1030100004308DF84F309DF805308DF85030E06960
:10302000E0238DF851304FF6FE730026984201964A
:1030300003D9FF238DF852300DE004F06BF83346CE
:103040000146042201A8FDF7CDFB9DF804308DF860
:1030500052309DF8053003AC8DF853302548E023FD
:1030600021468DF85430FFF71DF800230AAA1A44B0
:10307000E15C0133072B82F82D10F7D10BA830212A
:1030800000F0C9FA00238DF85C00DA070AAA1A4496
:1030900003F1010354BF0D210A21062B82F83510DC
:1030A000F3D11549154801F0B1FD0AA928463B2284
:1030B000FFF72AFC0948FDF73FFF11480AA90368FA
:1030C0003B229B6898474FF4FA7001F099FF034840
:1030D000FDF742FF2BB0F0BD481400203014002053
:1030E0004C14002000001643400D0300A9D800082E
:1030F0000000C84241140020AFD80008A4140020EA
:10310000BC1400202DE9F84300240F469046994650
:1031100025464C4513DA5FFA88F60121304601F066
:1031200011FF0A2001F06CFFF8B201F0F5FE00215A
:1031300000EB4505304601F005FF0134E9E728467C
:10314000BDE8F88370B5D4B21D46EDB20E462046F8
:10315000002102F01BF82846002102F017F8204653
:10316000012101F0EFFE2846012101F0EBFE20468F
:10317000002101F0E7FE2846002101F0E3FE284689
:10318000012101F0DFFE2046012101F0DBFE28468F
:10319000002101F0D7FEF3B201222046294601F0BA
:1031A000FDFE2846012101F0CDFE2046022101F05E
:1031B000EDFF204601F0B0FE2846002101F0C2FEDE
:1031C0002046BDE8704001F0A7BE38B5CDB2284614
:1031D000022101F0DBFF64240A2001F011FF2846E0
:1031E00001F09AFE08B1013CF6D138BD2DE9F84353
:1031F000CCB2154680460E46EFB22046022101F0C1
:10320000C5FF3846002101F0C1FF2A460823314698
:103210004046FFF777FF00214FEA0029204601F0E2
:10322000B5FF2046012101F08DFE2046002101F06E
:1032300089FE3846012101F085FE3846002101F063
:1032400081FE2046022101F0A1FF404631462A4678
:103250000823FFF757FF49EA0000BDE8F88338B5B7
:103260001446CDB2E4B22846002101F08FFF20467B
:10327000002101F08BFF2846012101F063FE20466A
:10328000012101F05FFE20460021BDE8384001F039
:1032900059BE38B590E80C0004460321FFF752FFF1
:1032A00020462168FFF791FF94E806002046FFF7CB
:1032B0009DFF94E8060005462046FFF7D0FF28460C
:1032C00003F02CFF38BD000008B5FFF7E2FF04F063
:1032D0003FF903F023FF034903F074FF024903F0B1
:1032E00067FE08BD0AD7233C00002042F8B590E8ED
:1032F0000C0004460521FFF725FF20462168FFF753
:1033000064FF94E806002046FFF770FF94E806008B
:1033100005462046FFF7A3FF284603F0FFFE1E499F
:10332000064603F04FFF4FF0814103F041FE1B4979
:103330000546304603F046FF314603F043FF0146A1
:10334000284603F037FE07462046FFF7BDFF03F08F
:10335000A5FA0022124B03F041F904460D4630460F
:10336000104903F02FFF104903F024FE03F096FAF2
:1033700002460B462046294603F0E4FA0446384646
:103380000D4603F08BFA02460B462046294603F011
:1033900027F903F0B9FDF8BD54E3253DA2E73BB69C
:1033A00000003940ACC5A7380AD7233C024B1D2189
:1033B0001C2283E806007047881400200A4B1A6814
:1033C0000A4B9B6800BF00BF074909688A42F5D1D4
:1033D000C3F58C33482103F5A073B3FBF1F34FF42D
:1033E0007A7000FB023070478815002010E000E082
:1033F00010B5044680E80600D0B2002101F0C6FEF8
:103400002078002101F0C2FE00232079E360012131
:1034100001F098FD20780121BDE8104001F092BD37
:1034200038B5C36804460D4623B10021C160007859
:1034300001F0ACFE20782946BDE8384001F082BD9D
:1034400010B500210446FFF7EBFF642001F0E6FD14
:103450002079002101F076FDBDE81040642001F0E4
:10346000DDBD10B500210446007901F06BFD64203C
:1034700001F0D4FD20460021FFF7D2FF642001F0C7
:10348000CDFD2079012101F05DFD642001F0C6FD34
:1034900020460121FFF7C4FFBDE81040642001F081
:1034A000BDBDF8B504460E460825F7092079002170
:1034B00001F048FD20463946FFF7B2FF012120798F
:1034C00001F040FD642001F0A9FD20463946FFF7D8
:1034D000A7FF7600013DF6B2E7D12946207901F039
:1034E00031FD2078022101F051FE0223E3602079B2
:1034F000012101F027FDFFF761FF0546207801F06B
:103500000BFD30B1FFF75AFF401B6428F6D90020AD
:10351000F8BD0120F8BD38B50D460446FFF790FF11
:103520006900204601F0FE01FFF7BBFF38BD08B57A
:10353000FFF797FF002008BD08B5FFF7B2FF08BDF1
:1035400070B50D466D0004461646FFF779FF691CFD
:10355000A6602046C9B2FFF7A4FF70BD70B58668AB
:103560000446002E55D00078022101F00FFE022300
:10357000E360082500262079002101F0E3FC012109
:10358000207901F0DFFC642001F048FD207801F093
:10359000C3FC013D00EB460000F0FF06EBD1A36841
:1035A0006068013B002BA360C0B2294617DD01F023
:1035B000C9FC642001F032FD29462046FFF730FFA8
:1035C000642001F02BFD2079012101F0BBFC642077
:1035D00001F024FD2079294601F0B4FC19E001F046
:1035E000B1FC642001F01AFD01212046FFF718FF0D
:1035F000642001F013FD0121207901F0A3FC642077
:1036000001F00CFD2079294601F09CFC2046FFF7D3
:1036100028FF304670BD002330B5054618468B4262
:103620000FDAEA5C5040082210F0010F4FEA600404
:103630001ABF84F0E000C0B2E0B2013AF4D1013325
:10364000EDE730BD122938B50546144608460BD0C3
:10365000132910D0112916D100F07CF80CB12046A6
:103660000FE047F6FF700CE000F074F8002CF6D184
:1036700049F63F4005E000F06DF8002CEFD14FF225
:10368000234000F06BF9284638BD13B500220446EC
:1036900001A8FFF7D7FF204602B010BD084600F092
:1036A00043B900F02FB910B510460C4600F070F980
:1036B00021460320BDE8104000F0A2B8054B1B686E
:1036C0001B685B0103F1844394331A68002AFCD021
:1036D000704700BF0C020020054B1B681B685B0194
:1036E00003F184438C331A68002AFCD0704700BF72
:1036F0000C02002008B5FFF7E1FF054B00221B6814
:103700001B685B0103F18443C3F88C2008BD00BF34
:103710000C02002008B5FFF7D1FF054B01221B6802
:103720001B685B0103F18443C3F8902008BD00BF10
:103730000C02002008B5FFF7C1FF054B00221B68F3
:103740001B685B0103F18443C3F8902008BD00BFF0
:103750000C02002010B5044600F065FB00F070FB81
:10376000204A112C136A23F44073136213460BD0C2
:1037700005D8C4B1102C2AD10023136227E0122CE3
:1037800011D0132C1AD022E0174A00211160012118
:1037900042F8081C154A126812F0FF0FFAD01A6A94
:1037A00042F4807212E0124A01211160114A12683B
:1037B000002AFBD01A6A42F4007207E00E4A12682F
:1037C00012F0FF0FFAD01A6A42F440721A620B4BE1
:1037D00001221A60FFF78EFFFFF77EFFBDE8104061
:1037E000FFF76CBF0010024008044242040442424A
:1037F0008004424284044242440042423C04424229
:1038000038B5144D04462B6803EB80035960FFF76D
:1038100055FF032C09D1104A01231360C2F800316F
:103820000E4B4FF400725A6038BD2B6801221B68A2
:10383000944204EBC3034FEA830303F184431A6009
:1038400003D002D3022C00D038BD044B08221A60EA
:1038500038BD00BF0C0200204480204200E100E09F
:1038600010B50446FFF72AFF032C0B4B05D10B497B
:1038700000220A60C1F8002108E01A6800211268DD
:1038800004EBC202920002F1844211601B6803EB58
:1038900084040023636010BD0C0200204480204299
:1038A000F8B5104B1E6835682B686F681F4017F01D
:1038B000010403D074680CB1A0470124BA0704D5F1
:1038C000B36813B1984744F002047B0704D5F3684A
:1038D00013B1984744F004046B6823EA04046C6055
:1038E000F8BD00BF0C02002008B5044B1B681B6923
:1038F0001BB19847024B01221A6008BD0C02002040
:10390000C482204208B5FFF7F5FEFFF7E5FEFFF79A
:10391000D5FE044B1B681B689869DB699BB243EAC0
:10392000004008BD0C02002010B50446FFF7E2FE7F
:10393000FFF7D2FEFFF7C2FEFFF7ECFE064B220CAC
:103940001B68A4B21B689A61DC61FFF7F3FEBDE857
:103950001040FFF7B3BE00BF0C02002010B50446B4
:10396000FFF7C8FEFFF7B8FEFFF7A8FEFFF7D2FE8D
:10397000064B220C1B68A4B21B689A60DC60FFF740
:10398000D9FEBDE81040FFF799BE00BF0C02002031
:1039900010B50446FFF7AEFEFFF79EFEFFF78EFE62
:1039A000FFF7B8FE064B220C1B68A4B21B681A6214
:1039B0005C62FFF7BFFEBDE81040FFF77FBE00BFAF
:1039C0000C020020704700000B4B10B5196809224B
:1039D0000A230A4800F0E6FF094B02221968094849
:1039E000032300F0DFFFBDE81040074B07481968CC
:1039F0001A221B2300F0D6BF30030020A41400209D
:103A000034030020BC14002038030020D41400200C
:103A100010B5044600F0ECF9034B20461978BDE8D8
:103A2000104000F071B900BF28020020F8B504462C
:103A3000056800F0BDFB22680023510101F18441BB
:103A40000B60802129600121A9622B61EB60637901
:103A5000696113B18B4203D02BE04FF400436B64D8
:103A60004FF6FF73D36200256E1CF7B2204639462D
:103A700000F0A8FBD0B1236848F6FF7103F13402CF
:103A800042F8251018336D1017F0010F53F8252058
:103A900014BF6FF0FF016FF47F4101EA020214BF0F
:103AA00068214FF4D0410A4343F82520042E3546BF
:103AB000DAD1216801224B01490103F1844301F16C
:103AC0008441C3F880220A60F8BD000038B5274B56
:103AD000274C1A68022042F010021A6000F0BCF96C
:103AE0000025002000F070FA65602368182023F498
:103AF0000023236000F075FA102000F072FA00F045
:103B000043F8A560102000F05FFA102000F086FA5C
:103B10000028FAD000F039F8164800F08BFA182087
:103B200000F052FA182000F079FA0028FAD00220AA
:103B300000F03AFA00214FF0006000F0F5F90E486D
:103B400000F0EEFA00F038F80C4B188800F03EF95F
:103B50000B4800F03FF90B4800F016FB00F02EF880
:103B600000F02DF8FFF72EFF38BD00BF0020024007
:103B7000001002402C0200203F1901002A02002000
:103B8000113A00082D3A0008704708B50020014698
:103B900000F09EFA01204FF4806100F099FA0021B4
:103BA000022000F095FA2D2000F0A2FABDE80840AE
:103BB0000320002100F08CBA00F058B9704700F0E3
:103BC00095B9000001498D46014908470050002081
:103BD000D53B000808B5124B124A1968914201D032
:103BE000002301E0104B07E01048D4188442F9D2BA
:103BF000C858D0500433F7E70D4A934203D200224D
:103C000043F8042BF8E703F0F9FF002001460246D1
:103C100000F0B0FF074B0BB103F0E0FFFEE700BF81
:103C200094DE0008000000207813002078130020A4
:103C300090150020DD7B000808B50D4B1A680AB905
:103C40000C4A1A601B680C4AD21A824204DB0949EA
:103C50004242591A914206DA03F0BAFF0C2303607C
:103C60004FF0FF3008BD024A18441060184608BDE6
:103C7000EC14002090150020C81D0128FEE700006C
:103C8000012007E0022005E0032003E0042001E01A
:103C90000520FFE70D4A0121116072B60C4A002190
:103CA0001160074902B4084902B486B005498E463E
:103CB000704700BFAFF30080AFF30080AFF3008028
:103CC00000000061F9FFFFFF5D48000814ED00E00F
:103CD00010E000E0AFF30080AFF30080AFF30080AE
:103CE000FEE710B50446007900F0C0F92079BDE880
:103CF000104000F0D3B903689A6822F4602242F4BD
:103D00008012114399607047002370B51A461C4613
:103D1000072B4FEA430503DCEE1801FA06F634439D
:103D20001D4401FA05F501330A2B42EA0502EFD1E1
:103D30000368DC601A6170BD0368DA6A22F0F87209
:103D4000DA6259639A6842F480029A601A689207AC
:103D5000FCD5D86C80B2704738B5124D2A6813680C
:103D60001C68A10706D5196821F002011960936843
:103D700003B19847620708D52B681A681B69116858
:103D800021F00401116003B19847E30708D52B68BF
:103D90001A68DB68116821F00101116003B19847CE
:103DA00038BD00BF58020020036801225B0103F107
:103DB000844303F58673191F1A6018680028FCD124
:103DC00043F8042C0B68002BFCD1704701460420FB
:103DD00000F07EB9044B10B504461868A047034BA9
:103DE0001868A04710BD00BF5802002054020020F0
:103DF00010B50446FFF775FF20464FF46021FFF72A
:103E00007AFF2368012103F1404308335A015B0123
:103E100002F1844203F18443116520461960BDE834
:103E20001040FFF7C1BF08B5142000F01FF90420AF
:103E300000F01CF9BDE80840042000F02FB9000094
:103E4000014B01221A60704720000E42014B0022F4
:103E50001A60704720000E42034B1A6822F00702D6
:103E600010431860704700BF0020024008B50748A3
:103E700001F0FAF9064801F0F7F9064801F0F4F903
:103E8000BDE80840044801F0EFB900BF5C02002023
:103E9000640200206C0200207402002070B501F062
:103EA0000704A4000F25A5400368C80853F8206044
:103EB000092A26EA050514BF1646082606FA04F460
:103EC000082A44EA050443F8204006D1012000FAFC
:103ED00001F1DA6822EA010106E0092A05D1012090
:103EE00000FA01F1DA681143D96070BD08B503200A
:103EF00000F0BCF8BDE80840032000F0CFB8000097
:103F000000284FEA011105DA064B00F00F00C9B294
:103F10001954704700F16040C9B200F5614080F863
:103F20000013704714ED00E021F0604138B521F036
:103F30007F01084B0843986000241D4660B20F21A2
:103F40000134FFF7DDFF2B2CF8D1F02385F8233067
:103F500038BD00BF00ED00E0014B1860704700BFA6
:103F6000A0000E42074B1A6842F001021A601A685C
:103F700042F002021A60044B1A6942F004021A610C
:103F800030BF70470070004000ED00E0024B1A683F
:103F900042EA80001860704700700040014B13F83F
:103FA0001000704770DB0008064B5A6822F00302CD
:103FB00002435A6080005A6802F00C028242FAD131
:103FC000704700BF00100240030A0121C0B201FA8D
:103FD00000F003F1804303F504331A6810431860BE
:103FE0007047030A0121C0B201FA00F003F18043D7
:103FF00003F504331A6822EA000018607047030AC8
:104000000122C0B202FA00F003F1804303F5043349
:104010001B6818420CBF002001207047030A0222CF
:10402000C0B202FA00F003F1804303F504331B68C9
:104030001840704738B54368044618201D68FFF7DC
:10404000DEFF20B106488121064A00F011FC064B34
:1040500021685A680D4322F4741215435D6038BD1F
:1040600000DB000854DB00080010024010B50446D5
:10407000FFF794FF074B53F82020074B03EB440452
:10408000637803EBC2039B0003F1844301221A60AF
:1040900010BD00BF7C02002070DB000810B5044694
:1040A000FFF77CFF084B53F82020084B03EB440438
:1040B000637803EBC2039B0003F1844301221A607F
:1040C00000221A6010BD00BF8802002070DB0008CB
:1040D00010B5054B054C5A6854F8200022EA00023E
:1040E0001143596010BD00BF00100240CCDB000836
:1040F00010B50446FFF752FF074B53F82020074B3B
:1041000003EB4404637803EBC2039B0003F1844395
:1041100000221A6010BD00BF9002002070DB000872
:10412000024B072258601A60704700BF10E000E0A1
:1041300008B5044B1A6801321A60034B1B6803B1BF
:10414000984708BD88150020F014002011F0010FD9
:1041500070B542EA03030CBF0825002503FA05F5F4
:10416000006801F1FF3400F11800C4F3400450F876
:10417000241014BF6FF0FF066FF47F4631402943CF
:1041800040F8241070BD000010B504460448A04754
:104190000448A0470448A0470448A04710BD00BFFA
:1041A000E40200200C0300209C020020C00200203A
:1041B00010B504460079FFF759FF2079BDE810409B
:1041C000FFF76CBF03791E2B10D9212B0ED0202BAB
:1041D0000ED9222B01D0252B04D102298CBF00201F
:1041E000012070474B1E58425841704701207047CC
:1041F000002070478B1C40F823200368012203F144
:1042000040430C3301EBC3039B0003F184431A606A
:1042100042790379FAB9B3F11A025342534107299B
:104220004BD8DFE801F004090909090E0E13002B31
:104230000CBF2C23192337E0002B0CBF2E231B238C
:1042400032E0002B0CBF2D231A232DE0002B0CBFD6
:104250002B23182328E01B3B0C2B1CD8DFE803F092
:10426000212307090B0D1B0F1113151719001E230E
:104270001AE0322318E0362316E0372314E018231F
:1042800012E0192310E01A230EE02B230CE02C235C
:104290000AE02D2308E0094840F2BF11084A00F067
:1042A000E7BA1C2300E01D235909012203F01F0374
:1042B00002FA03F3034A42F821307047E0DB0008BA
:1042C000D4D1000800E100E00368002203F140437C
:1042D0000C3301EBC3039B0003F1844302311A60EA
:1042E00040F8212070470000F8B54E1EF3B2032BB2
:1042F00004460D46174604D92648DA21264A00F01E
:10430000B7FA6379022B43D0032F41D8DFE807F0D7
:104310000212223520462946FFF7D6FF236803F113
:1043200040432033DB0003EB8606B60006F18446EB
:10433000002320E02368002203F140430C3305EB07
:10434000C3039B0003F184431A6020462946602280
:10435000082303E02046294610220023FFF7F6FE3B
:10436000236803F140432033DB0003EB8606B600ED
:1043700006F1844601233360F8BD23684FF2F12231
:104380009A6103229A605B0103F1844301221A605F
:10439000F8BD00BFE0DB000833DC000810B5074BB8
:1043A0001C68E16822690A40120606D55B6A23B1DF
:1043B0009847236923F08003236110BDE4020020A5
:1043C00010B5074B1C68E16822690A40D20706D580
:1043D0009B6823B19847236923F00103236110BD33
:1043E000E4020020F8B50C4F3D68EB682E691E40D2
:1043F00016F0400403D03C6A0CB1A0474024B30639
:1044000004D5FB6913B1984744F020042B6923EAD3
:1044100004042C61F8BD00BFE4020020F8B5134F7E
:104420003E68F36835691D4015F0100403D0BC697F
:104430000CB1A0471024290704D57B6913B1984714
:1044400044F008046A0704D53B6913B1984744F067
:104450000404AB0704D5FB6813B1984744F0020489
:10446000336923EA04043461F8BD00BFE40200208C
:10447000F8B51A4E3768FB683D691D4015F04004D9
:1044800003D0346A0CB1A0474024EB0604D5B369CD
:1044900013B1984744F01004280704D5736913B189
:1044A000984744F00804690704D5336913B1984765
:1044B00044F00404AA0704D5F36813B1984744F004
:1044C0000204EB0704D5B36813B1984744F0010424
:1044D0003B6923EA04043C61F8BD00BF0C030020E3
:1044E000F8B51A4E3768FB683D691D4015F0400469
:1044F00003D0346A0CB1A0474024EB0604D5B3695D
:1045000013B1984744F01004280704D5736913B118
:10451000984744F00804690704D5336913B19847F4
:1045200044F00404AA0704D5F36813B1984744F093
:104530000204EB0704D5B36813B1984744F00104B3
:104540003B6923EA04043C61F8BD00BF9C020020E3
:10455000F8B51A4E3768FB683D691D4015F04004F8
:1045600003D0346A0CB1A0474024EB0604D5B369EC
:1045700013B1984744F01004280704D5736913B1A8
:10458000984744F00804690704D5336913B1984784
:1045900044F00404AA0704D5F36813B1984744F023
:1045A0000204EB0704D5B36813B1984744F0010443
:1045B0003B6923EA04043C61F8BD00BFC00200204F
:1045C00081880268034689B2505C99881A8989B249
:1045D00092B2914217BF9A880022013292B2C0B2C1
:1045E0009A807047C28838B5838892B29BB20132F4
:1045F0009A4204460D461AD0C288038992B29BB2F1
:104600009A4202D183889BB28BB14FF0FF30E2888F
:10461000236892B29D54E288238992B29BB29A4257
:1046200017BFE388002301339BB2E38038BD2046E7
:10463000FFF7C6FFEBE770B51E4605460846114674
:104640000422059CFFF72AFC9DF810100B2230462F
:10465000FFF724FC2B6804F00F01DA6804F0300443
:1046600022F4F0521204120C42EA4122DA601A6972
:1046700022F440521204120C42EA04241C6170BD60
:1046800038B50446154611B900F096F801461923CD
:104690005943AD006423B1FBF5F1B1FBF3F2120114
:1046A000100903FB101109013231B1FBF3F303F0E0
:1046B0000F0321681A4392B28A6038BD38B5114D94
:1046C000EB68980607D52B68990604D569680E48EB
:1046D000C9B2FFF787FFEB680A4C1A0611D52368A9
:1046E0001B060ED509488288C38892B29BB29A42B3
:1046F00003D0FFF765FF606038BDE36823F08003F7
:10470000E36038BD0038014000150020F41400209B
:1047100038B5114DEB68980607D52B68990604D576
:1047200069680E48C9B2FFF75DFFEB680A4C1A06CC
:1047300011D523681B060ED509488288C38892B21A
:104740009BB29A4203D0FFF73BFF606038BDE3683D
:1047500023F08003E36038BD004400400C150020C6
:104760002415002038B5114DEB68980607D52B6845
:10477000990604D569680E48C9B2FFF733FFEB68A4
:104780000A4C1A0611D523681B060ED509488288E3
:10479000C38892B29BB29A4203D0FFF711FF6060C8
:1047A00038BDE36823F08003E36038BD0048004073
:1047B000181500203015002008B590F89002FFF77A
:1047C000EDFB20B10128034818BF002008BD0248B6
:1047D00008BD00BF00A24A040051250213B50446DB
:1047E0008DF8071020460DF10701012200F096FD1B
:1047F0000028F7D002B010BD38B505464C1E14F89D
:10480000011F19B12846FFF7E9FFF8E738BD00009E
:1048100008B5114B01211C6803222046FFF73EFB1F
:10482000002301211A469342206834BF02254FF429
:104830000035B2F5007F056103F1010303D0002AC2
:1048400008BF012101E04FF0FF31B3F5007F04BF45
:1048500052180023E7E700BFFCDA000808B5034B55
:104860000BB1AFF3008062B6FFF7D2FF000000008B
:10487000F8B5144B06460D4617460BB3AFF3008050
:1048800011490446FFF7B8FF20463946FFF7B4FF49
:1048900020460E49FFF7B0FF20463146FFF7ACFF38
:1048A00020460B49FFF7A8FF2046294600F084FD6B
:1048B00020460A21FFF792FF20460D21FFF78EFFC9
:1048C000FFF7CCFF000000004FDC000865DC0008AB
:1048D000CDD7000803695B68D9889A8889B292B2FB
:1048E000D8888A1A998880B289B2884203D21989F5
:1048F00089B201310A4492B282B199881A6889B2A8
:10490000505C99881A8989B292B2914217BF9A88ED
:104910000022013292B2C0B29A8070474FF0FF304D
:10492000704703695B689988DA8889B292B29142CC
:1049300005D09A881B6892B2985CC0B270474FF05D
:10494000FF30704703699A689088D18880B289B235
:104950008842F9D11A6813685B06FCD5704713B515
:1049600004698DF8071020460DF10701012200F0BF
:10497000D5FC0028F7D0012002B010BD03695B68A8
:10498000D8889A8880B292B2D988801A9A8889B2D7
:1049900092B2914203D21B899BB20133184480B278
:1049A0007047000030B5002545604FF47A7585608A
:1049B000024D016105600275437530BD98DC000849
:1049C00003692DE9F74FDB68044699420F4692468A
:1049D0002CD890F81480174D4FEA081808EB0506FC
:1049E00090F8159070684FEA091909EB050B717B77
:1049F00010B10022FFF778FC206900F03FFC337B08
:104A00009BF80C2020698DE8080459F8051058F827
:104A10000530FFF710FE206900213A46FFF730FE0F
:104A2000206903B0BDE8F04F00F052BC03B0BDE810
:104A3000F08F00BFCCD800080022FFF7C1BF00698B
:104A400000F050BC044B02791B789A4202D1034B10
:104A50001B681860704700BF4C15002050150020DF
:104A6000002310B50446036072B6054B1931197066
:104A7000044B18600448FFF787FB62B6204610BD60
:104A80004C15002050150020454A000803680022FC
:104A90001B685B0103F184431A60704703680122BD
:104AA0001B685B0103F184431A6070470368013996
:104AB0001B6889B29962704703681B68DA6A92B210
:104AC000914228BF11465962704738B5054639B939
:104AD000036801221B689962DA62D86A80B238BD25
:104AE00048244C434FF6FF71B4FBF1F1013189B218
:104AF00004EB5104B4FBF1F4FFF7D8FF2B68A4B228
:104B00001B682046DC6238BD0068C9B2FFF7ECBB09
:104B10000368C9B21B6801F18041D86A013980B2CB
:104B20003433824228BF024643F821207047006890
:104B3000C9B2FFF75FBB000008B501210848FFF7C5
:104B40008FFF02210748FFF78BFF03210648FFF77D
:104B500087FFBDE8084005480421FFF781BF00BF7B
:104B60003C15002040150020441500204815002069
:104B7000FEF7ACBF08B5FBF7BFFBFBF7A5FCFCE7F6
:104B800070B505460E460024315D29B12A682846D5
:104B9000126890470134F7E7204670BDF8B5054626
:104BA0000C4616468F18BC4206D02B6828461B6858
:104BB00014F8011B9847F6E73046F8BD10B50268B7
:104BC0000B46946809689A68A04710BD08B5036849
:104BD0001B68984708BD08B503685B68984708BD1F
:104BE00038B50D210546FFF7F1FF0A210446284696
:104BF000FFF7ECFF204438BD38B50446FFF7DEFF71
:104C000005462046FFF7ECFF284438BD38B504467A
:104C1000FFF7E1FF05462046FFF7E2FF284438BDD5
:104C20002DE9F04F14461D4691B054EA0503814624
:104C30009DF868B004D13021FFF7C8FF01202EE0B5
:104C40004FF000085FFA8BF60027204629463246CF
:104C50003B4602F0A3FC08F101080DF1000AC24432
:104C60000AF8012C204629463B46324602F096FCC3
:104C700004460D4654EA0503E4D1002408F1FF3848
:104C80001DF808104846092994BF30313731C9B2A0
:104C9000FFF79CFF0444B8F1000FEFD1204611B09C
:104CA000BDE8F08F2DE9F041069F064614461D46EB
:104CB0002FB90368D1B21B689847BDE8F081002C7A
:104CC00075F1000305DA2D21FFF780FF644265EBE3
:104CD0004505FFB20697304622462B46BDE8F04117
:104CE000FFF79EBF07B5CB1700920A46FFF7DAFF22
:104CF00003B05DF804FB38B50446FFF7F3FF054643
:104D00002046FFF76DFF284438BD70B5049921B9DE
:104D10000368D1B21B68984770BDC9B20491BDE861
:104D20007040FFF77DBF07B500230092CAB2FFF7BE
:104D3000ECFF03B05DF804FB38B50446FFF7F3FF62
:104D400005462046FFF74CFF284438BD07B5002331
:104D500000920A46FFF7D9FF03B05DF804FB38B5AF
:104D60000446FFF7F3FF05462046FFF739FF2844C6
:104D700038BD07B5002300920A46FFF7C6FF03B00F
:104D80005DF804FB000000002DE9F74F19460646C8
:104D9000144610461D460022002302F063F89DF8D9
:104DA00030704FF0010838B12046294644A3D3E9BA
:104DB000002302F04DF806E02046294642A3D3E93D
:104DC000002302F03BF800B980465FFA88F82046DD
:104DD000294600220023B8F1000F0DD002F024F87C
:104DE00018B130462D21FFF7F1FE80463849304694
:104DF000FFF7F1FE404460E002F016F838B13046AB
:104E00002D21FFF7E3FE05F1004380461D46314B9F
:104E10004FF0000900225FFA89F1B9420AD2104628
:104E2000194600222C4B01F0B7FE09F10109024698
:104E30000B46F0E72046294601F0D2FB04460D461A
:104E400002F0C2FB82468B4601F04EFD02460B4645
:104E50002046294601F0C2FB0A230093044652462D
:104E600030465B460D46FFF71DFF804427B13046B4
:104E70001A49FFF7B0FE8044F7B1174B00222046D5
:104E8000294601F05FFD0D46044601F0F5FF81461D
:104E90000A2249463046FFF725FF8044484601F084
:104EA000EBFC02460B462046294601F097FB013FEA
:104EB00004460D46FFB2DFE7404603B0BDE8F08F81
:104EC000800350726C92DF43800350726C92DFC398
:104ED000B8DC00080000E03F0000244070D100086A
:104EE00037B59DF8181004460091FFF74DFF0546B1
:104EF0002046FFF775FE284403B030BD054B03EB99
:104F0000001000F10803806810B19979FEF714BF12
:104F1000704700BFCCD8000822280ED8084B0001EB
:104F20001A18127B012101FA02F21B581B689B68B8
:104F30001A420CBF0020012070470020704700BFBC
:104F4000CCD80008222810D8084B00011A18127B70
:104F50001B58012000FA02F2D1F1010138BF0021F3
:104F6000090102FA01F11B6819617047CCD80008E9
:104F700010B5044630B103F03FFA90FBF4F303FBA5
:104F8000140010BD10BD884210B5044604DA081A9A
:104F9000FFF7EEFF204410BD10BD00002DE9F047E3
:104FA00080460E460846002192469946FFF7CAFF02
:104FB0000024BAF1000F02D0C4F1070100E021463D
:104FC00049FA01F1404601F00101FFF7BBFF0B4A2E
:104FD0003301D718D35801211D683B7BEA6801FAD9
:104FE00003F35340EB603A7BEB6891400134594046
:104FF000082CE960DDD1BDE8F08700BFCCD80008FF
:10500000054B70B51C6806461D4600F001F92B687B
:105010001B1BB342F9D370BD881500200C235843E5
:10502000431E18460138FDD8704710B50446006885
:1050300002F014FE204610BD10B50446006808B109
:1050400002F00CFE00232360A360636010BD38B53E
:1050500004460D460068013103F0EEF910B184E812
:105060002100012038BD036810B5044613B1436820
:105070008B4207D22046FFF7EAFF20B1A3680BB9A5
:1050800022681370012010BD70B50E46114604460B
:105090001546FFF7E8FF18B92046FFF7CDFF04E0FB
:1050A000A5602068314603F0E7FB204670BD38B5A7
:1050B000002304460360436083600D4639B108460F
:1050C00003F038FC294602462046FFF7DDFF204664
:1050D00038BD884210B50B46044607D0096819B19F
:1050E0009A68FFF7D1FF01E0FFF7A6FF204610BD49
:1050F00010B500230446036043608360FFF7E9FFB7
:10510000204610BD70B5044685680E4609B90020DA
:1051100070BD62B115442946FFF7A5FF0028F6D0FF
:105120002068A3683146184403F0A6FBA56001205F
:1051300070BD1FB504460A220846694600F092F881
:10514000684603F0F7FB694602462046FFF7DAFFA0
:1051500004B010BD38B504460D4641B1084603F011
:10516000E9FB294602462046FFF7CCFF10B920464E
:10517000FFF762FF204638BD10B50446FFF7D9FFA0
:1051800010B92046FFF758FF204610BD222870B501
:105190003BD8082939D8DFE801F0051A080B0E11B1
:1051A000081417000024032213E00024042210E056
:1051B000002422460DE0002409220AE000240822EF
:1051C00007E001240B2204E001240F2201E0002467
:1051D00007220E4B00011E18317B1858FEF75EFEA9
:1051E000706890B1717B24B10122BDE87040FFF777
:1051F0007BB80368013903F140432033DB0003EB44
:1052000081039B0003F184431C6070BDCCD800086F
:10521000704770B58AB001B3931E222B1FD801AB23
:105220001D4670B1B0FBF2F602FB1604092C3046A5
:10523000D8BF303403F10106C8BF57341C70334661
:10524000EFE7AB42EED00A46AB4204D913F8010DAA
:1052500002F8010BF8E700231370084600E0002075
:105260000AB070BDFFF7D5BF10B504460079FEF750
:10527000FDFE2079BDE81040FEF710BF4368002214
:105280007F2110B59A80DA80198100F11001196030
:10529000836804469A80DA8040F2FF121A8100F196
:1052A00090021A6090F89002FEF7E0FE94F89132B6
:1052B0005AB2002A08DB012103F01F0301FA03F3AD
:1052C0000249521141F8223010BD00BF00E100E058
:1052D0000368DA6842F02C02DA60DA6842F40052BD
:1052E000DA60704710B5036882689488D188A4B2E8
:1052F00089B28C42F9D1DA68910402D51A68520653
:10530000F9D5DA6822F40052DA6043689A8892B2DA
:10531000DA8083689A8892B2DA8010BDF0B583682B
:105320000546046800209F88DE88BFB2B6B2B74247
:1053300004D0E36823F08003E36027E026683606A4
:10534000F7D59042F5D00E5C01306660EBE7DF8860
:105350009E88BFB2B6B20137B74211F800C01DD067
:10536000DF881E89BFB2B6B2B74213D0DF881E688D
:10537000BFB206F807C0DF881E89BFB2B6B2B74217
:1053800018D0DE880136B6B2DE8001309042AB68BC
:10539000DDD303E09E88B6B2002EE7D19A88DB8881
:1053A00092B29BB29A4200D1F0BDE36843F0800311
:1053B000E360F0BD0026E7E77FB5064600240A2239
:1053C000B1FBF2F302FB1312013401AD28193032A4
:1053D00000F8012C1946002BF1D114F1FF340BD346
:1053E0002B5D8DF8033030460DF103010122FFF7EC
:1053F00095FF0028F7D0F0E704B070BD2DE9F04F1D
:105400008BB01D4680468946144600F075F9DFF8DA
:10541000ACA206469AF900300F46013304D020466C
:10542000294600F08FFF20B9304639460BB0BDE861
:10543000F08F4046494600F085FF834600282CD176
:10544000204629460022002301F0E4FC0028EBD08E
:10545000944B9AF90010944E00220120CDE90623C6
:105460004B1CCDF820B0CDE90289CDE904458DE88B
:1054700041000DD002290BD0684600F08BFF0028B8
:1054800000F09580089B1BB102F0A2FB089B036013
:10549000DDE906010BB0BDE8F08F00220023404695
:1054A000494601F0B7FCF8B1204629460022002306
:1054B00001F0B0FC834600284DD07B489AF90030BB
:1054C000CDE904450121002200240025CDE902890F
:1054D000CDE90645019000910892002BCCD0714B8C
:1054E0000022CDE90623D3E73046394600F024FFF9
:1054F0008346002860D0002200233046394601F060
:1055000089FC002890D04046494600F015FF00284D
:105510008AD02046294600F00FFF002884D09AF94F
:1055200000306148CDE90445042100220024002513
:10553000022BCDE90289CDE9064501900091089240
:1055400000F08280684600F025FF00287CD0089B90
:10555000002B9DD098E72046294600F0EDFE00285C
:105560003FF462AF204629460022002301F05CFC94
:1055700000283FF459AF4C4A9AF8001001230192D9
:10558000CDF820B0CDE90289CDE904450093002291
:10559000002934D10023CDE90623684600F0FAFE45
:1055A0000028D4D102F014FB21230360CFE702F0DE
:1055B0000FFB2123036065E74046494600F0BCFE2F
:1055C000002898D02046294600F0B6FE002892D048
:1055D0003046394600F0B6FEB8B9334A9AF8006052
:1055E00001230890CDE90289CDE904450192009399
:1055F000002E2ED100240025CDE90645CDE72B4B0A
:105600000229CDE90623CDD0C7E727499AF9003012
:10561000032201910092CDF820B0CDE90289CDE9B5
:105620000445404649460022F3B9214F4FF06046F9
:105630000023CDE9066701F0F7FB002840D19AF975
:105640000030022B7FF47EAF02F0C2FA2223036007
:105650007DE70020002102460B4601F09DFA022E54
:10566000CDE906019ED098E7124F00260023CDE930
:10567000066701F0D9FB0028E1D000220E4B20463E
:10568000294601F05FF904460D4600F08BFE2246E4
:105690002B4601F0BFFB0028D1D1044B0022CDE9FD
:1056A0000623CCE70000F03FC8DC00080000F0FF54
:1056B000FFFFEF470000F07F0000E03FF80A002006
:1056C00000220A4B2046294601F03CF904460D46CB
:1056D00000F068FE22462B4601F09CFB0028AED16C
:1056E000034B4FF06042CDE90623A8E70000E03FFE
:1056F000FFFFEFC7000000002DE9F04F23F0004B43
:1057000091B089460F465BEA0201CDE902231446B7
:105710001D46804606462ED0634B29F0004A9A4526
:1057200022DC1FD0604B9B451EDC77D0002F78DB3E
:105730000022049264BB5C4B9B4500F091805B4B64
:105740009B4565D0B5F1804F00F0F983584B9D42E1
:105750001ED1002F1CDB4046494611B0BDE8F04F7A
:1057600000F026BD0028DDD00AF1404A0AF5801A73
:105770005AEA060A04D14D49002011B0BDE8F08F65
:105780004C4811B0BDE8F04F00F006BE0021049176
:105790004046494600F0CCFDE6B9BAF1000F04D00E
:1057A000424B27F040429A4214D1002DC0F20884A7
:1057B000002FE2DA0AF1404ADDF810B00AF5801A4B
:1057C0005BEA0A0B5ED0049A012AD6D101F10043AC
:1057D0001946D2E7FB0F03F1FF3C049B53EA0C038D
:1057E0004ED0354B9B456DDD03F104739B4540F373
:1057F000EF83324B9A4540F39C83002D40F39C830A
:1058000027A1D1E9000102460B4601F09BF8B4E75D
:10581000002DC0F24B8440464946AEE7002C85D0AF
:10582000A2E7274B9B4536DCA3F154739B4540F31D
:105830008D834FEA2B5340F21342934240F33E8450
:10584000C3F58663033324FA03F202FA03F3A34297
:105850007FF46EAF02F00102C2F10202049269E726
:105860000AF1404303F58013334384D0134B9A4528
:1058700040F39E83002DC0F25F83DDE902017CE7E7
:105880004046494602460B4600F0A8FE02460B463B
:1058900001F082F971E7022304934BE7AFF3008034
:1058A0009C7500883CE4377E0000F07F0000F03FEC
:1058B0000000E03F48DD00080000E041FFFFEF3F4F
:1058C000FFFF3F43BAF5801F80F2EE83AA4B002210
:1058D000CDF804C001F036F8DDF804C08A466FF058
:1058E00034034FEA2A55A54ACAF3130AA5F2FF3535
:1058F0004AF07F541D4492450F9544F4401440F300
:10590000D0839F4B9A4540F3EF83DDF83CA0002500
:105910000AF1010ACDF83CA0A4F580142B46994A5F
:10592000DB000E931344D3E90067214632463B4621
:10593000CDF804C0CDE90A0100F050FE32468046A1
:1059400089463B46DDE90A0100F04AFE02460B4665
:1059500000208D4901F020F9CDE90C01DDE90C238F
:105960004046494600F0EEFFCDE90601DDE906AB11
:10597000611041F0005101F500214B190021CDE9E2
:1059800008AB0891DDE908AB0022504659461446A1
:105990001D4600F0D7FF02460B464046494600F040
:1059A0001DFE3246804689463B462046294600F089
:1059B00015FE02460B46DDE90A0100F00FFE024625
:1059C0000B465046594600F0BDFF02460B46404686
:1059D000494600F003FEDDE90C2300F0B3FF064664
:1059E0000F46DDE9060102460B4600F0ABFF02461A
:1059F0000B4604460D4600F0A5FF4FA3D3E9002354
:105A0000804689462046294600F09CFF4CA3D3E9F6
:105A1000002300F0E5FD22462B4600F093FF4AA349
:105A2000D3E9002300F0DCFD22462B4600F08AFF7C
:105A300047A3D3E9002300F0D3FD22462B4600F014
:105A400081FF45A3D3E9002300F0CAFD22462B467F
:105A500000F078FF42A3D3E9002300F0C1FD024625
:105A60000B464046494600F06DFFDDE9062304463B
:105A70000D465046594600F0B3FD32463B4600F015
:105A800061FF22462B4600F0ABFD52468046894618
:105A90005B465046594600F055FF00223B4BCDE98E
:105AA0000A0100F09DFD42464B4600F099FD089822
:105AB0000D46044622462B465046594600F042FF0A
:105AC000224682468B462B463046394600F03AFF46
:105AD000002206460F46204629462C4B00F07EFD4C
