:020000040800F2
:1000000000500020713E0008313F0008353F0008D5
:10001000393F00083D3F0008413F0008913F00087C
:10002000913F0008913F0008913F0008913F000870
:10003000913F0008913F0008913F0008E14300080C
:10004000913F0008913F0008913F00084D3B000898
:10005000913F0008913F0008913F0008913F000840
:10006000913F0008913F0008913F0008913F000830
:10007000913F0008913F0008913F0008913F000820
:10008000913F0008913F000809400008913F000897
:10009000913F0008913F0008913F0008913F000800
:1000A0004D4600087146000895460008CD460008F8
:1000B000214700089147000801480008913F0008C7
:1000C000913F0008913F0008913F0008913F0008D0
:1000D000913F00086D490008C1490008154A000811
:1000E000913F0008953B0008913F000810B5054C72
:1000F000237833B9044B13B10448AFF300800123D4
:10010000237010BD7813002000000000C4BD00085B
:1001100008B5064B1BB106480649AFF300800648F8
:10012000036813B1054B03B1984708BD00000000F8
:10013000C4BD00087C1300207813002000000000DC
:1001400007B5324801F03BFD002837D1304B31492B
:1001500018702E4801F0EDFB28B12C482D4901F014
:1001600023FC002848D12C4801F064FE20B12A4825
:1001700001F00FFE002844D101238DF800302648FD
:10018000002369468DF801308DF802308DF8033078
:100190008DF8043001F0B3FD18B12048204904F077
:1001A0008DFE20480021052200F062FF06E01020AD
:1001B00005F00AF840B11C4800F072FE134801F047
:1001C000FEFC0028F3D011E041F2883005F070F811
:1001D000102004F0F9FF0028EDD1144802F0F2FCE1
:1001E000102004F0F1FF0028FAD0E4E7084B0122C8
:1001F0001A7003B05DF804FB0D49084804F05EFE78
:10020000B1E70C49054804F059FEB5E73714002062
:10021000080000209413002034140020A4140020AF
:1002200080D10008301400201F1400208614002004
:100230009DD10008B1D10008F8B5114E03253468EE
:10024000104B1A781F46CAB90F4802F0FBFE3268FD
:1002500004F51C5310339A4201D23B7853B1013D4F
:1002600015F0FF053468EBD1BDE8F84007480849B0
:1002700004F024BE074800F013FEE8E7F8BD00BF15
:10028000881500201D14002086140020A4140020CE
:10029000E0D100081F14002008B5102004F094FFDE
:1002A00030BB642005F004F8102004F08DFFF8B98D
:1002B00040F6C41004F0FCFF0E490F4804F0FEFDA8
:1002C00040F6C41004F0F4FF142004F07DFF78B968
:1002D000642004F0EDFF142004F076FF40B90748D5
:1002E00001F0D1FCBDE808400348054904F0E6BD33
:1002F00008BD00BFFFD10008A41400203214002064
:1003000013D2000808B51149114804F0D7FD11496E
:100310000F4804F0D3FD0E4804F06CFC0E4800F0CA
:10032000D1FE0820002104F065FF0120002104F027
:1003300061FF0121132004F05DFF012003F064FF41
:10034000012003F07BFF03F065FFFEE757D20008B2
:10035000A414002069D2000830140020A74B30B547
:100360001A688DB022F0E06242F000721A60A44870
:1003700000F058FE1820012104F03CFFA1484FF482
:10038000165104F0B1FCA0484FF4165100F00EFFD6
:100390004FF416519D4804F0A7FC03F09CFE9A48C8
:1003A00000F0E2FE0820002105F094F8002108206A
:1003B00004F020FF964801F099FA0121924800F0DC
:1003C000FBFE4FF47A7004F073FF924800F068FD72
:1003D0000021132004F00EFF0A2004F069FF8E496B
:1003E000884804F06BFD8D48222101F071FC012842
:1003F000044606D18948232101F06AFC04280546F9
:100400001CD004228548012101F04BFC8449684638
:1004100004F0A5FF694606A804F0C2FF10220121DE
:1004200003A804F0D8FF03A906A805F01FF87D492A
:1004300005F029F80421044609A816E07A4968461F
:1004400004F08DFF694606A804F0AAFF2146102299
:1004500003A804F0C0FF03A906A805F007F8714936
:1004600005F011F82946044609A8102204F0B3FF4C
:10047000204609A904F0FAFF0146624804F014FD81
:1004800009A804F02AFF03A804F027FF06A804F037
:1004900024FF684604F021FF6048242101F016FC87
:1004A0000728044616D15D48252101F00FFC0546BA
:1004B00080B95E4906A804F052FF06A909A804F015
:1004C0006FFF214609A804F0F0FF564904F0DBFF56
:1004D000294614E000225148072101F0FBFB544952
:1004E00006A804F03CFF06A909A804F059FF07215B
:1004F00009A804F0DAFF4B4904F0C5FF002104F01D
:10050000D4FF01463F4804F0CFFC09A804F0E5FE03
:1005100006A804F0E2FEFFF7BFFE464801F0AAFB82
:1005200080B9394801F000F93748012100F052FE46
:100530003548012100F040FE364800F0B1FC3D484E
:1005400001F08AFB3C4801F016FBFFF7F9FD3B493F
:10055000394801F03DFB0146B0B90A22284800F0B5
:1005600087FD3749274804F0A9FC364802F0E6FB2E
:100570004FF47A7004F09CFE264800F091FC40F69F
:10058000B83004F095FEE2E72F491E4804F096FCCF
:100590001B4801210A2200F06BFD194800F0A8FD5C
:1005A000B0F52F6F0DD8642004F082FE144800F0DF
:1005B0009FFDB0F52F6F04D8244801F06DFFFFF7C1
:1005C000A1FEFFF739FE0E4800F092FD40F6E3432E
:1005D00098421F4C01D9002309E0012308482370E9
:1005E00000F086FD40F6B833984201D8022323700C
:1005F000164801F097FE0DB030BD00BF0400014069
:1006000030140020A414002031140020D414002041
:10061000361400201F140020BDE00008351400200F
:10062000BCD2000892D50008D7D200080CD300082D
:10063000F1D2000832140020371400209413002057
:1006400070D2000886140020A3D2000841140020B4
:100650004014002008B5FFF755FE012902D11C30D7
:10066000C0B27047062984BF01F1FF31C9B211F051
:10067000010F14BF1E201F2070470000444B2DE9BE
:10068000F047B1FBF3F603FB16113C23B1FBF3F289
:1006900003FB1212054602704FF46160B1FBF0F2E9
:1006A00000FB1211B1FBF3F36B704FF4FA63AA7005
:1006B000B6B2EB80EC884FF4C873B4FBF3F803FBDD
:1006C00018481FFA88F8B8F1000F16D06423B4FB5D
:1006D000F3F203FB12439BB2002B53D014F003013F
:1006E00040F26D130CBF4FF4B7721A4696420EDB00
:1006F000002908BF4FF4B77304E0B6F5B77F06DBF7
:100700004FF4B773F61A0134B6B2EC80D2E7002387
:100710006B716423B4FBF3F703FB1747BFB2B8F167
:10072000000F06D03FB114F0030F14BF00200120CA
:1007300002E0012000E0384695F80590C0B2494635
:10074000FFF78BFF864209F1010A15D3B8F1000FBC
:1007500006D03FB114F0030F14BF0020012002E0C7
:10076000012000E03846C0B24946FFF776FF301A54
:1007700086B285F805A0D2E701362E7185F805A06E
:10078000BDE8F087B6F5B67FC1DD40F26D13B9E77D
:1007900080510100F8B5427887783C2303FB072796
:1007A00002780579467903FB0727013D013EEDB24A
:1007B000F6B2044605714671013E731CE38834D0DD
:1007C0004FF4C872B3FBF2F102FB113292B262B184
:1007D0006422B3FBF2F002FB103080B230B113F0B0
:1007E000030F14BF0020012000E00120C0B2F1B2CD
:1007F000FFF733FF284485B2DEE74FF4C872B3FB3E
:10080000F2F102FB113292B2AAB16422B3FBF2F10F
:1008100002FB113292B28AB113F0030F40F26D1253
:1008200008BF4FF4B7721544ADB2013B9BB2B3F5AC
:10083000FA6FE2D205E04FF4B772F4E740F26D12BE
:10084000F1E7024800FB0570F8BD00BF80510100D0
:1008500001F04CBB38B50D46044601F062FB290A95
:1008600049006039204601F0FE0101F0F1FB20460D
:1008700001F0C7FBE9B2204601F0EAFB204601F097
:10088000C0FB204601F04DFB2046A12101F0E0FB1A
:10089000204601F0B6FB0021204601F000FC054691
:1008A000204601F091FB204601F056FB284638BD5A
:1008B00070B50D461646044601F033FB290A49007F
:1008C0006039204601F0FE0101F0C2FB204601F034
:1008D00098FBE9B2204601F0BBFB204601F091FBFA
:1008E0003146204601F0B4FB204601F08AFB204649
:1008F00001F032FBBDE870400A2004F0D9BC0000D2
:10090000D30770B548BF0132002452080231234694
:10091000E5B2954225D211F8025CA5F14106F6B286
:10092000052E02D8104B9B5D05E0303DEDB2092D40
:1009300003D80E4B5B5D1B01DBB211F8015CA5F126
:100940004106F6B2052E01D8074D04E0303DEDB268
:10095000092D02D8054E755D2B4303550231013434
:10096000D6E7002070BD00BF30D3000826D30008B2
:100970002DE9F04F824687B008461446994606F0A6
:1009800069F9C9EB0406CDE90001304606F050F9DB
:1009900002460B4600204D4904F00EFF02460B466E
:1009A000DDE9000106F030FC30B94FF0020896FB9B
:1009B000F8F80546013E07E050460021224607B000
:1009C000BDE8F04F07F0A6BE454536DA304606F0E2
:1009D0002FF902460B4600203C4904F0EDFECDE91C
:1009E0000201701E06F024F902460B46002037492A
:1009F00004F0E2FEDDE90223CDE90401DDE90001B6
:100A000006F0A6FA06F014FCDDE904230A2790FBA1
:100A1000F7FB0BFB17004FEA001BDDE9000106F0B6
:100A200097FA06F005FC90FBF7F303FB17008344ED
:100A30000AF805B0023E0135C6E709EB48094FF058
:100A4000020BC4EB090994FBFBFB09F10109D84532
:100A500038DA484606F0ECF802460B4600201B49FF
:100A600004F0AAFE064609F101000F4606F0E0F880
:100A700002460B460020154904F09EFE32463B46D6
:100A800004460D46DDE9000106F038F906F0D0FB1A
:100A90000A2690FBF6F707FB16002B4607012246B5
:100AA000DDE9000106F02AF906F0C2FB90FBF6F33F
:100AB00003FB160007440AF8087009F1020908F15F
:100AC0000108C4E707B0BDE8F08F00BF0000244074
:100AD000124A517893784AF2130243EA012393426F
:100AE00013D008D84AF21102934213D04AF21202EC
:100AF000934211D00DE04AF21402934207D04AF219
:100B00002202934205D1062070470220704703203D
:100B10007047704700207047012070479D130020E8
:100B200010B5074C6018114602F0CBFE054B1B7840
:100B30001C4414F8073C1B1A5842584110BD00BF12
:100B40009D1300201E140020044B18795B7943EAA2
:100B50000020431E58425841704700BF9D1300209B
:100B6000044B9B79552B044B0CBF012200221A70B9
:100B7000704700BF9D1300202014002010B5084CC2
:100B8000E379552B01D1012010BD064801F04FF942
:100B9000E3798342F7D0D0F1010038BF002010BDC7
:100BA0009D1300203414002013B50D4B1C7A552CD6
:100BB00001D1012012E00B48694601F0DBF8002367
:100BC0001A461DF803108C42F3D019B90132D2B283
:100BD000052AEED00133052BF3D1002002B010BD61
:100BE0009D1300203414002070B505461E46FFF703
:100BF00097FF044698B12846FFF7A6FF044658B170
:100C00002846FFF7ADFF2846FFF7B8FF044648B96E
:100C100046B10C480C4911E00A480C490EE009485D
:100C20000B490BE02846FFF7BFFF044640B99DF88B
:100C300010300BB9012403E00248064904F03EF9E4
:100C4000204670BDA414002088D3000836D30008C5
:100C500064D30008BFD30008194B13B51B7863B3E6
:100C600000230093042117220123FFF7BDFFD8B111
:100C7000144C154804F10C0101F03EFAA17AE37A14
:100C8000124843EA012101F0E3F810B1104B0122B0
:100C90001A70237A0F48552B02D101F093FF03E01D
:100CA0000721012202F048F90B4B06481A7800216F
:100CB00002B0BDE8104007F02DBD02B010BD00BF6E
:100CC000080000209D130020411400203314002050
:100CD0001D140020861400201E140020174B07B599
:100CE0001B7843B30023009304210A220123FFF75A
:100CF0007BFFB8B11248134901F001F830B1124935
:100D0000124804F0DBF81248032108E011490F48AB
:100D100004F0D4F8104B0A220D481A700421012265
:100D200002F00AF90D4B0E481A78002103B05DF865
:100D300004EB07F0EFBC03B05DF804FB08000020F3
:100D400034140020A5130020F7D30008A4140020B9
:100D50008614002027D40008871400201E140020C9
:100D60009D13002013B50023009304210F22FFF7E9
:100D70003BFF10B31D4C1E4804F10A0100F0D9FDE1
:100D8000002830D01A4804F10A0100F00DFE50B3DB
:100D90001849194804F092F81848E17901F01AF856
:100DA000A0B11749144804F089F81648052101221A
:100DB00002F0C2F80E4800F0C9FE134B0B481A7837
:100DC000002102B0BDE8104007F0A4BC0A480F495A
:100DD00004F074F80E4B0A221A700A480621012208
:100DE00002F0AAF8E9E704480A49F1E79D13002058
:100DF00037140020BAD40008A414002034140020B2
:100E000057D40008861400201E14002089D400083E
:100E100087140020E7D400080D4B07B51B789BB161
:100E200000230093042105220123FFF7DDFE10B10A
:100E3000084801F0EFFF084B08481A78002103B07A
:100E40005DF804EB07F066BC03B05DF804FB00BF7F
:100E500008000020861400201E1400209D1300208E
:100E600010B50446FFF734FE032817D8DFE800F07A
:100E700002070C112046BDE81040FFF7EDBE2046EA
:100E8000BDE81040FFF72ABF2046BDE81040FFF73D
:100E900069BF2046BDE81040FFF7BEBF10BD00008F
:100EA0002DE9F047404C0027824627700026354642
:100EB0003E4803F0BBFE002833DD94F800903B4829
:100EC00009F10103237003F05DFEDFF8F48008F8F8
:100ED0000900052004F0ECF923781022434413F8AC
:100EE000011C334804F077F83148324903F0CBFF56
:100EF00094F90030002B434602DA2B4A002111708E
:100F0000F6B922781A4412F8012C0D2A01D117E003
:100F10000126052DCCD12648274903F0CFFF012714
:100F2000C4E757B12549224803F0C8FF5046FFF7F0
:100F300097FF00232370BDE8F0872770BDE8F08796
:100F4000042DE5D8DFE805F0030C151E27002278F4
:100F5000134413F8015CB5F10A035D425D4121E0E1
:100F60002278134413F8013C0D2B0CBF02250025F9
:100F700018E02278134413F8013C0A2B0CBF032518
:100F800000250FE02278134413F8013C0D2B0CBF11
:100F90000425002506E02278134413F8013C0A2BAF
:100FA000B9D00025012683E71E140020BC140020C0
:100FB000A4140020FEDB000814D5000838D5000872
:100FC0009D13002008B5134B13491A6809680132B4
:100FD0008A421A601DD3114900221A600B78DB4344
:100FE000DBB20B700E49097841B1012911D11820EB
:100FF00003B1114604F0FEF8192005E0192003B9E9
:10100000012104F0F7F818200021BDE8084004F0A1
:10101000F1B808BD241400202C1400202114002055
:101020002814002008B51320002104F053FA1820DA
:10103000002104F04FFA1920002104F04BFA10208F
:10104000022104F047FA1420022104F043FA03219C
:10105000072004F03FFA0A2004F02AF918200021A2
:1010600004F0C8F8BDE808401920002104F0C2B817
:101070000F4B10B50F4C19700F4B20461A60012111
:10108000022203F099FE20460C4903F076FE01216E
:1010900020460A4603F094FE20460121084A03F048
:1010A0009EFE20460021BDE8104003F05DBE00BF5B
:1010B00028140020481500202C140020A0860100D0
:1010C000C50F000808B5064803F038FE18200021B7
:1010D00004F090F8BDE808401920002104F08AB817
:1010E00048150020014803F031BE00BF481500201C
:1010F00030B58BB001AD28460021242207F00AFB51
:101100000024072004F052F805F092FD12A3D3E961
:10111000002305F0F3FD0022114B05F0EFFD06F072
:10112000AFF828514FF47A70043404F0CFF8242C2F
:10113000E7D109226B4608AC53F8040F596888427E
:1011400084BF58601960A342F6D1013A12F0FF0241
:10115000F0D105980BB030BDF163CC5D4BC8E93FD1
:1011600000001840AFF3008008B50120002104F012
:10117000B1F90020014604F0ADF90420002104F08B
:10118000A9F90520002104F0A5F90120014604F089
:1011900031F8642004F08CF80420002104F02AF8CF
:1011A000BDE808400520012104F024B8014803F0FF
:1011B0009BBD00BFBC14002008B511B90846012131
:1011C00001E00020014604F015F8BDE80840642065
:1011D00004F06EB808B561B10021052004F00AF8EA
:1011E000962004F065F8BDE808400520012104F0D0
:1011F00001B808BD08B50021012003F0FBFF0C4831
:1012000003F075FD0220002104F064F903200021A1
:1012100004F060F90220002103F0ECFF032000211C
:1012200003F0E8FFBDE808400520002103F0E2BF1D
:10123000BC14002010B504460120014603F0DAFF7B
:1012400007484FF4165103F04FFD20460121FFF7E8
:10125000C1FF20460121BDE81040FFF7ADBF00BF30
:10126000BC14002010B50B78452B12D14B78522BB3
:101270000FD18B78CC78303B03EB8303303C04EB0D
:101280004304E4B221460A22034803F0ADFE20469F
:1012900010BD0A2010BD00BFA41400200B784F2BF6
:1012A00007D148784B2804D113704B780120537034
:1012B00070470020704730B50020C4B20D5D01308A
:1012C0002C2D01D01D55F8E7601C5525C0B21D55C9
:1012D000904204D20C5C1C540130C0B2F8E730BD1F
:1012E00010B50B46581AC0B2904217D213F8010B32
:1012F000A0F13004E4B2092C02D803F8014CF1E764
:10130000A0F14104052C01D8373804E0A0F16104B4
:10131000052C05D8573803F8010CE3E7012010BD70
:10132000002010BD2DE9F84300240F4691461D46CC
:10133000A046FFF7D5FF204614F0010FE3B210D10D
:1013400017F80380064608EB88084FEA48085FFA5A
:1013500088F805F80080D8F1010838BF4FF0000880
:101360000DE0FA5C2B5C461C1344F6B22B54B8F12A
:10137000000F04D1711E0648294401F0D4FB01344A
:10138000E3B24B4501D83046D6E7BDE8F88300BF4D
:1013900085140020F8B54C78432C08D18C78532C58
:1013A00005D1CD78B5F151046542654100E00025D5
:1013B0000026F4B20F5D01363A2FFAD10134E4B2BF
:1013C00000269442F7B206F1010606D811F804E0AF
:1013D000013401F807E0E4B2F3E7069A0226146844
:1013E0007A1E35B992FBF6F62670D2B2FFF79AFF55
:1013F00003E02670D2B2FFF75EFF0120F8BD0000C7
:101400002DE9F0419EB005AD0C46074600219046FF
:1014100028466422039307F07DF921462C4803F007
:1014200032FD642003F044FF0024294803F0FEFB52
:101430000028E6B207DD642C46D0254803F0A2FB65
:1014400028550134F1E726B92249234803F036FD37
:101450003AE09DF814300D2B36D19DF815300A2B4B
:1014600032D11EAB334413F8653C0A2B2CD1023E1B
:101470001EAB334413F8643C0D2B25D10021CCB2B4
:10148000A31CDBB2B34201F1010107DA1EAA134427
:1014900013F8643C144404F8643CF0E738462946E9
:1014A0004246FFF7DFFE0A280CD103AB0093384613
:1014B000294622464346FFF76DFF00280CBF032054
:1014C000022002E0012000E003201EB0BDE8F08110
:1014D000BC14002063D50008A41400202DE9F041BD
:1014E000B2B006460D4690460021642268461F466B
:1014F00007F010F919A80021642207F00BF9002465
:10150000E3B2E85C013420B132AA134403F8640C5E
:10151000F6E70146CAB25D1818F80240EDB232AAE9
:1015200001312A4414B102F8644CF3E70D2302F8A8
:10153000643C6B1C32A8DBB203442F480A2203F838
:10154000642C036819A95B6898472C48AA1C036897
:1015500019A99B68D2B29847642003F0A9FE2748D6
:1015600003F064FB0028E5B208DD642C40D023487A
:1015700003F008FB0DF804000134F0E7002D37D02C
:101580009DF800300D2B33D19DF801300A2B2FD15F
:1015900032AB2B4413F8C93C0A2B29D1023D32ABA4
:1015A0002B4413F8C83C0D2B22D100218B1CDBB23D
:1015B000AB4201F1010209DA32A8034413F8C83C36
:1015C000C9B2014401F8C83C1146EFE7304669460C
:1015D0003A46FFF747FE0A2806D1304669463A46A2
:1015E000FFF75CFE10B904E0012002E0002000E0FB
:1015F000032032B0BDE8F081A4140020BC14002008
:1016000073B51D4623480C46164600218DF8071079
:10161000FFF7D2FD1F4829462EB122460DF10703E0
:10162000FFF7EEFE03E0069A2346FFF757FF032875
:1016300028D8DFE800F004090227002309E0164952
:10164000164803F03BFC17E01549144803F036FC3C
:1016500018E09DF807205D1CDBB29A420F4809D9BB
:10166000E15C102203F0B7FC0C480E4903F00BFCC0
:101670002B46EEE703F00CFC06480121FFF79CFD2A
:10168000012004E003480121FFF796FD002002B08D
:1016900070BD00BF3114002077D50008A4140020CD
:1016A00083D50008FEDB000830B5002487B0012296
:1016B0001B4B009402A90546FFF7A2FF23462246D2
:1016C00006AC13F0010F03A9144404D114F8100C54
:1016D0000009C85406E014F8100C013200F00F00A5
:1016E000C854D2B20133082BEAD10023CA5C092ABC
:1016F00001D8303204E0A2F10A00052801D83732BF
:10170000CA540133082BF1D100220091284602A9C6
:10171000044B8DF81420FFF773FF07B030BD00BFF6
:1017200094D500089FD500082DE9F0418AB05749AB
:10173000044606AF564803F0C1FB384600210F228D
:1017400006F0E8FF00252046FFF7AEFF514B8DF86D
:101750001800009303A900224F4B2046FFF750FFCB
:101760004E4B8DF81900009303A900224C4B2046E4
:10177000FFF746FF4B4E8DF81A0003A900224A4B93
:1017800000962046FFF73CFF03A98DF81B000022BE
:10179000464B00962046FFF733FFDFF84C818DF86B
:1017A0001C0003A90022424BCDF800802046FFF721
:1017B00027FF03A98DF81D0000223E4BCDF80080C5
:1017C0002046FFF71DFF3C4B8DF81E00009303A938
:1017D00000223A4B2046FFF713FF394B8DF81F00CC
:1017E000009303A90022374B2046FFF709FF364B31
:1017F0008DF82000009303A90022344B2046FFF708
:10180000FFFE03A98DF821000022314B00962046EF
:10181000FFF7F6FE2F4B8DF82200009320462E4B4B
:1018200003A90022FFF7ECFE00238DF82300FE5CE5
:1018300086B92A49164803F041FB2046FFF7FAFC17
:101840002046FFF7D7FC01354FF4FA60EDB203F004
:101850002FFD03E001330C2BE9D101262046FFF7D1
:10186000E9FC86B9092D7FF66EAF1D4831461E2270
:10187000FFF7FEFB1B49064803F020FB40F6B8309B
:1018800003F016FDF6E70AB0BDE8F081A8D5000820
:10189000A4140020D1D50008C7D50008E4D500085D
:1018A000DAD50008F5D50008EDD50008F8D5000810
:1018B00000D600080BD600081BD6000813D6000877
:1018C00025D600081ED6000830D6000828D6000805
:1018D00033D6000844D600083BD6000847D6000897
:1018E0003014002073D6000808D6000810B5002177
:1018F0000446152003F0EEFD1520012103F07AFCCB
:101900002046BDE81040FEF7A3BF08B5052003F050
:10191000CFFCBDE808401520012103F06BBC08B5E1
:101920001520002103F066FCBDE80840052003F007
:10193000BFBC7FB504460E46FFF7F1FF0D257319B6
:101940002946204613F80D2C0135FEF7B1FF162D60
:10195000F5D13046092101F0B4FF0646294620465C
:101960003246FEF7A5FF0D2529462046FEF772FFF9
:1019700001AB2B440135162D03F80D0CF4D101A851
:10198000092101F09EFFB042204603D0FFF7BDFFC2
:10199000002007E00B215522FEF78AFF2046FFF7C3
:1019A000B4FF012004B070BD7FB504460E46FFF7BA
:1019B000B6FF172573192946204613F8172C013551
:1019C000FEF776FF202DF5D13046092101F079FF91
:1019D0000646294620463246FEF76AFF1725294665
:1019E0002046FEF737FF01AB2B440135202D03F8CD
:1019F000170CF4D101A8092101F063FFB042204681
:101A000003D0FFF782FF002007E00C215522FEF7EC
:101A10004FFF2046FFF779FF012004B070BDF0B5FD
:101A200085B001AD06460F4628460021092206F082
:101A300071FE0D2421463046FEF70CFF2B190134B0
:101A4000162C03F80D0CF5D121463046FEF702FFA7
:101A500009210446284601F034FF844206D10023C0
:101A6000EA5CFA540133092BFAD101E0002000E0CE
:101A7000012005B0F0BDF0B585B001AD06460F46BA
:101A800028460021092206F045FE1724214630464B
:101A9000FEF7E0FE2B190134202C03F8170CF5D1CA
:101AA00021463046FEF7D6FE09210446284601F0BD
:101AB00008FF844206D10023EA5CFA540133092B63
:101AC000FAD101E0002000E0012005B0F0BD37B5FB
:101AD0000C461E210546FEF7BDFE1F218DF80400B1
:101AE0002846FEF7B7FE02218DF8050001A801F097
:101AF000E8FE207003B030BD10B50446FFF70FFFBD
:101B0000002220460B21FEF7D3FE2046FFF7FDFE04
:101B100020460B21FEF79EFED0F1010038BF0020C9
:101B200010BD10B50446FFF7FAFE002220460C2136
:101B3000FEF7BEFE2046FFF7E8FE20460C21FEF72A
:101B400089FED0F1010038BF002010BD10B5044659
:101B5000FFF7E5FE552220462121FEF7A9FE20468B
:101B6000FFF7D3FE20462121FEF774FEB0F15503A6
:101B70005842584110BD38B50446102003F024FBEC
:101B8000E0B941F2883003F093FB102003F01CFB16
:101B9000054698B92046FFF7C2FE2A462046212175
:101BA000FEF786FE2046FFF7B0FE20462121FEF715
:101BB00051FED0F1010038BF002038BD38BD08B556
:101BC0002121FEF747FEB0F155035842584108BDA8
:101BD00038B504460D46FFF722FF20B120462946BE
:101BE000FFF749FF40BB20462946FFF718FF48B1E1
:101BF0001449154803F062F920462946BDE83840EB
:101C0000FFF7D2BE20462946FFF735FF48B10F49FE
:101C10000D4803F053F920462946BDE83840FFF748
:101C200088BE0B49084803F049F92046FFF764FFD6
:101C30002046FFF776FF03E00348064903F03EF92C
:101C4000012038BDBAD60008A4140020F1D600083F
:101C500028D700083CD7000810B50446FFF75FFE00
:101C6000204635215522FEF723FE2046BDE81040D0
:101C7000FFF74BBE08B53521FEF7ECFDB0F155037B
:101C80005842584108BD10B50446FFF748FE2046AB
:101C900035210022FEF70CFE2046BDE81040FFF77C
:101CA00034BE70B504460E461546FFF738FE204692
:101CB00032462221FEF7FCFD20462A462321FEF76C
:101CC000F7FD2046BDE87040FFF71FBEFEF7C2BD1E
:101CD000FEF7C0BD70B504460E461546FFF71FFE61
:101CE000204632462421FEF7E3FD20462A462521E0
:101CF000FEF7DEFD2046BDE87040FFF706BEF8B5F2
:101D000004460E46FFF70BFE26257319294620468A
:101D100013F8262C0135FEF7CBFD2B2DF5D105212F
:101D2000304601F0CEFD0746294620463A46FEF7EA
:101D3000BFFD262520462946FEF78CFD731913F8B2
:101D4000263C834214D101352B2DF3D12046294660
:101D5000FEF780FDB842204608D12C215522FEF71F
:101D6000A7FD2046FFF7D1FD0120F8BDFFF7CDFD0F
:101D70000020F8BD70B506460D46262421463046A3
:101D8000FEF768FD2B1901342B2C03F8260CF5D136
:101D900070BD38B50446FFF7C2FD26250022204657
:101DA0002946FEF785FD20462946FEF753FD0246EB
:101DB00020B12046FFF7A9FD002038BD01352B2DAD
:101DC000ECD120462C21FEF773FD2046FFF79DFD48
:101DD000012038BD37B502AD04468DF80710FFF776
:101DE0009EFD15F8012D20462D21FEF761FD0121F4
:101DF000284601F066FD2E2102462046FEF758FDDA
:101E000020462D21FEF726FD9DF80730834220460F
:101E100008D12F215522FEF74BFD2046FFF775FD17
:101E2000012002E0FFF771FD002003B030BD2D213D
:101E3000FEF710BD10B50446FFF771FD20462D21B9
:101E40000022FEF735FD2046FFF75FFD10BD0000C4
:101E50004A1F4AF6BB039A4270B504460D4628D87D
:101E60003221FEF7F7FC332106462046FEF7F2FC4E
:101E700040EA0620A84204D10F49104803F01EF89A
:101E800015E02046FFF74BFD20463221C5F307221F
:101E9000FEF70EFD20463321EAB2FEF709FD20468B
:101EA00034215522FEF704FD2046FFF72EFD0120C8
:101EB00070BD002070BD00BF6CD70008A4140020C6
:101EC00038B532210546FEF7C5FC332104462846C5
:101ED000FEF7C0FC40EA042038BD08B53421FEF707
:101EE000B9FCB0F155035842584108BD08B5162059
:101EF000002103F0EFFA1720002103F0EBFA16207F
:101F0000012103F077F9BDE808401720012103F013
:101F100071B91720002103F0DDBA1720042103F066
:101F2000D9BA08B5FFF7F5FF1720012103F062F9D0
:101F30000121162003F05EF9052003F0C7F9002106
:101F4000172003F057F9062003F0C0F9BDE8084058
:101F50001620002103F04EB908B5FFF7DAFF16206E
:101F6000002103F047F91720002103F043F9012174
:101F7000162003F03FF9062003F0A8F917200121ED
:101F800003F038F9BDE80840062003F09FB910B50A
:101F900000210446162003F02DF92046FFF7B9FF73
:101FA0000021172003F026F9022003F08FF9012108
:101FB000162003F01FF9052003F088F9BDE8104052
:101FC0001620002103F016B910B500210446162092
:101FD00003F010F92046FFF79CFF0121172003F0C2
:101FE00009F9022003F072F90121162003F002F929
:101FF000052003F06BF9BDE810401620002103F026
:10200000F9B870B50646FFF788FF0121172003F0E5
:10201000F1F8012003F05AF91620012103F0EAF843
:10202000012003F053F9FB25172003F0CDF80446F7
:1020300040B1013D15F0FF05F6D13046FFF78CFFAA
:10204000012070BD1620214603F0D4F8204670BD53
:1020500038B50C46FFF75DFF1620002103F0CAF8E3
:10206000082524F07F0303F0FF01172003B10121AD
:1020700003F0C0F80121162003F0BCF8022003F0A1
:1020800025F91620002103F0B5F8013D0220640077
:1020900003F01CF915F0FF05E4B2E2D138BDF8B544
:1020A00005460F46FFF739FF0826002400211620B9
:1020B00003F0A0F8022003F009F91620012103F033
:1020C00099F864001720E4B203F07EF808B10134F7
:1020D000E4B20120013E03F0F9F816F0FF06E5D165
:1020E000284617B9FFF770FF01E0FFF750FF2046C1
:1020F000F8BD032001F00ABD70B55E480D460978B1
:1021000000F01BFD697806465A4800F016FD06EB04
:102110008606594C06EB860600EB8600E080A9781F
:10212000544800F00AFD6071E978524800F005FD5E
:10213000207129794F4800F000FD6979A0704D4861
:1021400000F0FBFCA97960704A4800F0F6FC4B49AE
:1021500020704B4802F097FEE1880A22484802F0BE
:1021600022FF4849464802F08EFE61790A2244481F
:1021700002F03AFF4449424802F085FE21790A22E2
:102180003F4802F031FF41493D4802F07CFEA17812
:102190000A223B4802F028FF3D49394802F073FE0D
:1021A00061780A22364802F01FFF3A49344802F0AB
:1021B0006AFE0A222178324802F016FF01F098FFE9
:1021C000642003F075F82046FEF7E4FA0146324831
:1021D00001F0BAFB642003F06BF801F08FFF2E488A
:1021E00001F0B5FB01462046FEF748FAE18864237A
:1021F000B1FBF3F1C9B21F4800F08CFC2870E288F3
:102200004FF47A73B2FBF3F103FB11211948C9B201
:1022100000F080FC68706179164800F07BFCA870C3
:102220002179144800F076FCA178E870114800F09C
:1022300071FC617828710F4800F06CFC217868719E
:102240000C4800F067FC0024A871295D10220C489E
:1022500002F0C1FE01340A48104902F014FE072CB6
:10226000F3D1074802F014FEBDE8704004480C4961
:1022700002F024BE85140020381400208BD70008FB
:10228000A414002092D700089AD70008A0D700080D
:10229000A7D70008B1D7000842140020FEDB0008D1
:1022A000BBD7000870B51C480D4601F050FB1B4C15
:1022B00001462046FEF7E2F9E188194E6423B1FB9E
:1022C000F3F1C9B2304600F025FC2870E2884FF4E3
:1022D0007A73B2FBF3F103FB11213046C9B200F06F
:1022E00019FC68706179304600F014FCA8702179FF
:1022F000304600F00FFCA178E870304600F00AFC90
:1023000061782871304600F005FC2178687130460C
:1023100000F000FCA87170BD4214002038140020A9
:102320008514002070B54C4886B0FEF733FA044699
:1023300001F0DEFE0A2002F0BBFF2146474801F013
:1023400003FB464801F003FB05464548FFF7C5FD82
:10235000444E002859D04248FFF7B2FD4AF6B10377
:10236000A0F10F029A42044619D93F49684602F08B
:10237000F6FF694603A803F013F8B42103A803F09D
:102380009EF83A4903F07FF80146394802F08CFD87
:1023900003A802F0A2FF684602F09FFFB42433783E
:1023A000012B0BD1B4F5966F03D92544684631490A
:1023B00015E005F5966503A82F4938E0022B0BD1EF
:1023C000B4F5166F03D9254468462C4907E005F596
:1023D000166503A82A492AE02A492544684602F0DE
:1023E000BEFF694603A802F0DBFF214603A803F005
:1023F00066F81E4903F047F801461D4802F054FDF7
:1024000003A802F06AFF684618E03378012B04D174
:1024100005F5966503A81C4909E0022B04D105F5D2
:10242000166503A8194902E01949B43503A802F05A
:1024300096FF0F4803A902F037FD03A802F04DFFF5
:1024400014492A46054801F084FA0A2002F030FFB8
:1024500001F054FE06B070BD381400204214002074
:102460003314002040140020DED70008E4D8000810
:10247000A414002052D800089BD80008E6D8000811
:1024800038D900088CD90008D8D900084DDA0008DE
:10249000CBDA0008F320000830B5154885B0FEF708
:1024A00079F9144C054601F023FE0A2002F000FFE2
:1024B0002946204601F048FA204601F048FA0E4924
:1024C000054601A802F04BFF01A90C4802F0ECFC04
:1024D00001A802F002FF0A4905F56162204601F0F9
:1024E00038FA0A2002F0E4FE01F008FE05B030BD23
:1024F000381400204214002042DB0008A4140020FD
:10250000F32000080148112101F015BA42140020FF
:1025100070470120704701207047000010B5FF236D
:1025200001441A46884208D010F8014B5440044A2E
:10253000125D5A40034B1B5DF4E743EA022010BDD5
:10254000090000200B01002070B5094D094C06461A
:1025500022782978084801F0A1F82878012102F0B2
:1025600049FE2078012102F045FE304670BD00BFD3
:10257000090100200A0100207414002010B5064C47
:10258000204601F01EF9204601F027F9D0F10100A4
:1025900038BF002010BD00BF7414002010B54A21C0
:1025A00004460548FFF7EAFF28B1236820461B6868
:1025B00001219847012010BD8414002070B5094CFA
:1025C000154620461E4601F0FCF82946204601F03B
:1025D00009F92046314601F005F92046BDE8704072
:1025E00001F0FBB874140020F8B5134814461E46D9
:1025F0000F469DF8185001F0E4F821460E4801F00E
:10260000F1F80D4801F0E9F80B4CA5B12A46204637
:10261000394601F0EBF80022237A551C33B1064805
:10262000D7B201F0F1F82A46F055F5E70248BDE8C7
:10263000F84001F0D2B8F8BD74140020F0B51C4683
:1026400085B0012300930DF10F03154607460E4692
:10265000FFF7CAFF9DF80F309DF8282023EA0403F6
:1026600014402343384631462A468DF80F30FFF791
:10267000A5FF05B0F0BD000013B5002471B1012223
:1026800013460B484A210094FFF7D8FF4A210094D3
:10269000074802224023FFF7D1FF80210091044820
:1026A0004A2102228023FFF7C9FF02B010BD00BFFC
:1026B0008414002008B51E220F481F2100F0EEFFF1
:1026C00038210D4801F07DF806210B4801F08AF809
:1026D000094801F082F84FF4FA7002F0E9FD07486A
:1026E000FFF75CFF10B10648064901E004480649BF
:1026F000BDE8084002F0E2BB94140020441400201E
:10270000A4140020C8DB0008E1DB00080000000082
:10271000F0B5334C85B00D461646FFF7CBFF392197
:102720000122204601F062F8012002F0C1FD277A63
:102730001FB1204601F068F80746382101222848D9
:1027400001F054F8012002F0B3FD207A10B12448C2
:1027500001F05AF840EA072004F05AFA1EA3D3E920
:10276000002304F0CBFA04F08BFD1E4930601E48B4
:1027700002F089FB31680A221B4802F048FC022360
:1027800000931A4803AB4A210322FFF72DFF9DF85F
:102790000D209DF80C3002F00F0242EA03122D21A9
:1027A000D2B24A431B0902FA03F34FF47A72B3FB25
:1027B000F2F32B600E490C4802F065FB29680A22EF
:1027C000094802F02EFC0B49074802F077FB05B0E0
:1027D000F0BD00BFAFF300800AD7A3703D0A773F7A
:1027E00094140020FADB0008A414002084140020B4
:1027F00000DC000817DC000808B50348FFF7A4FE5A
:10280000024A034B1A6008BD84140020A0DB0008B4
:10281000441400202DE9F0411E463D4B86B0186857
:102820008846596801AC03C4174600210A2203A850
:1028300005F070FF9DF8303006AC04F8143D2046DA
:102840000621FFF76BFE030A8DF80B0031488DF867
:102850000A30036821469B6808229847642002F0EA
:1028600027FD00242B4802F0E1F9002804F10105BE
:1028700009DD284802F086F9E4B206AB1C4404F8EE
:102880000C0C2C46EEE79DF80C509DF814405DB9F9
:102890000DF10D000721FFF741FE9DF8153043EAC9
:1028A000042484420BD10EE003A80721FFF736FE73
:1028B0009DF8133044EA032484420FD000254FF6DC
:1028C000FF7415481CE09DF811309DF810009DF82C
:1028D000124043EA00209DF8133009E09DF81030C3
:1028E0009DF80F009DF8114043EA00209DF812303A
:1028F00043EA042404F0EAFD084904F0F3FEE50B82
:10290000C8F800003C60357006B0BDE8F08100BF3B
:10291000B8DB0008D414002000FF7F470000C84245
:10292000F0B516462A4A87B010680F46516801ACC8
:102930001D4603C4092206AC002103A805F0EAFEE7
:1029400004F8145D20460621FFF7E8FD030A8DF820
:102950000B0020488DF80A30036821469B68082246
:102960009847642002F0A4FC00241A4802F05EF9A3
:1029700000280DDD174802F005F9651CEDB206AB25
:102980001C44092D04F80C0C34BF2C460024ECE741
:1029900003A80721FFF7C2FD9DF813209DF814300E
:1029A00043EA022383420CD19DF812309DF81100B6
:1029B0009DF80F2043EA00209DF8103043EA0223DF
:1029C00002E04FF6FF7318463860336007B0F0BD81
:1029D000C0DB0008D414002073B50121434D08204A
:1029E00002F008FC642002F063FC284600F0C2FDFF
:1029F0003F4C01262060642002F05AFC284600F07B
:102A0000CBFD3C4DA060642002F052FC04F11801A3
:102A100004F1100204F1140300962846FFF7FAFEB1
:102A2000642002F045FC334604F11C0104F120024D
:102A30002846FFF775FF642002F03AFC04F12402F7
:102A400004F10C012846FFF763FE2B4D642002F0D1
:102A50002FFC0820002102F0CDFB2846274902F078
:102A600012FA206804F0F6F8022602460B46009699
:102A7000284602F08DFB2846214902F004FAA0689E
:102A800004F0E8F8009602460B46284602F080FB68
:102A900028461C4902F0F7F923696421B3FBF1F1E0
:102AA0000A22284602F0B3FA2846174902F0EBF949
:102AB000A06904F0CFF800960B460246284602F0C3
:102AC00067FB2846114902F0DEF9E1690A2228462F
:102AD00002F09DFA28460E4902F0D5F9216A2846EF
:102AE0000A2202B0BDE8704002F091BA88140020BA
:102AF0004C14002048140020A414002022DC0008FC
:102B000036DC00081CDC000830DC000841DC000872
:102B10004EDC00080A22B1FBF2F302FB131202EBB7
:102B20000310C0B2704708780A22B0FBF2F302FB30
:102B3000130202EB03130B70704701F00F03090936
:102B400001EB810103EB4100C0B2704737B50C4681
:102B50000C480DF10701FEF7BAFF9DF807304FF45E
:102B60007A705843084902F066FB9DF80730054625
:102B700064205843054902F05EFB2844206003B0FE
:102B800030BD00BF3714002080841E00400D0300BC
:102B900070B50E4615460024E3B2AB42074809D291
:102BA000315D102202F017FA0448054902F06BF972
:102BB0000134F1E7BDE8704002F06AB9A4140020C6
:102BC000FEDB000830B595B040220546002104A880
:102BD00005F0A0FD002414A941F8504D284669468F
:102BE000FFF7B4FF009802F071FBFE238DF8103060
:102BF000E0238DF8113011238DF8123024238DF845
:102C0000133001238DF81530444B8DF814401B7898
:102C100003B1552342488DF81630FFF708F901AC8F
:102C20008DF8170021463E48FFF7A4F8002304AAB8
:102C30001A44E15C0133052B1172F8D13948214661
:102C4000FEF7EDFE002304AA1A44E15C0133092BD0
:102C50005173F8D100240123222133488DF8263006
:102C60008DF827408DF828408DF829408DF82A40AE
:102C70008DF82B408DF82C408DF82D408DF82E408E
:102C80008DF82F40FFF724F823218DF830002648D7
:102C9000FFF71EF824218DF831002348FFF718F8BC
:102CA00025218DF832002048FFF712F824218DF8F5
:102CB000330005A88DF834408DF835408DF8364046
:102CC0008DF8374000F0FDFD8DF83800E30704ABC8
:102CD000234404F1010454BF0D220A22062C83F878
:102CE0002920F3D11149124802F0E8F804A9284636
:102CF0002F22FFF74DFF0F48FEF7E4F90E4804A915
:102D000003682F229B6898474FF4FA7002F0D0FABC
:102D10000848FEF7E7F915B030BD00BF20140020C9
:102D20003414002037140020351400205BDC000828
:102D3000A414002030140020BC14002030B587B04B
:102D400014220446002101A805F0E4FC002506A990
:102D500041F8185D20466946FFF7F8FE009802F03A
:102D6000B5FAFE238DF80430E0238DF805301323E7
:102D70008DF8063005238DF8073001238DF80930D2
:102D80001E4B8DF808501B7803B155231C488DF855
:102D90000A30FFF74CF801238DF80B00052102A83B
:102DA0008DF80C3000F08DFD00238DF80D00DA0752
:102DB00001AA1A4403F1010354BF0D210A21062B75
:102DC0009172F4D10F49104802F078F801A9204619
:102DD0001022FFF7DDFE0D48FEF774F90C4801A93B
:102DE000036810229B6898474FF4FA7002F060FA6B
:102DF0000648FEF777F907B030BD00BF2014002069
:102E00003414002077DC0008A414002030140020C3
:102E1000BC14002030B58DB01E220546002104A848
:102E200005F078FC00240CA941F8244D2846ADF8A3
:102E30000840FFF78BFE039802F048FA344B0094E9
:102E4000344802A90122FEF7DBFBFE238DF8103087
:102E5000E0238DF8113014238DF8123012238DF8F1
:102E6000133001238DF815302B4B8DF814401B784F
:102E700003B1552329488DF81630FEF7D8FF0123FA
:102E80008DF81830264B00241B788DF817009DF81C
:102E9000081024488DF819308DF81A408DF81B4021
:102EA000FFF74BFE9DF809108DF81C001D48FFF739
:102EB00044FE12218DF81D0005A800F002FD2346F6
:102EC0008DF81E00DA0704AA1A4403F1010354BF67
:102ED0000D210A21062BD173F4D11349134801F0B7
:102EE000EDFF04A928461522FFF752FE1048FEF711
:102EF000E9F8104804A9036815229B6898474FF425
:102F0000FA7002F0D5F90A48FEF7ECF80DB030BDC2
:102F10009DDC00083114002020140020341400200F
:102F20008714002085140020A7DC0008A4140020CA
:102F300030140020BC140020F0B589B005460F46BF
:102F400016460021192201A805F0E4FB002408A977
:102F500041F8204D28466946FFF7F8FD009802F039
:102F6000B5F9FE238DF80430E0238DF805301523E4
:102F70008DF806300E238DF8073001238DF80930C7
:102F80002A4B8DF808401B7803B1552328488DF84B
:102F90000A30FEF74CFF00248DF80B00012302A835
:102FA0000E218DF80C308DF80D708DF80E408DF8D7
:102FB0000F408DF810408DF811408DF812408DF8BB
:102FC00013408DF814408DF8154000F07AFC8DF810
:102FD0001600E30701AB234404F1010454BF0D22A2
:102FE0000A22062CDA74F4D11249134801F066FF64
:102FF000284601A91922FFF7CBFD1048FEF762F819
:103000000024E3B2B3420BD20D4801A90368192290
:103010009B6898474FF4FA7002F04AF90134F0E7E0
:103020000648FEF75FF809B0F0BD00BF201400208D
:1030300034140020C1DC0008A41400203014002047
:10304000BC140020F0B50024ABB021460546142284
:1030500005A8019405F05EFB802221460AA805F030
:1030600059FB2AA941F8A04D2846FFF76FFD0298A9
:1030700002F02CF9C348FFF7AFFCFE238DF828308F
:10308000D0238DF8293001263023BF488DF82B300E
:103090008DF82C408DF82A608DF82D60FEF728F809
:1030A000BA4C030A27688DF82F00B94938468DF8C5
:1030B0002E3004F01FFC28B1FF238DF830308DF83E
:1030C00031301AE03846002104F0F6FB18B107F160
:1030D0000047276000E00646022301A82168042279
:1030E000FDF746FC9DF804308DF830309DF8053032
:1030F0008DF831300EB1F22300E0E223A6688DF89E
:10310000323030460023019304F0FEFB013863287F
:1031100003D9FF238DF833300BE0022301A8314699
:103120000422FDF725FC9DF804308DF833309DF81E
:1031300005308DF834300021E223142205A88DF8E3
:103140003530019105F0E6FAE268924B9A4207D9D0
:10315000FF238DF836308DF837308DF8383019E090
:103160008D4905A805F03EFD05A805F0BFFD05A9A0
:10317000024601A8FDF7C4FB9DF804308DF83630F7
:103180009DF805308DF837309DF806308DF83830D1
:103190009DF80730606A8DF83930E023FF228DF802
:1031A0003A300026E12364288DF83B208DF83C203E
:1031B0008DF83D208DF83E208DF83F30019604D9E2
:1031C0008DF840208DF841200FE004F07FF9334660
:1031D0000146042201A8FDF7CBFB9DF804308DF8D1
:1031E00040309DF805308DF84130E02220698DF89F
:1031F00042208DF845208DF848204FF6FE72FF23BF
:1032000090428DF843308DF844308DF846308DF87B
:10321000473002D98DF8493016E05C4B1B7D012BFD
:1032200008BFC0F5803004F051F95C4904F05AFA47
:1032300002230146042201A8FDF79AFB9DF8043001
:103240008DF849309DF805308DF84A30237DA66908
:10325000012B0CBFF223E2238DF84B3030460023C4
:10326000019304F051FB642803DDFF238DF84C30FB
:103270000BE0022301A831460422FDF779FB9DF8FB
:1032800004308DF84C309DF805308DF84D30206AB3
:10329000E2238DF84E304FF6FE73002698420196D9
:1032A00003D9FF238DF84F300DE004F00FF93346BA
:1032B0000146042201A8FDF75BFB9DF804308DF860
:1032C0004F309DF805308DF85030E069E0238DF8DF
:1032D00051304FF6FE7300269842019603D9FF2322
:1032E0008DF852300DE004F0F1F833460146042227
:1032F00001A8FDF73DFB9DF804308DF852309DF894
:10330000053003AC8DF853302548E02321468DF875
:103310005430FEF7C7FF00230AAA1A44E15C0133C8
:10332000072B82F82D10F7D10BA8302100F0C9FA35
:1033300000238DF85C00DA070AAA1A4403F101039E
:1033400054BF0D210A21062B82F83510F3D11549FF
:10335000154801F0B3FD0AA928463B22FFF718FCE7
:103360000948FDF7AFFE11480AA903683B229B6894
:1033700098474FF4FA7001F09BFF0348FDF7B2FE47
:103380002BB0F0BD48140020301400204C14002055
:1033900000001643400D0300D9DC00080000C842BD
:1033A00041140020DFDC0008A4140020BC1400201D
:1033B0002DE9F84300240F469046994625464C4592
:1033C00013DA5FFA88F60121304601F013FF0A2074
:1033D00001F06EFFF8B201F0F7FE002100EB4505A9
:1033E000304601F007FF0134E9E72846BDE8F883DD
:1033F00070B5D4B21D46EDB20E462046002102F053
:1034000069F82846002102F065F82046012101F004
:10341000F1FE2846012101F0EDFE2046002101F0D9
:10342000E9FE2846002101F0E5FE2846012101F0D1
:10343000E1FE2046012101F0DDFE2846002101F0D9
:10344000D9FEF3B201222046294601F0FFFE2846AC
:10345000012101F0CFFE2046022102F03BF8204678
:1034600001F0B2FE2846002101F0C4FE2046BDE86E
:10347000704001F0A9BE38B5CDB22846022102F055
:1034800029F864240A2001F013FF284601F09CFE6D
:1034900008B1013CF6D138BD2DE9F843CCB2154650
:1034A00080460E46EFB22046022102F013F838465D
:1034B000002102F00FF82A46082331464046FFF764
:1034C00077FF00214FEA0029204602F003F820464A
:1034D000012101F08FFE2046002101F08BFE3846CD
:1034E000012101F087FE3846002101F083FE2046CD
:1034F000022101F0EFFF404631462A460823FFF73C
:1035000057FF49EA0000BDE8F88338B51446CDB24C
:10351000E4B22846002101F0DDFF2046002101F041
:10352000D9FF2846012101F065FE2046012101F066
:1035300061FE20460021BDE8384001F05BBE38B591
:1035400090E80C0004460321FFF752FF2046216853
:10355000FFF791FF94E806002046FFF79DFF94E8EF
:10356000060005462046FFF7D0FF284603F0B2FFCD
:1035700038BD000008B5FFF7E2FF04F0C5F903F01D
:10358000A9FF034903F0FAFF024903F0EDFE08BD6D
:103590000AD7233C00002042F8B590E80C0004460E
:1035A0000521FFF725FF20462168FFF764FF94E817
:1035B00006002046FFF770FF94E806000546204607
:1035C000FFF7A3FF284603F085FF1E49064603F0D8
:1035D000D5FF4FF0814103F0C7FE1B490546304639
:1035E00003F0CCFF314603F0C9FF0146284603F043
:1035F000BDFE07462046FFF7BDFF03F02BFB002270
:10360000124B03F0C7F904460D463046104903F04B
:10361000B5FF104903F0AAFE03F01CFB02460B465F
:103620002046294603F06AFB044638460D4603F05F
:1036300011FB02460B462046294603F0ADF903F084
:103640003FFEF8BD54E3253DA2E73BB600003940FC
:10365000ACC5A7380AD7233C024B1D211C2283E8A6
:1036600006007047881400200A4B1A680A4B9B68B2
:1036700000BF00BF074909688A42F5D1C3F58C3302
:10368000482103F5A073B3FBF1F34FF47A7000FB0C
:10369000023070478815002010E000E010B50446A5
:1036A00080E80600D0B2002101F014FF207800214C
:1036B00001F010FF00232079E360012101F09AFD61
:1036C00020780121BDE8104001F094BD38B5C368F1
:1036D00004460D4623B10021C160007801F0FAFED6
:1036E00020782946BDE8384001F084BD10B500219E
:1036F0000446FFF7EBFF642001F0E8FD207900218C
:1037000001F078FDBDE81040642001F0DFBD10B588
:1037100000210446007901F06DFD642001F0D6FD22
:1037200020460021FFF7D2FF642001F0CFFD207971
:10373000012101F05FFD642001F0C8FD2046012158
:10374000FFF7C4FFBDE81040642001F0BFBDF8B52D
:1037500004460E460825F7092079002101F04AFDAC
:1037600020463946FFF7B2FF0121207901F042FDE2
:10377000642001F0ABFD20463946FFF7A7FF760035
:10378000013DF6B2E7D12946207901F033FD2078DA
:10379000022101F09FFE0223E3602079012101F064
:1037A00029FDFFF761FF0546207801F00DFD30B1DE
:1037B000FFF75AFF401B6428F6D90020F8BD01200E
:1037C000F8BD38B50D460446FFF790FF6900204666
:1037D00001F0FE01FFF7BBFF38BD08B5FFF797FF0B
:1037E000002008BD08B5FFF7B2FF08BD70B50D4653
:1037F0006D0004461646FFF779FF691CA660204657
:10380000C9B2FFF7A4FF70BD70B586680446002EEC
:1038100055D00078022101F05DFE0223E360082507
:1038200000262079002101F0E5FC0121207901F03A
:10383000E1FC642001F04AFD207801F0C5FC013D67
:1038400000EB460000F0FF06EBD1A3686068013B87
:10385000002BA360C0B2294617DD01F0CBFC642029
:1038600001F034FD29462046FFF730FF642001F0C7
:103870002DFD2079012101F0BDFC642001F026FD21
:103880002079294601F0B6FC19E001F0B3FC642070
:1038900001F01CFD01212046FFF718FF642001F014
:1038A00015FD0121207901F0A5FC642001F00EFD39
:1038B0002079294601F09EFC2046FFF728FF30467C
:1038C00070BD002330B5054618468B420FDAEA5C1E
:1038D0005040082210F0010F4FEA60041ABF84F034
:1038E000E000C0B2E0B2013AF4D10133EDE730BDFF
:1038F000122938B50546144608460BD0132910D0B6
:10390000112916D100F07CF80CB120460FE047F6E3
:10391000FF700CE000F074F8002CF6D149F63F403F
:1039200005E000F06DF8002CEFD14FF2234000F0DD
:103930006BF9284638BD13B50022044601A8FFF7ED
:10394000D7FF204602B010BD084600F043B900F092
:103950002FB910B510460C4600F070F9214603202F
:10396000BDE8104000F0A2B8054B1B681B685B0166
:1039700003F1844394331A68002AFCD0704700BFD7
:103980000C020020054B1B681B685B0103F184439C
:103990008C331A68002AFCD0704700BF0C0200204C
:1039A00008B5FFF7E1FF054B00221B681B685B01B0
:1039B00003F18443C3F88C2008BD00BF0C02002033
:1039C00008B5FFF7D1FF054B01221B681B685B019F
:1039D00003F18443C3F8902008BD00BF0C0200200F
:1039E00008B5FFF7C1FF054B00221B681B685B0190
:1039F00003F18443C3F8902008BD00BF0C020020EF
:103A000010B5044600F067FB00F072FB204A112C51
:103A1000136A23F44073136213460BD005D8C4B164
:103A2000102C2AD10023136227E0122C11D0132C62
:103A30001AD022E0174A00211160012142F8081C27
:103A4000154A126812F0FF0FFAD01A6A42F4807217
:103A500012E0124A01211160114A1268002AFBD0BB
:103A60001A6A42F4007207E00E4A126812F0FF0F61
:103A7000FAD01A6A42F440721A620B4B01221A60A1
:103A8000FFF78EFFFFF77EFFBDE81040FFF76CBF2A
:103A900000100240080442420404424280044242B0
:103AA00084044242440042423C04424238B5144D30
:103AB00004462B6803EB80035960FFF755FF032C86
:103AC00009D1104A01231360C2F800310E4B4FF4A4
:103AD00000725A6038BD2B6801221B68944204EBC7
:103AE000C3034FEA830303F184431A6003D002D374
:103AF000022C00D038BD044B08221A6038BD00BF2C
:103B00000C0200204480204200E100E010B5044691
:103B1000FFF72AFF032C0B4B05D10B4900220A604B
:103B2000C1F8002108E01A680021126804EBC20203
:103B3000920002F1844211601B6803EB84040023AD
:103B4000636010BD0C02002044802042F8B5104B89
:103B50001E6835682B686F681F4017F0010403D09A
:103B600074680CB1A0470124BA0704D5B36813B137
:103B7000984744F002047B0704D5F36813B19847D3
:103B800044F004046B6823EA04046C60F8BD00BFD1
:103B90000C02002008B5044B1B681B691BB1984739
:103BA000024B01221A6008BD0C020020C482204290
:103BB00008B5FFF7F5FEFFF7E5FEFFF7D5FE044B6E
:103BC0001B681B689869DB699BB243EA004008BD2B
:103BD0000C02002010B50446FFF7E2FEFFF7D2FE0C
:103BE000FFF7C2FEFFF7ECFE064B220C1B68A4B2E7
:103BF0001B689A61DC61FFF7F3FEBDE81040FFF738
:103C0000B3BE00BF0C02002010B50446FFF7C8FE8B
:103C1000FFF7B8FEFFF7A8FEFFF7D2FE064B220C17
:103C20001B68A4B21B689A60DC60FFF7D9FEBDE890
:103C30001040FFF799BE00BF0C02002010B50446EB
:103C4000FFF7AEFEFFF79EFEFFF78EFEFFF7B8FE12
:103C5000064B220C1B68A4B21B681A625C62FFF759
:103C6000BFFEBDE81040FFF77FBE00BF0C02002082
:103C7000704700000B4B10B5196809220A230A4847
:103C800000F0E8FF094B022219680948032300F0FD
:103C9000E1FFBDE81040074B074819681A221B23B3
:103CA00000F0D8BF30030020A4140020340300200B
:103CB000BC14002038030020D414002010B50446A2
:103CC00000F0EEF9034B20461978BDE8104000F0F3
:103CD00073B900BF28020020F8B50446056800F05B
:103CE000BFFB22680023510101F184410B60802158
:103CF00029600121A9622B61EB606379696113B1CD
:103D00008B4203D02BE04FF400436B644FF6FF73FC
:103D1000D36200256E1CF7B22046394600F0AAFB9C
:103D2000D0B1236848F6FF7103F1340242F8251040
:103D300018336D1017F0010F53F8252014BF6FF0E2
:103D4000FF016FF47F4101EA020214BF68214FF4C2
:103D5000D0410A4343F82520042E3546DAD12168A4
:103D600001224B01490103F1844301F18441C3F86D
:103D700080220A60F8BD000038B5274B274C1A682E
:103D8000022042F010021A6000F0BEF90025002067
:103D900000F072FA65602368182023F40023236082
:103DA00000F077FA102000F074FA00F043F8A560F4
:103DB000102000F061FA102000F088FA0028FAD0F4
:103DC00000F039F8164800F08DFA182000F054FA87
:103DD000182000F07BFA0028FAD0022000F03CFA0C
:103DE00000214FF0006000F0F7F90E4800F0F0FA03
:103DF00000F038F80C4B188800F040F90B4800F040
:103E000041F90B4800F018FB00F02EF800F02DF8F7
:103E1000FFF72EFF38BD00BF002002400010024017
:103E20002C0200203F1901002A020020BD3C00089E
:103E3000D93C0008704708B50020014600F0A0FA00
:103E400001204FF4806100F09BFA0021022000F075
:103E500097FA2D2000F0A4FABDE8084003200021C5
:103E600000F08EBA00F05AB9704700F097B9000020
:103E700001498D460149084700500020813E000855
:103E800008B5124B124A1968914201D0002301E093
:103E9000104B07E01048D4188442F9D2C858D050CB
:103EA0000433F7E70D4A934203D2002243F8042B70
:103EB000F8E704F07FF800200146024600F0B2FF68
:103EC000074B0BB104F066F8FEE700BFC4E2000840
:103ED00000000020781300207813002090150020A7
:103EE000957F000808B50D4B1A680AB90C4A1A608C
:103EF0001B680C4AD21A824204DB09494242591A11
:103F0000914206DA04F040F80C2303604FF0FF30D2
:103F100008BD024A18441060184608BDEC14002081
:103F20009015002080210128FEE70000000000001D
:103F3000012007E0022005E0032003E0042001E067
:103F40000520FFE70D4A0121116072B60C4A0021DD
:103F50001160074902B4084902B486B005498E468B
:103F6000704700BFAFF30080AFF30080AFF3008075
:103F700000000061F9FFFFFF0D4B000814ED00E0A9
:103F800010E000E0AFF30080AFF30080AFF30080FB
:103F9000FEE710B50446007900F0C0F92079BDE8CD
:103FA000104000F0D3B903689A6822F4602242F40A
:103FB0008012114399607047002370B51A461C4661
:103FC000072B4FEA430503DCEE1801FA06F63443EB
:103FD0001D4401FA05F501330A2B42EA0502EFD12F
:103FE0000368DC601A6170BD0368DA6A22F0F87257
:103FF000DA6259639A6842F480029A601A689207FA
:10400000FCD5D86C80B2704738B5124D2A68136859
:104010001C68A10706D5196821F002011960936890
:1040200003B19847620708D52B681A681B691168A5
:1040300021F00401116003B19847E30708D52B680C
:104040001A68DB68116821F00101116003B198471B
:1040500038BD00BF58020020036801225B0103F154
:10406000844303F58673191F1A6018680028FCD171
:1040700043F8042C0B68002BFCD170470146042048
:1040800000F07EB9044B10B504461868A047034BF6
:104090001868A04710BD00BF58020020540200203D
:1040A00010B50446FFF775FF20464FF46021FFF777
:1040B0007AFF2368012103F1404308335A015B0171
:1040C00002F1844203F18443116520461960BDE882
:1040D0001040FFF7C1BF08B5142000F01FF90420FD
:1040E00000F01CF9BDE80840042000F02FB90000E2
:1040F000014B01221A60704720000E42014B002242
:104100001A60704720000E42034B1A6822F0070223
:1041100010431860704700BF0020024008B50748F0
:1041200001F07FFA064801F07CFA064801F079FABE
:10413000BDE80840044801F074BA00BF5C020020EA
:10414000640200206C0200207402002070B501F0AF
:104150000704A4000F25A5400368C80853F8206091
:10416000092A26EA050514BF1646082606FA04F4AD
:10417000082A44EA050443F8204006D1012000FA49
:1041800001F1DA6822EA010106E0092A05D10120DD
:1041900000FA01F1DA681143D96070BD08B5032057
:1041A00000F0BCF8BDE80840032000F0CFB80000E4
:1041B00000284FEA011105DA064B00F00F00C9B2E2
:1041C0001954704700F16040C9B200F5614080F8B1
:1041D0000013704714ED00E021F0604138B521F084
:1041E0007F01084B0843986000241D4660B20F21F0
:1041F0000134FFF7DDFF2B2CF8D1F02385F82330B5
:1042000038BD00BF00ED00E0014B1860704700BFF3
:10421000A0000E42074B1A6842F001021A601A68A9
:1042200042F002021A60044B1A6942F004021A6159
:1042300030BF70470070004000ED00E0024B1A688C
:1042400042EA80001860704700700040014B13F88C
:1042500010007047A0DF0008064B5A6822F00302E6
:1042600002435A6080005A6802F00C028242FAD17E
:10427000704700BF00100240030A0121C0B201FADA
:1042800000F003F1804303F504331A68104318600B
:104290007047030A0121C0B201FA00F003F1804324
:1042A00003F504331A6822EA000018607047030A15
:1042B0000122C0B202FA00F003F1804303F5043397
:1042C0001B6818420CBF002001207047030A02221D
:1042D000C0B202FA00F003F1804303F504331B6817
:1042E0001840704738B54368044618201D68FFF72A
:1042F000DEFF20B106488121064A00F011FC064B82
:1043000021685A680D4322F4741215435D6038BD6C
:1043100030DF000884DF00080010024010B50446BA
:10432000FFF794FF074B53F82020074B03EB44049F
:10433000637803EBC2039B0003F1844301221A60FC
:1043400010BD00BF7C020020A0DF000810B50446AD
:10435000FFF77CFF084B53F82020084B03EB440485
:10436000637803EBC2039B0003F1844301221A60CC
:1043700000221A6010BD00BF88020020A0DF0008E4
:1043800010B5054B054C5A6854F8200022EA00028B
:104390001143596010BD00BF00100240FCDF00084F
:1043A00010B50446FFF752FF074B53F82020074B88
:1043B00003EB4404637803EBC2039B0003F18443E3
:1043C00000221A6010BD00BF90020020A0DF00088C
:1043D000024B072258601A60704700BF10E000E0EF
:1043E00008B5044B1A6801321A60034B1B6803B10D
:1043F000984708BD88150020F014002011F0010F27
:1044000070B542EA03030CBF0825002503FA05F541
:10441000006801F1FF3400F11800C4F3400450F8C3
:10442000241014BF6FF0FF066FF47F46314029431C
:1044300040F8241070BD000010B504460448A047A1
:104440000448A0470448A0470448A04710BD00BF47
:10445000E40200200C0300209C020020C002002087
:1044600010B504460079FFF759FF2079BDE81040E8
:10447000FFF76CBF03791E2B10D9212B0ED0202BF8
:104480000ED9222B01D0252B04D102298CBF00206C
:10449000012070474B1E5842584170470120704719
:1044A000002070478B1C40F823200368012203F191
:1044B00040430C3301EBC3039B0003F184431A60B8
:1044C00042790379FAB9B3F11A02534253410729E9
:1044D0004BD8DFE801F004090909090E0E13002B7F
:1044E0000CBF2C23192337E0002B0CBF2E231B23DA
:1044F00032E0002B0CBF2D231A232DE0002B0CBF24
:104500002B23182328E01B3B0C2B1CD8DFE803F0DF
:10451000212307090B0D1B0F1113151719001E235B
:104520001AE0322318E0362316E0372314E018236C
:1045300012E0192310E01A230EE02B230CE02C23A9
:104540000AE02D2308E0094840F2BF11084A00F0B4
:10455000E7BA1C2300E01D235909012203F01F03C1
:1045600002FA03F3034A42F82130704710E00008D2
:10457000F6D5000800E100E00368002203F14043A3
:104580000C3301EBC3039B0003F1844302311A6037
:1045900040F8212070470000F8B54E1EF3B2032BFF
:1045A00004460D46174604D92648DA21264A00F06B
:1045B000B7FA6379022B43D0032F41D8DFE807F025
:1045C0000212223520462946FFF7D6FF236803F161
:1045D00040432033DB0003EB8606B60006F1844639
:1045E000002320E02368002203F140430C3305EB55
:1045F000C3039B0003F184431A60204629466022CE
:10460000082303E02046294610220023FFF7F6FE88
:10461000236803F140432033DB0003EB8606B6003A
:1046200006F1844601233360F8BD23684FF2F1227E
:104630009A6103229A605B0103F1844301221A60AC
:10464000F8BD00BF10E0000863E0000810B5074B9C
:104650001C68E16822690A40120606D55B6A23B12C
:104660009847236923F08003236110BDE4020020F2
:1046700010B5074B1C68E16822690A40D20706D5CD
:104680009B6823B19847236923F00103236110BD80
:10469000E4020020F8B50C4F3D68EB682E691E401F
:1046A00016F0400403D03C6A0CB1A0474024B30686
:1046B00004D5FB6913B1984744F020042B6923EA21
:1046C00004042C61F8BD00BFE4020020F8B5134FCC
:1046D0003E68F36835691D4015F0100403D0BC69CD
:1046E0000CB1A0471024290704D57B6913B1984762
:1046F00044F008046A0704D53B6913B1984744F0B5
:104700000404AB0704D5FB6813B1984744F00204D6
:10471000336923EA04043461F8BD00BFE4020020D9
:10472000F8B51A4E3768FB683D691D4015F0400426
:1047300003D0346A0CB1A0474024EB0604D5B3691A
:1047400013B1984744F01004280704D5736913B1D6
:10475000984744F00804690704D5336913B19847B2
:1047600044F00404AA0704D5F36813B1984744F051
:104770000204EB0704D5B36813B1984744F0010471
:104780003B6923EA04043C61F8BD00BF0C03002030
:10479000F8B51A4E3768FB683D691D4015F04004B6
:1047A00003D0346A0CB1A0474024EB0604D5B369AA
:1047B00013B1984744F01004280704D5736913B166
:1047C000984744F00804690704D5336913B1984742
:1047D00044F00404AA0704D5F36813B1984744F0E1
:1047E0000204EB0704D5B36813B1984744F0010401
:1047F0003B6923EA04043C61F8BD00BF9C02002031
:10480000F8B51A4E3768FB683D691D4015F0400445
:1048100003D0346A0CB1A0474024EB0604D5B36939
:1048200013B1984744F01004280704D5736913B1F5
:10483000984744F00804690704D5336913B19847D1
:1048400044F00404AA0704D5F36813B1984744F070
:104850000204EB0704D5B36813B1984744F0010490
:104860003B6923EA04043C61F8BD00BFC00200209C
:1048700081880268034689B2505C99881A8989B296
:1048800092B2914217BF9A880022013292B2C0B20E
:104890009A807047C28838B5838892B29BB2013241
:1048A0009A4204460D461AD0C288038992B29BB23E
:1048B0009A4202D183889BB28BB14FF0FF30E288DD
:1048C000236892B29D54E288238992B29BB29A42A5
:1048D00017BFE388002301339BB2E38038BD204635
:1048E000FFF7C6FFEBE770B51E46054608461146C2
:1048F0000422059CFFF72AFC9DF810100B2230467D
:10490000FFF724FC2B6804F00F01DA6804F0300490
:1049100022F4F0521204120C42EA4122DA601A69BF
:1049200022F440521204120C42EA04241C6170BDAD
:1049300038B50446154611B900F096F8014619231A
:104940005943AD006423B1FBF5F1B1FBF3F2120161
:10495000100903FB101109013231B1FBF3F303F02D
:104960000F0321681A4392B28A6038BD38B5114DE1
:10497000EB68980607D52B68990604D569680E4838
:10498000C9B2FFF787FFEB680A4C1A0611D52368F6
:104990001B060ED509488288C38892B29BB29A4200
:1049A00003D0FFF765FF606038BDE36823F0800344
:1049B000E36038BD0038014000150020F4140020E9
:1049C00038B5114DEB68980607D52B68990604D5C4
:1049D00069680E48C9B2FFF75DFFEB680A4C1A061A
:1049E00011D523681B060ED509488288C38892B268
:1049F0009BB29A4203D0FFF73BFF606038BDE3688B
:104A000023F08003E36038BD004400400C15002013
:104A10002415002038B5114DEB68980607D52B6892
:104A2000990604D569680E48C9B2FFF733FFEB68F1
:104A30000A4C1A0611D523681B060ED50948828830
:104A4000C38892B29BB29A4203D0FFF711FF606015
:104A500038BDE36823F08003E36038BD00480040C0
:104A6000181500203015002008B590F89002FFF7C7
:104A7000EDFB20B10128034818BF002008BD024803
:104A800008BD00BF00A24A040051250213B5044628
:104A90008DF8071020460DF10701012200F01CFEE1
:104AA0000028F7D002B010BD38B505464C1E14F8EA
:104AB000011F19B12846FFF7E9FFF8E738BD0000EC
:104AC00008B5114B01211C6803222046FFF73EFB6D
:104AD000002301211A469342206834BF02254FF477
:104AE0000035B2F5007F056103F1010303D0002A10
:104AF00008BF012101E04FF0FF31B3F5007F04BF93
:104B000052180023E7E700BF2CDF000808B5034B6D
:104B10000BB1AFF3008062B6FFF7D2FF00000000D8
:104B2000F8B5144B06460D4617460BB3AFF300809D
:104B300011490446FFF7B8FF20463946FFF7B4FF96
:104B400020460E49FFF7B0FF20463146FFF7ACFF85
:104B500020460B49FFF7A8FF2046294600F00AFE31
:104B600020460A21FFF792FF20460D21FFF78EFF16
:104B7000FFF7CCFF000000007FE0000895E0000890
:104B8000FDDB000803695B68D9889A8889B292B214
:104B9000D8888A1A998880B289B2884203D2198942
:104BA00089B201310A4492B282B199881A6889B2F5
:104BB000505C99881A8989B292B2914217BF9A883B
:104BC0000022013292B2C0B29A8070474FF0FF309B
:104BD000704703695B689988DA8889B292B291421A
:104BE00005D09A881B6892B2985CC0B270474FF0AB
:104BF000FF30704703699A689088D18880B289B283
:104C00008842F9D11A6813685B06FCD5704713B562
:104C100004698DF8071020460DF10701012200F00C
:104C20005BFD0028F7D0012002B010BD03695B686E
:104C3000D8889A8880B292B2D988801A9A8889B224
:104C400092B2914203D21B899BB20133184480B2C5
:104C50007047000030B5002545604FF47A758560D7
:104C6000024D016105600275437530BDC8E0000862
:104C700003692DE9F74FDB68044699420F469246D7
:104C80002CD890F81480174D4FEA081808EB050649
:104C900090F8159070684FEA091909EB050B717BC4
:104CA00010B10022FFF778FC206900F0C5FC337BCF
:104CB0009BF80C2020698DE8080459F8051058F875
:104CC0000530FFF710FE206900213A46FFF730FE5D
:104CD000206903B0BDE8F04F00F0D8BC03B0BDE8D8
:104CE000F08F00BFFCDC00080022FFF7C1BF0069A5
:104CF00000F0D6BC044B02791B789A4202D1034BD8
:104D00001B681860704700BF4C150020501500202C
:104D1000002310B50446036072B6054B19311970B3
:104D2000044B18600448FFF787FB62B6204610BDAD
:104D30004C15002050150020F54C00080368002297
:104D40001B685B0103F184431A607047036801220A
:104D50001B685B0103F184431A60704703680139E3
:104D60001B6889B29962704703681B68DA6A92B25D
:104D7000914228BF11465962704738B5054639B986
:104D8000036801221B689962DA62D86A80B238BD72
:104D900048244C434FF6FF71B4FBF1F1013189B265
:104DA00004EB5104B4FBF1F4FFF7D8FF2B68A4B275
:104DB0001B682046DC6238BD0068C9B2FFF7ECBB57
:104DC0000368C9B21B6801F18041D86A013980B219
:104DD0003433824228BF024643F8212070470068DE
:104DE000C9B2FFF75FBB000008B501210848FFF713
:104DF0008FFF02210748FFF78BFF03210648FFF7CB
:104E000087FFBDE8084005480421FFF781BF00BFC8
:104E10003C150020401500204415002048150020B6
:104E2000FEF7AABF08B5FBF799FAFBF713FCFCE7FE
:104E300070B505460E460024315D29B12A68284622
:104E4000126890470134F7E7204670BDF8B5054673
:104E50000C4616468F18BC4206D02B6828461B68A5
:104E600014F8011B9847F6E73046F8BD10B5026804
:104E70000B46946809689A68A04710BD08B5036896
:104E80001B68984708BD08B503685B68984708BD6C
:104E900038B50D210546FFF7F1FF0A2104462846E3
:104EA000FFF7ECFF204438BD38B50446FFF7DEFFBE
:104EB00005462046FFF7ECFF284438BD38B50446C8
:104EC000FFF7E1FF05462046FFF7E2FF284438BD23
:104ED0002DE9F04F14461D4691B054EA0503814672
:104EE0009DF868B004D13021FFF7C8FF01202EE003
:104EF0004FF000085FFA8BF600272046294632461D
:104F00003B4602F027FD08F101080DF1000AC244FA
:104F10000AF8012C204629463B46324602F01AFD8B
:104F200004460D4654EA0503E4D1002408F1FF3895
:104F30001DF808104846092994BF30313731C9B2ED
:104F4000FFF79CFF0444B8F1000FEFD1204611B0E9
:104F5000BDE8F08F2DE9F041069F064614461D4638
:104F60002FB90368D1B21B689847BDE8F081002CC7
:104F700075F1000305DA2D21FFF780FF644265EB30
:104F80004505FFB20697304622462B46BDE8F04164
:104F9000FFF79EBF07B5CB1700920A46FFF7DAFF6F
:104FA00003B05DF804FB38B50446FFF7F3FF054690
:104FB0002046FFF76DFF284438BD70B5049921B92C
:104FC0000368D1B21B68984770BDC9B20491BDE8AF
:104FD0007040FFF77DBF07B500230092CAB2FFF70C
:104FE000ECFF03B05DF804FB38B50446FFF7F3FFB0
:104FF00005462046FFF74CFF284438BD07B500237F
:1050000000920A46FFF7D9FF03B05DF804FB38B5FC
:105010000446FFF7F3FF05462046FFF739FF284413
:1050200038BD07B5002300920A46FFF7C6FF03B05C
:105030005DF804FB000000002DE9F74F1946064615
:10504000144610461D460022002302F0E7F89DF8A2
:1050500030704FF0010838B12046294644A3D3E907
:10506000002302F0D1F806E02046294642A3D3E906
:10507000002302F0BFF800B980465FFA88F82046A6
:10508000294600220023B8F1000F0DD002F0A8F845
:1050900018B130462D21FFF7F1FE804638493046E1
:1050A000FFF7F1FE404460E002F09AF838B1304674
:1050B0002D21FFF7E3FE05F1004380461D46314BED
:1050C0004FF0000900225FFA89F1B9420AD2104676
:1050D000194600222C4B01F03BFF09F10109024661
:1050E0000B46F0E72046294601F056FC04460D46E3
:1050F00002F046FC82468B4601F0D2FD02460B468A
:105100002046294601F046FC0A23009304465246F5
:1051100030465B460D46FFF71DFF804427B1304601
:105120001A49FFF7B0FE8044F7B1174B0022204622
:10513000294601F0E3FD0D46044602F079F8814668
:105140000A2249463046FFF725FF8044484601F0D1
:105150006FFD02460B462046294601F01BFC013F2D
:1051600004460D46FFB2DFE7404603B0BDE8F08FCE
:10517000800350726C92DF43800350726C92DFC3E5
:10518000E8E000080000E03F0000244092D500085D
:1051900037B59DF8181004460091FFF74DFF0546FE
:1051A0002046FFF775FE284403B030BD054B03EBE6
:1051B000001000F10803806810B19979FEF714BF60
:1051C000704700BFFCDC000822280ED8084B000105
:1051D0001A18127B012101FA02F21B581B689B6806
:1051E0001A420CBF0020012070470020704700BF0A
:1051F000FCDC0008222810D8084B00011A18127B8A
:105200001B58012000FA02F2D1F1010138BF002140
:10521000090102FA01F11B6819617047FCDC000802
:1052200010B5044630B103F0C3FA90FBF4F303FB6E
:10523000140010BD10BD884210B5044604DA081AE7
:10524000FFF7EEFF204410BD10BD00002DE9F04730
:1052500080460E460846002192469946FFF7CAFF4F
:105260000024BAF1000F02D0C4F1070100E021468A
:1052700049FA01F1404601F00101FFF7BBFF0B4A7B
:105280003301D718D35801211D683B7BEA6801FA26
:1052900003F35340EB603A7BEB6891400134594093
:1052A000082CE960DDD1BDE8F08700BFFCDC000818
:1052B000054B70B51C6806461D4600F04DF92B687D
:1052C0001B1BB342F9D370BD881500200C23584333
:1052D000431E18460138FDD8704710B504460068D3
:1052E00002F098FE204610BD10B50446006808B1D3
:1052F00002F090FE00232360A360636010BD38B508
:1053000004460D460068013103F072FA10B184E8DA
:105310002100012038BD036810B5044613B143686D
:105320008B4207D22046FFF7EAFF20B1A3680BB9F2
:1053300022681370012010BD70B50E461146044658
:105340001546FFF7E8FF18B92046FFF7CDFF04E048
:10535000A5602068314603F06BFC204670BD38B56F
:10536000002304460360436083600D4639B108465C
:1053700003F0BCFC294602462046FFF7DDFF20462D
:1053800038BD884210B50B46044607D0096819B1EC
:105390009A68FFF7D1FF01E0FFF7A6FF204610BD96
:1053A00010B500230446036043608360FFF7E9FF04
:1053B000204610BD38B505460C4641B1084603F0FD
:1053C00095FC214602462846FFF7B6FF01E0FFF7AD
:1053D0008BFF284638BD10B500238AB00446036011
:1053E00043608360084601A900F0EEF8204601A959
:1053F000FFF7E0FF20460AB010BD70B5044685688F
:105400000E4609B9002070BD62B115442946FFF768
:1054100082FF0028F6D02068A3683146184403F0C4
:1054200007FCA560012070BD1FB504460A2208468E
:10543000694600F0C9F8684603F058FC6946024620
:105440002046FFF7DAFF04B010BD1FB504460A225C
:105450000846694600F0E3F8684603F047FC6946F1
:1054600002462046FFF7C9FF04B010BD0B4610B539
:1054700009689A680446FFF7C0FF10B92046FFF795
:1054800033FF204610BD38B504460D4641B10846ED
:1054900003F02CFC294602462046FFF7AEFF10B968
:1054A0002046FFF721FF204638BD10B50446FFF720
:1054B000BBFF10B92046FFF717FF204610BD10B5FF
:1054C0000446FFF7C2FF10B92046FFF70DFF204644
:1054D00010BD0000222870B53BD8082939D8DFE874
:1054E00001F0051A080B0E110814170000240322FE
:1054F00013E00024042210E0002422460DE00024E2
:1055000009220AE00024082207E001240B2204E01B
:1055100001240F2201E0002407220E4B00011E1877
:10552000317B1858FEF712FE706890B1717B24B180
:105530000122BDE87040FFF72FB80368013903F17D
:1055400040432033DB0003EB81039B0003F18443E2
:105550001C6070BDFCDC00087047F0B58BB059B31F
:10556000931E222B2AD80A2A2AD1002828DA404260
:10557000012501AB1E4670B1B0FBF2F702FB170428
:10558000092C3846D8BF303403F10107C8BF57345F
:105590001C703B46EFE7B342EED01DB12D204A1CF4
:1055A000087000E00A46B34204D913F8010D02F86E
:1055B000010BF8E700231370084603E0002001E028
:1055C0000025D6E70BB0F0BDFFF7C7BF70B58AB0B6
:1055D00001B3931E222B1FD801AB1D4670B1B0FB47
:1055E000F2F602FB1604092C3046D8BF303403F122
:1055F0000106C8BF57341C703346EFE7AB42EED00C
:105600000A46AB4204D913F8010D02F8010BF8E782
:1056100000231370084600E000200AB070BDFFF7B9
:10562000D5BF10B504460079FEF778FE2079BDE8B5
:105630001040FEF78BBE0000436800227F2110B5AA
:105640009A80DA80198100F110011960836804469C
:105650009A80DA8040F2FF121A8100F190021A60FB
:1056600090F89002FEF75AFE94F891325AB2002A4E
:1056700008DB012103F01F0301FA03F30249521171
:1056800041F8223010BD00BF00E100E00368DA6895
:1056900042F02C02DA60DA6842F40052DA607047B5
:1056A00010B5036882689488D188A4B289B28C420C
:1056B000F9D1DA68910402D51A685206F9D5DA6888
:1056C00022F40052DA6043689A8892B2DA808368E2
:1056D0009A8892B2DA8010BDF0B5836805460468F6
:1056E00000209F88DE88BFB2B6B2B74204D0E3681C
:1056F00023F08003E36027E026683606F7D5904262
:10570000F5D00E5C01306660EBE7DF889E88BFB2A3
:10571000B6B20137B74211F800C01DD0DF881E892C
:10572000BFB2B6B2B74213D0DF881E68BFB206F868
:1057300007C0DF881E89BFB2B6B2B74218D0DE8874
:105740000136B6B2DE8001309042AB68DDD303E0B3
:105750009E88B6B2002EE7D19A88DB8892B29BB2BF
:105760009A4200D1F0BDE36843F08003E360F0BDEE
:105770000026E7E77FB5064600240A22B1FBF2F3D4
:1057800002FB1312013401AD2819303200F8012C4C
:105790001946002BF1D114F1FF340BD32B5D8DF89A
:1057A000033030460DF103010122FFF795FF002879
:1057B000F7D0F0E704B070BD2DE9F04F8BB01D4677
:1057C00080468946144600F073F9DFF8ACA206461D
:1057D0009AF900300F46013304D02046294600F0E4
:1057E0008DFF20B9304639460BB0BDE8F08F4046FA
:1057F000494600F083FF834600282CD120462946E5
:105800000022002301F0E2FC0028EBD0944B9AF92F
:105810000010944E00220120CDE906234B1CCDF848
:1058200020B0CDE90289CDE904458DE841000DD0D5
:1058300002290BD0684600F089FF002800F095800F
:10584000089B1BB102F0A0FB089B0360DDE9060189
:105850000BB0BDE8F08F002200234046494601F01E
:10586000B5FCF8B1204629460022002301F0AEFC29
:10587000834600284DD07B489AF90030CDE9044595
:105880000121002200240025CDE90289CDE9064549
:10589000019000910892002BCCD0714B0022CDE9F1
:1058A0000623D3E73046394600F022FF834600281E
:1058B00060D0002200233046394601F087FC0028E2
:1058C00090D04046494600F013FF00288AD0204679
:1058D000294600F00DFF002884D09AF90030614875
:1058E000CDE904450421002200240025022BCDE946
:1058F0000289CDE9064501900091089200F082806E
:10590000684600F023FF00287CD0089B002B9DD028
:1059100098E72046294600F0EBFE00283FF462AFEE
:10592000204629460022002301F05AFC00283FF4BB
:1059300059AF4C4A9AF8001001230192CDF820B0DB
:10594000CDE90289CDE9044500930022002934D134
:105950000023CDE90623684600F0F8FE0028D4D1E4
:1059600002F012FB21230360CFE702F00DFB21239D
:10597000036065E74046494600F0BAFE002898D02B
:105980002046294600F0B4FE002892D03046394621
:1059900000F0B4FEB8B9334A9AF8006001230890C9
:1059A000CDE90289CDE9044501920093002E2ED164
:1059B00000240025CDE90645CDE72B4B0229CDE992
:1059C0000623CDD0C7E727499AF900300322019179
:1059D0000092CDF820B0CDE90289CDE904454046DA
:1059E00049460022F3B9214F4FF060460023CDE92C
:1059F000066701F0F5FB002840D19AF90030022B30
:105A00007FF47EAF02F0C0FA222303607DE700201E
:105A1000002102460B4601F09BFA022ECDE9060159
:105A20009ED098E7124F00260023CDE9066701F0CB
:105A3000D7FB0028E1D000220E4B2046294601F07A
:105A40005DF904460D4600F089FE22462B4601F022
:105A5000BDFB0028D1D1044B0022CDE90623CCE7C1
:105A60000000F03FF8E000080000F0FFFFFFEF4704
:105A70000000F07F0000E03FF80A002000220A4BFF
:105A80002046294601F03AF904460D4600F066FE2C
:105A900022462B4601F09AFB0028AED1034B4FF073
:105AA0006042CDE90623A8E70000E03FFFFFEFC713
:105AB0002DE9F04F23F0004B91B089460F465BEA89
:105AC0000201CDE9022314461D46804606462ED02B
:105AD000634B29F0004A9A4522DC1FD0604B9B455E
