:020000040800F2
:1000000000500020BD3D0008813E0008853E0008EC
:10001000893E00088D3E0008913E0008E13E000840
:10002000E13E0008E13E0008E13E0008E13E000834
:10003000E13E0008E13E0008E13E00084D430008B3
:10004000E13E0008E13E0008E13E0008993A000860
:10005000E13E0008E13E0008E13E0008E13E000804
:10006000E13E0008E13E0008E13E0008E13E0008F4
:10007000E13E0008E13E0008E13E0008E13E0008E4
:10008000E13E0008E13E0008593F0008E13E00085B
:10009000E13E0008E13E0008E13E0008E13E0008C4
:1000A000B9450008DD45000801460008394600084A
:1000B0008D460008FD4600086D470008E13E000837
:1000C000E13E0008E13E0008E13E0008E13E000894
:1000D000E13E0008D94800082D4900088149000880
:1000E000E13E0008E13A0008E13E000810B5054C89
:1000F000237833B9044B13B10448AFF300800123D4
:10010000237010BD781300200000000024BC0008FC
:1001100008B5064B1BB106480649AFF300800648F8
:10012000036813B1054B03B1984708BD00000000F8
:1001300024BC00087C13002078130020000000007D
:1001400007B5324801F092FC002837D1304B3149D5
:1001500018702E4801F044FB28B12C482D4901F0BD
:100160007AFB002848D12C4801F08EFD20B12A48A6
:1001700001F039FD002844D101238DF800302648D4
:10018000002369468DF801308DF802308DF8033078
:100190008DF8043001F0DDFC18B12048204904F04E
:1001A00043FE20480021052200F0B0FE06E01020AA
:1001B00004F0BEFF40B11C4800F0B8FD134801F048
:1001C00055FC0028F3D011E041F2883005F024F806
:1001D000102004F0ADFF0028EDD1144802F096FC89
:1001E000102004F0A5FF0028FAD0E4E7084B012214
:1001F0001A7003B05DF804FB0D49084804F014FEC2
:10020000B1E70C49054804F00FFEB5E736140020AD
:10021000080000209413002034140020A8140020AB
:10022000E0CF0008301400201F1400208A140020A2
:10023000FDCF000811D00008F8B5114E0325346831
:10024000104B1A781F46CAB90F4802F08DFE32686B
:1002500004F51C5310339A4201D23B7853B1013D4F
:1002600015F0FF053468EBD1BDE8F84007480849B0
:1002700004F0DABD074800F059FDE8E7F8BD00BF1B
:100280008C1500201D1400208A140020A8140020C2
:1002900040D000081F14002008B50E490E4804F095
:1002A000C3FD0E4800F05CFE1420002104F056FF50
:1002B0000120002104F052FF0121132004F04EFF21
:1002C000012003F057FF012003F06EFFBDE8084056
:1002D00003F056BF5FD00008A8140020301400209F
:1002E000FFF7DABF08B5102004F022FFF0B9642050
:1002F00004F092FF102004F01BFFB8B941F28830DF
:1003000004F08AFF082004F013FF78B9642004F099
:1003100083FF082004F00CFF40B9054801F00BFCF6
:10032000BDE808400348044904F07EBD08BD00BF95
:1003300032140020A814002071D00008594B10B5C9
:100340001A68594822F0E06242F000721A604FF4D5
:10035000165104F07FFC55484FF4165100F07EFE14
:1003600053484FF4165104F075FC03F05CFE5149FC
:100370004D4804F059FD504800F09AFD4FF4FA60E2
:1003800004F04AFF494800F03FFE1420002105F028
:1003900009F81420002104F0E1FE4849424804F025
:1003A00043FD474801F0F0F90121404800F05CFEB0
:1003B0004FF47A7004F030FF424800F0B7FCFFF7CA
:1003C00091FF414801F0AEFB80B9384801F004F9D3
:1003D0003648012100F056FE3448012100F044FE69
:1003E000384800F0A3FC384801F08EFB374801F094
:1003F00019FBFFF7A5FE3649344801F041FB0146E1
:10040000B0B90A222C4800F081FD3249264804F098
:100410000BFD314802F024FC4FF47A7004F0FCFE2E
:10042000284800F083FC40F6B83004F0F5FEE2E71F
:100430002A491D4804F0F8FC1F4801210A2200F057
:1004400065FD1D4800F0A4FDB0F52F6F0DD86420A8
:1004500004F0E2FE184800F09BFDB0F52F6F04D8C1
:100460001F4801F049FFFFF717FFFFF7E5FE1248AD
:1004700000F08EFD40F6E34398421A4C01D9002368
:1004800009E001230C48237000F082FD40F6B833E8
:10049000984201D8022323701148BDE8104001F0B2
:1004A00071BE00BF04000140A814002031140020D8
:1004B000D8140020B5D0000830140020CBD000089C
:1004C000351400201F1400203214002036140020A0
:1004D00094130020E9D000088A1400201CD10008E1
:1004E0004114002040140020012902D11C30C0B268
:1004F0007047062984BF01F1FF31C9B211F0010F25
:1005000014BF1E201F207047444B2DE9F047B1FB5C
:10051000F3F603FB16113C23B1FBF3F203FB1212BB
:10052000054602704FF46160B1FBF0F200FB12115E
:10053000B1FBF3F36B704FF4FA63AA70B6B2EB80C1
:10054000EC884FF4C873B4FBF3F803FB18481FFAA8
:1005500088F8B8F1000F16D06423B4FBF3F203FB64
:1005600012439BB2002B53D014F0030140F26D13E1
:100570000CBF4FF4B7721A4696420EDB002908BF33
:100580004FF4B77304E0B6F5B77F06DB4FF4B773EB
:10059000F61A0134B6B2EC80D2E700236B71642303
:1005A000B4FBF3F703FB1747BFB2B8F1000F06D057
:1005B0003FB114F0030F14BF0020012002E001201E
:1005C00000E0384695F80590C0B24946FFF78CFF29
:1005D000864209F1010A15D3B8F1000F06D03FB1E8
:1005E00014F0030F14BF0020012002E0012000E0FE
:1005F0003846C0B24946FFF777FF301A86B285F811
:1006000005A0D2E701362E7185F805A0BDE8F08778
:10061000B6F5B67FC1DD40F26D13B9E78051010038
:10062000F8B5427887783C2303FB072702780579E1
:10063000467903FB0727013D013EEDB2F6B20446C1
:1006400005714671013E731CE38834D04FF4C872C3
:10065000B3FBF2F102FB113292B262B16422B3FB3E
:10066000F2F002FB103080B230B113F0030F14BF70
:100670000020012000E00120C0B2F1B2FFF734FFFA
:10068000284485B2DEE74FF4C872B3FBF2F102FBF7
:10069000113292B2AAB16422B3FBF2F102FB113221
:1006A00092B28AB113F0030F40F26D1208BF4FF4FB
:1006B000B7721544ADB2013B9BB2B3F5FA6FE2D20B
:1006C00005E04FF4B772F4E740F26D12F1E702482B
:1006D00000FB0570F8BD00BF8051010001F030BB88
:1006E00038B50D46044601F046FB290A4900603939
:1006F000204601F0FE0101F0D5FB204601F0ABFBE6
:10070000E9B2204601F0CEFB204601F0A4FB2046D2
:1007100001F031FB2046A12101F0C4FB204601F08D
:100720009AFB0021204601F0E4FB0546204601F03B
:1007300075FB204601F03AFB284638BD70B50D46E2
:100740001646044601F017FB290A49006039204685
:1007500001F0FE0101F0A6FB204601F07CFBE9B2AE
:10076000204601F09FFB204601F075FB31462046F4
:1007700001F098FB204601F06EFB204601F016FBCD
:10078000BDE870400A2004F047BD0000D30770B5F3
:1007900048BF01320024520802312346E5B2954297
:1007A00025D211F8025CA5F14106F6B2052E02D859
:1007B000104B9B5D05E0303DEDB2092D03D80E4B8B
:1007C0005B5D1B01DBB211F8015CA5F14106F6B2DD
:1007D000052E01D8074D04E0303DEDB2092D02D8B9
:1007E000054E755D2B43035502310134D6E70020D9
:1007F00070BD00BF3FD1000835D100082DE9F04F92
:10080000824687B008461446994606F053F9C9EB6C
:100810000406CDE90001304606F03AF902460B46DF
:1008200000204D4904F0F6FE02460B46DDE90001CA
:1008300006F01AFC30B94FF0020896FBF8F80546AE
:10084000013E07E050460021224607B0BDE8F04FC8
:1008500007F090BE454536DA304606F019F90246F3
:100860000B4600203C4904F0D5FECDE90201701E84
:1008700006F00EF902460B460020374904F0CAFE86
:10088000DDE90223CDE90401DDE9000106F090FA7B
:1008900006F0FEFBDDE904230A2790FBF7FB0BFBC8
:1008A00017004FEA001BDDE9000106F081FA06F0AF
:1008B000EFFB90FBF7F303FB170083440AF805B046
:1008C000023E0135C6E709EB48094FF0020BC4EBC5
:1008D000090994FBFBFB09F10109D84538DA4846C0
:1008E00006F0D6F802460B4600201B4904F092FEA3
:1008F000064609F101000F4606F0CAF802460B460B
:100900000020154904F086FE32463B4604460D465B
:10091000DDE9000106F022F906F0BAFB0A2690FB99
:10092000F6F707FB16002B4607012246DDE900011A
:1009300006F014F906F0ACFB90FBF6F303FB16008F
:1009400007440AF8087009F1020908F10108C4E730
:1009500007B0BDE8F08F00BF00002440124A517874
:1009600093784AF2130243EA0123934213D008D842
:100970004AF21102934213D04AF21202934211D06A
:100980000DE04AF21402934207D04AF22202934247
:1009900005D106207047022070470320704770473A
:1009A00000207047012070479D13002010B5074CB0
:1009B0006018114602F02BFF054B1B781C4414F8FD
:1009C000073C1B1A5842584110BD00BF9D13002020
:1009D0001E140020044B18795B7943EA0020431E63
:1009E00058425841704700BF9D130020044B9B792B
:1009F000552B044B0CBF012200221A70704700BF18
:100A00009D1300202014002010B5084CE379552BCD
:100A100001D1012010BD064801F033F9E37983428A
:100A2000F7D0D0F1010038BF002010BD9D13002089
:100A30003414002013B50D4B1C7A552C01D1012024
:100A400012E00B48694601F0BFF800231A461DF872
:100A500003108C42F3D019B90132D2B2052AEED07C
:100A60000133052BF3D1002002B010BD9D130020EF
:100A70003414002070B505461E46FFF797FF044664
:100A800098B12846FFF7A6FF044658B12846FFF75D
:100A9000ADFF2846FFF7B8FF044648B946B10C48F9
:100AA0000C4911E00A480C490EE009480B490BE0DB
:100AB0002846FFF7BFFF044640B99DF810300BB938
:100AC000012403E00248064904F0AEF9204670BD57
:100AD000A814002097D1000845D1000873D1000860
:100AE000CED10008194B13B51B7863B300230093D4
:100AF000042117220123FFF7BDFFD8B1144C15487C
:100B000004F10C0101F028FAA17AE37A124843EAD1
:100B1000012101F0C7F810B1104B01221A70237A9D
:100B20000F48552B02D101F0F1FF03E0072101220C
:100B300002F094F90B4B06481A78002102B0BDE888
:100B4000104007F017BD02B010BD00BF0800002024
:100B50009D13002041140020331400201D14002098
:100B60008A1400201E140020174B07B51B7843B3CE
:100B70000023009304210A220123FFF77BFFB8B171
:100B80001248134900F0E5FF30B11249124804F051
:100B90004BF91248032108E011490F4804F044F9C9
:100BA000104B0A220D481A700421012202F056F956
:100BB0000D4B0E481A78002103B05DF804EB07F0E6
:100BC000D9BC03B05DF804FB0800002034140020F9
:100BD000A513002006D20008A81400208A140020C3
:100BE00036D200088B1400201E1400209D13002014
:100BF00013B50023009304210F22FFF73BFF10B32E
:100C00001D4C1E4804F10A0100F0EAFD002830D016
:100C10001A4804F10A0100F01EFE50B318491948A1
:100C200004F002F91848E17900F0FEFFA0B117497D
:100C3000144804F0F9F816480521012202F00EF9D3
:100C40000E4800F0DAFE134B0B481A78002102B070
:100C5000BDE8104007F08EBC0A480F4904F0E4F8E4
:100C60000E4B0A221A700A480621012202F0F6F8F9
:100C7000E9E704480A49F1E79D13002036140020F3
:100C8000C9D20008A81400203414002066D200083D
:100C90008A1400201E14002098D200088B14002013
:100CA000F6D200080D4B07B51B789BB100230093CB
:100CB000042105220123FFF7DDFE10B1084802F0F0
:100CC0003BF8084B08481A78002103B05DF804EBA4
:100CD00007F050BC03B05DF804FB00BF0800002023
:100CE0008A1400201E1400209D13002010B5044615
:100CF000FFF734FE032817D8DFE800F002070C11D5
:100D00002046BDE81040FFF7EDBE2046BDE810408C
:100D1000FFF72ABF2046BDE81040FFF769BF204615
:100D2000BDE81040FFF7BEBF10BD00002DE9F04741
:100D3000404C002782462770002635463E4803F087
:100D40002BFF002833DD94F800903B4809F10103A4
:100D5000237003F0CDFEDFF8F48008F809000520C9
:100D600004F05AFA23781022434413F8011C334844
:100D700004F0E7F83148324904F03BF894F90030C8
:100D8000002B434602DA2B4A00211170F6B9227873
:100D90001A4412F8012C0D2A01D117E00126052D65
:100DA000CCD12648274904F03FF80127C4E757B1C2
:100DB0002549224804F038F85046FFF797FF0023F2
:100DC0002370BDE8F0872770BDE8F087042DE5D8D3
:100DD000DFE805F0030C151E27002278134413F8F2
:100DE000015CB5F10A035D425D4121E022781344C4
:100DF00013F8013C0D2B0CBF0225002518E02278CA
:100E0000134413F8013C0A2B0CBF032500250FE007
:100E10002278134413F8013C0D2B0CBF0425002548
:100E200006E02278134413F8013C0A2BB9D00025C0
:100E3000012683E71E140020C0140020A8140020FF
:100E40006EDA000823D3000847D300089D13002062
:100E500008B5134B13491A68096801328A421A60AF
:100E60001DD3114900221A600B78DB43DBB20B70F3
:100E70000E49097841B1012911D1182003B1114659
:100E800004F06CF9192005E0192003B9012104F0E0
:100E900065F918200021BDE8084004F05FB908BDDD
:100EA000241400202C1400202114002028140020D9
:100EB00008B51320002104F075FA1820002104F071
:100EC00071FA1920002104F06DFA1020022104F0BB
:100ED00069FA0820022104F065FA0321072004F0D2
:100EE00061FA0A2004F098F91820002104F036F97C
:100EF0001920002104F032F9BDE8084001480249F8
:100F000003F092BFA814002072D300080F4B10B555
:100F10000F4C19700F4B20461A600121022203F07A
:100F200001FF20460C4903F0DEFE012120460A465F
:100F300003F0FCFE20460121084A03F006FF20468C
:100F40000021BDE8104003F0C5BE00BF28140020FA
:100F50004C1500202C140020A0860100510E000822
:100F600008B5064803F0A0FE1820002104F0F6F8AA
:100F7000BDE808401920002104F0F0B84C1500200D
:100F8000014803F099BE00BF4C150020000000008E
:100F900030B58BB001AD28460021242207F0EAFAD3
:100FA0000024072004F0B6F805F072FD12A3D3E97F
:100FB000002305F0D3FD0022114B05F0CFFD06F014
:100FC0008FF828514FF47A70043404F033F9242C4C
:100FD000E7D109226B4608AC53F8040F59688842E0
:100FE00084BF58601960A342F6D1013A12F0FF02A3
:100FF000F0D105980BB030BDF163CC5D4BC8E93F33
:1010000000001840AFF3008008B50120002104F073
:10101000C9F90020014604F0C5F90420002104F0BC
:10102000C1F90520002104F0BDF90120014604F0BA
:1010300095F8642004F0F0F80420002104F08EF804
:101040000520012104F08AF8BDE808400148024962
:1010500003F0EABEA814002091D30008014803F071
:10106000F9BD00BFC014002008B511B90846012120
:1010700001E00020014604F071F8BDE8084064205A
:1010800004F0CAB808B561B10021052004F066F883
:10109000962004F0C1F8BDE808400520012104F0C5
:1010A0005DB808BD08B50021012004F057F80C48D0
:1010B00003F0D3FD0220002104F074F90320002185
:1010C00004F070F90220002104F048F80320002108
:1010D00004F044F8BDE808400520002104F03EB8C3
:1010E000C014002010B504460120014604F036F873
:1010F00007484FF4165103F0ADFD20460121FFF7DC
:10110000C1FF20460121BDE81040FFF7ADBF00BF81
:10111000C014002010B50B78452B12D14B78522B00
:101120000FD18B78CC78303B03EB8303303C04EB5E
:101130004304E4B221460A22034803F00BFF204691
:1011400010BD0A2010BD00BFA81400200B784F2B43
:1011500007D148784B2804D113704B780120537085
:1011600070470020704730B50020C4B20D5D0130DB
:101170002C2D01D01D55F8E7601C5525C0B21D551A
:10118000904204D20C5C1C540130C0B2F8E730BD70
:1011900010B50B46581AC0B2904217D213F8010B83
:1011A000A0F13004E4B2092C02D803F8014CF1E7B5
:1011B000A0F14104052C01D8373804E0A0F1610406
:1011C000052C05D8573803F8010CE3E7012010BDC2
:1011D000002010BD2DE9F84300240F4691461D461E
:1011E000A046FFF7D5FF204614F0010FE3B210D15F
:1011F00017F80380064608EB88084FEA48085FFAAC
:1012000088F805F80080D8F1010838BF4FF00008D1
:101210000DE0FA5C2B5C461C1344F6B22B54B8F17B
:10122000000F04D1711E0648294401F020FC01344E
:10123000E3B24B4501D83046D6E7BDE8F88300BF9E
:1012400089140020F8B54C78432C08D18C78532CA5
:1012500005D1CD78B5F151046542654100E0002526
:101260000026F4B20F5D01363A2FFAD10134E4B210
:1012700000269442F7B206F1010606D811F804E000
:10128000013401F807E0E4B2F3E7069A0226146895
:101290007A1E35B992FBF6F62670D2B2FFF79AFFA6
:1012A00003E02670D2B2FFF75EFF0120F8BD000018
:1012B0002DE9F0419EB005AD0C4607460021904651
:1012C00028466422039307F055F921462C4803F081
:1012D00090FD642003F0A0FF0024294803F05CFC8B
:1012E0000028E6B207DD642C46D0254803F000FC58
:1012F00028550134F1E726B92249234803F094FD2B
:101300003AE09DF814300D2B36D19DF815300A2B9C
:1013100032D11EAB334413F8653C0A2B2CD1023E6C
:101320001EAB334413F8643C0D2B25D10021CCB205
:10133000A31CDBB2B34201F1010107DA1EAA134478
:1013400013F8643C144404F8643CF0E7384629463A
:101350004246FFF7DFFE0A280CD103AB0093384664
:10136000294622464346FFF76DFF00280CBF0320A5
:10137000022002E0012000E003201EB0BDE8F08161
:10138000C0140020B4D30008A81400202DE9F041B7
:10139000B2B006460D4690460021642268461F46BC
:1013A00007F0E8F819A80021642207F0E3F8002408
:1013B000E3B2E85C013420B132AA134403F8640CB0
:1013C000F6E70146CAB25D1818F80240EDB232AA3B
:1013D00001312A4414B102F8644CF3E70D2302F8FA
:1013E000643C6B1C32A8DBB203442F480A2203F88A
:1013F000642C036819A95B6898472C48AA1C0368E9
:1014000019A99B68D2B29847642003F005FF2748CA
:1014100003F0C2FB0028E5B208DD642C40D023486D
:1014200003F066FB0DF804000134F0E7002D37D01F
:101430009DF800300D2B33D19DF801300A2B2FD1B0
:1014400032AB2B4413F8C93C0A2B29D1023D32ABF5
:101450002B4413F8C83C0D2B22D100218B1CDBB28E
:10146000AB4201F1010209DA32A8034413F8C83C87
:10147000C9B2014401F8C83C1146EFE7304669465D
:101480003A46FFF747FE0A2806D1304669463A46F3
:10149000FFF75CFE10B904E0012002E0002000E04C
:1014A000032032B0BDE8F081A8140020C014002051
:1014B00073B51D4623480C46164600218DF80710CB
:1014C000FFF7D2FD1F4829462EB122460DF1070332
:1014D000FFF7EEFE03E0069A2346FFF757FF0328C7
:1014E00028D8DFE800F004090227002309E01649A4
:1014F000164803F099FC17E01549144803F094FCD2
:1015000018E09DF807205D1CDBB29A420F4809D90C
:10151000E15C102203F015FD0C480E4903F069FC54
:101520002B46EEE703F06AFC06480121FFF79CFD1D
:10153000012004E003480121FFF796FD002002B0DE
:1015400070BD00BF31140020C8D30008A8140020CB
:10155000D4D300086EDA000830B5002487B0012229
:101560001B4B009402A90546FFF7A2FF2346224623
:1015700006AC13F0010F03A9144404D114F8100CA5
:101580000009C85406E014F8100C013200F00F00F6
:10159000C854D2B20133082BEAD10023CA5C092A0D
:1015A00001D8303204E0A2F10A00052801D8373210
:1015B000CA540133082BF1D100220091284602A918
:1015C000044B8DF81420FFF773FF07B030BD00BF48
:1015D000E5D30008F0D300082DE9F0438BB054495F
:1015E000044606AF534803F01FFC384600210F2283
:1015F00006F0C0FF00252046FFF7AEFF4E4B8DF8EA
:101600001800009303A900224C4B2046FFF750FF1F
:101610004B4B8DF81900009303A90022494B20463B
:10162000FFF746FF484E8DF81A0003A90022474BEA
:1016300000962046FFF73CFFDFF844818DF81B0041
:1016400003A90022424BCDF800802046FFF730FF6F
:10165000DFF830918DF81C0003A900223D4BCDF836
:1016600000902046FFF724FF03A98DF81D000022FB
:10167000394BCDF800902046FFF71AFF03A98DF8EB
:101680001E000022354BCDF800802046FFF710FFEA
:10169000334B8DF81F00009303A90022314B2046E5
:1016A000FFF706FF304B8DF82000009303A90022BE
:1016B0002E4B2046FFF7FCFE2D4B8DF821000096A7
:1016C000204603A90022FFF7F3FE00238DF8220035
:1016D000FE5C86B92749174803F0A6FB2046FFF7B2
:1016E00001FD2046FFF7DEFC01354FF4FA60EDB254
:1016F00003F092FD03E001330B2BE9D101262046D4
:10170000FFF7F0FC86B9092D7FF675AF1A48314610
:101710001E22FFF7FBFB1949064803F085FB40F644
:10172000B83003F079FDF6E70BB0BDE8F08300BFF9
:10173000F9D30008A814002022D4000818D4000807
:1017400035D400082BD4000846D400083ED4000845
:1017500049D4000854D400085FD4000867D40008B6
:1017600076D400086FD4000881D4000879D400082A
:1017700084D400088CD4000830140020B8D40008A9
:1017800051D400085CD4000810B50021044615208F
:1017900003F008FE1520012103F0E0FC0448054990
:1017A00003F042FB2046BDE81040FEF797BF00BFA4
:1017B000A8140020FFD4000808B5052003F02CFD74
:1017C000BDE808401520012103F0C8BC08B515206C
:1017D000002103F0C3FCBDE80840052003F01CBD58
:1017E0007FB504460E46FFF7F1FF0D257319294614
:1017F000204613F80D2C0135FEF7A0FF162DF5D16C
:101800003046092102F003F80646294620463246B2
:10181000FEF794FF0D2529462046FEF761FF01AB38
:101820002B440135162D03F80D0CF4D101A8092124
:1018300001F0EDFFB042204603D0FFF7BDFF0020CE
:1018400007E00B215522FEF779FF2046FFF7B4FF92
:10185000012004B070BD7FB504460E46FFF7B6FF09
:10186000172573192946204613F8172C0135FEF762
:1018700065FF202DF5D13046092101F0C8FF06464D
:10188000294620463246FEF759FF172529462046AD
:10189000FEF726FF01AB2B440135202D03F8170C72
:1018A000F4D101A8092101F0B2FFB042204603D0D3
:1018B000FFF782FF002007E00C215522FEF73EFFD4
:1018C0002046FFF779FF012004B070BDF0B585B068
:1018D00001AD06460F4628460021092206F04AFEC1
:1018E0000D2421463046FEF7FBFE2B190134162C41
:1018F00003F80D0CF5D121463046FEF7F1FE092123
:101900000446284601F083FF844206D10023EA5CA6
:10191000FA540133092BFAD101E0002000E0012044
:1019200005B0F0BDF0B585B001AD06460F462846BE
:101930000021092206F01EFE172421463046FEF73C
:10194000CFFE2B190134202C03F8170CF5D12146BA
:101950003046FEF7C5FE09210446284601F057FF30
:10196000844206D10023EA5CFA540133092BFAD1F0
:1019700001E0002000E0012005B0F0BD37B50C46C5
:101980001E210546FEF7ACFE1F218DF804002846F7
:10199000FEF7A6FE02218DF8050001A801F037FF31
:1019A000207003B030BD10B50446FFF70FFF0022D2
:1019B00020460B21FEF7C2FE2046FFF7FDFE204623
:1019C0000B21FEF78DFED0F1010038BF002010BDC5
:1019D00010B50446FFF7FAFE002220460C21FEF760
:1019E000ADFE2046FFF7E8FE20460C21FEF778FE0C
:1019F000D0F1010038BF002010BD10B50446FFF73C
:101A0000E5FE552220462121FEF798FE2046FFF7ED
:101A1000D3FE20462121FEF763FEB0F15503584264
:101A2000584110BD38B50446102003F081FBE0B9E1
:101A300041F2883003F0F0FB102003F079FB0546FB
:101A400098B92046FFF7C2FE2A4620462121FEF71C
:101A500075FE2046FFF7B0FE20462121FEF740FE2E
:101A6000D0F1010038BF002038BD38BD08B52121B4
:101A7000FEF736FEB0F155035842584108BD00004C
:101A800038B504460D46FFF721FF20B12046294610
:101A9000FFF748FF40BB20462946FFF717FF48B134
:101AA0001449154803F0C0F920462946BDE83840DE
:101AB000FFF7D1BE20462946FFF734FF48B10F4952
:101AC0000D4803F0B1F920462946BDE83840FFF73C
:101AD00087BE0B49084803F0A7F92046FFF763FFCC
:101AE0002046FFF775FF03E00348064903F09CF921
:101AF000012038BD1ED50008A814002055D50008C7
:101B00008CD50008A0D5000810B50446FFF75EFE8E
:101B1000204635215522FEF711FE2046BDE8104033
:101B2000FFF74ABE08B53521FEF7DAFDB0F15503DF
:101B30005842584108BD10B50446FFF747FE2046FD
:101B400035210022FEF7FAFD2046BDE81040FFF7E0
:101B500033BEF8B504460E46FFF738FE2625731946
:101B60002946204613F8262C0135FEF7E7FD2B2DDC
:101B7000F5D10521304601F04AFE074629462046A8
:101B80003A46FEF7DBFD262520462946FEF7A8FD4E
:101B9000731913F8263C834214D101352B2DF3D150
:101BA00020462946FEF79CFDB842204608D12C214C
:101BB0005522FEF7C3FD2046FFF7FEFD0120F8BDCC
:101BC000FFF7FAFD0020F8BD70B506460D46262445
:101BD00021463046FEF784FD2B1901342B2C03F8E7
:101BE000260CF5D170BD38B50446FFF7EFFD26256C
:101BF000002220462946FEF7A1FD20462946FEF791
:101C00006FFD024620B12046FFF7D6FD002038BD0B
:101C100001352B2DECD120462C21FEF78FFD2046DF
:101C2000FFF7CAFD012038BD37B502AD04468DF877
:101C30000710FFF7CBFD15F8012D20462D21FEF7EB
:101C40007DFD0121284601F0E2FD2E2102462046BD
:101C5000FEF774FD20462D21FEF742FD9DF807306A
:101C60008342204608D12F215522FEF767FD2046EA
:101C7000FFF7A2FD012002E0FFF79EFD002003B068
:101C800030BD2D21FEF72CBD10B50446FFF79EFD9B
:101C900020462D210022FEF751FD2046FFF78CFD46
:101CA00010BD00004A1F4AF6BB039A4270B50446B5
:101CB0000D4628D83221FEF713FD33210646204673
:101CC000FEF70EFD40EA0620A84204D10F49104855
:101CD00003F0AAF815E02046FFF778FD20463221F0
:101CE000C5F30722FEF72AFD20463321EAB2FEF7AC
:101CF00025FD204634215522FEF720FD2046FFF722
:101D00005BFD012070BD002070BD00BFD0D5000874
:101D1000A814002038B532210546FEF7E1FC332136
:101D200004462846FEF7DCFC40EA042038BD08B52E
:101D30003421FEF7D5FCB0F155035842584108BD97
:101D400008B51620002103F02DFB1720002103F019
:101D500029FB1620012103F001FABDE808401720F5
:101D6000012103F0FBB91720002103F01BBB172052
:101D7000042103F017BB08B5FFF7F5FF1720012179
:101D800003F0ECF90121162003F0E8F9052003F037
:101D900051FA0021172003F0E1F9062003F04AFA76
:101DA000BDE808401620002103F0D8B908B5FFF7B8
:101DB000DAFF1620002103F0D1F91720002103F0EB
:101DC000CDF90121162003F0C9F9062003F032FAFB
:101DD0001720012103F0C2F9BDE80840062003F0F6
:101DE00029BA10B500210446162003F0B7F92046A1
:101DF000FFF7B9FF0021172003F0B0F9022003F02C
:101E000019FA0121162003F0A9F9052003F012FAAE
:101E1000BDE810401620002103F0A0B910B5002144
:101E20000446162003F09AF92046FFF79CFF012193
:101E3000172003F093F9022003F0FCF9012116208A
:101E400003F08CF9052003F0F5F9BDE810401620E9
:101E5000002103F083B970B50646FFF788FF012122
:101E6000172003F07BF9012003F0E4F9162001218B
:101E700003F074F9012003F0DDF9FB25172003F0CE
:101E800057F9044640B1013D15F0FF05F6D1304643
:101E9000FFF78CFF012070BD1620214603F05EF98C
:101EA000204670BD38B50C46FFF75DFF16200021B7
:101EB00003F054F9082524F07F0303F0FF011720F5
:101EC00003B1012103F04AF90121162003F046F97C
:101ED000022003F0AFF91620002103F03FF9013D85
:101EE0000220640003F0A6F915F0FF05E4B2E2D188
:101EF00038BDF8B505460F46FFF739FF0826002420
:101F00000021162003F02AF9022003F093F916208D
:101F1000012103F023F964001720E4B203F008F96B
:101F200008B10134E4B20120013E03F083F916F058
:101F3000FF06E5D1284617B9FFF770FF01E0FFF76C
:101F400050FF2046F8BD08B5032001F085FDBDE82F
:101F5000084002F001B9000070B55E480D460978EE
:101F600000F08FFD697806465A4800F08AFD06EBBE
:101F70008606594C06EB860600EB8600E080A978C1
:101F8000544800F07EFD6071E978524800F079FD18
:101F9000207129794F4800F074FD6979A0704D488F
:101FA00000F06FFDA97960704A4800F06AFD4B4966
:101FB00020704B4802F01DFFE1880A22484802F0D9
:101FC000A8FF4849464802F014FF61790A224448B4
:101FD00002F0C0FF4449424802F00BFF21790A2277
:101FE0003F4802F0B7FF41493D4802F002FFA178A7
:101FF0000A223B4802F0AEFF3D49394802F0F9FEA3
:1020000061780A22364802F0A5FF3A49344802F0C6
:10201000F0FE0A222178324802F09CFF02F010F80C
:10202000642003F0F9F82046FEF7FAFA0146324838
:1020300001F030FC642003F0EFF802F007F82E48BE
:1020400001F02BFC01462046FEF75EFAE18864238E
:10205000B1FBF3F1C9B21F4800F000FD2870E2881F
:102060004FF47A73B2FBF3F103FB11211948C9B2A3
:1020700000F0F4FC68706179164800F0EFFCA8707D
:102080002179144800F0EAFCA178E870114800F0CA
:10209000E5FC617828710F4800F0E0FC2178687158
:1020A0000C4800F0DBFC0024A871295D10220C48CC
:1020B00002F047FF01340A48104902F09AFE072C4B
:1020C000F3D1074802F09AFEBDE8704004480C497D
:1020D00002F0AABE8914002038140020EFD50008B1
:1020E000A8140020F6D50008FED5000804D6000884
:1020F0000BD6000815D60008421400206EDA00083E
:102100001FD6000870B51C480D4601F0C6FB1B4CDD
:1021100001462046FEF7F8F9E188194E6423B1FB29
:10212000F3F1C9B2304600F099FC2870E2884FF410
:102130007A73B2FBF3F103FB11213046C9B200F010
:102140008DFC68706179304600F088FCA8702179B8
:10215000304600F083FCA178E870304600F07EFC49
:1021600061782871304600F079FC2178687130463A
:1021700000F074FCA87170BD4214002038140020D7
:102180008914002070B54C4886B0FEF749FA044621
:1021900001F056FF0A2003F03FF82146474801F0BE
:1021A00079FB464801F079FB05464548FFF7BFFD3E
:1021B000444E002859D04248FFF7ACFD4AF6B1031F
:1021C000A0F10F029A42044619D93F49684603F02C
:1021D0007AF8694603A803F097F8B42103A803F03E
:1021E000D7F83A4903F0C2F80146394802F012FE26
:1021F00003A803F026F8684603F023F8B4243378E4
:10220000012B0BD1B4F5966F03D9254468463149AB
:1022100015E005F5966503A82F4938E0022B0BD190
:10222000B4F5166F03D9254468462C4907E005F537
:10223000166503A82A492AE02A492544684603F07E
:1022400042F8694603A803F05FF8214603A803F0AB
:102250009FF81E4903F08AF801461D4802F0DAFD96
:1022600003A802F0EEFF684618E03378012B04D192
:1022700005F5966503A81C4909E0022B04D105F574
:10228000166503A8194902E01949B43503A803F0FB
:102290001AF80F4803A902F0BDFD03A802F0D1FF10
:1022A00014492A46054801F0FAFA0A2002F0B4FF60
:1022B00001F0CCFE06B070BD38140020421400209E
:1022C000331400204014002042D6000848D70008EC
:1022D000A8140020B6D60008FFD600084AD7000888
:1022E0009CD70008F0D700083CD80008B1D80008F7
:1022F0002FD90008471F000830B5154885B0FEF7F4
:102300008FF9144C054601F09BFE0A2002F084FF71
:102310002946204601F0BEFA204601F0BEFA0E49D9
:10232000054601A802F0CFFF01A90C4802F072FD9A
:1023300001A802F086FF0A4905F56162204601F016
:10234000AEFA0A2002F068FF01F080FE05B030BD51
:102350003814002042140020A6D90008A814002038
:10236000471F00080148112101F08BBA42140020D8
:1023700070470120704701207047000010B5FF230F
:1023800001441A46884208D010F8014B5440044AD0
:10239000125D5A40034B1B5DF4E743EA022010BD77
:1023A000090000200B01002070B5094D094C0646BC
:1023B00022782978084801F017F92878012102F0DD
:1023C000CDFE2078012102F0C9FE304670BD00BF6D
:1023D000090100200A0100207814002010B5064CE5
:1023E000204601F094F9204601F09DF9D0F101005A
:1023F00038BF002010BD00BF7814002010B54A215E
:1024000004460548FFF7EAFF28B1236820461B6809
:1024100001219847012010BD8814002070B5094C97
:10242000154620461E4601F072F92946204601F065
:102430007FF92046314601F07BF92046BDE8704027
:1024400001F071B978140020F8B5134814461E46FF
:102450000F469DF8185001F05AF921460E4801F038
:1024600067F90D4801F05FF90B4CA5B12A462046EB
:10247000394601F061F90022237A551C33B1064830
:10248000D7B201F067F92A46F055F5E70248BDE8F2
:10249000F84001F048B9F8BD78140020F0B51C46AA
:1024A00085B0012300930DF10F03154607460E4634
:1024B000FFF7CAFF9DF80F309DF8282023EA040398
:1024C00014402343384631462A468DF80F30FFF733
:1024D000A5FF05B0F0BD000013B5002471B10122C5
:1024E00013460B484A210094FFF7D8FF4A21009475
:1024F000074802224023FFF7D1FF802100910448C2
:102500004A2102228023FFF7C9FF02B010BD00BF9D
:102510008814002008B51E220F481F2101F064F81E
:1025200038210D4801F0F3F806210B4801F000F9BD
:10253000094801F0F8F84FF4FA7002F06DFE074810
:10254000FFF75CFF10B10648064901E00448064960
:10255000BDE8084002F068BC981400204414002034
:10256000A814002038DA000851DA00080000000042
:10257000F0B5334C85B00D461646FFF7CBFF392139
:102580000122204601F0D8F8012002F045FE277A0A
:102590001FB1204601F0DEF8074638210122284805
:1025A00001F0CAF8012002F037FE207A10B1244869
:1025B00001F0D0F840EA072004F05AFA1EA3D3E94C
:1025C000002304F0CBFA04F08BFD1E4930601E4856
:1025D00002F00FFC31680A221B4802F0CEFC0223F5
:1025E00000931A4803AB4A210322FFF72DFF9DF801
:1025F0000D209DF80C3002F00F0242EA03122D214B
:10260000D2B24A431B0902FA03F34FF47A72B3FBC6
:10261000F2F32B600E490C4802F0EBFB29680A220A
:10262000094802F0B4FC0B49074802F0FDFB05B075
:10263000F0BD00BFAFF300800AD7A3703D0A773F1B
:10264000981400206ADA0008A814002088140020DA
:1026500070DA000887DA000808B50348FFF7A4FE1F
:10266000024A034B1A6008BD8814002008DA0008EB
:10267000441400202DE9F0411E463D4B86B01868F9
:102680008846596801AC03C4174600210A2203A8F2
:1026900005F070FF9DF8303006AC04F8143D20467C
:1026A0000621FFF76BFE030A8DF80B0031488DF809
:1026B0000A30036821469B6808229847642002F08C
:1026C000ABFD00242B4802F067FA002804F1010555
:1026D00009DD284802F00CFAE4B206AB1C4404F809
:1026E0000C0C2C46EEE79DF80C509DF814405DB99B
:1026F0000DF10D000721FFF741FE9DF8153043EA6B
:10270000042484420BD10EE003A80721FFF736FE14
:102710009DF8133044EA032484420FD000254FF67D
:10272000FF7415481CE09DF811309DF810009DF8CD
:10273000124043EA00209DF8133009E09DF8103064
:102740009DF80F009DF8114043EA00209DF81230DB
:1027500043EA042404F0EAFD084904F0F3FEE50B23
:10276000C8F800003C60357006B0BDE8F08100BFDD
:1027700020DA0008D814002000FF7F470000C8427C
:1027800070B5274C86B020680E46616801AB03C364
:1027900006AC15460021092203A805F0EBFE04F85B
:1027A000145D20460621FFF7E9FD030A8DF80B00B2
:1027B0001C488DF80A30036821469B680822984718
:1027C000642002F029FD0024164802F0E5F90028F3
:1027D0000DDD144802F08CF9651CEDB206AB1C440B
:1027E000082D04F80C0C34BF2C460024ECE703A899
:1027F0000521FFF7C3FD9DF811209DF8123043EA33
:102800000223834205BF9DF80F209DF810304FF63C
:10281000FF7343EA02230A225343336006B070BDBC
:1028200028DA0008D8140020F0B516462A4A87B0E6
:1028300010680F46516801AC1D4603C4092206AC5E
:10284000002103A805F096FE04F8145D2046062139
:10285000FFF794FD030A8DF80B0020488DF80A302D
:10286000036821469B6808229847642002F0D4FC44
:1028700000241A4802F090F900280DDD174802F0F4
:1028800037F9651CEDB206AB1C44092D04F80C0C9D
:1028900034BF2C460024ECE703A80721FFF76EFDA8
:1028A0009DF813209DF8143043EA022383420CD193
:1028B0009DF812309DF811009DF80F2043EA00208A
:1028C0009DF8103043EA022302E04FF6FF731846EA
:1028D0003860336007B0F0BD30DA0008D81400204B
:1028E00073B50121514D142002F038FC642002F030
:1028F00093FC284600F0E4FD4D4C01262060642046
:1029000002F08AFC284600F0EDFD4A4DA0606420EC
:1029100002F082FC04F1140304F1180104F1100226
:1029200000962846FFF7A6FE642002F075FC04F12D
:10293000280128460222FFF723FF642002F06CFCE6
:10294000334604F11C0104F120022846FFF76CFF16
:10295000642002F061FC04F1240204F10C01284619
:10296000FFF706FE344D642002F056FC14200021CF
:1029700002F0F4FB2846314902F03BFA206804F0EB
:1029800099F8022602460B460096284602F0B4FB50
:1029900028462B4902F02DFAA06804F08BF8009627
:1029A00002460B46284602F0A7FB2846254902F0BE
:1029B00020FA23696421B3FBF1F10A22284602F0D0
:1029C000DCFA2149284602F014FAA06A04F0AEFCB1
:1029D0001E4904F0B7FD04F06DF8009602460B4660
:1029E000284602F089FB2846194902F002FAA0693C
:1029F00004F060F800960B460246284602F07CFB85
:102A00002846144902F0F5F9E1690A22284602F045
:102A1000B4FA2846104902F0ECF9216A28460A2245
:102A200002B0BDE8704002F0A8BA00BF8C140020CC
:102A30004C14002048140020A814002092DA00084A
:102A4000B1DA00088CDA0008A0DA00080000C842F9
:102A5000ABDA0008BCDA0008C9DA00080A22B1FBC8
:102A6000F2F302FB131202EB0310C0B270470878B6
:102A70000A22B0FBF2F302FB130202EB03130B700A
:102A8000704701F00F03090901EB810103EB4100DD
:102A9000C0B2704737B50C460C480DF10701FEF780
:102AA0006DFF9DF807304FF47A705843084902F0E3
:102AB00076FB9DF80730054664205843054902F02F
:102AC0006EFB2844206003B030BD00BF36140020E8
:102AD00080841E00400D030070B50E46154600248C
:102AE000E3B2AB42074809D2315D102202F029FA65
:102AF0000448054902F07DF90134F1E7BDE8704072
:102B000002F07CB9A81400206EDA000830B595B048
:102B100040220546002104A805F02CFD002414A93C
:102B200041F8504D28466946FFF7B4FF009802F07F
:102B300081FBFE238DF81030E0238DF81130112336
:102B40008DF8123024238DF8133001238DF81530C1
:102B50003C4B8DF814401B7803B155233A488DF84F
:102B60001630FFF78EF801AC8DF817002146364875
:102B7000FFF72AF8002304AA1A44E15C0133052B6D
:102B80001172F8D131482146FEF7A0FE002304AAB5
:102B90001A44E15C0133092B5173F8D1002401235D
:102BA00005A824218DF826308DF827408DF828407F
:102BB0008DF829408DF82A408DF82B408DF82C4057
:102BC0008DF82D408DF82E408DF82F408DF8304037
:102BD0008DF831408DF832408DF833408DF8344017
:102BE0008DF835408DF836408DF8374000F00FFEF7
:102BF0008DF83800E30704AB234404F1010454BF0B
:102C00000D220A22062C83F82920F3D110491148FD
:102C100002F00AF904A928462F22FFF75DFF0E48AB
:102C2000FEF79EF90D4804A903682F229B68984778
:102C30004FF4FA7002F0F0FA0748FEF7A1F915B068
:102C400030BD00BF201400203414002036140020B2
:102C5000D6DA0008A814002030140020C014002088
:102C600030B587B014220446002101A805F082FC8B
:102C7000002506A941F8185D20466946FFF70AFFBE
:102C8000009802F0D7FAFE238DF80430E0238DF887
:102C9000053013238DF8063005238DF80730012306
:102CA0008DF809301E4B8DF808501B7803B1552361
:102CB0001C488DF80A30FEF7E4FF01238DF80B0065
:102CC000052102A88DF80C3000F0A1FD00238DF83D
:102CD0000D00DA0701AA1A4403F1010354BF0D21C4
:102CE0000A21062B9172F4D10F49104802F09CF88A
:102CF00001A920461022FFF7EFFE0D48FEF730F93C
:102D00000C4801A9036810229B6898474FF4FA7099
:102D100002F082FA0648FEF733F907B030BD00BF73
:102D20002014002034140020F2DA0008A814002037
:102D300030140020C014002030B58DB01E2205468E
:102D4000002104A805F016FC00240CA941F8244D2C
:102D50002846ADF80840FFF79DFE039802F06AFA96
:102D6000344B0094344802A90122FEF7A1FBFE2354
:102D70008DF81030E0238DF8113014238DF81230C7
:102D800012238DF8133001238DF815302B4B8DF85D
:102D900014401B7803B1552329488DF81630FEF7EF
:102DA00070FF01238DF81830264B00241B788DF816
:102DB00017009DF8081024488DF819308DF81A4036
:102DC0008DF81B40FFF75DFE9DF809108DF81C0083
:102DD0001D48FFF756FE12218DF81D0005A800F0D2
:102DE00016FD23468DF81E00DA0704AA1A4403F1E3
:102DF000010354BF0D210A21062BD173F4D11349CD
:102E0000134802F011F804A928461522FFF764FEC2
:102E10001048FEF7A5F8104804A9036815229B681E
:102E200098474FF4FA7002F0F7F90A48FEF7A8F84D
:102E30000DB030BD18DB0008311400202014002034
:102E4000341400208B1400208914002022DB000899
:102E5000A814002030140020C0140020F0B589B060
:102E600005460F4616460021192201A805F082FBEF
:102E7000002408A941F8204D28466946FFF70AFEBC
:102E8000009802F0D7F9FE238DF80430E0238DF886
:102E9000053015238DF806300E238DF807300123F9
:102EA0008DF809302A4B8DF808401B7803B1552363
:102EB00028488DF80A30FEF7E4FE00248DF80B0058
:102EC000012302A80E218DF80C308DF80D708DF8BD
:102ED0000E408DF80F408DF810408DF811408DF8A0
:102EE00012408DF813408DF814408DF8154000F015
:102EF0008EFC8DF81600E30701AB234404F10104B6
:102F000054BF0D220A22062CDA74F4D11249134858
:102F100001F08AFF284601A91922FFF7DDFD1048BC
:102F2000FEF71EF80024E3B2B3420BD20D4801A90C
:102F3000036819229B6898474FF4FA7002F06CF905
:102F40000134F0E70648FEF71BF809B0F0BD00BFFA
:102F500020140020341400203CDB0008A8140020BA
:102F600030140020C0140020F0B50024ABB021467E
:102F70000646142205A8019405F0FCFA8022214699
:102F80000AA805F0F7FA2AA941F8A04D3046FFF744
:102F900081FD029802F04EF9A448FFF7A1FCFE2340
:102FA0008DF82830D0238DF8293001253023A04812
:102FB0008DF82B308DF82C408DF82A508DF82D503F
:102FC000FDF7E6FF9B4C030A27688DF82F009A490E
:102FD00038468DF82E3004F0BDFB28B1FF238DF864
:102FE00030308DF831301AE03846002104F094FB7F
:102FF00018B107F10047276000E00546022301A849
:1030000021680422FDF7FAFB9DF804308DF830307A
:103010009DF805308DF831300DB1F22300E0E22348
:10302000A5688DF8323028460023019304F09CFBFC
:103030000138632803D9FF238DF833300BE00223D6
:1030400001A829460422FDF7D9FB9DF804308DF82C
:1030500033309DF805308DF834300021E2231422FE
:1030600005A88DF83530019105F084FAE268734BBC
:103070009A4207D9FF238DF836308DF837308DF816
:10308000383019E06E4905A805F0DCFC05A805F00C
:103090005DFD05A9024601A8FDF778FB9DF8043007
:1030A0008DF836309DF805308DF837309DF80630B4
:1030B0008DF838309DF807308DF83930E0238DF8E1
:1030C0003A30A36A0A200025B3FBF0F0019504F022
:1030D0002DF92B460146042201A8FDF78FFB9DF830
:1030E0000430606A8DF83D309DF8053064288DF815
:1030F0003E304FF0E1038DF83B508DF83C508DF899
:103100003F30019503D9FF238DF840300DE004F0E6
:103110000DF92B460146042201A8FDF76FFB9DF82F
:1031200004308DF840309DF80530E02220698DF89C
:1031300042208DF845208DF848204FF6FE728DF81C
:10314000413090424FF0FF038DF843308DF844300A
:103150008DF846308DF8473002D98DF8493016E0A9
:10316000344B1B7D012B08BFC0F5803004F0DEF826
:10317000344904F0E7F902230146042201A8FDF7CF
:103180003DFB9DF804308DF849309DF805308DF8F1
:103190004A30237DA569012B0CBFF223E2238DF871
:1031A0004B3028460023019304F0DEFA642803DD47
:1031B000FF238DF84C300BE0022301A8294604229E
:1031C000FDF71CFB9DF804308DF84C309DF8053060
:1031D0008DF84D30206AE2238DF84E304FF6FE73A5
:1031E00000259842019503D9FF238DF84F300DE05B
:1031F00004F09CF82B460146042201A8FDF7FEFAD4
:103200009DF804308DF84F309DF805308DF8503022
:10321000E069E0238DF851304FF6FE7300259842A7
:10322000019511D9FF238DF852301BE0481400207E
:10323000301400204C14002000001643400D030001
:1032400054DB00080000C84204F070F82B46014629
:10325000042201A8FDF7D2FA9DF804308DF852300F
:103260009DF8053003AC8DF853301F48E02321460C
:103270008DF85430FEF746FF00230AAA1A44E15C99
:103280000133072B82F82D10F7D10BA8302100F065
:10329000BEFA00238DF85C00DA070AAA1A4403F18B
:1032A000010354BF0D210A21062B82F83510F3D1FA
:1032B0000E490F4801F0B8FD0AA930463B22FFF73E
:1032C0000BFC0C48FDF74CFE0B480AA903683B2297
:1032D0009B6898474FF4FA7001F09EFF0548FDF790
:1032E0004FFE2BB0F0BD00BF411400205ADB000898
:1032F000A814002030140020C01400202DE9F84349
:1033000000240F469046994625464C4513DA5FFA4D
:1033100088F60121304601F021FF0A2001F07CFFF0
:10332000F8B201F005FF002100EB4505304601F041
:1033300015FF0134E9E72846BDE8F88370B5D4B23B
:103340001D46EDB20E462046002102F02BF828461D
:10335000002102F027F82046012101F0FFFE284657
:10336000012101F0FBFE2046002101F0F7FE284676
:10337000002101F0F3FE2846012101F0EFFE204676
:10338000012101F0EBFE2846002101F0E7FEF3B237
:1033900001222046294601F00DFF2846012101F0B7
:1033A000DDFE2046022101F0FDFF204601F0C0FEB7
:1033B0002846002101F0D2FE2046BDE8704001F011
:1033C000B7BE38B5CDB22846022101F0EBFF642428
:1033D0000A2001F021FF284601F0AAFE08B1013CB5
:1033E000F6D138BD2DE9F843CCB2154680460E46DD
:1033F000EFB22046022101F0D5FF3846002101F04E
:10340000D1FF2A46082331464046FFF777FF0021C7
:103410004FEA0029204601F0C5FF2046012101F0B6
:103420009DFE2046002101F099FE3846012101F061
:1034300095FE3846002101F091FE2046022101F060
:10344000B1FF404631462A460823FFF757FF49EAB5
:103450000000BDE8F88338B51446CDB2E4B2284682
:10346000002101F09FFF2046002101F09BFF28462C
:10347000012101F073FE2046012101F06FFE20467C
:103480000021BDE8384001F069BE38B590E80C0075
:1034900004460321FFF752FF20462168FFF791FF02
:1034A00094E806002046FFF79DFF94E806000546D5
:1034B0002046FFF7D0FF284603F03CFF38BD000050
:1034C00008B5FFF7E2FF04F04FF903F033FF0349BB
:1034D00003F084FF024903F077FE08BD0AD7233CBE
:1034E00000002042F8B590E80C0004460521FFF7E3
:1034F00025FF20462168FFF764FF94E80600204678
:10350000FFF770FF94E8060005462046FFF7A3FF8B
:10351000284603F00FFF1E49064603F05FFF4FF0F9
:10352000814103F051FE1B490546304603F056FF2A
:10353000314603F053FF0146284603F047FE074695
:103540002046FFF7BDFF03F0B5FA0022124B03F04F
:1035500051F904460D463046104903F03FFF10492B
:1035600003F034FE03F0A6FA02460B462046294635
:1035700003F0F4FA044638460D4603F09BFA02467F
:103580000B462046294603F037F903F0C9FDF8BD84
:1035900054E3253DA2E73BB600003940ACC5A7384F
:1035A0000AD7233C024B1D211C2283E806007047EA
:1035B0008C1400200A4B1A680A4B9B6800BF00BF9E
:1035C000074909688A42F5D1C3F58C33482103F5D0
:1035D000A073B3FBF1F34FF47A7000FB0230704735
:1035E0008C15002010E000E010B5044680E80600CD
:1035F000D0B2002101F0D6FE2078002101F0D2FEE9
:1036000000232079E360012101F0A8FD2078012149
:10361000BDE8104001F0A2BD38B5C36804460D46B0
:1036200023B10021C160007801F0BCFE207829465A
:10363000BDE8384001F092BD10B500210446FFF707
:10364000EBFF642001F0F6FD2079002101F086FDFA
:10365000BDE81040642001F0EDBD10B50021044626
:10366000007901F07BFD642001F0E4FD204600219B
:10367000FFF7D2FF642001F0DDFD2079012101F088
:103680006DFD642001F0D6FD20460121FFF7C4FF47
:10369000BDE81040642001F0CDBDF8B504460E46EB
:1036A0000825F7092079002101F058FD2046394608
:1036B000FFF7B2FF0121207901F050FD642001F0F5
:1036C000B9FD20463946FFF7A7FF7600013DF6B267
:1036D000E7D12946207901F041FD2078022101F04F
:1036E00061FE0223E3602079012101F037FDFFF73D
:1036F00061FF0546207801F01BFD30B1FFF75AFF4E
:10370000401B6428F6D90020F8BD0120F8BD38B56B
:103710000D460446FFF790FF6900204601F0FE01C8
:10372000FFF7BBFF38BD08B5FFF797FF002008BDC6
:1037300008B5FFF7B2FF08BD70B50D466D00044631
:103740001646FFF779FF691CA6602046C9B2FFF74D
:10375000A4FF70BD70B586680446002E55D0007871
:10376000022101F01FFE0223E360082500262079D4
:10377000002101F0F3FC0121207901F0EFFC64202D
:1037800001F058FD207801F0D3FC013D00EB46002C
:1037900000F0FF06EBD1A3686068013B002BA3603B
:1037A000C0B2294617DD01F0D9FC642001F042FDCA
:1037B00029462046FFF730FF642001F03BFD2079C9
:1037C000012101F0CBFC642001F034FD2079294671
:1037D00001F0C4FC19E001F0C1FC642001F02AFDF5
:1037E00001212046FFF718FF642001F023FD01218D
:1037F000207901F0B3FC642001F01CFD20792946FA
:1038000001F0ACFC2046FFF728FF304670BD0023D6
:1038100030B5054618468B420FDAEA5C5040082264
:1038200010F0010F4FEA60041ABF84F0E000C0B24C
:10383000E0B2013AF4D10133EDE730BD122938B5D9
:103840000546144608460BD0132910D0112916D16D
:1038500000F07CF80CB120460FE047F6FF700CE05A
:1038600000F074F8002CF6D149F63F4005E000F076
:103870006DF8002CEFD14FF2234000F06BF9284691
:1038800038BD13B50022044601A8FFF7D7FF204634
:1038900002B010BD084600F043B900F02FB910B5D2
:1038A00010460C4600F070F921460320BDE8104098
:1038B00000F0A2B8054B1B681B685B0103F1844351
:1038C00094331A68002AFCD0704700BF0C02002015
:1038D000054B1B681B685B0103F184438C331A683A
:1038E000002AFCD0704700BF0C02002008B5FFF78B
:1038F000E1FF054B00221B681B685B0103F1844359
:10390000C3F88C2008BD00BF0C02002008B5FFF7EB
:10391000D1FF054B01221B681B685B0103F1844347
:10392000C3F8902008BD00BF0C02002008B5FFF7C7
:10393000C1FF054B00221B681B685B0103F1844338
:10394000C3F8902008BD00BF0C02002010B504464B
:1039500000F069FB00F074FB204A112C136A23F479
:103960004073136213460BD005D8C4B1102C2AD172
:103970000023136227E0122C11D0132C1AD022E05E
:10398000174A00211160012142F8081C154A1268EB
:1039900012F0FF0FFAD01A6A42F4807212E0124A53
:1039A00001211160114A1268002AFBD01A6A42F400
:1039B000007207E00E4A126812F0FF0FFAD01A6A7E
:1039C00042F440721A620B4B01221A60FFF78EFF1D
:1039D000FFF77EFFBDE81040FFF76CBF001002400C
:1039E00008044242040442428004424284044242A7
:1039F000440042423C04424238B5144D04462B6810
:103A000003EB80035960FFF755FF032C09D1104ADF
:103A100001231360C2F800310E4B4FF400725A605C
:103A200038BD2B6801221B68944204EBC3034FEAA4
:103A3000830303F184431A6003D002D3022C00D025
:103A400038BD044B08221A6038BD00BF0C020020AC
:103A50004480204200E100E010B50446FFF72AFF51
:103A6000032C0B4B05D10B4900220A60C1F8002141
:103A700008E01A680021126804EBC202920002F109
:103A8000844211601B6803EB84040023636010BD53
:103A90000C02002044802042F8B5104B1E683568A7
:103AA0002B686F681F4017F0010403D074680CB1D5
:103AB000A0470124BA0704D5B36813B1984744F06E
:103AC00002047B0704D5F36813B1984744F004045B
:103AD0006B6823EA04046C60F8BD00BF0C02002090
:103AE00008B5044B1B681B691BB19847024B0122A8
:103AF0001A6008BD0C020020C482204208B5FFF7FE
:103B0000F5FEFFF7E5FEFFF7D5FE044B1B681B68CB
:103B10009869DB699BB243EA004008BD0C020020B3
:103B200010B50446FFF7E2FEFFF7D2FEFFF7C2FE34
:103B3000FFF7ECFE064B220C1B68A4B21B689A61CF
:103B4000DC61FFF7F3FEBDE81040FFF7B3BE00BF36
:103B50000C02002010B50446FFF7C8FEFFF7B8FEC0
:103B6000FFF7A8FEFFF7D2FE064B220C1B68A4B29B
:103B70001B689A60DC60FFF7D9FEBDE81040FFF7D4
:103B800099BE00BF0C02002010B50446FFF7AEFE40
:103B9000FFF79EFEFFF78EFEFFF7B8FE064B220CE6
:103BA0001B68A4B21B681A625C62FFF7BFFEBDE827
:103BB0001040FFF77FBE00BF0C02002070470000DE
:103BC0000B4B10B5196809220A230A4800F0F8FFC8
:103BD000094B022219680948032300F0F1FFBDE8F0
:103BE0001040074B074819681A221B2300F0E8BF52
:103BF00030030020A814002034030020C01400204B
:103C000038030020D814002010B5044600F0F0F965
:103C1000034B20461978BDE8104000F075B900BF8D
:103C200028020020F8B50446056800F0CFFB2268A2
:103C30000023510101F184410B60802129600121A1
:103C4000A9622B61EB606379696113B18B4203D088
:103C50002BE04FF400436B644FF6FF73D3620025F3
:103C60006E1CF7B22046394600F0BAFBD0B123688B
:103C700048F6FF7103F1340242F8251018336D1035
:103C800017F0010F53F8252014BF6FF0FF016FF4F8
:103C90007F4101EA020214BF68214FF4D0410A4378
:103CA00043F82520042E3546DAD1216801224B0144
:103CB000490103F1844301F18441C3F880220A6081
:103CC000F8BD000038B5274B274C1A68022042F097
:103CD00010021A6000F0C0F90025002000F082FAFE
:103CE00065602368182023F40023236000F087FA1E
:103CF000102000F084FA00F043F8A560102000F0D6
:103D000071FA102000F098FA0028FAD000F039F883
:103D1000164800F09DFA182000F064FA182000F010
:103D20008BFA0028FAD0022000F04CFA00214FF064
:103D3000006000F0F9F90E4800F000FB00F038F8E0
:103D40000C4B188800F042F90B4800F043F90B487F
:103D500000F028FB00F02EF800F02DF8FFF72EFF02
:103D600038BD00BF00200240001002402C0200209D
:103D70003F1901002A020020093C0008253C0008E8
:103D8000704708B50020014600F0B0FA01204FF45A
:103D9000806100F0ABFA0021022000F0A7FA2D208C
:103DA00000F0B4FABDE808400320002100F09EBAFC
:103DB00000F05CB9704700F099B9000001498D46E8
:103DC0000149084700500020CD3D000808B5124BBE
:103DD000124A1968914201D0002301E0104B07E01C
:103DE0001048D4188442F9D2C858D0500433F7E7A9
:103DF0000D4A934203D2002243F8042BF8E704F063
:103E000009F800200146024600F0C2FF074B0BB143
:103E100003F0F0FFFEE700BF44E1000800000020CF
:103E2000781300207813002098150020F57D0008F5
:103E300008B50D4B1A680AB90C4A1A601B680C4A7F
:103E4000D21A824204DB09494242591A914206DAE7
:103E500003F0CAFF0C2303604FF0FF3008BD024A95
:103E600018441060184608BDF01400209815002072
:103E7000E01F0128FEE70000000000000000000035
:103E8000012007E0022005E0032003E0042001E018
:103E90000520FFE70D4A0121116072B60C4A00218E
:103EA0001160074902B4084902B486B005498E463C
:103EB000704700BFAFF30080AFF30080AFF3008026
:103EC00000000061F9FFFFFF794A000814ED00E0EF
:103ED00010E000E0AFF30080AFF30080AFF30080AC
:103EE000FEE710B50446007900F0CEF92079BDE870
:103EF000104000F0E1B903689A6822F4602242F4AD
:103F00008012114399607047002370B51A461C4611
:103F1000072B4FEA430503DCEE1801FA06F634439B
:103F20001D4401FA05F501330A2B42EA0502EFD1DF
:103F30000368DC601A6170BD0368DA6A22F0F87207
:103F4000DA6259639A6842F480029A601A689207AA
:103F5000FCD5D86C80B2704738B5124D2A6813680A
:103F60001C68A10706D5196821F002011960936841
:103F700003B19847620708D52B681A681B69116856
:103F800021F00401116003B19847E30708D52B68BD
:103F90001A68DB68116821F00101116003B19847CC
:103FA00038BD00BF58020020036801225B0103F105
:103FB000844303F58673191F1A6018680028FCD122
:103FC00043F8042C0B68002BFCD1704701460420F9
:103FD00000F08CB9044B10B504461868A047034B99
:103FE0001868A04710BD00BF5802002054020020EE
:103FF00010B50446FFF775FF20464FF46021FFF728
:104000007AFF2368012103F1404308335A015B0121
:1040100002F1844203F18443116520461960BDE832
:104020001040FFF7C1BF08B5142000F02DF904209F
:1040300000F02AF9BDE80840042000F03DB9000076
:10404000014B01221A60704720000E42014B0022F2
:104050001A60704720000E42034B1A6822F00702D4
:1040600010431860704700BF0020024008B50748A1
:1040700001F006FA064801F003FA064801F000FADA
:10408000BDE80840044801F0FBB900BF5C02002015
:10409000640200206C0200207402002070B501F060
:1040A0000704A4000F25A5400368C80853F8206042
:1040B000092A26EA050514BF1646082606FA04F45E
:1040C000082A44EA050443F8204006D1012000FAFA
:1040D00001F1DA6822EA010106E0092A05D101208E
:1040E00000FA01F1DA681143D96070BD08B5032008
:1040F00000F0CAF8BDE80840032000F0DDB8000079
:1041000000284FEA011105DA064B00F00F00C9B292
:104110001954704700F16040C9B200F5614080F861
:104120000013704714ED00E021F0604138B521F034
:104130007F01084B0843986000241D4660B20F21A0
:104140000134FFF7DDFF2B2CF8D1F02385F8233065
:1041500038BD00BF00ED00E0044A054BD16801F412
:1041600040710B43D360BFF34F8FFEE700ED00E0DB
:104170000400FA05014B1860704700BFA0000E4212
:10418000074B1A6842F001021A601A6842F00202F4
:104190001A60044B1A6942F004021A6130BF70477A
:1041A0000070004000ED00E0024B1A6842EA800017
:1041B0001860704700700040014B13F81000704702
:1041C0001CDE0008064B5A6822F0030202435A60C4
:1041D00080005A6802F00C028242FAD1704700BF98
:1041E00000100240030A0121C0B201FA00F003F1FD
:1041F000804303F504331A68104318607047030ABC
:104200000121C0B201FA00F003F1804303F5043349
:104210001A6822EA000018607047030A0122C0B23F
:1042200002FA00F003F1804303F504331B681842DF
:104230000CBF002001207047030A0222C0B202FA1C
:1042400000F003F1804303F504331B681840704706
:1042500038B54368044618201D68FFF7DEFF20B11B
:1042600006488121064A00F011FC064B21685A6875
:104270000D4322F4741215435D6038BDACDD0008B7
:1042800000DE00080010024010B50446FFF794FF5E
:10429000074B53F82020074B03EB4404637803EBF0
:1042A000C2039B0003F1844301221A6010BD00BFCA
:1042B0007C0200201CDE000810B50446FFF77CFFDE
:1042C000084B53F82020084B03EB4404637803EBBE
:1042D000C2039B0003F1844301221A6000221A608A
:1042E00010BD00BF880200201CDE000810B5054B81
:1042F000054C5A6854F8200022EA00021143596024
:1043000010BD00BF0010024078DE000810B5044662
:10431000FFF752FF074B53F82020074B03EB4404F1
:10432000637803EBC2039B0003F1844300221A600D
:1043300010BD00BF900200201CDE0008024B0722C7
:1043400058601A60704700BF10E000E008B5044BE9
:104350001A6801321A60034B1B6803B1984708BD05
:104360008C150020F414002011F0010F70B542EA02
:1043700003030CBF0825002503FA05F5006801F1C9
:10438000FF3400F11800C4F3400450F8241014BFA7
:104390006FF0FF066FF47F463140294340F8241048
:1043A00070BD000010B504460448A0470448A0476B
:1043B0000448A0470448A04710BD00BFE402002005
:1043C0000C0300209C020020C002002010B504460F
:1043D0000079FFF759FF2079BDE81040FFF76CBF67
:1043E00003791E2B10D9212B0ED0202B0ED9222B76
:1043F00001D0252B04D102298CBF00200120704759
:104400004B1E5842584170470120704700207047AA
:104410008B1C40F823200368012203F140430C3336
:1044200001EBC3039B0003F184431A6042790379D3
:10443000FAB9B3F11A025342534107294BD8DFE8C6
:1044400001F004090909090E0E13002B0CBF2C23DF
:10445000192337E0002B0CBF2E231B2332E0002B47
:104460000CBF2D231A232DE0002B0CBF2B23182368
:1044700028E01B3B0C2B1CD8DFE803F021230709A5
:104480000B0D1B0F1113151719001E231AE03223F1
:1044900018E0362316E0372314E0182312E019231E
:1044A00010E01A230EE02B230CE02C230AE02D232E
:1044B00008E0094840F2BF11084A00F0E7BA1C239F
:1044C00000E01D235909012203F01F0302FA03F340
:1044D000034A42F8213070478CDE000847D40008B8
:1044E00000E100E00368002203F140430C3301EBDC
:1044F000C3039B0003F1844302311A6040F821207A
:1045000070470000F8B54E1EF3B2032B04460D466B
:10451000174604D92648DA21264A00F0B7FA63790B
:10452000022B43D0032F41D8DFE807F002122235D7
:1045300020462946FFF7D6FF236803F14043203386
:10454000DB0003EB8606B60006F18446002320E07C
:104550002368002203F140430C3305EBC3039B00A7
:1045600003F184431A60204629466022082303E0B1
:104570002046294610220023FFF7F6FE236803F1A8
:1045800040432033DB0003EB8606B60006F1844689
:1045900001233360F8BD23684FF2F1229A610322B0
:1045A0009A605B0103F1844301221A60F8BD00BFE9
:1045B0008CDE0008DFDE000810B5074B1C68E168E0
:1045C00022690A40120606D55B6A23B1984723691F
:1045D00023F08003236110BDE402002010B5074BD7
:1045E0001C68E16822690A40D20706D59B6823B19E
:1045F0009847236923F00103236110BDE4020020E2
:10460000F8B50C4F3D68EB682E691E4016F040046B
:1046100003D03C6A0CB1A0474024B30604D5FB6923
:1046200013B1984744F020042B6923EA04042C6159
:10463000F8BD00BFE4020020F8B5134F3E68F368F0
:1046400035691D4015F0100403D0BC690CB1A047BA
:104650001024290704D57B6913B1984744F0080456
:104660006A0704D53B6913B1984744F00404AB07CB
:1046700004D5FB6813B1984744F00204336923EA78
:1046800004043461F8BD00BFE4020020F8B51A4EFE
:104690003768FB683D691D4015F0400403D0346A5B
:1046A0000CB1A0474024EB0604D5B36913B1984779
:1046B00044F01004280704D5736913B1984744F0F7
:1046C0000804690704D5336913B1984744F004041A
:1046D000AA0704D5F36813B1984744F00204EB0726
:1046E00004D5B36813B1984744F001043B6923EA49
:1046F00004043C61F8BD00BF0C030020F8B51A4E5D
:104700003768FB683D691D4015F0400403D0346AEA
:104710000CB1A0474024EB0604D5B36913B1984708
:1047200044F01004280704D5736913B1984744F086
:104730000804690704D5336913B1984744F00404A9
:10474000AA0704D5F36813B1984744F00204EB07B5
:1047500004D5B36813B1984744F001043B6923EAD8
:1047600004043C61F8BD00BF9C020020F8B51A4E5D
:104770003768FB683D691D4015F0400403D0346A7A
:104780000CB1A0474024EB0604D5B36913B1984798
:1047900044F01004280704D5736913B1984744F016
:1047A0000804690704D5336913B1984744F0040439
:1047B000AA0704D5F36813B1984744F00204EB0745
:1047C00004D5B36813B1984744F001043B6923EA68
:1047D00004043C61F8BD00BFC0020020818802686B
:1047E000034689B2505C99881A8989B292B2914283
:1047F00017BF9A880022013292B2C0B29A807047E5
:10480000C28838B5838892B29BB201329A4204467C
:104810000D461AD0C288038992B29BB29A4202D145
:1048200083889BB28BB14FF0FF30E288236892B24D
:104830009D54E288238992B29BB29A4217BFE388C3
:10484000002301339BB2E38038BD2046FFF7C6FF4B
:10485000EBE770B51E460546084611460422059C46
:10486000FFF71CFC9DF810100B223046FFF716FCDA
:104870002B6804F00F01DA6804F0300422F4F052DF
:104880001204120C42EA4122DA601A6922F4405200
:104890001204120C42EA04241C6170BD38B50446AF
:1048A000154611B900F096F8014619235943AD0099
:1048B0006423B1FBF5F1B1FBF3F21201100903FB24
:1048C000101109013231B1FBF3F303F00F0321683A
:1048D0001A4392B28A6038BD38B5114DEB6898061C
:1048E00007D52B68990604D569680E48C9B2FFF749
:1048F00087FFEB680A4C1A0611D523681B060ED5F4
:1049000009488288C38892B29BB29A4203D0FFF7CB
:1049100065FF606038BDE36823F08003E36038BD65
:104920000038014004150020F814002038B5114D5E
:10493000EB68980607D52B68990604D569680E4878
:10494000C9B2FFF75DFFEB680A4C1A0611D5236860
:104950001B060ED509488288C38892B29BB29A4240
:1049600003D0FFF73BFF606038BDE36823F08003AE
:10497000E36038BD004400401015002028150020D9
:1049800038B5114DEB68980607D52B68990604D504
:1049900069680E48C9B2FFF733FFEB680A4C1A0684
:1049A00011D523681B060ED509488288C38892B2A8
:1049B0009BB29A4203D0FFF711FF606038BDE368F5
:1049C00023F08003E36038BD004800401C15002040
:1049D0003415002008B590F89002FFF7EDFB20B1E8
:1049E0000128034818BF002008BD024808BD00BFC9
:1049F00000A24A040051250213B504468DF80710A1
:104A000020460DF10701012200F094FD0028F7D0A7
:104A100002B010BD38B505464C1E14F8011F19B17F
:104A20002846FFF7E9FFF8E738BD000008B5114B4D
:104A300001211C6803222046FFF730FB00230121DF
:104A40001A469342206834BF02254FF40035B2F570
:104A5000007F056103F1010303D0002A08BF012193
:104A600001E04FF0FF31B3F5007F04BF521800237F
:104A7000E7E700BFA8DD000808B5034B0BB1AFF3B3
:104A8000008062B6FFF7D2FF00000000F8B5144BBB
:104A900006460D4617460BB3AFF300801149044696
:104AA000FFF7B8FF20463946FFF7B4FF20460E490E
:104AB000FFF7B0FF20463146FFF7ACFF20460B4919
:104AC000FFF7A8FF2046294600F082FD20460A2174
:104AD000FFF792FF20460D21FFF78EFFFFF7CCFF77
:104AE00000000000FBDE000811DF00086DDA00089E
:104AF00003695B68D9889A8889B292B2D8888A1A81
:104B0000998880B289B2884203D2198989B2013169
:104B10000A4492B282B199881A6889B2505C998825
:104B20001A8989B292B2914217BF9A880022013243
:104B300092B2C0B29A8070474FF0FF30704703695D
:104B40005B689988DA8889B292B2914205D09A88D6
:104B50001B6892B2985CC0B270474FF0FF3070474C
:104B600003699A689088D18880B289B28842F9D165
:104B70001A6813685B06FCD5704713B504698DF895
:104B8000071020460DF10701012200F0D3FC002898
:104B9000F7D0012002B010BD03695B68D8889A88FD
:104BA00080B292B2D988801A9A8889B292B2914220
:104BB00003D21B899BB20133184480B270470000B6
:104BC00030B5002545604FF47A758560024D01616E
:104BD00005600275437530BD48DF000803692DE9A3
:104BE000F74FDB68044699420F4692462CD890F85E
:104BF0001480174D4FEA081808EB050690F8159039
:104C000070684FEA091909EB050B717B10B100229E
:104C1000FFF778FC206900F03DFC337B9BF80C200B
:104C200020698DE8080459F8051058F80530FFF799
:104C300010FE206900213A46FFF730FE206903B0DC
:104C4000BDE8F04F00F050BC03B0BDE8F08F00BFEE
:104C500078DB00080022FFF7C1BF006900F04EBCFE
:104C6000044B02791B789A4202D1034B1B681860EF
:104C7000704700BF5015002054150020002310B5C8
:104C80000446036072B6054B19311970044B186065
:104C90000448FFF787FB62B6204610BD5015002080
:104CA00054150020614C0008036800221B685B015A
:104CB00003F184431A607047036801221B685B019B
:104CC00003F184431A607047036801391B6889B295
:104CD0009962704703681B68DA6A92B2914228BFF2
:104CE00011465962704738B5054639B90368012243
:104CF0001B689962DA62D86A80B238BD48244C4396
:104D00004FF6FF71B4FBF1F1013189B204EB5104AC
:104D1000B4FBF1F4FFF7D8FF2B68A4B21B68204660
:104D2000DC6238BD0068C9B2FFF7ECBB0368C9B2EA
:104D30001B6801F18041D86A013980B23433824264
:104D400028BF024643F8212070470068C9B2FFF728
:104D50005FBB000008B501210848FFF78FFF022163
:104D60000748FFF78BFF03210648FFF787FFBDE8E1
:104D7000084005480421FFF781BF00BF401500200F
:104D800044150020481500204C150020FEF79ABF5E
:104D900008B5FBF7D3FAFBF7A3FAFCE770B50546B5
:104DA0000E460024315D29B12A68284612689047D2
:104DB0000134F7E7204670BDF8B505460C461646A7
:104DC0008F18BC4206D02B6828461B6814F8011BBC
:104DD0009847F6E73046F8BD10B502680B46946870
:104DE00009689A68A04710BD08B503681B68984712
:104DF00008BD08B503685B68984708BD38B50D2144
:104E00000546FFF7F1FF0A2104462846FFF7ECFFAD
:104E1000204438BD38B50446FFF7DEFF054620467E
:104E2000FFF7ECFF284438BD38B50446FFF7E1FF33
:104E300005462046FFF7E2FF284438BD2DE9F04F34
:104E400014461D4691B054EA050381469DF868B0AA
:104E500004D13021FFF7C8FF01202EE04FF00008F9
:104E60005FFA8BF600272046294632463B4602F081
:104E7000A1FC08F101080DF1000AC2440AF8012C56
:104E8000204629463B46324602F094FC04460D4635
:104E900054EA0503E4D1002408F1FF381DF8081096
:104EA0004846092994BF30313731C9B2FFF79CFF1A
:104EB0000444B8F1000FEFD1204611B0BDE8F08FE7
:104EC0002DE9F041069F064614461D462FB903689A
:104ED000D1B21B689847BDE8F081002C75F1000342
:104EE00005DA2D21FFF780FF644265EB4505FFB22F
:104EF0000697304622462B46BDE8F041FFF79EBF9D
:104F000007B5CB1700920A46FFF7DAFF03B05DF84A
:104F100004FB38B50446FFF7F3FF05462046FFF7CC
:104F20006DFF284438BD70B5049921B90368D1B22A
:104F30001B68984770BDC9B20491BDE87040FFF787
:104F40007DBF07B500230092CAB2FFF7ECFF03B0A4
:104F50005DF804FB38B50446FFF7F3FF054620462D
:104F6000FFF74CFF284438BD07B5002300920A46DE
:104F7000FFF7D9FF03B05DF804FB38B50446FFF72F
:104F8000F3FF05462046FFF739FF284438BD07B533
:104F9000002300920A46FFF7C6FF03B05DF804FB4A
:104FA0002DE9F74F19460646144610461D460022C5
:104FB000002302F063F89DF830704FF0010838B11B
:104FC0002046294644A3D3E9002302F04DF806E029
:104FD0002046294642A3D3E9002302F03BF800B95A
:104FE00080465FFA88F82046294600220023B8F15F
:104FF000000F0DD002F024F818B130462D21FFF734
:10500000F3FE804638493046FFF7F3FE404460E047
:1050100002F016F838B130462D21FFF7E5FE05F114
:10502000004380461D46314B4FF0000900225FFAD5
:1050300089F1B9420AD21046194600222C4B01F0E0
:10504000B7FE09F1010902460B46F0E72046294662
:1050500001F0D2FB04460D4602F0C2FB82468B46AD
:1050600001F04EFD02460B462046294601F0C2FBE8
:105070000A2300930446524630465B460D46FFF72E
:105080001FFF804427B130461A49FFF7B2FE804423
:10509000F7B1174B00222046294601F05FFD0D466F
:1050A000044601F0F5FF81460A2249463046FFF7E3
:1050B00027FF8044484601F0EBFC02460B462046A1
:1050C000294601F097FB013F04460D46FFB2DFE79A
:1050D000404603B0BDE8F08F800350726C92DF430E
:1050E000800350726C92DFC368DF00080000E03F6D
:1050F00000002440E3D3000837B59DF8181004469B
:105100000091FFF74DFF05462046FFF777FE284444
:1051100003B030BD054B03EB001000F108038068BD
:1051200010B19979FEF708BF704700BF78DB00081F
:1051300022280ED8084B00011A18127B012101FA0F
:1051400002F21B581B689B681A420CBF002001200A
:1051500070470020704700BF78DB0008222810D875
:10516000084B00011A18127B1B58012000FA02F2AA
:10517000D1F1010138BF0021090102FA01F11B68D8
:105180001961704778DB000810B5044630B103F0B0
:105190003FFA90FBF4F303FB140010BD10BD8842EE
:1051A00010B5044604DA081AFFF7EEFF204410BDDC
:1051B00010BD00002DE9F04780460E46084600214C
:1051C00092469946FFF7CAFF0024BAF1000F02D0B9
:1051D000C4F1070100E0214649FA01F1404601F01F
:1051E0000101FFF7BBFF0B4A3301D718D358012148
:1051F0001D683B7BEA6801FA03F35340EB603A7B9E
:10520000EB68914001345940082CE960DDD1BDE8DC
:10521000F08700BF78DB0008054B70B51C680646B8
:105220001D4600F001F92B681B1BB342F9D370BD7A
:105230008C1500200C235843431E18460138FDD816
:10524000704710B50446006802F014FE204610BDF9
:1052500010B50446006808B102F00CFE002323607C
:10526000A360636010BD38B504460D460068013187
:1052700003F0EEF910B184E82100012038BD036885
:1052800010B5044613B143688B4207D22046FFF79E
:10529000EAFF20B1A3680BB922681370012010BD8A
:1052A00070B50E46114604461546FFF7E8FF18B9DB
:1052B0002046FFF7CDFF04E0A5602068314603F0EB
:1052C000E7FB204670BD38B5002304460360436009
:1052D00083600D4639B1084603F038FC2946024682
:1052E0002046FFF7DDFF204638BD884210B50B464B
:1052F000044607D0096819B19A68FFF7D1FF01E0A9
:10530000FFF7A6FF204610BD10B50023044603603A
:1053100043608360FFF7E9FF204610BD70B5044687
:1053200085680E4609B9002070BD62B11544294652
:10533000FFF7A5FF0028F6D02068A368314618447F
:1053400003F0A6FBA560012070BD1FB504460A222C
:105350000846694600F092F8684603F0F7FB694694
:1053600002462046FFF7DAFF04B010BD38B5044608
:105370000D4641B1084603F0E9FB294602462046A6
:10538000FFF7CCFF10B92046FFF762FF204638BD7B
:1053900010B50446FFF7D9FF10B92046FFF758FFB4
:1053A000204610BD222870B53BD8082939D8DFE83F
:1053B00001F0051A080B0E1108141700002403222F
:1053C00013E00024042210E0002422460DE0002413
:1053D00009220AE00024082207E001240B2204E04D
:1053E00001240F2201E0002407220E4B00011E18A9
:1053F000317B1858FEF752FE706890B1717B24B172
:105400000122BDE87040FFF77DB80368013903F160
:1054100040432033DB0003EB81039B0003F1844313
:105420001C6070BD78DB0008704770B58AB001B3AE
:10543000931E222B1FD801AB1D4670B1B0FBF2F6B4
:1054400002FB1604092C3046D8BF303403F10106A4
:10545000C8BF57341C703346EFE7AB42EED00A4664
:10546000AB4204D913F8010D02F8010BF8E7002351
:105470001370084600E000200AB070BDFFF7D5BFEA
:1054800010B504460079FEF7FFFE2079BDE8104014
:10549000FEF712BF436800227F2110B59A80DA80A0
:1054A000198100F110011960836804469A80DA803E
:1054B00040F2FF121A8100F190021A6090F89002F7
:1054C000FEF7E2FE94F891325AB2002A08DB01217D
:1054D00003F01F0301FA03F30249521141F822308D
:1054E00010BD00BF00E100E00368DA6842F02C0262
:1054F000DA60DA6842F40052DA60704710B5036887
:1055000082689488D188A4B289B28C42F9D1DA68D1
:10551000910402D51A685206F9D5DA6822F40052CD
:10552000DA6043689A8892B2DA8083689A8892B285
:10553000DA8010BDF0B583680546046800209F88B6
:10554000DE88BFB2B6B2B74204D0E36823F080036E
:10555000E36027E026683606F7D59042F5D00E5C6A
:1055600001306660EBE7DF889E88BFB2B6B20137D4
:10557000B74211F800C01DD0DF881E89BFB2B6B295
:10558000B74213D0DF881E68BFB206F807C0DF88B5
:105590001E89BFB2B6B2B74218D0DE880136B6B2A5
:1055A000DE8001309042AB68DDD303E09E88B6B266
:1055B000002EE7D19A88DB8892B29BB29A4200D142
:1055C000F0BDE36843F08003E360F0BD0026E7E749
:1055D0007FB5064600240A22B1FBF2F302FB131248
:1055E000013401AD2819303200F8012C1946002B86
:1055F000F1D114F1FF340BD32B5D8DF8033030461D
:105600000DF103010122FFF795FF0028F7D0F0E725
:1056100004B070BD2DE9F04F8BB01D468046894621
:10562000144600F075F9DFF8ACA206469AF900308E
:105630000F46013304D02046294600F08FFF20B9E1
:10564000304639460BB0BDE8F08F4046494600F081
:1056500085FF834600282CD12046294600220023BE
:1056600001F0E4FC0028EBD0944B9AF90010944E22
:1056700000220120CDE906234B1CCDF820B0CDE956
:105680000289CDE904458DE841000DD002290BD0F7
:10569000684600F08BFF002800F09580089B1BB146
:1056A00002F0A2FB089B0360DDE906010BB0BDE838
:1056B000F08F002200234046494601F0B7FCF8B1C4
:1056C000204629460022002301F0B0FC8346002832
:1056D0004DD07B489AF90030CDE9044501210022E4
:1056E00000240025CDE90289CDE90645019000910D
:1056F0000892002BCCD0714B0022CDE90623D3E7D2
:105700003046394600F024FF8346002860D000224E
:1057100000233046394601F089FC002890D04046ED
:10572000494600F015FF00288AD02046294600F09F
:105730000FFF002884D09AF900306148CDE9044574
:105740000421002200240025022BCDE90289CDE9A5
:10575000064501900091089200F08280684600F0B2
:1057600025FF00287CD0089B002B9DD098E7204681
:10577000294600F0EDFE00283FF462AF204629469E
:105780000022002301F05CFC00283FF459AF4C4A92
:105790009AF8001001230192CDF820B0CDE90289DA
:1057A000CDE9044500930022002934D10023CDE93E
:1057B0000623684600F0FAFE0028D4D102F014FB5C
:1057C00021230360CFE702F00FFB2123036065E78D
:1057D0004046494600F0BCFE002898D020462946A5
:1057E00000F0B6FE002892D03046394600F0B6FEF2
:1057F000B8B9334A9AF8006001230890CDE90289CC
:10580000CDE9044501920093002E2ED100240025FD
:10581000CDE90645CDE72B4B0229CDE90623CDD0B6
:10582000C7E727499AF90030032201910092CDF889
:1058300020B0CDE90289CDE9044540464946002221
:10584000F3B9214F4FF060460023CDE9066701F020
:10585000F7FB002840D19AF90030022B7FF47EAF8D
:1058600002F0C2FA222303607DE7002000210246F5
:105870000B4601F09DFA022ECDE906019ED098E775
:10588000124F00260023CDE9066701F0D9FB00285E
:10589000E1D000220E4B2046294601F05FF9044674
:1058A0000D4600F08BFE22462B4601F0BFFB002880
:1058B000D1D1044B0022CDE90623CCE70000F03F14
:1058C00078DF00080000F0FFFFFFEF470000F07FE7
:1058D0000000E03FF80A002000220A4B204629463B
:1058E00001F03CF904460D4600F068FE22462B46C6
:1058F00001F09CFB0028AED1034B4FF06042CDE994
:105900000623A8E70000E03FFFFFEFC7000000000C
:105910002DE9F04F23F0004B91B089460F465BEA2A
:105920000201CDE9022314461D46804606462ED0CC
:10593000634B29F0004A9A4522DC1FD0604B9B45FF
:105940001EDC77D0002F78DB0022049264BB5C4B16
:105950009B4500F091805B4B9B4565D0B5F1804F36
:1059600000F0F983584B9D421ED1002F1CDB4046AE
:10597000494611B0BDE8F04F00F026BD0028DDD04B
:105980000AF1404A0AF5801A5AEA060A04D14D493A
:10599000002011B0BDE8F08F4C4811B0BDE8F04FC9
:1059A00000F006BE002104914046494600F0CCFDBF
:1059B000E6B9BAF1000F04D0424B27F040429A42B8
:1059C00014D1002DC0F20884002FE2DA0AF1404A17
:1059D000DDF810B00AF5801A5BEA0A0B5ED0049A73
:1059E000012AD6D101F100431946D2E7FB0F03F19A
:1059F000FF3C049B53EA0C034ED0354B9B456DDDB9
:105A000003F104739B4540F3EF83324B9A4540F317
:105A10009C83002D40F39C8327A1D1E9000102461D
:105A20000B4601F09BF8B4E7002DC0F24B844046D2
:105A30004946AEE7002C85D0A2E7274B9B4536DCD4
:105A4000A3F154739B4540F38D834FEA2B5340F2EF
:105A50001342934240F33E84C3F58663033324FA32
:105A600003F202FA03F3A3427FF46EAF02F00102E5
:105A7000C2F10202049269E70AF1404303F5801380
:105A8000334384D0134B9A4540F39E83002DC0F2DC
:105A90005F83DDE902017CE74046494602460B464A
:105AA00000F0A8FE02460B4601F082F971E70223DE
:105AB00004934BE7AFF300809C7500883CE4377E8D
:105AC0000000F07F0000F03F0000E03FF8DF00083A
:105AD0000000E041FFFFEF3FFFFF3F43BAF5801FAB
