:020000040800F2
:100000000050002029420008F1420008F542000893
:10001000F9420008FD42000801430008514300086E
:100020005143000851430008514300085143000860
:10003000514300085143000851430008CD470008D0
:10004000514300085143000851430008053F000890
:100050005143000851430008514300085143000830
:100060005143000851430008514300085143000820
:100070005143000851430008514300085143000810
:100080005143000851430008C94300085143000888
:1000900051430008514300085143000851430008F0
:1000A000394A00085D4A0008814A0008B94A000838
:1000B0000D4B00087D4B0008ED4B00085143000834
:1000C00051430008514300085143000851430008C0
:1000D00051430008594D0008AD4D0008014E00087D
:1000E000514300084D3F00085143000810B5054C2E
:1000F000237833B9044B13B10448AFF300800123D4
:10010000237010BD7813002000000000ACC100086F
:1001100008B5064B1BB106480649AFF300800648F8
:10012000036813B1054B03B1984708BD00000000F8
:10013000ACC100087C1300207813002000000000F0
:1001400007B5324801F001FE002837D1304B314964
:1001500018702E4801F0B1FC28B12C482D4901F04F
:10016000E7FC002848D12C4801F0ECFF20B12A48D8
:1001700001F097FF002844D101238DF80030264874
:10018000002369468DF801308DF802308DF8033078
:100190008DF8043001F03BFF18B12048204905F0EC
:1001A00083F820480021052200F060FF06E01020BF
:1001B00005F0FEF940B11C4800F070FE134801F054
:1001C000C4FD0028F3D011E041F2883005F064FA54
:1001D000102005F0EDF90028EDD1144802F0CEFE14
:1001E000102005F0E5F90028FAD0E4E7084B0122D9
:1001F0001A7003B05DF804FB0D49084805F054F887
:10020000B1E70C49054805F04FF8B5E73714002071
:10021000080000209413002034140020A4140020AF
:1002200068D50008301400201F1400208614002018
:1002300085D5000899D50008F8B5114E0325346816
:10024000104B1A781F46CAB90F4803F0D7F8326826
:1002500004F51C5310339A4201D23B7853B1013D4F
:1002600015F0FF053468EBD1BDE8F84007480849B0
:1002700005F01AB8074800F011FEE8E7F8BD00BF26
:10028000881500201D14002086140020A4140020CE
:10029000C8D500081F14002008B5142005F088F9FF
:1002A00030BB642005F0F8F9142005F081F9F8B9A5
:1002B00040F6C41005F0F0F90E490F4804F0F4FFC1
:1002C00040F6C41005F0E8F9142005F071F978B98A
:1002D000642005F0E1F9142005F06AF940B90748F7
:1002E00001F0A8FDBDE808400348054904F0DCBF63
:1002F00008BD00BFE7D50008A41400203214002078
:10030000FBD5000810B5124C1249204604F0CCFF72
:100310001149204604F0C8FF204604F061FE0F4852
:1003200000F0CEFE0820002105F058F90120002140
:1003300005F054F90121132005F050F9012004F0D3
:1003400059F9012004F070F9BDE8104004F058B9E3
:10035000A41400203FD6000851D600083014002015
:10036000A54B30B51A688DB022F0E06242F0007201
:100370001A60A24800F054FEA1484FF4165104F050
:10038000A9FEA0484FF4165100F012FF4FF4165189
:100390009D4804F09FFE04F07EF89A4800F0E4FEC9
:1003A0000820002105F08AFA0021082005F016F93E
:1003B000964801F05FFB0121924800F0A3FF4FF443
:1003C0007A7005F069F9924800F068FD0021132069
:1003D00005F004F90A2005F05FF98E49884804F019
:1003E00063FF8D48222101F0FBFD0228044605D160
:1003F0008948232101F0F4FD0546E0B1002286483A
:10040000022101F0D6FD8549684605F09CF9694650
:1004100006A805F0B9F91022022103A805F0CFF9CA
:1004200003A906A805F016FA7D4905F020FA002177
:10043000044609A816E07B49684605F084F9694638
:1004400006A805F0A1F92146102203A805F0B7F986
:1004500003A906A805F0FEF9714905F008FA294636
:10046000044609A8102205F0AAF9204609A905F0BA
:10047000F1F90146624804F00DFF09A805F021F9E1
:1004800003A805F01EF906A805F01BF9684605F05B
:1004900018F96148242101F0A1FD0728044616D16E
:1004A0005D48252101F09AFD054680B95E4906A800
:1004B00005F049F906A909A805F066F9214609A839
:1004C00005F0E7F9564905F0D2F9294614E0002273
:1004D0005148072101F086FD544906A805F033F97B
:1004E00006A909A805F050F9072109A805F0D1F9D6
:1004F0004B4905F0BCF9002105F0CBF90146404815
:1005000004F0C8FE09A805F0DCF806A805F0D9F843
:10051000FFF7C2FE464801F084FC014680B9394825
:1005200001F0B0F93748012100F048FE01213548BB
:1005300000F0E8FE364800F0B1FC3D4801F054FC04
:100540003C4801F0DCFBFFF7FBFD3B49394801F07B
:1005500005FC0146B0B90A22284800F087FD37495A
:10056000274804F0A1FE364802F0C4FD4FF47A702B
:1005700005F092F8264800F091FC40F6B83005F0FE
:100580008BF8E2E72F491E4804F08EFE1B4801213C
:100590000A2200F06BFD194800F0AAFDB0F52F6F9C
:1005A0000DD8642005F078F8144800F0A1FDB0F5EE
:1005B0002F6F04D8244802F0F7F8FFF7A3FEFFF7E7
:1005C0003BFE0E4800F094FD40F6E34398421F4C7A
:1005D00001D9002309E001230848237000F088FDB9
:1005E00040F6B833984201D802232370164802F02F
:1005F00021F80DB030BD00BF0400014030140020D0
:10060000A414002031140020D4140020361400203B
:100610001F14002025E7000835140020B0D600087C
:1006200038DD0008CBD6000800D70008E5D6000862
:1006300032140020371400209413002064D60008E0
:100640008614002097D60008411400204014002092
:10065000FFF758BE012902D11C30C0B270470629ED
:1006600084BF01F1FF31C9B211F0010F14BF1E2088
:100670001F207047444B2DE9F047B1FBF3F603FB15
:1006800016113C23B1FBF3F203FB12120546027074
:100690004FF46160B1FBF0F200FB1211B1FBF3F318
:1006A0006B704FF4FA63AA70B6B2EB80EC884FF42B
:1006B000C873B4FBF3F803FB18481FFA88F8B8F1C5
:1006C000000F16D06423B4FBF3F203FB12439BB27A
:1006D000002B53D014F0030140F26D130CBF4FF404
:1006E000B7721A4696420EDB002908BF4FF4B77363
:1006F00004E0B6F5B77F06DB4FF4B773F61A0134A2
:10070000B6B2EC80D2E700236B716423B4FBF3F73D
:1007100003FB1747BFB2B8F1000F06D03FB114F08A
:10072000030F14BF0020012002E0012000E0384642
:1007300095F80590C0B24946FFF78CFF864209F153
:10074000010A15D3B8F1000F06D03FB114F0030F22
:1007500014BF0020012002E0012000E03846C0B2B2
:100760004946FFF777FF301A86B285F805A0D2E731
:1007700001362E7185F805A0BDE8F087B6F5B67F85
:10078000C1DD40F26D13B9E780510100F8B5427840
:1007900087783C2303FB072702780579467903FB1A
:1007A0000727013D013EEDB2F6B2044605714671E0
:1007B000013E731CE38834D04FF4C872B3FBF2F1EE
:1007C00002FB113292B262B16422B3FBF2F002FB7F
:1007D000103080B230B113F0030F14BF002001209D
:1007E00000E00120C0B2F1B2FFF734FF284485B227
:1007F000DEE74FF4C872B3FBF2F102FB113292B2A2
:10080000AAB16422B3FBF2F102FB113292B28AB1B7
:1008100013F0030F40F26D1208BF4FF4B772154486
:10082000ADB2013B9BB2B3F5FA6FE2D205E04FF4F3
:10083000B772F4E740F26D12F1E7024800FB057071
:10084000F8BD00BF8051010001F0D8BC38B50D469D
:10085000044601F0EEFC290A49006039204601F007
:10086000FE0101F07DFD204601F053FDE9B2204676
:1008700001F076FD204601F04CFD204601F0D9FC48
:100880002046A12101F06CFD204601F042FD00212F
:10089000204601F08CFD0546204601F01DFD204656
:1008A00001F0E2FC284638BD70B50D4616460446F8
:1008B00001F0BFFC290A49006039204601F0FE0121
:1008C00001F04EFD204601F024FDE9B2204601F082
:1008D00047FD204601F01DFD3146204601F040FD58
:1008E000204601F016FD204601F0BEFCBDE8704038
:1008F0000A2004F0D1BE0000D30770B548BF013212
:100900000024520802312346E5B2954225D211F85F
:10091000025CA5F14106F6B2052E02D8104B9B5D94
:1009200005E0303DEDB2092D03D80E4B5B5D1B0198
:10093000DBB211F8015CA5F14106F6B2052E01D833
:10094000074D04E0303DEDB2092D02D8054E755D2E
:100950002B43035502310134D6E7002070BD00BFA0
:1009600024D700081AD700082DE9F04F824687B037
:1009700008461446994606F061FBC9EB0406CDE92A
:100980000001304606F048FB02460B4600204D4968
:1009900005F006F902460B46DDE9000106F028FEE7
:1009A00030B94FF0020896FBF8F80546013E07E023
:1009B00050460021224607B0BDE8F04F08F09EB82F
:1009C000454536DA304606F027FB02460B46002046
:1009D0003C4905F0E5F8CDE90201701E06F01CFB6C
:1009E00002460B460020374905F0DAF8DDE902231C
:1009F000CDE90401DDE9000106F09EFC06F00CFEE5
:100A0000DDE904230A2790FBF7FB0BFB17004FEAF5
:100A1000001BDDE9000106F08FFC06F0FDFD90FBF8
:100A2000F7F303FB170083440AF805B0023E0135D3
:100A3000C6E709EB48094FF0020BC4EB090994FB28
:100A4000FBFB09F10109D84538DA484606F0E4FA1B
:100A500002460B4600201B4905F0A2F8064609F1A4
:100A600001000F4606F0D8FA02460B460020154951
:100A700005F096F832463B4604460D46DDE9000196
:100A800006F030FB06F0C8FD0A2690FBF6F707FBE0
:100A900016002B4607012246DDE9000106F022FB85
:100AA00006F0BAFD90FBF6F303FB160007440AF8C4
:100AB000087009F1020908F10108C4E707B0BDE8B0
:100AC000F08F00BF00002440124A517893784AF218
:100AD000130243EA0123934213D008D84AF21102C9
:100AE000934213D04AF21202934211D00DE04AF21F
:100AF0001402934207D04AF22202934205D1042005
:100B000070470220704703207047704700207047ED
:100B1000012070479D13002010B5074C6018114646
:100B200003F0ABF8054B1B781C4414F8073C1B1A68
:100B30005842584110BD00BF9D1300201E140020D4
:100B4000044B18795B7943EA0020431E5842584110
:100B5000704700BF9D130020044B9B79552B044B1D
:100B60000CBF012200221A70704700BF9D130020A5
:100B70002014002010B5084CE379552B01D1012039
:100B800010BD064801F0DBFAE3798342F7D0D0F1DB
:100B9000010038BF002010BD9D1300203414002038
:100BA00013B50D4B1C7A552C01D1012012E00B48D6
:100BB000694601F067FA00231A461DF803108C42BB
:100BC000F3D019B90132D2B2052AEED00133052B88
:100BD000F3D1002002B010BD9D130020341400207A
:100BE00070B505461E46FFF797FF044698B12846A4
:100BF000FFF7A6FF044658B12846FFF7ADFF284689
:100C0000FFF7B8FF044648B946B10C480C4911E05B
:100C10000A480C490EE009480B490BE02846FFF74B
:100C2000BFFF044640B99DF810300BB9012403E022
:100C30000248064904F038FB204670BDA414002089
:100C40007CD700082AD7000858D70008B3D7000877
:100C50001A4B13B51B787BB3002300930421172292
:100C60000123FFF7BDFFF0B1154C164804F10C014C
:100C700001F0CAFBA17AE37A134843EA012101F0AB
:100C80006FFA10B1114B01221A70237A552B03D140
:100C90000F4802F073F906E0012B04D00C4807213D
:100CA000012202F025FB0B4B05481A78002102B007
:100CB000BDE8104007F022BF02B010BD08000020C0
:100CC0009D13002041140020331400201D14002027
:100CD000861400201E140020174B07B51B7843B361
:100CE0000023009304210A220123FFF779FFB8B102
:100CF0001248134901F08BF930B11249124804F03F
:100D0000D3FA1248032108E011490F4804F0CCFA45
:100D1000104B0A220D481A700421012202F0E8FA51
:100D20000D4B0E481A78002103B05DF804EB07F074
:100D3000E5BE03B05DF804FB080000203414002079
:100D4000A5130020EBD70008A4140020861400206F
:100D50001BD80008871400201E1400209D130020BB
:100D600013B50023009304210F22FFF739FF10B3BE
:100D70001D4C1E4804F10A0100F09FFE002830D0EF
:100D80001A4804F10A0100F0D3FE50B3184919487B
:100D900004F08AFA1848E17901F0A4F9A0B11749E2
:100DA000144804F081FA16480521012202F0A0FA45
:100DB0000E4800F08FFF134B0B481A78002102B049
:100DC000BDE8104007F09ABE0A480F4904F06CFADB
:100DD0000E4B0A221A700A480621012202F088FAF4
:100DE000E9E704480A49F1E79D1300203714002081
:100DF000AED80008A4140020341400204BD80008FA
:100E0000861400201E1400207DD8000887140020BE
:100E1000DBD800080D4B07B51B789BB1002300936E
:100E2000042105220123FFF7DBFE10B1084802F080
:100E3000CDF9084B08481A78002103B05DF804EB9F
:100E400007F05CBE03B05DF804FB00BF08000020A3
:100E5000861400201E1400209D13002010B50446A7
:100E6000FFF732FE032817D8DFE800F00207110C65
:100E70002046BDE81040FFF7EBBE2046BDE810401D
:100E8000FFF72ABF2046BDE81040FFF7C3BF20464A
:100E9000BDE81040FFF764BF10BD00002DE9F0472A
:100EA000404C002782462770002635463E4804F015
:100EB000B3F8002833DD94F800903B4809F10103B2
:100EC000237004F055F8DFF8F48008F809000520D5
:100ED00004F0E2FB23781022434413F8011C33484A
:100EE00004F06FFA3148324904F0C3F994F9003044
:100EF000002B434602DA2B4A00211170F6B9227802
:100F00001A4412F8012C0D2A01D117E00126052DF3
:100F1000CCD12648274904F0C7F90127C4E757B1C7
:100F20002549224804F0C0F95046FFF797FF0023F7
:100F30002370BDE8F0872770BDE8F087042DE5D861
:100F4000DFE805F0030C151E27002278134413F880
:100F5000015CB5F10A035D425D4121E02278134452
:100F600013F8013C0D2B0CBF0225002518E0227858
:100F7000134413F8013C0A2B0CBF032500250FE096
:100F80002278134413F8013C0D2B0CBF04250025D7
:100F900006E02278134413F8013C0A2BB9D000254F
:100FA000012683E71E140020BC140020A414002096
:100FB000E6E1000808D900082CD900089D1300209C
:100FC00008B5134B13491A68096801328A421A603E
:100FD0001DD3114900221A600B78DB43DBB20B7082
:100FE0000E49097841B1012911D1182003B11146E8
:100FF00004F0F4FA192005E0192003B9012104F0E6
:10100000EDFA18200021BDE8084004F0E7BA08BD59
:10101000241400202C140020211400202814002067
:1010200008B51320002104F049FC1820002104F029
:1010300045FC1920002104F041FC1020022104F09D
:101040003DFC1420022104F039FC0321072004F0A8
:1010500035FC0A2004F020FB1820002104F0BEFA21
:10106000BDE808401920002104F0B8BA0F4B10B5B4
:101070000F4C19700F4B20461A600121022204F018
:1010800091F820460C4904F06EF8012120460A46EA
:1010900004F08CF820460121084A04F096F8204616
:1010A0000021BDE8104004F055B800BF281400200E
:1010B000481500202C140020A0860100C10F000854
:1010C00008B5064804F030F81820002104F086FA2C
:1010D000BDE808401920002104F080BA481500201E
:1010E000014804F029B800BF4815002000000000A6
:1010F00030B58BB001AD28460021242207F0FEFC5C
:101100000024072004F046FA05F086FF12A3D3E975
:10111000002305F0E7FF0022114B05F0E3FF06F086
:10112000A3FA28514FF47A70043404F0C3FA242C43
:10113000E7D109226B4608AC53F8040F596888427E
:1011400084BF58601960A342F6D1013A12F0FF0241
:10115000F0D105980BB030BDF163CC5D4BC8E93FD1
:1011600000001840AFF3008008B50120002104F012
:10117000A5FB0120014604F031FA0020014604F0ED
:101180009DFB0420002104F099FB0520002104F0C0
:1011900095FB0420002104F021FA0520012104F030
:1011A0001DFABDE808400020014604F017BA00000F
:1011B000014803F08FBF00BFBC14002008B561B127
:1011C0000021052004F00AFA962004F065FABDE833
:1011D00008400520012104F001BA08BD08B500212E
:1011E000012004F0FBF90C4803F077FF02200021F6
:1011F00004F064FB0320002104F060FB02200021C6
:1012000004F0ECF90320002104F0E8F9BDE80840FF
:101210000520002104F0E2B9BC14002010B50B78C1
:10122000452B12D14B78522B0FD18B78CC78303B99
:1012300003EB8303303C04EB4304E4B221460A226F
:10124000034804F0C7F8204610BD0A2010BD00BFB7
:10125000A41400200B784F2B07D148784B2804D1D9
:1012600013704B780120537070470020704730B5E1
:101270000020C4B20D5D01302C2D01D01D55F8E7C2
:10128000601C5525C0B21D55904204D20C5C1C5404
:101290000130C0B2F8E730BDF8B54C78432C08D126
:1012A0008C78532C05D1CC78B4F151056C426C414B
:1012B00000E000240026F5B24F5D01363A2FFAD146
:1012C0000135EDB200279542FEB207F1010706D8BD
:1012D00011F805C0013501F806C0EDB2F3E73CB9DD
:1012E0002046C2B2B2420BD20A5C1A540130F8E76F
:1012F000069A022412681470721ED2B2FFF7B7FF6A
:101300000120F8BD37B5154809B9154900E0154960
:1013100003F0AFFF642004F0BFF900240F4803F08E
:101320007BFE0028E5B208DD062C14D00B4803F044
:101330001FFE0DF804000134F0E755B19DF80230AE
:101340004F2B08D19DF80300B0F14B035842584190
:1013500002E0284600E0002003B030BDBC140020AD
:1013600057D900085BD9000810B504460120014692
:1013700004F034F907484FF4165103F0ABFE204651
:101380000121FFF71BFF20460121BDE81040FFF7B8
:10139000B9BF00BFBC1400202DE9F0419EB005ADDF
:1013A0000C4607460021904628466422039307F026
:1013B000A5FB21462C4803F05CFF642004F06CF987
:1013C0000024294803F028FE0028E6B207DD642C3B
:1013D00045D0254803F0CCFD28550134F1E726B966
:1013E0002249234803F060FF39E09DF814300D2BAB
:1013F00035D19DF815300A2B31D11EAB334413F88B
:10140000653C0A2B2BD1023E1EAB334413F8643CDF
:101410000D2B24D10021CCB2A31CDBB2B34201F1CD
:10142000010107DA1EAA134413F8643C144404F8BB
:10143000643CF0E738462946FFF7F0FE0A280CD155
:1014400003AB00933846294622464346FFF724FF64
:1014500000280CBF0320022002E0012000E003204E
:101460001EB0BDE8F08100BFBC14002061D90008A7
:10147000A41400202DE9F041B2B006460D46904676
:101480000021642268461F4607F038FB19A8002196
:10149000642207F033FB0024E3B2E85C013420B19E
:1014A00032AA134403F8640CF6E70146CAB25D1889
:1014B00018F80240EDB232AA01312A4414B102F800
:1014C000644CF3E70D2302F8643C6B1C32A8DBB2DA
:1014D00003442F480A2203F8642C036819A95B68A7
:1014E00098472C48AA1C036819A99B68D2B2984750
:1014F000642004F0D1F8274803F08EFD0028E5B2FF
:1015000008DD642C3FD0234803F032FD0DF80400C1
:101510000134F0E7002D36D09DF800300D2B32D18C
:101520009DF801300A2B2ED132AB2B4413F8C93C65
:101530000A2B28D1023D32AB2B4413F8C83C0D2BAB
:1015400021D100218B1CDBB2AB4201F1010209DA8F
:1015500032A8034413F8C83CC9B2014401F8C83C9E
:101560001146EFE730466946FFF758FE0A2808D1D2
:10157000304669463A46FFF76DFE80F00100C0B282
:1015800002E0012000E0032032B0BDE8F08100BF9E
:10159000A4140020BC140020F7B51E4604461746CC
:1015A0000D4600218DF80710FFF7ACFE02F0E0FFBA
:1015B000204631462FB12A460DF10703FFF7ECFE16
:1015C00003E0089A2B46FFF755FF03282AD8DFE8E7
:1015D00000F011040207002311E01648164901E04B
:1015E0001448164903F060FE20460121FFF78AFEE9
:1015F00000201CE012490F4803F056FE12E09DF84F
:1016000007205E1CDBB29A420A4809D9E95C102225
:1016100003F0D7FE07480B4903F02BFE3346EEE7F5
:1016200003F02CFE20460121FFF76CFE012003B0E1
:10163000F0BD00BFA414002075D9000886D90008A9
:101640008FD90008E6E100082DE9F0438BB004AF24
:10165000804600210922384602AE002407F04EFAE7
:1016600000944046314601222C4BFFF795FF05467A
:1016700010B92B482B494BE02346F25C07AC092AF2
:1016800001D8303204E0A2F10A01052998BF3732AF
:10169000E2540133082BF0D14FF0000922488DF8B5
:1016A000249000F07DFC0246C0B120491C4803F0A4
:1016B000FBFD1D48394600F0D9FB50B14B46E15CBB
:1016C000FA5C914217D10133082BF8D1144818491C
:1016D0001EE01849124803F0E7FD07E00094404679
:1016E0003146154BFFF758FF054698B121460E4885
:1016F00000F014FC0AE01149094803F0D5FD0097F9
:101700004046314600220C4BFFF746FF054601E0FC
:1017100003F0CAFD28460BB0BDE8F0839BD9000852
:10172000A4140020A6D9000832140020C6D900084D
:101730004EDA0008E4D9000808DA000811DA0008D7
:101740002DE9F04F89B002AF07F10C0683468946B8
:1017500090461C46304600210A2207F0CFF9002CA3
:1017600048D1C7F804D05846CDF800803146012250
:101770004B46FFF711FF824608B1214602E03C4884
:101780003C496BE0CCB218F804300131002BF9D1A0
:10179000E11D01F4FC71ADEB010D02A9D8B2A0422C
:1017A00003D2F05CC8540133F8E70B46581AC0B2B4
:1017B000A0420DD213F8010B092801D8303004E003
:1017C000A0F10A05052DF1D8373003F8010CEDE73B
:1017D0000025EBB2A3423FD24B5D013508EB05007B
:1017E00010F8010C9842F4D02148234903F05CFD25
:1017F0007B689D466C460023DAB219F8021001336B
:101800000A29F9D1931D03F4FC73ADEB030DA2F18A
:10181000020E02AB0020C1B2551EA94200F1010028
:1018200003DA19F801505D54F5E700223D215A55BD
:10183000584603F80E10CDF800803146FFF7ACFE95
:10184000054628B90A480D4903F02EFDAA4601E0D5
:101850004FF0010AA54605E00548094903F024FDBB
:101860007B689D4650461C37BD46BDE8F08F00BFE3
:10187000A414002078DA00089EDA0008F5DA0008DF
:1018800017DB00087FB50F2204460D46684600218D
:1018900007F034F95C485D4903F006FD0A2602F0C2
:1018A00067FE2046002D65D1FFF7CEFE58498DF822
:1018B0000000584A2B462046FFF742FF56498DF854
:1018C0000100564A01232046FFF73AFF54498DF89C
:1018D0000200544A2B462046FFF732FF52498DF84A
:1018E0000300524A2B462046FFF72AFF50498DF845
:1018F0000400504A01232046FFF722FF4E498DF88D
:1019000005004E4A2B462046FFF71AFF4C498DF83A
:1019100006004A4A2B462046FFF712FF49498DF838
:101920000700444A01232046FFF70AFF46498DF885
:101930000800464A2B462046FFF702FF44498DF82F
:101940000900444A2B462046FFF7FAFE42498DF82B
:101950000A00324A01232046FFF7F2FE3F4A8DF883
:101960000B003F4920460123FFF7EAFE0D228DF8C8
:101970000C0007E02F4A2E490123FFF7E1FE012268
:101980008DF8000000231DF80310A9B935491E4841
:1019900003F08AFC2046FFF7E7FC2046FFF71EFC19
:1019A00002F0E6FD2046FFF7DFFC4FF4FA6003F09B
:1019B00073FE02F0DDFD05E00133D9B29142E2D3BE
:1019C00004B070BD284803F027FB002803DD26483B
:1019D00003F0CEFAF6E7013E16F0FF067FF45FAFA4
:1019E0001E2231462148FFF741FB2149064803F0FA
:1019F0005BFC40F6B83003F04FFE02F0B9FD04B0D6
:101A0000BDE8704002F0E8BDA41400202DDB000802
:101A10004CDB000858DB000861DB00085EDB0008D7
:101A20006BDB000877DB000880DB00088CDB00083C
:101A300095DB00089FDB0008A2DB0008ACDB000898
:101A4000AFDB0008B9DB0008C3DB0008CCDB000813
:101A5000CFDB0008D9DB0008DCDB0008F1DB000885
:101A6000E6DB0008F4DB0008BC1400203014002082
:101A700011DC000810B500210446152003F01EFFFC
:101A80001520012103F0AAFD2046BDE81040FEF715
:101A9000DBBE08B5052003F0FFFDBDE808401520BA
:101AA000012103F09BBD08B51520002103F096FD30
:101AB000BDE80840052003F0EFBD7FB504460E46A3
:101AC000FFF7F1FF0D2573192946204613F80D2C59
:101AD0000135FEF7E9FE162DF5D13046092102F059
:101AE000CCF80646294620463246FEF7DDFE0D2597
:101AF00029462046FEF7AAFE01AB2B440135162DE0
:101B000003F80D0CF4D101A8092102F0B6F8B04297
:101B1000204603D0FFF7BDFF002007E00B21552230
:101B2000FEF7C2FE2046FFF7B4FF012004B070BDEF
:101B30007FB504460E46FFF7B6FF172573192946F1
:101B4000204613F8172C0135FEF7AEFE202DF5D1F7
:101B50003046092102F091F80646294620463246D1
:101B6000FEF7A2FE172529462046FEF76FFE01ABC1
:101B70002B440135202D03F8170CF4D101A80921BD
:101B800002F07BF8B042204603D0FFF782FF00202E
:101B900007E00C215522FEF787FE2046FFF779FF6C
:101BA000012004B070BDF0B585B001AD06460F460A
:101BB00028460021092206F0A1FF0D2421463046C7
:101BC000FEF744FE2B190134162C03F80D0CF5D149
:101BD00021463046FEF73AFE09210446284602F027
:101BE0004CF8844206D10023EA5CFA540133092BF5
:101BF000FAD101E0002000E0012005B0F0BDF0B511
:101C000085B001AD06460F4628460021092206F0A0
:101C100075FF172421463046FEF718FE2B190134B4
:101C2000202C03F8170CF5D121463046FEF70EFEA6
:101C300009210446284602F020F8844206D10023F8
:101C4000EA5CFA540133092BFAD101E0002000E0EC
:101C5000012005B0F0BD37B50C461E210546FEF744
:101C6000F5FD1F218DF804002846FEF7EFFD022147
:101C70008DF8050001A802F000F8207003B030BD17
:101C800010B50446FFF70FFF002220460B21FEF798
:101C90000BFE2046FFF7FDFE20460B21FEF7D6FD8A
:101CA000D0F1010038BF002010BD10B50446FFF789
:101CB000FAFE002220460C21FEF7F6FD2046FFF733
:101CC000E8FE20460C21FEF7C1FDD0F1010038BF2F
:101CD000002010BD10B50446FFF7E5FE5522204652
:101CE0002121FEF7E1FD2046FFF7D3FE204621210A
:101CF000FEF7ACFDB0F155035842584110BD38B560
:101D00000446102003F054FC08B1002038BD41F215
:101D1000883003F0C1FC102003F04AFC054600287F
:101D2000F3D12046FFF7BFFE2A4620462121FEF7C9
:101D3000BBFD2046FFF7ADFE20462121FEF786FDC4
:101D4000D0F1010038BF002038BD08B52121FEF7D1
:101D50007DFDB0F155035842584108BD70B50446A9
:101D60000D46FFF720FF20B120462946FFF747FF29
:101D700048BB20462946FFF716FF48B115491648CB
:101D800003F092FA20462946BDE87040FFF7D0BE26
:101D900020462946FFF733FF06460F4846B10F4954
:101DA00003F082FA20462946BDE87040FFF785BE61
:101DB0000B4903F079FA2046FFF762FF2046FFF750
:101DC00074FF304670BD0749034803F06DFA0120E7
:101DD00070BD00BF3DDC0008A414002074DC0008C6
:101DE000ABDC0008BFDC000810B535210446FEF767
:101DF0002DFD552813D02046FFF755FE55222046CD
:101E00003521FEF751FD2046FFF743FE20463521E0
:101E1000FEF71CFDB0F155035842584110BD01209A
:101E200010BD08B53521FEF711FDB0F1550358423C
:101E3000584108BD10B535210446FEF707FD98B19D
:101E40002046FFF730FE002220463521FEF72CFD0C
:101E50002046FFF71EFE20463521FEF7F7FCD0F1A5
:101E6000010038BF002010BD012010BDF7B50546A8
:101E70000E464F2421462846FEF7E8FC00AB2344DB
:101E80000134572C03F84F0CF4D10821684601F0B7
:101E9000F4FE214607462846FEF7D8FC87420CD1BF
:101EA00000231DF80320F2540133082BF9D1044814
:101EB000044903F0F9F9012000E0002003B0F0BD6F
:101EC000A414002025DD000810B558210446FEF7B3
:101ED000BDFC55280CD02046FFF7E5FD20465821D3
:101EE0005522FEF7E1FC2046BDE81040FFF7D1BDCA
:101EF00010BD10B558210446FEF7A8FC60B120467D
:101F0000FFF7D1FD204658210022FEF7CDFC2046E8
:101F1000BDE81040FFF7BDBD10BD0000F7B50F468E
:101F20000446FFF7C0FD3846082101F0A6FE4F2504
:101F300006467B192946204613F84F2C0135FEF73B
:101F4000B3FC572DF5D1294620463246FEF7ACFCAE
:101F50004F2529462046FEF779FC00AB2B4401357E
:101F6000572D03F84F0CF4D16846082101F085FE87
:101F7000864207D02046FFF7BCFF2046FFF789FDC9
:101F8000002007E00449054803F08EF92046FFF7DA
:101F90009BFF012003B0F0BD3ADD0008A41400202F
:101FA00008B55821FEF752FCB0F15503584258418C
:101FB00008BD70B504460E461546FFF774FD204671
:101FC00032462221FEF770FC20462A462321FEF7E6
:101FD0006BFC2046BDE87040FFF75BBDFEF736BCEA
:101FE000FEF734BC70B504460E461546FFF75BFDA0
:101FF000204632462421FEF757FC20462A4625215A
:10200000FEF752FC2046BDE87040FFF742BDF8B530
:1020100004460E46FFF747FD26257319294620463C
:1020200013F8262C0135FEF73FFC2B2DF5D10521A9
:10203000304601F022FE0746294620463A46FEF782
:1020400033FC262520462946FEF700FC731913F8B9
:10205000263C834214D101352B2DF3D1204629464D
:10206000FEF7F4FBB842204608D12C215522FEF79A
:102070001BFC2046FFF70DFD0120F8BDFFF709FD11
:102080000020F8BD70B506460D4626242146304690
:10209000FEF7DCFB2B1901342B2C03F8260CF5D1B1
:1020A00070BD38B50446FFF7FEFC26250022204609
:1020B0002946FEF7F9FB20462946FEF7C7FB0246F4
:1020C00020B12046FFF7E5FC002038BD01352B2D5F
:1020D000ECD120462C21FEF7E7FB2046FFF7D9FC88
:1020E000012038BD37B502AD04468DF80710FFF763
:1020F000DAFC15F8012D20462D21FEF7D5FB012134
:10210000284601F0BAFD2E2102462046FEF7CCFB00
:1021100020462D21FEF79AFB9DF80730834220468A
:1021200008D12F215522FEF7BFFB2046FFF7B1FC57
:10213000012002E0FFF7ADFC002003B030BD2D21EF
:10214000FEF784BB10B50446FFF7ADFC20462D21F9
:102150000022FEF7A9FB2046FFF79BFC10BD000004
:102160004A1F4AF6BB039A4270B504460D4628D86A
:102170003221FEF76BFB332106462046FEF766FB55
:1021800040EA0620A84204D10F49104803F08CF819
:1021900015E02046FFF787FC20463221C5F30722D1
:1021A000FEF782FB20463321EAB2FEF77DFB204694
:1021B00034215522FEF778FB2046FFF76AFC012008
:1021C00070BD002070BD00BF4FDD0008A4140020CA
:1021D00038B532210546FEF739FB3321044628463F
:1021E000FEF734FB40EA042038BD08B53421FEF781
:1021F0002DFBB0F155035842584108BD08B51620D3
:10220000002103F05BFB1720002103F057FB162091
:10221000012103F0E3F9BDE808401720012103F094
:10222000DDB91720002103F049BB1720042103F07A
:1022300045BB08B5FFF7F5FF1720012103F0CEF9E4
:102240000121162003F0CAF9052003F033FA00211A
:10225000172003F0C3F9062003F02CFABDE808406C
:102260001620002103F0BAB908B5FFF7DAFF1620EF
:10227000002103F0B3F91720002103F0AFF9012189
:10228000162003F0ABF9062003F014FA1720012101
:1022900003F0A4F9BDE80840062003F00BBA10B51E
:1022A00000210446162003F099F92046FFF7B9FFF4
:1022B0000021172003F092F9022003F0FBF901211D
:1022C000162003F08BF9052003F0F4F9BDE8104067
:1022D0001620002103F082B910B500210446162013
:1022E00003F07CF92046FFF79CFF0121172003F043
:1022F00075F9022003F0DEF90121162003F06EF9D2
:10230000052003F0D7F9BDE810401620002103F0A6
:1023100065B970B50646FFF788FF0121172003F065
:102320005DF9012003F0C6F91620012103F056F9EA
:10233000012003F0BFF9FB25172003F039F904460B
:1023400040B1013D15F0FF05F6D13046FFF78CFF97
:10235000012070BD1620214603F040F9204670BDD3
:1023600038B50C46FFF75DFF1620002103F036F963
:10237000082524F07F0303F0FF01172003B101219A
:1023800003F02CF90121162003F028F9022003F0B4
:1023900091F91620002103F021F9013D022064008B
:1023A00003F088F915F0FF05E4B2E2D138BDF8B5C5
:1023B00005460F46FFF739FF0826002400211620A6
:1023C00003F00CF9022003F075F91620012103F047
:1023D00005F964001720E4B203F0EAF808B101340B
:1023E000E4B20120013E03F065F916F0FF06E5D1E5
:1023F000284617B9FFF770FF01E0FFF750FF2046AE
:10240000F8BD032001F05EBD70B55E480D46097849
:1024100000F06FFD697806465A4800F06AFD06EB49
:102420008606594C06EB860600EB8600E080A9780C
:10243000544800F05EFD6071E978524800F059FDA3
:10244000207129794F4800F054FD6979A0704D48FA
:1024500000F04FFDA97960704A4800F04AFD4B49F1
:1024600020704B4802F005FFE1880A22484802F03C
:1024700090FF4849464802F0FCFE61790A22444830
:1024800002F0A8FF4449424802F0F3FE21790A22F3
:102490003F4802F09FFF41493D4802F0EAFEA17823
:1024A0000A223B4802F096FF3D49394802F0E1FE1E
:1024B00061780A22364802F08DFF3A49344802F02A
:1024C000D8FE0A222178324802F084FF01F0F0FFA2
:1024D000642003F0E1F82046FEF758F9014632483F
:1024E00001F00EFC642003F0D7F801F0E7FF2E485E
:1024F00001F009FC01462046FEF7BCF8E1886423A0
:10250000B1FBF3F1C9B21F4800F0EAFC2870E28881
:102510004FF47A73B2FBF3F103FB11211948C9B2EE
:1025200000F0DEFC68706179164800F0D9FCA870F4
:102530002179144800F0D4FCA178E870114800F02B
:10254000CFFC617828710F4800F0CAFC21786871CF
:102550000C4800F0C5FC0024A871295D10220C482D
:1025600002F02FFF01340A48104902F082FE072CC6
:10257000F3D1074802F082FEBDE8704004480C49E0
:1025800002F092BE85140020381400206EDD000891
:10259000A414002075DD00087DDD000883DD00083F
:1025A0008ADD000894DD000842140020E6E10008FE
:1025B0009EDD000870B51C480D4601F0A4FB1B4CC5
:1025C00001462046FEF756F8E188194E6423B1FB18
:1025D000F3F1C9B2304600F083FC2870E2884FF472
:1025E0007A73B2FBF3F103FB11213046C9B200F05C
:1025F00077FC68706179304600F072FCA870217930
:10260000304600F06DFCA178E870304600F068FCC0
:1026100061782871304600F063FC2178687130469B
:1026200000F05EFCA87170BD421400203814002038
:102630008514002070B54C4886B0FEF7A7F8044614
:1026400001F036FF0A2003F027F82146474801F041
:1026500057FB464801F057FB05464548FFF7C5FDC7
:10266000444E002859D04248FFF7B2FD4AF6B10364
:10267000A0F10F029A42044619D93F49684603F077
:1026800062F8694603A803F07FF8B42103A803F0B9
:102690000AF93A4903F0EBF80146394802F0FAFD2D
:1026A00003A803F00EF8684603F00BF8B42433785F
:1026B000012B0BD1B4F5966F03D9254468463149F7
:1026C00015E005F5966503A82F4938E0022B0BD1DC
:1026D000B4F5166F03D9254468462C4907E005F583
:1026E000166503A82A492AE02A492544684603F0CA
:1026F0002AF8694603A803F047F8214603A803F027
:10270000D2F81E4903F0B3F801461D4802F0C2FD9D
:1027100003A802F0D6FF684618E03378012B04D1F5
:1027200005F5966503A81C4909E0022B04D105F5BF
:10273000166503A8194902E01949B43503A803F046
:1027400002F80F4803A902F0A5FD03A802F0B9FFA3
:1027500014492A46054801F0D8FA0A2002F09CFFE5
:1027600001F0ACFE06B070BD381400204214002009
:102770003314002040140020C1DD0008C7DE00082B
:10278000A414002035DE00087EDE0008C9DE000843
:102790001BDF00086FDF0008BBDF000830E0000827
:1027A000AEE000080324000830B5154885B0FDF7F9
:1027B000EDFF144C054601F07BFE0A2002F06CFF91
:1027C0002946204601F09CFA204601F09CFA0E4969
:1027D000054601A802F0B7FF01A90C4802F05AFD16
:1027E00001A802F06EFF0A4905F56162204601F07A
:1027F0008CFA0A2002F050FF01F060FE05B030BDF7
:10280000381400204214002025E10008A414002000
:10281000032400080148112101F069BA4214002084
:1028200070470120704701207047000010B5FF235A
:1028300001441A46884208D010F8014B5440044A1B
:10284000125D5A40034B1B5DF4E743EA022010BDC2
:10285000090000200B01002070B5094D094C064607
:1028600022782978084801F0F5F82878012102F04B
:10287000B5FE2078012102F0B1FE304670BD00BFE8
:10288000090100200A0100207414002010B5064C34
:10289000204601F072F9204601F07BF9D0F10100E9
:1028A00038BF002010BD00BF7414002010B54A21AD
:1028B00004460548FFF7EAFF28B1236820461B6855
:1028C00001219847012010BD8414002070B5094CE7
:1028D000154620461E4601F050F92946204601F0D3
:1028E0005DF92046314601F059F92046BDE87040B7
:1028F00001F04FB974140020F8B5134814461E4671
:102900000F469DF8185001F038F921460E4801F0A5
:1029100045F90D4801F03DF90B4CA5B12A4620467A
:10292000394601F03FF90022237A551C33B106489D
:10293000D7B201F045F92A46F055F5E70248BDE85F
:10294000F84001F026B9F8BD74140020F0B51C461B
:1029500085B0012300930DF10F03154607460E467F
:10296000FFF7CAFF9DF80F309DF8282023EA0403E3
:1029700014402343384631462A468DF80F30FFF77E
:10298000A5FF05B0F0BD000013B5002471B1012210
:1029900013460B484A210094FFF7D8FF4A210094C0
:1029A000074802224023FFF7D1FF8021009104480D
:1029B0004A2102228023FFF7C9FF02B010BD00BFE9
:1029C0008414002008B51E220F481F2101F042F890
:1029D00038210D4801F0D1F806210B4801F0DEF84E
:1029E000094801F0D6F84FF4FA7002F055FE074896
:1029F000FFF75CFF10B10648064901E004480649AC
:102A0000BDE8084002F050BC94140020441400209B
:102A1000A4140020B0E10008C9E100080000000093
:102A2000F0B5334C85B00D461646FFF7CBFF392184
:102A30000122204601F0B6F8012002F02DFE277A8F
:102A40001FB1204601F0BCF8074638210122284872
:102A500001F0A8F8012002F01FFE207A10B12448EE
:102A600001F0AEF840EA072004F0C6FA1EA3D3E94D
:102A7000002304F037FB04F0F7FD1E4930601E48C8
:102A800002F0F7FB31680A221B4802F0B6FC022371
:102A900000931A4803AB4A210322FFF72DFF9DF84C
:102AA0000D209DF80C3002F00F0242EA03122D2196
:102AB000D2B24A431B0902FA03F34FF47A72B3FB12
:102AC000F2F32B600E490C4802F0D3FB29680A226E
:102AD000094802F09CFC0B49074802F0E5FB05B0F1
:102AE000F0BD00BFAFF300800AD7A3703D0A773F67
:102AF00094140020E2E10008A414002084140020B3
:102B0000E8E10008FFE1000808B50348FFF7A4FE6C
:102B1000024A034B1A6008BD8414002088E10008B3
:102B2000441400202DE9F0431746504A87B010683E
:102B3000884651681E4603AD01AB03C30A2200213B
:102B4000284605F0DBFF9DF8383006AC04F8143D4C
:102B500020460621FFF76AFE030A8DF80B00444861
:102B60008DF80A30036821469B6808229847642044
:102B700002F092FD00243E4802F04EFA00285FFA6F
:102B800084F90EDD092C06D13A483B4902F08CFB52
:102B90004FF0000905E0364802F0EAF92855013403
:102BA000E9E73448354902F07FFBB9F1000F0FD156
:102BB0003349304802F078FB2E48304902F074FB6C
:102BC0009DF80C909DF81440B9F1000F0ED019E05B
:102BD00000244C45ECD2295D1022264802F0F1FB7E
:102BE0002448284902F045FB0134F2E70DF10D00BD
:102BF0000721FFF71BFE9DF8153043EA04248442A9
:102C00000AD10EE028460721FFF710FE9DF8133089
:102C100044EA032484420FD000234FF6FF741A487D
:102C20001CE09DF811309DF810009DF8124043EA19
:102C300000209DF8133009E09DF810309DF80F003A
:102C40009DF8114043EA00209DF8123043EA042425
:102C500004F030FE0D4904F039FFE30BC8F8000022
:102C60003C60337007B0BDE8F08300BFA0E100080E
:102C7000D4140020A414002004E2000825E2000877
:102C800025E70008E6E1000800FF7F470000C84292
:102C90002DE9F04116463C4A86B010680F4651684F
:102CA00001AC03AD984603C40A2206AC00212846B5
:102CB00005F024FF04F8148D20460621FFF7B6FD29
:102CC000030A8DF80B0031488DF80A30036821465D
:102CD0009B6808229847642002F0DEFC00242B4801
:102CE00002F09AF900285FFA84F80EDD092C06D16B
:102CF0002748284902F0D8FA4FF0000805E0234899
:102D000002F036F928550134E9E72148224902F05A
:102D1000CBFAB8F1000F17D120491D4802F0C4FAD0
:102D20001D491B4802F0C0FA28460721FFF77EFD27
:102D30009DF813209DF8143043EA0223834211D0FA
:102D40004FF6FF731A4619E00024295D102210483F
:102D500002F037FB01340E48114902F08AFA092CBF
:102D6000F3D1D9E79DF812309DF811209DF80F108E
:102D700043EA02229DF8103043EA01233A603360AF
:102D800006B0BDE8F08100BFA8E10008D41400201F
:102D9000A414002041E2000865E2000825E70008CD
:102DA000E6E1000873B50121434D082002F016FC4E
:102DB000642002F071FC284600F0B8FD3F4C01266B
:102DC0002060642002F068FC284600F0C1FD3C4D04
:102DD000A060642002F060FC04F1180104F110020C
:102DE00004F1140300962846FFF79CFE642002F0CD
:102DF00053FC334604F11C0104F120022846FFF77E
:102E000047FF642002F048FC04F1240204F10C01A5
:102E10002846FFF705FE2B4D642002F03DFC0820FC
:102E2000002102F0DBFB2846274902F022FA206845
:102E300004F004F9022602460B460096284602F0EA
:102E40009BFB2846214902F014FAA06804F0F6F82A
:102E5000009602460B46284602F08EFB28461C4987
:102E600002F007FA23696421B3FBF1F10A22284634
:102E700002F0C3FA2846174902F0FBF9A06904F0F2
:102E8000DDF800960B460246284602F075FB284600
:102E9000114902F0EEF9E1690A22284602F0ADFA82
:102EA00028460E4902F0E5F9216A28460A2202B0B6
:102EB000BDE8704002F0A1BA881400204C14002034
:102EC00048140020A41400208AE200089EE20008B2
:102ED00084E2000898E20008A9E20008B6E20008CF
:102EE0000A22B1FBF2F302FB131202EB0310C0B291
:102EF000704701F00F03090901EB810103EB410069
:102F0000C0B2704737B50C460C480DF10701FEF70B
:102F1000A2FE9DF807304FF47A705843084902F03A
:102F20007EFB9DF80730054664205843054902F0B2
:102F300076FB2844206003B030BD00BF371400206A
:102F400080841E00400D030070B50E461546002417
:102F5000E3B2AB42074809D2315D102202F031FAE8
:102F60000448054902F085F90134F1E7BDE87040F5
:102F700002F084B9A4140020E6E1000830B595B051
:102F800040220546002104A805F0B8FD002414A93C
:102F900041F8504D28466946FFF7B4FF009802F00B
:102FA00089FBFE238DF81030E0238DF811301123BA
:102FB0008DF8123024238DF8133001238DF815304D
:102FC000444B8DF814401B7803B1552342488DF8CB
:102FD0001630FFF7B4F801AC8DF8170021463E48D3
:102FE000FFF750F8002304AA1A44E15C0133052BD3
:102FF0001172F8D139482146FEF7D5FD002304AA05
:103000001A44E15C0133092B5173F8D100240123E8
:10301000222133488DF826308DF827408DF828403E
:103020008DF829408DF82A408DF82B408DF82C40E2
:103030008DF82D408DF82E408DF82F40FEF7D0FFF3
:1030400023218DF830002648FEF7CAFF24218DF891
:1030500031002348FEF7C4FF25218DF832002048B7
:10306000FEF7BEFF24218DF8330005A88DF834400B
:103070008DF835408DF836408DF8374000F0FDFD75
:103080008DF83800E30704AB234404F1010454BF76
:103090000D220A22062C83F82920F3D11149124867
:1030A00002F002F904A928462F22FFF74DFF0F482E
:1030B000FEF706F80E4804A903682F229B6898477C
:1030C0004FF4FA7002F0E8FA0848FEF709F815B074
:1030D00030BD00BF2014002034140020371400201D
:1030E00035140020C3E20008A4140020301400208E
:1030F000BC14002030B587B014220446002101A87A
:1031000005F0FCFC002506A941F8185D204669463B
:10311000FFF7F8FE009802F0CDFAFE238DF8043098
:10312000E0238DF8053013238DF8063005238DF844
:10313000073001238DF809301E4B8DF808501B789D
:1031400003B155231C488DF80A30FEF7F8FF012320
:103150008DF80B00052102A88DF80C3000F08DFDD4
:1031600000238DF80D00DA0701AA1A4403F10103C8
:1031700054BF0D210A21062B9172F4D10F4910483A
:1031800002F092F801A920461022FFF7DDFE0D485B
:10319000FDF796FF0C4801A9036810229B68984729
:1031A0004FF4FA7002F078FA0648FDF799FF07B07D
:1031B00030BD00BF2014002034140020DFE20008DE
:1031C000A414002030140020BC14002030B58DB0B1
:1031D0001E220546002104A805F090FC00240CA93D
:1031E00041F8244D2846ADF80840FFF78BFE0398C0
:1031F00002F060FA344B0094344802A90122FEF731
:10320000CBF9FE238DF81030E0238DF81130142314
:103210008DF8123012238DF8133001238DF81530FC
:103220002B4B8DF814401B7803B1552329488DF89A
:103230001630FEF784FF01238DF81830264B00244A
:103240001B788DF817009DF8081024488DF8193068
:103250008DF81A408DF81B40FFF74BFE9DF80910C2
:103260008DF81C001D48FFF744FE12218DF81D004B
:1032700005A800F002FD23468DF81E00DA0704AA17
:103280001A4403F1010354BF0D210A21062BD17307
:10329000F4D11349134802F007F804A9284615226F
:1032A000FFF752FE1048FDF70BFF104804A9036812
:1032B00015229B6898474FF4FA7002F0EDF90A481E
:1032C000FDF70EFF0DB030BD05E3000831140020FE
:1032D00020140020341400208714002085140020BE
:1032E0000FE30008A414002030140020BC140020B8
:1032F000F0B589B005460F4616460021192201A8EF
:1033000005F0FCFB002408A941F8204D2846694639
:10331000FFF7F8FD009802F0CDF9FE238DF8043098
:10332000E0238DF8053015238DF806300E238DF837
:10333000073001238DF809302A4B8DF808401B789F
:1033400003B1552328488DF80A30FEF7F8FE002413
:103350008DF80B00012302A80E218DF80C308DF89A
:103360000D708DF80E408DF80F408DF810408DF8DF
:1033700011408DF812408DF813408DF814408DF8EF
:10338000154000F07AFC8DF81600E30701AB2344EA
:1033900004F1010454BF0D220A22062CDA74F4D180
:1033A0001249134801F080FF284601A91922FFF7AE
:1033B000CBFD1048FDF784FE0024E3B2B3420BD2EC
:1033C0000D4801A9036819229B6898474FF4FA70C9
:1033D00002F062F90134F0E70648FDF781FE09B01A
:1033E000F0BD00BF201400203414002029E30008A1
:1033F000A414002030140020BC140020F0B50024D8
:10340000ABB021460546142205A8019405F076FBD1
:10341000802221460AA805F071FB2AA941F8A04D97
:103420002846FFF76FFD029802F044F9C348FFF702
:10343000B9FCFE238DF82830D0238DF829300126E1
:103440003023BF488DF82B308DF82C408DF82A6042
:103450008DF82D60FDF74CFEBA4C030A27688DF8F5
:103460002F00B94938468DF82E3004F037FC28B1CA
:10347000FF238DF830308DF831301AE038460021C6
:1034800004F00EFC18B107F10047276000E0064683
:10349000022301A821680422FDF766FA9DF8043092
:1034A0008DF830309DF805308DF831300EB1F223B3
:1034B00000E0E223A6688DF8323030460023019305
:1034C00004F016FC0138632803D9FF238DF833304C
:1034D0000BE0022301A831460422FDF745FA9DF8CE
:1034E00004308DF833309DF805308DF834300021EC
:1034F000E223142205A88DF83530019105F0FEFA7B
:10350000E268924B9A4207D9FF238DF836308DF846
:1035100037308DF8383019E08D4905A805F056FD93
:1035200005A805F0D7FD05A9024601A8FDF7E4F9B5
:103530009DF804308DF836309DF805308DF8373021
:103540009DF806308DF838309DF80730606A8DF8A8
:103550003930E023FF228DF83A300026E123642839
:103560008DF83B208DF83C208DF83D208DF83E20D5
:103570008DF83F30019604D98DF840208DF8412018
:103580000FE004F097F933460146042201A8FDF745
:10359000EBF99DF804308DF840309DF805308DF83A
:1035A0004130E02220698DF842208DF845208DF8C9
:1035B00048204FF6FE72FF2390428DF843308DF87D
:1035C00044308DF846308DF8473002D98DF84930B7
:1035D00016E05C4B1B7D012B08BFC0F5803004F06A
:1035E00069F95C4904F072FA02230146042201A839
:1035F000FDF7BAF99DF804308DF849309DF8053093
:103600008DF84A30237DA669012B0CBFF223E223FB
:103610008DF84B3030460023019304F069FB642899
:1036200003DDFF238DF84C300BE0022301A8314667
:103630000422FDF799F99DF804308DF84C309DF87F
:1036400005308DF84D30206AE2238DF84E304FF66C
:10365000FE7300269842019603D9FF238DF84F3060
:103660000DE004F027F933460146042201A8FDF7D6
:103670007BF99DF804308DF84F309DF805308DF8BA
:103680005030E069E0238DF851304FF6FE7300268C
:103690009842019603D9FF238DF852300DE004F0D3
:1036A00009F933460146042201A8FDF75DF99DF8AA
:1036B00004308DF852309DF8053003AC8DF853304E
:1036C0002548E02321468DF85430FEF773FF002390
:1036D0000AAA1A44E15C0133072B82F82D10F7D1B6
:1036E0000BA8302100F0C9FA00238DF85C00DA073E
:1036F0000AAA1A4403F1010354BF0D210A21062B23
:1037000082F83510F3D11549154801F0CDFD0AA90D
:1037100028463B22FFF718FC0948FDF7D1FC114869
:103720000AA903683B229B6898474FF4FA7001F09E
:10373000B3FF0348FDF7D4FC2BB0F0BD48140020C4
:10374000301400204C14002000001643400D0300EC
:1037500041E300080000C8424114002047E300088C
:10376000A4140020BC1400202DE9F84300240F46C7
:103770009046994625464C4513DA5FFA88F60121B2
:10378000304601F02BFF0A2001F086FFF8B201F06D
:103790000FFF002100EB4505304601F01FFF01340B
:1037A000E9E72846BDE8F88370B5D4B21D46EDB20E
:1037B0000E462046002102F081F82846002102F042
:1037C0007DF82046012101F009FF2846012101F082
:1037D00005FF2046002101F001FF2846002101F0ED
:1037E000FDFE2846012101F0F9FE2046012101F0ED
:1037F000F5FE2846002101F0F1FEF3B20122204639
:10380000294601F017FF2846012101F0E7FE204676
:10381000022102F053F8204601F0CAFE284600219A
:1038200001F0DCFE2046BDE8704001F0C1BE38B5B5
:10383000CDB22846022102F041F864240A2001F0AA
:103840002BFF284601F0B4FE08B1013CF6D138BD8B
:103850002DE9F843CCB2154680460E46EFB220461D
:10386000022102F02BF83846002102F027F82A4600
:10387000082331464046FFF777FF00214FEA002931
:10388000204602F01BF82046012101F0A7FE204649
:10389000002101F0A3FE3846012101F09FFE3846C9
:1038A000002101F09BFE2046022102F007F840466D
:1038B00031462A460823FFF757FF49EA0000BDE8D2
:1038C000F88338B51446CDB2E4B22846002101F0A1
:1038D000F5FF2046002101F0F1FF2846012101F00B
:1038E0007DFE2046012101F079FE20460021BDE841
:1038F000384001F073BE38B590E80C00044603214F
:10390000FFF752FF20462168FFF791FF94E8060079
:103910002046FFF79DFF94E8060005462046FFF786
:10392000D0FF284603F0CAFF38BD000008B5FFF7F6
:10393000E2FF04F0DDF903F0C1FF034904F012F8DF
:10394000024903F005FF08BD0AD7233C00002042CE
:10395000F8B590E80C0004460521FFF725FF204646
:103960002168FFF764FF94E806002046FFF770FF28
:1039700094E8060005462046FFF7A3FF284603F01B
:103980009DFF1E49064603F0EDFF4FF0814103F015
:10399000DFFE1B490546304603F0E4FF314603F0E5
:1039A000E1FF0146284603F0D5FE07462046FFF713
:1039B000BDFF03F043FB0022124B03F0DFF9044686
:1039C0000D463046104903F0CDFF104903F0C2FE0A
:1039D00003F034FB02460B462046294603F082FBE7
:1039E000044638460D4603F029FB02460B462046A6
:1039F000294603F0C5F903F057FEF8BD54E3253D11
:103A0000A2E73BB600003940ACC5A7380AD7233C33
:103A1000024B1D211C2283E80600704788140020F9
:103A20000A4B1A680A4B9B6800BF00BF0749096828
:103A30008A42F5D1C3F58C33482103F5A073B3FB5B
:103A4000F1F34FF47A7000FB0230704788150020C4
:103A500010E000E010B5044680E80600D0B2002176
:103A600001F02CFF2078002101F028FF00232079AD
:103A7000E360012101F0B2FD20780121BDE8104092
:103A800001F0ACBD38B5C36804460D4623B1002132
:103A9000C160007801F012FF20782946BDE8384067
:103AA00001F09CBD10B500210446FFF7EBFF642038
:103AB00001F000FE2079002101F090FDBDE81040EA
:103AC000642001F0F7BD10B500210446007901F033
:103AD00085FD642001F0EEFD20460021FFF7D2FFB6
:103AE000642001F0E7FD2079012101F077FD6420D9
:103AF00001F0E0FD20460121FFF7C4FFBDE81040C2
:103B0000642001F0D7BDF8B504460E460825F70934
:103B10002079002101F062FD20463946FFF7B2FF0F
:103B20000121207901F05AFD642001F0C3FD2046F7
:103B30003946FFF7A7FF7600013DF6B2E7D12946E7
:103B4000207901F04BFD2078022101F0B7FE02231D
:103B5000E3602079012101F041FDFFF761FF054697
:103B6000207801F025FD30B1FFF75AFF401B642893
:103B7000F6D90020F8BD0120F8BD38B50D46044641
:103B8000FFF790FF6900204601F0FE01FFF7BBFF41
:103B900038BD08B5FFF797FF002008BD08B5FFF74F
:103BA000B2FF08BD70B50D466D0004461646FFF71E
:103BB00079FF691CA6602046C9B2FFF7A4FF70BD5B
:103BC00070B586680446002E55D00078022101F0B9
:103BD00075FE0223E360082500262079002101F00C
:103BE000FDFC0121207901F0F9FC642001F062FD67
:103BF000207801F0DDFC013D00EB460000F0FF06FF
:103C0000EBD1A3686068013B002BA360C0B22946DA
:103C100017DD01F0E3FC642001F04CFD294620464D
:103C2000FFF730FF642001F045FD2079012101F00C
:103C3000D5FC642001F03EFD2079294601F0CEFC40
:103C400019E001F0CBFC642001F034FD0121204695
:103C5000FFF718FF642001F02DFD0121207901F00C
:103C6000BDFC642001F026FD2079294601F0B6FC58
:103C70002046FFF728FF304670BD002330B50546CB
:103C800018468B420FDAEA5C5040082210F0010F10
:103C90004FEA60041ABF84F0E000C0B2E0B2013A1B
:103CA000F4D10133EDE730BD122938B5054614468D
:103CB00008460BD0132910D0112916D100F07CF83A
:103CC0000CB120460FE047F6FF700CE000F074F8EE
:103CD000002CF6D149F63F4005E000F06DF8002CCD
:103CE000EFD14FF2234000F06BF9284638BD13B5F1
:103CF0000022044601A8FFF7D7FF204602B010BDFE
:103D0000084600F043B900F02FB910B510460C4634
:103D100000F070F921460320BDE8104000F0A2B881
:103D2000054B1B681B685B0103F1844394331A68DD
:103D3000002AFCD0704700BF0C020020054B1B6816
:103D40001B685B0103F184438C331A68002AFCD0A2
:103D5000704700BF0C02002008B5FFF7E1FF054BDC
:103D600000221B681B685B0103F18443C3F88C20AD
:103D700008BD00BF0C02002008B5FFF7D1FF054BBE
:103D800001221B681B685B0103F18443C3F8902088
:103D900008BD00BF0C02002008B5FFF7C1FF054BAE
:103DA00000221B681B685B0103F18443C3F8902069
:103DB00008BD00BF0C02002010B5044600F06BFBEC
:103DC00000F076FB204A112C136A23F4407313622F
:103DD00013460BD005D8C4B1102C2AD1002313628E
:103DE00027E0122C11D0132C1AD022E0174A002100
:103DF0001160012142F8081C154A126812F0FF0FE9
:103E0000FAD01A6A42F4807212E0124A012111605B
:103E1000114A1268002AFBD01A6A42F4007207E0C5
:103E20000E4A126812F0FF0FFAD01A6A42F440727A
:103E30001A620B4B01221A60FFF78EFFFFF77EFF1D
:103E4000BDE81040FFF76CBF00100240080442427A
:103E500004044242800442428404424244004242FA
:103E60003C04424238B5144D04462B6803EB8003F2
:103E70005960FFF755FF032C09D1104A0123136045
:103E8000C2F800310E4B4FF400725A6038BD2B68F7
:103E900001221B68944204EBC3034FEA830303F13E
:103EA00084431A6003D002D3022C00D038BD044BE7
:103EB00008221A6038BD00BF0C0200204480204256
:103EC00000E100E010B50446FFF72AFF032C0B4B7E
:103ED00005D10B4900220A60C1F8002108E01A68E8
:103EE0000021126804EBC202920002F184421160C8
:103EF0001B6803EB84040023636010BD0C020020E8
:103F000044802042F8B5104B1E6835682B686F68F6
:103F10001F4017F0010403D074680CB1A0470124BE
:103F2000BA0704D5B36813B1984744F002047B077D
:103F300004D5F36813B1984744F004046B6823EA8E
:103F400004046C60F8BD00BF0C02002008B5044BEF
:103F50001B681B691BB19847024B01221A6008BD00
:103F60000C020020C482204208B5FFF7F5FEFFF7DF
:103F7000E5FEFFF7D5FE044B1B681B689869DB69FB
:103F80009BB243EA004008BD0C02002010B5044675
:103F9000FFF7E2FEFFF7D2FEFFF7C2FEFFF7ECFEEF
:103FA000064B220C1B68A4B21B689A61DC61FFF708
:103FB000F3FEBDE81040FFF7B3BE00BF0C020020C7
:103FC00010B50446FFF7C8FEFFF7B8FEFFF7A8FEDE
:103FD000FFF7D2FE064B220C1B68A4B21B689A6046
:103FE000DC60FFF7D9FEBDE81040FFF799BE00BFC7
:103FF0000C02002010B50446FFF7AEFEFFF79EFE50
:10400000FFF78EFEFFF7B8FE064B220C1B68A4B22A
:104010001B681A625C62FFF7BFFEBDE81040FFF745
:104020007FBE00BF0C020020704700000B4B10B594
:10403000196809220A230A4801F002F8094B0222F2
:1040400019680948032300F0FBFFBDE81040074B47
:10405000074819681A221B2300F0F2BF3003002022
:10406000A414002034030020BC14002038030020D6
:10407000D414002010B5044600F0F2F9034B20469A
:104080001978BDE8104000F077B900BF2802002081
:10409000F8B50446056800F0D9FB226800235101F9
:1040A00001F184410B60802129600121A9622B610B
:1040B000EB606379696113B18B4203D02BE04FF45D
:1040C00000436B644FF6FF73D36200256E1CF7B29A
:1040D0002046394600F0C4FBD0B1236848F6FF7192
:1040E00003F1340242F8251018336D1017F0010F58
:1040F00053F8252014BF6FF0FF016FF47F4101EAF0
:10410000020214BF68214FF4D0410A4343F825202E
:10411000042E3546DAD1216801224B01490103F111
:10412000844301F18441C3F880220A60F8BD000095
:1041300038B5274B274C1A68022042F010021A604B
:1041400000F0C2F90025002000F08CFA65602368B9
:10415000182023F40023236000F091FA102000F0CF
:104160008EFA00F043F8A560102000F07BFA1020D2
:1041700000F0A2FA0028FAD000F039F8164800F052
:10418000A7FA182000F06EFA182000F095FA00281F
:10419000FAD0022000F056FA00214FF0006000F043
:1041A00003FA0E4800F00AFB00F038F80C4B1888B0
:1041B00000F044F90B4800F045F90B4800F032FBE1
:1041C00000F02EF800F02DF8FFF72EFF38BD00BFED
:1041D00000200240001002402C0200203F19010084
:1041E0002A0200207540000891400008704708B579
:1041F0000020014600F0BAFA01204FF4806100F07F
:10420000B5FA0021022000F0B1FA2D2000F0BEFA2C
:10421000BDE808400320002100F0A8BA00F05EB914
:10422000704700F09BB9000001498D4601490847DD
:10423000005000203942000808B5124B124A196894
:10424000914201D0002301E0104B07E01048D41840
:104250008442F9D2C858D0500433F7E70D4A93424C
:1042600003D2002243F8042BF8E704F097F800206B
:104270000146024600F0CCFF074B0BB104F07EF87C
:10428000FEE700BF2CE900080000002078130020A2
:1042900078130020901500207D83000808B50D4B91
:1042A0001A680AB90C4A1A601B680C4AD21A824270
:1042B00004DB09494242591A914206DA04F058F8DF
:1042C0000C2303604FF0FF3008BD024A1844106011
:1042D000184608BDEC140020901500206825012820
:1042E000FEE70000000000000000000000000000E9
:1042F000012007E0022005E0032003E0042001E0A4
:104300000520FFE70D4A0121116072B60C4A002119
:104310001160074902B4084902B486B005498E46C7
:10432000704700BFAFF30080AFF30080AFF30080B1
:1043300000000061F9FFFFFFF94E000814ED00E0F6
:1043400010E000E0AFF30080AFF30080AFF3008037
:10435000FEE710B50446007900F0D6F92079BDE8F3
:10436000104000F0E9B903689A6822F4602242F430
:104370008012114399607047002370B51A461C469D
:10438000072B4FEA430503DCEE1801FA06F6344327
:104390001D4401FA05F501330A2B42EA0502EFD16B
:1043A0000368DC601A6170BD0368DA6A22F0F87293
:1043B000DA6259639A6842F480029A601A68920736
:1043C000FCD5D86C80B2704738B5124D2A68136896
:1043D0001C68A10706D5196821F0020119609368CD
:1043E00003B19847620708D52B681A681B691168E2
:1043F00021F00401116003B19847E30708D52B6849
:104400001A68DB68116821F00101116003B1984757
:1044100038BD00BF58020020036801225B0103F190
:10442000844303F58673191F1A6018680028FCD1AD
:1044300043F8042C0B68002BFCD170470146042084
:1044400000F094B9044B10B504461868A047034B1C
:104450001868A04710BD00BF580200205402002079
:1044600010B50446FFF775FF20464FF46021FFF7B3
:104470007AFF2368012103F1404308335A015B01AD
:1044800002F1844203F18443116520461960BDE8BE
:104490001040FFF7C1BF08B5142000F035F9042023
:1044A00000F032F9BDE80840042000F045B90000F2
:1044B000014B01221A60704720000E42014B00227E
:1044C0001A60704720000E42034B1A6822F0070260
:1044D00010431860704700BF0020024008B507482D
:1044E00001F093FA064801F090FA064801F08DFABF
:1044F000BDE80840044801F088BA00BF5C02002013
:10450000640200206C0200207402002070B501F0EB
:104510000704A4000F25A5400368C80853F82060CD
:10452000092A26EA050514BF1646082606FA04F4E9
:10453000082A44EA050443F8204006D1012000FA85
:1045400001F1DA6822EA010106E0092A05D1012019
:1045500000FA01F1DA681143D96070BD08B5032093
:1045600000F0D2F8BDE80840032000F0E5B80000F4
:10457000024B4AF6AA221A60704700BF0030004082
:1045800000284FEA011105DA064B00F00F00C9B20E
:104590001954704700F16040C9B200F5614080F8DD
:1045A0000013704714ED00E021F0604138B521F0B0
:1045B0007F01084B0843986000241D4660B20F211C
:1045C0000134FFF7DDFF2B2CF8D1F02385F82330E1
:1045D00038BD00BF00ED00E0044A054BD16801F48E
:1045E00040710B43D360BFF34F8FFEE700ED00E057
:1045F0000400FA05014B1860704700BFA0000E428E
:10460000074B1A6842F001021A601A6842F002026F
:104610001A60044B1A6942F004021A6130BF7047F5
:104620000070004000ED00E0024B1A6842EA800092
:104630001860704700700040014B13F8100070477D
:1046400008E60008064B5A6822F0030202435A604B
:1046500080005A6802F00C028242FAD1704700BF13
:1046600000100240030A0121C0B201FA00F003F178
:10467000804303F504331A68104318607047030A37
:104680000121C0B201FA00F003F1804303F50433C5
:104690001A6822EA000018607047030A0122C0B2BB
:1046A00002FA00F003F1804303F504331B6818425B
:1046B0000CBF002001207047030A0222C0B202FA98
:1046C00000F003F1804303F504331B681840704782
:1046D00038B54368044618201D68FFF7DEFF20B197
:1046E00006488121064A00F011FC064B21685A68F1
:1046F0000D4322F4741215435D6038BD98E500083F
:10470000ECE500080010024010B50446FFF794FFE6
:10471000074B53F82020074B03EB4404637803EB6B
:10472000C2039B0003F1844301221A6010BD00BF45
:104730007C02002008E6000810B50446FFF77CFF65
:10474000084B53F82020084B03EB4404637803EB39
:10475000C2039B0003F1844301221A6000221A6005
:1047600010BD00BF8802002008E6000810B5054B08
:10477000054C5A6854F8200022EA0002114359609F
:1047800010BD00BF0010024064E6000810B50446EA
:10479000FFF752FF074B53F82020074B03EB44046D
:1047A000637803EBC2039B0003F1844300221A6089
:1047B00010BD00BF9002002008E60008024B07224F
:1047C00058601A60704700BF10E000E008B5044B65
:1047D0001A6801321A60034B1B6803B1984708BD81
:1047E00088150020F014002011F0010F70B542EA86
:1047F00003030CBF0825002503FA05F5006801F145
:10480000FF3400F11800C4F3400450F8241014BF22
:104810006FF0FF066FF47F463140294340F82410C3
:1048200070BD000010B504460448A0470448A047E6
:104830000448A0470448A04710BD00BFE402002080
:104840000C0300209C020020C002002010B504468A
:104850000079FFF759FF2079BDE81040FFF76CBFE2
:1048600003791E2B10D9212B0ED0202B0ED9222BF1
:1048700001D0252B04D102298CBF002001207047D4
:104880004B1E584258417047012070470020704726
:104890008B1C40F823200368012203F140430C33B2
:1048A00001EBC3039B0003F184431A60427903794F
:1048B000FAB9B3F11A025342534107294BD8DFE842
:1048C00001F004090909090E0E13002B0CBF2C235B
:1048D000192337E0002B0CBF2E231B2332E0002BC3
:1048E0000CBF2D231A232DE0002B0CBF2B231823E4
:1048F00028E01B3B0C2B1CD8DFE803F02123070921
:104900000B0D1B0F1113151719001E231AE032236C
:1049100018E0362316E0372314E0182312E0192399
:1049200010E01A230EE02B230CE02C230AE02D23A9
:1049300008E0094840F2BF11084A00F0E7BA1C231A
:1049400000E01D235909012203F01F0302FA03F3BB
:10495000034A42F82130704778E600085FDB000820
:1049600000E100E00368002203F140430C3301EB57
:10497000C3039B0003F1844302311A6040F82120F5
:1049800070470000F8B54E1EF3B2032B04460D46E7
:10499000174604D92648DA21264A00F0B7FA637987
:1049A000022B43D0032F41D8DFE807F00212223553
:1049B00020462946FFF7D6FF236803F14043203302
:1049C000DB0003EB8606B60006F18446002320E0F8
:1049D0002368002203F140430C3305EBC3039B0023
:1049E00003F184431A60204629466022082303E02D
:1049F0002046294610220023FFF7F6FE236803F124
:104A000040432033DB0003EB8606B60006F1844604
:104A100001233360F8BD23684FF2F1229A6103222B
:104A20009A605B0103F1844301221A60F8BD00BF64
:104A300078E60008CBE6000810B5074B1C68E16873
:104A400022690A40120606D55B6A23B1984723699A
:104A500023F08003236110BDE402002010B5074B52
:104A60001C68E16822690A40D20706D59B6823B119
:104A70009847236923F00103236110BDE40200205D
:104A8000F8B50C4F3D68EB682E691E4016F04004E7
:104A900003D03C6A0CB1A0474024B30604D5FB699F
:104AA00013B1984744F020042B6923EA04042C61D5
:104AB000F8BD00BFE4020020F8B5134F3E68F3686C
:104AC00035691D4015F0100403D0BC690CB1A04736
:104AD0001024290704D57B6913B1984744F00804D2
:104AE0006A0704D53B6913B1984744F00404AB0747
:104AF00004D5FB6813B1984744F00204336923EAF4
:104B000004043461F8BD00BFE4020020F8B51A4E79
:104B10003768FB683D691D4015F0400403D0346AD6
:104B20000CB1A0474024EB0604D5B36913B19847F4
:104B300044F01004280704D5736913B1984744F072
:104B40000804690704D5336913B1984744F0040495
:104B5000AA0704D5F36813B1984744F00204EB07A1
:104B600004D5B36813B1984744F001043B6923EAC4
:104B700004043C61F8BD00BF0C030020F8B51A4ED8
:104B80003768FB683D691D4015F0400403D0346A66
:104B90000CB1A0474024EB0604D5B36913B1984784
:104BA00044F01004280704D5736913B1984744F002
:104BB0000804690704D5336913B1984744F0040425
:104BC000AA0704D5F36813B1984744F00204EB0731
:104BD00004D5B36813B1984744F001043B6923EA54
:104BE00004043C61F8BD00BF9C020020F8B51A4ED9
:104BF0003768FB683D691D4015F0400403D0346AF6
:104C00000CB1A0474024EB0604D5B36913B1984713
:104C100044F01004280704D5736913B1984744F091
:104C20000804690704D5336913B1984744F00404B4
:104C3000AA0704D5F36813B1984744F00204EB07C0
:104C400004D5B36813B1984744F001043B6923EAE3
:104C500004043C61F8BD00BFC002002081880268E6
:104C6000034689B2505C99881A8989B292B29142FE
:104C700017BF9A880022013292B2C0B29A80704760
:104C8000C28838B5838892B29BB201329A420446F8
:104C90000D461AD0C288038992B29BB29A4202D1C1
:104CA00083889BB28BB14FF0FF30E288236892B2C9
:104CB0009D54E288238992B29BB29A4217BFE3883F
:104CC000002301339BB2E38038BD2046FFF7C6FFC7
:104CD000EBE770B51E460546084611460422059CC2
:104CE000FFF714FC9DF810100B223046FFF70EFC66
:104CF0002B6804F00F01DA6804F0300422F4F0525B
:104D00001204120C42EA4122DA601A6922F440527B
:104D10001204120C42EA04241C6170BD38B504462A
:104D2000154611B900F096F8014619235943AD0014
:104D30006423B1FBF5F1B1FBF3F21201100903FB9F
:104D4000101109013231B1FBF3F303F00F032168B5
:104D50001A4392B28A6038BD38B5114DEB68980697
:104D600007D52B68990604D569680E48C9B2FFF7C4
:104D700087FFEB680A4C1A0611D523681B060ED56F
:104D800009488288C38892B29BB29A4203D0FFF747
:104D900065FF606038BDE36823F08003E36038BDE1
:104DA0000038014000150020F414002038B5114DE2
:104DB000EB68980607D52B68990604D569680E48F4
:104DC000C9B2FFF75DFFEB680A4C1A0611D52368DC
:104DD0001B060ED509488288C38892B29BB29A42BC
:104DE00003D0FFF73BFF606038BDE36823F080032A
:104DF000E36038BD004400400C150020241500205D
:104E000038B5114DEB68980607D52B68990604D57F
:104E100069680E48C9B2FFF733FFEB680A4C1A06FF
:104E200011D523681B060ED509488288C38892B223
:104E30009BB29A4203D0FFF711FF606038BDE36870
:104E400023F08003E36038BD0048004018150020BF
:104E50003015002008B590F89002FFF7EDFB20B167
:104E60000128034818BF002008BD024808BD00BF44
:104E700000A24A040051250213B504468DF807101C
:104E800020460DF10701012200F01AFE0028F7D09C
:104E900002B010BD38B505464C1E14F8011F19B1FB
:104EA0002846FFF7E9FFF8E738BD000008B5114BC9
:104EB00001211C6803222046FFF728FB0023012163
:104EC0001A469342206834BF02254FF40035B2F5EC
:104ED000007F056103F1010303D0002A08BF01210F
:104EE00001E04FF0FF31B3F5007F04BF52180023FB
:104EF000E7E700BF94E5000808B5034B0BB1AFF33B
:104F0000008062B6FFF7D2FF00000000F8B5144B36
:104F100006460D4617460BB3AFF300801149044611
:104F2000FFF7B8FF20463946FFF7B4FF20460E4989
:104F3000FFF7B0FF20463146FFF7ACFF20460B4994
:104F4000FFF7A8FF2046294600F008FE20460A2168
:104F5000FFF792FF20460D21FFF78EFFFFF7CCFFF2
:104F600000000000E7E60008FDE60008E5E10008B3
:104F700003695B68D9889A8889B292B2D8888A1AFC
:104F8000998880B289B2884203D2198989B20131E5
:104F90000A4492B282B199881A6889B2505C9988A1
:104FA0001A8989B292B2914217BF9A8800220132BF
:104FB00092B2C0B29A8070474FF0FF3070470369D9
:104FC0005B689988DA8889B292B2914205D09A8852
:104FD0001B6892B2985CC0B270474FF0FF307047C8
:104FE00003699A689088D18880B289B28842F9D1E1
:104FF0001A6813685B06FCD5704713B504698DF811
:10500000071020460DF10701012200F059FD00288C
:10501000F7D0012002B010BD03695B68D8889A8878
:1050200080B292B2D988801A9A8889B292B291429B
:1050300003D21B899BB20133184480B27047000031
:1050400030B5002545604FF47A758560024D0161E9
:1050500005600275437530BD30E7000803692DE92E
:10506000F74FDB68044699420F4692462CD890F8D9
:105070001480174D4FEA081808EB050690F81590B4
:1050800070684FEA091909EB050B717B10B100221A
:10509000FFF778FC206900F0C3FC337B9BF80C2001
:1050A00020698DE8080459F8051058F80530FFF715
:1050B00010FE206900213A46FFF730FE206903B058
:1050C000BDE8F04F00F0D6BC03B0BDE8F08F00BFE4
:1050D00064E300080022FFF7C1BF006900F0D4BC00
:1050E000044B02791B789A4202D1034B1B6818606B
:1050F000704700BF4C15002050150020002310B54C
:105100000446036072B6054B19311970044B1860E0
:105110000448FFF787FB62B6204610BD4C150020FF
:1051200050150020E1500008036800221B685B0155
:1051300003F184431A607047036801221B685B0116
:1051400003F184431A607047036801391B6889B210
:105150009962704703681B68DA6A92B2914228BF6D
:1051600011465962704738B5054639B903680122BE
:105170001B689962DA62D86A80B238BD48244C4311
:105180004FF6FF71B4FBF1F1013189B204EB510428
:10519000B4FBF1F4FFF7D8FF2B68A4B21B682046DC
:1051A000DC6238BD0068C9B2FFF7ECBB0368C9B266
:1051B0001B6801F18041D86A013980B234338242E0
:1051C00028BF024643F8212070470068C9B2FFF7A4
:1051D0005FBB000008B501210848FFF78FFF0221DF
:1051E0000748FFF78BFF03210648FFF787FFBDE85D
:1051F000084005480421FFF781BF00BF3C1500208F
:10520000401500204415002048150020FEF790BFEF
:1052100008B5FBF7A5F8FBF71BFAFCE770B50546E8
:105220000E460024315D29B12A682846126890474D
:105230000134F7E7204670BDF8B505460C46164622
:105240008F18BC4206D02B6828461B6814F8011B37
:105250009847F6E73046F8BD10B502680B469468EB
:1052600009689A68A04710BD08B503681B6898478D
:1052700008BD08B503685B68984708BD38B50D21BF
:105280000546FFF7F1FF0A2104462846FFF7ECFF29
:10529000204438BD38B50446FFF7DEFF05462046FA
:1052A000FFF7ECFF284438BD38B50446FFF7E1FFAF
:1052B00005462046FFF7E2FF284438BD2DE9F04FB0
:1052C00014461D4691B054EA050381469DF868B026
:1052D00004D13021FFF7C8FF01202EE04FF0000875
:1052E0005FFA8BF600272046294632463B4602F0FD
:1052F00025FD08F101080DF1000AC2440AF8012C4D
:10530000204629463B46324602F018FD04460D462B
:1053100054EA0503E4D1002408F1FF381DF8081011
:105320004846092994BF30313731C9B2FFF79CFF95
:105330000444B8F1000FEFD1204611B0BDE8F08F62
:105340002DE9F041069F064614461D462FB9036815
:10535000D1B21B689847BDE8F081002C75F10003BD
:1053600005DA2D21FFF780FF644265EB4505FFB2AA
:105370000697304622462B46BDE8F041FFF79EBF18
:1053800007B5CB1700920A46FFF7DAFF03B05DF8C6
:1053900004FB38B50446FFF7F3FF05462046FFF748
:1053A0006DFF284438BD70B5049921B90368D1B2A6
:1053B0001B68984770BDC9B20491BDE87040FFF703
:1053C0007DBF07B500230092CAB2FFF7ECFF03B020
:1053D0005DF804FB38B50446FFF7F3FF05462046A9
:1053E000FFF74CFF284438BD07B5002300920A465A
:1053F000FFF7D9FF03B05DF804FB38B50446FFF7AB
:10540000F3FF05462046FFF739FF284438BD07B5AE
:10541000002300920A46FFF7C6FF03B05DF804FBC5
:105420002DE9F74F19460646144610461D46002240
:10543000002302F0E7F89DF830704FF0010838B112
:105440002046294644A3D3E9002302F0D1F806E020
:105450002046294642A3D3E9002302F0BFF800B951
:1054600080465FFA88F82046294600220023B8F1DA
:10547000000F0DD002F0A8F818B130462D21FFF72B
:10548000F3FE804638493046FFF7F3FE404460E0C3
:1054900002F09AF838B130462D21FFF7E5FE05F10C
:1054A000004380461D46314B4FF0000900225FFA51
:1054B00089F1B9420AD21046194600222C4B01F05C
:1054C0003BFF09F1010902460B46F0E72046294659
:1054D00001F056FC04460D4602F046FC82468B461F
:1054E00001F0D2FD02460B462046294601F046FC5B
:1054F0000A2300930446524630465B460D46FFF7AA
:105500001FFF804427B130461A49FFF7B2FE80449E
:10551000F7B1174B00222046294601F0E3FD0D4666
:10552000044602F079F881460A2249463046FFF7E0
:1055300027FF8044484601F06FFD02460B46204697
:10554000294601F01BFC013F04460D46FFB2DFE790
:10555000404603B0BDE8F08F800350726C92DF4389
:10556000800350726C92DFC350E700080000E03FF8
:105570000000244038DD000837B59DF818100446B7
:105580000091FFF74DFF05462046FFF777FE2844C0
:1055900003B030BD054B03EB001000F10803806839
:1055A00010B19979FEF700BF704700BF64E30008AF
:1055B00022280ED8084B00011A18127B012101FA8B
:1055C00002F21B581B689B681A420CBF0020012086
:1055D00070470020704700BF64E30008222810D8FD
:1055E000084B00011A18127B1B58012000FA02F226
:1055F000D1F1010138BF0021090102FA01F11B6854
:105600001961704764E3000810B5044630B103F037
:10561000C3FA90FBF4F303FB140010BD10BD8842E5
:1056200010B5044604DA081AFFF7EEFF204410BD57
:1056300010BD00002DE9F04780460E4608460021C7
:1056400092469946FFF7CAFF0024BAF1000F02D034
:10565000C4F1070100E0214649FA01F1404601F09A
:105660000101FFF7BBFF0B4A3301D718D3580121C3
:105670001D683B7BEA6801FA03F35340EB603A7B19
:10568000EB68914001345940082CE960DDD1BDE858
:10569000F08700BF64E30008054B70B51C68064640
:1056A0001D4600F04DF92B681B1BB342F9D370BDAA
:1056B000881500200C235843431E18460138FDD896
:1056C000704710B50446006802F098FE204610BDF1
:1056D00010B50446006808B102F090FE0023236074
:1056E000A360636010BD38B504460D460068013103
:1056F00003F072FA10B184E82100012038BD03687C
:1057000010B5044613B143688B4207D22046FFF719
:10571000EAFF20B1A3680BB922681370012010BD05
:1057200070B50E46114604461546FFF7E8FF18B956
:105730002046FFF7CDFF04E0A5602068314603F066
:105740006BFC204670BD38B50023044603604360FF
:1057500083600D4639B1084603F0BCFC2946024679
:105760002046FFF7DDFF204638BD884210B50B46C6
:10577000044607D0096819B19A68FFF7D1FF01E024
:10578000FFF7A6FF204610BD10B5002304460360B6
:1057900043608360FFF7E9FF204610BD38B505463A
:1057A0000C4641B1084603F095FC214602462846C6
:1057B000FFF7B6FF01E0FFF78BFF284638BD10B5B5
:1057C00000238AB00446036043608360084601A951
:1057D00000F0EEF8204601A9FFF7E0FF20460AB0EE
:1057E00010BD70B5044685680E4609B9002070BD2D
:1057F00062B115442946FFF782FF0028F6D02068E1
:10580000A3683146184403F007FCA560012070BD71
:105810001FB504460A220846694600F0C9F86846E2
:1058200003F058FC694602462046FFF7DAFF04B051
:1058300010BD1FB504460A220846694600F0E3F889
:10584000684603F047FC694602462046FFF7C9FF59
:1058500004B010BD0B4610B509689A680446FFF7FE
:10586000C0FF10B92046FFF733FF204610BD38B502
:1058700004460D4641B1084603F02CFC2946024679
:105880002046FFF7AEFF10B92046FFF721FF204664
:1058900038BD10B50446FFF7BBFF10B92046FFF72F
:1058A00017FF204610BD10B50446FFF7C2FF10B920
:1058B0002046FFF70DFF204610BD0000222870B5DE
:1058C0003BD8082939D8DFE801F0051A080B0E117A
:1058D000081417000024032213E00024042210E01F
:1058E000002422460DE0002409220AE000240822B8
:1058F00007E001240B2204E001240F2201E0002430
:1059000007220E4B00011E18317B1858FEF7FEFDD2
:10591000706890B1717B24B10122BDE87040FFF73F
:1059200031B80368013903F140432033DB0003EB56
:1059300081039B0003F184431C6070BD64E3000895
:105940007047F0B58BB059B3931E222B2AD80A2A80
:105950002AD1002828DA4042012501AB1E4670B149
:10596000B0FBF2F702FB1704092C3846D8BF3034DD
:1059700003F10107C8BF57341C703B46EFE7B34241
:10598000EED01DB12D204A1C087000E00A46B3423B
:1059900004D913F8010D02F8010BF8E70023137086
:1059A000084603E0002001E00025D6E70BB0F0BD7B
:1059B000FFF7C7BF70B58AB001B3931E222B1FD863
:1059C00001AB1D4670B1B0FBF2F602FB1604092CC8
:1059D0003046D8BF303403F10106C8BF57341C70BD
:1059E0003346EFE7AB42EED00A46AB4204D913F898
:1059F000010D02F8010BF8E700231370084600E0E0
:105A000000200AB070BDFFF7D5BF10B5044600797D
:105A1000FEF77AFE2079BDE81040FEF78DBE00004B
:105A2000436800227F2110B59A80DA80198100F145
:105A300010011960836804469A80DA8040F2FF12F0
:105A40001A8100F190021A6090F89002FEF75CFE55
:105A500094F891325AB2002A08DB012103F01F03A7
:105A600001FA03F30249521141F8223010BD00BF80
:105A700000E100E00368DA6842F02C02DA60DA68DC
:105A800042F40052DA60704710B503688268948867
:105A9000D188A4B289B28C42F9D1DA68910402D5D6
:105AA0001A685206F9D5DA6822F40052DA604368BF
:105AB0009A8892B2DA8083689A8892B2DA8010BDAE
:105AC000F0B583680546046800209F88DE88BFB271
:105AD000B6B2B74204D0E36823F08003E36027E066
