:020000040800F2
:100000000050002045460008014900080549000845
:10001000094900080D490008114900086149000814
:100020006149000861490008614900086149000808
:10003000614900086149000861490008A14D0008B4
:10004000614900086149000861490008214500082C
:1000500061490008614900086149000861490008D8
:1000600061490008614900086149000861490008C8
:1000700061490008614900086149000861490008B8
:100080006149000861490008D94900086149000830
:100090006149000861490008614900086149000898
:1000A000C94F0008ED4F00081150000849500008E2
:1000B0009D5000080D5100087D510008614900085D
:1000C0006149000861490008614900086149000868
:1000D00061490008E95200083D53000891530008A7
:1000E00061490008694500086149000810B5054CE0
:1000F000237833B9044B13B10448AFF300800123D4
:10010000237010BD7813002000000000BCCA000856
:1001100008B5064B1BB106480649AFF300800648F8
:10012000036813B1054B03B1984708BD00000000F8
:10013000BCCA00087C1300207813002000000000D7
:10014000012902D11C30C0B27047062984BF01F1D9
:10015000FF31C9B211F0010F14BF1E201F207047DC
:10016000444B2DE9F047B1FBF3F603FB16113C239A
:10017000B1FBF3F203FB1212054602704FF461600B
:10018000B1FBF0F200FB1211B1FBF3F36B704FF413
:10019000FA63AA70B6B2EB80EC884FF4C873B4FB74
:1001A000F3F803FB18481FFA88F8B8F1000F16D0CF
:1001B0006423B4FBF3F203FB12439BB2002B53D036
:1001C00014F0030140F26D130CBF4FF4B7721A46DE
:1001D00096420EDB002908BF4FF4B77304E0B6F572
:1001E000B77F06DB4FF4B773F61A0134B6B2EC8072
:1001F000D2E700236B716423B4FBF3F703FB1747CB
:10020000BFB2B8F1000F06D03FB114F0030F14BF16
:100210000020012002E0012000E0384695F805901A
:10022000C0B24946FFF78CFF864209F1010A15D397
:10023000B8F1000F06D03FB114F0030F14BF002037
:10024000012002E0012000E03846C0B24946FFF735
:1002500077FF301A86B285F805A0D2E701362E71F5
:1002600085F805A0BDE8F087B6F5B67FC1DD40F2A0
:100270006D13B9E780510100F8B5427887783C23C7
:1002800003FB072702780579467903FB0727013D21
:10029000013EEDB2F6B2044605714671013E731C93
:1002A000E38834D04FF4C872B3FBF2F102FB113291
:1002B00092B262B16422B3FBF2F002FB103080B262
:1002C00030B113F0030F14BF0020012000E0012023
:1002D000C0B2F1B2FFF734FF284485B2DEE74FF435
:1002E000C872B3FBF2F102FB113292B2AAB16422DE
:1002F000B3FBF2F102FB113292B28AB113F0030F99
:1003000040F26D1208BF4FF4B7721544ADB2013B15
:100310009BB2B3F5FA6FE2D205E04FF4B772F4E79F
:1003200040F26D12F1E7024800FB0570F8BD00BF16
:100330008051010002F010BE38B50D46044602F0AF
:1003400026FE290A49006039204601F0FE0102F02C
:10035000B5FE204602F08BFEE9B2204602F0AEFE6A
:10036000204602F084FE204602F011FE2046A12124
:1003700002F0A4FE204602F07AFE0021204602F0A0
:10038000C4FE0546204602F055FE204602F01AFE45
:10039000284638BD70B50D461646044602F0F7FDF6
:1003A000290A49006039204601F0FE0102F086FE6C
:1003B000204602F05CFEE9B2204602F07FFE2046B5
:1003C00002F055FE3146204602F078FE204602F04B
:1003D0004EFE204602F0F6FDBDE870400A2005F012
:1003E0006DBD0000D30770B548BF0132002452082C
:1003F00002312346E5B2954225D211F8025CA5F1FF
:100400004106F6B2052E02D8104B9B5D05E0303D4B
:10041000EDB2092D03D80E4B5B5D1B01DBB211F869
:10042000015CA5F14106F6B2052E01D8074D04E0A6
:10043000303DEDB2092D02D8054E755D2B430355B5
:1004400002310134D6E7002070BD00BF8ADE00080B
:1004500080DE00082DE9F04F824687B0084614463A
:10046000994607F0A3F8C9EB0406CDE90001304630
:1004700007F08AF802460B4600204D4905F046FE7B
:1004800002460B46DDE9000107F06AFB30B94FF088
:10049000020896FBF8F80546013E07E050460021A9
:1004A000224607B0BDE8F04F08F0EEBD454536DA0C
:1004B000304607F069F802460B4600203C4905F03B
:1004C00025FECDE90201701E07F05EF802460B46DC
:1004D0000020374905F01AFEDDE90223CDE90401C9
:1004E000DDE9000107F0E0F907F04EFBDDE9042348
:1004F0000A2790FBF7FB0BFB17004FEA001BDDE917
:10050000000107F0D1F907F03FFB90FBF7F303FB85
:10051000170083440AF805B0023E0135C6E709EB2F
:1005200048094FF0020BC4EB090994FBFBFB09F1EE
:100530000109D84538DA484607F026F802460B4646
:1005400000201B4905F0E2FD064609F101000F46B7
:1005500007F01AF802460B460020154905F0D6FDB3
:1005600032463B4604460D46DDE9000107F072F8CD
:1005700007F00AFB0A2690FBF6F707FB16002B464E
:1005800007012246DDE9000107F064F807F0FCFAF4
:1005900090FBF6F303FB160007440AF8087009F114
:1005A000020908F10108C4E707B0BDE8F08F00BFF9
:1005B00000002440124A517893784AF2130243EA29
:1005C0000123934213D008D84AF21102934213D068
:1005D0004AF21202934211D00DE04AF21402934201
:1005E00007D04AF22202934205D10420704702202C
:1005F0007047032070477047002070470120704704
:100600009413002010B5074C6018114602F0BBFB94
:10061000054B1B781C4414F8073C1B1A58425841E0
:1006200010BD00BF9413002015140020044B18794E
:100630005B7943EA0020431E58425841704700BF8F
:1006400094130020044B9B79552B044B0CBF0122C3
:1006500000221A70704700BF941300201714002066
:1006600010B5084CE379552B01D1012010BD064887
:1006700001F00BFBE3798342F7D0D0F1010038BFE2
:10068000002010BD941300201B14002013B50D4B47
:100690001C7A552C01D1012012E00B48694601F06B
:1006A00097FA00231A461DF803108C42F3D019B9AB
:1006B0000132D2B2052AEED00133052BF3D100204E
:1006C00002B010BD941300201B14002070B5054625
:1006D0001E46FFF797FF044698B12846FFF7A6FF8E
:1006E000044658B12846FFF7ADFF2846FFF7B8FF8C
:1006F000044648B946B10C480C4911E00A480C4977
:100700000EE009480B490BE02846FFF7BFFF0446FF
:1007100040B99DF810300BB9012403E002480649A6
:1007200005F036F8204670BDC4140020E2DE000853
:1007300090DE0008BEDE000819DF00081A4B13B572
:100740001B787BB300230093042117220123FFF7BA
:10075000BDFFF0B1154C164804F10C0101F0F8FA98
:10076000A17AE37A134843EA012101F09FFA10B11C
:10077000114B01221A70237A552B03D10F4803F035
:100780005FF906E0012B04D00C480721012203F099
:1007900011FB0B4B05481A78002102B0BDE8104050
:1007A00008F072BC02B010BD0C00002094130020B1
:1007B000291400201A14002014140020BE14002054
:1007C00015140020174B07B51B7843B30023009383
:1007D00004210A220123FFF779FFB8B11248134917
:1007E00001F0BBF930B11249124804F0D1FF1248B0
:1007F000032108E011490F4804F0CAFF104B0A22F8
:100800000D481A700421012203F0D4FA0D4B0E4852
:100810001A78002103B05DF804EB08F035BC03B092
:100820005DF804FB0C0000201B1400209C1300202A
:1008300051DF0008C4140020BE14002081DF00082E
:10084000BF140020151400209413002013B50023BA
:10085000009304210F22FFF739FF10B31D4C1E48EF
:1008600004F10A0100F0CFFE002830D01A4804F14C
:100870000A0100F003FF50B31849194804F088FF3B
:100880001848E17901F0D4F9A0B11749144804F0EF
:100890007FFF16480521012203F08CFA0E4800F074
:1008A000BFFF134B0B481A78002102B0BDE810407F
:1008B00008F0EABB0A480F4904F06AFF0E4B0A220F
:1008C0001A700A480621012203F074FAE9E7044885
:1008D0000A49F1E7941300201E14002014E00008D8
:1008E000C41400201B140020B1DF0008BE14002037
:1008F00015140020E3DF0008BF14002041E00008C9
:100900000D4B07B51B789BB10023009304210522F2
:100910000123FFF7DBFE10B1084803F0B9F9084BDB
:1009200008481A78002103B05DF804EB08F0ACBB6E
:1009300003B05DF804FB00BF0C000020BE140020D3
:10094000151400209413002010B50446FFF732FE62
:10095000032817D8DFE800F00207110C2046BDE895
:100960001040FFF7EBBE2046BDE81040FFF72ABF5E
:100970002046BDE81040FFF7C3BF2046BDE8104049
:10098000FFF764BF10BD00002DE9F047404C002781
:1009900082462770002635463E4804F0B9FD0028FF
:1009A00033DD94F800903B4809F10103237004F013
:1009B0005BFDDFF8F48008F80900052005F07EFAF9
:1009C00023781022434413F8011C334804F06DFFD0
:1009D0003148324904F0C1FE94F90030002B4346FF
:1009E00002DA2B4A00211170F6B922781A4412F863
:1009F000012C0D2A01D117E00126052DCCD1264866
:100A0000274904F0C5FE0127C4E757B1254922480C
:100A100004F0BEFE5046FFF797FF00232370BDE8A9
:100A2000F0872770BDE8F087042DE5D8DFE805F0F2
:100A3000030C151E27002278134413F8015CB5F14E
:100A40000A035D425D4121E02278134413F8013C22
:100A50000D2B0CBF0225002518E02278134413F853
:100A6000013C0A2B0CBF032500250FE0227813441C
:100A700013F8013C0D2B0CBF0425002506E022785D
:100A8000134413F8013C0A2BB9D00025012683E753
:100A900015140020DC140020C41400204FEB0008C3
:100AA0006EE0000892E000089413002008B50120D1
:100AB000002105F03FF90120014605F0A1F90020D1
:100AC000014605F037F90420002105F033F905202F
:100AD000002105F02FF90420002105F091F90520EF
:100AE000012105F08DF9BDE808400020014605F020
:100AF00087B90000014804F069BD00BFDC14002084
:100B000008B561B10021052005F07AF9962005F0BD
:100B1000D5F9BDE808400520012105F071B908BDEF
:100B200008B50021012005F06BF90C4804F051FDD7
:100B30000220002105F0FEF80320002105F0FAF85C
:100B40000220002105F05CF90320002105F058F98E
:100B5000BDE808400520002105F052B9DC14002052
:100B600010B50B78452B12D14B78522B0FD18B78C7
:100B7000CC78303B03EB8303303C04EB4304E4B21A
:100B800021460A22034804F099FE204610BD0A209F
:100B900010BD00BFC41400200B784F2B07D148783C
:100BA0004B2804D113704B780120537070470020FC
:100BB000704700002DE9F04190B00E4601A865494C
:100BC0001C46904604F09CFF624904A804F098FF7C
:100BD000604907A804F094FF20460021042208F091
:100BE00053FAE023A370E37035460027AB1B43455F
:100BF0003AD229780A220DA804F0BEFF0DA901A857
:100C000004F0F4FF0DA804F039FF15F8013B2C2B7C
:100C100028D0303BDBB2092B98BF05F8013C15F812
:100C2000011C57B92D2902D14B484C4909E00DA8A8
:100C30000A2204F0A1FF04A80DE02D2906D14648A0
:100C4000474904F0A5FDF023E370CFE70DA80A2281
:100C500004F092FF07A80DA904F0C8FF0DA804F046
:100C60000DFFC3E70127C1E73E490AA804F048FF8A
:100C70000AA90DA804F065FF01A90DA804F0EAFF78
:100C80000146354804F07AFD0DA804F0F7FE0AA8E5
:100C900004F0F4FE34490DA804F032FF0DA92E48EB
:100CA00004F04EFD0DA804F0E9FEA3782A48F02BCD
:100CB00001D12E4903E0E02B0CBF26492C4904F05A
:100CC0004CFD04A90DA804F03CFF2A490DA804F02E
:100CD000CEFF0146204804F051FD0DA804F0CEFEE1
:100CE00025490DA804F00CFF0DA91B4804F028FDB0
:100CF0000DA804F0C3FEE3781748F02B01D11B497F
:100D000003E0E02B0CBF1349194904F026FD07A9A5
:100D10000DA804F016FF0DA8164904F0A8FF01461F
:100D20000D4804F02BFD0DA804F0A8FE04A804F063
:100D3000F4FF207007A804F0F0FF607007A804F02B
:100D40009DFE04A804F09AFE01A804F097FE10B0DE
:100D5000BDE8F081B5E30008C4140020BDE0000840
:100D6000CAE00008D8E00008E3E00008E6ED00086B
:100D7000EEE00008FBE0000802E10008F8B54C785E
:100D8000432C08D18C78532C05D1CC78B4F1510583
:100D90006C426C4100E000240026F5B24F5D013644
:100DA0003A2FFAD10135EDB200279542FEB207F194
:100DB000010706D811F805C0013501F806C0EDB2EB
:100DC000F3E73CB92046C2B2B2420BD20A5C1A54D5
:100DD0000130F8E7069A022412681470721ED2B22B
:100DE000FFF7E8FE0120F8BD37B5154809B91549E8
:100DF00000E0154904F0B1FC642005F05FF8002420
:100E00000F4804F085FB0028E5B208DD062C14D05D
:100E10000B4804F029FB0DF804000134F0E755B14C
:100E20009DF802304F2B08D19DF80300B0F14B0321
:100E30005842584102E0284600E0002003B030BD8F
:100E4000DC1400200EE1000812E1000810B5044691
:100E50000120014604F0D4FF07484FF4165104F076
:100E6000B5FB20460121FFF74BFE20460121BDE8DE
:100E70001040FFF7B9BF00BFDC1400202DE9F0419E
:100E80009EB005AD0C4607460021904628466422D8
:100E9000039308F0F9F821462C4804F05EFC642026
:100EA00005F00CF80024294804F032FB0028E6B2D3
:100EB00007DD642C45D0254804F0D6FA28550134C6
:100EC000F1E726B92249234804F062FC39E09DF895
:100ED00014300D2B35D19DF815300A2B31D11EABB6
:100EE000334413F8653C0A2B2BD1023E1EAB33442E
:100EF00013F8643C0D2B24D10021CCB2A31CDBB22F
:100F0000B34201F1010107DA1EAA134413F8643C4D
:100F1000144404F8643CF0E738462946FFF720FE05
:100F20000A280CD103AB0093384629462246434693
:100F3000FFF724FF00280CBF0320022002E001205D
:100F400000E003201EB0BDE8F08100BFDC140020EB
:100F500018E10008C41400202DE9F041B2B00646A3
:100F60000D4690460021642268461F4608F08CF822
:100F700019A80021642208F087F80024E3B2E85C95
:100F8000013420B132AA134403F8640CF6E7014699
:100F9000CAB25D1818F80240EDB232AA01312A44F3
:100FA00014B102F8644CF3E70D2302F8643C6B1CA7
:100FB00032A8DBB203442F480A2203F8642C0368EA
:100FC00019A95B6898472C48AA1C036819A99B6853
:100FD000D2B29847642004F071FF274804F098FAD1
:100FE0000028E5B208DD642C3FD0234804F03CFA29
:100FF0000DF804000134F0E7002D36D09DF80030E4
:101000000D2B32D19DF801300A2B2ED132AB2B445F
:1010100013F8C93C0A2B28D1023D32AB2B4413F8FC
:10102000C83C0D2B21D100218B1CDBB2AB4201F15E
:10103000010209DA32A8034413F8C83CC9B20144DA
:1010400001F8C83C1146EFE730466946FFF788FDD6
:101050000A2808D1304669463A46FFF79DFD80F0E0
:101060000100C0B202E0012000E0032032B0BDE880
:10107000F08100BFC4140020DC140020F7B51E4628
:10108000044617460D4600218DF80710FFF7ACFE09
:1010900003F076FD204631462FB12A460DF10703B5
:1010A000FFF7ECFE03E0089A2B46FFF755FF0328F5
:1010B0002AD8DFE800F011040207002311E01648E7
:1010C000164901E01448164904F062FB204601214C
:1010D000FFF78AFE00201CE012490F4804F058FB7D
:1010E00012E09DF807205E1CDBB29A420A4809D93B
:1010F000E95C102204F0D9FB07480B4904F02DFBF2
:101100003346EEE704F02EFB20460121FFF76CFE8C
:10111000012003B0F0BD00BFC41400202CE1000882
:101120003DE1000846E100084FEB00082DE9F043DF
:101130008BB004AF804600210922384602AE00245D
:1011400007F0A2FF0094404631460122454BFFF7CD
:1011500095FF054620B94449444804F019FB7DE059
:101160002346F25C07AC092A01D8303204E0A2F130
:101170000A01052998BF3732E2540133082BF0D118
:101180004FF000093A488DF8249000F0AFFC024679
:1011900000284AD03749354804F0FAFA344839462D
:1011A00000F00AFC00283BD04B46E15CFA5C91421F
:1011B00048D10133082BF8D12F492C4804F0E8FA24
:1011C0002E492A4804F0C9FA9DF81610274804F061
:1011D000BFFA9DF81710254804F0BAFA9DF81410CC
:1011E000224804F0B5FA9DF81510204804F0B0FA32
:1011F0009DF812101D4804F0ABFA9DF813101B481F
:1012000004F0A6FA9DF81010184804F0A1FA9DF811
:101210001110164804F09CFA144804F0A3FA1DE0DB
:101220001749124804F0B4FA07E0009440463146EA
:10123000144BFFF723FF054680B121460C4800F010
:1012400013FC0AE01049094804F0A2FA009740464E
:10125000314600220B4BFFF711FF054628460BB025
:10126000BDE8F08352E100085DE10008C4140020ED
:10127000191400207DE1000805E200082FE20008B3
:101280009BE10008BFE10008C8E100082DE9F04F2C
:1012900089B002AF07F10C068346894690461C468A
:1012A000304600210A2207F0EFFE002C48D1C7F893
:1012B00004D05846CDF80080314601224B46FFF756
:1012C000DDFE824608B1214602E03C483C496BE025
:1012D000CCB218F804300131002BF9D1E11D01F432
:1012E000FC71ADEB010D02A9D8B2A04203D2F05CB3
:1012F000C8540133F8E70B46581AC0B2A0420DD2C9
:1013000013F8010B092801D8303004E0A0F10A05D8
:10131000052DF1D8373003F8010CEDE70025EBB2CD
:10132000A3423FD24B5D013508EB050010F8010CDC
:101330009842F4D02148234904F02AFA7B689D465C
:101340006C460023DAB219F8021001330A29F9D1E8
:10135000931D03F4FC73ADEB030DA2F1020E02AB7F
:101360000020C1B2551EA94200F1010003DA19F8AC
:1013700001505D54F5E700223D215A55584603F8C7
:101380000E10CDF800803146FFF778FE054628B9EB
:101390000A480D4904F0FCF9AA4601E04FF0010AA1
:1013A000A54605E00548094904F0F2F97B689D4629
:1013B00050461C37BD46BDE8F08F00BFC414002066
:1013C0003DE2000863E20008BAE20008DCE200083F
:1013D0007FB50F2204460D466846002107F054FEF3
:1013E0005C485D4904F0D4F90A2603F0C9FB2046A5
:1013F000002D65D1FFF79AFE58498DF80000584A34
:101400002B462046FFF742FF56498DF80100564A09
:1014100001232046FFF73AFF54498DF80200544A51
:101420002B462046FFF732FF52498DF80300524AFF
:101430002B462046FFF72AFF50498DF80400504AFA
:1014400001232046FFF722FF4E498DF805004E4A42
:101450002B462046FFF71AFF4C498DF806004A4AF2
:101460002B462046FFF712FF49498DF80700444AF2
:1014700001232046FFF70AFF46498DF80800464A37
:101480002B462046FFF702FF44498DF80900444AE5
:101490002B462046FFF7FAFE42498DF80A00324AF1
:1014A00001232046FFF7F2FE3F4A8DF80B003F492B
:1014B00020460123FFF7EAFE0D228DF80C0007E01D
:1014C0002F4A2E490123FFF7E1FE01228DF800008B
:1014D00000231DF80310A9B935491E4804F058F936
:1014E0002046FFF7B3FC2046FFF71AFB03F048FB4A
:1014F0002046FFF7ABFC4FF4FA6004F0DFFC03F08A
:101500003FFB05E00133D9B29142E2D304B070BD94
:10151000284803F0FDFF002803DD264803F0A4FF60
:10152000F6E7013E16F0FF067FF45FAF1E2231465C
:10153000214801F095FC2149064804F029F940F6BC
:10154000B83004F0BBFC03F01BFB04B0BDE87040F6
:1015500003F04ABBC4140020F2E2000811E30008C3
:101560001DE3000826E3000823E3000830E3000839
:101570003CE3000845E3000851E300085AE3000893
:1015800064E3000867E3000871E3000874E30008FF
:101590007EE3000888E3000891E3000894E3000874
:1015A0009EE30008A1E30008B6E30008ABE30008EF
:1015B000B9E30008DC14002070140020D6E3000812
:1015C00010B500210446152004F0B4FB15200121BC
:1015D00004F016FC2046BDE81040FEF7ABBE08B58F
:1015E000052004F06BFCBDE808401520012104F043
:1015F00007BC08B51520002104F002FCBDE8084036
:10160000052004F05BBC7FB504460E46FFF7F1FFF2
:101610000D2573192946204613F80D2C0135FEF7C8
:10162000B9FE162DF5D13046092101F0ACFB064676
:10163000294620463246FEF7ADFE0D2529462046B6
:10164000FEF77AFE01AB2B440135162D03F80D0C85
:10165000F4D101A8092101F096FBB042204603D045
:10166000FFF7BDFF002007E00B215522FEF792FE99
:101670002046FFF7B4FF012004B070BD7FB50446DB
:101680000E46FFF7B6FF172573192946204613F8B3
:10169000172C0135FEF77EFE202DF5D130460921AD
:1016A00001F071FB0646294620463246FEF772FEDF
:1016B000172529462046FEF73FFE01AB2B44013596
:1016C000202D03F8170CF4D101A8092101F05BFBD0
:1016D000B042204603D0FFF782FF002007E00C2134
:1016E0005522FEF757FE2046FFF779FF012004B090
:1016F00070BDF0B585B001AD06460F462846002105
:10170000092207F0C1FC0D2421463046FEF714FEE5
:101710002B190134162C03F80D0CF5D12146304657
:10172000FEF70AFE09210446284601F02CFB8442FC
:1017300006D10023EA5CFA540133092BFAD101E007
:10174000002000E0012005B0F0BDF0B585B001AD8E
:1017500006460F4628460021092207F095FC17246B
:1017600021463046FEF7E8FD2B190134202C03F802
:10177000170CF5D121463046FEF7DEFD092104465F
:10178000284601F000FB844206D10023EA5CFA54AB
:101790000133092BFAD101E0002000E0012005B05F
:1017A000F0BD37B50C461E210546FEF7C5FD1F21CD
:1017B0008DF804002846FEF7BFFD02218DF80500D4
:1017C00001A801F0E0FA207003B030BD10B5044666
:1017D000FFF70FFF002220460B21FEF7DBFD20461E
:1017E000FFF7FDFE20460B21FEF7A6FDD0F101001C
:1017F00038BF002010BD10B50446FFF7FAFE0022E6
:1018000020460C21FEF7C6FD2046FFF7E8FE2046E5
:101810000C21FEF791FDD0F1010038BF002010BD72
:1018200010B50446FFF7E5FE552220462121FEF7BC
:10183000B1FD2046FFF7D3FE20462121FEF77CFDB7
:10184000B0F155035842584110BD38B50446102038
:1018500004F0C0FA08B1002038BD41F2883004F02D
:101860002DFB102004F0B6FA05460028F3D12046DF
:10187000FFF7BFFE2A4620462121FEF78BFD2046BA
:10188000FFF7ADFE20462121FEF756FDD0F1010005
:1018900038BF002038BD08B52121FEF74DFDB0F15D
:1018A00055035842584108BD70B504460D46FFF730
:1018B00020FF20B120462946FFF747FF48BB2046BE
:1018C0002946FFF716FF48B11549164803F060FF97
:1018D00020462946BDE87040FFF7D0BE2046294685
:1018E000FFF733FF06460F4846B10F4903F050FF9C
:1018F00020462946BDE87040FFF785BE0B4903F03E
:1019000047FF2046FFF762FF2046FFF774FF30468F
:1019100070BD0749034803F03BFF012070BD00BFC5
:1019200002E40008C414002039E4000870E4000850
:1019300084E4000810B535210446FEF7FDFC552867
:1019400013D02046FFF755FE552220463521FEF7DD
:1019500021FD2046FFF743FE20463521FEF7ECFC33
:10196000B0F155035842584110BD012010BD08B5D3
:101970003521FEF7E1FCB0F155035842584108BD4E
:1019800010B535210446FEF7D7FC98B12046FFF785
:1019900030FE002220463521FEF7FCFC2046FFF7F2
:1019A0001EFE20463521FEF7C7FCD0F1010038BFEE
:1019B000002010BD012010BDF7B505460E464F248E
:1019C00021462846FEF7B8FC00AB23440134572CCF
:1019D00003F84F0CF4D10821684601F0D4F92146F0
:1019E00007462846FEF7A8FC87420CD100231DF8C5
:1019F0000320F2540133082BF9D10448044903F0C1
:101A0000C7FE012000E0002003B0F0BDC414002098
:101A1000EAE4000810B558210446FEF78DFC55286D
:101A20000CD02046FFF7E5FD204658215522FEF751
:101A3000B1FC2046BDE81040FFF7D1BD10BD10B588
:101A400058210446FEF778FC60B12046FFF7D1FD2F
:101A5000204658210022FEF79DFC2046BDE810409C
:101A6000FFF7BDBD10BD0000F7B50F460446FFF7F8
:101A7000C0FD3846082101F086F94F2506467B193E
:101A80002946204613F84F2C0135FEF783FC572DCD
:101A9000F5D1294620463246FEF77CFC4F252946E3
:101AA0002046FEF749FC00AB2B440135572D03F8C7
:101AB0004F0CF4D16846082101F065F9864207D041
:101AC0002046FFF7BCFF2046FFF789FD002007E016
:101AD0000449054803F05CFE2046FFF79BFF012008
:101AE00003B0F0BDFFE40008C414002008B558217D
:101AF000FEF722FCB0F155035842584108BD70B5BD
:101B000004460E461546FFF774FD20463246222154
:101B1000FEF740FC20462A462321FEF73BFC2046E8
:101B2000BDE87040FFF75BBDFEF706BCFEF704BCE6
:101B300070B504460E461546FFF75BFD204632465B
:101B40002421FEF727FC20462A462521FEF722FC09
:101B50002046BDE87040FFF742BDF8B504460E468A
:101B6000FFF747FD262573192946204613F8262C32
:101B70000135FEF70FFC2B2DF5D10521304601F084
:101B800002F90746294620463A46FEF703FC262579
:101B900020462946FEF7D0FB731913F8263C8342F2
:101BA00014D101352B2DF3D120462946FEF7C4FB75
:101BB000B842204608D12C215522FEF7EBFB2046E7
:101BC000FFF70DFD0120F8BDFFF709FD0020F8BD6E
:101BD00070B506460D46262421463046FEF7ACFB7E
:101BE0002B1901342B2C03F8260CF5D170BD38B518
:101BF0000446FFF7FEFC2625002220462946FEF774
:101C0000C9FB20462946FEF797FB024620B1204635
:101C1000FFF7E5FC002038BD01352B2DECD1204627
:101C20002C21FEF7B7FB2046FFF7D9FC012038BD79
:101C300037B502AD04468DF80710FFF7DAFC15F84A
:101C4000012D20462D21FEF7A5FB0121284601F09C
:101C50009AF82E2102462046FEF79CFB20462D21B5
:101C6000FEF76AFB9DF807308342204608D12F21FA
:101C70005522FEF78FFB2046FFF7B1FC012002E062
:101C8000FFF7ADFC002003B030BD2D21FEF754BBA3
:101C900010B50446FFF7ADFC20462D210022FEF7CB
:101CA00079FB2046FFF79BFC10BD00004A1F4AF657
:101CB000BB039A4270B504460D4628D83221FEF780
:101CC0003BFB332106462046FEF736FB40EA062062
:101CD000A84204D10F49104803F05AFD15E02046F0
:101CE000FFF787FC20463221C5F30722FEF752FB9F
:101CF00020463321EAB2FEF74DFB2046342155221F
:101D0000FEF748FB2046FFF76AFC012070BD00206B
:101D100070BD00BF14E50008C414002038B532219E
:101D20000546FEF709FB332104462846FEF704FB6F
:101D300040EA042038BD08B53421FEF7FDFAB0F1C1
:101D400055035842584108BD032002F0C9BB0000AA
:101D500070B55E480D46097801F02DFE697806469B
:101D60005A4801F028FE06EB8606594C06EB86061B
:101D700000EB8600E080A978544801F01CFE6071F9
:101D8000E978524801F017FE207129794F4801F097
:101D900012FE6979A0704D4801F00DFEA9796070BE
:101DA0004A4801F008FE4B4920704B4803F0D5FC2F
:101DB000E1880A22484803F060FD4849464803F09C
:101DC000CCFC61790A22444803F078FD444942483A
:101DD00003F0C3FC21790A223F4803F06FFD41491B
:101DE0003D4803F0BAFCA1780A223B4803F066FDA7
:101DF0003D49394803F0B1FC61780A22364803F0C6
:101E00005DFD3A49344803F0A8FC0A2221783248A3
:101E100003F054FD02F054FE642004F04FF8204615
:101E2000FEF72AFA0146324802F078FA642004F0FC
:101E300045F802F04BFE2E4802F073FA01462046A8
:101E4000FEF78EF9E1886423B1FBF3F1C9B21F48B4
:101E500001F0A8FD2870E2884FF47A73B2FBF3F129
:101E600003FB11211948C9B201F09CFD687061792A
:101E7000164801F097FDA8702179144801F092FDF1
:101E8000A178E870114801F08DFD617828710F4844
:101E900001F088FD217868710C4801F083FD002471
:101EA000A871295D10220C4803F0FFFC01340A4898
:101EB000104903F052FC072CF3D1074803F052FC01
:101EC000BDE8704004480C4903F062BCB91400201E
:101ED0002014002033E50008C41400203AE500086F
:101EE00042E5000848E500084FE5000859E500080C
:101EF0002A1400204FEB000863E5000870B51C4869
:101F00000D4602F00EFA1B4C01462046FEF728F95A
:101F1000E188194E6423B1FBF3F1C9B2304601F0F8
:101F200041FD2870E2884FF47A73B2FBF3F103FBB2
:101F300011213046C9B201F035FD68706179304633
:101F400001F030FDA8702179304601F02BFDA17819
:101F5000E870304601F026FD61782871304601F0C6
:101F600021FD21786871304601F01CFDA87170BD1B
:101F70002A14002020140020B914002070B54C4809
:101F800086B0FEF779F9044602F09AFD0A2003F0C4
:101F900095FF2146474802F0C1F9464802F0C1F9D1
:101FA00005464548FFF7C7FE444E002859D0424831
:101FB000FFF7B4FE4AF6B103A0F10F029A420446BD
:101FC00019D93F49684603F09BFD694603A803F011
:101FD000B8FDB42103A803F066FE3A4903F047FEBA
:101FE0000146394803F0CAFB03A803F047FD6846E1
:101FF00003F044FDB4243378012B0BD1B4F5966F74
:1020000003D925446846314915E005F5966503A8CE
:102010002F4938E0022B0BD1B4F5166F03D92544B4
:1020200068462C4907E005F5166503A82A492AE009
:102030002A492544684603F063FD694603A803F076
:1020400080FD214603A803F02EFE1E4903F00FFE7B
:1020500001461D4803F092FB03A803F00FFD6846FC
:1020600018E03378012B04D105F5966503A81C49C7
:1020700009E0022B04D105F5166503A8194902E011
:102080001949B43503A803F03BFD0F4803A903F039
:1020900075FB03A803F0F2FC14492A46054802F038
:1020A00042F90A2003F00AFF02F010FD06B070BDED
:1020B000201400202A1400201A14002028140020C4
:1020C00086E500088CE60008C4140020FAE5000844
:1020D00043E600088EE60008E0E6000834E7000862
:1020E00080E70008F5E7000873E80008491D0008CC
:1020F00030B5154885B0FEF7BFF8144C054602F020
:10210000DFFC0A2003F0DAFE2946204602F006F939
:10211000204602F006F90E49054601A803F0F0FC3E
:1021200001A90C4803F02AFB01A803F0A7FC0A4907
:1021300005F56162204602F0F6F80A2003F0BEFEC3
:1021400002F0C4FC05B030BD201400202A14002089
:10215000EAE80008C4140020491D000801481121C4
:1021600002F0D3B82A1400202DE9F84300240F46CA
:102170009046994625464C4513DA5FFA88F60121C8
:10218000304603F03DFE0A2003F098FEF8B203F05B
:1021900021FE002100EB4505304603F031FE0134FD
:1021A000E9E72846BDE8F88370B5D4B21D46EDB224
:1021B0000E462046002103F0BDFD2846002103F015
:1021C000B9FD2046012103F01BFE2846012103F042
:1021D00017FE2046002103F013FE2846002103F0DD
:1021E0000FFE2846012103F00BFE2046012103F0DB
:1021F00007FE2846002103F003FEF3B20122204629
:10220000294603F029FE2846012103F0F9FD204666
:10221000022103F08FFD204603F0DCFD284600215B
:1022200003F0EEFD2046BDE8704003F0D3BD38B5A5
:10223000CDB22846022103F07DFD64240A2003F07C
:102240003DFE284603F0C6FD08B1013CF6D138BD7D
:102250002DE9F843CCB2154680460E46EFB2204633
:10226000022103F067FD3846002103F063FD2A4692
:10227000082331464046FFF777FF00214FEA002947
:10228000204603F057FD2046012103F0B9FD20460A
:10229000002103F0B5FD3846012103F0B1FD3846B9
:1022A000002103F0ADFD2046022103F043FD40462E
:1022B00031462A460823FFF757FF49EA0000BDE8E8
:1022C000F88338B51446CDB2E4B22846002103F0B5
:1022D00031FD2046002103F02DFD2846012103F0A9
:1022E0008FFD2046012103F08BFD20460021BDE833
:1022F000384003F085BD38B590E80C000446032152
:10230000FFF752FF20462168FFF791FF94E806008F
:102310002046FFF79DFF94E8060005462046FFF79C
:10232000D0FF284605F082FD38BD000008B5FFF754
:10233000E2FF05F095FF05F079FD034905F0CAFDC0
:10234000024905F0BDFC08BD0AD7233C000020422D
:10235000F8B590E80C0004460521FFF725FF20465C
:102360002168FFF764FF94E806002046FFF770FF3E
:1023700094E8060005462046FFF7A3FF284605F02F
:1023800055FD1E49064605F0A5FD4FF0814105F0BB
:1023900097FC1B490546304605F09CFD314605F08B
:1023A00099FD0146284605F08DFC07462046FFF7BB
:1023B000BDFF05F0FBF80022124B04F097FF044626
:1023C0000D463046104905F085FD104905F07AFCB0
:1023D00005F0ECF802460B462046294605F03AF98E
:1023E000044638460D4605F0E1F802460B46204605
:1023F000294604F07DFF05F00FFCF8BD54E3253DB0
:10240000A2E73BB600003940ACC5A7380AD7233C49
:10241000024B1D211C2283E8060070472C1400206B
:1024200007B53248FFF737FA78BB314B314918709E
:102430002E48FFF7E8F828B12C482E49FFF71EF97F
:10244000002848D12C48FFF723FC20B12A48FFF789
:10245000CEFB002844D101238DF80030264800230C
:1024600069468DF801308DF802308DF803308DF813
:102470000430FFF772FB18B12048214903F088F9B6
:1024800020480021052200F0EBFC1C481E4903F007
:102490007FF91648FFF7FFF9B8B9102003F09AFC4E
:1024A00078B941F2883003F009FD102003F092FC66
:1024B00038B9164801F0C4FA102003F08BFC00284C
:1024C000FAD01348FEF760FAE3E7094B01221A70CD
:1024D00003B05DF804FB0F49084803F059F9B1E770
:1024E0000D49064803F054F9B5E700BF1E1400205B
:1024F0000C000020381400201B140020C4140020FD
:102500003EE90008701400205BE90008BE140020BA
:10251000161400206EE9000882E90008F8B5114E93
:1025200003253468104B1A781F46CAB90F4801F0CA
:10253000C7FC326804F51C5310339A4201D23B7831
:1025400053B1013D15F0FF053468EBD1BDE8F8400B
:102550000748084903F01CB90748FEF715FAE8E7F1
:10256000F8BD00BFA415002014140020BE140020E4
:10257000C4140020B1E900081614002008B5142086
:1025800003F028FC30BB642003F098FC142003F017
:1025900021FCF8B94FF4FA6003F090FC0E490F48A3
:1025A00003F0F6F84FF4FA6003F088FC142003F00F
:1025B00011FC78B9642003F081FC142003F00AFCBC
:1025C00040B90748FFF7DCF9BDE808400348054972
:1025D00003F0DEB808BD00BFD0E90008C414002035
:1025E00019140020E4E9000810B5064C06492046FD
:1025F00003F086FA20460549054ABDE8104003F07D
:102600007FBD00BF44140020B5E300087D5A0008D8
:102610000800002010B5104C1049204603F0B8F80F
:102620000F49204603F0B4F8204602F055FF0D484C
:1026300000F040FC0120002103F0E2FB0121132007
:1026400003F0DEFB012002F0DDFA012002F0F4FAD3
:10265000BDE8104002F0DCBAC414002028EA0008EB
:102660003AEA00087014002030B589B03E4802F004
:102670004FFF00280ADD3C4802F0F6FEC1B23B489D
:1026800003F0B9FA022003F019FCEFE7374CA36816
:10269000002B66D0204603F034FB354905A803F033
:1026A0002FFA05A902A803F04CFA214602A803F06C
:1026B000D1FA01462C4803F061F802A803F0DEF9D4
:1026C00005A803F0DBF92B4905A803F019FA204609
:1026D00005A903F008FB054605A803F0CFF965B18D
:1026E0002549214803F054F800230093234901228F
:1026F000234B2448FEF7C2FC2FE0234905A803F032
:10270000FFF9204605A903F0EEFA054605A803F0F7
:10271000B5F955B11D4A1448137883F001031370BD
:102720000BB11B4917E01B4915E01B4905A803F035
:10273000E7F9204605A903F0D6FA044605A803F0F8
:102740009DF9094834B1154903F022F8144801F005
:10275000B7FB02E0134903F01BF80448124903F0E9
:10276000FAF909B030BD00BFC414002044140020A1
:102770004DEA000858EA000860EA0008BA14002090
:102780007CEA00081814002086EA000841140020A2
:102790008CEA0008A1EA0008B6EA0008C1EA0008CD
:1027A000BE140020DDEA0008B5E30008B44B30B5E4
:1027B0001A688DB022F0E06242F000721A60B148EF
:1027C00000F028FBB0484FF4165102F0FFFEAF486E
:1027D0004FF41651FEF78EF94FF41651AC4802F043
:1027E000F5FE02F060F9A948FEF760F90820002123
:1027F00003F0A0FA0021082003F002FBA548FEF731
:10280000DFFE0121A148FEF7EFFA4FF47A7003F0E2
:1028100055FBA148FEF7B8F80021132003F0F0FAA9
:102820000A2003F04BFB9D49974802F0B1FF9C48FA
:102830002221FFF77BF90228044606D1984823217C
:10284000FFF774F9142805461CD01422944802217D
:10285000FFF755F99349684603F052F9694606A80F
:1028600003F06FF91022022103A803F096F903A9DF
:1028700006A803F0EFF98C4903F0F9F91421044696
:1028800009A816E08949684603F03AF9694606A89E
:1028900003F057F92146102203A803F07EF903A99B
:1028A00006A803F0D7F9804903F0E1F92946044668
:1028B00009A8102203F071F9204609A903F0CAF90A
:1028C0000146714802F05AFF09A803F0D7F803A89F
:1028D00003F0D4F806A803F0D1F8684603F0CEF868
:1028E0006F482421FFF720F90728044617D16C48C8
:1028F0002521FFF719F91028054610D16C4906A8C3
:1029000003F0FEF806A909A803F01BF9214609A85F
:1029100003F0BFF9644903F0AAF9294614E0102234
:102920005F480721FFF704F9624906A803F0E8F8B9
:1029300006A909A803F005F9072109A803F0A9F9D8
:10294000594903F094F9102103F0A3F901464E48C8
:1029500002F014FF09A803F091F806A803F08EF81E
:10296000FFF70CFE5448FFF702F8014680B94748CC
:10297000FEF72EFD45480121FEF7C2F8012143482C
:10298000FEF732FA4448FDF7FFFF4B48FEF7D2FF4F
:102990004A48FEF75AFFFFF743FD49494748FEF70B
:1029A00083FF0146B0B90A22364800F059FA45497A
:1029B000354802F0EDFE444801F0FEF84FF47A701D
:1029C00003F07CFA3448FDF7DFFF40F6B83003F03F
:1029D00075FAE2E73D492C4802F0DAFE2A483C4904
:1029E00002F0BBFE0024364B1022195D264802F08F
:1029F0005CFF01342448374902F0AFFE092CF2D1C4
:102A0000214802F0AFFE0A2201211E4800F028FAF8
:102A10001C4800F065FA04461A4800F061FA2044A8
:102A200044082D4906A803F06BF806A909A803F08D
:102A300088F8214609A803F036F9284903F017F968
:102A40000146114802F09AFE09A803F017F806A8FB
:102A500003F014F840F6B8339C4207D8642003F022
:102A60002DFA1F48FFF744FBFFF7D4FDFFF756FD93
:102A700040F673639C421B4B36D900223AE000BFFC
:102A80000400014070140020C41400201814002019
:102A9000F41400201D14002016140020B5E30008D3
:102AA0001C14002071EB0008FDE40008BCEB0008DA
:102AB000D2EB0008E8EB0008191400201E140020D7
:102AC0003814002006EB0008BE14002039EB000883
:102AD00051EB00084FEB00085BEB00086EEB0008C1
:102AE000291400202814002040F6E44294428CBFB0
:102AF0000122022203481A70FFF740FAFFF7B4FDE3
:102B00000DB030BD2914002008B5034B1B7813B15C
:102B1000FFF7AAFDF9E708BD4114002008B5FFF74B
:102B2000F3FFBDE80840FFF775BD00000A4B1A68C7
:102B30000A4B9B6800BF00BF074909688A42F5D16C
:102B4000C3F58C33482103F5A073B3FBF1F34FF4C5
:102B50007A7000FB02307047A415002010E000E0FE
:102B600010B5044680E80600D0B2002103F0E2F878
:102B70002078002103F0DEF800232079E3600121B2
:102B800003F03EF920780121BDE8104003F038B988
:102B900038B5C36804460D4623B10021C1600078F2
:102BA00003F0C8F820782946BDE8384003F028B97A
:102BB00010B500210446FFF7EBFF642003F08CF909
:102BC0002079002103F01CF9BDE81040642003F0D7
:102BD00083B910B500210446007903F011F964208F
:102BE00003F07AF920460021FFF7D2FF642003F0BA
:102BF00073F92079012103F003F9642003F06CF9E3
:102C000020460121FFF7C4FFBDE81040642003F017
:102C100063B9F8B504460E460825F7092079002166
:102C200003F0EEF820463946FFF7B2FF0121207984
:102C300003F0E6F8642003F04FF920463946FFF729
:102C4000A7FF7600013DF6B2E7D12946207903F0CF
:102C5000D7F82078022103F06DF80223E360207991
:102C6000012103F0CDF8FFF761FF0546207803F05E
:102C7000B1F830B1FFF75AFF401B6428F6D90020A5
:102C8000F8BD0120F8BD38B50D460446FFF790FFAA
:102C90006900204601F0FE01FFF7BBFF38BD08B513
:102CA000FFF797FF002008BD08B5FFF7B2FF08BD8A
:102CB00070B50D466D0004461646FFF779FF691C96
:102CC000A6602046C9B2FFF7A4FF70BD70B5866844
:102CD0000446002E55D00078022103F02BF8022381
:102CE000E360082500262079002103F089F80121FE
:102CF000207903F085F8642003F0EEF8207803F0E3
:102D000069F8013D00EB460000F0FF06EBD1A36837
:102D10006068013B002BA360C0B2294617DD03F0B9
:102D20006FF8642003F0D8F829462046FFF730FFFB
:102D3000642003F0D1F82079012103F061F86420C8
:102D400003F0CAF82079294603F05AF819E003F095
:102D500057F8642003F0C0F801212046FFF718FF60
:102D6000642003F0B9F80121207903F049F86420C8
:102D700003F0B2F82079294603F042F82046FFF725
:102D800028FF304670BD002330B5054618468B42FB
:102D90000FDAEA5C5040082210F0010F4FEA60049D
:102DA0001ABF84F0E000C0B2E0B2013AF4D10133BE
:102DB000EDE730BD08B5134B13491A6809680132B5
:102DC0008A421A601DD3114900221A600B78DB4336
:102DD000DBB20B700E49097841B1012911D11820DD
:102DE00003B1114603F00CF8192005E0192003B9CE
:102DF000012103F005F818200021BDE8084002F089
:102E0000FFBF08BD641400206C1400206014002073
:102E10006814002008B51320002102F08BFF182051
:102E2000002102F087FF1920002102F083FF10200B
:102E3000022102F07FFF1420022102F07BFF032118
:102E4000072002F077FF0A2003F038F8182000214D
:102E500002F0D6FFBDE808401920002102F0D0BFE3
:102E60000F4B10B50F4C19700F4B20461A60012103
:102E7000022202F013FC20460C4902F0F0FB012173
:102E800020460A4602F00EFC20460121084A02F0C4
:102E900018FC20460021BDE8104002F0D7BB00BF5F
:102EA00068140020641500206C140020A086010026
:102EB000B52D000808B5064802F0B2FB1820002125
:102EC00002F09EFFBDE808401920002102F098BFE3
:102ED00064150020014802F0ABBB00BF6415002060
:102EE00030B58BB001AD28460021242206F0CCF885
:102EF0000024072002F060FF04F046FB12A3D3E990
:102F0000002304F0A7FB0022114B04F0A3FB04F004
:102F100063FE28514FF47A70043402F0DDFF242C54
:102F2000E7D109226B4608AC53F8040F5968884270
:102F300084BF58601960A342F6D1013A12F0FF0233
:102F4000F0D105980BB030BDF163CC5D4BC8E93FC3
:102F500000001840AFF3008008B51620002102F0F1
:102F6000E9FE1720002102F0E5FE1620012102F003
:102F700047FFBDE808401720012102F041BF17209C
:102F8000002102F0D7BE1720042102F0D3BE08B5FD
:102F9000FFF7F5FF1720012102F032FF0121162073
:102FA00002F02EFF052002F097FF0021172002F00B
:102FB00027FF062002F090FFBDE808401620002100
:102FC00002F01EBF08B5FFF7DAFF1620002102F05D
:102FD00017FF1720002102F013FF0121162002F035
:102FE0000FFF062002F078FF1720012102F008FFF2
:102FF000BDE80840062002F06FBF10B5002104466E
:10300000162002F0FDFE2046FFF7B9FF0021172031
:1030100002F0F6FE022002F05FFF0121162002F00E
:10302000EFFE052002F058FFBDE8104016200021F9
:1030300002F0E6BE10B500210446162002F0E0FEC4
:103040002046FFF79CFF0121172002F0D9FE022045
:1030500002F042FF0121162002F0D2FE052002F00C
:103060003BFFBDE810401620002102F0C9BE70B53C
:103070000646FFF788FF0121172002F0C1FE01205C
:1030800002F02AFF1620012102F0BAFE012002F010
:1030900023FFFB25172002F09DFE044640B1013DB1
:1030A00015F0FF05F6D13046FFF78CFF012070BD0B
:1030B0001620214602F0A4FE204670BD38B50C460D
:1030C000FFF75DFF1620002102F09AFE082524F08C
:1030D0007F0303F0FF01172003B1012102F090FEEE
:1030E0000121162002F08CFE022002F0F5FE1620CF
:1030F000002102F085FE013D0220640002F0ECFE9A
:1031000015F0FF05E4B2E2D138BDF8B505460F462B
:10311000FFF739FF082600240021162002F070FE78
:10312000022002F0D9FE1620012102F069FE64009F
:103130001720E4B202F04EFE08B10134E4B20120DF
:10314000013E02F0C9FE16F0FF06E5D1284617B988
:10315000FFF770FF01E0FFF750FF2046F8BD704712
:10316000012070470120704710B5FF2301441A4623
:10317000884208D010F8014B5440044A125D5A406E
:10318000034B1B5DF4E743EA022010BD0D00002055
:103190000F01002070B5094D094C064622782978A8
:1031A0000848FFF7DDFC2878012102F029FE20788D
:1031B000012102F025FE304670BD00BF0D01002048
:1031C0000E010020A814002010B5064C2046FFF781
:1031D0005AFD2046FFF763FDD0F1010038BF002003
:1031E00010BD00BFA814002010B54A2104460548B0
:1031F000FFF7EAFF28B1236820461B6801219847A2
:10320000012010BDB814002070B5094C15462046A9
:103210001E46FFF738FD29462046FFF745FD2046AC
:103220003146FFF741FD2046BDE87040FFF737BD4E
:10323000A8140020F8B5134814461E460F469DF802
:103240001850FFF720FD21460E48FFF72DFD0D48D1
:10325000FFF725FD0B4CA5B12A4620463946FFF75E
:1032600027FD0022237A551C33B10648D7B2FFF759
:103270002DFD2A46F055F5E70248BDE8F840FFF776
:103280000EBDF8BDA8140020F0B51C4685B0012382
:1032900000930DF10F03154607460E46FFF7CAFFD0
:1032A0009DF80F309DF8282023EA0403144023439F
:1032B000384631462A468DF80F30FFF7A5FF05B096
:1032C000F0BD000013B5002471B1012213460B4874
:1032D0004A210094FFF7D8FF4A21009407480222B0
:1032E0004023FFF7D1FF8021009104484A210222A8
:1032F0008023FFF7C9FF02B010BD00BFB814002043
:1033000008B51E220F481F21FFF72AFC38210D485F
:10331000FFF7B9FC06210B48FFF7C6FC0948FFF789
:10332000BEFC4FF4FA7002F0C9FD0748FFF75CFFDE
:1033300010B10648064901E004480649BDE80840C6
:1033400002F026BA5014002074140020C414002087
:1033500070EC000889EC0008F0B5334C85B00D46E0
:103360001646FFF7CDFF392101222046FFF7A0FCCA
:10337000012002F0A3FD277A1FB12046FFF7A6FC2B
:103380000746382101222848FFF792FC012002F06D
:1033900095FD207A10B12448FFF798FC40EA0720F9
:1033A00004F0E2F81EA3D3E9002304F053F904F07B
:1033B00013FC1E4930601E4802F0CFF931680A2222
:1033C0001B4802F08EFA022300931A4803AB4A21ED
:1033D0000322FFF72FFF9DF80D209DF80C3002F01F
:1033E0000F0242EA03122D21D2B24A431B0902FA0C
:1033F00003F34FF47A72B3FBF2F32B600E490C48DF
:1034000002F0ABF929680A22094802F074FA0B4964
:10341000074802F0BDF905B0F0BD00BFAFF3008072
:103420000AD7A3703D0A773F50140020A2EC000891
:10343000C4140020B8140020A8EC0008BFEC000859
:1034400008B50348FFF7A6FE024A034B1A6008BD01
:10345000B814002040EC0008741400202DE9F0435B
:103460001E46504B87B018688846596801AC03ADBA
:1034700003C4174600210A22284605F005FE9DF8E0
:10348000383006AC04F8143D20460621FFF76CFEE8
:10349000030A8DF80B0044488DF80A300368214672
:1034A0009B68082298474FF4967002F007FD0024AD
:1034B0003D4802F02DF800285FFA84F90EDD092C52
:1034C00006D13A483A4902F063F94FF0000905E0A5
:1034D000354801F0C9FF28550134E9E7334835493B
:1034E00002F056F9B9F1000F0DD133492F4802F01F
:1034F0004FF92E482F4902F04BF99DF80C309DF8FA
:10350000144073B123E000244C45EED2295D102213
:10351000264802F0CAF92548284902F01EF901346C
:10352000F2E70DF10D000721FFF71EFE9DF81530A3
:1035300043EA042484422CD19DF811309DF81000F8
:103540009DF8124043EA00209DF8133013E028460E
:103550000721FFF709FE9DF8133044EA0324844253
:1035600017D19DF810309DF80F009DF8114043EAE7
:1035700000209DF8123043EA042404F053FC104963
:1035800004F05CFDC8F800003C60E40B34700120DE
:1035900004E006480B4902F0FBF8002007B0BDE844
:1035A000F08300BF58EC0008F4140020C41400207D
:1035B000C4EC0008E5EC0008B5E300084FEB000898
:1035C0000000204101ED0008F0B50F4642498DB0E2
:1035D0000868496801AB03AD03C30CAC1646002173
:1035E0000922284605F050FD04F82C6D20460621DE
:1035F000FFF7BAFD030A8DF80B0038488DF80A3042
:10360000036821469B68082298474FF4967002F0A1
:1036100055FC0024314801F07BFF0028E6B20DDDA7
:10362000082C05D12E482F4902F0B2F8002605E0FB
:103630002A4801F019FF28550134EBE728482A49A8
:1036400002F0A6F8002E32D12849254802F0A0F851
:103650002549234802F09CF828460521FFF784FD00
:103660009DF811209DF8123043EA022383422CD1A9
:103670009DF810309DF80F401D4906A843EA042428
:1036800002F03EFA06A909A802F05BFA214609A851
:1036900002F009FB0146124802F070F809A802F096
:1036A000EDF906A802F0EAF93C60012012E00024DE
:1036B000B442C9D2295D1022094802F0F6F8084840
:1036C0000C4902F04AF80134F2E705480A4902F0D1
:1036D0005FF800200DB0F0BD60EC0008F41400208D
:1036E000C41400203DED00085EED0008B5E30008BD
:1036F0007AED00084FEB000885ED00082DE9F04158
:1037000017463C4A86B010688846516801AC03AD44
:103710001E4603C40A2206AC0021284605F0B4FC6C
:1037200004F8146D20460621FFF71EFD030A8DF8EC
:103730000B0031488DF80A30036821469B68082247
:1037400098474FF4967002F0B9FB00242A4801F024
:10375000DFFE0028E6B20DDD092C05D127482849F7
:1037600002F016F8002605E0234801F07DFE2855FA
:103770000134EBE72148234902F00AF826BB22492D
:103780001E4802F005F81F491C4802F001F82846BF
:103790000721FFF7E9FC9DF813209DF8143043EA58
:1037A000022383421ED19DF80F209DF810309DF812
:1037B000111043EA02239DF81220012042EA01225F
:1037C000C8F800203B6012E00024295D10220B485D
:1037D00002F06BF8013409480C4901F0BEFF092CD6
:1037E000F3D1CCE705480A4901F0D2FF002006B02A
:1037F000BDE8F08168EC0008F4140020C414002037
:10380000A5ED0008C9ED0008B5E300084FEB00087E
:10381000E8ED00082DE9D7410121082002F0F0FA77
:103820004FF47A7002F04AFB4E48FEF77FFD4E4E91
:1038300004243060642002F041FB4A48FEF788FD12
:10384000B06040F2DC5002F039FB4849012300939C
:103850004748A1F108020B1FFFF700FE08B9013C21
:10386000F3D1642002F02AFB0424424940480A1D97
:103870000123FFF743FF08B9013CF6D1642002F0B1
:103880001DFB04243A483C490222FFF79DFE08B97B
:10389000013CF7D1642002F011FB3849344801F1B2
:1038A0001802FFF759FD642002F008FB344935483F
:1038B00001F053FF306803F079FE022702460B4601
:1038C0000097304802F0CCF82F492E4801F045FF10
:1038D000B06803F06BFE00970B460246294802F0E1
:1038E000BFF82A49274801F038FF31694FF00A082C
:1038F0004246B1FBF8F1234801F0F3FF2449214887
:1039000001F02BFFB06903F051FE009702460B4611
:103910001C4802F0A5F81F491A4801F01EFFB06AC2
:1039200004F080FA1C4904F089FB03F03FFE009785
:103930000B460246134802F093F81849114801F06B
:103940000CFF4246F1690F4801F0CBFF14490D48C6
:1039500001F003FF0B48316A424603B0BDE8D04195
:1039600001F0BFBF2C1400207C1400209414002010
:103970007814002098140020A4140020881400203B
:103980001EEE0008C414002032EE000818EE0008F5
:103990002CEE00083DEE00080000C84248EE00088A
:1039A00055EE00080A22B1FBF2F302FB131202EB00
:1039B0000310C0B2704701F00F03090901EB810148
:1039C00003EB4100C0B2704737B50C460C480DF10F
:1039D0000701FDF7E6FE9DF807304FF47A70584373
:1039E000084902F02EFA9DF8073005466420584336
:1039F000054902F026FA2844206003B030BD00BF1C
:103A00001E14002080841E00400D030070B50E4679
:103A100015460024E3B2AB42074809D2315D1022BB
:103A200001F043FF0448054901F097FE0134F1E736
:103A3000BDE8704001F096BEC41400204FEB0008B2
:103A400030B595B040220546002104A805F01CFBC6
:103A5000002414A941F8504D28466946FFF7B4FFE9
:103A6000009802F039FAFE238DF81030E0238DF82B
:103A7000113011238DF8123024238DF813300123D7
:103A80008DF81530444B8DF814401B7803B1552345
:103A900042488DF81630FEF7F8F801AC8DF81700A3
:103AA00021463E48FEF794F8002304AA1A44E15C3C
:103AB0000133052B1172F8D139482146FDF719FE63
:103AC000002304AA1A44E15C0133092B5173F8D195
:103AD00000240123222133488DF826308DF8274019
:103AE0008DF828408DF829408DF82A408DF82B401C
:103AF0008DF82C408DF82D408DF82E408DF82F40FC
:103B0000FEF714F823218DF830002648FEF70EF852
:103B100024218DF831002348FEF708F825218DF87F
:103B200032002048FEF702F824218DF8330005A862
:103B30008DF834408DF835408DF836408DF837409B
:103B4000FFF721F98DF83800E30704AB234404F1B3
:103B5000010454BF0D220A22062C83F82920F3D138
:103B60001149124801F014FE04A928462F22FFF73C
:103B70004DFF0F48FFF79EF90E4804A903682F2256
:103B80009B6898474FF4FA7002F098F90848FFF7DD
:103B9000A1F915B030BD00BF171400201B14002080
:103BA0001E1400201C14002062EE0008C414002023
:103BB00070140020DC14002030B587B014220446B5
:103BC000002101A805F060FA002506A941F8185D5A
:103BD00020466946FFF7F8FE009802F07DF9FE23C3
:103BE0008DF80430E0238DF8053013238DF806306E
:103BF00005238DF8073001238DF809301E4B8DF811
:103C000008501B7803B155231C488DF80A30FEF785
:103C10003CF801238DF80B00052102A88DF80C302B
:103C2000FFF7B1F800238DF80D00DA0701AA1A4456
:103C300003F1010354BF0D210A21062B9172F4D127
:103C40000F49104801F0A4FD01A920461022FFF7FA
:103C5000DDFE0D48FFF72EF90C4801A9036810227C
:103C60009B6898474FF4FA7002F028F90648FFF76E
:103C700031F907B030BD00BF171400201B1400201D
:103C80007EEE0008C414002070140020DC14002014
:103C900030B58DB01E220546002104A805F0F4F9C8
:103CA00000240CA941F8244D2846ADF80840FFF740
:103CB0008BFE039802F010F9344B0094344802A9AB
:103CC0000122FDF7DBF9FE238DF81030E0238DF89B
:103CD000113014238DF8123012238DF81330012384
:103CE0008DF815302B4B8DF814401B7803B15523FC
:103CF00029488DF81630FDF7C8FF01238DF81830DC
:103D0000264B00241B788DF817009DF808102448D6
:103D10008DF819308DF81A408DF81B40FFF74BFED7
:103D20009DF809108DF81C001D48FFF744FE122174
:103D30008DF81D0005A8FFF726F823468DF81E0014
:103D4000DA0704AA1A4403F1010354BF0D210A2122
:103D5000062BD173F4D11349134801F019FD04A9BE
:103D600028461522FFF752FE1048FFF7A3F8104827
:103D700004A9036815229B6898474FF4FA7002F073
:103D80009DF80A48FFF7A6F80DB030BD7CEA0008A0
:103D900018140020171400201B140020BF1400204A
:103DA000B9140020A4EE0008C414002070140020F0
:103DB000DC140020F0B589B005460F4616460021F8
:103DC000192201A805F060F9002408A941F8204D46
:103DD00028466946FFF7F8FD009802F07DF8FE23BB
:103DE0008DF80430E0238DF8053015238DF806306A
:103DF0000E238DF8073001238DF809302A4B8DF8FA
:103E000008401B7803B1552328488DF80A30FDF788
:103E10003CFF00248DF80B00012302A80E218DF831
:103E20000C308DF80D708DF80E408DF80F408DF828
:103E300010408DF811408DF812408DF813408DF828
:103E400014408DF81540FEF79EFF8DF81600E3072D
:103E500001AB234404F1010454BF0D220A22062CB5
:103E6000DA74F4D11249134801F092FC284601A9F2
:103E70001922FFF7CBFD1048FFF71CF80024E3B22E
:103E8000B3420BD20D4801A9036819229B689847D9
:103E90004FF4FA7002F012F80134F0E70648FFF729
:103EA00019F809B0F0BD00BF171400201B14002042
:103EB000BEEE0008C414002070140020DC140020A2
:103EC0002DE9F0410024ACB007462146142207A892
:103ED000039405F0D9F8802221460CA805F0D4F807
:103EE0002CA941F8A04D3846B74DFFF76DFD049859
:103EF00001F0F2FF2B780BB16B785BB9B349B44892
:103F000001F046FC00230093B248AF490122B24BB6
:103F1000FDF7B4F8B148FFF77DFCFE238DF8303093
:103F2000D0238DF83130342301268DF83330AC485E
:103F300000238DF834308DF832608DF83560FEF74F
:103F4000CFFFA84C030AD4F800808DF83700A649AB
:103F500040468DF8363004F079F928B1FF238DF80A
:103F600038308DF839301BE04046002104F050F91C
:103F700020B108F10048C4F8008000E006460223A2
:103F800003A821680422FCF765FA9DF80C308DF82F
:103F900038309DF80D308DF839300EB1F22300E045
:103FA000E223A6688DF83A3030460023039304F0EC
:103FB00057F90138632803D9FF238DF83B300BE014
:103FC000022303A831460422FCF744FA9DF80C3082
:103FD0008DF83B309DF80D308DF83C300021E22308
:103FE000142207A88DF83D30039105F04DF8E268E2
:103FF0007E4B9A4207D9FF238DF83E308DF83F3033
:104000008DF8403019E07A4907A805F0A5FA07A80D
:1040100005F044FC07A9024603A8FCF7E3F99DF864
:104020000C308DF83E309DF80D308DF83F309DF806
:104030000E308DF840309DF80F308DF84130E02380
:104040008DF84230A36A0A200026B3FBF0F00396F5
:1040500003F0E8FE04220146334603A8FCF7FAF910
:10406000A36A4FF6FE72934207D9FF238DF84330BF
:104070008DF844308DF8453009E09DF80C308DF80E
:1040800043608DF845309DF80D308DF84460606ACE
:104090008DF846300026E12364288DF847300396DA
:1040A00003D9FF238DF848300DE003F0BBFE334603
:1040B0000146042203A8FCF7CDF99DF80C308DF8D9
:1040C00048309DF80D30E02220698DF84A208DF8A7
:1040D0004D208DF850204FF6FE728DF849309042F9
:1040E0004FF0FF038DF84B308DF84C308DF84E308B
:1040F0008DF84F3002D98DF8513016E0394B1B7DC9
:10410000012B08BFC0F5803003F08CFE394903F065
:1041100095FF02230146042203A8FCF79BF99DF8B2
:104120000C308DF851309DF80D308DF85230237DD4
:10413000A669012B0CBFF223E2238DF853303046E1
:104140000023039304F08CF8642803DDFF238DF82B
:1041500054300BE0022303A831460422FCF77AF91D
:104160009DF80C308DF854309DF80D308DF8553099
:10417000206AE2238DF856304FF6FE7300269842EF
:10418000039603D9FF238DF857300DE003F04AFE64
:1041900033460146042203A8FCF75CF99DF80C3075
:1041A0008DF857309DF80D308DF85830E069E023D8
:1041B0008DF859304FF6FE730026984203961BD9AE
:1041C000FF238DF85A3025E0BA140020D6EE0008FF
:1041D000C4140020181400207CEA00087814002081
:1041E000701400207C14002000001643400D0300D2
:1041F000EFEE00080000204103F014FE33460146B4
:10420000042203A8FCF726F99DF80C308DF85A30EB
:104210009DF80D3005AC8DF85B302548E023214634
:104220008DF85C30FDF76AFE00230CAA1A44E15CAD
:104230000133072B82F82D10F7D12B780DA88DF8BC
:104240006430AB7834218DF865306B788DF866304A
:10425000EB788DF86730FEF796FD00238DF8680047
:10426000DA070CAA1A4403F1010354BF0D210A21F5
:10427000062B82F83910F3D10E490F4801F088FA65
:104280000CA938463F22FFF7C1FB0C48FEF712FE8F
:104290000B480CA903683F229B6898474FF4FA70BB
:1042A00001F00CFE0548FEF715FE2CB0BDE8F081CC
:1042B00029140020F5EE0008C4140020701400201A
:1042C000DC140020122938B50546144608460BD0E8
:1042D000132910D0112916D100F07CF80CB120461A
:1042E0000FE047F6FF700CE000F074F8002CF6D1F8
:1042F00049F63F4005E000F06DF8002CEFD14FF299
:10430000234000F06BF9284638BD13B5002204465F
:1043100001A8FFF7D7FF204602B010BD084600F005
:1043200043B900F02FB910B510460C4600F070F9F3
:1043300021460320BDE8104000F0A2B8054B1B68E1
:104340001B685B0103F1844394331A68002AFCD094
:10435000704700BF10020020054B1B681B685B0103
:1043600003F184438C331A68002AFCD0704700BFE5
:104370001002002008B5FFF7E1FF054B00221B6883
:104380001B685B0103F18443C3F88C2008BD00BFA8
:104390001002002008B5FFF7D1FF054B01221B6872
:1043A0001B685B0103F18443C3F8902008BD00BF84
:1043B0001002002008B5FFF7C1FF054B00221B6863
:1043C0001B685B0103F18443C3F8902008BD00BF64
:1043D0001002002010B5044600F065FB00F070FBF1
:1043E000204A112C136A23F44073136213460BD036
:1043F00005D8C4B1102C2AD10023136227E0122C57
:1044000011D0132C1AD022E0174A0021116001218B
:1044100042F8081C154A126812F0FF0FFAD01A6A07
:1044200042F4807212E0124A01211160114A1268AE
:10443000002AFBD01A6A42F4007207E00E4A1268A2
:1044400012F0FF0FFAD01A6A42F440721A620B4B54
:1044500001221A60FFF78EFFFFF77EFFBDE81040D4
:10446000FFF76CBF001002400804424204044242BD
:104470008004424284044242440042423C0442429C
:1044800038B5144D04462B6803EB80035960FFF7E1
:1044900055FF032C09D1104A01231360C2F80031E3
:1044A0000E4B4FF400725A6038BD2B6801221B6816
:1044B000944204EBC3034FEA830303F184431A607D
:1044C00003D002D3022C00D038BD044B08221A605E
:1044D00038BD00BF100200204480204200E100E00F
:1044E00010B50446FFF72AFF032C0B4B05D10B49EF
:1044F00000220A60C1F8002108E01A680021126851
:1045000004EBC202920002F1844211601B6803EBCB
:1045100084040023636010BD100200204480204208
:10452000F8B5104B1E6835682B686F681F4017F090
:10453000010403D074680CB1A0470124BA0704D564
:10454000B36813B1984744F002047B0704D5F368BD
:1045500013B1984744F004046B6823EA04046C60C8
:10456000F8BD00BF1002002008B5044B1B681B6992
:104570001BB19847024B01221A6008BD10020020AF
:10458000C482204208B5FFF7F5FEFFF7E5FEFFF70E
:10459000D5FE044B1B681B689869DB699BB243EA34
:1045A000004008BD1002002010B50446FFF7E2FEEF
:1045B000FFF7D2FEFFF7C2FEFFF7ECFE064B220C20
:1045C0001B68A4B21B689A61DC61FFF7F3FEBDE8CB
:1045D0001040FFF7B3BE00BF1002002010B5044624
:1045E000FFF7C8FEFFF7B8FEFFF7A8FEFFF7D2FE01
:1045F000064B220C1B68A4B21B689A60DC60FFF7B4
:10460000D9FEBDE81040FFF799BE00BF10020020A0
:1046100010B50446FFF7AEFEFFF79EFEFFF78EFED5
:10462000FFF7B8FE064B220C1B68A4B21B681A6287
:104630005C62FFF7BFFEBDE81040FFF77FBE00BF22
:104640001002002001498D46014908470050002012
:104650005546000808B5124B124A1968914201D01C
:10466000002301E0104B07E01048D4188442F9D22F
:10467000C858D0500433F7E70D4A934203D20022C2
:1046800043F8042BF8E704F04FF9002001460246F6
:1046900001F04AFB074B0BB104F036F9FEE700BF0F
:1046A000C4F40008000000207813002078130020D4
:1046B000B01500200989000808B50D4B1A680AB921
:1046C0000C4A1A601B680C4AD21A824204DB094960
:1046D0004242591A914206DA04F010F90C230360A1
:1046E0004FF0FF3008BD024A18441060184608BD5C
:1046F000C0140020B0150020802E0128FEE770476E
:104700000B4B10B5196809220A230A4800F014FF60
:10471000094B022219680948032300F00DFFBDE888
:104720001040074B074819681A221B2300F004BFEA
:1047300034030020C414002038030020DC140020BF
:104740003C030020F414002010B5044600F090F95A
:10475000034B20461978BDE8104000F015B900BFA2
:104760002C020020F8B50446056800F059FB2268C9
:104770000023510101F184410B6080212960012156
:10478000A9622B61EB606379696113B18B4203D03D
:104790002BE04FF400436B644FF6FF73D3620025A8
:1047A0006E1CF7B22046394600F044FBD0B12368B6
:1047B00048F6FF7103F1340242F8251018336D10EA
:1047C00017F0010F53F8252014BF6FF0FF016FF4AD
:1047D0007F4101EA020214BF68214FF4D0410A432D
:1047E00043F82520042E3546DAD1216801224B01F9
:1047F000490103F1844301F18441C3F880220A6036
:10480000F8BD000038B5274B274C1A68022042F04B
:1048100010021A6000F060F90025002000F02AFA6A
:1048200065602368182023F40023236000F02FFA2A
:10483000102000F02CFA00F043F8A560102000F0E2
:1048400019FA102000F031FA0028FAD000F039F8F7
:10485000164800F037FA182000F00CFA182000F083
:1048600024FA0028FAD0022000F0F4F900214FF0D9
:10487000006000F0A1F90E4800F08AFA00F038F864
:104880000C4B188800F0E2F80B4800F0E3F80B48F6
:1048900000F0B2FA00F02EF800F02DF8FFF72FFF2D
:1048A00038BD00BF0020024000100240300200204E
:1048B0003F1901002E020020494700086547000803
:1048C000704708B50020014600F03AFA01204FF485
:1048D000806100F035FA0021022000F031FA2D202D
:1048E00000F03EFABDE808400320002100F028BA9D
:1048F00000F0FCB8704700F039B90000000000007B
:10490000012007E0022005E0032003E0042001E08D
:104910000520FFE70D4A0121116072B60C4A002103
:104920001160074902B4084902B486B005498E46B1
:10493000704700BFAFF30080AFF30080AFF300809B
:1049400000000061F9FFFFFF5554000814ED00E07E
:1049500010E000E0AFF30080AFF30080AFF3008021
:10496000FEE710B50446007900F0B8F92079BDE8FB
:10497000104000F0CBB903689A6822F4602242F438
:104980008012114399607047002370B51A461C4687
:10499000072B4FEA430503DCEE1801FA06F6344311
:1049A0001D4401FA05F501330A2B42EA0502EFD155
:1049B0000368DC601A6170BD0368DA6A22F0F8727D
:1049C000DA6259639A6842F480029A601A68920720
:1049D000FCD5D86C80B2704738B5124D2A68136880
:1049E0001C68A10706D5196821F0020119609368B7
:1049F00003B19847620708D52B681A681B691168CC
:104A000021F00401116003B19847E30708D52B6832
:104A10001A68DB68116821F00101116003B1984741
:104A200038BD00BF5C020020036801225B0103F176
:104A3000844303F58673191F1A6018680028FCD197
:104A400043F8042C0B68002BFCD17047014604206E
:104A500000F076B9044B10B504461868A047034B24
:104A60001868A04710BD00BF5C020020580200205B
:104A700010B50446FFF775FF20464FF46021FFF79D
:104A80007AFF2368012103F1404308335A015B0197
:104A900002F1844203F18443116520461960BDE8A8
:104AA0001040FFF7C1BF08B5142000F017F904202B
:104AB00000F014F9BDE80840042000F027B9000018
:104AC000014B01221A60704720000E42014B002268
:104AD0001A60704720000E42034B1A6822F007024A
:104AE00010431860704700BF0020024008B5074817
:104AF00001F05EFA064801F05BFA064801F058FA48
:104B0000BDE80840044801F053BA00BF600200202D
:104B100068020020700200207802002070B501F0C9
:104B20000704A4000F25A5400368C80853F82060B7
:104B3000092A26EA050514BF1646082606FA04F4D3
:104B4000082A44EA050443F8204006D1012000FA6F
:104B500001F1DA6822EA010106E0092A05D1012003
:104B600000FA01F1DA681143D96070BD08B503207D
:104B700000F0B4F8BDE80840032000F0C7B800001A
:104B8000024B4AF6AA221A60704700BF003000406C
:104B900000284FEA011105DA064B00F00F00C9B2F8
:104BA0001954704700F16040C9B200F5614080F8C7
:104BB0000013704714ED00E021F0604138B521F09A
:104BC0007F01084B0843986000241D4660B20F2106
:104BD0000134FFF7DDFF2B2CF8D1F02385F82330CB
:104BE00038BD00BF00ED00E0044A054BD16801F478
:104BF00040710B43D360BFF34F8FFEE700ED00E041
:104C00000400FA05014B1860704700BFA0000E4277
:104C1000074B1A6842F001021A601A6842F0020259
:104C20001A60044B1A6942F004021A6130BF7047DF
:104C30000070004000ED00E0024B1A6842EA80007C
:104C40001860704700700040014B13F81000704767
:104C500048F10008064B5A6822F0030202435A60EA
:104C600080005A6802F00C028242FAD1704700BFFD
:104C700000100240030A0121C0B201FA00F003F162
:104C8000804303F504331A68104318607047030A21
:104C90000121C0B201FA00F003F1804303F50433AF
:104CA0001A6822EA000018607047030A0222C0B2A4
:104CB00002FA00F003F1804303F504331B68184047
:104CC00070470000044B05C85968126821F474113C
:104CD00002430A435A6070470010024010B5044670
:104CE000FFF7B2FF074B53F82020074B03EB4404B8
:104CF000637803EBC2039B0003F1844301221A6033
:104D000010BD00BF8002002048F1000810B5044625
:104D1000FFF79AFF084B53F82020084B03EB44049D
:104D2000637803EBC2039B0003F1844301221A6002
:104D300000221A6010BD00BF8C02002048F100085C
:104D400010B5054B054C5A6854F8200022EA0002C1
:104D50001143596010BD00BF00100240A4F10008CB
:104D600010B50446FFF770FF074B53F82020074BA0
:104D700003EB4404637803EBC2039B0003F1844319
:104D800000221A6010BD00BF9402002048F1000804
:104D9000024B072258601A60704700BF10E000E025
:104DA00008B5044B1A6801321A60034B1B6803B143
:104DB000984708BDA41500200C15002011F0010F24
:104DC00070B542EA03030CBF0825002503FA05F578
:104DD000006801F1FF3400F11800C4F3400450F8FA
:104DE000241014BF6FF0FF066FF47F463140294353
:104DF00040F8241070BD000010B504460448A047D8
:104E00000448A0470448A0470448A04710BD00BF7D
:104E1000E802002010030020A0020020C4020020AD
:104E200010B504460079FFF759FF2079BDE810401E
:104E3000FFF76CBF03791E2B10D9212B0ED0202B2E
:104E40000ED9222B01D0252B04D102298CBF0020A2
:104E5000012070474B1E584258417047012070474F
:104E6000002070478B1C40F823200368012203F1C7
:104E700040430C3301EBC3039B0003F184431A60EE
:104E800042790379FAB9B3F11A025342534107291F
:104E900045D8DFE801F004090909090E0E13002BBB
:104EA0000CBF2C23192331E0002B0CBF2E231B2316
:104EB0002CE0002B0CBF2D231A2327E0002B0CBF66
:104EC0002B23182322E01B3B0C2B28D8DFE803F010
:104ED000071D090B0D0F2711131517191B001C2394
:104EE00014E01E2312E0322310E036230EE03723B5
:104EF0000CE018230AE0192308E01A2306E02B230C
:104F000004E02C2302E02D2300E01D235909012297
:104F100003F01F0302FA03F3014A42F821307047FD
:104F200000E100E00368002203F140430C3301EB91
:104F3000C3039B0003F1844302311A6040F821202F
:104F4000704738B543790446022B0D463BD0032AFF
:104F500039D8DFE802F002111F2DFFF7E3FF2368C5
:104F6000013D03F140432033DB0003EB85039B004D
:104F700003F18443002225E00368002203F140434B
:104F80000C3301EBC3039B0003F184431A606022DE
:104F9000082301E010220023FFF710FF2368013DE2
:104FA00003F140432033DB0003EB85039B0006E065
:104FB00003684FF2F1229A6103229A605B0103F1C8
:104FC000844301221A6038BD10B5074B1C68E168A4
:104FD00022690A40120606D55B6A23B19847236905
:104FE00023F08003236110BDE802002010B5074BB9
:104FF0001C68E16822690A40D20706D59B6823B184
:105000009847236923F00103236110BDE8020020C3
:10501000F8B50C4F3D68EB682E691E4016F0400451
:1050200003D03C6A0CB1A0474024B30604D5FB6909
:1050300013B1984744F020042B6923EA04042C613F
:10504000F8BD00BFE8020020F8B5134F3E68F368D2
:1050500035691D4015F0100403D0BC690CB1A047A0
:105060001024290704D57B6913B1984744F008043C
:105070006A0704D53B6913B1984744F00404AB07B1
:1050800004D5FB6813B1984744F00204336923EA5E
:1050900004043461F8BD00BFE8020020F8B51A4EE0
:1050A0003768FB683D691D4015F0400403D0346A41
:1050B0000CB1A0474024EB0604D5B36913B198475F
:1050C00044F01004280704D5736913B1984744F0DD
:1050D0000804690704D5336913B1984744F0040400
:1050E000AA0704D5F36813B1984744F00204EB070C
:1050F00004D5B36813B1984744F001043B6923EA2F
:1051000004043C61F8BD00BF10030020F8B51A4E3E
:105110003768FB683D691D4015F0400403D0346AD0
:105120000CB1A0474024EB0604D5B36913B19847EE
:1051300044F01004280704D5736913B1984744F06C
:105140000804690704D5336913B1984744F004048F
:10515000AA0704D5F36813B1984744F00204EB079B
:1051600004D5B36813B1984744F001043B6923EABE
:1051700004043C61F8BD00BFA0020020F8B51A4E3F
:105180003768FB683D691D4015F0400403D0346A60
:105190000CB1A0474024EB0604D5B36913B198477E
:1051A00044F01004280704D5736913B1984744F0FC
:1051B0000804690704D5336913B1984744F004041F
:1051C000AA0704D5F36813B1984744F00204EB072B
:1051D00004D5B36813B1984744F001043B6923EA4E
:1051E00004043C61F8BD00BFC4020020818802684D
:1051F000034689B2505C99881A8989B292B2914269
:1052000017BF9A880022013292B2C0B29A807047CA
:10521000C28838B5838892B29BB201329A42044662
:105220000D461AD0C288038992B29BB29A4202D12B
:1052300083889BB28BB14FF0FF30E288236892B233
:105240009D54E288238992B29BB29A4217BFE388A9
:10525000002301339BB2E38038BD2046FFF7C6FF31
:10526000EBE770B51E460546084611460422059C2C
:10527000FFF754FC9DF810100B223046FFF74EFC50
:105280002B6804F00F01DA6804F0300422F4F052C5
:105290001204120C42EA4122DA601A6922F44052E6
:1052A0001204120C42EA04241C6170BD38B5044695
:1052B000154611B900F096F8014619235943AD007F
:1052C0006423B1FBF5F1B1FBF3F21201100903FB0A
:1052D000101109013231B1FBF3F303F00F03216820
:1052E0001A4392B28A6038BD38B5114DEB68980602
:1052F00007D52B68990604D569680E48C9B2FFF72F
:1053000087FFEB680A4C1A0611D523681B060ED5D9
:1053100009488288C38892B29BB29A4203D0FFF7B1
:1053200065FF606038BDE36823F08003E36038BD4B
:10533000003801401C1500201015002038B5114D13
:10534000EB68980607D52B68990604D569680E485E
:10535000C9B2FFF75DFFEB680A4C1A0611D5236846
:105360001B060ED509488288C38892B29BB29A4226
:1053700003D0FFF73BFF606038BDE36823F0800394
:10538000E36038BD0044004028150020401500208F
:1053900038B5114DEB68980607D52B68990604D5EA
:1053A00069680E48C9B2FFF733FFEB680A4C1A066A
:1053B00011D523681B060ED509488288C38892B28E
:1053C0009BB29A4203D0FFF711FF606038BDE368DB
:1053D00023F08003E36038BD00480040341500200E
:1053E0004C15002008B590F89002FFF72DFC20B175
:1053F0000128034818BF002008BD024808BD00BFAF
:1054000000A24A040051250208B5114B01211C6875
:1054100003222046FFF782FB002301211A46934214
:10542000206834BF02254FF40035B2F5007F0561D6
:1054300003F1010303D0002A08BF012101E04FF06E
:10544000FF31B3F5007F04BF52180023E7E700BF28
:1054500044F1000808B5034B0BB1AFF3008062B60E
:10546000FFF7D2FF0000000003695B68D9889A88C3
:1054700089B292B2D8888A1A998880B289B2884251
:1054800003D2198989B201310A4492B282B1998852
:105490001A6889B2505C99881A8989B292B291428D
:1054A00017BF9A880022013292B2C0B29A80704728
:1054B0004FF0FF30704703695B689988DA8889B2DA
:1054C00092B2914205D09A881B6892B2985CC0B2A1
:1054D00070474FF0FF30704703699A689088D18811
:1054E00080B289B28842F9D11A6813685B06FCD58C
:1054F000704713B504698DF8071020460DF10701B8
:10550000012200F0AFFD0028F7D0012002B010BD4D
:1055100003695B68D8889A8880B292B2D988801A69
:105520009A8889B292B2914203D21B899BB201330D
:10553000184480B27047000030B5002545604FF434
:105540007A758560024D016105600275437530BD55
:10555000C0F1000803692DE9F74FDB680446994262
:105560000F4692462CD890F81480174D4FEA081831
:1055700008EB050690F8159070684FEA091909EBD9
:10558000050B717B10B10022FFF7DBFC206900F0F6
:1055900019FD337B9BF80C2020698DE8080459F82D
:1055A000051058F80530FFF75CFE206900213A46E7
:1055B000FFF77CFE206903B0BDE8F04F00F02CBD82
:1055C00003B0BDE8F08F00BF14EF00080022FFF722
:1055D000C1BF006900F02ABD044B02791B789A42D2
:1055E00002D1034B1B681860704700BF681500208C
:1055F0006C150020002310B50446036072B6054BFD
:1056000019311970044B18600448FFF7F5FB62B6B6
:10561000204610BD681500206C150020D9550008E3
:10562000036800221B685B0103F184431A60704722
:10563000036801221B685B0103F184431A60704711
:10564000036801391B6889B29962704703681B6857
:10565000DA6A92B2914228BF11465962704738B552
:10566000054639B9036801221B689962DA62D86A73
:1056700080B238BD48244C434FF6FF71B4FBF1F1C2
:10568000013189B204EB5104B4FBF1F4FFF7D8FF08
:105690002B68A4B21B682046DC6238BD0068C9B222
:1056A000FFF74FBC0368C9B21B6801F18041D86A9B
:1056B000013980B23433824228BF024643F82120A8
:1056C00070470068C9B2FFF7CDBB000008B50121E3
:1056D0000848FFF78FFF02210748FFF78BFF0321E0
:1056E0000648FFF787FFBDE8084005480421FFF79B
:1056F00081BF00BF581500205C15002060150020F8
:105700006415002070B505460E460024315D29B1B0
:105710002A682846126890470134F7E7204670BD92
:10572000F8B505460C4616468F18BC4206D02B68C5
:1057300028461B6814F8011B9847F6E73046F8BD69
:1057400010B502680B46946809689A68A04710BDB6
:1057500008B503681B68984708BD08B503685B680F
:10576000984708BD38B50D210546FFF7F1FF0A211E
:1057700004462846FFF7ECFF204438BD38B5044600
:10578000FFF7DEFF05462046FFF7ECFF284438BD53
:1057900038B50446FFF7E1FF05462046FFF7E2FF74
:1057A000284438BD2DE9F04F14461D4691B054EA07
:1057B000050381469DF868B004D13021FFF7C8FF8A
:1057C00001202EE04FF000085FFA8BF600272046FC
:1057D000294632463B4602F069FD08F101080DF109
:1057E000000AC2440AF8012C204629463B463246AC
:1057F00002F05CFD04460D4654EA0503E4D10024A2
:1058000008F1FF381DF808104846092994BF3031C7
:105810003731C9B2FFF79CFF0444B8F1000FEFD154
:10582000204611B0BDE8F08F2DE9F041069F0646F5
:1058300014461D462FB90368D1B21B689847BDE8CE
:10584000F081002C75F1000305DA2D21FFF780FFB0
:10585000644265EB4505FFB20697304622462B466B
:10586000BDE8F041FFF79EBF07B5CB1700920A468F
:10587000FFF7DAFF03B05DF804FB38B50446FFF725
:10588000F3FF05462046FFF76DFF284438BD70B58D
:10589000049921B90368D1B21B68984770BDC9B299
:1058A0000491BDE87040FFF77DBF07B5002300926B
:1058B000CAB2FFF7ECFF03B05DF804FB38B504464D
:1058C000FFF7F3FF05462046FFF74CFF284438BD9D
:1058D00007B5002300920A46FFF7D9FF03B05DF831
:1058E00004FB38B50446FFF7F3FF05462046FFF7F3
:1058F00039FF284438BD07B5002300920A46FFF758
:10590000C6FF03B05DF804FB2DE9F74F19460646C4
:10591000144610461D460022002302F02BF99DF884
:1059200030704FF0010838B12046294644A3D3E92E
:10593000002302F015F906E02046294642A3D3E9E8
:10594000002302F003F900B980465FFA88F8204688
:10595000294600220023B8F1000F0DD002F0ECF828
:1059600018B130462D21FFF7F3FE80463849304606
:10597000FFF7F3FE404460E002F0DEF838B1304655
:105980002D21FFF7E5FE05F1004380461D46314B12
:105990004FF0000900225FFA89F1B9420AD210469D
:1059A000194600222C4B01F07FFF09F10109024644
:1059B0000B46F0E72046294601F09AFC04460D46C6
:1059C00002F08AFC82468B4601F016FE02460B4628
:1059D0002046294601F08AFC0A23009304465246D9
:1059E00030465B460D46FFF71FFF804427B1304627
:1059F0001A49FFF7B2FE8044F7B1174B0022204648
:105A0000294601F027FE0D46044602F0BDF8814606
:105A10000A2249463046FFF727FF8044484601F0F6
:105A2000B3FD02460B462046294601F05FFC013FCC
:105A300004460D46FFB2DFE7404603B0BDE8F08FF5
:105A4000800350726C92DF43800350726C92DFC30C
:105A5000E0F100080000E03F00002440FDE4000801
:105A600037B59DF8181004460091FFF74DFF054625
:105A70002046FFF777FE284403B030BD10B504463A
:105A8000006802F081FF204610BD10B50446006892
:105A900008B102F079FF00232360A360636010BDAA
:105AA00038B504460D460068013103F05BFB10B1C8
:105AB00084E82100012038BD036810B5044613B105
:105AC00043688B4207D22046FFF7EAFF20B1A36864
:105AD0000BB922681370012010BD70B50E46114637
