:020000040800F2
:1000000000500020F1460008B1490008B549000839
:10001000B9490008BD490008C1490008114A000853
:10002000114A0008114A0008114A0008114A000844
:10003000114A0008114A0008114A0008514E0008F0
:10004000114A0008114A0008114A0008CD4500086D
:10005000114A0008114A0008114A0008114A000814
:10006000114A0008114A0008114A0008114A000804
:10007000114A0008114A0008114A0008114A0008F4
:10008000114A0008114A0008894A0008114A00086C
:10009000114A0008114A0008114A0008114A0008D4
:1000A000795000089D500008C1500008F950000820
:1000B0004D510008BD5100082D520008114A00089A
:1000C000114A0008114A0008114A0008114A0008A4
:1000D000114A000899530008ED53000841540008E4
:1000E000114A000815460008114A000810B5054CD1
:1000F000237833B9044B13B10448AFF300800123D4
:10010000237010BD78130020000000006CCB0008A5
:1001100008B5064B1BB106480649AFF300800648F8
:10012000036813B1054B03B1984708BD00000000F8
:100130006CCB00087C130020781300200000000026
:10014000012902D11C30C0B27047062984BF01F1D9
:10015000FF31C9B211F0010F14BF1E201F207047DC
:10016000444B2DE9F047B1FBF3F603FB16113C239A
:10017000B1FBF3F203FB1212054602704FF461600B
:10018000B1FBF0F200FB1211B1FBF3F36B704FF413
:10019000FA63AA70B6B2EB80EC884FF4C873B4FB74
:1001A000F3F803FB18481FFA88F8B8F1000F16D0CF
:1001B0006423B4FBF3F203FB12439BB2002B53D036
:1001C00014F0030140F26D130CBF4FF4B7721A46DE
:1001D00096420EDB002908BF4FF4B77304E0B6F572
:1001E000B77F06DB4FF4B773F61A0134B6B2EC8072
:1001F000D2E700236B716423B4FBF3F703FB1747CB
:10020000BFB2B8F1000F06D03FB114F0030F14BF16
:100210000020012002E0012000E0384695F805901A
:10022000C0B24946FFF78CFF864209F1010A15D397
:10023000B8F1000F06D03FB114F0030F14BF002037
:10024000012002E0012000E03846C0B24946FFF735
:1002500077FF301A86B285F805A0D2E701362E71F5
:1002600085F805A0BDE8F087B6F5B67FC1DD40F2A0
:100270006D13B9E780510100F8B5427887783C23C7
:1002800003FB072702780579467903FB0727013D21
:10029000013EEDB2F6B2044605714671013E731C93
:1002A000E38834D04FF4C872B3FBF2F102FB113291
:1002B00092B262B16422B3FBF2F002FB103080B262
:1002C00030B113F0030F14BF0020012000E0012023
:1002D000C0B2F1B2FFF734FF284485B2DEE74FF435
:1002E000C872B3FBF2F102FB113292B2AAB16422DE
:1002F000B3FBF2F102FB113292B28AB113F0030F99
:1003000040F26D1208BF4FF4B7721544ADB2013B15
:100310009BB2B3F5FA6FE2D205E04FF4B772F4E79F
:1003200040F26D12F1E7024800FB0570F8BD00BF16
:100330008051010002F010BE38B50D46044602F0AF
:1003400026FE290A49006039204601F0FE0102F02C
:10035000B5FE204602F08BFEE9B2204602F0AEFE6A
:10036000204602F084FE204602F011FE2046A12124
:1003700002F0A4FE204602F07AFE0021204602F0A0
:10038000C4FE0546204602F055FE204602F01AFE45
:10039000284638BD70B50D461646044602F0F7FDF6
:1003A000290A49006039204601F0FE0102F086FE6C
:1003B000204602F05CFEE9B2204602F07FFE2046B5
:1003C00002F055FE3146204602F078FE204602F04B
:1003D0004EFE204602F0F6FDBDE870400A2005F012
:1003E00083BD0000D30770B548BF01320024520816
:1003F00002312346E5B2954225D211F8025CA5F1FF
:100400004106F6B2052E02D8104B9B5D05E0303D4B
:10041000EDB2092D03D80E4B5B5D1B01DBB211F869
:10042000015CA5F14106F6B2052E01D8074D04E0A6
:10043000303DEDB2092D02D8054E755D2B430355B5
:1004400002310134D6E7002070BD00BF3ADF00085A
:1004500030DF00082DE9F04F824687B00846144689
:10046000994607F0FBF8C9EB0406CDE900013046D8
:1004700007F0E2F802460B4600204D4905F0A0FEC9
:1004800002460B46DDE9000107F0C2FB30B94FF030
:10049000020896FBF8F80546013E07E050460021A9
:1004A000224607B0BDE8F04F08F046BE454536DAB3
:1004B000304607F0C1F802460B4600203C4905F0E3
:1004C0007FFECDE90201701E07F0B6F802460B462A
:1004D0000020374905F074FEDDE90223CDE904016F
:1004E000DDE9000107F038FA07F0A6FBDDE9042397
:1004F0000A2790FBF7FB0BFB17004FEA001BDDE917
:10050000000107F029FA07F097FB90FBF7F303FBD4
:10051000170083440AF805B0023E0135C6E709EB2F
:1005200048094FF0020BC4EB090994FBFBFB09F1EE
:100530000109D84538DA484607F07EF802460B46EE
:1005400000201B4905F03CFE064609F101000F465C
:1005500007F072F802460B460020154905F030FE00
:1005600032463B4604460D46DDE9000107F0CAF875
:1005700007F062FB0A2690FBF6F707FB16002B46F6
:1005800007012246DDE9000107F0BCF807F054FB43
:1005900090FBF6F303FB160007440AF8087009F114
:1005A000020908F10108C4E707B0BDE8F08F00BFF9
:1005B00000002440124A517893784AF2130243EA29
:1005C0000123934213D008D84AF21102934213D068
:1005D0004AF21202934211D00DE04AF21402934201
:1005E00007D04AF22202934205D10420704702202C
:1005F0007047032070477047002070470120704704
:100600009413002010B5074C6018114602F0BBFB94
:10061000054B1B781C4414F8073C1B1A58425841E0
:1006200010BD00BF9413002015140020044B18794E
:100630005B7943EA0020431E58425841704700BF8F
:1006400094130020044B9B79552B044B0CBF0122C3
:1006500000221A70704700BF941300201714002066
:1006600010B5084CE379552B01D1012010BD064887
:1006700001F00BFBE3798342F7D0D0F1010038BFE2
:10068000002010BD941300201B14002013B50D4B47
:100690001C7A552C01D1012012E00B48694601F06B
:1006A00097FA00231A461DF803108C42F3D019B9AB
:1006B0000132D2B2052AEED00133052BF3D100204E
:1006C00002B010BD941300201B14002070B5054625
:1006D0001E46FFF797FF044698B12846FFF7A6FF8E
:1006E000044658B12846FFF7ADFF2846FFF7B8FF8C
:1006F000044648B946B10C480C4911E00A480C4977
:100700000EE009480B490BE02846FFF7BFFF0446FF
:1007100040B99DF810300BB9012403E002480649A6
:1007200005F08EF8204670BDC414002092DF00084A
:1007300040DF00086EDF0008C9DF00081A4B13B560
:100740001B787BB300230093042117220123FFF7BA
:10075000BDFFF0B1154C164804F10C0101F0F8FA98
:10076000A17AE37A134843EA012101F09FFA10B11C
:10077000114B01221A70237A552B03D10F4803F035
:10078000B5F906E0012B04D00C480721012203F043
:1007900067FB0B4B05481A78002102B0BDE81040FA
:1007A00008F0CABC02B010BD0C0000209413002059
:1007B000291400201A14002014140020BE14002054
:1007C00015140020174B07B51B7843B30023009383
:1007D00004210A220123FFF779FFB8B11248134917
:1007E00001F0BBF930B11249124805F029F812485E
:1007F000032108E011490F4805F022F8104B0A22A6
:100800000D481A700421012203F02AFB0D4B0E48FB
:100810001A78002103B05DF804EB08F08DBC03B03A
:100820005DF804FB0C0000201B1400209C1300202A
:1008300001E00008C4140020BE14002031E00008CC
:10084000BF140020151400209413002013B50023BA
:10085000009304210F22FFF739FF10B31D4C1E48EF
:1008600004F10A0100F0CFFE002830D01A4804F14C
:100870000A0100F003FF50B31849194804F0E0FFE3
:100880001848E17901F0D4F9A0B11749144804F0EF
:10089000D7FF16480521012203F0E2FA0E4800F0C6
:1008A000BFFF134B0B481A78002102B0BDE810407F
:1008B00008F042BC0A480F4904F0C2FF0E4B0A225E
:1008C0001A700A480621012203F0CAFAE9E704482F
:1008D0000A49F1E7941300201E140020C4E0000828
:1008E000C41400201B14002061E00008BE14002086
:1008F0001514002093E00008BF140020F1E0000868
:100900000D4B07B51B789BB10023009304210522F2
:100910000123FFF7DBFE10B1084803F00FFA084B84
:1009200008481A78002103B05DF804EB08F004BC15
:1009300003B05DF804FB00BF0C000020BE140020D3
:10094000151400209413002010B50446FFF732FE62
:10095000032817D8DFE800F00207110C2046BDE895
:100960001040FFF7EBBE2046BDE81040FFF72ABF5E
:100970002046BDE81040FFF7C3BF2046BDE8104049
:10098000FFF764BF10BD00002DE9F047404C002781
:1009900082462770002635463E4804F011FE0028A6
:1009A00033DD94F800903B4809F10103237004F013
:1009B000B3FDDFF8F48008F80900052005F094FA8B
:1009C00023781022434413F8011C334804F0C5FF78
:1009D0003148324904F019FF94F90030002B4346A6
:1009E00002DA2B4A00211170F6B922781A4412F863
:1009F000012C0D2A01D117E00126052DCCD1264866
:100A0000274904F01DFF0127C4E757B125492248B3
:100A100004F016FF5046FFF797FF00232370BDE850
:100A2000F0872770BDE8F087042DE5D8DFE805F0F2
:100A3000030C151E27002278134413F8015CB5F14E
:100A40000A035D425D4121E02278134413F8013C22
:100A50000D2B0CBF0225002518E02278134413F853
:100A6000013C0A2B0CBF032500250FE0227813441C
:100A700013F8013C0D2B0CBF0425002506E022785D
:100A8000134413F8013C0A2BB9D00025012683E753
:100A900015140020DC140020C4140020FFEB000813
:100AA0001EE1000842E100089413002008B501206F
:100AB000002105F02FFA0120014605F0B7F90020CA
:100AC000014605F027FA0420002105F023FA05204D
:100AD000002105F01FFA0420002105F0A7F90520E8
:100AE000012105F0A3F9BDE808400020014605F00A
:100AF0009DB90000014804F0C1BD00BFDC14002016
:100B000008B561B10021052005F090F9962005F0A7
:100B1000EBF9BDE808400520012105F087B908BDC3
:100B200008B50021012005F081F90C4804F0A9FD69
:100B30000220002105F0EEF90320002105F0EAF97A
:100B40000220002105F072F90320002105F06EF962
:100B5000BDE808400520002105F068B9DC1400203C
:100B600010B50B78452B12D14B78522B0FD18B78C7
:100B7000CC78303B03EB8303303C04EB4304E4B21A
:100B800021460A22034804F0F1FE204610BD0A2047
:100B900010BD00BFC41400200B784F2B07D148783C
:100BA0004B2804D113704B780120537070470020FC
:100BB000704700002DE9F04190B00E4601A865494C
:100BC0001C46904604F0F4FF624904A804F0F0FFCC
:100BD000604907A804F0ECFF20460021042208F039
:100BE000ABFAE023A370E37035460027AB1B434507
:100BF0003AD229780A220DA805F016F80DA901A805
:100C000005F04CF80DA804F091FF15F8013B2C2BD2
:100C100028D0303BDBB2092B98BF05F8013C15F812
:100C2000011C57B92D2902D14B484C4909E00DA8A8
:100C30000A2204F0F9FF04A80DE02D2906D1464848
:100C4000474904F0FDFDF023E370CFE70DA80A2229
:100C500004F0EAFF07A80DA905F020F80DA804F09C
:100C600065FFC3E70127C1E73E490AA804F0A0FFDA
:100C70000AA90DA804F0BDFF01A90DA805F042F8CE
:100C80000146354804F0D2FD0DA804F04FFF0AA834
:100C900004F04CFF34490DA804F08AFF0DA92E483A
:100CA00004F0A6FD0DA804F041FFA3782A48F02B1C
:100CB00001D12E4903E0E02B0CBF26492C4904F05A
:100CC000A4FD04A90DA804F094FF2A490DA805F07D
:100CD00026F80146204804F0A9FD0DA804F026FFDF
:100CE00025490DA804F064FF0DA91B4804F080FD00
:100CF0000DA804F01BFFE3781748F02B01D11B4926
:100D000003E0E02B0CBF1349194904F07EFD07A94D
:100D10000DA804F06EFF0DA8164905F000F8014675
:100D20000D4804F083FD0DA804F000FF04A805F0B1
:100D30004CF8207007A805F048F8607007A804F088
:100D4000F5FE04A804F0F2FE01A804F0EFFE10B0D6
:100D5000BDE8F08165E40008C41400206DE10008DE
:100D60007AE1000888E1000893E10008E7EE000856
:100D70009EE10008ABE10008B2E10008F8B54C784C
:100D8000432C08D18C78532C05D1CC78B4F1510583
:100D90006C426C4100E000240026F5B24F5D013644
:100DA0003A2FFAD10135EDB200279542FEB207F194
:100DB000010706D811F805C0013501F806C0EDB2EB
:100DC000F3E73CB92046C2B2B2420BD20A5C1A54D5
:100DD0000130F8E7069A022412681470721ED2B22B
:100DE000FFF7E8FE0120F8BD37B5154809B91549E8
:100DF00000E0154904F009FD642005F075F80024B1
:100E00000F4804F0DDFB0028E5B208DD062C14D005
:100E10000B4804F081FB0DF804000134F0E755B1F4
:100E20009DF802304F2B08D19DF80300B0F14B0321
:100E30005842584102E0284600E0002003B030BD8F
:100E4000DC140020BEE10008C2E1000810B5044631
:100E50000120014604F0EAFF07484FF4165104F060
:100E60000DFC20460121FFF74BFE20460121BDE885
:100E70001040FFF7B9BF00BFDC1400202DE9F0419E
:100E80009EB005AD0C4607460021904628466422D8
:100E9000039308F051F921462C4804F0B6FC642075
:100EA00005F022F80024294804F08AFB0028E6B265
:100EB00007DD642C45D0254804F02EFB285501346D
:100EC000F1E726B92249234804F0BAFC39E09DF83D
:100ED00014300D2B35D19DF815300A2B31D11EABB6
:100EE000334413F8653C0A2B2BD1023E1EAB33442E
:100EF00013F8643C0D2B24D10021CCB2A31CDBB22F
:100F0000B34201F1010107DA1EAA134413F8643C4D
:100F1000144404F8643CF0E738462946FFF720FE05
:100F20000A280CD103AB0093384629462246434693
:100F3000FFF724FF00280CBF0320022002E001205D
:100F400000E003201EB0BDE8F08100BFDC140020EB
:100F5000C8E10008C41400202DE9F041B2B00646F3
:100F60000D4690460021642268461F4608F0E4F8CA
:100F700019A80021642208F0DFF80024E3B2E85C3D
:100F8000013420B132AA134403F8640CF6E7014699
:100F9000CAB25D1818F80240EDB232AA01312A44F3
:100FA00014B102F8644CF3E70D2302F8643C6B1CA7
:100FB00032A8DBB203442F480A2203F8642C0368EA
:100FC00019A95B6898472C48AA1C036819A99B6853
:100FD000D2B29847642004F087FF274804F0F0FA63
:100FE0000028E5B208DD642C3FD0234804F094FAD1
:100FF0000DF804000134F0E7002D36D09DF80030E4
:101000000D2B32D19DF801300A2B2ED132AB2B445F
:1010100013F8C93C0A2B28D1023D32AB2B4413F8FC
:10102000C83C0D2B21D100218B1CDBB2AB4201F15E
:10103000010209DA32A8034413F8C83CC9B20144DA
:1010400001F8C83C1146EFE730466946FFF788FDD6
:101050000A2808D1304669463A46FFF79DFD80F0E0
:101060000100C0B202E0012000E0032032B0BDE880
:10107000F08100BFC4140020DC140020F7B51E4628
:10108000044617460D4600218DF80710FFF7ACFE09
:1010900003F0CEFD204631462FB12A460DF107035D
:1010A000FFF7ECFE03E0089A2B46FFF755FF0328F5
:1010B0002AD8DFE800F011040207002311E01648E7
:1010C000164901E01448164904F0BAFB20460121F4
:1010D000FFF78AFE00201CE012490F4804F0B0FB25
:1010E00012E09DF807205E1CDBB29A420A4809D93B
:1010F000E95C102204F031FC07480B4904F085FB41
:101100003346EEE704F086FB20460121FFF76CFE34
:10111000012003B0F0BD00BFC4140020DCE10008D2
:10112000EDE10008F6E10008FFEB00082DE9F043CF
:101130008BB004AF804600210922384602AE00245D
:1011400007F0FAFF0094404631460122454BFFF775
:1011500095FF054620B94449444804F071FB7DE001
:101160002346F25C07AC092A01D8303204E0A2F130
:101170000A01052998BF3732E2540133082BF0D118
:101180004FF000093A488DF8249000F0AFFC024679
:1011900000284AD03749354804F052FB34483946D4
:1011A00000F00AFC00283BD04B46E15CFA5C91421F
:1011B00048D10133082BF8D12F492C4804F040FBCB
:1011C0002E492A4804F021FB9DF81610274804F008
:1011D00017FB9DF81710254804F012FB9DF814101A
:1011E000224804F00DFB9DF81510204804F008FB80
:1011F0009DF812101D4804F003FB9DF813101B48C6
:1012000004F0FEFA9DF81010184804F0F9FA9DF861
:101210001110164804F0F4FA144804F0FBFA1DE02B
:101220001749124804F00CFB07E000944046314691
:10123000144BFFF723FF054680B121460C4800F010
:1012400013FC0AE01049094804F0FAFA00974046F6
:10125000314600220B4BFFF711FF054628460BB025
:10126000BDE8F08302E200080DE20008C41400208B
:10127000191400202DE20008B5E20008DFE20008A2
:101280004BE200086FE2000878E200082DE9F04F19
:1012900089B002AF07F10C068346894690461C468A
:1012A000304600210A2207F047FF002C48D1C7F83A
:1012B00004D05846CDF80080314601224B46FFF756
:1012C000DDFE824608B1214602E03C483C496BE025
:1012D000CCB218F804300131002BF9D1E11D01F432
:1012E000FC71ADEB010D02A9D8B2A04203D2F05CB3
:1012F000C8540133F8E70B46581AC0B2A0420DD2C9
:1013000013F8010B092801D8303004E0A0F10A05D8
:10131000052DF1D8373003F8010CEDE70025EBB2CD
:10132000A3423FD24B5D013508EB050010F8010CDC
:101330009842F4D02148234904F082FA7B689D4604
:101340006C460023DAB219F8021001330A29F9D1E8
:10135000931D03F4FC73ADEB030DA2F1020E02AB7F
:101360000020C1B2551EA94200F1010003DA19F8AC
:1013700001505D54F5E700223D215A55584603F8C7
:101380000E10CDF800803146FFF778FE054628B9EB
:101390000A480D4904F054FAAA4601E04FF0010A48
:1013A000A54605E00548094904F04AFA7B689D46D0
:1013B00050461C37BD46BDE8F08F00BFC414002066
:1013C000EDE2000813E300086AE300088CE300087C
:1013D0007FB50F2204460D466846002107F0ACFE9B
:1013E0005C485D4904F02CFA0A2603F021FC2046F3
:1013F000002D65D1FFF79AFE58498DF80000584A34
:101400002B462046FFF742FF56498DF80100564A09
:1014100001232046FFF73AFF54498DF80200544A51
:101420002B462046FFF732FF52498DF80300524AFF
:101430002B462046FFF72AFF50498DF80400504AFA
:1014400001232046FFF722FF4E498DF805004E4A42
:101450002B462046FFF71AFF4C498DF806004A4AF2
:101460002B462046FFF712FF49498DF80700444AF2
:1014700001232046FFF70AFF46498DF80800464A37
:101480002B462046FFF702FF44498DF80900444AE5
:101490002B462046FFF7FAFE42498DF80A00324AF1
:1014A00001232046FFF7F2FE3F4A8DF80B003F492B
:1014B00020460123FFF7EAFE0D228DF80C0007E01D
:1014C0002F4A2E490123FFF7E1FE01228DF800008B
:1014D00000231DF80310A9B935491E4804F0B0F9DE
:1014E0002046FFF7B3FC2046FFF71AFB03F0A0FBF2
:1014F0002046FFF7ABFC4FF4FA6004F0F5FC03F074
:1015000097FB05E00133D9B29142E2D304B070BD3C
:10151000284804F055F8002803DD264803F0FCFFB6
:10152000F6E7013E16F0FF067FF45FAF1E2231465C
:10153000214801F095FC2149064804F081F940F664
:10154000B83004F0D1FC03F073FB04B0BDE8704088
:1015500003F0A2BBC4140020A2E30008C1E300080A
:10156000CDE30008D6E30008D3E30008E0E3000879
:10157000ECE30008F5E3000801E400080AE40008D1
:1015800014E4000817E4000821E4000824E400083B
:101590002EE4000838E4000841E4000844E40008B0
:1015A0004EE4000851E4000866E400085BE400082B
:1015B00069E40008DC1400207014002086E40008B0
:1015C00010B500210446152004F0A4FC15200121CB
:1015D00004F02CFC2046BDE81040FEF7ABBE08B579
:1015E000052004F081FCBDE808401520012104F02D
:1015F0001DBC08B51520002104F018FCBDE808400A
:10160000052004F071BC7FB504460E46FFF7F1FFDC
:101610000D2573192946204613F80D2C0135FEF7C8
:10162000B9FE162DF5D13046092101F0ACFB064676
:10163000294620463246FEF7ADFE0D2529462046B6
:10164000FEF77AFE01AB2B440135162D03F80D0C85
:10165000F4D101A8092101F096FBB042204603D045
:10166000FFF7BDFF002007E00B215522FEF792FE99
:101670002046FFF7B4FF012004B070BD7FB50446DB
:101680000E46FFF7B6FF172573192946204613F8B3
:10169000172C0135FEF77EFE202DF5D130460921AD
:1016A00001F071FB0646294620463246FEF772FEDF
:1016B000172529462046FEF73FFE01AB2B44013596
:1016C000202D03F8170CF4D101A8092101F05BFBD0
:1016D000B042204603D0FFF782FF002007E00C2134
:1016E0005522FEF757FE2046FFF779FF012004B090
:1016F00070BDF0B585B001AD06460F462846002105
:10170000092207F019FD0D2421463046FEF714FE8C
:101710002B190134162C03F80D0CF5D12146304657
:10172000FEF70AFE09210446284601F02CFB8442FC
:1017300006D10023EA5CFA540133092BFAD101E007
:10174000002000E0012005B0F0BDF0B585B001AD8E
:1017500006460F4628460021092207F0EDFC172413
:1017600021463046FEF7E8FD2B190134202C03F802
:10177000170CF5D121463046FEF7DEFD092104465F
:10178000284601F000FB844206D10023EA5CFA54AB
:101790000133092BFAD101E0002000E0012005B05F
:1017A000F0BD37B50C461E210546FEF7C5FD1F21CD
:1017B0008DF804002846FEF7BFFD02218DF80500D4
:1017C00001A801F0E0FA207003B030BD10B5044666
:1017D000FFF70FFF002220460B21FEF7DBFD20461E
:1017E000FFF7FDFE20460B21FEF7A6FDD0F101001C
:1017F00038BF002010BD10B50446FFF7FAFE0022E6
:1018000020460C21FEF7C6FD2046FFF7E8FE2046E5
:101810000C21FEF791FDD0F1010038BF002010BD72
:1018200010B50446FFF7E5FE552220462121FEF7BC
:10183000B1FD2046FFF7D3FE20462121FEF77CFDB7
:10184000B0F155035842584110BD38B50446102038
:1018500004F0D6FA08B1002038BD41F2883004F017
:1018600043FB102004F0CCFA05460028F3D12046B3
:10187000FFF7BFFE2A4620462121FEF78BFD2046BA
:10188000FFF7ADFE20462121FEF756FDD0F1010005
:1018900038BF002038BD08B52121FEF74DFDB0F15D
:1018A00055035842584108BD70B504460D46FFF730
:1018B00020FF20B120462946FFF747FF48BB2046BE
:1018C0002946FFF716FF48B11549164803F0B8FF3F
:1018D00020462946BDE87040FFF7D0BE2046294685
:1018E000FFF733FF06460F4846B10F4903F0A8FF44
:1018F00020462946BDE87040FFF785BE0B4903F03E
:101900009FFF2046FFF762FF2046FFF774FF304637
:1019100070BD0749034803F093FF012070BD00BF6D
:10192000B2E40008C4140020E9E4000820E500083F
:1019300034E5000810B535210446FEF7FDFC5528B6
:1019400013D02046FFF755FE552220463521FEF7DD
:1019500021FD2046FFF743FE20463521FEF7ECFC33
:10196000B0F155035842584110BD012010BD08B5D3
:101970003521FEF7E1FCB0F155035842584108BD4E
:1019800010B535210446FEF7D7FC98B12046FFF785
:1019900030FE002220463521FEF7FCFC2046FFF7F2
:1019A0001EFE20463521FEF7C7FCD0F1010038BFEE
:1019B000002010BD012010BDF7B505460E464F248E
:1019C00021462846FEF7B8FC00AB23440134572CCF
:1019D00003F84F0CF4D10821684601F0D4F92146F0
:1019E00007462846FEF7A8FC87420CD100231DF8C5
:1019F0000320F2540133082BF9D10448044903F0C1
:101A00001FFF012000E0002003B0F0BDC41400203F
:101A10009AE5000810B558210446FEF78DFC5528BC
:101A20000CD02046FFF7E5FD204658215522FEF751
:101A3000B1FC2046BDE81040FFF7D1BD10BD10B588
:101A400058210446FEF778FC60B12046FFF7D1FD2F
:101A5000204658210022FEF79DFC2046BDE810409C
:101A6000FFF7BDBD10BD0000F7B50F460446FFF7F8
:101A7000C0FD3846082101F086F94F2506467B193E
:101A80002946204613F84F2C0135FEF783FC572DCD
:101A9000F5D1294620463246FEF77CFC4F252946E3
:101AA0002046FEF749FC00AB2B440135572D03F8C7
:101AB0004F0CF4D16846082101F065F9864207D041
:101AC0002046FFF7BCFF2046FFF789FD002007E016
:101AD0000449054803F0B4FE2046FFF79BFF0120B0
:101AE00003B0F0BDAFE50008C414002008B55821CC
:101AF000FEF722FCB0F155035842584108BD70B5BD
:101B000004460E461546FFF774FD20463246222154
:101B1000FEF740FC20462A462321FEF73BFC2046E8
:101B2000BDE87040FFF75BBDFEF706BCFEF704BCE6
:101B300070B504460E461546FFF75BFD204632465B
:101B40002421FEF727FC20462A462521FEF722FC09
:101B50002046BDE87040FFF742BDF8B504460E468A
:101B6000FFF747FD262573192946204613F8262C32
:101B70000135FEF70FFC2B2DF5D10521304601F084
:101B800002F90746294620463A46FEF703FC262579
:101B900020462946FEF7D0FB731913F8263C8342F2
:101BA00014D101352B2DF3D120462946FEF7C4FB75
:101BB000B842204608D12C215522FEF7EBFB2046E7
:101BC000FFF70DFD0120F8BDFFF709FD0020F8BD6E
:101BD00070B506460D46262421463046FEF7ACFB7E
:101BE0002B1901342B2C03F8260CF5D170BD38B518
:101BF0000446FFF7FEFC2625002220462946FEF774
:101C0000C9FB20462946FEF797FB024620B1204635
:101C1000FFF7E5FC002038BD01352B2DECD1204627
:101C20002C21FEF7B7FB2046FFF7D9FC012038BD79
:101C300037B502AD04468DF80710FFF7DAFC15F84A
:101C4000012D20462D21FEF7A5FB0121284601F09C
:101C50009AF82E2102462046FEF79CFB20462D21B5
:101C6000FEF76AFB9DF807308342204608D12F21FA
:101C70005522FEF78FFB2046FFF7B1FC012002E062
:101C8000FFF7ADFC002003B030BD2D21FEF754BBA3
:101C900010B50446FFF7ADFC20462D210022FEF7CB
:101CA00079FB2046FFF79BFC10BD00004A1F4AF657
:101CB000BB039A4270B504460D4628D83221FEF780
:101CC0003BFB332106462046FEF736FB40EA062062
:101CD000A84204D10F49104803F0B2FD15E0204698
:101CE000FFF787FC20463221C5F30722FEF752FB9F
:101CF00020463321EAB2FEF74DFB2046342155221F
:101D0000FEF748FB2046FFF76AFC012070BD00206B
:101D100070BD00BFC4E50008C414002038B53221EE
:101D20000546FEF709FB332104462846FEF704FB6F
:101D300040EA042038BD08B53421FEF7FDFAB0F1C1
:101D400055035842584108BD032002F01FBC000053
:101D500070B55E480D46097801F083FE6978064645
:101D60005A4801F07EFE06EB8606594C06EB8606C5
:101D700000EB8600E080A978544801F072FE6071A3
:101D8000E978524801F06DFE207129794F4801F041
:101D900068FE6979A0704D4801F063FEA979607012
:101DA0004A4801F05EFE4B4920704B4803F02DFD80
:101DB000E1880A22484803F0B8FD4849464803F044
:101DC00024FD61790A22444803F0D0FD4449424889
:101DD00003F01BFD21790A223F4803F0C7FD41496A
:101DE0003D4803F012FDA1780A223B4803F0BEFDF6
:101DF0003D49394803F009FD61780A22364803F06D
:101E0000B5FD3A49344803F000FD0A2221783248F2
:101E100003F0ACFD02F0ACFE642004F065F820464F
:101E2000FEF72AFA0146324802F0CEFA642004F0A6
:101E30005BF802F0A3FE2E4802F0C9FA01462046E4
:101E4000FEF78EF9E1886423B1FBF3F1C9B21F48B4
:101E500001F0FEFD2870E2884FF47A73B2FBF3F1D3
:101E600003FB11211948C9B201F0F2FD68706179D4
:101E7000164801F0EDFDA8702179144801F0E8FD45
:101E8000A178E870114801F0E3FD617828710F48EE
:101E900001F0DEFD217868710C4801F0D9FD0024C5
:101EA000A871295D10220C4803F057FD01340A483F
:101EB000104903F0AAFC072CF3D1074803F0AAFC51
:101EC000BDE8704004480C4903F0BABCB9140020C6
:101ED00020140020E3E50008C4140020EAE500080F
:101EE000F2E50008F8E50008FFE5000809E600084B
:101EF0002A140020FFEB000813E6000870B51C4808
:101F00000D4602F064FA1B4C01462046FEF728F904
:101F1000E188194E6423B1FBF3F1C9B2304601F0F8
:101F200097FD2870E2884FF47A73B2FBF3F103FB5C
:101F300011213046C9B201F08BFD687061793046DD
:101F400001F086FDA8702179304601F081FDA1786D
:101F5000E870304601F07CFD61782871304601F070
:101F600077FD21786871304601F072FDA87170BD6F
:101F70002A14002020140020B914002070B54C4809
:101F800086B0FEF779F9044602F0F2FD0A2003F06C
:101F9000ABFF2146474802F017FA464802F017FA0D
:101FA00005464548FFF7C7FE444E002859D0424831
:101FB000FFF7B4FE4AF6B103A0F10F029A420446BD
:101FC00019D93F49684603F0F3FD694603A803F0B9
:101FD00010FEB42103A803F0BEFE3A4903F09FFEB1
:101FE0000146394803F022FC03A803F09FFD684630
:101FF00003F09CFDB4243378012B0BD1B4F5966F1C
:1020000003D925446846314915E005F5966503A8CE
:102010002F4938E0022B0BD1B4F5166F03D92544B4
:1020200068462C4907E005F5166503A82A492AE009
:102030002A492544684603F0BBFD694603A803F01E
:10204000D8FD214603A803F086FE1E4903F067FE73
:1020500001461D4803F0EAFB03A803F067FD68464C
:1020600018E03378012B04D105F5966503A81C49C7
:1020700009E0022B04D105F5166503A8194902E011
:102080001949B43503A803F093FD0F4803A903F0E1
:10209000CDFB03A803F04AFD14492A46054802F087
:1020A00098F90A2003F020FF02F068FD06B070BD29
:1020B000201400202A1400201A14002028140020C4
:1020C00036E600083CE70008C4140020AAE6000831
:1020D000F3E600083EE7000890E70008E4E70008A0
:1020E00030E80008A5E8000823E90008491D0008B9
:1020F00030B5154885B0FEF7BFF8144C054602F020
:1021000037FD0A2003F0F0FE2946204602F05CF974
:10211000204602F05CF90E49054601A803F048FD8F
:1021200001A90C4803F082FB01A803F0FFFC0A4957
:1021300005F56162204602F04CF90A2003F0D4FE56
:1021400002F01CFD05B030BD201400202A14002030
:102150009AE90008C4140020491D00080148112113
:1021600002F029B92A1400202DE9F84300240F4673
:102170009046994625464C4513DA5FFA88F60121C8
:10218000304603F053FE0A2003F0AEFEF8B203F02F
:1021900037FE002100EB4505304603F047FE0134D1
:1021A000E9E72846BDE8F88370B5D4B21D46EDB224
:1021B0000E462046002103F0ADFE2846002103F024
:1021C000A9FE2046012103F031FE2846012103F03B
:1021D0002DFE2046002103F029FE2846002103F0B1
:1021E00025FE2846012103F021FE2046012103F0AF
:1021F0001DFE2846002103F019FEF3B201222046FD
:10220000294603F03FFE2846012103F00FFE204639
:10221000022103F07FFE204603F0F2FD2846002154
:1022200003F004FE2046BDE8704003F0E9BD38B578
:10223000CDB22846022103F06DFE64240A2003F08B
:1022400053FE284603F0DCFD08B1013CF6D138BD51
:102250002DE9F843CCB2154680460E46EFB2204633
:10226000022103F057FE3846002103F053FE2A46B0
:10227000082331464046FFF777FF00214FEA002947
:10228000204603F047FE2046012103F0CFFD204603
:10229000002103F0CBFD3846012103F0C7FD38468D
:1022A000002103F0C3FD2046022103F033FE404627
:1022B00031462A460823FFF757FF49EA0000BDE8E8
:1022C000F88338B51446CDB2E4B22846002103F0B5
:1022D00021FE2046002103F01DFE2846012103F0C7
:1022E000A5FD2046012103F0A1FD20460021BDE807
:1022F000384003F09BBD38B590E80C00044603213C
:10230000FFF752FF20462168FFF791FF94E806008F
:102310002046FFF79DFF94E8060005462046FFF79C
:10232000D0FF284605F0DAFD38BD000008B5FFF7FC
:10233000E2FF05F0EDFF05F0D1FD034905F022FEB7
:10234000024905F015FD08BD0AD7233C00002042D4
:10235000F8B590E80C0004460521FFF725FF20465C
:102360002168FFF764FF94E806002046FFF770FF3E
:1023700094E8060005462046FFF7A3FF284605F02F
:10238000ADFD1E49064605F0FDFD4FF0814105F00B
:10239000EFFC1B490546304605F0F4FD314605F0DB
:1023A000F1FD0146284605F0E5FC07462046FFF70B
:1023B000BDFF05F053F90022124B04F0EFFF044675
:1023C0000D463046104905F0DDFD104905F0D2FC00
:1023D00005F044F902460B462046294605F092F9DD
:1023E000044638460D4605F039F902460B462046AC
:1023F000294604F0D5FF05F067FCF8BD54E3253D00
:10240000A2E73BB600003940ACC5A7380AD7233C49
:10241000024B1D211C2283E8060070472C1400206B
:1024200007B53248FFF737FA78BB314B314918709E
:102430002E48FFF7E8F828B12C482E49FFF71EF97F
:10244000002848D12C48FFF723FC20B12A48FFF789
:10245000CEFB002844D101238DF80030264800230C
:1024600069468DF801308DF802308DF803308DF813
:102470000430FFF772FB18B12048214903F0E0F95E
:1024800020480021052200F0EBFC1C481E4903F007
:10249000D7F91648FFF7FFF9B8B9102003F0B0FCE0
:1024A00078B941F2883003F01FFD102003F0A8FC3A
:1024B00038B9164801F01AFB102003F0A1FC0028DF
:1024C000FAD01348FEF760FAE3E7094B01221A70CD
:1024D00003B05DF804FB0F49084803F0B1F9B1E718
:1024E0000D49064803F0ACF9B5E700BF1E14002003
:1024F0000C000020381400201B140020C4140020FD
:10250000EEE90008701400200BEA0008BE14002059
:10251000161400201EEA000832EA0008F8B5114E31
:1025200003253468104B1A781F46CAB90F4801F0CA
:102530001DFD326804F51C5310339A4201D23B78DA
:1025400053B1013D15F0FF053468EBD1BDE8F8400B
:102550000748084903F074B90748FEF715FAE8E799
:10256000F8BD00BFA415002014140020BE140020E4
:10257000C414002061EA00081614002008B51420D5
:1025800003F03EFC30BB642003F0AEFC142003F0EB
:1025900037FCF8B94FF4FA6003F0A6FC0E490F4877
:1025A00003F04EF94FF4FA6003F09EFC142003F0A0
:1025B00027FC78B9642003F097FC142003F020FC7A
:1025C00040B90748FFF7DCF9BDE808400348054972
:1025D00003F036B908BD00BF80EA0008C41400202B
:1025E0001914002094EA000810B5064C064920464C
:1025F00003F0DEFA20460549054ABDE8104003F025
:10260000D9BD00BF4414002065E400082D5B00081C
:102610000800002010B5104C1049204603F010F9B6
:102620000F49204603F00CF9204602F0ADFF0D489B
:1026300000F040FC0120002103F0F8FB01211320F1
:1026400003F0F4FB012002F035FB012002F04CFB0B
:10265000BDE8104002F034BBC4140020D8EA0008E2
:10266000EAEA00087014002030B589B03E4802F054
:10267000A7FF00280ADD3C4802F04EFFC1B23B48EC
:1026800003F011FB022003F02FFCEFE7374CA368A7
:10269000002B66D0204603F08CFB354905A803F0DB
:1026A00087FA05A902A803F0A4FA214602A803F0BC
:1026B00029FB01462C4803F0B9F802A803F036FACA
:1026C00005A803F033FA2B4905A803F071FA204658
:1026D00005A903F060FB054605A803F027FA65B1DC
:1026E0002549214803F0ACF8002300932349012237
:1026F000234B2448FEF7C2FC2FE0234905A803F032
:1027000057FA204605A903F046FB054605A803F045
:102710000DFA55B11D4A1448137883F00103137064
:102720000BB11B4917E01B4915E01B4905A803F035
:102730003FFA204605A903F02EFB044605A803F046
:10274000F5F9094834B1154903F07AF8144801F055
:102750000DFC02E0134903F073F80448124903F03A
:1027600052FA09B030BD00BFC41400204414002048
:10277000FDEA000808EB000810EB0008BA1400207E
:102780002CEB00081814002036EB00084114002040
:102790003CEB000851EB000866EB000871EB000809
:1027A000BE1400208DEB000865E40008B44B30B582
:1027B0001A688DB022F0E06242F000721A60B148EF
:1027C00000F028FBB0484FF4165102F057FFAF4815
:1027D0004FF41651FEF78EF94FF41651AC4802F043
:1027E0004DFF02F0B8F9A948FEF760F90820002172
:1027F00003F090FB0021082003F018FBA548FEF72A
:10280000DFFE0121A148FEF7EFFA4FF47A7003F0E2
:102810006BFBA148FEF7B8F80021132003F006FB7C
:102820000A2003F061FB9D49974803F009F89C4892
:102830002221FFF77BF90228044606D1984823217C
:10284000FFF774F9142805461CD01422944802217D
:10285000FFF755F99349684603F0AAF9694606A8B7
:1028600003F0C7F91022022103A803F0EEF903A92F
:1028700006A803F047FA8C4903F051FA14210446E4
:1028800009A816E08949684603F092F9694606A846
:1028900003F0AFF92146102203A803F0D6F903A9EB
:1028A00006A803F02FFA804903F039FA29460446B6
:1028B00009A8102203F0C9F9204609A903F022FA59
:1028C0000146714802F0B2FF09A803F02FF903A8EE
:1028D00003F02CF906A803F029F9684603F026F95D
:1028E0006F482421FFF720F90728044617D16C48C8
:1028F0002521FFF719F91028054610D16C4906A8C3
:1029000003F056F906A909A803F073F9214609A8AE
:1029100003F017FA644903F002FA294614E0102282
:102920005F480721FFF704F9624906A803F040F960
:1029300006A909A803F05DF9072109A803F001FA27
:10294000594903F0ECF9102103F0FBF901464E4818
:1029500002F06CFF09A803F0E9F806A803F0E6F816
:10296000FFF70CFE5448FFF702F8014680B94748CC
:10297000FEF72EFD45480121FEF7C2F8012143482C
:10298000FEF732FA4448FDF7FFFF4B48FEF7D2FF4F
:102990004A48FEF75AFFFFF743FD49494748FEF70B
:1029A00083FF0146B0B90A22364800F059FA45497A
:1029B000354802F045FF444801F054F94FF47A706D
:1029C00003F092FA3448FDF7DFFF40F6B83003F029
:1029D0008BFAE2E73D492C4802F032FF2A483C4995
:1029E00002F013FF0024364B1022195D264802F036
:1029F000B4FF01342448374902F007FF092CF2D113
:102A0000214802F007FF0A2201211E4800F028FA9F
:102A10001C4800F065FA04461A4800F061FA2044A8
:102A200044082D4906A803F0C3F806A909A803F035
:102A3000E0F8214609A803F08EF9284903F06FF960
:102A40000146114802F0F2FE09A803F06FF806A84B
:102A500003F06CF840F6B8339C4207D8642003F0CA
:102A600043FA1F48FFF744FBFFF7D4FDFFF756FD7D
:102A700040F673639C421B4B36D900223AE000BFFC
:102A80000400014070140020C41400201814002019
:102A9000F41400201D1400201614002065E4000822
:102AA0001C14002021EC0008ADE500086CEC0008C7
:102AB00082EC000898EC0008191400201E14002075
:102AC00038140020B6EB0008BE140020E9EB000823
:102AD00001EC0008FFEB00080BEC00081EEC0008FE
:102AE000291400202814002040F6E44294428CBFB0
:102AF0000122022203481A70FFF740FAFFF7B4FDE3
:102B00000DB030BD2914002008B5034B1B7813B15C
:102B1000FFF7AAFDF9E708BD4114002008B5FFF74B
:102B2000F3FFBDE80840FFF775BD00000A4B1A68C7
:102B30000A4B9B6800BF00BF074909688A42F5D16C
:102B4000C3F58C33482103F5A073B3FBF1F34FF4C5
:102B50007A7000FB02307047A415002010E000E0FE
:102B600010B5044680E80600D0B2002103F0D2F987
:102B70002078002103F0CEF900232079E3600121C1
:102B800003F054F920780121BDE8104003F04EB95C
:102B900038B5C36804460D4623B10021C1600078F2
:102BA00003F0B8F920782946BDE8384003F03EB973
:102BB00010B500210446FFF7EBFF642003F0A2F9F3
:102BC0002079002103F032F9BDE81040642003F0C1
:102BD00099B910B500210446007903F027F9642063
:102BE00003F090F920460021FFF7D2FF642003F0A4
:102BF00089F92079012103F019F9642003F082F9A1
:102C000020460121FFF7C4FFBDE81040642003F017
:102C100079B9F8B504460E460825F7092079002150
:102C200003F004F920463946FFF7B2FF012120796D
:102C300003F0FCF8642003F065F920463946FFF7FD
:102C4000A7FF7600013DF6B2E7D12946207903F0CF
:102C5000EDF82078022103F05DF90223E36020798A
:102C6000012103F0E3F8FFF761FF0546207803F048
:102C7000C7F830B1FFF75AFF401B6428F6D900208F
:102C8000F8BD0120F8BD38B50D460446FFF790FFAA
:102C90006900204601F0FE01FFF7BBFF38BD08B513
:102CA000FFF797FF002008BD08B5FFF7B2FF08BD8A
:102CB00070B50D466D0004461646FFF779FF691C96
:102CC000A6602046C9B2FFF7A4FF70BD70B5866844
:102CD0000446002E55D00078022103F01BF9022390
:102CE000E360082500262079002103F09FF80121E8
:102CF000207903F09BF8642003F004F9207803F0B6
:102D00007FF8013D00EB460000F0FF06EBD1A36821
:102D10006068013B002BA360C0B2294617DD03F0B9
:102D200085F8642003F0EEF829462046FFF730FFCF
:102D3000642003F0E7F82079012103F077F864209C
:102D400003F0E0F82079294603F070F819E003F069
:102D50006DF8642003F0D6F801212046FFF718FF34
:102D6000642003F0CFF80121207903F05FF864209C
:102D700003F0C8F82079294603F058F82046FFF7F9
:102D800028FF304670BD002330B5054618468B42FB
:102D90000FDAEA5C5040082210F0010F4FEA60049D
:102DA0001ABF84F0E000C0B2E0B2013AF4D10133BE
:102DB000EDE730BD08B5134B13491A6809680132B5
:102DC0008A421A601DD3114900221A600B78DB4336
:102DD000DBB20B700E49097841B1012911D11820DD
:102DE00003B1114603F022F8192005E0192003B9B8
:102DF000012103F01BF818200021BDE8084003F072
:102E000015B808BD641400206C1400206014002064
:102E10006814002008B51320002103F07BF8182067
:102E2000002103F077F81920002103F073F8102037
:102E3000022103F06FF81420022103F06BF8032144
:102E4000072003F067F80A2003F04EF8182000214D
:102E500002F0ECFFBDE808401920002102F0E6BFB7
:102E60000F4B10B50F4C19700F4B20461A60012103
:102E7000022202F06BFC20460C4902F048FC0121C2
:102E800020460A4602F066FC20460121084A02F06C
:102E900070FC20460021BDE8104002F02FBC00BFAE
:102EA00068140020641500206C140020A086010026
:102EB000B52D000808B5064802F00AFC18200021CC
:102EC00002F0B4FFBDE808401920002102F0AEBFB7
:102ED00064150020014802F003BC00BF6415002007
:102EE00030B58BB001AD28460021242206F024F92C
:102EF0000024072002F076FF04F09EFB12A3D3E922
:102F0000002304F0FFFB0022114B04F0FBFB04F054
:102F1000BBFE28514FF47A70043402F0F3FF242CE6
:102F2000E7D109226B4608AC53F8040F5968884270
:102F300084BF58601960A342F6D1013A12F0FF0233
:102F4000F0D105980BB030BDF163CC5D4BC8E93FC3
:102F500000001840AFF3008008B51620002102F0F1
:102F6000D9FF1720002102F0D5FF1620012102F021
:102F70005DFFBDE808401720012102F057BF172070
:102F8000002102F0C7BF1720042102F0C3BF08B51B
:102F9000FFF7F5FF1720012102F048FF012116205D
:102FA00002F044FF052002F0ADFF0021172002F0DF
:102FB0003DFF062002F0A6FFBDE8084016200021D4
:102FC00002F034BF08B5FFF7DAFF1620002102F047
:102FD0002DFF1720002102F029FF0121162002F009
:102FE00025FF062002F08EFF1720012102F01EFFB0
:102FF000BDE80840062002F085BF10B50021044658
:10300000162002F013FF2046FFF7B9FF002117201A
:1030100002F00CFF022002F075FF0121162002F0E1
:1030200005FF052002F06EFFBDE8104016200021CC
:1030300002F0FCBE10B500210446162002F0F6FE98
:103040002046FFF79CFF0121172002F0EFFE02202F
:1030500002F058FF0121162002F0E8FE052002F0E0
:1030600051FFBDE810401620002102F0DFBE70B510
:103070000646FFF788FF0121172002F0D7FE012046
:1030800002F040FF1620012102F0D0FE012002F0E4
:1030900039FFFB25172002F0B3FE044640B1013D85
:1030A00015F0FF05F6D13046FFF78CFF012070BD0B
:1030B0001620214602F0BAFE204670BD38B50C46F7
:1030C000FFF75DFF1620002102F0B0FE082524F076
:1030D0007F0303F0FF01172003B1012102F0A6FED8
:1030E0000121162002F0A2FE022002F00BFF1620A2
:1030F000002102F09BFE013D0220640002F002FF6D
:1031000015F0FF05E4B2E2D138BDF8B505460F462B
:10311000FFF739FF082600240021162002F086FE62
:10312000022002F0EFFE1620012102F07FFE640073
:103130001720E4B202F064FE08B10134E4B20120C9
:10314000013E02F0DFFE16F0FF06E5D1284617B972
:10315000FFF770FF01E0FFF750FF2046F8BD704712
:10316000012070470120704710B5FF2301441A4623
:10317000884208D010F8014B5440044A125D5A406E
:10318000034B1B5DF4E743EA022010BD0D00002055
:103190000F01002070B5094D094C064622782978A8
:1031A0000848FFF7DDFC2878012102F03FFE207877
:1031B000012102F03BFE304670BD00BF0D01002032
:1031C0000E010020A814002010B5064C2046FFF781
:1031D0005AFD2046FFF763FDD0F1010038BF002003
:1031E00010BD00BFA814002010B54A2104460548B0
:1031F000FFF7EAFF28B1236820461B6801219847A2
:10320000012010BDB814002070B5094C15462046A9
:103210001E46FFF738FD29462046FFF745FD2046AC
:103220003146FFF741FD2046BDE87040FFF737BD4E
:10323000A8140020F8B5134814461E460F469DF802
:103240001850FFF720FD21460E48FFF72DFD0D48D1
:10325000FFF725FD0B4CA5B12A4620463946FFF75E
:1032600027FD0022237A551C33B10648D7B2FFF759
:103270002DFD2A46F055F5E70248BDE8F840FFF776
:103280000EBDF8BDA8140020F0B51C4685B0012382
:1032900000930DF10F03154607460E46FFF7CAFFD0
:1032A0009DF80F309DF8282023EA0403144023439F
:1032B000384631462A468DF80F30FFF7A5FF05B096
:1032C000F0BD000013B5002471B1012213460B4874
:1032D0004A210094FFF7D8FF4A21009407480222B0
:1032E0004023FFF7D1FF8021009104484A210222A8
:1032F0008023FFF7C9FF02B010BD00BFB814002043
:1033000008B51E220F481F21FFF72AFC38210D485F
:10331000FFF7B9FC06210B48FFF7C6FC0948FFF789
:10332000BEFC4FF4FA7002F0DFFD0748FFF75CFFC8
:1033300010B10648064901E004480649BDE80840C6
:1033400002F07EBA5014002074140020C41400202F
:1033500020ED000839ED0008F0B5334C85B00D467E
:103360001646FFF7CDFF392101222046FFF7A0FCCA
:10337000012002F0B9FD277A1FB12046FFF7A6FC15
:103380000746382101222848FFF792FC012002F06D
:10339000ABFD207A10B12448FFF798FC40EA0720E3
:1033A00004F03AF91EA3D3E9002304F0ABF904F0CA
:1033B0006BFC1E4930601E4802F027FA31680A2271
:1033C0001B4802F0E6FA022300931A4803AB4A2195
:1033D0000322FFF72FFF9DF80D209DF80C3002F01F
:1033E0000F0242EA03122D21D2B24A431B0902FA0C
:1033F00003F34FF47A72B3FBF2F32B600E490C48DF
:1034000002F003FA29680A22094802F0CCFA0B49B3
:10341000074802F015FA05B0F0BD00BFAFF3008019
:103420000AD7A3703D0A773F5014002052ED0008E0
:10343000C4140020B814002058ED00086FED0008F7
:1034400008B50348FFF7A6FE024A034B1A6008BD01
:10345000B8140020F0EC0008741400202DE9F043AB
:103460001F465A4B87B018688946596801AC03ADAE
:1034700003C49046284600210A2205F05DFE0A2674
:10348000534802F09DF80028514C11DD013E16F022
:10349000FF0604D14F49504802F0D2F908E0204617
:1034A00002F03AF80A2201464B4802F035FAE7E703
:1034B0009DF83830062101A88DF80430FFF754FE3E
:1034C000030A8DF80A3023688DF80B009B6801A968
:1034D00008223F4898474FF4967002F005FD0024FB
:1034E0003B4802F06DF80028E6B20DDD092C05D14D
:1034F00039483A4902F0A4F9002605E0344802F0C0
:103500000BF828550134EBE73348354902F098F9B8
:103510006EB93449304802F093F92F48304902F02F
:103520008FF99DF80C309DF8144073B123E000240E
:10353000B442EED2295D1022274802F00EFA264846
:10354000294902F062F90134F2E70DF10D0007217B
:10355000FFF70AFE9DF8153043EA042484422DD17A
:103560009DF811309DF810009DF8124043EA0020AC
:103570009DF8133013E028460721FFF7F5FD9DF86D
:10358000133044EA0324844218D19DF812309DF888
:1035900011009DF80F4043EA00209DF8103043EAE7
:1035A000042404F097FC114904F0A0FDC9F80000C0
:1035B000C8F80040E40B3C70012004E006480C49C8
:1035C00002F03EF9002007B0BDE8F08308ED0008E6
:1035D000F414002074ED0008C4140020C5ED0008A8
:1035E000E6ED000865E40008FFEB0008000020415C
:1035F00002EE00082DE9F0410F4651498CB00868F1
:10360000496801AB03AD03C31646002109220CAC87
:10361000284605F091FD04F82C6D20460621FFF7A1
:10362000A3FD030A8DF80A308DF80B000A264548E1
:1036300001F0C6FF0028DFF80C8111DD013E16F015
:10364000FF0604D14049414802F0FAF808E040463C
:1036500001F062FF0A2201463C4802F05DF9E6E70C
:10366000D8F8003021469B680822364898474FF426
:10367000967002F039FC0024324801F0A1FF0028C6
:10368000E6B20DDD082C05D13048314902F0D8F8FA
:10369000002605E02B4801F03FFF28550134EBE7F9
:1036A0002A482C4902F0CCF8002E32D12A4927486A
:1036B00002F0C6F82749254802F0C2F8284605213D
:1036C000FFF752FD9DF811209DF8123043EA0223C6
:1036D00083422CD19DF810309DF80F401F4906A859
:1036E00043EA042402F064FA06A909A802F081FA68
:1036F000214609A802F02FFB0146144802F096F873
:1037000009A802F013FA06A802F010FA3C600120A2
:1037100012E00024B442C9D2295D10220B4802F005
:103720001CF90A480E4902F070F80134F2E7074824
:103730000C4902F085F800200CB0BDE8F08100BF14
:1037400010ED0008F414002074ED0008C4140020EB
:103750003EEE00085FEE000865E400087BEE00081E
:10376000FFEB000886EE00082DE9F04317464B4AB0
:1037700087B010688846516801AC03AD1E4603C48B
:103780000A22002106AC284605F0D6FC04F8146D88
:1037900020460621FFF7E8FC030A8DF80A308DF871
:1037A0000B000A263E4801F00BFF0028DFF8F090DE
:1037B00011DD013E16F0FF0604D13A493A4802F005
:1037C0003FF808E0484601F0A7FE0A2201463648C5
:1037D00002F0A2F8E6E7D9F8003021469B680822FB
:1037E0002F4898474FF4967002F07EFB00242C4837
:1037F00001F0E6FE0028E6B20DDD092C05D12A48CD
:103800002A4902F01DF8002605E0254801F084FE53
:1038100028550134EBE72448254902F011F83EBB56
:103820002449214802F00CF821491F4802F008F809
:1038300028460721FFF798FC9DF813209DF81430C7
:1038400043EA0223834221D19DF80F209DF81030D6
:103850009DF8111043EA02239DF81220012042EA4C
:103860000122C8F800200A22B3FBF2F33B6012E009
:103870000024295D10220C4802F06FF801340A4838
:103880000D4901F0C2FF092CF3D1C9E706480B49E5
:1038900001F0D6FF002007B0BDE8F08318ED000866
:1038A000F414002074ED0008C4140020A6EE0008F3
:1038B000CAEE000865E40008FFEB0008E9EE000826
:1038C0002DE9D7410121082002F0B0FA4FF47A70B7
:1038D00002F00AFB4E48FEF729FD4E4E04243060EC
:1038E000642002F001FB4A48FEF732FDB06040F26E
:1038F000DC5002F0F9FA4849012300934748A1F14E
:1039000008020B1FFFF7AAFD08B9013CF3D16420A0
:1039100002F0EAFA0424424940480A1D0123FFF755
:1039200023FF08B9013CF6D1642002F0DDFA04243B
:103930003A483C490222FFF75DFE08B9013CF7D145
:10394000642002F0D1FA3849344801F11802FFF737
:1039500003FD642002F0C8FA3449354801F055FFF0
:10396000306803F07BFE022702460B460097304882
:1039700002F0CEF82F492E4801F047FFB06803F05F
:103980006DFE00970B460246294802F0C1F82A490D
:10399000274801F03AFF31694FF00A084246B1FB6F
:1039A000F8F1234801F0F5FF2449214801F02DFFEB
:1039B000B06903F053FE009702460B461C4802F024
:1039C000A7F81F491A4801F020FFB06A04F082FAF4
:1039D0001C4904F08BFB03F041FE00970B460246A6
:1039E000134802F095F81849114801F00EFF4246BD
:1039F000F1690F4801F0CDFF14490D4801F005FFB2
:103A00000B48316A424603B0BDE8D04101F0C1BF66
:103A10002C1400207C140020941400207814002022
:103A200098140020A4140020881400201FEF000820
:103A3000C414002033EF000819EF00082DEF000830
:103A40003EEF00080000C84249EF000856EF0008AA
:103A50000A22B1FBF2F302FB131202EB0310C0B215
:103A6000704701F00F03090901EB810103EB4100ED
:103A7000C0B2704737B50C460C480DF10701FDF791
:103A800090FE9DF807304FF47A705843084902F0D1
:103A9000EEF99DF80730054664205843054902F0C9
:103AA000E6F92844206003B030BD00BF1E1400209A
:103AB00080841E00400D030070B50E46154600249C
:103AC000E3B2AB42074809D2315D102201F045FF55
:103AD0000448054901F099FE0134F1E7BDE8704062
:103AE00001F098BEC4140020FFEB000830B595B07B
:103AF00040220546002104A805F01EFB002414A95D
:103B000041F8504D28466946FFF7B4FF009802F08F
:103B1000F9F9FE238DF81030E0238DF811301123D0
:103B20008DF8123024238DF8133001238DF81530D1
:103B3000444B8DF814401B7803B1552342488DF84F
:103B40001630FEF7A2F801AC8DF8170021463E486A
:103B5000FEF73EF8002304AA1A44E15C0133052B6A
:103B60001172F8D139482146FDF7C3FD002304AA9C
:103B70001A44E15C0133092B5173F8D1002401236D
:103B8000222133488DF826308DF827408DF82840C3
:103B90008DF829408DF82A408DF82B408DF82C4067
:103BA0008DF82D408DF82E408DF82F40FDF7BEFF8B
:103BB00023218DF830002648FDF7B8FF24218DF829
:103BC00031002348FDF7B2FF25218DF8320020484F
:103BD000FDF7ACFF24218DF8330005A88DF83440A3
:103BE0008DF835408DF836408DF83740FFF7CBF82B
:103BF0008DF83800E30704AB234404F1010454BFFB
:103C00000D220A22062C83F82920F3D111491248EB
:103C100001F016FE04A928462F22FFF74DFF0F489A
:103C2000FFF748F90E4804A903682F229B689847BC
:103C30004FF4FA7002F058F90848FFF74BF915B045
:103C400030BD00BF171400201B1400201E140020DC
:103C50001C14002063EF0008C4140020701400201E
:103C6000DC14002030B587B014220446002101A8DE
:103C700005F062FA002506A941F8185D204669465C
:103C8000FFF7F8FE009802F03DF9FE238DF80430AE
:103C9000E0238DF8053013238DF8063005238DF8C9
:103CA000073001238DF809301E4B8DF808501B7822
:103CB00003B155231C488DF80A30FDF7E6FF0123B8
:103CC0008DF80B00052102A88DF80C30FFF75BF88A
:103CD00000238DF80D00DA0701AA1A4403F101034D
:103CE00054BF0D210A21062B9172F4D10F491048BF
:103CF00001F0A6FD01A920461022FFF7DDFE0D48C8
:103D0000FFF7D8F80C4801A9036810229B68984770
:103D10004FF4FA7002F0E8F80648FFF7DBF807B056
:103D200030BD00BF171400201B1400207FEF0008D7
:103D3000C414002070140020DC14002030B58DB0B5
:103D40001E220546002104A805F0F6F900240CA95E
:103D500041F8244D2846ADF80840FFF78BFE039844
:103D600002F0D0F8344B0094344802A90122FDF748
:103D700085F9FE238DF81030E0238DF811301423DF
:103D80008DF8123012238DF8133001238DF8153081
:103D90002B4B8DF814401B7803B1552329488DF81F
:103DA0001630FDF772FF01238DF81830264B0024E2
:103DB0001B788DF817009DF8081024488DF81930ED
:103DC0008DF81A408DF81B40FFF74BFE9DF8091047
:103DD0008DF81C001D48FFF744FE12218DF81D00D0
:103DE00005A8FEF7D0FF23468DF81E00DA0704AAC7
:103DF0001A4403F1010354BF0D210A21062BD1738C
:103E0000F4D11349134801F01BFD04A928461522DB
:103E1000FFF752FE1048FFF74DF8104804A9036859
:103E200015229B6898474FF4FA7002F05DF80A4833
:103E3000FFF750F80DB030BD2CEB0008181400202F
:103E4000171400201B140020BF140020B9140020F8
:103E5000A5EF0008C414002070140020DC1400201A
:103E6000F0B589B005460F4616460021192201A873
:103E700005F062F9002408A941F8204D284669465A
:103E8000FFF7F8FD009802F03DF8FE238DF80430AE
:103E9000E0238DF8053015238DF806300E238DF8BC
:103EA000073001238DF809302A4B8DF808401B7824
:103EB00003B1552328488DF80A30FDF7E6FE0024AB
:103EC0008DF80B00012302A80E218DF80C308DF81F
:103ED0000D708DF80E408DF80F408DF810408DF864
:103EE00011408DF812408DF813408DF814408DF874
:103EF0001540FEF748FF8DF81600E30701AB234499
:103F000004F1010454BF0D220A22062CDA74F4D104
:103F10001249134801F094FC284601A91922FFF721
:103F2000CBFD1048FEF7C6FF0024E3B2B3420BD22C
:103F30000D4801A9036819229B6898474FF4FA704D
:103F400001F0D2FF0134F0E70648FEF7C3FF09B0E5
:103F5000F0BD00BF171400201B140020BFEF0008A5
:103F6000C414002070140020DC1400202DE9F0415E
:103F70000024ACB007462146142207A8039405F09C
:103F8000DBF8802221460CA805F0D6F82CA941F8D0
:103F9000A04D3846B74DFFF76DFD049801F0B2FF14
:103FA0002B780BB16B785BB9B349B44801F048FC8E
:103FB00000230093B248AF490122B24BFDF75EF8EF
:103FC000B148FFF77DFCFE238DF83030D0238DF80B
:103FD0003130342301268DF83330AC4800238DF87E
:103FE00034308DF832608DF83560FEF779FFA84CDB
:103FF000030AD4F800808DF83700A64940468DF8B2
:10400000363004F07BF928B1FF238DF838308DF875
:1040100039301BE04046002104F052F920B108F18C
:104020000048C4F8008000E00646022303A8216887
:104030000422FCF70FFA9DF80C308DF838309DF80B
:104040000D308DF839300EB1F22300E0E223A6687E
:104050008DF83A3030460023039304F059F90138C3
:10406000632803D9FF238DF83B300BE0022303A81C
:1040700031460422FCF7EEF99DF80C308DF83B3008
:104080009DF80D308DF83C300021E223142207A862
:104090008DF83D30039105F04FF8E2687E4B9A426F
:1040A00007D9FF238DF83E308DF83F308DF8403032
:1040B00019E07A4907A805F0A7FA07A805F046FC19
:1040C00007A9024603A8FCF78DF99DF80C308DF87E
:1040D0003E309DF80D308DF83F309DF80E308DF854
:1040E00040309DF80F308DF84130E0238DF842309C
:1040F000A36A0A200026B3FBF0F0039603F0EAFE61
:1041000004220146334603A8FCF7A4F9A36A4FF63C
:10411000FE72934207D9FF238DF843308DF8443067
:104120008DF8453009E09DF80C308DF843608DF82E
:1041300045309DF80D308DF84460606A8DF846304A
:104140000026E12364288DF84730039603D9FF2326
:104150008DF848300DE003F0BDFE334601460422E1
:1041600003A8FCF777F99DF80C308DF848309DF8DE
:104170000D30E02220698DF84A208DF84D208DF811
:1041800050204FF6FE728DF8493090424FF0FF03F9
:104190008DF84B308DF84C308DF84E308DF84F3017
:1041A00002D98DF8513016E0394B1B7D012B08BF29
:1041B000C0F5803003F08EFE394903F097FF0223EB
:1041C0000146042203A8FCF745F99DF80C308DF850
:1041D00051309DF80D308DF85230237DA669012BAA
:1041E0000CBFF223E2238DF85330304600230393B3
:1041F00004F08EF8642803DDFF238DF854300BE0C3
:10420000022303A831460422FCF724F99DF80C3060
:104210008DF854309DF80D308DF85530206AE2232A
:104220008DF856304FF6FE7300269842039603D958
:10423000FF238DF857300DE003F04CFE3346014666
:10424000042203A8FCF706F99DF80C308DF85730CE
:104250009DF80D308DF85830E069E0238DF8593025
:104260004FF6FE730026984203961BD9FF238DF864
:104270005A3025E0BA140020D7EF0008C4140020FB
:10428000181400202CEB0008781400207014002073
:104290007C14002000001643400D0300F0EF0008DE
:1042A0000000204103F016FE33460146042203A815
:1042B000FCF7D0F89DF80C308DF85A309DF80D3091
:1042C00005AC8DF85B302548E02321468DF85C3045
:1042D000FDF714FE00230CAA1A44E15C0133072BFE
:1042E00082F82D10F7D12B780DA88DF86430AB78BB
:1042F00034218DF865306B788DF86630EB788DF869
:104300006730FEF740FD00238DF86800DA070CAA3D
:104310001A4403F1010354BF0D210A21062B82F830
:104320003910F3D10E490F4801F08AFA0CA938462A
:104330003F22FFF7C1FB0C48FEF7BCFD0B480CA960
:1043400003683F229B6898474FF4FA7001F0CCFD58
:104350000548FEF7BFFD2CB0BDE8F0812914002010
:10436000F6EF0008C414002070140020DC140020B4
:10437000122938B50546144608460BD0132910D02B
:10438000112916D100F07CF80CB120460FE047F659
:10439000FF700CE000F074F8002CF6D149F63F40B5
:1043A00005E000F06DF8002CEFD14FF2234000F053
:1043B0006BF9284638BD13B50022044601A8FFF763
:1043C000D7FF204602B010BD084600F043B900F008
:1043D0002FB910B510460C4600F070F921460320A5
:1043E000BDE8104000F0A2B8054B1B681B685B01DC
:1043F00003F1844394331A68002AFCD0704700BF4D
:1044000010020020054B1B681B685B0103F184430D
:104410008C331A68002AFCD0704700BF10020020BD
:1044200008B5FFF7E1FF054B00221B681B685B0125
:1044300003F18443C3F88C2008BD00BF10020020A4
:1044400008B5FFF7D1FF054B01221B681B685B0114
:1044500003F18443C3F8902008BD00BF1002002080
:1044600008B5FFF7C1FF054B00221B681B685B0105
:1044700003F18443C3F8902008BD00BF1002002060
:1044800010B5044600F067FB00F072FB204A112CC7
:10449000136A23F44073136213460BD005D8C4B1DA
:1044A000102C2AD10023136227E0122C11D0132CD8
:1044B0001AD022E0174A00211160012142F8081C9D
:1044C000154A126812F0FF0FFAD01A6A42F480728D
:1044D00012E0124A01211160114A1268002AFBD031
:1044E0001A6A42F4007207E00E4A126812F0FF0FD7
:1044F000FAD01A6A42F440721A620B4B01221A6017
:10450000FFF78EFFFFF77EFFBDE81040FFF76CBF9F
:104510000010024008044242040442428004424225
:1045200084044242440042423C04424238B5144DA5
:1045300004462B6803EB80035960FFF755FF032CFB
:1045400009D1104A01231360C2F800310E4B4FF419
:1045500000725A6038BD2B6801221B68944204EB3C
:10456000C3034FEA830303F184431A6003D002D3E9
:10457000022C00D038BD044B08221A6038BD00BFA1
:10458000100200204480204200E100E010B5044603
:10459000FFF72AFF032C0B4B05D10B4900220A60C1
:1045A000C1F8002108E01A680021126804EBC20279
:1045B000920002F1844211601B6803EB8404002323
:1045C000636010BD1002002044802042F8B5104BFB
:1045D0001E6835682B686F681F4017F0010403D010
:1045E00074680CB1A0470124BA0704D5B36813B1AD
:1045F000984744F002047B0704D5F36813B1984749
:1046000044F004046B6823EA04046C60F8BD00BF46
:104610001002002008B5044B1B681B691BB19847AA
:10462000024B01221A6008BD10020020C482204201
:1046300008B5FFF7F5FEFFF7E5FEFFF7D5FE044BE3
:104640001B681B689869DB699BB243EA004008BDA0
:104650001002002010B50446FFF7E2FEFFF7D2FE7D
:10466000FFF7C2FEFFF7ECFE064B220C1B68A4B25C
:104670001B689A61DC61FFF7F3FEBDE81040FFF7AD
:10468000B3BE00BF1002002010B50446FFF7C8FEFD
:10469000FFF7B8FEFFF7A8FEFFF7D2FE064B220C8D
:1046A0001B68A4B21B689A60DC60FFF7D9FEBDE806
:1046B0001040FFF799BE00BF1002002010B504465D
:1046C000FFF7AEFEFFF79EFEFFF78EFEFFF7B8FE88
:1046D000064B220C1B68A4B21B681A625C62FFF7CF
:1046E000BFFEBDE81040FFF77FBE00BF10020020F4
:1046F00001498D4601490847005000200147000844
:1047000008B5124B124A1968914201D0002301E00A
:10471000104B07E01048D4188442F9D2C858D05042
:104720000433F7E70D4A934203D2002243F8042BE7
:10473000F8E704F051F900200146024601F04CFB75
:10474000074B0BB104F038F9FEE700BFC4F50008D1
:10475000000000207813002078130020B0150020FE
:10476000B989000808B50D4B1A680AB90C4A1A60D5
:104770001B680C4AD21A824204DB09494242591A88
:10478000914206DA04F012F90C2303604FF0FF3077
:1047900008BD024A18441060184608BDC014002025
:1047A000B0150020302F0128FEE770470B4B10B5E5
:1047B000196809220A230A4800F016FF094B022251
:1047C00019680948032300F00FFFBDE81040074BAC
:1047D000074819681A221B2300F006BF3403002083
:1047E000C414002038030020DC1400203C03002007
:1047F000F414002010B5044600F092F9034B204653
:104800001978BDE8104000F017B900BF2C02002055
:10481000F8B50446056800F05BFB226800235101EF
:1048200001F184410B60802129600121A9622B6183
:10483000EB606379696113B18B4203D02BE04FF4D5
:1048400000436B644FF6FF73D36200256E1CF7B212
:104850002046394600F046FBD0B1236848F6FF7188
:1048600003F1340242F8251018336D1017F0010FD0
:1048700053F8252014BF6FF0FF016FF47F4101EA68
:10488000020214BF68214FF4D0410A4343F82520A7
:10489000042E3546DAD1216801224B01490103F18A
:1048A000844301F18441C3F880220A60F8BD00000E
:1048B00038B5274B274C1A68022042F010021A60C4
:1048C00000F062F90025002000F02CFA65602368F2
:1048D000182023F40023236000F031FA102000F0A8
:1048E0002EFA00F043F8A560102000F01BFA10200B
:1048F00000F033FA0028FAD000F039F8164800F03A
:1049000039FA182000F00EFA182000F026FA0028D4
:10491000FAD0022000F0F6F900214FF0006000F01C
:10492000A3F90E4800F08CFA00F038F80C4B188808
:1049300000F0E4F80B4800F0E5F80B4800F0B4FA9A
:1049400000F02EF800F02DF8FFF72FFF38BD00BF64
:104950000020024000100240300200203F190100F8
:104960002E020020F547000811480008704708B5DE
:104970000020014600F03CFA01204FF4806100F075
:1049800037FA0021022000F033FA2D2000F040FA1F
:10499000BDE808400320002100F02ABA00F0FEB86C
:1049A000704700F03BB9000000000000000000006C
:1049B000012007E0022005E0032003E0042001E0DD
:1049C0000520FFE70D4A0121116072B60C4A002153
:1049D0001160074902B4084902B486B005498E4601
:1049E000704700BFAFF30080AFF30080AFF30080EB
:1049F00000000061F9FFFFFF0555000814ED00E01D
:104A000010E000E0AFF30080AFF30080AFF3008070
:104A1000FEE710B50446007900F0B8F92079BDE84A
:104A2000104000F0CBB903689A6822F4602242F487
:104A30008012114399607047002370B51A461C46D6
:104A4000072B4FEA430503DCEE1801FA06F6344360
:104A50001D4401FA05F501330A2B42EA0502EFD1A4
:104A60000368DC601A6170BD0368DA6A22F0F872CC
:104A7000DA6259639A6842F480029A601A6892076F
:104A8000FCD5D86C80B2704738B5124D2A681368CF
:104A90001C68A10706D5196821F002011960936806
:104AA00003B19847620708D52B681A681B6911681B
:104AB00021F00401116003B19847E30708D52B6882
:104AC0001A68DB68116821F00101116003B1984791
:104AD00038BD00BF5C020020036801225B0103F1C6
:104AE000844303F58673191F1A6018680028FCD1E7
:104AF00043F8042C0B68002BFCD1704701460420BE
:104B000000F076B9044B10B504461868A047034B73
:104B10001868A04710BD00BF5C02002058020020AA
:104B200010B50446FFF775FF20464FF46021FFF7EC
:104B30007AFF2368012103F1404308335A015B01E6
:104B400002F1844203F18443116520461960BDE8F7
:104B50001040FFF7C1BF08B5142000F017F904207A
:104B600000F014F9BDE80840042000F027B9000067
:104B7000014B01221A60704720000E42014B0022B7
:104B80001A60704720000E42034B1A6822F0070299
:104B900010431860704700BF0020024008B5074866
:104BA00001F05FFA064801F05CFA064801F059FA94
:104BB000BDE80840044801F054BA00BF600200207C
:104BC00068020020700200207802002070B501F019
:104BD0000704A4000F25A5400368C80853F8206007
:104BE000092A26EA050514BF1646082606FA04F423
:104BF000082A44EA050443F8204006D1012000FABF
:104C000001F1DA6822EA010106E0092A05D1012052
:104C100000FA01F1DA681143D96070BD08B50320CC
:104C200000F0B4F8BDE80840032000F0C7B8000069
:104C3000024B4AF6AA221A60704700BF00300040BB
:104C400000284FEA011105DA064B00F00F00C9B247
:104C50001954704700F16040C9B200F5614080F816
:104C60000013704714ED00E021F0604138B521F0E9
:104C70007F01084B0843986000241D4660B20F2155
:104C80000134FFF7DDFF2B2CF8D1F02385F823301A
:104C900038BD00BF00ED00E0044A054BD16801F4C7
:104CA00040710B43D360BFF34F8FFEE700ED00E090
:104CB0000400FA05014B1860704700BFA0000E42C7
:104CC000074B1A6842F001021A601A6842F00202A9
:104CD0001A60044B1A6942F004021A6130BF70472F
:104CE0000070004000ED00E0024B1A6842EA8000CC
:104CF0001860704700700040014B13F810007047B7
:104D000048F20008064B5A6822F0030202435A6038
:104D100080005A6802F00C028242FAD1704700BF4C
:104D200000100240030A0121C0B201FA00F003F1B1
:104D3000804303F504331A68104318607047030A70
:104D40000121C0B201FA00F003F1804303F50433FE
:104D50001A6822EA000018607047030A0222C0B2F3
:104D600002FA00F003F1804303F504331B68184096
:104D700070470000044B05C85968126821F474118B
:104D800002430A435A6070470010024010B50446BF
:104D9000FFF7B2FF074B53F82020074B03EB440407
:104DA000637803EBC2039B0003F1844301221A6082
:104DB00010BD00BF8002002048F2000810B5044674
:104DC000FFF79AFF084B53F82020084B03EB4404ED
:104DD000637803EBC2039B0003F1844301221A6052
:104DE00000221A6010BD00BF8C02002048F20008AB
:104DF00010B5054B054C5A6854F8200022EA000211
:104E00001143596010BD00BF00100240A4F2000819
:104E100010B50446FFF770FF074B53F82020074BEF
:104E200003EB4404637803EBC2039B0003F1844368
:104E300000221A6010BD00BF9402002048F2000852
:104E4000024B072258601A60704700BF10E000E074
:104E500008B5044B1A6801321A60034B1B6803B192
:104E6000984708BDA41500200C15002011F0010F73
:104E700070B542EA03030CBF0825002503FA05F5C7
:104E8000006801F1FF3400F11800C4F3400450F849
:104E9000241014BF6FF0FF066FF47F4631402943A2
:104EA00040F8241070BD000010B504460448A04727
:104EB0000448A0470448A0470448A04710BD00BFCD
:104EC000E802002010030020A0020020C4020020FD
:104ED00010B504460079FFF759FF2079BDE810406E
:104EE000FFF76CBF03791E2B10D9212B0ED0202B7E
:104EF0000ED9222B01D0252B04D102298CBF0020F2
:104F0000012070474B1E584258417047012070479E
:104F1000002070478B1C40F823200368012203F116
:104F200040430C3301EBC3039B0003F184431A603D
:104F300042790379FAB9B3F11A025342534107296E
:104F400045D8DFE801F004090909090E0E13002B0A
:104F50000CBF2C23192331E0002B0CBF2E231B2365
:104F60002CE0002B0CBF2D231A2327E0002B0CBFB5
:104F70002B23182322E01B3B0C2B28D8DFE803F05F
:104F8000071D090B0D0F2711131517191B001C23E3
:104F900014E01E2312E0322310E036230EE0372304
:104FA0000CE018230AE0192308E01A2306E02B235B
:104FB00004E02C2302E02D2300E01D2359090122E7
:104FC00003F01F0302FA03F3014A42F8213070474D
:104FD00000E100E00368002203F140430C3301EBE1
:104FE000C3039B0003F1844302311A6040F821207F
:104FF000704738B543790446022B0D463BD0032A4F
:1050000039D8DFE802F002111F2DFFF7E3FF236814
:10501000013D03F140432033DB0003EB85039B009C
:1050200003F18443002225E00368002203F140439A
:105030000C3301EBC3039B0003F184431A6060222D
:10504000082301E010220023FFF710FF2368013D31
:1050500003F140432033DB0003EB85039B0006E0B4
:1050600003684FF2F1229A6103229A605B0103F117
:10507000844301221A6038BD10B5074B1C68E168F3
:1050800022690A40120606D55B6A23B19847236954
:1050900023F08003236110BDE802002010B5074B08
:1050A0001C68E16822690A40D20706D59B6823B1D3
:1050B0009847236923F00103236110BDE802002013
:1050C000F8B50C4F3D68EB682E691E4016F04004A1
:1050D00003D03C6A0CB1A0474024B30604D5FB6959
:1050E00013B1984744F020042B6923EA04042C618F
:1050F000F8BD00BFE8020020F8B5134F3E68F36822
:1051000035691D4015F0100403D0BC690CB1A047EF
:105110001024290704D57B6913B1984744F008048B
:105120006A0704D53B6913B1984744F00404AB0700
:1051300004D5FB6813B1984744F00204336923EAAD
:1051400004043461F8BD00BFE8020020F8B51A4E2F
:105150003768FB683D691D4015F0400403D0346A90
:105160000CB1A0474024EB0604D5B36913B19847AE
:1051700044F01004280704D5736913B1984744F02C
:105180000804690704D5336913B1984744F004044F
:10519000AA0704D5F36813B1984744F00204EB075B
:1051A00004D5B36813B1984744F001043B6923EA7E
:1051B00004043C61F8BD00BF10030020F8B51A4E8E
:1051C0003768FB683D691D4015F0400403D0346A20
:1051D0000CB1A0474024EB0604D5B36913B198473E
:1051E00044F01004280704D5736913B1984744F0BC
:1051F0000804690704D5336913B1984744F00404DF
:10520000AA0704D5F36813B1984744F00204EB07EA
:1052100004D5B36813B1984744F001043B6923EA0D
:1052200004043C61F8BD00BFA0020020F8B51A4E8E
:105230003768FB683D691D4015F0400403D0346AAF
:105240000CB1A0474024EB0604D5B36913B19847CD
:1052500044F01004280704D5736913B1984744F04B
:105260000804690704D5336913B1984744F004046E
:10527000AA0704D5F36813B1984744F00204EB077A
:1052800004D5B36813B1984744F001043B6923EA9D
:1052900004043C61F8BD00BFC4020020818802689C
:1052A000034689B2505C99881A8989B292B29142B8
:1052B00017BF9A880022013292B2C0B29A8070471A
:1052C000C28838B5838892B29BB201329A420446B2
:1052D0000D461AD0C288038992B29BB29A4202D17B
:1052E00083889BB28BB14FF0FF30E288236892B283
:1052F0009D54E288238992B29BB29A4217BFE388F9
:10530000002301339BB2E38038BD2046FFF7C6FF80
:10531000EBE770B51E460546084611460422059C7B
:10532000FFF754FC9DF810100B223046FFF74EFC9F
:105330002B6804F00F01DA6804F0300422F4F05214
:105340001204120C42EA4122DA601A6922F4405235
:105350001204120C42EA04241C6170BD38B50446E4
:10536000154611B900F096F8014619235943AD00CE
:105370006423B1FBF5F1B1FBF3F21201100903FB59
:10538000101109013231B1FBF3F303F00F0321686F
:105390001A4392B28A6038BD38B5114DEB68980651
:1053A00007D52B68990604D569680E48C9B2FFF77E
:1053B00087FFEB680A4C1A0611D523681B060ED529
:1053C00009488288C38892B29BB29A4203D0FFF701
:1053D00065FF606038BDE36823F08003E36038BD9B
:1053E000003801401C1500201015002038B5114D63
:1053F000EB68980607D52B68990604D569680E48AE
:10540000C9B2FFF75DFFEB680A4C1A0611D5236895
:105410001B060ED509488288C38892B29BB29A4275
:1054200003D0FFF73BFF606038BDE36823F08003E3
:10543000E36038BD004400402815002040150020DE
:1054400038B5114DEB68980607D52B68990604D539
:1054500069680E48C9B2FFF733FFEB680A4C1A06B9
:1054600011D523681B060ED509488288C38892B2DD
:105470009BB29A4203D0FFF711FF606038BDE3682A
:1054800023F08003E36038BD00480040341500205D
:105490004C15002008B590F89002FFF72DFC20B1C4
:1054A0000128034818BF002008BD024808BD00BFFE
:1054B00000A24A040051250208B5114B01211C68C5
:1054C00003222046FFF782FB002301211A46934264
:1054D000206834BF02254FF40035B2F5007F056126
:1054E00003F1010303D0002A08BF012101E04FF0BE
:1054F000FF31B3F5007F04BF52180023E7E700BF78
:1055000044F2000808B5034B0BB1AFF3008062B65C
:10551000FFF7D2FF0000000003695B68D9889A8812
:1055200089B292B2D8888A1A998880B289B28842A0
:1055300003D2198989B201310A4492B282B19988A1
:105540001A6889B2505C99881A8989B292B29142DC
:1055500017BF9A880022013292B2C0B29A80704777
:105560004FF0FF30704703695B689988DA8889B229
:1055700092B2914205D09A881B6892B2985CC0B2F0
:1055800070474FF0FF30704703699A689088D18860
:1055900080B289B28842F9D11A6813685B06FCD5DB
:1055A000704713B504698DF8071020460DF1070107
:1055B000012200F0B1FD0028F7D0012002B010BD9B
:1055C00003695B68D8889A8880B292B2D988801AB9
:1055D0009A8889B292B2914203D21B899BB201335D
:1055E000184480B27047000030B5002545604FF484
:1055F0007A758560024D016105600275437530BDA5
:10560000C0F2000803692DE9F74FDB6804469942B0
:105610000F4692462CD890F81480174D4FEA081880
:1056200008EB050690F8159070684FEA091909EB28
:10563000050B717B10B10022FFF7DBFC206900F045
:105640001BFD337B9BF80C2020698DE8080459F87A
:10565000051058F80530FFF75CFE206900213A4636
:10566000FFF77CFE206903B0BDE8F04F00F02EBDCF
:1056700003B0BDE8F08F00BF14F000080022FFF770
:10568000C1BF006900F02CBD044B02791B789A421F
:1056900002D1034B1B681860704700BF68150020DB
:1056A0006C150020002310B50446036072B6054B4C
:1056B00019311970044B18600448FFF7F5FB62B606
:1056C000204610BD681500206C1500208956000882
:1056D000036800221B685B0103F184431A60704772
:1056E000036801221B685B0103F184431A60704761
:1056F000036801391B6889B29962704703681B68A7
:10570000DA6A92B2914228BF11465962704738B5A1
:10571000054639B9036801221B689962DA62D86AC2
:1057200080B238BD48244C434FF6FF71B4FBF1F111
:10573000013189B204EB5104B4FBF1F4FFF7D8FF57
:105740002B68A4B21B682046DC6238BD0068C9B271
:10575000FFF74FBC0368C9B21B6801F18041D86AEA
:10576000013980B23433824228BF024643F82120F7
:1057700070470068C9B2FFF7CDBB000008B5012132
:105780000848FFF78FFF02210748FFF78BFF03212F
:105790000648FFF787FFBDE8084005480421FFF7EA
:1057A00081BF00BF581500205C1500206015002047
:1057B0006415002070B505460E460024315D29B100
:1057C0002A682846126890470134F7E7204670BDE2
:1057D000F8B505460C4616468F18BC4206D02B6815
:1057E00028461B6814F8011B9847F6E73046F8BDB9
:1057F00010B502680B46946809689A68A04710BD06
:1058000008B503681B68984708BD08B503685B685E
:10581000984708BD38B50D210546FFF7F1FF0A216D
:1058200004462846FFF7ECFF204438BD38B504464F
:10583000FFF7DEFF05462046FFF7ECFF284438BDA2
:1058400038B50446FFF7E1FF05462046FFF7E2FFC3
:10585000284438BD2DE9F04F14461D4691B054EA56
:10586000050381469DF868B004D13021FFF7C8FFD9
:1058700001202EE04FF000085FFA8BF6002720464B
:10588000294632463B4602F069FD08F101080DF158
:10589000000AC2440AF8012C204629463B463246FB
:1058A00002F05CFD04460D4654EA0503E4D10024F1
:1058B00008F1FF381DF808104846092994BF303117
:1058C0003731C9B2FFF79CFF0444B8F1000FEFD1A4
:1058D000204611B0BDE8F08F2DE9F041069F064645
:1058E00014461D462FB90368D1B21B689847BDE81E
:1058F000F081002C75F1000305DA2D21FFF780FF00
:10590000644265EB4505FFB20697304622462B46BA
:10591000BDE8F041FFF79EBF07B5CB1700920A46DE
:10592000FFF7DAFF03B05DF804FB38B50446FFF774
:10593000F3FF05462046FFF76DFF284438BD70B5DC
:10594000049921B90368D1B21B68984770BDC9B2E8
:105950000491BDE87040FFF77DBF07B500230092BA
:10596000CAB2FFF7ECFF03B05DF804FB38B504469C
:10597000FFF7F3FF05462046FFF74CFF284438BDEC
:1059800007B5002300920A46FFF7D9FF03B05DF880
:1059900004FB38B50446FFF7F3FF05462046FFF742
:1059A00039FF284438BD07B5002300920A46FFF7A7
:1059B000C6FF03B05DF804FB2DE9F74F1946064614
:1059C000144610461D460022002302F02BF99DF8D4
:1059D00030704FF0010838B12046294644A3D3E97E
:1059E000002302F015F906E02046294642A3D3E938
:1059F000002302F003F900B980465FFA88F82046D8
:105A0000294600220023B8F1000F0DD002F0ECF877
:105A100018B130462D21FFF7F3FE80463849304655
:105A2000FFF7F3FE404460E002F0DEF838B13046A4
:105A30002D21FFF7E5FE05F1004380461D46314B61
:105A40004FF0000900225FFA89F1B9420AD21046EC
:105A5000194600222C4B01F07FFF09F10109024693
:105A60000B46F0E72046294601F09AFC04460D4615
:105A700002F08AFC82468B4601F016FE02460B4677
:105A80002046294601F08AFC0A2300930446524628
:105A900030465B460D46FFF71FFF804427B1304676
:105AA0001A49FFF7B2FE8044F7B1174B0022204697
:105AB000294601F027FE0D46044602F0BDF8814656
:105AC0000A2249463046FFF727FF8044484601F046
:105AD000B3FD02460B462046294601F05FFC013F1C
