:020000040800F2
:100000000050002039420008014300080543000861
:10001000094300080D43000811430008614300082C
:100020006143000861430008614300086143000820
:10003000614300086143000861430008DD47000890
:10004000614300086143000861430008153F000850
:1000500061430008614300086143000861430008F0
:1000600061430008614300086143000861430008E0
:1000700061430008614300086143000861430008D0
:100080006143000861430008D94300086143000848
:1000900061430008614300086143000861430008B0
:1000A000494A00086D4A0008914A0008C94A0008F8
:1000B0001D4B00088D4B0008FD4B000861430008F4
:1000C0006143000861430008614300086143000880
:1000D00061430008694D0008BD4D0008114E00083D
:1000E000614300085D3F00086143000810B5054CFE
:1000F000237833B9044B13B10448AFF300800123D4
:10010000237010BD78130020000000005CC10008BF
:1001100008B5064B1BB106480649AFF300800648F8
:10012000036813B1054B03B1984708BD00000000F8
:100130005CC100087C130020781300200000000040
:1001400008B50548054905F0B7F8BDE808404FF483
:100150007A7005F0A9BA00BFA814002018D50008CD
:1001600007B5324801F0D2FD002837D1304B314974
:1001700018702E4801F084FC28B12C482D4901F05C
:10018000BAFC002848D12C4801F0A0FF20B12A4831
:1001900001F04BFF002844D101238DF800302648A0
:1001A000002369468DF801308DF802308DF8033058
:1001B0008DF8043001F0EFFE18B12048204905F019
:1001C0007BF820480021052200F03AFF06E01020CD
:1001D00005F0F6F940B11C4800F042FE134801F06A
:1001E00095FD0028F3D011E041F2883005F05CFA6B
:1001F000102005F0E5F90028EDD1144802F0ACFE1E
:10020000102005F0DDF90028FAD0E4E7084B0122C0
:100210001A7003B05DF804FB0D49084805F04CF86E
:10022000B1E70C49054805F047F8B5E73714002059
:10023000080000209413002034140020A81400208B
:100240001CD50008301400201F1400208A14002040
:1002500039D500084DD500080E4B70B51A780E4CF4
:100260001E462568AAB90D4803F0B6F8226805F5C0
:100270001C5310339A4201D2337833B123680848B3
:100280000849BDE8704005F017B8074800F0E8FDE0
:10029000ECE770BD1D1400208C1500208A1400208E
:1002A000A81400207CD500081F14002008B51049B0
:1002B000104805F001F84FF47A7005F0F5F90E4892
:1002C00000F0E8FE0820002105F090F9012000214F
:1002D00005F08CF90121132005F088F9012004F0C4
:1002E00091F9012004F0A8F9BDE8084004F090B9A4
:1002F0009AD50008A81400203014002008B510205A
:1003000005F05EF9F0B9642005F0CEF9102005F093
:1003100057F9B8B941F2883005F0C6F9142005F054
:100320004FF978B9642005F0BFF9142005F048F9B9
:1003300040B9054801F04FFDBDE8084003480449B5
:1003400004F0BABF08BD00BF32140020A81400207A
:10035000ACD50008994B30B51A6887B022F0E0623E
:1003600042F000721A6096484FF4165104F0BAFE3B
:1003700094484FF4165100F003FF93484FF4165180
:1003800004F0B0FE04F08FF890498D4804F094FF1B
:100390008F4800F027FE8B4800F0CEFE0820002199
:1003A00005F064FA0820002105F020F98949844805
:1003B00004F082FF884801F037FB0121814800F0FA
:1003C00089FF4FF47A7005F06FF9844800F048FD1A
:1003D00083497B4804F070FF8248222101F0C4FD6C
:1003E000012806D17F48232101F0BEFD01280446E3
:1003F00015D001210A467B4801F09FFD7A496846E5
:1004000005F0A9F9694603A805F0C6F9012103A87A
:1004100005F017FA754905F002FA01210FE0744959
:10042000684605F098F9694603A805F0B5F9214634
:1004300003A805F006FA6D4905F0F1F9214605F02B
:1004400000FA01465E4804F02DFF03A805F041F9CB
:10045000684605F03EF96348242101F083FD072832
:10046000044616D15F48252101F07CFD054680B980
:100470006049684605F06FF9694603A805F08CF9F4
:10048000214603A805F0DDF9584905F0C8F92946C9
:1004900014E000225348072101F068FD56496846E0
:1004A00005F059F9694603A805F076F9072103A874
:1004B00005F0C7F94D4905F0B2F9002105F0C1F981
:1004C00001463F4804F0EEFE03A805F002F9684635
:1004D00005F0FFF8FFF712FF484801F073FC88B9F8
:1004E0003848012101F0B4F93648012100F04EFEF0
:1004F0000121344800F0EEFE384800F0B1FC3F48DE
:1005000001F052FC3E4801F0DDFBFFF729FE3D49BA
:100510003B4801F005FC0146B0B90A222C4800F026
:100520008FFD3949264804F0C7FE384802F0D0FD57
:100530004FF47A7005F0B8F8284800F091FC40F6C6
:10054000B83005F0B1F8E2E731491D4804F0B4FED7
:100550001F4801210A2200F073FD1D4800F0B0FD84
:10056000B0F52F6F0DD8642005F09EF8184800F004
:10057000A7FDB0F52F6F04D8264802F0EDF8FFF77D
:1005800095FEFFF769FE124800F09AFD40F6E3433E
:100590009842214C01D9002309E001230C48237023
:1005A00000F08EFD40F6B833984201D80223237044
:1005B000184802F009F807B030BD00BF0400014040
:1005C000A814002031140020D8140020F0D5000811
:1005D0003014002006D60008361400201F14002016
:1005E0004DE600083514002070D6000804DD000830
:1005F0008BD60008C0D60008A5D60008321400200B
:10060000371400209413002024D600088A140020F8
:1006100057D600084114002040140020012902D1BF
:100620001C30C0B27047062984BF01F1FF31C9B246
:1006300011F0010F14BF1E201F207047444B2DE9FD
:10064000F047B1FBF3F603FB16113C23B1FBF3F2C9
:1006500003FB1212054602704FF46160B1FBF0F229
:1006600000FB1211B1FBF3F36B704FF4FA63AA7045
:10067000B6B2EB80EC884FF4C873B4FBF3F803FB1D
:1006800018481FFA88F8B8F1000F16D06423B4FB9D
:10069000F3F203FB12439BB2002B53D014F003017F
:1006A00040F26D130CBF4FF4B7721A4696420EDB40
:1006B000002908BF4FF4B77304E0B6F5B77F06DB37
:1006C0004FF4B773F61A0134B6B2EC80D2E70023C8
:1006D0006B716423B4FBF3F703FB1747BFB2B8F1A8
:1006E000000F06D03FB114F0030F14BF002001200B
:1006F00002E0012000E0384695F80590C0B2494676
:10070000FFF78CFF864209F1010A15D3B8F1000FFB
:1007100006D03FB114F0030F14BF0020012002E007
:10072000012000E03846C0B24946FFF777FF301A93
:1007300086B285F805A0D2E701362E7185F805A0AE
:10074000BDE8F087B6F5B67FC1DD40F26D13B9E7BD
:1007500080510100F8B5427887783C2303FB0727D6
:1007600002780579467903FB0727013D013EEDB28A
:10077000F6B2044605714671013E731CE38834D01D
:100780004FF4C872B3FBF2F102FB113292B262B1C4
:100790006422B3FBF2F002FB103080B230B113F0F0
:1007A000030F14BF0020012000E00120C0B2F1B20D
:1007B000FFF734FF284485B2DEE74FF4C872B3FB7D
:1007C000F2F102FB113292B2AAB16422B3FBF2F150
:1007D00002FB113292B28AB113F0030F40F26D1294
:1007E00008BF4FF4B7721544ADB2013B9BB2B3F5ED
:1007F000FA6FE2D205E04FF4B772F4E740F26D12FF
:10080000F1E7024800FB0570F8BD00BF8051010010
:1008100001F0B8BC38B50D46044601F0CEFC290AFB
:1008200049006039204601F0FE0101F05DFD2046DF
:1008300001F033FDE9B2204601F056FD204601F0FB
:100840002CFD204601F0B9FC2046A12101F04CFD11
:10085000204601F022FD0021204601F06CFD0546F6
:10086000204601F0FDFC204601F0C2FC284638BDC0
:1008700070B50D461646044601F09FFC290A490052
:100880006039204601F0FE0101F02EFD204601F006
:1008900004FDE9B2204601F027FD204601F0FDFCF1
:1008A0003146204601F020FD204601F0F6FC2046AE
:1008B00001F09EFCBDE870400A2004F0F5BE000087
:1008C000D30770B548BF01320024520802312346D5
:1008D000E5B2954225D211F8025CA5F14106F6B2C7
:1008E000052E02D8104B9B5D05E0303DEDB2092D81
:1008F00003D80E4B5B5D1B01DBB211F8015CA5F167
:100900004106F6B2052E01D8074D04E0303DEDB2A8
:10091000092D02D8054E755D2B4303550231013474
:10092000D6E7002070BD00BFE4D60008DAD6000884
:100930002DE9F04F824687B008461446994606F0E6
:1009400055FBC9EB0406CDE90001304606F03CFB3F
:1009500002460B4600204D4905F0FAF802460B46C8
:10096000DDE9000106F01CFE30B94FF0020896FBED
:10097000F8F80546013E07E050460021224607B040
:10098000BDE8F04F08F092B8454536DA304606F03B
:100990001BFB02460B4600203C4905F0D9F8CDE987
:1009A0000201701E06F010FB02460B46002037497C
:1009B00005F0CEF8DDE90223CDE90401DDE900010F
:1009C00006F092FC06F000FEDDE904230A2790FB06
:1009D000F7FB0BFB17004FEA001BDDE9000106F0F7
:1009E00083FC06F0F1FD90FBF7F303FB1700834453
:1009F0000AF805B0023E0135C6E709EB48094FF099
:100A0000020BC4EB090994FBFBFB09F10109D84572
:100A100038DA484606F0D8FA02460B4600201B4951
:100A200005F096F8064609F101000F4606F0CCFAEB
:100A300002460B460020154905F08AF832463B462F
:100A400004460D46DDE9000106F024FB06F0BCFD7E
:100A50000A2690FBF6F707FB16002B4607012246F5
:100A6000DDE9000106F016FB06F0AEFD90FBF6F3A3
:100A700003FB160007440AF8087009F1020908F19F
:100A80000108C4E707B0BDE8F08F00BF00002440B4
:100A9000124A517893784AF2130243EA01239342AF
:100AA00013D008D84AF21102934213D04AF212022C
:100AB000934211D00DE04AF21402934207D04AF259
:100AC0002202934205D1062070470220704703207E
:100AD0007047704700207047012070479D13002029
:100AE00010B5074C6018114603F0CFF8054B1B7882
:100AF0001C4414F8073C1B1A5842584110BD00BF53
:100B00009D1300201E140020044B18795B7943EAE2
:100B10000020431E58425841704700BF9D130020DB
:100B2000044B9B79552B044B0CBF012200221A70F9
:100B3000704700BF9D1300202014002010B5084C02
:100B4000E379552B01D1012010BD064801F0BBFA15
:100B5000E3798342F7D0D0F1010038BF002010BD07
:100B60009D1300203414002013B50D4B1C7A552C16
:100B700001D1012012E00B48694601F047FA002339
:100B80001A461DF803108C42F3D019B90132D2B2C3
:100B9000052AEED00133052BF3D1002002B010BDA1
:100BA0009D1300203414002070B505461E46FFF743
:100BB00097FF044698B12846FFF7A6FF044658B1B0
:100BC0002846FFF7ADFF2846FFF7B8FF044648B9AF
:100BD00046B10C480C4911E00A480C490EE009489E
:100BE0000B490BE02846FFF7BFFF044640B99DF8CC
:100BF00010300BB9012403E00248064904F05CFB05
:100C0000204670BDA81400203CD70008EAD6000892
:100C100018D7000873D70008194B13B51B7863B3B6
:100C200000230093042117220123FFF7BDFFD8B151
:100C3000144C154804F10C0101F0B0FBA17AE37AE1
:100C4000124843EA012101F04FFA10B1104B012282
:100C50001A70237A0F48552B02D102F07DF903E078
:100C60000721012202F032FB0B4B06481A780021C3
:100C700002B0BDE8104007F019BF02B010BD00BFC0
:100C8000080000209D130020411400203314002090
:100C90001D1400208A1400201E140020174B07B5D5
:100CA0001B7843B30023009304210A220123FFF79A
:100CB0007BFFB8B11248134901F06DF930B1124908
:100CC000124804F0F9FA1248032108E011490F48CC
:100CD00004F0F2FA104B0A220D481A700421012286
:100CE00002F0F4FA0D4B0E481A78002103B05DF8BB
:100CF00004EB07F0DBBE03B05DF804FB0800002046
:100D000034140020A5130020ABD70008A81400203D
:100D10008A140020DBD700088B1400201E1400204A
:100D20009D13002013B50023009304210F22FFF729
:100D30003BFF10B31D4C1E4804F10A0100F0A0FE59
:100D4000002830D01A4804F10A0100F0D4FE50B354
:100D50001849194804F0B0FA1848E17901F086F909
:100D6000A0B11749144804F0A7FA1648052101223A
:100D700002F0ACFA0E4800F090FF134B0B481A78C3
:100D8000002102B0BDE8104007F090BE0A480F49AC
:100D900004F092FA0E4B0A221A700A480621012228
:100DA00002F094FAE9E704480A49F1E79D130020AC
:100DB000371400206ED80008A81400203414002036
:100DC0000BD800088A1400201E1400203DD800080B
:100DD0008B1400209BD800080D4B07B51B789BB1E6
:100DE00000230093042105220123FFF7DDFE10B14B
:100DF000084802F0D9F9084B08481A78002103B0D6
:100E00005DF804EB07F052BE03B05DF804FB00BFD1
:100E1000080000208A1400201E1400209D130020CA
:100E200010B50446FFF734FE032817D8DFE800F0BA
:100E300002070C112046BDE81040FFF7EDBE20462A
:100E4000BDE81040FFF72ABF2046BDE81040FFF77D
:100E500069BF2046BDE81040FFF7BEBF10BD0000CF
:100E60002DE9F047404C0027824627700026354682
:100E70003E4804F0D9F8002833DD94F800903B4850
:100E800009F10103237004F07BF8DFF8F48008F81F
:100E90000900052004F008FC23781022434413F8CD
:100EA000011C334804F095FA3148324904F0E9F95D
:100EB00094F90030002B434602DA2B4A00211170CE
:100EC000F6B922781A4412F8012C0D2A01D117E044
:100ED0000126052DCCD12648274904F0EDF901273C
:100EE000C4E757B12549224804F0E6F95046FFF718
:100EF00097FF00232370BDE8F0872770BDE8F087D7
:100F0000042DE5D8DFE805F0030C151E2700227834
:100F1000134413F8015CB5F10A035D425D4121E021
:100F20002278134413F8013C0D2B0CBF0225002539
:100F300018E02278134413F8013C0A2B0CBF032558
:100F400000250FE02278134413F8013C0D2B0CBF51
:100F50000425002506E02278134413F8013C0A2BEF
:100F6000B9D00025012683E71E140020C0140020FC
:100F7000A814002066E10008C8D80008ECD80008D2
:100F80009D13002008B5134B13491A6809680132F4
:100F90008A421A601DD3114900221A600B78DB4384
:100FA000DBB20B700E49097841B1012911D118202B
:100FB00003B1114604F01AFB192005E0192003B90A
:100FC000012104F013FB18200021BDE8084004F0C3
:100FD0000DBB08BD241400202C1400202114002077
:100FE0002814002008B51320002104F03FFC18202D
:100FF000002104F03BFC1920002104F037FC1020F4
:10100000022104F033FC1420022104F02FFC032100
:10101000072004F02BFC0A2004F046FB18200021D6
:1010200004F0E4FA1920002104F0E0FABDE80840D9
:101030000148024904F040B9A814002029D9000849
:101040000F4B10B50F4C19700F4B20461A60012141
:10105000022204F0AFF820460C4904F08CF801217C
:1010600020460A4604F0AAF820460121084A04F066
:10107000B4F820460021BDE8104004F073B800BF6A
:10108000281400204C1500202C140020A0860100FC
:10109000850F000808B5064804F04EF81820002116
:1010A00004F0A4FABDE808401920002104F09EBA1B
:1010B0004C150020014804F047B800BF4C15002033
:1010C00030B58BB001AD28460021242207F0EEFC9C
:1010D0000024072004F066FA05F076FF12A3D3E996
:1010E000002305F0D7FF0022114B05F0D3FF06F0D7
:1010F00093FA28514FF47A70043404F0E3FA242C64
:10110000E7D109226B4608AC53F8040F59688842AE
:1011100084BF58601960A342F6D1013A12F0FF0271
:10112000F0D105980BB030BDF163CC5D4BC8E93F01
:1011300000001840AFF3008008B50120002104F042
:1011400095FB0120014604F051FA0020014604F00D
:101150008DFB0420002104F089FB0520002104F010
:1011600085FB0420002104F041FA0520012104F050
:101170003DFABDE808400020014604F037BA0000FF
:10118000014803F0AFBF00BFC014002008B561B133
:101190000021052004F02AFA962004F085FABDE823
:1011A00008400520012104F021BA08BD08B500213E
:1011B000012004F01BFA0C4803F097FF02200021E5
:1011C00004F054FB0320002104F050FB0220002116
:1011D00004F00CFA0320002104F008FABDE80840EE
:1011E0000520002104F002BAC014002010B50B78CD
:1011F000452B12D14B78522B0FD18B78CC78303BCA
:1012000003EB8303303C04EB4304E4B221460A229F
:10121000034804F0E7F8204610BD0A2010BD00BFC7
:10122000A81400200B784F2B07D148784B2804D105
:1012300013704B780120537070470020704730B511
:101240000020C4B20D5D01302C2D01D01D55F8E7F2
:10125000601C5525C0B21D55904204D20C5C1C5434
:101260000130C0B2F8E730BDF8B54C78432C08D156
:101270008C78532C05D1CC78B4F151056C426C417B
:1012800000E000240026F5B24F5D01363A2FFAD176
:101290000135EDB200279542FEB207F1010706D8ED
:1012A00011F805C0013501F806C0EDB2F3E73CB90D
:1012B0002046C2B2B2420BD20A5C1A540130F8E79F
:1012C000069A022412681470721ED2B2FFF7B7FF9A
:1012D0000120F8BD37B5144809B9144900E0144994
:1012E00003F0CFFF642004F0DFF900240E4803F080
:1012F0009BFE0028E5B208DD062C10D00A4803F05A
:101300003FFE0DF804000134F0E745B19DF80230CE
:101310004F2B03D19DF803304B2B02D002E000206D
:1013200000E0012003B030BDC014002048D90008FF
:101330004CD9000810B504460120014604F056F9C6
:1013400007484FF4165103F0CDFE20460121FFF768
:101350001DFF20460121BDE81040FFF7BBBF00BFC5
:10136000C01400202DE9F0419EB005AD0C460746A3
:101370000021904628466422039307F097FB2146FC
:101380002C4803F07EFF642004F08EF900242948E5
:1013900003F04AFE0028E6B207DD642C45D025485C
:1013A00003F0EEFD28550134F1E726B92249234820
:1013B00003F082FF39E09DF814300D2B35D19DF8F4
:1013C00015300A2B31D11EAB334413F8653C0A2B80
:1013D0002BD1023E1EAB334413F8643C0D2B24D1B9
:1013E0000021CCB2A31CDBB2B34201F1010107DA48
:1013F0001EAA134413F8643C144404F8643CF0E758
:1014000038462946FFF7F2FE0A280CD103AB0093B9
:101410003846294622464346FFF726FF00280CBFE0
:101420000320022002E0012000E003201EB0BDE8FE
:10143000F08100BFC014002052D90008A814002079
:101440002DE9F041B2B006460D46904600216422D7
:1014500068461F4607F02AFB19A80021642207F0FE
:1014600025FB0024E3B2E85C013420B132AA134426
:1014700003F8640CF6E70146CAB25D1818F802409A
:10148000EDB232AA01312A4414B102F8644CF3E7F8
:101490000D2302F8643C6B1C32A8DBB203442F48D6
:1014A0000A2203F8642C036819A95B6898472C4842
:1014B000AA1C036819A99B68D2B29847642004F05B
:1014C000F3F8274803F0B0FD0028E5B208DD642CEE
:1014D0003FD0234803F054FD0DF804000134F0E739
:1014E000002D36D09DF800300D2B32D19DF8013003
:1014F0000A2B2ED132AB2B4413F8C93C0A2B28D12E
:10150000023D32AB2B4413F8C83C0D2B21D10021F6
:101510008B1CDBB2AB4201F1010209DA32A80344B1
:1015200013F8C83CC9B2014401F8C83C1146EFE7C2
:1015300030466946FFF75AFE0A2808D13046694608
:101540003A46FFF76FFE80F00100C0B202E00120D2
:1015500000E0032032B0BDE8F08100BFA8140020F5
:10156000C0140020F7B51E46044617460D4600215C
:101570008DF80710FFF7AEFE03F002F82046314663
:101580002FB12A460DF10703FFF7ECFE03E0089A9E
:101590002B46FFF755FF03282AD8DFE800F0110497
:1015A0000207002311E01648164901E014481649C5
:1015B00003F082FE20460121FFF78CFE00201CE094
:1015C00012490F4803F078FE12E09DF807205E1CD8
:1015D000DBB29A420A4809D9E95C102203F0F9FE0D
:1015E00007480B4903F04DFE3346EEE703F04EFE8D
:1015F00020460121FFF76EFE012003B0F0BD00BFC1
:10160000A814002066D9000877D9000880D90008FE
:1016100066E100082DE9F0438BB004AF804600215D
:101620000922384602AE002407F040FA00944046F2
:10163000314601222C4BFFF795FF054610B92B4888
:101640002B494BE02346F25C07AC092A01D8303223
:1016500004E0A2F10A01052998BF3732E2540133B0
:10166000082BF0D14FF0000922488DF8249000F0AB
:101670005BFC0246C0B120491C4803F01DFE1D481A
:10168000394600F0B7FB50B14B46E15CFA5C914241
:1016900017D10133082BF8D1144818491EE0184916
:1016A000124803F009FE07E0009440463146154B0E
:1016B000FFF758FF054698B121460E4800F0F2FBAF
:1016C0000AE01149094803F0F7FD0097404631460A
:1016D00000220C4BFFF746FF054601E003F0ECFD4E
:1016E00028460BB0BDE8F0838CD90008A814002070
:1016F00097D9000832140020B7D900083FDA000853
:10170000D5D90008F9D9000802DA00082DE9F04F10
:1017100089B002AF07F10C068346894690461C4605
:10172000304600210A2207F0C1F9002C48D1C7F841
:1017300004D05846CDF80080314601224B46FFF7D1
:1017400011FF824608B1214602E03C483C496BE06B
:10175000CCB218F804300131002BF9D1E11D01F4AD
:10176000FC71ADEB010D02A9D8B2A04203D2F05C2E
:10177000C8540133F8E70B46581AC0B2A0420DD244
:1017800013F8010B092801D8303004E0A0F10A0554
:10179000052DF1D8373003F8010CEDE70025EBB249
:1017A000A3423FD24B5D013508EB050010F8010C58
:1017B0009842F4D02148234903F07EFD7B689D4682
:1017C0006C460023DAB219F8021001330A29F9D164
:1017D000931D03F4FC73ADEB030DA2F1020E02ABFB
:1017E0000020C1B2551EA94200F1010003DA19F828
:1017F00001505D54F5E700223D215A55584603F843
:101800000E10CDF800803146FFF7ACFE054628B932
:101810000A480D4903F050FDAA4601E04FF0010AC5
:10182000A54605E00548094903F046FD7B689D464D
:1018300050461C37BD46BDE8F08F00BFA8140020FD
:1018400069DA00088FDA0008E6DA000808DB000829
:101850007FB50F2204460D466846002107F026F9A1
:101860005848594903F028FD0A2602F089FE20460F
:10187000002D5DD1FFF7CEFE54498DF80000544A8B
:101880002B462046FFF742FF52498DF80100524A8D
:1018900001232046FFF73AFF50498DF80200504AD5
:1018A0002B462046FFF732FF4E498DF803004E4A83
:1018B0002B462046FFF72AFF4C498DF804004C4A7E
:1018C00001232046FFF722FF4A498DF805004A4AC6
:1018D0002B462046FFF71AFF48498DF80600464A76
:1018E0002B462046FFF712FF45498DF80700404A76
:1018F00001232046FFF70AFF42498DF80800424ABB
:101900002B462046FFF702FF40498DF80900404A68
:101910002B462046FFF7FAFE2F4A8DF80A003D4974
:1019200020460123FFF7F2FE0C228DF80B0007E0A2
:101930002F4A2E490123FFF7E9FE01228DF800000E
:1019400000231DF80310A9B933491E4803F0B4FC65
:101950002046FFF7EFFC2046FFF728FC02F010FEC0
:101960002046FFF7E7FC4FF4FA6003F09DFE02F01B
:1019700007FE05E00133D9B29142E2D304B070BD55
:10198000264803F051FB002803DD244803F0F8FA51
:10199000F6E7013E16F0FF067FF467AF1E223146E0
:1019A0001F48FFF74DFB1F49064803F085FC40F632
:1019B000B83003F079FE02F0E3FD04B0BDE87040FA
:1019C00002F012BEA81400201EDB00083DDB000858
:1019D00049DB000852DB00084FDB00085CDB000835
:1019E00068DB000871DB00087DDB000886DB00088F
:1019F00090DB000893DB00089DDB0008A0DB0008FB
:101A0000AADB0008B4DB0008BDDB0008C0DB00086F
:101A1000CADB0008CDDB0008D7DB0008C0140020BB
:101A200030140020F4DB000810B500210446152016
:101A300003F01CFF1520012103F0D8FD04480549DF
:101A400003F03AFC2046BDE81040FEF7E1BE00BFBF
:101A5000A814002020DC000808B5052003F024FEAF
:101A6000BDE808401520012103F0C0BD08B51520D0
:101A7000002103F0BBFDBDE80840052003F014BEC3
:101A80007FB504460E46FFF7F1FF0D257319294671
:101A9000204613F80D2C0135FEF7EAFE162DF5D180
:101AA0003046092102F0F1F8064629462046324622
:101AB000FEF7DEFE0D2529462046FEF7ABFE01AB04
:101AC0002B440135162D03F80D0CF4D101A8092182
:101AD00002F0DBF8B042204603D0FFF7BDFF002044
:101AE00007E00B215522FEF7C3FE2046FFF7B4FFA7
:101AF000012004B070BD7FB504460E46FFF7B6FF67
:101B0000172573192946204613F8172C0135FEF7BF
:101B1000AFFE202DF5D13046092102F0B6F8064679
:101B2000294620463246FEF7A3FE172529462046C1
:101B3000FEF770FE01AB2B440135202D03F8170C86
:101B4000F4D101A8092102F0A0F8B042204603D048
:101B5000FFF782FF002007E00C215522FEF788FEE8
:101B60002046FFF779FF012004B070BDF0B585B0C5
:101B700001AD06460F4628460021092206F096FFD1
:101B80000D2421463046FEF745FE2B190134162C54
:101B900003F80D0CF5D121463046FEF73BFE092136
:101BA0000446284602F071F8844206D10023EA5C1C
:101BB000FA540133092BFAD101E0002000E00120A2
:101BC00005B0F0BDF0B585B001AD06460F4628461C
:101BD0000021092206F06AFF172421463046FEF74D
:101BE00019FE2B190134202C03F8170CF5D12146CE
:101BF0003046FEF70FFE09210446284602F045F85C
:101C0000844206D10023EA5CFA540133092BFAD14D
:101C100001E0002000E0012005B0F0BD37B50C4622
:101C20001E210546FEF7F6FD1F218DF8040028460B
:101C3000FEF7F0FD02218DF8050001A802F025F85D
:101C4000207003B030BD10B50446FFF70FFF00222F
:101C500020460B21FEF70CFE2046FFF7FDFE204636
:101C60000B21FEF7D7FDD0F1010038BF002010BDD9
:101C700010B50446FFF7FAFE002220460C21FEF7BD
:101C8000F7FD2046FFF7E8FE20460C21FEF7C2FDD7
:101C9000D0F1010038BF002010BD10B50446FFF799
:101CA000E5FE552220462121FEF7E2FD2046FFF702
:101CB000D3FE20462121FEF7ADFDB0F15503584279
:101CC000584110BD38B50446102003F079FCE0B946
:101CD00041F2883003F0E8FC102003F071FC054667
:101CE00098B92046FFF7C2FE2A4620462121FEF77A
:101CF000BFFD2046FFF7B0FE20462121FEF78AFDFA
:101D0000D0F1010038BF002038BD38BD08B5212111
:101D1000FEF780FDB0F155035842584108BD000060
:101D200038B504460D46FFF721FF20B1204629466D
:101D3000FFF748FF40BB20462946FFF717FF48B191
:101D40001449154803F0B8FA20462946BDE8384042
:101D5000FFF7D1BE20462946FFF734FF48B10F49AF
:101D60000D4803F0A9FA20462946BDE83840FFF7A0
:101D700087BE0B49084803F09FFA2046FFF763FF30
:101D80002046FFF775FF03E00348064903F094FA85
:101D9000012038BD3FDC0008A814002076DC0008D4
:101DA000ADDC0008C1DC000810B50446FFF75EFE9C
:101DB000204635215522FEF75BFD2046BDE8104048
:101DC000FFF74ABE08B53521FEF724FDB0F15503F3
:101DD0005842584108BD10B50446FFF747FE20465B
:101DE00035210022FEF744FD2046BDE81040FFF7F4
:101DF00033BE000073B505460E46362421462846FC
:101E0000FEF708FD00AB234401343E2C03F8360CEA
:101E1000F4D10821684601F038FF3F2104462846E6
:101E2000FEF7F8FC84420CD100231DF80320F25485
:101E30000133082BF9D10448044903F03DFA01208D
:101E400000E0002002B070BDA8140020F1DC000802
:101E500010B540210446FEF7DDFC55280CD0204685
:101E6000FFF704FE204640215522FEF701FD2046E3
:101E7000BDE81040FFF7F0BD10BD10B5402104468D
:101E8000FEF7C8FC60B12046FFF7F0FD2046402178
:101E90000022FEF7EDFC2046BDE81040FFF7DCBD58
:101EA00010BD0000F7B50F460446FFF7DFFD3846CA
:101EB000082101F0EAFE362506467B192946204610
:101EC00013F8362C0135FEF7D3FC3E2DF5D1204614
:101ED0003F213246FEF7CCFC362529462046FEF748
:101EE00099FC00AB2B4401353E2D03F8360CF4D1A0
:101EF0006846082101F0C9FE864207D02046FFF758
:101F0000BCFF2046FFF7A8FD002007E00449054874
:101F100003F0D2F92046FFF79BFF012003B0F0BD8C
:101F200006DD0008A814002008B54021FEF772FC69
:101F3000B0F155035842584108BD70B504460E46ED
:101F40001546FFF793FD204632462221FEF790FC0E
:101F500020462A462321FEF78BFC2046BDE8704030
:101F6000FFF77ABDFEF756BCFEF754BC70B50446C9
:101F70000E461546FFF77AFD204632462421FEF72D
:101F800077FC20462A462521FEF772FC2046BDE854
:101F90007040FFF761BDF8B504460E46FFF766FDD9
:101FA000262573192946204613F8262C0135FEF7FD
:101FB0005FFC2B2DF5D10521304601F066FE07466A
:101FC000294620463A46FEF753FC26252046294658
:101FD000FEF720FC731913F8263C834214D1013517
:101FE0002B2DF3D120462946FEF714FCB84220469B
:101FF00008D12C215522FEF73BFC2046FFF72CFD93
:102000000120F8BDFFF728FD0020F8BD70B5064699
:102010000D46262421463046FEF7FCFB2B190134E1
:102020002B2C03F8260CF5D170BD38B50446FFF70C
:102030001DFD2625002220462946FEF719FC2046D4
:102040002946FEF7E7FB024620B12046FFF704FDD4
:10205000002038BD01352B2DECD120462C21FEF778
:1020600007FC2046FFF7F8FC012038BD37B502AD6C
:1020700004468DF80710FFF7F9FC15F8012D2046EE
:102080002D21FEF7F5FB0121284601F0FEFD2E2152
:1020900002462046FEF7ECFB20462D21FEF7BAFB58
:1020A0009DF807308342204608D12F215522FEF7A4
:1020B000DFFB2046FFF7D0FC012002E0FFF7CCFC5D
:1020C000002003B030BD2D21FEF7A4BB10B504469F
:1020D000FFF7CCFC20462D210022FEF7C9FB20464D
:1020E000FFF7BAFC10BD00004A1F4AF6BB039A4234
:1020F00070B504460D4628D83221FEF78BFB3321FC
:1021000006462046FEF786FB40EA0620A84204D198
:102110000F49104803F0D0F815E02046FFF7A6FC61
:1021200020463221C5F30722FEF7A2FB20463321C9
:10213000EAB2FEF79DFB204634215522FEF798FBBC
:102140002046FFF789FC012070BD002070BD00BF54
:102150001BDD0008A814002038B532210546FEF723
:1021600059FB332104462846FEF754FB40EA04207D
:1021700038BD08B53421FEF74DFBB0F15503584288
:10218000584108BD08B51620002103F06FFB172049
:10219000002103F06BFB1620012103F027FABDE8B4
:1021A00008401720012103F021BA1720002103F075
:1021B0005DBB1720042103F059BB08B5FFF7F5FFFD
:1021C0001720012103F012FA0121162003F00EFA64
:1021D000052003F077FA0021172003F007FA062004
:1021E00003F070FABDE808401620002103F0FEB9A4
:1021F00008B5FFF7DAFF1620002103F0F7F91720E2
:10220000002103F0F3F90121162003F0EFF9062075
:1022100003F058FA1720012103F0E8F9BDE808405F
:10222000062003F04FBA10B500210446162003F033
:10223000DDF92046FFF7B9FF0021172003F0D6F99A
:10224000022003F03FFA0121162003F0CFF9052008
:1022500003F038FABDE810401620002103F0C6B99B
:1022600010B500210446162003F0C0F92046FFF700
:102270009CFF0121172003F0B9F9022003F022FA94
:102280000121162003F0B2F9052003F01BFABDE886
:1022900010401620002103F0A9B970B50646FFF7DB
:1022A00088FF0121172003F0A1F9012003F00AFAA9
:1022B0001620012103F09AF9012003F003FAFB250F
:1022C000172003F07DF9044640B1013D15F0FF05EC
:1022D000F6D13046FFF78CFF012070BD1620214655
:1022E00003F084F9204670BD38B50C46FFF75DFF5A
:1022F0001620002103F07AF9082524F07F0303F06B
:10230000FF01172003B1012103F070F9012116200C
:1023100003F06CF9022003F0D5F91620002103F038
:1023200065F9013D0220640003F0CCF915F0FF05CA
:10233000E4B2E2D138BDF8B505460F46FFF739FFE4
:10234000082600240021162003F050F9022003F093
:10235000B9F91620012103F049F964001720E4B20D
:1023600003F02EF908B10134E4B20120013E03F07C
:10237000A9F916F0FF06E5D1284617B9FFF770FF57
:1023800001E0FFF750FF2046F8BD08B5032001F03B
:10239000A1FDBDE8084002F027B9000070B55E4815
:1023A0000D46097800F093FD697806465A4800F01A
:1023B0008EFD06EB8606594C06EB860600EB860082
:1023C000E080A978544800F082FD6071E9785248B5
:1023D00000F07DFD207129794F4800F078FD697982
:1023E000A0704D4800F073FDA97960704A4800F074
:1023F0006EFD4B4920704B4802F043FFE1880A22F2
:10240000484802F0CEFF4849464802F03AFF617959
:102410000A22444802F0E6FF4449424802F031FFF4
:1024200021790A223F4802F0DDFF41493D4802F090
:1024300028FFA1780A223B4802F0D4FF3D493948E1
:1024400002F01FFF61780A22364802F0CBFF3A49BA
:10245000344802F016FF0A222178324802F0C2FF07
:1024600002F02EF8642003F01FF92046FEF772F9FF
:102470000146324801F04CFC642003F015F902F0EB
:1024800025F82E4801F047FC01462046FEF7D6F815
:10249000E1886423B1FBF3F1C9B21F4800F00EFDDF
:1024A0002870E2884FF47A73B2FBF3F103FB112139
:1024B0001948C9B200F002FD68706179164800F051
:1024C000FDFCA8702179144800F0F8FCA178E870B0
:1024D000114800F0F3FC617828710F4800F0EEFC21
:1024E000217868710C4800F0E9FC0024A871295D8E
:1024F00010220C4802F06DFF01340A48104902F026
:10250000C0FE072CF3D1074802F0C0FEBDE87040C2
:1025100004480C4902F0D0BE891400203814002071
:102520003ADD0008A814002041DD000849DD00085C
:102530004FDD000856DD000860DD00084214002071
:1025400066E100086ADD000870B51C480D4601F020
:10255000E2FB1B4C01462046FEF770F8E188194E5D
:102560006423B1FBF3F1C9B2304600F0A7FC287038
:10257000E2884FF47A73B2FBF3F103FB112130468A
:10258000C9B200F09BFC68706179304600F096FC9F
:10259000A8702179304600F091FCA178E8703046AF
:1025A00000F08CFC61782871304600F087FC2178BF
:1025B0006871304600F082FCA87170BD42140020A2
:1025C000381400208914002070B5524886B0FEF7F8
:1025D000C1F8044601F074FF0A2003F065F82146B3
:1025E0004D4801F095FB4C4801F095FB05464B48E2
:1025F000FFF7BFFD4A4E002859D04848FFF7ACFD11
:102600004AF6B103A0F10F029A42044619D945498E
:10261000684603F0A0F8694603A803F0BDF8B421AA
:1026200003A803F018F9404903F0F9F801463F48C0
:1026300002F038FE03A803F04CF8684603F049F8AE
:10264000B4243378012B0BD1B4F5966F03D925440C
:102650006846374915E005F5966503A8354944E015
:10266000022B0BD1B4F5166F03D9254468463249C5
:1026700007E005F5166503A8304936E030492544E2
:10268000684603F068F8694603A803F085F8214618
:1026900003A803F0E0F8244903F0C1F801462348F9
:1026A00002F000FE03A803F014F8684624E0337833
:1026B000012B08D123491D4802F0FEFD05F5966562
:1026C00003A8214911E0022B08D11E49174802F046
:1026D000F3FD05F5166503A81C4906E019491348E2
:1026E00002F0EAFD1A490A3503A803F034F80F484E
:1026F00003A902F0D7FD03A802F0EBFF15492A4613
:10270000054801F00AFB0A2002F0CEFF01F0DEFED0
:1027100006B070BD3814002042140020331400208D
:10272000401400208DDD000893DE0008A81400206E
:1027300001DE00084ADE000895DE0008E7DE00083A
:102740003BDF000887DF0008B2DF0008FDDF00087C
:1027500051E000088B23000830B5154885B0FDF71F
:10276000F9FF144C054601F0ABFE0A2002F09CFF75
:102770002946204601F0CCFA204601F0CCFA0E4959
:10278000054601A802F0E7FF01A90C4802F08AFD06
:1027900001A802F09EFF0A4905F56162204601F09A
:1027A000BCFA0A2002F080FF01F090FE05B030BDB7
:1027B00038140020421400209DE00008A8140020D6
:1027C0008B2300080148112101F099BA421400201E
:1027D00070470120704701207047000010B5FF23AB
:1027E00001441A46884208D010F8014B5440044A6C
:1027F000125D5A40034B1B5DF4E743EA022010BD13
:10280000090000200B01002070B5094D094C064657
:1028100022782978084801F025F92878012102F06A
:10282000E5FE2078012102F0E1FE304670BD00BFD8
:10283000090100200A0100207814002010B5064C80
:10284000204601F0A2F9204601F0ABF9D0F10100D9
:1028500038BF002010BD00BF7814002010B54A21F9
:1028600004460548FFF7EAFF28B1236820461B68A5
:1028700001219847012010BD8814002070B5094C33
:10288000154620461E4601F080F92946204601F0F3
:102890008DF92046314601F089F92046BDE87040A7
:1028A00001F07FB978140020F8B5134814461E468D
:1028B0000F469DF8185001F068F921460E4801F0C6
:1028C00075F90D4801F06DF90B4CA5B12A4620466B
:1028D000394601F06FF90022237A551C33B10648BE
:1028E000D7B201F075F92A46F055F5E70248BDE880
:1028F000F84001F056B9F8BD78140020F0B51C4638
:1029000085B0012300930DF10F03154607460E46CF
:10291000FFF7CAFF9DF80F309DF8282023EA040333
:1029200014402343384631462A468DF80F30FFF7CE
:10293000A5FF05B0F0BD000013B5002471B1012260
:1029400013460B484A210094FFF7D8FF4A21009410
:10295000074802224023FFF7D1FF8021009104485D
:102960004A2102228023FFF7C9FF02B010BD00BF39
:102970008814002008B51E220F481F2101F072F8AC
:1029800038210D4801F001F906210B4801F00EF93C
:10299000094801F006F94FF4FA7002F085FE074885
:1029A000FFF75CFF10B10648064901E004480649FC
:1029B000BDE8084002F080BC9814002044140020B8
:1029C000A814002030E1000849E1000800000000E0
:1029D000F0B5334C85B00D461646FFF7CBFF3921D5
:1029E0000122204601F0E6F8012002F05DFE277A80
:1029F0001FB1204601F0ECF8074638210122284893
:102A000001F0D8F8012002F04FFE207A10B12448DE
:102A100001F0DEF840EA072004F0C6FA1EA3D3E96D
:102A2000002304F037FB04F0F7FD1E4930601E4818
:102A300002F027FC31680A221B4802F0E6FC022360
:102A400000931A4803AB4A210322FFF72DFF9DF89C
:102A50000D209DF80C3002F00F0242EA03122D21E6
:102A6000D2B24A431B0902FA03F34FF47A72B3FB62
:102A7000F2F32B600E490C4802F003FC29680A228D
:102A8000094802F0CCFC0B49074802F015FC05B0E0
:102A9000F0BD00BFAFF300800AD7A3703D0A773FB7
:102AA0009814002062E10008A81400208814002077
:102AB00068E100087FE1000808B50348FFF7A4FEBD
:102AC000024A034B1A6008BD8814002000E1000888
:102AD000441400202DE9F0411E463D4B86B0186895
:102AE0008846596801AC03C4174600210A2203A88E
:102AF00005F0DCFF9DF8303006AC04F8143D2046AC
:102B00000621FFF76BFE030A8DF80B0031488DF8A4
:102B10000A30036821469B6808229847642002F027
:102B2000C3FD00242B4802F07FFA002804F10105C0
:102B300009DD284802F024FAE4B206AB1C4404F88C
:102B40000C0C2C46EEE79DF80C509DF814405DB936
:102B50000DF10D000721FFF741FE9DF8153043EA06
:102B6000042484420BD10EE003A80721FFF736FEB0
:102B70009DF8133044EA032484420FD000254FF619
:102B8000FF7415481CE09DF811309DF810009DF869
:102B9000124043EA00209DF8133009E09DF8103000
:102BA0009DF80F009DF8114043EA00209DF8123077
:102BB00043EA042404F056FE084904F05FFFE50BE5
:102BC000C8F800003C60357006B0BDE8F08100BF79
:102BD00018E10008D814002000FF7F470000C84219
:102BE00070B5274C86B020680E46616801AB03C300
:102BF00006AC15460021092203A805F057FF04F88A
:102C0000145D20460621FFF7E9FD030A8DF80B004D
:102C10001C488DF80A30036821469B6808229847B3
:102C2000642002F041FD0024164802F0FDF900285E
:102C30000DDD144802F0A4F9651CEDB206AB1C448E
:102C4000082D04F80C0C34BF2C460024ECE703A834
:102C50000521FFF7C3FD9DF811209DF8123043EACE
:102C60000223834205BF9DF80F209DF810304FF6D8
:102C7000FF7343EA02230A225343336006B070BD58
:102C800020E10008D8140020F0B516462A4A87B083
:102C900010680F46516801AC1D4603C4092206ACFA
:102CA000002103A805F002FF04F8145D2046062168
:102CB000FFF794FD030A8DF80B0020488DF80A30C9
:102CC000036821469B6808229847642002F0ECFCC8
:102CD00000241A4802F0A8F900280DDD174802F078
:102CE0004FF9651CEDB206AB1C44092D04F80C0C21
:102CF00034BF2C460024ECE703A80721FFF76EFD44
:102D00009DF813209DF8143043EA022383420CD12E
:102D10009DF812309DF811009DF80F2043EA002025
:102D20009DF8103043EA022302E04FF6FF73184685
:102D30003860336007B0F0BD28E10008D8140020E7
:102D400073B50121514D082002F050FC642002F0BF
:102D5000ABFC284600F0F2FD4D4C012620606420BB
:102D600002F0A2FC284600F0FBFD4A4DA060642062
:102D700002F09AFC04F1140304F1180104F11002AA
:102D800000962846FFF7A6FE642002F08DFC04F1B1
:102D9000280128460222FFF723FF642002F084FC6A
:102DA000334604F11C0104F120022846FFF76CFFB2
:102DB000642002F079FC04F1240204F10C0128469D
:102DC000FFF706FE344D642002F06EFC082000215F
:102DD00002F00CFC2846314902F053FA206804F056
:102DE00005F9022602460B460096284602F0CCFB67
:102DF00028462B4902F045FAA06804F0F7F800963F
:102E000002460B46284602F0BFFB2846254902F041
:102E100038FA23696421B3FBF1F10A22284602F053
:102E2000F4FA2149284602F02CFAA06A04F01AFDAF
:102E30001E4904F023FE04F0D9F8009602460B4622
:102E4000284602F0A1FB2846194902F01AFAA069A7
:102E500004F0CCF800960B460246284602F094FB9C
:102E60002846144902F00DFAE1690A22284602F0C8
:102E7000CCFA2846104902F004FA216A28460A22B0
:102E800002B0BDE8704002F0C0BA00BF8C14002050
:102E90004C14002048140020A81400208AE10008E7
:102EA000A9E1000884E1000898E100080000C84298
:102EB000A3E10008B4E10008C1E100080A22B1FB67
:102EC000F2F302FB131202EB0310C0B2704701F0E1
:102ED0000F03090901EB810103EB4100C0B2704708
:102EE00037B50C460C480DF10701FEF797FE9DF82B
:102EF00007304FF47A705843084902F098FB9DF868
:102F00000730054664205843054902F090FB2844E9
:102F1000206003B030BD00BF3714002080841E0045
:102F2000400D030070B50E4615460024E3B2AB42D7
:102F3000074809D2315D102202F04BFA04480549D6
:102F400002F09FF90134F1E7BDE8704002F09EB94C
:102F5000A814002066E1000830B595B0402205466F
:102F6000002104A805F0A2FD002414A941F8504D49
:102F700028466946FFF7B4FF009802F0A3FBFE2342
:102F80008DF81030E0238DF8113011238DF81230B8
:102F900024238DF8133001238DF81530444B8DF820
:102FA00014401B7803B1552342488DF81630FFF7C3
:102FB0008AF801AC8DF8170021463E48FFF726F845
:102FC000002304AA1A44E15C0133052B1172F8D1E5
:102FD00039482146FEF7CAFD002304AA1A44E15CE1
:102FE0000133092B5173F8D10024012322213348E6
:102FF0008DF826308DF827408DF828408DF829402F
:103000008DF82A408DF82B408DF82C408DF82D40FE
:103010008DF82E408DF82F40FEF7A6FF23218DF866
:1030200030002648FEF7A0FF24218DF83100234808
:10303000FEF79AFF25218DF832002048FEF794FF15
:1030400024218DF8330005A88DF834408DF83540E3
:103050008DF836408DF8374000F017FE8DF83800B7
:10306000E30704AB234404F1010454BF0D220A22F8
:10307000062C83F82920F3D11149124802F01CF9DB
:1030800004A928462F22FFF74DFF0F48FEF702F84C
:103090000E4804A903682F229B6898474FF4FA70E2
:1030A00002F002FB0848FEF705F815B030BD00BF7E
:1030B0002014002034140020371400203514002080
:1030C000CEE10008A814002030140020C014002015
:1030D00030B587B014220446002101A805F0E6FCB3
:1030E000002506A941F8185D20466946FFF7F8FE5D
:1030F000009802F0E7FAFE238DF80430E0238DF803
:10310000053013238DF8063005238DF80730012391
:103110008DF809301E4B8DF808501B7803B15523EC
:103120001C488DF80A30FEF7CEFF01238DF80B0006
:10313000052102A88DF80C3000F0A7FD00238DF8C2
:103140000D00DA0701AA1A4403F1010354BF0D214F
:103150000A21062B9172F4D10F49104802F0ACF805
:1031600001A920461022FFF7DDFE0D48FDF792FF72
:103170000C4801A9036810229B6898474FF4FA7025
:1031800002F092FA0648FDF795FF07B030BD00BF88
:103190002014002034140020EAE10008A8140020C4
:1031A00030140020C014002030B58DB01E2205461A
:1031B000002104A805F07AFC00240CA941F8244D54
:1031C0002846ADF80840FFF78BFE039802F07AFA24
:1031D000344B0094344802A90122FEF7C3F9FE23C0
:1031E0008DF81030E0238DF8113014238DF8123053
:1031F00012238DF8133001238DF815302B4B8DF8E9
:1032000014401B7803B1552329488DF81630FEF77A
:103210005AFF01238DF81830264B00241B788DF8B7
:1032200017009DF8081024488DF819308DF81A40C1
:103230008DF81B40FFF74BFE9DF809108DF81C0020
:103240001D48FFF744FE12218DF81D0005A800F06F
:103250001CFD23468DF81E00DA0704AA1A4403F168
:10326000010354BF0D210A21062BD173F4D1134958
:10327000134802F021F804A928461522FFF752FE50
:103280001048FDF707FF104804A9036815229B6842
:1032900098474FF4FA7002F007FA0A48FDF70AFF60
:1032A0000DB030BD10E200083114002020140020C1
:1032B000341400208B140020891400201AE2000826
:1032C000A814002030140020C0140020F0B589B0EC
:1032D00005460F4616460021192201A805F0E6FB17
:1032E000002408A941F8204D28466946FFF7F8FD5B
:1032F000009802F0E7F9FE238DF80430E0238DF802
:10330000053015238DF806300E238DF80730012384
:103310008DF809302A4B8DF808401B7803B15523EE
:1033200028488DF80A30FEF7CEFE00248DF80B00F9
:10333000012302A80E218DF80C308DF80D708DF848
:103340000E408DF80F408DF810408DF811408DF82B
:1033500012408DF813408DF814408DF8154000F0A0
:1033600094FC8DF81600E30701AB234404F101043B
:1033700054BF0D220A22062CDA74F4D112491348E4
:1033800001F09AFF284601A91922FFF7CBFD10484A
:10339000FDF780FE0024E3B2B3420BD20D4801A931
:1033A000036819229B6898474FF4FA7002F07CF981
:1033B0000134F0E70648FDF77DFE09B0F0BD00BF1F
:1033C000201400203414002034E20008A814002047
:1033D00030140020C0140020F0B50024ABB021460A
:1033E0000646142205A8019405F060FB80222146C0
:1033F0000AA805F05BFB2AA941F8A04D3046FFF76B
:103400006FFD029802F05EF9A448FFF799FCFE23D5
:103410008DF82830D0238DF8293001253023A0489D
:103420008DF82B308DF82C408DF82A508DF82D50CA
:10343000FDF746FE9B4C030A27688DF82F009A493A
:1034400038468DF82E3004F021FC28B1FF238DF88A
:1034500030308DF831301AE03846002104F0F8FBA6
:1034600018B107F10047276000E00546022301A8D4
:1034700021680422FDF75CFA9DF804308DF83030A5
:103480009DF805308DF831300DB1F22300E0E223D4
:10349000A5688DF8323028460023019304F000FC23
:1034A0000138632803D9FF238DF833300BE0022362
:1034B00001A829460422FDF73BFA9DF804308DF857
:1034C00033309DF805308DF834300021E22314228A
:1034D00005A88DF83530019105F0E8FAE268734BE4
:1034E0009A4207D9FF238DF836308DF837308DF8A2
:1034F000383019E06E4905A805F040FD05A805F033
:10350000C1FD05A9024601A8FDF7DAF99DF80430CE
:103510008DF836309DF805308DF837309DF806303F
:103520008DF838309DF807308DF83930E0238DF86C
:103530003A30A36A0A200025B3FBF0F0019504F0AD
:1035400091F92B460146042201A8FDF7F1F99DF8F7
:103550000430606A8DF83D309DF8053064288DF8A0
:103560003E304FF0E1038DF83B508DF83C508DF824
:103570003F30019503D9FF238DF840300DE004F072
:1035800071F92B460146042201A8FDF7D1F99DF8F7
:1035900004308DF840309DF80530E02220698DF828
:1035A00042208DF845208DF848204FF6FE728DF8A8
:1035B000413090424FF0FF038DF843308DF8443096
:1035C0008DF846308DF8473002D98DF8493016E035
:1035D000344B1B7D012B08BFC0F5803004F042F94D
:1035E000344904F04BFA02230146042201A8FDF7F6
:1035F0009FF99DF804308DF849309DF805308DF81D
:103600004A30237DA569012B0CBFF223E2238DF8FC
:103610004B3028460023019304F042FB642803DD6D
:10362000FF238DF84C300BE0022301A82946042229
:10363000FDF77EF99DF804308DF84C309DF805308B
:103640008DF84D30206AE2238DF84E304FF6FE7330
:1036500000259842019503D9FF238DF84F300DE0E6
:1036600004F000F92B460146042201A8FDF760F999
:103670009DF804308DF84F309DF805308DF85030AE
:10368000E069E0238DF851304FF6FE730025984233
:10369000019511D9FF238DF852301BE0481400200A
:1036A000301400204C14002000001643400D03008D
:1036B0004CE200080000C84204F0D4F82B46014652
:1036C000042201A8FDF734F99DF804308DF852303A
:1036D0009DF8053003AC8DF853302148E023214696
:1036E0008DF85430FEF730FF00230AAA1A44E15C3B
:1036F0000133072B82F82D10F7D10BA8302100F0F1
:10370000C4FA00238DF85C00DA070AAA1A4403F110
:10371000010354BF0D210A21062B82F83510F3D185
:103720001049114801F0C8FD10490F4801F0C4FDCF
:103730000AA930463B22FFF7F5FB0D48FDF7AAFC2E
:103740000C480AA903683B229B6898474FF4FA701B
:1037500001F0AAFF0648FDF7ADFC2BB0F0BD00BF9D
:103760004114002052E20008A81400206EE2000874
:1037700030140020C01400202DE9F84300240F4627
:103780009046994625464C4513DA5FFA88F60121A2
:10379000304601F02BFF0A2001F086FFF8B201F05D
:1037A0000FFF002100EB4505304601F01FFF0134FB
:1037B000E9E72846BDE8F88370B5D4B21D46EDB2FE
:1037C0000E462046002102F051F82846002102F062
:1037D0004DF82046012101F009FF2846012101F0A2
:1037E00005FF2046002101F001FF2846002101F0DD
:1037F000FDFE2846012101F0F9FE2046012101F0DD
:10380000F5FE2846002101F0F1FEF3B20122204628
:10381000294601F017FF2846012101F0E7FE204666
:10382000022102F023F8204601F0CAFE28460021BA
:1038300001F0DCFE2046BDE8704001F0C1BE38B5A5
:10384000CDB22846022102F011F864240A2001F0CA
:103850002BFF284601F0B4FE08B1013CF6D138BD7B
:103860002DE9F843CCB2154680460E46EFB220460D
:10387000022101F0FBFF3846002101F0F7FF2A4644
:10388000082331464046FFF777FF00214FEA002921
:10389000204601F0EBFF2046012101F0A7FE204663
:1038A000002101F0A3FE3846012101F09FFE3846B9
:1038B000002101F09BFE2046022101F0D7FF404687
:1038C00031462A460823FFF757FF49EA0000BDE8C2
:1038D000F88338B51446CDB2E4B22846002101F091
:1038E000C5FF2046002101F0C1FF2846012101F05B
:1038F0007DFE2046012101F079FE20460021BDE831
:10390000384001F073BE38B590E80C00044603213E
:10391000FFF752FF20462168FFF791FF94E8060069
:103920002046FFF79DFF94E8060005462046FFF776
:10393000D0FF284603F09AFF38BD000008B5FFF716
:10394000E2FF04F0ADF903F091FF034903F0E2FF59
:10395000024903F0D5FE08BD0AD7233C00002042EF
:10396000F8B590E80C0004460521FFF725FF204636
:103970002168FFF764FF94E806002046FFF770FF18
:1039800094E8060005462046FFF7A3FF284603F00B
:103990006DFF1E49064603F0BDFF4FF0814103F065
:1039A000AFFE1B490546304603F0B4FF314603F035
:1039B000B1FF0146284603F0A5FE07462046FFF763
:1039C000BDFF03F013FB0022124B03F0AFF90446D6
:1039D0000D463046104903F09DFF104903F092FE5A
:1039E00003F004FB02460B462046294603F052FB37
:1039F000044638460D4603F0F9FA02460B462046C7
:103A0000294603F095F903F027FEF8BD54E3253D60
:103A1000A2E73BB600003940ACC5A7380AD7233C23
:103A2000024B1D211C2283E8060070478C140020E5
:103A30000A4B1A680A4B9B6800BF00BF0749096818
:103A40008A42F5D1C3F58C33482103F5A073B3FB4B
:103A5000F1F34FF47A7000FB023070478C150020B0
:103A600010E000E010B5044680E80600D0B2002166
:103A700001F0FCFE2078002101F0F8FE00232079FF
:103A8000E360012101F0B2FD20780121BDE8104082
:103A900001F0ACBD38B5C36804460D4623B1002122
:103AA000C160007801F0E2FE20782946BDE8384088
:103AB00001F09CBD10B500210446FFF7EBFF642028
:103AC00001F000FE2079002101F090FDBDE81040DA
:103AD000642001F0F7BD10B500210446007901F023
:103AE00085FD642001F0EEFD20460021FFF7D2FFA6
:103AF000642001F0E7FD2079012101F077FD6420C9
:103B000001F0E0FD20460121FFF7C4FFBDE81040B1
:103B1000642001F0D7BDF8B504460E460825F70924
:103B20002079002101F062FD20463946FFF7B2FFFF
:103B30000121207901F05AFD642001F0C3FD2046E7
:103B40003946FFF7A7FF7600013DF6B2E7D12946D7
:103B5000207901F04BFD2078022101F087FE02233D
:103B6000E3602079012101F041FDFFF761FF054687
:103B7000207801F025FD30B1FFF75AFF401B642883
:103B8000F6D90020F8BD0120F8BD38B50D46044631
:103B9000FFF790FF6900204601F0FE01FFF7BBFF31
:103BA00038BD08B5FFF797FF002008BD08B5FFF73F
:103BB000B2FF08BD70B50D466D0004461646FFF70E
:103BC00079FF691CA6602046C9B2FFF7A4FF70BD4B
:103BD00070B586680446002E55D00078022101F0A9
:103BE00045FE0223E360082500262079002101F02C
:103BF000FDFC0121207901F0F9FC642001F062FD57
:103C0000207801F0DDFC013D00EB460000F0FF06EE
:103C1000EBD1A3686068013B002BA360C0B22946CA
:103C200017DD01F0E3FC642001F04CFD294620463D
:103C3000FFF730FF642001F045FD2079012101F0FC
:103C4000D5FC642001F03EFD2079294601F0CEFC30
:103C500019E001F0CBFC642001F034FD0121204685
:103C6000FFF718FF642001F02DFD0121207901F0FC
:103C7000BDFC642001F026FD2079294601F0B6FC48
:103C80002046FFF728FF304670BD002330B50546BB
:103C900018468B420FDAEA5C5040082210F0010F00
:103CA0004FEA60041ABF84F0E000C0B2E0B2013A0B
:103CB000F4D10133EDE730BD122938B5054614467D
:103CC00008460BD0132910D0112916D100F07CF82A
:103CD0000CB120460FE047F6FF700CE000F074F8DE
:103CE000002CF6D149F63F4005E000F06DF8002CBD
:103CF000EFD14FF2234000F06BF9284638BD13B5E1
:103D00000022044601A8FFF7D7FF204602B010BDED
:103D1000084600F043B900F02FB910B510460C4624
:103D200000F070F921460320BDE8104000F0A2B871
:103D3000054B1B681B685B0103F1844394331A68CD
:103D4000002AFCD0704700BF0C020020054B1B6806
:103D50001B685B0103F184438C331A68002AFCD092
:103D6000704700BF0C02002008B5FFF7E1FF054BCC
:103D700000221B681B685B0103F18443C3F88C209D
:103D800008BD00BF0C02002008B5FFF7D1FF054BAE
:103D900001221B681B685B0103F18443C3F8902078
:103DA00008BD00BF0C02002008B5FFF7C1FF054B9E
:103DB00000221B681B685B0103F18443C3F8902059
:103DC00008BD00BF0C02002010B5044600F06BFBDC
:103DD00000F076FB204A112C136A23F4407313621F
:103DE00013460BD005D8C4B1102C2AD1002313627E
:103DF00027E0122C11D0132C1AD022E0174A0021F0
:103E00001160012142F8081C154A126812F0FF0FD8
:103E1000FAD01A6A42F4807212E0124A012111604B
:103E2000114A1268002AFBD01A6A42F4007207E0B5
:103E30000E4A126812F0FF0FFAD01A6A42F440726A
:103E40001A620B4B01221A60FFF78EFFFFF77EFF0D
:103E5000BDE81040FFF76CBF00100240080442426A
:103E600004044242800442428404424244004242EA
:103E70003C04424238B5144D04462B6803EB8003E2
:103E80005960FFF755FF032C09D1104A0123136035
:103E9000C2F800310E4B4FF400725A6038BD2B68E7
:103EA00001221B68944204EBC3034FEA830303F12E
:103EB00084431A6003D002D3022C00D038BD044BD7
:103EC00008221A6038BD00BF0C0200204480204246
:103ED00000E100E010B50446FFF72AFF032C0B4B6E
:103EE00005D10B4900220A60C1F8002108E01A68D8
:103EF0000021126804EBC202920002F184421160B8
:103F00001B6803EB84040023636010BD0C020020D7
:103F100044802042F8B5104B1E6835682B686F68E6
:103F20001F4017F0010403D074680CB1A0470124AE
:103F3000BA0704D5B36813B1984744F002047B076D
:103F400004D5F36813B1984744F004046B6823EA7E
:103F500004046C60F8BD00BF0C02002008B5044BDF
:103F60001B681B691BB19847024B01221A6008BDF0
:103F70000C020020C482204208B5FFF7F5FEFFF7CF
:103F8000E5FEFFF7D5FE044B1B681B689869DB69EB
:103F90009BB243EA004008BD0C02002010B5044665
:103FA000FFF7E2FEFFF7D2FEFFF7C2FEFFF7ECFEDF
:103FB000064B220C1B68A4B21B689A61DC61FFF7F8
:103FC000F3FEBDE81040FFF7B3BE00BF0C020020B7
:103FD00010B50446FFF7C8FEFFF7B8FEFFF7A8FECE
:103FE000FFF7D2FE064B220C1B68A4B21B689A6036
:103FF000DC60FFF7D9FEBDE81040FFF799BE00BFB7
:104000000C02002010B50446FFF7AEFEFFF79EFE3F
:10401000FFF78EFEFFF7B8FE064B220C1B68A4B21A
:104020001B681A625C62FFF7BFFEBDE81040FFF735
:104030007FBE00BF0C020020704700000B4B10B584
:10404000196809220A230A4801F002F8094B0222E2
:1040500019680948032300F0FBFFBDE81040074B37
:10406000074819681A221B2300F0F2BF3003002012
:10407000A814002034030020C014002038030020BE
:10408000D814002010B5044600F0F2F9034B204686
:104090001978BDE8104000F077B900BF2802002071
:1040A000F8B50446056800F0D9FB226800235101E9
:1040B00001F184410B60802129600121A9622B61FB
:1040C000EB606379696113B18B4203D02BE04FF44D
:1040D00000436B644FF6FF73D36200256E1CF7B28A
:1040E0002046394600F0C4FBD0B1236848F6FF7182
:1040F00003F1340242F8251018336D1017F0010F48
:1041000053F8252014BF6FF0FF016FF47F4101EADF
:10411000020214BF68214FF4D0410A4343F825201E
:10412000042E3546DAD1216801224B01490103F101
:10413000844301F18441C3F880220A60F8BD000085
:1041400038B5274B274C1A68022042F010021A603B
:1041500000F0C2F90025002000F08CFA65602368A9
:10416000182023F40023236000F091FA102000F0BF
:104170008EFA00F043F8A560102000F07BFA1020C2
:1041800000F0A2FA0028FAD000F039F8164800F042
:10419000A7FA182000F06EFA182000F095FA00280F
:1041A000FAD0022000F056FA00214FF0006000F033
:1041B00003FA0E4800F00AFB00F038F80C4B1888A0
:1041C00000F044F90B4800F045F90B4800F032FBD1
:1041D00000F02EF800F02DF8FFF72EFF38BD00BFDD
:1041E00000200240001002402C0200203F19010074
:1041F0002A02002085400008A1400008704708B549
:104200000020014600F0BAFA01204FF4806100F06E
:10421000B5FA0021022000F0B1FA2D2000F0BEFA1C
:10422000BDE808400320002100F0A8BA00F05EB904
:10423000704700F09BB9000001498D4601490847CD
:10424000005000204942000808B5124B124A196874
:10425000914201D0002301E0104B07E01048D41830
:104260008442F9D2C858D0500433F7E70D4A93423C
:1042700003D2002243F8042BF8E704F067F800208B
:104280000146024600F0CCFF074B0BB104F04EF89C
:10429000FEE700BF54E8000800000020781300206B
:1042A00078130020981500202D83000808B50D4BC9
:1042B0001A680AB90C4A1A601B680C4AD21A824260
:1042C00004DB09494242591A914206DA04F028F8FF
:1042D0000C2303604FF0FF3008BD024A1844106001
:1042E000184608BDF0140020981500201825012854
:1042F000FEE70000000000000000000000000000D9
:10430000012007E0022005E0032003E0042001E093
:104310000520FFE70D4A0121116072B60C4A002109
:104320001160074902B4084902B486B005498E46B7
:10433000704700BFAFF30080AFF30080AFF30080A1
:1043400000000061F9FFFFFF094F000814ED00E0D5
:1043500010E000E0AFF30080AFF30080AFF3008027
:10436000FEE710B50446007900F0D6F92079BDE8E3
:10437000104000F0E9B903689A6822F4602242F420
:104380008012114399607047002370B51A461C468D
:10439000072B4FEA430503DCEE1801FA06F6344317
:1043A0001D4401FA05F501330A2B42EA0502EFD15B
:1043B0000368DC601A6170BD0368DA6A22F0F87283
:1043C000DA6259639A6842F480029A601A68920726
:1043D000FCD5D86C80B2704738B5124D2A68136886
:1043E0001C68A10706D5196821F0020119609368BD
:1043F00003B19847620708D52B681A681B691168D2
:1044000021F00401116003B19847E30708D52B6838
:104410001A68DB68116821F00101116003B1984747
:1044200038BD00BF58020020036801225B0103F180
:10443000844303F58673191F1A6018680028FCD19D
:1044400043F8042C0B68002BFCD170470146042074
:1044500000F094B9044B10B504461868A047034B0C
:104460001868A04710BD00BF580200205402002069
:1044700010B50446FFF775FF20464FF46021FFF7A3
:104480007AFF2368012103F1404308335A015B019D
:1044900002F1844203F18443116520461960BDE8AE
:1044A0001040FFF7C1BF08B5142000F035F9042013
:1044B00000F032F9BDE80840042000F045B90000E2
:1044C000014B01221A60704720000E42014B00226E
:1044D0001A60704720000E42034B1A6822F0070250
:1044E00010431860704700BF0020024008B507481D
:1044F00001F063FA064801F060FA064801F05DFA3F
:10450000BDE80840044801F058BA00BF5C02002032
:10451000640200206C0200207402002070B501F0DB
:104520000704A4000F25A5400368C80853F82060BD
:10453000092A26EA050514BF1646082606FA04F4D9
:10454000082A44EA050443F8204006D1012000FA75
:1045500001F1DA6822EA010106E0092A05D1012009
:1045600000FA01F1DA681143D96070BD08B5032083
:1045700000F0D2F8BDE80840032000F0E5B80000E4
:10458000024B4AF6AA221A60704700BF0030004072
:1045900000284FEA011105DA064B00F00F00C9B2FE
:1045A0001954704700F16040C9B200F5614080F8CD
:1045B0000013704714ED00E021F0604138B521F0A0
:1045C0007F01084B0843986000241D4660B20F210C
:1045D0000134FFF7DDFF2B2CF8D1F02385F82330D1
:1045E00038BD00BF00ED00E0044A054BD16801F47E
:1045F00040710B43D360BFF34F8FFEE700ED00E047
:104600000400FA05014B1860704700BFA0000E427D
:10461000074B1A6842F001021A601A6842F002025F
:104620001A60044B1A6942F004021A6130BF7047E5
:104630000070004000ED00E0024B1A6842EA800082
:104640001860704700700040014B13F8100070476D
:1046500030E50008064B5A6822F0030202435A6014
:1046600080005A6802F00C028242FAD1704700BF03
:1046700000100240030A0121C0B201FA00F003F168
:10468000804303F504331A68104318607047030A27
:104690000121C0B201FA00F003F1804303F50433B5
:1046A0001A6822EA000018607047030A0122C0B2AB
:1046B00002FA00F003F1804303F504331B6818424B
:1046C0000CBF002001207047030A0222C0B202FA88
:1046D00000F003F1804303F504331B681840704772
:1046E00038B54368044618201D68FFF7DEFF20B187
:1046F00006488121064A00F011FC064B21685A68E1
:104700000D4322F4741215435D6038BDC0E4000807
:1047100014E500080010024010B50446FFF794FFAE
:10472000074B53F82020074B03EB4404637803EB5B
:10473000C2039B0003F1844301221A6010BD00BF35
:104740007C02002030E5000810B50446FFF77CFF2E
:10475000084B53F82020084B03EB4404637803EB29
:10476000C2039B0003F1844301221A6000221A60F5
:1047700010BD00BF8802002030E5000810B5054BD1
:10478000054C5A6854F8200022EA0002114359608F
:1047900010BD00BF001002408CE5000810B50446B3
:1047A000FFF752FF074B53F82020074B03EB44045D
:1047B000637803EBC2039B0003F1844300221A6079
:1047C00010BD00BF9002002030E50008024B072218
:1047D00058601A60704700BF10E000E008B5044B55
:1047E0001A6801321A60034B1B6803B1984708BD71
:1047F0008C150020F414002011F0010F70B542EA6E
:1048000003030CBF0825002503FA05F5006801F134
:10481000FF3400F11800C4F3400450F8241014BF12
:104820006FF0FF066FF47F463140294340F82410B3
:1048300070BD000010B504460448A0470448A047D6
:104840000448A0470448A04710BD00BFE402002070
:104850000C0300209C020020C002002010B504467A
:104860000079FFF759FF2079BDE81040FFF76CBFD2
:1048700003791E2B10D9212B0ED0202B0ED9222BE1
:1048800001D0252B04D102298CBF002001207047C4
:104890004B1E584258417047012070470020704716
:1048A0008B1C40F823200368012203F140430C33A2
:1048B00001EBC3039B0003F184431A60427903793F
:1048C000FAB9B3F11A025342534107294BD8DFE832
:1048D00001F004090909090E0E13002B0CBF2C234B
:1048E000192337E0002B0CBF2E231B2332E0002BB3
:1048F0000CBF2D231A232DE0002B0CBF2B231823D4
:1049000028E01B3B0C2B1CD8DFE803F02123070910
:104910000B0D1B0F1113151719001E231AE032235C
:1049200018E0362316E0372314E0182312E0192389
:1049300010E01A230EE02B230CE02C230AE02D2399
:1049400008E0094840F2BF11084A00F0E7BA1C230A
:1049500000E01D235909012203F01F0302FA03F3AB
:10496000034A42F821307047A0E5000850DB0008F8
:1049700000E100E00368002203F140430C3301EB47
:10498000C3039B0003F1844302311A6040F82120E5
:1049900070470000F8B54E1EF3B2032B04460D46D7
:1049A000174604D92648DA21264A00F0B7FA637977
:1049B000022B43D0032F41D8DFE807F00212223543
:1049C00020462946FFF7D6FF236803F140432033F2
:1049D000DB0003EB8606B60006F18446002320E0E8
:1049E0002368002203F140430C3305EBC3039B0013
:1049F00003F184431A60204629466022082303E01D
:104A00002046294610220023FFF7F6FE236803F113
:104A100040432033DB0003EB8606B60006F18446F4
:104A200001233360F8BD23684FF2F1229A6103221B
:104A30009A605B0103F1844301221A60F8BD00BF54
:104A4000A0E50008F3E5000810B5074B1C68E16815
:104A500022690A40120606D55B6A23B1984723698A
:104A600023F08003236110BDE402002010B5074B42
:104A70001C68E16822690A40D20706D59B6823B109
:104A80009847236923F00103236110BDE40200204D
:104A9000F8B50C4F3D68EB682E691E4016F04004D7
:104AA00003D03C6A0CB1A0474024B30604D5FB698F
:104AB00013B1984744F020042B6923EA04042C61C5
:104AC000F8BD00BFE4020020F8B5134F3E68F3685C
:104AD00035691D4015F0100403D0BC690CB1A04726
:104AE0001024290704D57B6913B1984744F00804C2
:104AF0006A0704D53B6913B1984744F00404AB0737
:104B000004D5FB6813B1984744F00204336923EAE3
:104B100004043461F8BD00BFE4020020F8B51A4E69
:104B20003768FB683D691D4015F0400403D0346AC6
:104B30000CB1A0474024EB0604D5B36913B19847E4
:104B400044F01004280704D5736913B1984744F062
:104B50000804690704D5336913B1984744F0040485
:104B6000AA0704D5F36813B1984744F00204EB0791
:104B700004D5B36813B1984744F001043B6923EAB4
:104B800004043C61F8BD00BF0C030020F8B51A4EC8
:104B90003768FB683D691D4015F0400403D0346A56
:104BA0000CB1A0474024EB0604D5B36913B1984774
:104BB00044F01004280704D5736913B1984744F0F2
:104BC0000804690704D5336913B1984744F0040415
:104BD000AA0704D5F36813B1984744F00204EB0721
:104BE00004D5B36813B1984744F001043B6923EA44
:104BF00004043C61F8BD00BF9C020020F8B51A4EC9
:104C00003768FB683D691D4015F0400403D0346AE5
:104C10000CB1A0474024EB0604D5B36913B1984703
:104C200044F01004280704D5736913B1984744F081
:104C30000804690704D5336913B1984744F00404A4
:104C4000AA0704D5F36813B1984744F00204EB07B0
:104C500004D5B36813B1984744F001043B6923EAD3
:104C600004043C61F8BD00BFC002002081880268D6
:104C7000034689B2505C99881A8989B292B29142EE
:104C800017BF9A880022013292B2C0B29A80704750
:104C9000C28838B5838892B29BB201329A420446E8
:104CA0000D461AD0C288038992B29BB29A4202D1B1
:104CB00083889BB28BB14FF0FF30E288236892B2B9
:104CC0009D54E288238992B29BB29A4217BFE3882F
:104CD000002301339BB2E38038BD2046FFF7C6FFB7
:104CE000EBE770B51E460546084611460422059CB2
:104CF000FFF714FC9DF810100B223046FFF70EFC56
:104D00002B6804F00F01DA6804F0300422F4F0524A
:104D10001204120C42EA4122DA601A6922F440526B
:104D20001204120C42EA04241C6170BD38B504461A
:104D3000154611B900F096F8014619235943AD0004
:104D40006423B1FBF5F1B1FBF3F21201100903FB8F
:104D5000101109013231B1FBF3F303F00F032168A5
:104D60001A4392B28A6038BD38B5114DEB68980687
:104D700007D52B68990604D569680E48C9B2FFF7B4
:104D800087FFEB680A4C1A0611D523681B060ED55F
:104D900009488288C38892B29BB29A4203D0FFF737
:104DA00065FF606038BDE36823F08003E36038BDD1
:104DB0000038014004150020F814002038B5114DCA
:104DC000EB68980607D52B68990604D569680E48E4
:104DD000C9B2FFF75DFFEB680A4C1A0611D52368CC
:104DE0001B060ED509488288C38892B29BB29A42AC
:104DF00003D0FFF73BFF606038BDE36823F080031A
:104E0000E36038BD00440040101500202815002044
:104E100038B5114DEB68980607D52B68990604D56F
:104E200069680E48C9B2FFF733FFEB680A4C1A06EF
:104E300011D523681B060ED509488288C38892B213
:104E40009BB29A4203D0FFF711FF606038BDE36860
:104E500023F08003E36038BD004800401C150020AB
:104E60003415002008B590F89002FFF7EDFB20B153
:104E70000128034818BF002008BD024808BD00BF34
:104E800000A24A040051250213B504468DF807100C
:104E900020460DF10701012200F0EAFD0028F7D0BD
:104EA00002B010BD38B505464C1E14F8011F19B1EB
:104EB0002846FFF7E9FFF8E738BD000008B5114BB9
:104EC00001211C6803222046FFF728FB0023012153
:104ED0001A469342206834BF02254FF40035B2F5DC
:104EE000007F056103F1010303D0002A08BF0121FF
:104EF00001E04FF0FF31B3F5007F04BF52180023EB
:104F0000E7E700BFBCE4000808B5034B0BB1AFF303
:104F1000008062B6FFF7D2FF00000000F8B5144B26
:104F200006460D4617460BB3AFF300801149044601
:104F3000FFF7B8FF20463946FFF7B4FF20460E4979
:104F4000FFF7B0FF20463146FFF7ACFF20460B4984
:104F5000FFF7A8FF2046294600F0D8FD20460A2189
:104F6000FFF792FF20460D21FFF78EFFFFF7CCFFE2
:104F7000000000000FE6000825E6000865E10008D3
:104F800003695B68D9889A8889B292B2D8888A1AEC
:104F9000998880B289B2884203D2198989B20131D5
:104FA0000A4492B282B199881A6889B2505C998891
:104FB0001A8989B292B2914217BF9A8800220132AF
:104FC00092B2C0B29A8070474FF0FF3070470369C9
:104FD0005B689988DA8889B292B2914205D09A8842
:104FE0001B6892B2985CC0B270474FF0FF307047B8
:104FF00003699A689088D18880B289B28842F9D1D1
:105000001A6813685B06FCD5704713B504698DF800
:10501000071020460DF10701012200F029FD0028AC
:10502000F7D0012002B010BD03695B68D8889A8868
:1050300080B292B2D988801A9A8889B292B291428B
:1050400003D21B899BB20133184480B27047000021
:1050500030B5002545604FF47A758560024D0161D9
:1050600005600275437530BD58E6000803692DE9F7
:10507000F74FDB68044699420F4692462CD890F8C9
:105080001480174D4FEA081808EB050690F81590A4
:1050900070684FEA091909EB050B717B10B100220A
:1050A000FFF778FC206900F093FC337B9BF80C2021
:1050B00020698DE8080459F8051058F80530FFF705
:1050C00010FE206900213A46FFF730FE206903B048
:1050D000BDE8F04F00F0A6BC03B0BDE8F08F00BF04
:1050E0008CE200080022FFF7C1BF006900F0A4BCF9
:1050F000044B02791B789A4202D1034B1B6818605B
:10510000704700BF5015002054150020002310B533
:105110000446036072B6054B19311970044B1860D0
:105120000448FFF787FB62B6204610BD50150020EB
:1051300054150020F1500008036800221B685B0131
:1051400003F184431A607047036801221B685B0106
:1051500003F184431A607047036801391B6889B200
:105160009962704703681B68DA6A92B2914228BF5D
:1051700011465962704738B5054639B903680122AE
:105180001B689962DA62D86A80B238BD48244C4301
:105190004FF6FF71B4FBF1F1013189B204EB510418
:1051A000B4FBF1F4FFF7D8FF2B68A4B21B682046CC
:1051B000DC6238BD0068C9B2FFF7ECBB0368C9B256
:1051C0001B6801F18041D86A013980B234338242D0
:1051D00028BF024643F8212070470068C9B2FFF794
:1051E0005FBB000008B501210848FFF78FFF0221CF
:1051F0000748FFF78BFF03210648FFF787FFBDE84D
:10520000084005480421FFF781BF00BF401500207A
:1052100044150020481500204C150020FEF790BFD3
:1052200008B5FBF797F8FAF78BFFFCE770B5054672
:105230000E460024315D29B12A682846126890473D
:105240000134F7E7204670BDF8B505460C46164612
:105250008F18BC4206D02B6828461B6814F8011B27
:105260009847F6E73046F8BD10B502680B469468DB
:1052700009689A68A04710BD08B503681B6898477D
:1052800008BD08B503685B68984708BD38B50D21AF
:105290000546FFF7F1FF0A2104462846FFF7ECFF19
:1052A000204438BD38B50446FFF7DEFF05462046EA
:1052B000FFF7ECFF284438BD38B50446FFF7E1FF9F
:1052C00005462046FFF7E2FF284438BD2DE9F04FA0
:1052D00014461D4691B054EA050381469DF868B016
:1052E00004D13021FFF7C8FF01202EE04FF0000865
:1052F0005FFA8BF600272046294632463B4602F0ED
:10530000F5FC08F101080DF1000AC2440AF8012C6D
:10531000204629463B46324602F0E8FC04460D464C
:1053200054EA0503E4D1002408F1FF381DF8081001
:105330004846092994BF30313731C9B2FFF79CFF85
:105340000444B8F1000FEFD1204611B0BDE8F08F52
:105350002DE9F041069F064614461D462FB9036805
:10536000D1B21B689847BDE8F081002C75F10003AD
:1053700005DA2D21FFF780FF644265EB4505FFB29A
:105380000697304622462B46BDE8F041FFF79EBF08
:1053900007B5CB1700920A46FFF7DAFF03B05DF8B6
:1053A00004FB38B50446FFF7F3FF05462046FFF738
:1053B0006DFF284438BD70B5049921B90368D1B296
:1053C0001B68984770BDC9B20491BDE87040FFF7F3
:1053D0007DBF07B500230092CAB2FFF7ECFF03B010
:1053E0005DF804FB38B50446FFF7F3FF0546204699
:1053F000FFF74CFF284438BD07B5002300920A464A
:10540000FFF7D9FF03B05DF804FB38B50446FFF79A
:10541000F3FF05462046FFF739FF284438BD07B59E
:10542000002300920A46FFF7C6FF03B05DF804FBB5
:105430002DE9F74F19460646144610461D46002230
:10544000002302F0B7F89DF830704FF0010838B132
:105450002046294644A3D3E9002302F0A1F806E040
:105460002046294642A3D3E9002302F08FF800B971
:1054700080465FFA88F82046294600220023B8F1CA
:10548000000F0DD002F078F818B130462D21FFF74B
:10549000F3FE804638493046FFF7F3FE404460E0B3
:1054A00002F06AF838B130462D21FFF7E5FE05F12C
:1054B000004380461D46314B4FF0000900225FFA41
:1054C00089F1B9420AD21046194600222C4B01F04C
:1054D0000BFF09F1010902460B46F0E72046294679
:1054E00001F026FC04460D4602F016FC82468B466F
:1054F00001F0A2FD02460B462046294601F016FCAB
:105500000A2300930446524630465B460D46FFF799
:105510001FFF804427B130461A49FFF7B2FE80448E
:10552000F7B1174B00222046294601F0B3FD0D4686
:10553000044602F049F881460A2249463046FFF700
:1055400027FF8044484601F03FFD02460B462046B7
:10555000294601F0EBFB013F04460D46FFB2DFE7B1
:10556000404603B0BDE8F08F800350726C92DF4379
:10557000800350726C92DFC378E600080000E03FC1
:105580000000244004DD000837B59DF818100446DB
:105590000091FFF74DFF05462046FFF777FE2844B0
:1055A00003B030BD054B03EB001000F10803806829
:1055B00010B19979FEF700BF704700BF8CE2000878
:1055C00022280ED8084B00011A18127B012101FA7B
:1055D00002F21B581B689B681A420CBF0020012076
:1055E00070470020704700BF8CE20008222810D8C6
:1055F000084B00011A18127B1B58012000FA02F216
:10560000D1F1010138BF0021090102FA01F11B6843
:10561000196170478CE2000810B5044630B103F000
:1056200093FA90FBF4F303FB140010BD10BD884205
:1056300010B5044604DA081AFFF7EEFF204410BD47
:1056400010BD00002DE9F04780460E4608460021B7
:1056500092469946FFF7CAFF0024BAF1000F02D024
:10566000C4F1070100E0214649FA01F1404601F08A
:105670000101FFF7BBFF0B4A3301D718D3580121B3
:105680001D683B7BEA6801FA03F35340EB603A7B09
:10569000EB68914001345940082CE960DDD1BDE848
:1056A000F08700BF8CE20008054B70B51C68064609
:1056B0001D4600F01DF92B681B1BB342F9D370BDCA
:1056C0008C1500200C235843431E18460138FDD882
:1056D000704710B50446006802F068FE204610BD11
:1056E00010B50446006808B102F060FE0023236094
:1056F000A360636010BD38B504460D4600680131F3
:1057000003F042FA10B184E82100012038BD03689B
:1057100010B5044613B143688B4207D22046FFF709
:10572000EAFF20B1A3680BB922681370012010BDF5
:1057300070B50E46114604461546FFF7E8FF18B946
:105740002046FFF7CDFF04E0A5602068314603F056
:105750003BFC204670BD38B500230446036043601F
:1057600083600D4639B1084603F08CFC2946024699
:105770002046FFF7DDFF204638BD884210B50B46B6
:10578000044607D0096819B19A68FFF7D1FF01E014
:10579000FFF7A6FF204610BD10B5002304460360A6
:1057A00043608360FFF7E9FF204610BD70B50446F3
:1057B00085680E4609B9002070BD62B115442946BE
:1057C000FFF7A5FF0028F6D02068A36831461844EB
:1057D00003F0FAFBA560012070BD1FB504460A2244
:1057E0000846694600F0BCF8684603F04BFC694681
:1057F00002462046FFF7DAFF04B010BD1FB504468D
:105800000A220846694600F0D6F8684603F03AFCDA
:10581000694602462046FFF7C9FF04B010BD38B5FF
:1058200004460D4641B1084603F02CFC29460246C9
:105830002046FFF7BBFF10B92046FFF751FF204677
:1058400038BD10B50446FFF7C8FF10B92046FFF772
:1058500047FF204610BD10B50446FFF7CFFF10B933
:105860002046FFF73DFF204610BD0000222870B5FE
:105870003BD8082939D8DFE801F0051A080B0E11CA
:10588000081417000024032213E00024042210E06F
:10589000002422460DE0002409220AE00024082208
:1058A00007E001240B2204E001240F2201E0002480
:1058B00007220E4B00011E18317B1858FEF72EFEF2
:1058C000706890B1717B24B10122BDE87040FFF790
:1058D00061B80368013903F140432033DB0003EB77
:1058E00081039B0003F184431C6070BD8CE20008BF
:1058F0007047F0B58BB059B3931E222B2AD80A2AD1
:105900002AD1002828DA4042012501AB1E4670B199
:10591000B0FBF2F702FB1704092C3846D8BF30342D
:1059200003F10107C8BF57341C703B46EFE7B34291
:10593000EED01DB12D204A1C087000E00A46B3428B
:1059400004D913F8010D02F8010BF8E700231370D6
:10595000084603E0002001E00025D6E70BB0F0BDCB
:10596000FFF7C7BF70B58AB001B3931E222B1FD8B3
:1059700001AB1D4670B1B0FBF2F602FB1604092C18
:105980003046D8BF303403F10106C8BF57341C700D
:105990003346EFE7AB42EED00A46AB4204D913F8E8
:1059A000010D02F8010BF8E700231370084600E030
:1059B00000200AB070BDFFF7D5BF10B504460079CE
:1059C000FEF7AAFE2079BDE81040FEF7BDBE00003C
:1059D000436800227F2110B59A80DA80198100F196
:1059E00010011960836804469A80DA8040F2FF1241
:1059F0001A8100F190021A6090F89002FEF78CFE76
:105A000094F891325AB2002A08DB012103F01F03F7
:105A100001FA03F30249521141F8223010BD00BFD0
:105A200000E100E00368DA6842F02C02DA60DA682C
:105A300042F40052DA60704710B5036882689488B7
:105A4000D188A4B289B28C42F9D1DA68910402D526
:105A50001A685206F9D5DA6822F40052DA6043680F
:105A60009A8892B2DA8083689A8892B2DA8010BDFE
:105A7000F0B583680546046800209F88DE88BFB2C1
:105A8000B6B2B74204D0E36823F08003E36027E0B6
:105A900026683606F7D59042F5D00E5C0130666078
:105AA000EBE7DF889E88BFB2B6B20137B74211F884
:105AB00000C01DD0DF881E89BFB2B6B2B74213D076
:105AC000DF881E68BFB206F807C0DF881E89BFB234
:105AD000B6B2B74218D0DE880136B6B2DE800130E9
