:020000040800F2
:1000000000500020AD3F0008714000087540000816
:10001000794000087D40000881400008D140000878
:10002000D1400008D1400008D1400008D14000086C
:10003000D1400008D1400008D14000083D450008EB
:10004000D1400008D1400008D1400008893C000898
:10005000D1400008D1400008D1400008D14000083C
:10006000D1400008D1400008D1400008D14000082C
:10007000D1400008D1400008D1400008D14000081C
:10008000D1400008D140000849410008D140000893
:10009000D1400008D1400008D1400008D1400008FC
:1000A000A9470008CD470008F14700082948000883
:1000B0007D480008ED4800085D490008D14000086F
:1000C000D1400008D1400008D1400008D1400008CC
:1000D000D1400008C94A00081D4B0008714B0008B8
:1000E000D1400008D13C0008D140000810B5054CB3
:1000F000237833B9044B13B10448AFF300800123D4
:10010000237010BD7813002000000000BCBE000862
:1001100008B5064B1BB106480649AFF300800648F8
:10012000036813B1054B03B1984708BD00000000F8
:10013000BCBE00087C1300207813002000000000E3
:1001400007B5324801F036FD002837D1304B314930
:1001500018702E4801F0E8FB28B12C482D4901F019
:100160001EFC002848D12C4801F060FE20B12A482E
:1001700001F00BFE002844D101238DF80030264801
:10018000002369468DF801308DF802308DF8033078
:100190008DF8043001F0AFFD18B12048204904F07B
:1001A0003BFF20480021052200F058FF06E0102008
:1001B00005F0B6F840B11C4800F060FE134801F0AD
:1001C000F9FC0028F3D011E041F2883005F01CF969
:1001D000102005F0A5F80028EDD1144802F076FDB6
:1001E000102005F09DF80028FAD0E4E7084B012222
:1001F0001A7003B05DF804FB0D49084804F00CFFC9
:10020000B1E70C49054804F007FFB5E737140020B3
:10021000080000209413002034140020A8140020AB
:1002200078D20008301400201F1400208A14002007
:1002300095D20008A9D20008104B70B51A78104C5E
:100240001E462568CAB90F4802F080FF226805F5EE
:100250001C5310339A4201D2337853B10A490B48E8
:10026000236804F0D9FEBDE870400848084904F04E
:10027000D3BE084800F002FEE8E770BD1D14002060
:100280008C1500208A140020D8D20008A814002061
:10029000F6D200081F14002008B51049104804F0D9
:1002A000BBFE4FF47A7005F0AFF80E4800F000FF87
:1002B0000820002105F04AF80120002105F046F849
:1002C0000121132005F042F8012004F04BF8012031
:1002D00004F062F8BDE8084004F04AB809D3000809
:1002E000A81400203014002008B50448044904F084
:1002F00093FEBDE80840FFF7CFBF00BFA814002061
:100300001BD3000808B5102005F00AF8F0B96420E6
:1003100005F07AF8102005F003F8B8B941F28830FA
:1003200005F072F8142004F0FBFF78B9642005F0A2
:100330006BF8142004F0F4FF40B9054801F09FFC6D
:10034000BDE808400348044904F066BE08BD00BF8C
:1003500032140020A814002021D300089C4B30B593
:100360001A6887B022F0E06242F000721A60994881
:100370004FF4165104F066FD97484FF4165100F003
:1003800015FF96484FF4165104F05CFD03F043FF4F
:100390009349904804F040FE924800F031FE8E48A8
:1003A00000F0DAFE0820002105F010F908200021F5
:1003B00004F0CCFF8C49874804F02EFE8B4801F0F6
:1003C00087FA0121844800F0F7FE4FF47A7005F0B7
:1003D0001BF8874800F052FD86497E4804F01CFE59
:1003E0008548222101F070FC0128044605D182488D
:1003F000232101F069FC0546A8B100227E480121B5
:1004000001F04BFC7D49684605F055F8694603A8A4
:1004100005F072F8012103A805F0C3F8784905F04A
:10042000AEF800210FE07749684605F044F86946C8
:1004300003A805F061F8214603A805F0B2F8704959
:1004400005F09DF8294605F0ACF80146614804F036
:10045000D9FD03A804F0EDFF684604F0EAFF664802
:10046000242101F02FFC0728044616D162482521DB
:1004700001F028FC054680B96349684605F01BF881
:10048000694603A805F038F8214603A805F089F865
:100490005B4905F074F8294614E00022564807210C
:1004A00001F014FC5949684605F005F8694603A8AF
:1004B00005F022F8072103A805F073F8504905F06C
:1004C0005EF8002105F06DF80146424804F09AFDFF
:1004D00003A804F0AEFF684604F0ABFFFFF712FF7D
:1004E0004B4801F0C3FB80B93B4801F01DF93A4885
:1004F000012100F06FFE3848012100F05DFE3C480C
:1005000000F0BCFC424801F0A3FB424801F02EFB86
:10051000FFF716FE40493F4801F056FB0146B0B9CF
:100520000A22304800F09AFD3C492A4804F074FD44
:100530003B4802F087FC4FF47A7004F065FF2C48CA
:1005400000F09CFC40F6B83004F05EFFE2E735496D
:10055000204804F061FD234801210A2200F07EFDBD
:10056000204800F0BDFDB0F52F6F0DD8642004F0D9
:100570004BFF1C4800F0B4FDB0F52F6F04D82A489B
:1005800001F09AFFFFF788FE2849124804F044FD65
:10059000FFF752FE134800F0A3FD40F6E3439842F4
:1005A000234C01D9002309E001230E48237000F0F9
:1005B00097FD40F6B833984201D8022323701A48B9
:1005C00001F0B2FE1B49034804F026FD07B030BD20
:1005D00004000140A814002031140020D814002089
:1005E00065D30008301400207BD3000836140020A7
:1005F0001F1400203DE2000835140020F7D3000846
:1006000021D7000812D4000847D400082CD40008D1
:1006100032140020371400209413002099D30008CE
:100620008A140020CCD3000841140020E5D3000830
:1006300040140020EED30008012902D11C30C0B2C2
:100640007047062984BF01F1FF31C9B211F0010FD3
:1006500014BF1E201F207047444B2DE9F047B1FB0B
:10066000F3F603FB16113C23B1FBF3F203FB12126A
:10067000054602704FF46160B1FBF0F200FB12110D
:10068000B1FBF3F36B704FF4FA63AA70B6B2EB8070
:10069000EC884FF4C873B4FBF3F803FB18481FFA57
:1006A00088F8B8F1000F16D06423B4FBF3F203FB13
:1006B00012439BB2002B53D014F0030140F26D1390
:1006C0000CBF4FF4B7721A4696420EDB002908BFE2
:1006D0004FF4B77304E0B6F5B77F06DB4FF4B7739A
:1006E000F61A0134B6B2EC80D2E700236B716423B2
:1006F000B4FBF3F703FB1747BFB2B8F1000F06D006
:100700003FB114F0030F14BF0020012002E00120CC
:1007100000E0384695F80590C0B24946FFF78CFFD7
:10072000864209F1010A15D3B8F1000F06D03FB196
:1007300014F0030F14BF0020012002E0012000E0AC
:100740003846C0B24946FFF777FF301A86B285F8BF
:1007500005A0D2E701362E7185F805A0BDE8F08727
:10076000B6F5B67FC1DD40F26D13B9E780510100E7
:10077000F8B5427887783C2303FB07270278057990
:10078000467903FB0727013D013EEDB2F6B2044670
:1007900005714671013E731CE38834D04FF4C87272
:1007A000B3FBF2F102FB113292B262B16422B3FBED
:1007B000F2F002FB103080B230B113F0030F14BF1F
:1007C0000020012000E00120C0B2F1B2FFF734FFA9
:1007D000284485B2DEE74FF4C872B3FBF2F102FBA6
:1007E000113292B2AAB16422B3FBF2F102FB1132D0
:1007F00092B28AB113F0030F40F26D1208BF4FF4AA
:10080000B7721544ADB2013B9BB2B3F5FA6FE2D2B9
:1008100005E04FF4B772F4E740F26D12F1E70248D9
:1008200000FB0570F8BD00BF8051010001F05ABB0C
:1008300038B50D46044601F070FB290A49006039BD
:10084000204601F0FE0101F0FFFB204601F0D5FB40
:10085000E9B2204601F0F8FB204601F0CEFB20462D
:1008600001F05BFB2046A12101F0EEFB204601F0E8
:10087000C4FB0021204601F00EFC0546204601F095
:100880009FFB204601F064FB284638BD70B50D463D
:100890001646044601F041FB290A4900603920460A
:1008A00001F0FE0101F0D0FB204601F0A6FBE9B209
:1008B000204601F0C9FB204601F09FFB314620464F
:1008C00001F0C2FB204601F098FB204601F040FBFE
:1008D000BDE870400A2004F097BD0000D30770B552
:1008E00048BF01320024520802312346E5B2954246
:1008F00025D211F8025CA5F14106F6B2052E02D808
:10090000104B9B5D05E0303DEDB2092D03D80E4B39
:100910005B5D1B01DBB211F8015CA5F14106F6B28B
:10092000052E01D8074D04E0303DEDB2092D02D867
:10093000054E755D2B43035502310134D6E7002087
:1009400070BD00BF6BD4000861D400082DE9F04FE2
:10095000824687B008461446994606F0F7F9C9EB77
:100960000406CDE90001304606F0DEF902460B46EA
:1009700000204D4904F09CFF02460B46DDE90001D2
:1009800006F0BEFC30B94FF0020896FBF8F80546B9
:10099000013E07E050460021224607B0BDE8F04F77
:1009A00007F034BF454536DA304606F0BDF9024659
:1009B0000B4600203C4904F07BFFCDE90201701E8C
:1009C00006F0B2F902460B460020374904F070FFEA
:1009D000DDE90223CDE90401DDE9000106F034FB85
:1009E00006F0A2FCDDE904230A2790FBF7FB0BFBD2
:1009F00017004FEA001BDDE9000106F025FB06F0B9
:100A000093FC90FBF7F303FB170083440AF805B04F
:100A1000023E0135C6E709EB48094FF0020BC4EB73
:100A2000090994FBFBFB09F10109D84538DA48466E
:100A300006F07AF902460B4600201B4904F038FF05
:100A4000064609F101000F4606F06EF902460B4614
:100A50000020154904F02CFF32463B4604460D4663
:100A6000DDE9000106F0C6F906F05EFC0A2690FBFF
:100A7000F6F707FB16002B4607012246DDE90001C9
:100A800006F0B8F906F050FC90FBF6F303FB1600F5
:100A900007440AF8087009F1020908F10108C4E7DF
:100AA00007B0BDE8F08F00BF00002440124A517823
:100AB00093784AF2130243EA0123934213D008D8F1
:100AC0004AF21102934213D04AF21202934211D019
:100AD0000DE04AF21402934207D04AF222029342F6
:100AE00005D10620704702207047032070477047E9
:100AF00000207047012070479D13002010B5074C5F
:100B00006018114602F07BFF054B1B781C4414F85B
:100B1000073C1B1A5842584110BD00BF9D130020CE
:100B20001E140020044B18795B7943EA0020431E11
:100B300058425841704700BF9D130020044B9B79D9
:100B4000552B044B0CBF012200221A70704700BFC6
:100B50009D1300202014002010B5084CE379552B7C
:100B600001D1012010BD064801F05DF9E37983420F
:100B7000F7D0D0F1010038BF002010BD9D13002038
:100B80003414002013B50D4B1C7A552C01D10120D3
:100B900012E00B48694601F0E9F800231A461DF8F7
:100BA00003108C42F3D019B90132D2B2052AEED02B
:100BB0000133052BF3D1002002B010BD9D1300209E
:100BC0003414002070B505461E46FFF797FF044613
:100BD00098B12846FFF7A6FF044658B12846FFF70C
:100BE000ADFF2846FFF7B8FF044648B946B10C48A8
:100BF0000C4911E00A480C490EE009480B490BE08A
:100C00002846FFF7BFFF044640B99DF810300BB9E6
:100C1000012403E00248064904F0FEF9204670BDB5
:100C2000A8140020C3D4000871D400089FD4000881
:100C3000FAD40008194B13B51B7863B30023009353
:100C4000042117220123FFF7BDFFD8B1144C15482A
:100C500004F10C0101F052FAA17AE37A124843EA56
:100C6000012101F0F1F810B1104B01221A70237A22
:100C70000F48552B02D102F029F803E00721012289
:100C800002F0DEF90B4B06481A78002102B0BDE8ED
:100C9000104007F0BBBD02B010BD00BF080000202F
:100CA0009D13002041140020331400201D14002047
:100CB0008A1400201E140020174B07B51B7843B37D
:100CC0000023009304210A220123FFF77BFFB8B120
:100CD0001248134901F00FF830B11249124804F0DC
:100CE0009BF91248032108E011490F4804F094F9D8
:100CF000104B0A220D481A700421012202F0A0F9BB
:100D00000D4B0E481A78002103B05DF804EB07F094
:100D10007DBD03B05DF804FB080000203414002002
:100D2000A513002032D50008A81400208A14002042
:100D300062D500088B1400201E1400209D13002093
:100D400013B50023009304210F22FFF73BFF10B3DC
:100D50001D4C1E4804F10A0100F0E6FD002830D0C9
:100D60001A4804F10A0100F01AFE50B31849194854
:100D700004F052F91848E17901F028F8A0B11749B8
:100D8000144804F049F916480521012202F058F9E7
:100D90000E4800F0D6FE134B0B481A78002102B023
:100DA000BDE8104007F032BD0A480F4904F034F99D
:100DB0000E4B0A221A700A480621012202F040F95D
:100DC000E9E704480A49F1E79D13002037140020A1
:100DD000F5D50008A81400203414002092D500088E
:100DE0008A1400201E140020C4D500088B14002093
:100DF00022D600080D4B07B51B789BB1002300934A
:100E0000042105220123FFF7DDFE10B1084802F09E
:100E100085F8084B08481A78002103B05DF804EB08
:100E200007F0F4BC03B05DF804FB00BF080000202D
:100E30008A1400201E1400209D13002010B50446C3
:100E4000FFF734FE032817D8DFE800F002070C1183
:100E50002046BDE81040FFF7EDBE2046BDE810403B
:100E6000FFF72ABF2046BDE81040FFF769BF2046C4
:100E7000BDE81040FFF7BEBF10BD00002DE9F047F0
:100E8000404C002782462770002635463E4803F036
:100E90007BFF002833DD94F800903B4809F1010303
:100EA000237003F01DFFDFF8F48008F80900052027
:100EB00004F0AAFA23781022434413F8011C3348A3
:100EC00004F037F93148324904F08BF894F90030D6
:100ED000002B434602DA2B4A00211170F6B9227822
:100EE0001A4412F8012C0D2A01D117E00126052D14
:100EF000CCD12648274904F08FF80127C4E757B121
:100F00002549224804F088F85046FFF797FF002350
:100F10002370BDE8F0872770BDE8F087042DE5D881
:100F2000DFE805F0030C151E27002278134413F8A0
:100F3000015CB5F10A035D425D4121E02278134472
:100F400013F8013C0D2B0CBF0225002518E0227878
:100F5000134413F8013C0A2B0CBF032500250FE0B6
:100F60002278134413F8013C0D2B0CBF04250025F7
:100F700006E02278134413F8013C0A2BB9D000256F
:100F8000012683E71E140020C0140020A8140020AE
:100F900056DD00084FD6000873D600089D130020C8
:100FA00008B5134B13491A68096801328A421A605E
:100FB0001DD3114900221A600B78DB43DBB20B70A2
:100FC0000E49097841B1012911D1182003B1114608
:100FD00004F0BCF9192005E0192003B9012104F03F
:100FE000B5F918200021BDE8084004F0AFB908BDEC
:100FF000241400202C140020211400202814002088
:1010000008B51320002104F0E1FA1820002104F0B3
:10101000DDFA1920002104F0D9FA1020022104F091
:10102000D5FA1420022104F0D1FA0321072004F09C
:10103000CDFA0A2004F0E8F91820002104F086F91E
:101040001920002104F082F9BDE808400148024956
:1010500003F0E2BFA8140020B0D600080F4B10B573
:101060000F4C19700F4B20461A600121022203F029
:1010700051FF20460C4903F02EFF012120460A466D
:1010800003F04CFF20460121084A03F056FF20469A
:101090000021BDE8104003F015BF00BF2814002058
:1010A0004C1500202C140020A0860100A10F000880
:1010B00008B5064803F0F0FE1820002104F046F9B8
:1010C000BDE808401920002104F040B94C1500206B
:1010D000014803F0E9BE00BF4C15002000000000ED
:1010E00030B58BB001AD28460021242207F08EFBDD
:1010F0000024072004F006F905F016FE12A3D3E938
:10110000002305F077FE0022114B05F073FE06F078
:1011100033F928514FF47A70043404F083F9242C05
:10112000E7D109226B4608AC53F8040F596888428E
:1011300084BF58601960A342F6D1013A12F0FF0251
:10114000F0D105980BB030BDF163CC5D4BC8E93FE1
:1011500000001840AFF3008008B50120002104F022
:1011600035FA0020014604F031FA0420002104F091
:101170002DFA0520002104F029FA0120014604F08F
:10118000E5F8642004F040F90420002104F0DEF8C2
:101190000520012104F0DAF8BDE8084001480249C1
:1011A00003F03ABFA8140020CFD60008014803F08E
:1011B00049BE00BFC014002008B511B9084601217E
:1011C00001E00020014604F0C1F8BDE808406420B9
:1011D00004F01AB908B561B10021052004F0B6F891
:1011E000962004F011F9BDE808400520012104F023
:1011F000ADB808BD08B50021012004F0A7F80C48DF
:1012000003F023FE0220002104F0E0F90320002176
:1012100004F0DCF90220002104F098F803200021FA
:1012200004F094F8BDE808400520002104F08EB8D1
:10123000C014002010B504460120014604F086F8D1
:1012400007484FF4165103F0FDFD20460121FFF73A
:10125000C1FF20460121BDE81040FFF7ADBF00BF30
:10126000C014002010B50B78452B12D14B78522BAF
:101270000FD18B78CC78303B03EB8303303C04EB0D
:101280004304E4B221460A22034803F05BFF2046F0
:1012900010BD0A2010BD00BFA81400200B784F2BF2
:1012A00007D148784B2804D113704B780120537034
:1012B00070470020704730B50020C4B20D5D01308A
:1012C0002C2D01D01D55F8E7601C5525C0B21D55C9
:1012D000904204D20C5C1C540130C0B2F8E730BD1F
:1012E00010B50B46581AC0B2904217D213F8010B32
:1012F000A0F13004E4B2092C02D803F8014CF1E764
:10130000A0F14104052C01D8373804E0A0F16104B4
:10131000052C05D8573803F8010CE3E7012010BD70
:10132000002010BD2DE9F84300240F4691461D46CC
:10133000A046FFF7D5FF204614F0010FE3B210D10D
:1013400017F80380064608EB88084FEA48085FFA5A
:1013500088F805F80080D8F1010838BF4FF0000880
:101360000DE0FA5C2B5C461C1344F6B22B54B8F12A
:10137000000F04D1711E0648294401F058FC0134C5
:10138000E3B24B4501D83046D6E7BDE8F88300BF4D
:1013900089140020F8B54C78432C08D18C78532C54
:1013A00005D1CD78B5F151046542654100E00025D5
:1013B0000026F4B20F5D01363A2FFAD10134E4B2BF
:1013C00000269442F7B206F1010606D811F804E0AF
:1013D000013401F807E0E4B2F3E7069A0226146844
:1013E0007A1E35B992FBF6F62670D2B2FFF79AFF55
:1013F00003E02670D2B2FFF75EFF0120F8BD0000C7
:101400002DE9F0419EB005AD0C46074600219046FF
:1014100028466422039307F0F9F921462C4803F08B
:10142000E0FD642003F0F0FF0024294803F0ACFC49
:101430000028E6B207DD642C46D0254803F050FCB6
:1014400028550134F1E726B92249234803F0E4FD89
:101450003AE09DF814300D2B36D19DF815300A2B4B
:1014600032D11EAB334413F8653C0A2B2CD1023E1B
:101470001EAB334413F8643C0D2B25D10021CCB2B4
:10148000A31CDBB2B34201F1010107DA1EAA134427
:1014900013F8643C144404F8643CF0E738462946E9
:1014A0004246FFF7DFFE0A280CD103AB0093384613
:1014B000294622464346FFF76DFF00280CBF032054
:1014C000022002E0012000E003201EB0BDE8F08110
:1014D000C0140020F2D60008A81400202DE9F04125
:1014E000B2B006460D4690460021642268461F466B
:1014F00007F08CF919A80021642207F087F900246D
:10150000E3B2E85C013420B132AA134403F8640C5E
:10151000F6E70146CAB25D1818F80240EDB232AAE9
:1015200001312A4414B102F8644CF3E70D2302F8A8
:10153000643C6B1C32A8DBB203442F480A2203F838
:10154000642C036819A95B6898472C48AA1C036897
:1015500019A99B68D2B29847642003F055FF274829
:1015600003F012FC0028E5B208DD642C40D02348CB
:1015700003F0B6FB0DF804000134F0E7002D37D07E
:101580009DF800300D2B33D19DF801300A2B2FD15F
:1015900032AB2B4413F8C93C0A2B29D1023D32ABA4
:1015A0002B4413F8C83C0D2B22D100218B1CDBB23D
:1015B000AB4201F1010209DA32A8034413F8C83C36
:1015C000C9B2014401F8C83C1146EFE7304669460C
:1015D0003A46FFF747FE0A2806D1304669463A46A2
:1015E000FFF75CFE10B904E0012002E0002000E0FB
:1015F000032032B0BDE8F081A8140020C014002000
:1016000073B51D4623480C46164600218DF8071079
:10161000FFF7D2FD1F4829462EB122460DF10703E0
:10162000FFF7EEFE03E0069A2346FFF757FF032875
:1016300028D8DFE800F004090227002309E0164952
:10164000164803F0E9FC17E01549144803F0E4FCE0
:1016500018E09DF807205D1CDBB29A420F4809D9BB
:10166000E15C102203F065FD0C480E4903F0B9FC63
:101670002B46EEE703F0BAFC06480121FFF79CFD7C
:10168000012004E003480121FFF796FD002002B08D
:1016900070BD00BF3114002006D70008A814002038
:1016A00012D7000856DD000830B5002487B00122AB
:1016B0001B4B009402A90546FFF7A2FF23462246D2
:1016C00006AC13F0010F03A9144404D114F8100C54
:1016D0000009C85406E014F8100C013200F00F00A5
:1016E000C854D2B20133082BEAD10023CA5C092ABC
:1016F00001D8303204E0A2F10A00052801D83732BF
:10170000CA540133082BF1D100220091284602A9C6
:10171000044B8DF81420FFF773FF07B030BD00BFF6
:1017200023D700082ED700082DE9F0418AB052498E
:10173000044606AF514803F06FFC384600210F22E3
:1017400007F064F800252046FFF7AEFF4C4B8DF8FC
:101750001800009303A900224A4B2046FFF750FFD0
:10176000494B8DF81900009303A90022474B2046EE
:10177000FFF746FF464E8DF81A0003A90022454B9D
:1017800000962046FFF73CFF03A98DF81B000022BE
:10179000414B00962046FFF733FFDFF830818DF88C
:1017A0001C0003A900223D4BCDF800802046FFF726
:1017B00027FF03A98DF81D000022394BCDF80080CA
:1017C0002046FFF71DFF374B8DF81E00009303A93D
:1017D0000022354B2046FFF713FF344B8DF81F00D6
:1017E000009303A90022324B2046FFF709FF314B3B
:1017F0008DF82000009303A900222F4B2046FFF70D
:10180000FFFE2E4B8DF821000096204603A90022F2
:10181000FFF7F6FE00238DF82200FE5C86B928490A
:10182000164803F0F9FB2046FFF704FD2046FFF7BA
:10183000E1FC01354FF4FA60EDB203F0E5FD03E0A1
:1018400001330B2BE9D101262046FFF7F3FC86B9C3
:10185000092D7FF678AF1B4831461E22FFF7FEFBAD
:101860001949064803F0D8FB40F6B83003F0CCFD28
:10187000F6E70AB0BDE8F08137D70008A8140020C9
:1018800060D7000856D7000873D7000869D700084A
:1018900084D700087CD7000887D700088FD70008B6
:1018A0009AD70008AAD70008A2D70008B4D7000822
:1018B000ADD70008BFD70008B7D70008C2D70008C7
:1018C000CAD7000830140020F6D7000897D70008C0
:1018D00010B500210446152003F078FE15200121E3
:1018E00003F034FD0448054903F096FB2046BDE8AB
:1018F0001040FEF79BBF00BFA81400203DD8000891
:1019000008B5052003F080FDBDE808401520012141
:1019100003F01CBD08B51520002103F017FDBDE83C
:101920000840052003F070BD7FB504460E46FFF762
:10193000F1FF0D2573192946204613F80D2C0135AA
:10194000FEF7A4FF162DF5D13046092102F057F815
:101950000646294620463246FEF798FF0D252946C1
:101960002046FEF765FF01AB2B440135162D03F829
:101970000D0CF4D101A8092102F041F8B042204633
:1019800003D0FFF7BDFF002007E00B215522FEF733
:101990007DFF2046FFF7B4FF012004B070BD7FB586
:1019A00004460E46FFF7B6FF172573192946204651
:1019B00013F8172C0135FEF769FF202DF5D13046BD
:1019C000092102F01CF80646294620463246FEF759
:1019D0005DFF172529462046FEF72AFF01AB2B4461
:1019E0000135202D03F8170CF4D101A8092102F0CC
:1019F00006F8B042204603D0FFF782FF002007E040
:101A00000C215522FEF742FF2046FFF779FF012007
:101A100004B070BDF0B585B001AD06460F4628464E
:101A20000021092206F0F2FE0D2421463046FEF781
:101A3000FFFE2B190134162C03F80D0CF5D12146AD
:101A40003046FEF7F5FE09210446284601F0D7FF8F
:101A5000844206D10023EA5CFA540133092BFAD1FF
:101A600001E0002000E0012005B0F0BDF0B585B038
:101A700001AD06460F4628460021092206F0C6FEA3
:101A8000172421463046FEF7D3FE2B190134202CB3
:101A900003F8170CF5D121463046FEF7C9FE09219F
:101AA0000446284601F0ABFF844206D10023EA5CDD
:101AB000FA540133092BFAD101E0002000E00120A3
:101AC00005B0F0BD37B50C461E210546FEF7B0FE49
:101AD0001F218DF804002846FEF7AAFE02218DF88A
:101AE000050001A801F08BFF207003B030BD10B5D8
:101AF0000446FFF70FFF002220460B21FEF7C6FE2B
:101B00002046FFF7FDFE20460B21FEF791FED0F1A7
:101B1000010038BF002010BD10B50446FFF7FAFEE3
:101B2000002220460C21FEF7B1FE2046FFF7E8FE1A
:101B300020460C21FEF77CFED0F1010038BF0020CA
:101B400010BD10B50446FFF7E5FE552220462121C1
:101B5000FEF79CFE2046FFF7D3FE20462121FEF72C
:101B600067FEB0F155035842584110BD38B50446E0
:101B7000102003F0D5FBE0B941F2883003F044FCBB
:101B8000102003F0CDFB054698B92046FFF7C2FEB2
:101B90002A4620462121FEF779FE2046FFF7B0FEB7
:101BA00020462121FEF744FED0F1010038BF00207D
:101BB00038BD38BD08B52121FEF73AFEB0F1550316
:101BC0005842584108BD000038B504460D46FFF79D
:101BD00021FF20B120462946FFF748FF40BB2046A1
:101BE0002946FFF717FF48B11449154803F014FAC6
:101BF00020462946BDE83840FFF7D1BE2046294699
:101C0000FFF734FF48B10F490D4803F005FA2046AD
:101C10002946BDE83840FFF787BE0B49084803F066
:101C2000FBF92046FFF763FF2046FFF775FF03E04F
:101C30000348064903F0F0F9012038BD5CD80008DC
:101C4000A814002093D80008CAD80008DED80008DD
:101C500010B50446FFF75EFE204635215522FEF7FB
:101C600015FE2046BDE81040FFF74ABE08B53521F5
:101C7000FEF7DEFDB0F155035842584108BD10B5DE
:101C80000446FFF747FE204635210022FEF7FEFD01
:101C90002046BDE81040FFF733BE70B504460E463F
:101CA0001546FFF737FE204632462221FEF7EEFDAD
:101CB00020462A462321FEF7E9FD2046BDE8704074
:101CC000FFF71EBEFEF7B4BDFEF7B2BD70B5044609
:101CD0000E461546FFF71EFE204632462421FEF72B
:101CE000D5FD20462A462521FEF7D0FD2046BDE839
:101CF0007040FFF705BEF8B504460E46FFF70AFE32
:101D0000262573192946204613F8262C0135FEF79F
:101D1000BDFD2B2DF5D10521304601F070FE0746A3
:101D2000294620463A46FEF7B1FD2625204629469B
:101D3000FEF77EFD731913F8263C834214D101355A
:101D40002B2DF3D120462946FEF772FDB8422046DE
:101D500008D12C215522FEF799FD2046FFF7D0FD32
:101D60000120F8BDFFF7CCFD0020F8BD70B5064698
:101D70000D46262421463046FEF75AFD2B19013424
:101D80002B2C03F8260CF5D170BD38B50446FFF7AF
:101D9000C1FD2625002220462946FEF777FD204674
:101DA0002946FEF745FD024620B12046FFF7A8FD73
:101DB000002038BD01352B2DECD120462C21FEF71B
:101DC00065FD2046FFF79CFD012038BD37B502AD0B
:101DD00004468DF80710FFF79DFD15F8012D2046EC
:101DE0002D21FEF753FD0121284601F008FE2E218A
:101DF00002462046FEF74AFD20462D21FEF718FD3B
:101E00009DF807308342204608D12F215522FEF746
:101E10003DFD2046FFF774FD012002E0FFF770FD55
:101E2000002003B030BD2D21FEF702BD10B50446E1
:101E3000FFF770FD20462D210022FEF727FD2046EA
:101E4000FFF75EFD10BD00004A1F4AF6BB039A4231
:101E500070B504460D4628D83221FEF7E9FC33213F
:101E600006462046FEF7E4FC40EA0620A84204D1DC
:101E70000F49104803F0D0F815E02046FFF74AFD5F
:101E800020463221C5F30722FEF700FD204633210C
:101E9000EAB2FEF7FBFC204634215522FEF7F6FCA1
:101EA0002046FFF72DFD012070BD002070BD00BF52
:101EB0000ED90008A814002038B532210546FEF7D7
:101EC000B7FC332104462846FEF7B2FC40EA042062
:101ED00038BD08B53421FEF7ABFCB0F155035842CC
:101EE000584108BD08B51620002103F06FFB1720EC
:101EF000002103F06BFB1620012103F027FABDE857
:101F000008401720012103F021BA1720002103F017
:101F10005DBB1720042103F059BB08B5FFF7F5FF9F
:101F20001720012103F012FA0121162003F00EFA06
:101F3000052003F077FA0021172003F007FA0620A6
:101F400003F070FABDE808401620002103F0FEB946
:101F500008B5FFF7DAFF1620002103F0F7F9172084
:101F6000002103F0F3F90121162003F0EFF9062018
:101F700003F058FA1720012103F0E8F9BDE8084002
:101F8000062003F04FBA10B500210446162003F0D6
:101F9000DDF92046FFF7B9FF0021172003F0D6F93D
:101FA000022003F03FFA0121162003F0CFF90520AB
:101FB00003F038FABDE810401620002103F0C6B93E
:101FC00010B500210446162003F0C0F92046FFF7A3
:101FD0009CFF0121172003F0B9F9022003F022FA37
:101FE0000121162003F0B2F9052003F01BFABDE829
:101FF00010401620002103F0A9B970B50646FFF77E
:1020000088FF0121172003F0A1F9012003F00AFA4B
:102010001620012103F09AF9012003F003FAFB25B1
:10202000172003F07DF9044640B1013D15F0FF058E
:10203000F6D13046FFF78CFF012070BD16202146F7
:1020400003F084F9204670BD38B50C46FFF75DFFFC
:102050001620002103F07AF9082524F07F0303F00D
:10206000FF01172003B1012103F070F901211620AF
:1020700003F06CF9022003F0D5F91620002103F0DB
:1020800065F9013D0220640003F0CCF915F0FF056D
:10209000E4B2E2D138BDF8B505460F46FFF739FF87
:1020A000082600240021162003F050F9022003F036
:1020B000B9F91620012103F049F964001720E4B2B0
:1020C00003F02EF908B10134E4B20120013E03F01F
:1020D000A9F916F0FF06E5D1284617B9FFF770FFFA
:1020E00001E0FFF750FF2046F8BD08B5032001F0DE
:1020F000ABFDBDE8084002F027B9000070B55E48AE
:102100000D46097800F09DFD697806465A4800F0B2
:1021100098FD06EB8606594C06EB860600EB86001A
:10212000E080A978544800F08CFD6071E97852484D
:1021300000F087FD207129794F4800F082FD697910
:10214000A0704D4800F07DFDA97960704A4800F00C
:1021500078FD4B4920704B4802F043FFE1880A228A
:10216000484802F0CEFF4849464802F03AFF6179FC
:102170000A22444802F0E6FF4449424802F031FF97
:1021800021790A223F4802F0DDFF41493D4802F033
:1021900028FFA1780A223B4802F0D4FF3D49394884
:1021A00002F01FFF61780A22364802F0CBFF3A495D
:1021B000344802F016FF0A222178324802F0C2FFAA
:1021C00002F036F8642003F01FF92046FEF7D0FA3B
:1021D0000146324801F056FC642003F015F902F084
:1021E0002DF82E4801F051FC01462046FEF734FA46
:1021F000E1886423B1FBF3F1C9B21F4800F00EFD82
:102200002870E2884FF47A73B2FBF3F103FB1121DB
:102210001948C9B200F002FD68706179164800F0F3
:10222000FDFCA8702179144800F0F8FCA178E87052
:10223000114800F0F3FC617828710F4800F0EEFCC3
:10224000217868710C4800F0E9FC0024A871295D30
:1022500010220C4802F06DFF01340A48104902F0C8
:10226000C0FE072CF3D1074802F0C0FEBDE8704065
:1022700004480C4902F0D0BE891400203814002014
:102280002DD90008A814002034D900083CD9000832
:1022900042D9000849D9000853D900084214002047
:1022A00056DD00085DD9000870B51C480D4601F0E8
:1022B000ECFB1B4C01462046FEF7CEF9E188194E97
:1022C0006423B1FBF3F1C9B2304600F0A7FC2870DB
:1022D000E2884FF47A73B2FBF3F103FB112130462D
:1022E000C9B200F09BFC68706179304600F096FC42
:1022F000A8702179304600F091FCA178E870304652
:1023000000F08CFC61782871304600F087FC217861
:102310006871304600F082FCA87170BD4214002044
:10232000381400208914002070B5524886B0FEF79A
:102330001FFA044601F07CFF0A2003F065F82146ED
:102340004D4801F09FFB4C4801F09FFB05464B4870
:10235000FFF7BFFD4A4E002859D04848FFF7ACFDB3
:102360004AF6B103A0F10F029A42044619D9454931
:10237000684603F0A0F8694603A803F0BDF8B4214D
:1023800003A803F018F9404903F0F9F801463F4863
:1023900002F038FE03A803F04CF8684603F049F851
:1023A000B4243378012B0BD1B4F5966F03D92544AF
:1023B0006846374915E005F5966503A8354944E0B8
:1023C000022B0BD1B4F5166F03D925446846324968
:1023D00007E005F5166503A8304936E03049254485
:1023E000684603F068F8694603A803F085F82146BB
:1023F00003A803F0E0F8244903F0C1F8014623489C
:1024000002F000FE03A803F014F8684624E03378D5
:10241000012B08D123491D4802F0FEFD05F5966504
:1024200003A8214911E0022B08D11E49174802F0E8
:10243000F3FD05F5166503A81C4906E01949134884
:1024400002F0EAFD1A490A3503A803F034F80F48F0
:1024500003A902F0D7FD03A802F0EBFF15492A46B5
:10246000054801F014FB0A2002F0CEFF01F0E6FE61
:1024700006B070BD38140020421400203314002030
:102480004014002080D9000886DA0008A814002033
:10249000F4D900083DDA000888DA0008DADA000822
:1024A0002EDB00087ADB0008A5DB0008F0DB000863
:1024B00044DC0008EB20000830B5154885B0FEF775
:1024C00057F9144C054601F0B3FE0A2002F09CFFB8
:1024D0002946204601F0D6FA204601F0D6FA0E49E8
:1024E000054601A802F0E7FF01A90C4802F08AFDA9
:1024F00001A802F09EFF0A4905F56162204601F03D
:10250000C6FA0A2002F080FF01F098FE05B030BD47
:10251000381400204214002090DC0008A814002089
:10252000EB2000080148112101F0A3BA4214002059
:1025300070470120704701207047000010B5FF234D
:1025400001441A46884208D010F8014B5440044A0E
:10255000125D5A40034B1B5DF4E743EA022010BDB5
:10256000090000200B01002070B5094D094C0646FA
:1025700022782978084801F02FF92878012102F003
:10258000E5FE2078012102F0E1FE304670BD00BF7B
:10259000090100200A0100207814002010B5064C23
:1025A000204601F0ACF9204601F0B5F9D0F1010068
:1025B00038BF002010BD00BF7814002010B54A219C
:1025C00004460548FFF7EAFF28B1236820461B6848
:1025D00001219847012010BD8814002070B5094CD6
:1025E000154620461E4601F08AF92946204601F08C
:1025F00097F92046314601F093F92046BDE8704036
:1026000001F089B978140020F8B5134814461E4625
:102610000F469DF8185001F072F921460E4801F05E
:102620007FF90D4801F077F90B4CA5B12A462046F9
:10263000394601F079F90022237A551C33B1064856
:10264000D7B201F07FF92A46F055F5E70248BDE818
:10265000F84001F060B9F8BD78140020F0B51C46D0
:1026600085B0012300930DF10F03154607460E4672
:10267000FFF7CAFF9DF80F309DF8282023EA0403D6
:1026800014402343384631462A468DF80F30FFF771
:10269000A5FF05B0F0BD000013B5002471B1012203
:1026A00013460B484A210094FFF7D8FF4A210094B3
:1026B000074802224023FFF7D1FF80210091044800
:1026C0004A2102228023FFF7C9FF02B010BD00BFDC
:1026D0008814002008B51E220F481F2101F07CF845
:1026E00038210D4801F00BF906210B4801F018F9CB
:1026F000094801F010F94FF4FA7002F085FE07481E
:10270000FFF75CFF10B10648064901E0044806499E
:10271000BDE8084002F080BC98140020441400205A
:10272000A814002020DD000839DD000800000000AA
:10273000F0B5334C85B00D461646FFF7CBFF392177
:102740000122204601F0F0F8012002F05DFE277A18
:102750001FB1204601F0F6F807463821012228482B
:1027600001F0E2F8012002F04FFE207A10B1244877
:1027700001F0E8F840EA072004F0C6FA1EA3D3E906
:10278000002304F037FB04F0F7FD1E4930601E48BB
:1027900002F027FC31680A221B4802F0E6FC022303
:1027A00000931A4803AB4A210322FFF72DFF9DF83F
:1027B0000D209DF80C3002F00F0242EA03122D2189
:1027C000D2B24A431B0902FA03F34FF47A72B3FB05
:1027D000F2F32B600E490C4802F003FC29680A2230
:1027E000094802F0CCFC0B49074802F015FC05B083
:1027F000F0BD00BFAFF300800AD7A3703D0A773F5A
:102800009814002052DD0008A8140020881400202D
:1028100058DD00086FDD000808B50348FFF7A4FE87
:10282000024A034B1A6008BD88140020F0DC00083F
:10283000441400202DE9F0411E463D4B86B0186837
:102840008846596801AC03C4174600210A2203A830
:1028500005F0DCFF9DF8303006AC04F8143D20464E
:102860000621FFF76BFE030A8DF80B0031488DF847
:102870000A30036821469B6808229847642002F0CA
:10288000C3FD00242B4802F07FFA002804F1010563
:1028900009DD284802F024FAE4B206AB1C4404F82F
:1028A0000C0C2C46EEE79DF80C509DF814405DB9D9
:1028B0000DF10D000721FFF741FE9DF8153043EAA9
:1028C000042484420BD10EE003A80721FFF736FE53
:1028D0009DF8133044EA032484420FD000254FF6BC
:1028E000FF7415481CE09DF811309DF810009DF80C
:1028F000124043EA00209DF8133009E09DF81030A3
:102900009DF80F009DF8114043EA00209DF8123019
:1029100043EA042404F056FE084904F05FFFE50B87
:10292000C8F800003C60357006B0BDE8F08100BF1B
:1029300008DD0008D814002000FF7F470000C842CF
:1029400070B5274C86B020680E46616801AB03C3A2
:1029500006AC15460021092203A805F057FF04F82C
:10296000145D20460621FFF7E9FD030A8DF80B00F0
:102970001C488DF80A30036821469B680822984756
:10298000642002F041FD0024164802F0FDF9002801
:102990000DDD144802F0A4F9651CEDB206AB1C4431
:1029A000082D04F80C0C34BF2C460024ECE703A8D7
:1029B0000521FFF7C3FD9DF811209DF8123043EA71
:1029C0000223834205BF9DF80F209DF810304FF67B
:1029D000FF7343EA02230A225343336006B070BDFB
:1029E00010DD0008D8140020F0B516462A4A87B03A
:1029F00010680F46516801AC1D4603C4092206AC9D
:102A0000002103A805F002FF04F8145D204606210A
:102A1000FFF794FD030A8DF80B0020488DF80A306B
:102A2000036821469B6808229847642002F0ECFC6A
:102A300000241A4802F0A8F900280DDD174802F01A
:102A40004FF9651CEDB206AB1C44092D04F80C0CC3
:102A500034BF2C460024ECE703A80721FFF76EFDE6
:102A60009DF813209DF8143043EA022383420CD1D1
:102A70009DF812309DF811009DF80F2043EA0020C8
:102A80009DF8103043EA022302E04FF6FF73184628
:102A90003860336007B0F0BD18DD0008D81400209E
:102AA00073B50121514D082002F050FC642002F062
:102AB000ABFC284600F0FCFD4D4C01262060642054
:102AC00002F0A2FC284600F005FE4A4DA0606420FA
:102AD00002F09AFC04F1140304F1180104F110024D
:102AE00000962846FFF7A6FE642002F08DFC04F154
:102AF000280128460222FFF723FF642002F084FC0D
:102B0000334604F11C0104F120022846FFF76CFF54
:102B1000642002F079FC04F1240204F10C0128463F
:102B2000FFF706FE344D642002F06EFC0820002101
:102B300002F00CFC2846314902F053FA206804F0F8
:102B400005F9022602460B460096284602F0CCFB09
:102B500028462B4902F045FAA06804F0F7F80096E1
:102B600002460B46284602F0BFFB2846254902F0E4
:102B700038FA23696421B3FBF1F10A22284602F0F6
:102B8000F4FA2149284602F02CFAA06A04F01AFD52
:102B90001E4904F023FE04F0D9F8009602460B46C5
:102BA000284602F0A1FB2846194902F01AFAA0694A
:102BB00004F0CCF800960B460246284602F094FB3F
:102BC0002846144902F00DFAE1690A22284602F06B
:102BD000CCFA2846104902F004FA216A28460A2253
:102BE00002B0BDE8704002F0C0BA00BF8C140020F3
:102BF0004C14002048140020A81400207ADD00089E
:102C000099DD000874DD000888DD00080000C84276
:102C100093DD0008A4DD0008B1DD00080A22B1FB45
:102C2000F2F302FB131202EB0310C0B270470878F4
:102C30000A22B0FBF2F302FB130202EB03130B7048
:102C4000704701F00F03090901EB810103EB41001B
:102C5000C0B2704737B50C460C480DF10701FEF7BE
:102C600031FF9DF807304FF47A705843084902F05D
:102C70008EFB9DF80730054664205843054902F055
:102C800086FB2844206003B030BD00BF371400200D
:102C900080841E00400D030070B50E4615460024CA
:102CA000E3B2AB42074809D2315D102202F041FA8B
:102CB0000448054902F095F90134F1E7BDE8704098
:102CC00002F094B9A814002056DD000830B595B084
:102CD00040220546002104A805F098FD002414A90F
:102CE00041F8504D28466946FFF7B4FF009802F0BE
:102CF00099FBFE238DF81030E0238DF8113011235D
:102D00008DF8123024238DF8133001238DF81530FF
:102D1000444B8DF814401B7803B1552342488DF87D
:102D20001630FFF780F801AC8DF8170021463E48B9
:102D3000FFF71CF8002304AA1A44E15C0133052BB9
:102D40001172F8D139482146FEF764FE002304AA27
:102D50001A44E15C0133092B5173F8D1002401239B
:102D6000222133488DF826308DF827408DF82840F1
:102D70008DF829408DF82A408DF82B408DF82C4095
:102D80008DF82D408DF82E408DF82F40FEF79CFFDA
:102D900023218DF830002648FEF796FF24218DF878
:102DA00031002348FEF790FF25218DF8320020489E
:102DB000FEF78AFF24218DF8330005A88DF83440F2
:102DC0008DF835408DF836408DF8374000F017FE0D
:102DD0008DF83800E30704AB234404F1010454BF29
:102DE0000D220A22062C83F82920F3D1114912481A
:102DF00002F012F904A928462F22FFF74DFF0F48D1
:102E0000FEF756F90E4804A903682F229B689847DD
:102E10004FF4FA7002F0F8FA0848FEF759F915B0C5
:102E200030BD00BF201400203414002037140020CF
:102E300035140020BEDD0008A81400203014002046
:102E4000C014002030B587B014220446002101A828
:102E500005F0DCFC002506A941F8185D204669460E
:102E6000FFF7F8FE009802F0DDFAFE238DF804303B
:102E7000E0238DF8053013238DF8063005238DF8F7
:102E8000073001238DF809301E4B8DF808501B7850
:102E900003B155231C488DF80A30FEF7C4FF012307
:102EA0008DF80B00052102A88DF80C3000F0A7FD6D
:102EB00000238DF80D00DA0701AA1A4403F101037B
:102EC00054BF0D210A21062B9172F4D10F491048ED
:102ED00002F0A2F801A920461022FFF7DDFE0D48FE
:102EE000FEF7E6F80C4801A9036810229B68984792
:102EF0004FF4FA7002F088FA0648FEF7E9F807B0D6
:102F000030BD00BF2014002034140020DADD00089A
:102F1000A814002030140020C014002030B58DB05B
:102F20001E220546002104A805F070FC00240CA90F
:102F300041F8244D2846ADF80840FFF78BFE039872
:102F400002F070FA344B0094344802A90122FEF7D3
:102F500057FBFE238DF81030E0238DF81130142339
:102F60008DF8123012238DF8133001238DF81530AF
:102F70002B4B8DF814401B7803B1552329488DF84D
:102F80001630FEF750FF01238DF81830264B002431
:102F90001B788DF817009DF8081024488DF819301B
:102FA0008DF81A408DF81B40FFF74BFE9DF8091075
:102FB0008DF81C001D48FFF744FE12218DF81D00FE
:102FC00005A800F01CFD23468DF81E00DA0704AAB0
:102FD0001A4403F1010354BF0D210A21062BD173BA
:102FE000F4D11349134802F017F804A92846152212
:102FF000FFF752FE1048FEF75BF8104804A903687B
:1030000015229B6898474FF4FA7002F0FDF90A48C0
:10301000FEF75EF80DB030BD00DE00083114002070
:1030200020140020341400208B1400208914002068
:103030000ADE0008A814002030140020C01400206C
:10304000F0B589B005460F4616460021192201A8A1
:1030500005F0DCFB002408A941F8204D284669460C
:10306000FFF7F8FD009802F0DDF9FE238DF804303B
:10307000E0238DF8053015238DF806300E238DF8EA
:10308000073001238DF809302A4B8DF808401B7852
:1030900003B1552328488DF80A30FEF7C4FE0024FA
:1030A0008DF80B00012302A80E218DF80C308DF84D
:1030B0000D708DF80E408DF80F408DF810408DF892
:1030C00011408DF812408DF813408DF814408DF8A2
:1030D000154000F094FC8DF81600E30701AB234483
:1030E00004F1010454BF0D220A22062CDA74F4D133
:1030F0001249134801F090FF284601A91922FFF751
:10310000CBFD1048FDF7D4FF0024E3B2B3420BD24D
:103110000D4801A9036819229B6898474FF4FA707B
:1031200002F072F90134F0E70648FDF7D1FF09B06B
:10313000F0BD00BF201400203414002024DE00085D
:10314000A814002030140020C0140020F0B5002482
:10315000ABB021460646142205A8019405F056FBA3
:10316000802221460AA805F051FB2AA941F8A04D6A
:103170003046FFF76FFD029802F054F9A448FFF7BC
:103180008FFCFE238DF82830D0238DF829300125BF
:103190003023A0488DF82B308DF82C408DF82A5024
:1031A0008DF82D50FDF79CFF9B4C030A27688DF886
:1031B0002F009A4938468DF82E3004F017FC28B1BC
:1031C000FF238DF830308DF831301AE03846002179
:1031D00004F0EEFB18B107F10047276000E0054658
:1031E000022301A821680422FDF7B0FB9DF80430FA
:1031F0008DF830309DF805308DF831300DB1F22367
:1032000000E0E223A5688DF83230284600230193C0
:1032100004F0F6FB0138632803D9FF238DF833301F
:103220000BE0022301A829460422FDF78FFB9DF83D
:1032300004308DF833309DF805308DF8343000219E
:10324000E223142205A88DF83530019105F0DEFA4D
:10325000E268734B9A4207D9FF238DF836308DF818
:1032600037308DF8383019E06E4905A805F036FD85
:1032700005A805F0B7FD05A9024601A8FDF72EFB3C
:103280009DF804308DF836309DF805308DF83730D4
:103290009DF806308DF838309DF807308DF83930BC
:1032A000E0238DF83A30A36A0A200025B3FBF0F042
:1032B000019504F087F92B460146042201A8FDF789
:1032C00045FB9DF80430606A8DF83D309DF805306F
:1032D00064288DF83E304FF0E1038DF83B508DF8B7
:1032E0003C508DF83F30019503D9FF238DF84030D5
:1032F0000DE004F067F92B460146042201A8FDF712
:1033000025FB9DF804308DF840309DF80530E02213
:1033100020698DF842208DF845208DF848204FF621
:10332000FE728DF8413090424FF0FF038DF843302C
:103330008DF844308DF846308DF8473002D98DF83D
:10334000493016E0344B1B7D012B08BFC0F580309F
:1033500004F038F9344904F041FA0223014604220A
:1033600001A8FDF7F3FA9DF804308DF849309DF877
:1033700005308DF84A30237DA569012B0CBFF2235F
:10338000E2238DF84B3028460023019304F038FBEC
:10339000642803DDFF238DF84C300BE0022301A8E5
:1033A00029460422FDF7D2FA9DF804308DF84C30FE
:1033B0009DF805308DF84D30206AE2238DF84E30AF
:1033C0004FF6FE7300259842019503D9FF238DF82F
:1033D0004F300DE004F0F6F82B460146042201A818
:1033E000FDF7B4FA9DF804308DF84F309DF80530A4
:1033F0008DF85030E069E0238DF851304FF6FE73C0
:1034000000259842019511D9FF238DF852301BE019
:1034100048140020301400204C14002000001643F3
:10342000400D03003CDE00080000C84204F0CAF86A
:103430002B460146042201A8FDF788FA9DF80430C6
:103440008DF852309DF8053003AC8DF8533021488B
:10345000E02321468DF85430FEF726FF00230AAA08
:103460001A44E15C0133072B82F82D10F7D10BA829
:10347000302100F0C4FA00238DF85C00DA070AAAB4
:103480001A4403F1010354BF0D210A21062B82F8CF
:103490003510F3D11049114801F0BEFD10490F4815
:1034A00001F0BAFD0AA930463B22FFF7F5FB0D48B3
:1034B000FDF7FEFD0C480AA903683B229B6898476C
:1034C0004FF4FA7001F0A0FF0648FDF701FE2BB0A3
:1034D000F0BD00BF4114002042DE0008A814002007
:1034E0005EDE000830140020C01400202DE9F843EF
:1034F00000240F469046994625464C4513DA5FFA5C
:1035000088F60121304601F021FF0A2001F07CFFFE
:10351000F8B201F005FF002100EB4505304601F04F
:1035200015FF0134E9E72846BDE8F88370B5D4B249
:103530001D46EDB20E462046002102F047F828460F
:10354000002102F043F82046012101F0FFFE284649
:10355000012101F0FBFE2046002101F0F7FE284684
:10356000002101F0F3FE2846012101F0EFFE204684
:10357000012101F0EBFE2846002101F0E7FEF3B245
:1035800001222046294601F00DFF2846012101F0C5
:10359000DDFE2046022102F019F8204601F0C0FEAF
:1035A0002846002101F0D2FE2046BDE8704001F01F
:1035B000B7BE38B5CDB22846022102F007F8642420
:1035C0000A2001F021FF284601F0AAFE08B1013CC3
:1035D000F6D138BD2DE9F843CCB2154680460E46EB
:1035E000EFB22046022101F0F1FF3846002101F040
:1035F000EDFF2A46082331464046FFF777FF0021BA
:103600004FEA0029204601F0E1FF2046012101F0A8
:103610009DFE2046002101F099FE3846012101F06F
:1036200095FE3846002101F091FE2046022101F06E
:10363000CDFF404631462A460823FFF757FF49EAA7
:103640000000BDE8F88338B51446CDB2E4B2284690
:10365000002101F0BBFF2046002101F0B7FF284602
:10366000012101F073FE2046012101F06FFE20468A
:103670000021BDE8384001F069BE38B590E80C0083
:1036800004460321FFF752FF20462168FFF791FF10
:1036900094E806002046FFF79DFF94E806000546E3
:1036A0002046FFF7D0FF284603F090FF38BD00000A
:1036B00008B5FFF7E2FF04F0A3F903F087FF034921
:1036C00003F0D8FF024903F0CBFE08BD0AD7233C24
:1036D00000002042F8B590E80C0004460521FFF7F1
:1036E00025FF20462168FFF764FF94E80600204686
:1036F000FFF770FF94E8060005462046FFF7A3FF9A
:10370000284603F063FF1E49064603F0B3FF4FF05F
:10371000814103F0A5FE1B490546304603F0AAFF90
:10372000314603F0A7FF0146284603F09BFE0746FB
:103730002046FFF7BDFF03F009FB0022124B03F008
:10374000A5F904460D463046104903F093FF104991
:1037500003F088FE03F0FAFA02460B46204629469B
:1037600003F048FB044638460D4603F0EFFA0246E4
:103770000B462046294603F08BF903F01DFEF8BDE9
:1037800054E3253DA2E73BB600003940ACC5A7385D
:103790000AD7233C024B1D211C2283E806007047F8
:1037A0008C1400200A4B1A680A4B9B6800BF00BFAC
:1037B000074909688A42F5D1C3F58C33482103F5DE
:1037C000A073B3FBF1F34FF47A7000FB0230704743
:1037D0008C15002010E000E010B5044680E80600DB
:1037E000D0B2002101F0F2FE2078002101F0EEFEBF
:1037F00000232079E360012101F0A8FD2078012158
:10380000BDE8104001F0A2BD38B5C36804460D46BE
:1038100023B10021C160007801F0D8FE207829464C
:10382000BDE8384001F092BD10B500210446FFF715
:10383000EBFF642001F0F6FD2079002101F086FD08
:10384000BDE81040642001F0EDBD10B50021044634
:10385000007901F07BFD642001F0E4FD20460021A9
:10386000FFF7D2FF642001F0DDFD2079012101F096
:103870006DFD642001F0D6FD20460121FFF7C4FF55
:10388000BDE81040642001F0CDBDF8B504460E46F9
:103890000825F7092079002101F058FD2046394616
:1038A000FFF7B2FF0121207901F050FD642001F003
:1038B000B9FD20463946FFF7A7FF7600013DF6B275
:1038C000E7D12946207901F041FD2078022101F05D
:1038D0007DFE0223E3602079012101F037FDFFF72F
:1038E00061FF0546207801F01BFD30B1FFF75AFF5C
:1038F000401B6428F6D90020F8BD0120F8BD38B57A
:103900000D460446FFF790FF6900204601F0FE01D6
:10391000FFF7BBFF38BD08B5FFF797FF002008BDD4
:1039200008B5FFF7B2FF08BD70B50D466D0004463F
:103930001646FFF779FF691CA6602046C9B2FFF75B
:10394000A4FF70BD70B586680446002E55D000787F
:10395000022101F03BFE0223E360082500262079C6
:10396000002101F0F3FC0121207901F0EFFC64203B
:1039700001F058FD207801F0D3FC013D00EB46003A
:1039800000F0FF06EBD1A3686068013B002BA36049
:10399000C0B2294617DD01F0D9FC642001F042FDD8
:1039A00029462046FFF730FF642001F03BFD2079D7
:1039B000012101F0CBFC642001F034FD207929467F
:1039C00001F0C4FC19E001F0C1FC642001F02AFD03
:1039D00001212046FFF718FF642001F023FD01219B
:1039E000207901F0B3FC642001F01CFD2079294608
:1039F00001F0ACFC2046FFF728FF304670BD0023E5
:103A000030B5054618468B420FDAEA5C5040082272
:103A100010F0010F4FEA60041ABF84F0E000C0B25A
:103A2000E0B2013AF4D10133EDE730BD122938B5E7
:103A30000546144608460BD0132910D0112916D17B
:103A400000F07CF80CB120460FE047F6FF700CE068
:103A500000F074F8002CF6D149F63F4005E000F084
:103A60006DF8002CEFD14FF2234000F06BF928469F
:103A700038BD13B50022044601A8FFF7D7FF204642
:103A800002B010BD084600F043B900F02FB910B5E0
:103A900010460C4600F070F921460320BDE81040A6
:103AA00000F0A2B8054B1B681B685B0103F184435F
:103AB00094331A68002AFCD0704700BF0C02002023
:103AC000054B1B681B685B0103F184438C331A6848
:103AD000002AFCD0704700BF0C02002008B5FFF799
:103AE000E1FF054B00221B681B685B0103F1844367
:103AF000C3F88C2008BD00BF0C02002008B5FFF7FA
:103B0000D1FF054B01221B681B685B0103F1844355
:103B1000C3F8902008BD00BF0C02002008B5FFF7D5
:103B2000C1FF054B00221B681B685B0103F1844346
:103B3000C3F8902008BD00BF0C02002010B5044659
:103B400000F069FB00F074FB204A112C136A23F487
:103B50004073136213460BD005D8C4B1102C2AD180
:103B60000023136227E0122C11D0132C1AD022E06C
:103B7000174A00211160012142F8081C154A1268F9
:103B800012F0FF0FFAD01A6A42F4807212E0124A61
:103B900001211160114A1268002AFBD01A6A42F40E
:103BA000007207E00E4A126812F0FF0FFAD01A6A8C
:103BB00042F440721A620B4B01221A60FFF78EFF2B
:103BC000FFF77EFFBDE81040FFF76CBF001002401A
:103BD00008044242040442428004424284044242B5
:103BE000440042423C04424238B5144D04462B681E
:103BF00003EB80035960FFF755FF032C09D1104AEE
:103C000001231360C2F800310E4B4FF400725A606A
:103C100038BD2B6801221B68944204EBC3034FEAB2
:103C2000830303F184431A6003D002D3022C00D033
:103C300038BD044B08221A6038BD00BF0C020020BA
:103C40004480204200E100E010B50446FFF72AFF5F
:103C5000032C0B4B05D10B4900220A60C1F800214F
:103C600008E01A680021126804EBC202920002F117
:103C7000844211601B6803EB84040023636010BD61
:103C80000C02002044802042F8B5104B1E683568B5
:103C90002B686F681F4017F0010403D074680CB1E3
:103CA000A0470124BA0704D5B36813B1984744F07C
:103CB00002047B0704D5F36813B1984744F0040469
:103CC0006B6823EA04046C60F8BD00BF0C0200209E
:103CD00008B5044B1B681B691BB19847024B0122B6
:103CE0001A6008BD0C020020C482204208B5FFF70C
:103CF000F5FEFFF7E5FEFFF7D5FE044B1B681B68DA
:103D00009869DB699BB243EA004008BD0C020020C1
:103D100010B50446FFF7E2FEFFF7D2FEFFF7C2FE42
:103D2000FFF7ECFE064B220C1B68A4B21B689A61DD
:103D3000DC61FFF7F3FEBDE81040FFF7B3BE00BF44
:103D40000C02002010B50446FFF7C8FEFFF7B8FECE
:103D5000FFF7A8FEFFF7D2FE064B220C1B68A4B2A9
:103D60001B689A60DC60FFF7D9FEBDE81040FFF7E2
:103D700099BE00BF0C02002010B50446FFF7AEFE4E
:103D8000FFF79EFEFFF78EFEFFF7B8FE064B220CF4
:103D90001B68A4B21B681A625C62FFF7BFFEBDE835
:103DA0001040FFF77FBE00BF0C02002070470000EC
:103DB0000B4B10B5196809220A230A4800F0F8FFD6
:103DC000094B022219680948032300F0F1FFBDE8FE
:103DD0001040074B074819681A221B2300F0E8BF60
:103DE00030030020A814002034030020C014002059
:103DF00038030020D814002010B5044600F0F0F974
:103E0000034B20461978BDE8104000F075B900BF9B
:103E100028020020F8B50446056800F0CFFB2268B0
:103E20000023510101F184410B60802129600121AF
:103E3000A9622B61EB606379696113B18B4203D096
:103E40002BE04FF400436B644FF6FF73D362002501
:103E50006E1CF7B22046394600F0BAFBD0B1236899
:103E600048F6FF7103F1340242F8251018336D1043
:103E700017F0010F53F8252014BF6FF0FF016FF406
:103E80007F4101EA020214BF68214FF4D0410A4386
:103E900043F82520042E3546DAD1216801224B0152
:103EA000490103F1844301F18441C3F880220A608F
:103EB000F8BD000038B5274B274C1A68022042F0A5
:103EC00010021A6000F0C0F90025002000F082FA0C
:103ED00065602368182023F40023236000F087FA2C
:103EE000102000F084FA00F043F8A560102000F0E4
:103EF00071FA102000F098FA0028FAD000F039F892
:103F0000164800F09DFA182000F064FA182000F01E
:103F10008BFA0028FAD0022000F04CFA00214FF072
:103F2000006000F0F9F90E4800F000FB00F038F8EE
:103F30000C4B188800F042F90B4800F043F90B488D
:103F400000F028FB00F02EF800F02DF8FFF72EFF10
:103F500038BD00BF00200240001002402C020020AB
:103F60003F1901002A020020F93D0008153E000813
:103F7000704708B50020014600F0B0FA01204FF468
:103F8000806100F0ABFA0021022000F0A7FA2D209A
:103F900000F0B4FABDE808400320002100F09EBA0A
:103FA00000F05CB9704700F099B9000001498D46F6
:103FB0000149084700500020BD3F000808B5124BDA
:103FC000124A1968914201D0002301E0104B07E02A
:103FD0001048D4188442F9D2C858D0500433F7E7B7
:103FE0000D4A934203D2002243F8042BF8E704F071
:103FF0005DF800200146024600F0C2FF074B0BB1FE
:1040000004F044F8FEE700BF44E40008000000208C
:104010007813002078130020981500208D80000868
:1040200008B50D4B1A680AB90C4A1A601B680C4A8D
:10403000D21A824204DB09494242591A914206DAF5
:1040400004F01EF80C2303604FF0FF3008BD024A55
:1040500018441060184608BDF01400209815002080
:1040600078220128FEE700000000000000000000A8
:10407000012007E0022005E0032003E0042001E026
:104080000520FFE70D4A0121116072B60C4A00219C
:104090001160074902B4084902B486B005498E464A
:1040A000704700BFAFF30080AFF30080AFF3008034
:1040B00000000061F9FFFFFF694C000814ED00E00B
:1040C00010E000E0AFF30080AFF30080AFF30080BA
:1040D000FEE710B50446007900F0CEF92079BDE87E
:1040E000104000F0E1B903689A6822F4602242F4BB
:1040F0008012114399607047002370B51A461C4620
:10410000072B4FEA430503DCEE1801FA06F63443A9
:104110001D4401FA05F501330A2B42EA0502EFD1ED
:104120000368DC601A6170BD0368DA6A22F0F87215
:10413000DA6259639A6842F480029A601A689207B8
:10414000FCD5D86C80B2704738B5124D2A68136818
:104150001C68A10706D5196821F00201196093684F
:1041600003B19847620708D52B681A681B69116864
:1041700021F00401116003B19847E30708D52B68CB
:104180001A68DB68116821F00101116003B19847DA
:1041900038BD00BF58020020036801225B0103F113
:1041A000844303F58673191F1A6018680028FCD130
:1041B00043F8042C0B68002BFCD170470146042007
:1041C00000F08CB9044B10B504461868A047034BA7
:1041D0001868A04710BD00BF5802002054020020FC
:1041E00010B50446FFF775FF20464FF46021FFF736
:1041F0007AFF2368012103F1404308335A015B0130
:1042000002F1844203F18443116520461960BDE840
:104210001040FFF7C1BF08B5142000F02DF90420AD
:1042200000F02AF9BDE80840042000F03DB9000084
:10423000014B01221A60704720000E42014B002200
:104240001A60704720000E42034B1A6822F00702E2
:1042500010431860704700BF0020024008B50748AF
:1042600001F05BFA064801F058FA064801F055FAE9
:10427000BDE80840044801F050BA00BF5C020020CD
:10428000640200206C0200207402002070B501F06E
:104290000704A4000F25A5400368C80853F8206050
:1042A000092A26EA050514BF1646082606FA04F46C
:1042B000082A44EA050443F8204006D1012000FA08
:1042C00001F1DA6822EA010106E0092A05D101209C
:1042D00000FA01F1DA681143D96070BD08B5032016
:1042E00000F0CAF8BDE80840032000F0DDB8000087
:1042F00000284FEA011105DA064B00F00F00C9B2A1
:104300001954704700F16040C9B200F5614080F86F
:104310000013704714ED00E021F0604138B521F042
:104320007F01084B0843986000241D4660B20F21AE
:104330000134FFF7DDFF2B2CF8D1F02385F8233073
:1043400038BD00BF00ED00E0044A054BD16801F420
:1043500040710B43D360BFF34F8FFEE700ED00E0E9
:104360000400FA05014B1860704700BFA0000E4220
:10437000074B1A6842F001021A601A6842F0020202
:104380001A60044B1A6942F004021A6130BF704788
:104390000070004000ED00E0024B1A6842EA800025
:1043A0001860704700700040014B13F81000704710
:1043B00020E10008064B5A6822F0030202435A60CB
:1043C00080005A6802F00C028242FAD1704700BFA6
:1043D00000100240030A0121C0B201FA00F003F10B
:1043E000804303F504331A68104318607047030ACA
:1043F0000121C0B201FA00F003F1804303F5043358
:104400001A6822EA000018607047030A0122C0B24D
:1044100002FA00F003F1804303F504331B681842ED
:104420000CBF002001207047030A0222C0B202FA2A
:1044300000F003F1804303F504331B681840704714
:1044400038B54368044618201D68FFF7DEFF20B129
:1044500006488121064A00F011FC064B21685A6883
:104460000D4322F4741215435D6038BDB0E00008BE
:1044700004E100080010024010B50446FFF794FF65
:10448000074B53F82020074B03EB4404637803EBFE
:10449000C2039B0003F1844301221A6010BD00BFD8
:1044A0007C02002020E1000810B50446FFF77CFFE5
:1044B000084B53F82020084B03EB4404637803EBCC
:1044C000C2039B0003F1844301221A6000221A6098
:1044D00010BD00BF8802002020E1000810B5054B88
:1044E000054C5A6854F8200022EA00021143596032
:1044F00010BD00BF001002407CE1000810B504466A
:10450000FFF752FF074B53F82020074B03EB4404FF
:10451000637803EBC2039B0003F1844300221A601B
:1045200010BD00BF9002002020E10008024B0722CE
:1045300058601A60704700BF10E000E008B5044BF7
:104540001A6801321A60034B1B6803B1984708BD13
:104550008C150020F414002011F0010F70B542EA10
:1045600003030CBF0825002503FA05F5006801F1D7
:10457000FF3400F11800C4F3400450F8241014BFB5
:104580006FF0FF066FF47F463140294340F8241056
:1045900070BD000010B504460448A0470448A04779
:1045A0000448A0470448A04710BD00BFE402002013
:1045B0000C0300209C020020C002002010B504461D
:1045C0000079FFF759FF2079BDE81040FFF76CBF75
:1045D00003791E2B10D9212B0ED0202B0ED9222B84
:1045E00001D0252B04D102298CBF00200120704767
:1045F0004B1E5842584170470120704700207047B9
:104600008B1C40F823200368012203F140430C3344
:1046100001EBC3039B0003F184431A6042790379E1
:10462000FAB9B3F11A025342534107294BD8DFE8D4
:1046300001F004090909090E0E13002B0CBF2C23ED
:10464000192337E0002B0CBF2E231B2332E0002B55
:104650000CBF2D231A232DE0002B0CBF2B23182376
:1046600028E01B3B0C2B1CD8DFE803F021230709B3
:104670000B0D1B0F1113151719001E231AE03223FF
:1046800018E0362316E0372314E0182312E019232C
:1046900010E01A230EE02B230CE02C230AE02D233C
:1046A00008E0094840F2BF11084A00F0E7BA1C23AD
:1046B00000E01D235909012203F01F0302FA03F34E
:1046C000034A42F82130704790E1000885D700087E
:1046D00000E100E00368002203F140430C3301EBEA
:1046E000C3039B0003F1844302311A6040F8212088
:1046F00070470000F8B54E1EF3B2032B04460D467A
:10470000174604D92648DA21264A00F0B7FA637919
:10471000022B43D0032F41D8DFE807F002122235E5
:1047200020462946FFF7D6FF236803F14043203394
:10473000DB0003EB8606B60006F18446002320E08A
:104740002368002203F140430C3305EBC3039B00B5
:1047500003F184431A60204629466022082303E0BF
:104760002046294610220023FFF7F6FE236803F1B6
:1047700040432033DB0003EB8606B60006F1844697
:1047800001233360F8BD23684FF2F1229A610322BE
:104790009A605B0103F1844301221A60F8BD00BFF7
:1047A00090E10008E3E1000810B5074B1C68E168E0
:1047B00022690A40120606D55B6A23B1984723692D
:1047C00023F08003236110BDE402002010B5074BE5
:1047D0001C68E16822690A40D20706D59B6823B1AC
:1047E0009847236923F00103236110BDE4020020F0
:1047F000F8B50C4F3D68EB682E691E4016F040047A
:1048000003D03C6A0CB1A0474024B30604D5FB6931
:1048100013B1984744F020042B6923EA04042C6167
:10482000F8BD00BFE4020020F8B5134F3E68F368FE
:1048300035691D4015F0100403D0BC690CB1A047C8
:104840001024290704D57B6913B1984744F0080464
:104850006A0704D53B6913B1984744F00404AB07D9
:1048600004D5FB6813B1984744F00204336923EA86
:1048700004043461F8BD00BFE4020020F8B51A4E0C
:104880003768FB683D691D4015F0400403D0346A69
:104890000CB1A0474024EB0604D5B36913B1984787
:1048A00044F01004280704D5736913B1984744F005
:1048B0000804690704D5336913B1984744F0040428
:1048C000AA0704D5F36813B1984744F00204EB0734
:1048D00004D5B36813B1984744F001043B6923EA57
:1048E00004043C61F8BD00BF0C030020F8B51A4E6B
:1048F0003768FB683D691D4015F0400403D0346AF9
:104900000CB1A0474024EB0604D5B36913B1984716
:1049100044F01004280704D5736913B1984744F094
:104920000804690704D5336913B1984744F00404B7
:10493000AA0704D5F36813B1984744F00204EB07C3
:1049400004D5B36813B1984744F001043B6923EAE6
:1049500004043C61F8BD00BF9C020020F8B51A4E6B
:104960003768FB683D691D4015F0400403D0346A88
:104970000CB1A0474024EB0604D5B36913B19847A6
:1049800044F01004280704D5736913B1984744F024
:104990000804690704D5336913B1984744F0040447
:1049A000AA0704D5F36813B1984744F00204EB0753
:1049B00004D5B36813B1984744F001043B6923EA76
:1049C00004043C61F8BD00BFC00200208188026879
:1049D000034689B2505C99881A8989B292B2914291
:1049E00017BF9A880022013292B2C0B29A807047F3
:1049F000C28838B5838892B29BB201329A4204468B
:104A00000D461AD0C288038992B29BB29A4202D153
:104A100083889BB28BB14FF0FF30E288236892B25B
:104A20009D54E288238992B29BB29A4217BFE388D1
:104A3000002301339BB2E38038BD2046FFF7C6FF59
:104A4000EBE770B51E460546084611460422059C54
:104A5000FFF71CFC9DF810100B223046FFF716FCE8
:104A60002B6804F00F01DA6804F0300422F4F052ED
:104A70001204120C42EA4122DA601A6922F440520E
:104A80001204120C42EA04241C6170BD38B50446BD
:104A9000154611B900F096F8014619235943AD00A7
:104AA0006423B1FBF5F1B1FBF3F21201100903FB32
:104AB000101109013231B1FBF3F303F00F03216848
:104AC0001A4392B28A6038BD38B5114DEB6898062A
:104AD00007D52B68990604D569680E48C9B2FFF757
:104AE00087FFEB680A4C1A0611D523681B060ED502
:104AF00009488288C38892B29BB29A4203D0FFF7DA
:104B000065FF606038BDE36823F08003E36038BD73
:104B10000038014004150020F814002038B5114D6C
:104B2000EB68980607D52B68990604D569680E4886
:104B3000C9B2FFF75DFFEB680A4C1A0611D523686E
:104B40001B060ED509488288C38892B29BB29A424E
:104B500003D0FFF73BFF606038BDE36823F08003BC
:104B6000E36038BD004400401015002028150020E7
:104B700038B5114DEB68980607D52B68990604D512
:104B800069680E48C9B2FFF733FFEB680A4C1A0692
:104B900011D523681B060ED509488288C38892B2B6
:104BA0009BB29A4203D0FFF711FF606038BDE36803
:104BB00023F08003E36038BD004800401C1500204E
:104BC0003415002008B590F89002FFF7EDFB20B1F6
:104BD0000128034818BF002008BD024808BD00BFD7
:104BE00000A24A040051250213B504468DF80710AF
:104BF00020460DF10701012200F0EAFD0028F7D060
:104C000002B010BD38B505464C1E14F8011F19B18D
:104C10002846FFF7E9FFF8E738BD000008B5114B5B
:104C200001211C6803222046FFF730FB00230121ED
:104C30001A469342206834BF02254FF40035B2F57E
:104C4000007F056103F1010303D0002A08BF0121A1
:104C500001E04FF0FF31B3F5007F04BF521800238D
:104C6000E7E700BFACE0000808B5034B0BB1AFF3BA
:104C7000008062B6FFF7D2FF00000000F8B5144BC9
:104C800006460D4617460BB3AFF3008011490446A4
:104C9000FFF7B8FF20463946FFF7B4FF20460E491C
:104CA000FFF7B0FF20463146FFF7ACFF20460B4927
:104CB000FFF7A8FF2046294600F0D8FD20460A212C
:104CC000FFF792FF20460D21FFF78EFFFFF7CCFF85
:104CD00000000000FFE1000815E2000855DD0008B3
:104CE00003695B68D9889A8889B292B2D8888A1A8F
:104CF000998880B289B2884203D2198989B2013178
:104D00000A4492B282B199881A6889B2505C998833
:104D10001A8989B292B2914217BF9A880022013251
:104D200092B2C0B29A8070474FF0FF30704703696B
:104D30005B689988DA8889B292B2914205D09A88E4
:104D40001B6892B2985CC0B270474FF0FF3070475A
:104D500003699A689088D18880B289B28842F9D173
:104D60001A6813685B06FCD5704713B504698DF8A3
:104D7000071020460DF10701012200F029FD00284F
:104D8000F7D0012002B010BD03695B68D8889A880B
:104D900080B292B2D988801A9A8889B292B291422E
:104DA00003D21B899BB20133184480B270470000C4
:104DB00030B5002545604FF47A758560024D01617C
:104DC00005600275437530BD48E2000803692DE9AE
:104DD000F74FDB68044699420F4692462CD890F86C
:104DE0001480174D4FEA081808EB050690F8159047
:104DF00070684FEA091909EB050B717B10B10022AD
:104E0000FFF778FC206900F093FC337B9BF80C20C3
:104E100020698DE8080459F8051058F80530FFF7A7
:104E200010FE206900213A46FFF730FE206903B0EA
:104E3000BDE8F04F00F0A6BC03B0BDE8F08F00BFA6
:104E40007CDE00080022FFF7C1BF006900F0A4BCAF
:104E5000044B02791B789A4202D1034B1B681860FD
:104E6000704700BF5015002054150020002310B5D6
:104E70000446036072B6054B19311970044B186073
:104E80000448FFF787FB62B6204610BD501500208E
:104E900054150020514E0008036800221B685B0176
:104EA00003F184431A607047036801221B685B01A9
:104EB00003F184431A607047036801391B6889B2A3
:104EC0009962704703681B68DA6A92B2914228BF00
:104ED00011465962704738B5054639B90368012251
:104EE0001B689962DA62D86A80B238BD48244C43A4
:104EF0004FF6FF71B4FBF1F1013189B204EB5104BB
:104F0000B4FBF1F4FFF7D8FF2B68A4B21B6820466E
:104F1000DC6238BD0068C9B2FFF7ECBB0368C9B2F8
:104F20001B6801F18041D86A013980B23433824272
:104F300028BF024643F8212070470068C9B2FFF736
:104F40005FBB000008B501210848FFF78FFF022171
:104F50000748FFF78BFF03210648FFF787FFBDE8EF
:104F6000084005480421FFF781BF00BF401500201D
:104F700044150020481500204C150020FEF79ABF6C
:104F800008B5FBF7EBF9FBF7AFF9FCE770B50546A1
:104F90000E460024315D29B12A68284612689047E0
:104FA0000134F7E7204670BDF8B505460C461646B5
:104FB0008F18BC4206D02B6828461B6814F8011BCA
:104FC0009847F6E73046F8BD10B502680B4694687E
:104FD00009689A68A04710BD08B503681B68984720
:104FE00008BD08B503685B68984708BD38B50D2152
:104FF0000546FFF7F1FF0A2104462846FFF7ECFFBC
:10500000204438BD38B50446FFF7DEFF054620468C
:10501000FFF7ECFF284438BD38B50446FFF7E1FF41
:1050200005462046FFF7E2FF284438BD2DE9F04F42
:1050300014461D4691B054EA050381469DF868B0B8
:1050400004D13021FFF7C8FF01202EE04FF0000807
:105050005FFA8BF600272046294632463B4602F08F
:10506000F5FC08F101080DF1000AC2440AF8012C10
:10507000204629463B46324602F0E8FC04460D46EF
:1050800054EA0503E4D1002408F1FF381DF80810A4
:105090004846092994BF30313731C9B2FFF79CFF28
:1050A0000444B8F1000FEFD1204611B0BDE8F08FF5
:1050B0002DE9F041069F064614461D462FB90368A8
:1050C000D1B21B689847BDE8F081002C75F1000350
:1050D00005DA2D21FFF780FF644265EB4505FFB23D
:1050E0000697304622462B46BDE8F041FFF79EBFAB
:1050F00007B5CB1700920A46FFF7DAFF03B05DF859
:1051000004FB38B50446FFF7F3FF05462046FFF7DA
:105110006DFF284438BD70B5049921B90368D1B238
:105120001B68984770BDC9B20491BDE87040FFF795
:105130007DBF07B500230092CAB2FFF7ECFF03B0B2
:105140005DF804FB38B50446FFF7F3FF054620463B
:10515000FFF74CFF284438BD07B5002300920A46EC
:10516000FFF7D9FF03B05DF804FB38B50446FFF73D
:10517000F3FF05462046FFF739FF284438BD07B541
:10518000002300920A46FFF7C6FF03B05DF804FB58
:105190002DE9F74F19460646144610461D460022D3
:1051A000002302F0B7F89DF830704FF0010838B1D5
:1051B0002046294644A3D3E9002302F0A1F806E0E3
:1051C0002046294642A3D3E9002302F08FF800B914
:1051D00080465FFA88F82046294600220023B8F16D
:1051E000000F0DD002F078F818B130462D21FFF7EE
:1051F000F3FE804638493046FFF7F3FE404460E056
:1052000002F06AF838B130462D21FFF7E5FE05F1CE
:10521000004380461D46314B4FF0000900225FFAE3
:1052200089F1B9420AD21046194600222C4B01F0EE
:105230000BFF09F1010902460B46F0E7204629461B
:1052400001F026FC04460D4602F016FC82468B4611
:1052500001F0A2FD02460B462046294601F016FC4D
:105260000A2300930446524630465B460D46FFF73C
:105270001FFF804427B130461A49FFF7B2FE804431
:10528000F7B1174B00222046294601F0B3FD0D4629
:10529000044602F049F881460A2249463046FFF7A3
:1052A00027FF8044484601F03FFD02460B4620465A
:1052B000294601F0EBFB013F04460D46FFB2DFE754
:1052C000404603B0BDE8F08F800350726C92DF431C
:1052D000800350726C92DFC368E200080000E03F78
:1052E0000000244021D7000837B59DF81810044667
:1052F0000091FFF74DFF05462046FFF777FE284453
:1053000003B030BD054B03EB001000F108038068CB
:1053100010B19979FEF708BF704700BF7CDE000826
:1053200022280ED8084B00011A18127B012101FA1D
:1053300002F21B581B689B681A420CBF0020012018
:1053400070470020704700BF7CDE0008222810D87C
:10535000084B00011A18127B1B58012000FA02F2B8
:10536000D1F1010138BF0021090102FA01F11B68E6
:10537000196170477CDE000810B5044630B103F0B7
:1053800093FA90FBF4F303FB140010BD10BD8842A8
:1053900010B5044604DA081AFFF7EEFF204410BDEA
:1053A00010BD00002DE9F04780460E46084600215A
:1053B00092469946FFF7CAFF0024BAF1000F02D0C7
:1053C000C4F1070100E0214649FA01F1404601F02D
:1053D0000101FFF7BBFF0B4A3301D718D358012156
:1053E0001D683B7BEA6801FA03F35340EB603A7BAC
:1053F000EB68914001345940082CE960DDD1BDE8EB
:10540000F08700BF7CDE0008054B70B51C680646BF
:105410001D4600F01DF92B681B1BB342F9D370BD6C
:105420008C1500200C235843431E18460138FDD824
:10543000704710B50446006802F068FE204610BDB3
:1054400010B50446006808B102F060FE0023236036
:10545000A360636010BD38B504460D460068013195
:1054600003F042FA10B184E82100012038BD03683E
:1054700010B5044613B143688B4207D22046FFF7AC
:10548000EAFF20B1A3680BB922681370012010BD98
:1054900070B50E46114604461546FFF7E8FF18B9E9
:1054A0002046FFF7CDFF04E0A5602068314603F0F9
:1054B0003BFC204670BD38B50023044603604360C2
:1054C00083600D4639B1084603F08CFC294602463C
:1054D0002046FFF7DDFF204638BD884210B50B4659
:1054E000044607D0096819B19A68FFF7D1FF01E0B7
:1054F000FFF7A6FF204610BD10B500230446036049
:1055000043608360FFF7E9FF204610BD70B5044695
:1055100085680E4609B9002070BD62B11544294660
:10552000FFF7A5FF0028F6D02068A368314618448D
:1055300003F0FAFBA560012070BD1FB504460A22E6
:105540000846694600F0BCF8684603F04BFC694623
:1055500002462046FFF7DAFF04B010BD1FB504462F
:105560000A220846694600F0D6F8684603F03AFC7D
:10557000694602462046FFF7C9FF04B010BD38B5A2
:1055800004460D4641B1084603F02CFC294602466C
:105590002046FFF7BBFF10B92046FFF751FF20461A
:1055A00038BD10B50446FFF7C8FF10B92046FFF715
:1055B00047FF204610BD10B50446FFF7CFFF10B9D6
:1055C0002046FFF73DFF204610BD0000222870B5A1
:1055D0003BD8082939D8DFE801F0051A080B0E116D
:1055E000081417000024032213E00024042210E012
:1055F000002422460DE0002409220AE000240822AB
:1056000007E001240B2204E001240F2201E0002422
:1056100007220E4B00011E18317B1858FEF736FE8C
:10562000706890B1717B24B10122BDE87040FFF732
:1056300061B80368013903F140432033DB0003EB19
:1056400081039B0003F184431C6070BD7CDE000875
:105650007047F0B58BB059B3931E222B2AD80A2A73
:105660002AD1002828DA4042012501AB1E4670B13C
:10567000B0FBF2F702FB1704092C3846D8BF3034D0
:1056800003F10107C8BF57341C703B46EFE7B34234
:10569000EED01DB12D204A1C087000E00A46B3422E
:1056A00004D913F8010D02F8010BF8E70023137079
:1056B000084603E0002001E00025D6E70BB0F0BD6E
:1056C000FFF7C7BF70B58AB001B3931E222B1FD856
:1056D00001AB1D4670B1B0FBF2F602FB1604092CBB
:1056E0003046D8BF303403F10106C8BF57341C70B0
:1056F0003346EFE7AB42EED00A46AB4204D913F88B
:10570000010D02F8010BF8E700231370084600E0D2
:1057100000200AB070BDFFF7D5BF10B50446007970
:10572000FEF7AAFE2079BDE81040FEF7BDBE0000DE
:10573000436800227F2110B59A80DA80198100F138
:1057400010011960836804469A80DA8040F2FF12E3
:105750001A8100F190021A6090F89002FEF78CFE18
:1057600094F891325AB2002A08DB012103F01F039A
:1057700001FA03F30249521141F8223010BD00BF73
:1057800000E100E00368DA6842F02C02DA60DA68CF
:1057900042F40052DA60704710B50368826894885A
:1057A000D188A4B289B28C42F9D1DA68910402D5C9
:1057B0001A685206F9D5DA6822F40052DA604368B2
:1057C0009A8892B2DA8083689A8892B2DA8010BDA1
:1057D000F0B583680546046800209F88DE88BFB264
:1057E000B6B2B74204D0E36823F08003E36027E059
:1057F00026683606F7D59042F5D00E5C013066601B
:10580000EBE7DF889E88BFB2B6B20137B74211F826
:1058100000C01DD0DF881E89BFB2B6B2B74213D018
:10582000DF881E68BFB206F807C0DF881E89BFB2D6
:10583000B6B2B74218D0DE880136B6B2DE8001308B
:105840009042AB68DDD303E09E88B6B2002EE7D16C
:105850009A88DB8892B29BB29A4200D1F0BDE3688D
:1058600043F08003E360F0BD0026E7E77FB506461E
:1058700000240A22B1FBF2F302FB1312013401AD42
:105880002819303200F8012C1946002BF1D114F1FF
:10589000FF340BD32B5D8DF8033030460DF103013F
:1058A0000122FFF795FF0028F7D0F0E704B070BDA4
:1058B0002DE9F04F8BB01D4680468946144600F016
:1058C00073F9DFF8ACA206469AF900300F460133AF
:1058D00004D02046294600F08DFF20B930463946D5
:1058E0000BB0BDE8F08F4046494600F083FF834689
:1058F00000282CD1204629460022002301F0E2FC9A
:105900000028EBD0944B9AF90010944E002201200D
:10591000CDE906234B1CCDF820B0CDE90289CDE9B5
:1059200004458DE841000DD002290BD0684600F0F7
:1059300089FF002800F09580089B1BB102F0A0FBB6
:10594000089B0360DDE906010BB0BDE8F08F002283
:1059500000234046494601F0B5FCF8B120462946EF
:105960000022002301F0AEFC834600284DD07B4886
:105970009AF90030CDE904450121002200240025D8
:10598000CDE90289CDE90645019000910892002BEE
:10599000CCD0714B0022CDE90623D3E730463946FF
:1059A00000F022FF8346002860D00022002330460A
:1059B000394601F087FC002890D04046494600F067
:1059C00013FF00288AD02046294600F00DFF00284A
:1059D00084D09AF900306148CDE9044504210022C1
:1059E00000240025022BCDE90289CDE9064501906E
:1059F0000091089200F08280684600F023FF0028A2
:105A00007CD0089B002B9DD098E72046294600F0CB
:105A1000EBFE00283FF462AF204629460022002317
:105A200001F05AFC00283FF459AF4C4A9AF8001094
:105A300001230192CDF820B0CDE90289CDE90445DA
:105A400000930022002934D10023CDE906236846C3
:105A500000F0F8FE0028D4D102F012FB21230360ED
:105A6000CFE702F00DFB2123036065E7404649467E
:105A700000F0BAFE002898D02046294600F0B4FE77
:105A8000002892D03046394600F0B4FEB8B9334A07
:105A90009AF8006001230890CDE90289CDE9044518
:105AA00001920093002E2ED100240025CDE9064559
:105AB000CDE72B4B0229CDE90623CDD0C7E72749F7
:105AC0009AF90030032201910092CDF820B0CDE97F
:105AD0000289CDE90445404649460022F3B9214FE9
